Component: ARM Compiler 5.05 update 1 (build 106) Tool: armlink [4d0efa]

==============================================================================

Section Cross References

    main.o(.text) refers to system.o(.text) for NVIC_Configuration
    main.o(.text) refers to usart.o(.text) for uart_init
    main.o(.text) refers to timer.o(.text) for Timer2_Config
    main.o(.text) refers to printf1.o(i.__0printf$1) for __2printf
    main.o(.text) refers to bufferrankorder.o(.text) for BufferRankOrderInsert
    main.o(.text) refers to main.o(.bss) for MainBuffer
    main.o(.text) refers to bufferrankorder.o(.bss) for BufferRankOrder
    system.o(.text) refers to misc.o(.text) for NVIC_PriorityGroupConfig
    delay.o(.text) refers to misc.o(.text) for SysTick_CLKSourceConfig
    delay.o(.text) refers to system_stm32f10x.o(.data) for SystemCoreClock
    delay.o(.text) refers to delay.o(.data) for fac_us
    usart.o(.text) refers to buffermanage.o(.text) for BufferManageCreate
    usart.o(.text) refers to looplist.o(.text) for rbCreate
    usart.o(.text) refers to stm32f10x_rcc.o(.text) for RCC_APB1PeriphClockCmd
    usart.o(.text) refers to stm32f10x_gpio.o(.text) for GPIO_Init
    usart.o(.text) refers to stm32f10x_usart.o(.text) for USART_Init
    usart.o(.text) refers to stm32f10x_dma.o(.text) for DMA_Init
    usart.o(.text) refers to usart.o(.bss) for Usart1BufferMemoryManage
==============================================================================

Removing Unused input sections from the image.

    Removing delay.o(.text), (212 bytes).
    Removing delay.o(.data), (4 bytes).
    Removing core_cm3.o(.emb_text), (32 bytes).
    Removing stm32f10x_flash.o(.text), (1468 bytes).
    Removing stm32f10x_iwdg.o(.text), (64 bytes).
    Removing startup_stm32f10x_hd.o(HEAP), (512 bytes).
    Removing dadd.o(.text), (334 bytes).
    Removing dmul.o(.text), (228 bytes).
    Removing ddiv.o(.text), (222 bytes).
    Removing dfixul.o(.text), (48 bytes).
    Removing cdrcmple.o(.text), (48 bytes).
    Removing depilogue.o(.text), (186 bytes).

12 unused section(s) (total 3358 bytes) removed from the image.

==============================================================================

Image Symbol Table

    Local Symbols

    Symbol Name                              Value     Ov Type        Size  Object(Section)

    ../clib/microlib/division.c              0x00000000   Number         0  uldiv.o ABSOLUTE
    ../clib/microlib/division.c              0x00000000   Number         0  uidiv.o ABSOLUTE
    ../clib/microlib/init/entry.s            0x00000000   Number         0  entry8a.o ABSOLUTE
    ../clib/microlib/init/entry.s            0x00000000   Number         0  entry8b.o ABSOLUTE
    ../clib/microlib/init/entry.s            0x00000000   Number         0  entry9a.o ABSOLUTE
    ../clib/microlib/init/entry.s            0x00000000   Number         0  entry2.o ABSOLUTE
    ../clib/microlib/init/entry.s            0x00000000   Number         0  entry5.o ABSOLUTE
    ../clib/microlib/init/entry.s            0x00000000   Number         0  entry7a.o ABSOLUTE
    ../clib/microlib/init/entry.s            0x00000000   Number         0  entry7b.o ABSOLUTE
    ../clib/microlib/init/entry.s            0x00000000   Number         0  entry11b.o ABSOLUTE
    ../clib/microlib/init/entry.s            0x00000000   Number         0  entry11a.o ABSOLUTE
    ../clib/microlib/init/entry.s            0x00000000   Number         0  entry10b.o ABSOLUTE
    ../clib/microlib/init/entry.s            0x00000000   Number         0  entry10a.o ABSOLUTE
    ../clib/microlib/init/entry.s            0x00000000   Number         0  entry.o ABSOLUTE
    ../clib/microlib/init/entry.s            0x00000000   Number         0  entry9b.o ABSOLUTE
    ../clib/microlib/longlong.c              0x00000000   Number         0  llshl.o ABSOLUTE
    ../clib/microlib/longlong.c              0x00000000   Number         0  llsshr.o ABSOLUTE
    ../clib/microlib/longlong.c              0x00000000   Number         0  llushr.o ABSOLUTE
    ../clib/microlib/printf/printf.c         0x00000000   Number         0  printf1.o ABSOLUTE
    ../clib/microlib/printf/printf.c         0x00000000   Number         0  printfb.o ABSOLUTE
    ../clib/microlib/printf/printf.c         0x00000000   Number         0  printf7.o ABSOLUTE
    ../clib/microlib/printf/printf.c         0x00000000   Number         0  printf2.o ABSOLUTE
    ../clib/microlib/printf/printf.c         0x00000000   Number         0  printf3.o ABSOLUTE
    ../clib/microlib/printf/printf.c         0x00000000   Number         0  printf4.o ABSOLUTE
    ../clib/microlib/printf/printf.c         0x00000000   Number         0  printfa.o ABSOLUTE
    ../clib/microlib/printf/printf.c         0x00000000   Number         0  printf5.o ABSOLUTE
    ../clib/microlib/printf/printf.c         0x00000000   Number         0  printf6.o ABSOLUTE
    ../clib/microlib/printf/printf.c         0x00000000   Number         0  printf8.o ABSOLUTE
    ../clib/microlib/printf/printf.c         0x00000000   Number         0  printf0.o ABSOLUTE
    ../clib/microlib/printf/stubs.s          0x00000000   Number         0  stubs.o ABSOLUTE
    ../clib/microlib/stdio/streams.c         0x00000000   Number         0  stdout.o ABSOLUTE
    ../clib/microlib/string/memcmp.c         0x00000000   Number         0  memcmp.o ABSOLUTE
    ../clib/microlib/string/memcpy.c         0x00000000   Number         0  memcpyb.o ABSOLUTE
    ../clib/microlib/string/memcpy.c         0x00000000   Number         0  memcpya.o ABSOLUTE
    ../clib/microlib/string/memset.c         0x00000000   Number         0  memseta.o ABSOLUTE
    ../clib/microlib/stubs.s                 0x00000000   Number         0  iusefp.o ABSOLUTE
    ../fplib/microlib/fpadd.c                0x00000000   Number         0  dadd.o ABSOLUTE
    ../fplib/microlib/fpdiv.c                0x00000000   Number         0  ddiv.o ABSOLUTE
    ../fplib/microlib/fpepilogue.c           0x00000000   Number         0  depilogue.o ABSOLUTE
    ../fplib/microlib/fpfix.c                0x00000000   Number         0  dfixul.o ABSOLUTE
    ../fplib/microlib/fpmul.c                0x00000000   Number         0  dmul.o ABSOLUTE
    ..\CMSIS\core_cm3.c                      0x00000000   Number         0  core_cm3.o ABSOLUTE
    ..\CMSIS\system_stm32f10x.c              0x00000000   Number         0  system_stm32f10x.o ABSOLUTE
    ..\Libraries\src\misc.c                  0x00000000   Number         0  misc.o ABSOLUTE
    ..\Libraries\src\stm32f10x_dma.c         0x00000000   Number         0  stm32f10x_dma.o ABSOLUTE
    ..\Libraries\src\stm32f10x_flash.c       0x00000000   Number         0  stm32f10x_flash.o ABSOLUTE
    ..\Libraries\src\stm32f10x_gpio.c        0x00000000   Number         0  stm32f10x_gpio.o ABSOLUTE
    ..\Libraries\src\stm32f10x_iwdg.c        0x00000000   Number         0  stm32f10x_iwdg.o ABSOLUTE
    ..\Libraries\src\stm32f10x_rcc.c         0x00000000   Number         0  stm32f10x_rcc.o ABSOLUTE
    ..\Libraries\src\stm32f10x_tim.c         0x00000000   Number         0  stm32f10x_tim.o ABSOLUTE
    ..\Libraries\src\stm32f10x_usart.c       0x00000000   Number         0  stm32f10x_usart.o ABSOLUTE
    ..\Startup\startup_stm32f10x_hd.s        0x00000000   Number         0  startup_stm32f10x_hd.o ABSOLUTE
    ..\User\BufferManage.c                   0x00000000   Number         0  buffermanage.o ABSOLUTE
    ..\User\BufferRankOrder.c                0x00000000   Number         0  bufferrankorder.o ABSOLUTE
    ..\User\LoopList.c                       0x00000000   Number         0  looplist.o ABSOLUTE
    ..\User\System.c                         0x00000000   Number         0  system.o ABSOLUTE
    ..\User\delay.c                          0x00000000   Number         0  delay.o ABSOLUTE
    ..\User\main.c                           0x00000000   Number         0  main.o ABSOLUTE
    ..\User\stm32f10x_it.c                   0x00000000   Number         0  stm32f10x_it.o ABSOLUTE
    ..\User\timer.c                          0x00000000   Number         0  timer.o ABSOLUTE
    ..\User\usart.c                          0x00000000   Number         0  usart.o ABSOLUTE
    ..\\CMSIS\\core_cm3.c                    0x00000000   Number         0  core_cm3.o ABSOLUTE
    cdrcmple.s                               0x00000000   Number         0  cdrcmple.o ABSOLUTE
    dc.s                                     0x00000000   Number         0  dc.o ABSOLUTE
    handlers.s                               0x00000000   Number         0  handlers.o ABSOLUTE
    init.s                                   0x00000000   Number         0  init.o ABSOLUTE
    RESET                                    0x08000000   Section      304  startup_stm32f10x_hd.o(RESET)
    .ARM.Collect$$$$00000000                 0x08000130   Section        0  entry.o(.ARM.Collect$$$$00000000)
    .ARM.Collect$$$$00000001                 0x08000130   Section        4  entry2.o(.ARM.Collect$$$$00000001)
    .ARM.Collect$$$$00000004                 0x08000134   Section        4  entry5.o(.ARM.Collect$$$$00000004)
    .ARM.Collect$$$$00000008                 0x08000138   Section        0  entry7b.o(.ARM.Collect$$$$00000008)
    .ARM.Collect$$$$0000000A                 0x08000138   Section        0  entry8b.o(.ARM.Collect$$$$0000000A)
    .ARM.Collect$$$$0000000B                 0x08000138   Section        8  entry9a.o(.ARM.Collect$$$$0000000B)
    .ARM.Collect$$$$0000000D                 0x08000140   Section        0  entry10a.o(.ARM.Collect$$$$0000000D)
    .ARM.Collect$$$$0000000F                 0x08000140   Section        0  entry11a.o(.ARM.Collect$$$$0000000F)
    .ARM.Collect$$$$00002712                 0x08000140   Section        4  entry2.o(.ARM.Collect$$$$00002712)
    __lit__00000000                          0x08000140   Data           4  entry2.o(.ARM.Collect$$$$00002712)
    .text                                    0x08000144   Section        0  stm32f10x_it.o(.text)
    .text                                    0x08000184   Section        0  main.o(.text)
    .text                                    0x08000288   Section        0  system.o(.text)
    .text                                    0x08000314   Section        0  usart.o(.text)
    .text                                    0x080005a0   Section        0  timer.o(.text)
    .text                                    0x08000618   Section        0  buffermanage.o(.text)
    .text                                    0x080006ec   Section        0  looplist.o(.text)
    .text                                    0x080008e8   Section        0  bufferrankorder.o(.text)
    .text                                    0x08000a1c   Section        0  system_stm32f10x.o(.text)
    SetSysClockTo72                          0x08000a1d   Thumb Code   214  system_stm32f10x.o(.text)
    SetSysClock                              0x08000af3   Thumb Code     8  system_stm32f10x.o(.text)
    .text                                    0x08000bfc   Section        0  misc.o(.text)
    .text                                    0x08000cd8   Section        0  stm32f10x_rcc.o(.text)
    .text                                    0x0800107c   Section        0  stm32f10x_usart.o(.text)
    .text                                    0x08001484   Section        0  stm32f10x_gpio.o(.text)
    .text                                    0x080017e0   Section        0  stm32f10x_tim.o(.text)
    TI4_Config                               0x08001c87   Thumb Code   130  stm32f10x_tim.o(.text)
    TI3_Config                               0x08001d1b   Thumb Code   122  stm32f10x_tim.o(.text)
    TI2_Config                               0x08001daf   Thumb Code   130  stm32f10x_tim.o(.text)
    TI1_Config                               0x08001e43   Thumb Code   108  stm32f10x_tim.o(.text)
    .text                                    0x080025fc   Section        0  stm32f10x_dma.o(.text)
    .text                                    0x08002850   Section       36  startup_stm32f10x_hd.o(.text)
    .text                                    0x08002874   Section        0  memcpya.o(.text)
    .text                                    0x08002898   Section        0  memseta.o(.text)
    .text                                    0x080028bc   Section        0  memcmp.o(.text)
    .text                                    0x080028d6   Section        0  uidiv.o(.text)
    .text                                    0x08002904   Section       36  init.o(.text)
    i.__0printf$1                            0x08002928   Section        0  printf1.o(i.__0printf$1)
    i.__scatterload_copy                     0x08002948   Section       14  handlers.o(i.__scatterload_copy)
    i.__scatterload_null                     0x08002956   Section        2  handlers.o(i.__scatterload_null)
    i.__scatterload_zeroinit                 0x08002958   Section       14  handlers.o(i.__scatterload_zeroinit)
    i._printf_core                           0x08002968   Section        0  printf1.o(i._printf_core)
    _printf_core                             0x08002969   Thumb Code   336  printf1.o(i._printf_core)
    .data                                    0x20000000   Section        5  usart.o(.data)
    flage                                    0x20000004   Data           1  usart.o(.data)
    .data                                    0x20000008   Section        4  timer.o(.data)
    .data                                    0x2000000c   Section       20  system_stm32f10x.o(.data)
    .data                                    0x20000020   Section       20  stm32f10x_rcc.o(.data)
    APBAHBPrescTable                         0x20000020   Data          16  stm32f10x_rcc.o(.data)
    ADCPrescTable                            0x20000030   Data           4  stm32f10x_rcc.o(.data)
    .data                                    0x20000034   Section        4  stdout.o(.data)
    .bss                                     0x20000038   Section     1024  main.o(.bss)
    .bss                                     0x20000438   Section     2506  usart.o(.bss)
    .bss                                     0x20000e02   Section      250  bufferrankorder.o(.bss)
    STACK                                    0x20000f00   Section     1024  startup_stm32f10x_hd.o(STACK)

    Global Symbols

    Symbol Name                              Value     Ov Type        Size  Object(Section)

    BuildAttributes$$THM_ISAv4$P$D$K$B$S$PE$A:L22UL41UL21$X:L11$S22US41US21$IEEE1$IW$USESV6$~STKCKD$USESV7$~SHL$OSPACE$ROPI$EBA8$MICROLIB$REQ8$PRES8$EABIv2 0x00000000   Number         0  anon$$obj.o ABSOLUTE
    __ARM_use_no_argv                        0x00000000   Number         0  main.o ABSOLUTE
    _printf_a                                0x00000000   Number         0  stubs.o ABSOLUTE
    _printf_c                                0x00000000   Number         0  stubs.o ABSOLUTE
    _printf_charcount                        0x00000000   Number         0  stubs.o ABSOLUTE
    _printf_d                                0x00000000   Number         0  stubs.o ABSOLUTE
    _printf_e                                0x00000000   Number         0  stubs.o ABSOLUTE
    _printf_f                                0x00000000   Number         0  stubs.o ABSOLUTE
    _printf_flags                            0x00000000   Number         0  stubs.o ABSOLUTE
    _printf_fp_dec                           0x00000000   Number         0  stubs.o ABSOLUTE
    _printf_fp_hex                           0x00000000   Number         0  stubs.o ABSOLUTE
    _printf_g                                0x00000000   Number         0  stubs.o ABSOLUTE
    _printf_i                                0x00000000   Number         0  stubs.o ABSOLUTE
    _printf_int_dec                          0x00000000   Number         0  stubs.o ABSOLUTE
    _printf_l                                0x00000000   Number         0  stubs.o ABSOLUTE
    _printf_lc                               0x00000000   Number         0  stubs.o ABSOLUTE
    _printf_ll                               0x00000000   Number         0  stubs.o ABSOLUTE
    _printf_lld                              0x00000000   Number         0  stubs.o ABSOLUTE
    _printf_lli                              0x00000000   Number         0  stubs.o ABSOLUTE
    _printf_llo                              0x00000000   Number         0  stubs.o ABSOLUTE
    _printf_llu                              0x00000000   Number         0  stubs.o ABSOLUTE
    _printf_llx                              0x00000000   Number         0  stubs.o ABSOLUTE
    _printf_longlong_dec                     0x00000000   Number         0  stubs.o ABSOLUTE
    _printf_longlong_hex                     0x00000000   Number         0  stubs.o ABSOLUTE
    _printf_longlong_oct                     0x00000000   Number         0  stubs.o ABSOLUTE
    _printf_ls                               0x00000000   Number         0  stubs.o ABSOLUTE
    _printf_mbtowc                           0x00000000   Number         0  stubs.o ABSOLUTE
    _printf_n                                0x00000000   Number         0  stubs.o ABSOLUTE
    _printf_o                                0x00000000   Number         0  stubs.o ABSOLUTE
    _printf_p                                0x00000000   Number         0  stubs.o ABSOLUTE
    _printf_percent                          0x00000000   Number         0  stubs.o ABSOLUTE
    _printf_pre_padding                      0x00000000   Number         0  stubs.o ABSOLUTE
    _printf_return_value                     0x00000000   Number         0  stubs.o ABSOLUTE
    _printf_s                                0x00000000   Number         0  stubs.o ABSOLUTE
    _printf_sizespec                         0x00000000   Number         0  stubs.o ABSOLUTE
    _printf_str                              0x00000000   Number         0  stubs.o ABSOLUTE
    _printf_truncate_signed                  0x00000000   Number         0  stubs.o ABSOLUTE
    _printf_truncate_unsigned                0x00000000   Number         0  stubs.o ABSOLUTE
    _printf_u                                0x00000000   Number         0  stubs.o ABSOLUTE
    _printf_wc                               0x00000000   Number         0  stubs.o ABSOLUTE
    _printf_wctomb                           0x00000000   Number         0  stubs.o ABSOLUTE
    _printf_widthprec                        0x00000000   Number         0  stubs.o ABSOLUTE
    _printf_x                                0x00000000   Number         0  stubs.o ABSOLUTE
    __cpp_initialize__aeabi_                  - Undefined Weak Reference
    __cxa_finalize                            - Undefined Weak Reference
    __decompress                              - Undefined Weak Reference
    _clock_init                               - Undefined Weak Reference
    _microlib_exit                            - Undefined Weak Reference
    __Vectors_Size                           0x00000130   Number         0  startup_stm32f10x_hd.o ABSOLUTE
    __Vectors                                0x08000000   Data           4  startup_stm32f10x_hd.o(RESET)
    __Vectors_End                            0x08000130   Data           0  startup_stm32f10x_hd.o(RESET)
    __main                                   0x08000131   Thumb Code     0  entry.o(.ARM.Collect$$$$00000000)
    _main_stk                                0x08000131   Thumb Code     0  entry2.o(.ARM.Collect$$$$00000001)
    _main_scatterload                        0x08000135   Thumb Code     0  entry5.o(.ARM.Collect$$$$00000004)
    __main_after_scatterload                 0x08000139   Thumb Code     0  entry5.o(.ARM.Collect$$$$00000004)
    _main_clock                              0x08000139   Thumb Code     0  entry7b.o(.ARM.Collect$$$$00000008)
    _main_cpp_init                           0x08000139   Thumb Code     0  entry8b.o(.ARM.Collect$$$$0000000A)
    _main_init                               0x08000139   Thumb Code     0  entry9a.o(.ARM.Collect$$$$0000000B)
    __rt_final_cpp                           0x08000141   Thumb Code     0  entry10a.o(.ARM.Collect$$$$0000000D)
    __rt_final_exit                          0x08000141   Thumb Code     0  entry11a.o(.ARM.Collect$$$$0000000F)
    NMI_Handler                              0x08000145   Thumb Code     2  stm32f10x_it.o(.text)
    HardFault_Handler                        0x08000147   Thumb Code    36  stm32f10x_it.o(.text)
    MemManage_Handler                        0x0800016b   Thumb Code     4  stm32f10x_it.o(.text)
    BusFault_Handler                         0x0800016f   Thumb Code     4  stm32f10x_it.o(.text)
    UsageFault_Handler                       0x08000173   Thumb Code     4  stm32f10x_it.o(.text)
    SVC_Handler                              0x08000177   Thumb Code     2  stm32f10x_it.o(.text)
    DebugMon_Handler                         0x08000179   Thumb Code     2  stm32f10x_it.o(.text)
    PendSV_Handler                           0x0800017b   Thumb Code     2  stm32f10x_it.o(.text)
    main                                     0x08000185   Thumb Code   194  main.o(.text)
    NVIC_Configuration                       0x08000289   Thumb Code    98  system.o(.text)
    Reset_MCU                                0x080002eb   Thumb Code    32  system.o(.text)
    uart_init                                0x08000315   Thumb Code   174  usart.o(.text)
    uart_dma_init                            0x080003c3   Thumb Code    76  usart.o(.text)
    UsartOutStr                              0x0800040f   Thumb Code    44  usart.o(.text)
    UsartOutChar                             0x0800043b   Thumb Code    30  usart.o(.text)
    UsartOutStrIT                            0x08000459   Thumb Code    38  usart.o(.text)
    USART1_IRQHandler                        0x0800047f   Thumb Code   188  usart.o(.text)
    fputc                                    0x0800053b   Thumb Code    58  usart.o(.text)
    Timer2_Config                            0x080005a1   Thumb Code    80  timer.o(.text)
    TIM2_IRQHandler                          0x080005f1   Thumb Code    34  timer.o(.text)
    BufferManageCreate                       0x08000619   Thumb Code    64  buffermanage.o(.text)
    BufferManageWrite                        0x08000659   Thumb Code    84  buffermanage.o(.text)
    BufferManageRead                         0x080006ad   Thumb Code    64  buffermanage.o(.text)
    rbCreate                                 0x080006ed   Thumb Code    20  looplist.o(.text)
    rbDelete                                 0x08000701   Thumb Code    18  looplist.o(.text)
    rbCapacity                               0x08000713   Thumb Code    14  looplist.o(.text)
    rbCanRead                                0x08000721   Thumb Code    56  looplist.o(.text)
    rbCanWrite                               0x08000759   Thumb Code    30  looplist.o(.text)
    rbRead                                   0x08000777   Thumb Code   164  looplist.o(.text)
    rbWrite                                  0x0800081b   Thumb Code   160  looplist.o(.text)
    PutData                                  0x080008bb   Thumb Code    46  looplist.o(.text)
    BufferRankOrderInsert                    0x080008e9   Thumb Code   304  bufferrankorder.o(.text)
    SystemInit                               0x08000afb   Thumb Code    78  system_stm32f10x.o(.text)
    SystemCoreClockUpdate                    0x08000b49   Thumb Code   142  system_stm32f10x.o(.text)
    NVIC_PriorityGroupConfig                 0x08000bfd   Thumb Code    10  misc.o(.text)
    NVIC_Init                                0x08000c07   Thumb Code   100  misc.o(.text)
    NVIC_SetVectorTable                      0x08000c6b   Thumb Code    14  misc.o(.text)
    NVIC_SystemLPConfig                      0x08000c79   Thumb Code    34  misc.o(.text)
    SysTick_CLKSourceConfig                  0x08000c9b   Thumb Code    40  misc.o(.text)
    RCC_DeInit                               0x08000cd9   Thumb Code    64  stm32f10x_rcc.o(.text)
    RCC_HSEConfig                            0x08000d19   Thumb Code    70  stm32f10x_rcc.o(.text)
    RCC_GetFlagStatus                        0x08000d5f   Thumb Code    56  stm32f10x_rcc.o(.text)
    RCC_WaitForHSEStartUp                    0x08000d97   Thumb Code    56  stm32f10x_rcc.o(.text)
    RCC_AdjustHSICalibrationValue            0x08000dcf   Thumb Code    20  stm32f10x_rcc.o(.text)
    RCC_HSICmd                               0x08000de3   Thumb Code     6  stm32f10x_rcc.o(.text)
    RCC_PLLConfig                            0x08000de9   Thumb Code    24  stm32f10x_rcc.o(.text)
    RCC_PLLCmd                               0x08000e01   Thumb Code     6  stm32f10x_rcc.o(.text)
    RCC_SYSCLKConfig                         0x08000e07   Thumb Code    18  stm32f10x_rcc.o(.text)
    RCC_GetSYSCLKSource                      0x08000e19   Thumb Code    10  stm32f10x_rcc.o(.text)
    RCC_HCLKConfig                           0x08000e23   Thumb Code    18  stm32f10x_rcc.o(.text)
    RCC_PCLK1Config                          0x08000e35   Thumb Code    18  stm32f10x_rcc.o(.text)
    RCC_PCLK2Config                          0x08000e47   Thumb Code    20  stm32f10x_rcc.o(.text)
    RCC_ITConfig                             0x08000e5b   Thumb Code    26  stm32f10x_rcc.o(.text)
    RCC_USBCLKConfig                         0x08000e75   Thumb Code     8  stm32f10x_rcc.o(.text)
    RCC_ADCCLKConfig                         0x08000e7d   Thumb Code    18  stm32f10x_rcc.o(.text)
    RCC_LSEConfig                            0x08000e8f   Thumb Code    50  stm32f10x_rcc.o(.text)
    RCC_LSICmd                               0x08000ec1   Thumb Code     6  stm32f10x_rcc.o(.text)
    RCC_RTCCLKConfig                         0x08000ec7   Thumb Code    12  stm32f10x_rcc.o(.text)
    RCC_RTCCLKCmd                            0x08000ed3   Thumb Code     8  stm32f10x_rcc.o(.text)
    RCC_GetClocksFreq                        0x08000edb   Thumb Code   192  stm32f10x_rcc.o(.text)
    RCC_AHBPeriphClockCmd                    0x08000f9b   Thumb Code    26  stm32f10x_rcc.o(.text)
    RCC_APB2PeriphClockCmd                   0x08000fb5   Thumb Code    26  stm32f10x_rcc.o(.text)
    RCC_APB1PeriphClockCmd                   0x08000fcf   Thumb Code    26  stm32f10x_rcc.o(.text)
    RCC_APB2PeriphResetCmd                   0x08000fe9   Thumb Code    26  stm32f10x_rcc.o(.text)
    RCC_APB1PeriphResetCmd                   0x08001003   Thumb Code    26  stm32f10x_rcc.o(.text)
    RCC_BackupResetCmd                       0x0800101d   Thumb Code     8  stm32f10x_rcc.o(.text)
    RCC_ClockSecuritySystemCmd               0x08001025   Thumb Code     6  stm32f10x_rcc.o(.text)
    RCC_MCOConfig                            0x0800102b   Thumb Code     6  stm32f10x_rcc.o(.text)
    RCC_ClearFlag                            0x08001031   Thumb Code    14  stm32f10x_rcc.o(.text)
    RCC_GetITStatus                          0x0800103f   Thumb Code    20  stm32f10x_rcc.o(.text)
    RCC_ClearITPendingBit                    0x08001053   Thumb Code     6  stm32f10x_rcc.o(.text)
    USART_DeInit                             0x0800107d   Thumb Code   134  stm32f10x_usart.o(.text)
    USART_Init                               0x08001103   Thumb Code   210  stm32f10x_usart.o(.text)
    USART_StructInit                         0x080011d5   Thumb Code    24  stm32f10x_usart.o(.text)
    USART_ClockInit                          0x080011ed   Thumb Code    34  stm32f10x_usart.o(.text)
    USART_ClockStructInit                    0x0800120f   Thumb Code    12  stm32f10x_usart.o(.text)
    USART_Cmd                                0x0800121b   Thumb Code    24  stm32f10x_usart.o(.text)
    USART_ITConfig                           0x08001233   Thumb Code    74  stm32f10x_usart.o(.text)
    USART_DMACmd                             0x0800127d   Thumb Code    18  stm32f10x_usart.o(.text)
    USART_SetAddress                         0x0800128f   Thumb Code    18  stm32f10x_usart.o(.text)
    USART_WakeUpConfig                       0x080012a1   Thumb Code    18  stm32f10x_usart.o(.text)
    USART_ReceiverWakeUpCmd                  0x080012b3   Thumb Code    24  stm32f10x_usart.o(.text)
    USART_LINBreakDetectLengthConfig         0x080012cb   Thumb Code    18  stm32f10x_usart.o(.text)
    USART_LINCmd                             0x080012dd   Thumb Code    24  stm32f10x_usart.o(.text)
    USART_SendData                           0x080012f5   Thumb Code     8  stm32f10x_usart.o(.text)
    USART_ReceiveData                        0x080012fd   Thumb Code    10  stm32f10x_usart.o(.text)
    USART_SendBreak                          0x08001307   Thumb Code    10  stm32f10x_usart.o(.text)
    USART_SetGuardTime                       0x08001311   Thumb Code    16  stm32f10x_usart.o(.text)
    USART_SetPrescaler                       0x08001321   Thumb Code    16  stm32f10x_usart.o(.text)
    USART_SmartCardCmd                       0x08001331   Thumb Code    24  stm32f10x_usart.o(.text)
    USART_SmartCardNACKCmd                   0x08001349   Thumb Code    24  stm32f10x_usart.o(.text)
    USART_HalfDuplexCmd                      0x08001361   Thumb Code    24  stm32f10x_usart.o(.text)
    USART_OverSampling8Cmd                   0x08001379   Thumb Code    22  stm32f10x_usart.o(.text)
    USART_OneBitMethodCmd                    0x0800138f   Thumb Code    24  stm32f10x_usart.o(.text)
    USART_IrDAConfig                         0x080013a7   Thumb Code    18  stm32f10x_usart.o(.text)
    USART_IrDACmd                            0x080013b9   Thumb Code    24  stm32f10x_usart.o(.text)
    USART_GetFlagStatus                      0x080013d1   Thumb Code    26  stm32f10x_usart.o(.text)
    USART_ClearFlag                          0x080013eb   Thumb Code    18  stm32f10x_usart.o(.text)
    USART_GetITStatus                        0x080013fd   Thumb Code    84  stm32f10x_usart.o(.text)
    USART_ClearITPendingBit                  0x08001451   Thumb Code    52  stm32f10x_usart.o(.text)
    GPIO_DeInit                              0x08001485   Thumb Code   172  stm32f10x_gpio.o(.text)
    GPIO_AFIODeInit                          0x08001531   Thumb Code    20  stm32f10x_gpio.o(.text)
    GPIO_Init                                0x08001545   Thumb Code   278  stm32f10x_gpio.o(.text)
    GPIO_StructInit                          0x0800165b   Thumb Code    16  stm32f10x_gpio.o(.text)
    GPIO_ReadInputDataBit                    0x0800166b   Thumb Code    18  stm32f10x_gpio.o(.text)
    GPIO_ReadInputData                       0x0800167d   Thumb Code     8  stm32f10x_gpio.o(.text)
    GPIO_ReadOutputDataBit                   0x08001685   Thumb Code    18  stm32f10x_gpio.o(.text)
    GPIO_ReadOutputData                      0x08001697   Thumb Code     8  stm32f10x_gpio.o(.text)
    GPIO_SetBits                             0x0800169f   Thumb Code     4  stm32f10x_gpio.o(.text)
    GPIO_ResetBits                           0x080016a3   Thumb Code     4  stm32f10x_gpio.o(.text)
    GPIO_WriteBit                            0x080016a7   Thumb Code    10  stm32f10x_gpio.o(.text)
    GPIO_Write                               0x080016b1   Thumb Code     4  stm32f10x_gpio.o(.text)
    GPIO_PinLockConfig                       0x080016b5   Thumb Code    18  stm32f10x_gpio.o(.text)
    GPIO_EventOutputConfig                   0x080016c7   Thumb Code    26  stm32f10x_gpio.o(.text)
    GPIO_EventOutputCmd                      0x080016e1   Thumb Code     6  stm32f10x_gpio.o(.text)
    GPIO_PinRemapConfig                      0x080016e7   Thumb Code   138  stm32f10x_gpio.o(.text)
    GPIO_EXTILineConfig                      0x08001771   Thumb Code    66  stm32f10x_gpio.o(.text)
    GPIO_ETH_MediaInterfaceConfig            0x080017b3   Thumb Code     8  stm32f10x_gpio.o(.text)
    TIM_DeInit                               0x080017e1   Thumb Code   424  stm32f10x_tim.o(.text)
    TIM_TimeBaseInit                         0x08001989   Thumb Code   122  stm32f10x_tim.o(.text)
    TIM_OC1Init                              0x08001a03   Thumb Code   132  stm32f10x_tim.o(.text)
    TIM_OC2Init                              0x08001a87   Thumb Code   154  stm32f10x_tim.o(.text)
    TIM_OC3Init                              0x08001b21   Thumb Code   150  stm32f10x_tim.o(.text)
    TIM_OC4Init                              0x08001bb7   Thumb Code   182  stm32f10x_tim.o(.text)
    TIM_SetIC4Prescaler                      0x08001c6d   Thumb Code    26  stm32f10x_tim.o(.text)
    TIM_SetIC3Prescaler                      0x08001d09   Thumb Code    18  stm32f10x_tim.o(.text)
    TIM_SetIC2Prescaler                      0x08001d95   Thumb Code    26  stm32f10x_tim.o(.text)
    TIM_SetIC1Prescaler                      0x08001e31   Thumb Code    18  stm32f10x_tim.o(.text)
    TIM_ICInit                               0x08001eaf   Thumb Code   150  stm32f10x_tim.o(.text)
    TIM_PWMIConfig                           0x08001f45   Thumb Code   124  stm32f10x_tim.o(.text)
    TIM_BDTRConfig                           0x08001fc1   Thumb Code    32  stm32f10x_tim.o(.text)
    TIM_TimeBaseStructInit                   0x08001fe1   Thumb Code    18  stm32f10x_tim.o(.text)
    TIM_OCStructInit                         0x08001ff3   Thumb Code    20  stm32f10x_tim.o(.text)
    TIM_ICStructInit                         0x08002007   Thumb Code    18  stm32f10x_tim.o(.text)
    TIM_BDTRStructInit                       0x08002019   Thumb Code    40  stm32f10x_tim.o(.text)
    TIM_Cmd                                  0x08002041   Thumb Code    24  stm32f10x_tim.o(.text)
    TIM_CtrlPWMOutputs                       0x08002059   Thumb Code    30  stm32f10x_tim.o(.text)
    TIM_ITConfig                             0x08002077   Thumb Code    18  stm32f10x_tim.o(.text)
    TIM_GenerateEvent                        0x08002089   Thumb Code     4  stm32f10x_tim.o(.text)
    TIM_DMAConfig                            0x0800208d   Thumb Code    10  stm32f10x_tim.o(.text)
    TIM_DMACmd                               0x08002097   Thumb Code    18  stm32f10x_tim.o(.text)
    TIM_InternalClockConfig                  0x080020a9   Thumb Code    12  stm32f10x_tim.o(.text)
    TIM_SelectInputTrigger                   0x080020b5   Thumb Code    18  stm32f10x_tim.o(.text)
    TIM_ITRxExternalClockConfig              0x080020c7   Thumb Code    24  stm32f10x_tim.o(.text)
    TIM_TIxExternalClockConfig               0x080020df   Thumb Code    62  stm32f10x_tim.o(.text)
    TIM_ETRConfig                            0x0800211d   Thumb Code    28  stm32f10x_tim.o(.text)
    TIM_ETRClockMode1Config                  0x08002139   Thumb Code    54  stm32f10x_tim.o(.text)
    TIM_ETRClockMode2Config                  0x0800216f   Thumb Code    32  stm32f10x_tim.o(.text)
    TIM_PrescalerConfig                      0x0800218f   Thumb Code     6  stm32f10x_tim.o(.text)
    TIM_CounterModeConfig                    0x08002195   Thumb Code    18  stm32f10x_tim.o(.text)
    TIM_EncoderInterfaceConfig               0x080021a7   Thumb Code    66  stm32f10x_tim.o(.text)
    TIM_ForcedOC1Config                      0x080021e9   Thumb Code    18  stm32f10x_tim.o(.text)
    TIM_ForcedOC2Config                      0x080021fb   Thumb Code    26  stm32f10x_tim.o(.text)
    TIM_ForcedOC3Config                      0x08002215   Thumb Code    18  stm32f10x_tim.o(.text)
    TIM_ForcedOC4Config                      0x08002227   Thumb Code    26  stm32f10x_tim.o(.text)
    TIM_ARRPreloadConfig                     0x08002241   Thumb Code    24  stm32f10x_tim.o(.text)
    TIM_SelectCOM                            0x08002259   Thumb Code    24  stm32f10x_tim.o(.text)
    TIM_SelectCCDMA                          0x08002271   Thumb Code    24  stm32f10x_tim.o(.text)
    TIM_CCPreloadControl                     0x08002289   Thumb Code    24  stm32f10x_tim.o(.text)
    TIM_OC1PreloadConfig                     0x080022a1   Thumb Code    18  stm32f10x_tim.o(.text)
    TIM_OC2PreloadConfig                     0x080022b3   Thumb Code    26  stm32f10x_tim.o(.text)
    TIM_OC3PreloadConfig                     0x080022cd   Thumb Code    18  stm32f10x_tim.o(.text)
    TIM_OC4PreloadConfig                     0x080022df   Thumb Code    26  stm32f10x_tim.o(.text)
    TIM_OC1FastConfig                        0x080022f9   Thumb Code    18  stm32f10x_tim.o(.text)
    TIM_OC2FastConfig                        0x0800230b   Thumb Code    26  stm32f10x_tim.o(.text)
    TIM_OC3FastConfig                        0x08002325   Thumb Code    18  stm32f10x_tim.o(.text)
    TIM_OC4FastConfig                        0x08002337   Thumb Code    26  stm32f10x_tim.o(.text)
    TIM_ClearOC1Ref                          0x08002351   Thumb Code    18  stm32f10x_tim.o(.text)
    TIM_ClearOC2Ref                          0x08002363   Thumb Code    24  stm32f10x_tim.o(.text)
    TIM_ClearOC3Ref                          0x0800237b   Thumb Code    18  stm32f10x_tim.o(.text)
    TIM_ClearOC4Ref                          0x0800238d   Thumb Code    24  stm32f10x_tim.o(.text)
    TIM_OC1PolarityConfig                    0x080023a5   Thumb Code    18  stm32f10x_tim.o(.text)
    TIM_OC1NPolarityConfig                   0x080023b7   Thumb Code    18  stm32f10x_tim.o(.text)
    TIM_OC2PolarityConfig                    0x080023c9   Thumb Code    26  stm32f10x_tim.o(.text)
    TIM_OC2NPolarityConfig                   0x080023e3   Thumb Code    26  stm32f10x_tim.o(.text)
    TIM_OC3PolarityConfig                    0x080023fd   Thumb Code    26  stm32f10x_tim.o(.text)
    TIM_OC3NPolarityConfig                   0x08002417   Thumb Code    26  stm32f10x_tim.o(.text)
    TIM_OC4PolarityConfig                    0x08002431   Thumb Code    26  stm32f10x_tim.o(.text)
    TIM_CCxCmd                               0x0800244b   Thumb Code    30  stm32f10x_tim.o(.text)
    TIM_CCxNCmd                              0x08002469   Thumb Code    30  stm32f10x_tim.o(.text)
    TIM_SelectOCxM                           0x08002487   Thumb Code    82  stm32f10x_tim.o(.text)
    TIM_UpdateDisableConfig                  0x080024d9   Thumb Code    24  stm32f10x_tim.o(.text)
    TIM_UpdateRequestConfig                  0x080024f1   Thumb Code    24  stm32f10x_tim.o(.text)
    TIM_SelectHallSensor                     0x08002509   Thumb Code    24  stm32f10x_tim.o(.text)
    TIM_SelectOnePulseMode                   0x08002521   Thumb Code    18  stm32f10x_tim.o(.text)
    TIM_SelectOutputTrigger                  0x08002533   Thumb Code    18  stm32f10x_tim.o(.text)
    TIM_SelectSlaveMode                      0x08002545   Thumb Code    18  stm32f10x_tim.o(.text)
    TIM_SelectMasterSlaveMode                0x08002557   Thumb Code    18  stm32f10x_tim.o(.text)
    TIM_SetCounter                           0x08002569   Thumb Code     4  stm32f10x_tim.o(.text)
    TIM_SetAutoreload                        0x0800256d   Thumb Code     4  stm32f10x_tim.o(.text)
    TIM_SetCompare1                          0x08002571   Thumb Code     4  stm32f10x_tim.o(.text)
    TIM_SetCompare2                          0x08002575   Thumb Code     4  stm32f10x_tim.o(.text)
    TIM_SetCompare3                          0x08002579   Thumb Code     4  stm32f10x_tim.o(.text)
    TIM_SetCompare4                          0x0800257d   Thumb Code     6  stm32f10x_tim.o(.text)
    TIM_SetClockDivision                     0x08002583   Thumb Code    18  stm32f10x_tim.o(.text)
    TIM_GetCapture1                          0x08002595   Thumb Code     6  stm32f10x_tim.o(.text)
    TIM_GetCapture2                          0x0800259b   Thumb Code     6  stm32f10x_tim.o(.text)
    TIM_GetCapture3                          0x080025a1   Thumb Code     6  stm32f10x_tim.o(.text)
    TIM_GetCapture4                          0x080025a7   Thumb Code     8  stm32f10x_tim.o(.text)
    TIM_GetCounter                           0x080025af   Thumb Code     6  stm32f10x_tim.o(.text)
    TIM_GetPrescaler                         0x080025b5   Thumb Code     6  stm32f10x_tim.o(.text)
    TIM_GetFlagStatus                        0x080025bb   Thumb Code    18  stm32f10x_tim.o(.text)
    TIM_ClearFlag                            0x080025cd   Thumb Code     6  stm32f10x_tim.o(.text)
    TIM_GetITStatus                          0x080025d3   Thumb Code    34  stm32f10x_tim.o(.text)
    TIM_ClearITPendingBit                    0x080025f5   Thumb Code     6  stm32f10x_tim.o(.text)
    DMA_DeInit                               0x080025fd   Thumb Code   324  stm32f10x_dma.o(.text)
    DMA_Init                                 0x08002741   Thumb Code    60  stm32f10x_dma.o(.text)
    DMA_StructInit                           0x0800277d   Thumb Code    26  stm32f10x_dma.o(.text)
    DMA_Cmd                                  0x08002797   Thumb Code    24  stm32f10x_dma.o(.text)
    DMA_ITConfig                             0x080027af   Thumb Code    18  stm32f10x_dma.o(.text)
    DMA_SetCurrDataCounter                   0x080027c1   Thumb Code     4  stm32f10x_dma.o(.text)
    DMA_GetCurrDataCounter                   0x080027c5   Thumb Code     8  stm32f10x_dma.o(.text)
    DMA_GetFlagStatus                        0x080027cd   Thumb Code    40  stm32f10x_dma.o(.text)
    DMA_ClearFlag                            0x080027f5   Thumb Code    22  stm32f10x_dma.o(.text)
    DMA_GetITStatus                          0x0800280b   Thumb Code    40  stm32f10x_dma.o(.text)
    DMA_ClearITPendingBit                    0x08002833   Thumb Code    22  stm32f10x_dma.o(.text)
    Reset_Handler                            0x08002851   Thumb Code     8  startup_stm32f10x_hd.o(.text)
    SysTick_Handler                          0x08002869   Thumb Code     2  startup_stm32f10x_hd.o(.text)
    ADC1_2_IRQHandler                        0x0800286b   Thumb Code     0  startup_stm32f10x_hd.o(.text)
    ADC3_IRQHandler                          0x0800286b   Thumb Code     0  startup_stm32f10x_hd.o(.text)
    CAN1_RX1_IRQHandler                      0x0800286b   Thumb Code     0  startup_stm32f10x_hd.o(.text)
    CAN1_SCE_IRQHandler                      0x0800286b   Thumb Code     0  startup_stm32f10x_hd.o(.text)
    DMA1_Channel1_IRQHandler                 0x0800286b   Thumb Code     0  startup_stm32f10x_hd.o(.text)
    DMA1_Channel2_IRQHandler                 0x0800286b   Thumb Code     0  startup_stm32f10x_hd.o(.text)
    DMA1_Channel3_IRQHandler                 0x0800286b   Thumb Code     0  startup_stm32f10x_hd.o(.text)
    DMA1_Channel4_IRQHandler                 0x0800286b   Thumb Code     0  startup_stm32f10x_hd.o(.text)
    DMA1_Channel5_IRQHandler                 0x0800286b   Thumb Code     0  startup_stm32f10x_hd.o(.text)
    DMA1_Channel6_IRQHandler                 0x0800286b   Thumb Code     0  startup_stm32f10x_hd.o(.text)
    DMA1_Channel7_IRQHandler                 0x0800286b   Thumb Code     0  startup_stm32f10x_hd.o(.text)
    DMA2_Channel1_IRQHandler                 0x0800286b   Thumb Code     0  startup_stm32f10x_hd.o(.text)
    DMA2_Channel2_IRQHandler                 0x0800286b   Thumb Code     0  startup_stm32f10x_hd.o(.text)
    DMA2_Channel3_IRQHandler                 0x0800286b   Thumb Code     0  startup_stm32f10x_hd.o(.text)
    DMA2_Channel4_5_IRQHandler               0x0800286b   Thumb Code     0  startup_stm32f10x_hd.o(.text)
    EXTI0_IRQHandler                         0x0800286b   Thumb Code     0  startup_stm32f10x_hd.o(.text)
    EXTI15_10_IRQHandler                     0x0800286b   Thumb Code     0  startup_stm32f10x_hd.o(.text)
    EXTI1_IRQHandler                         0x0800286b   Thumb Code     0  startup_stm32f10x_hd.o(.text)
    EXTI2_IRQHandler                         0x0800286b   Thumb Code     0  startup_stm32f10x_hd.o(.text)
    EXTI3_IRQHandler                         0x0800286b   Thumb Code     0  startup_stm32f10x_hd.o(.text)
    EXTI4_IRQHandler                         0x0800286b   Thumb Code     0  startup_stm32f10x_hd.o(.text)
    EXTI9_5_IRQHandler                       0x0800286b   Thumb Code     0  startup_stm32f10x_hd.o(.text)
    FLASH_IRQHandler                         0x0800286b   Thumb Code     0  startup_stm32f10x_hd.o(.text)
    FSMC_IRQHandler                          0x0800286b   Thumb Code     0  startup_stm32f10x_hd.o(.text)
    I2C1_ER_IRQHandler                       0x0800286b   Thumb Code     0  startup_stm32f10x_hd.o(.text)
    I2C1_EV_IRQHandler                       0x0800286b   Thumb Code     0  startup_stm32f10x_hd.o(.text)
    I2C2_ER_IRQHandler                       0x0800286b   Thumb Code     0  startup_stm32f10x_hd.o(.text)
    I2C2_EV_IRQHandler                       0x0800286b   Thumb Code     0  startup_stm32f10x_hd.o(.text)
    PVD_IRQHandler                           0x0800286b   Thumb Code     0  startup_stm32f10x_hd.o(.text)
    RCC_IRQHandler                           0x0800286b   Thumb Code     0  startup_stm32f10x_hd.o(.text)
    RTCAlarm_IRQHandler                      0x0800286b   Thumb Code     0  startup_stm32f10x_hd.o(.text)
    RTC_IRQHandler                           0x0800286b   Thumb Code     0  startup_stm32f10x_hd.o(.text)
    SDIO_IRQHandler                          0x0800286b   Thumb Code     0  startup_stm32f10x_hd.o(.text)
    SPI1_IRQHandler                          0x0800286b   Thumb Code     0  startup_stm32f10x_hd.o(.text)
    SPI2_IRQHandler                          0x0800286b   Thumb Code     0  startup_stm32f10x_hd.o(.text)
    SPI3_IRQHandler                          0x0800286b   Thumb Code     0  startup_stm32f10x_hd.o(.text)
    TAMPER_IRQHandler                        0x0800286b   Thumb Code     0  startup_stm32f10x_hd.o(.text)
    TIM1_BRK_IRQHandler                      0x0800286b   Thumb Code     0  startup_stm32f10x_hd.o(.text)
    TIM1_CC_IRQHandler                       0x0800286b   Thumb Code     0  startup_stm32f10x_hd.o(.text)
    TIM1_TRG_COM_IRQHandler                  0x0800286b   Thumb Code     0  startup_stm32f10x_hd.o(.text)
    TIM1_UP_IRQHandler                       0x0800286b   Thumb Code     0  startup_stm32f10x_hd.o(.text)
    TIM3_IRQHandler                          0x0800286b   Thumb Code     0  startup_stm32f10x_hd.o(.text)
    TIM4_IRQHandler                          0x0800286b   Thumb Code     0  startup_stm32f10x_hd.o(.text)
    TIM5_IRQHandler                          0x0800286b   Thumb Code     0  startup_stm32f10x_hd.o(.text)
    TIM6_IRQHandler                          0x0800286b   Thumb Code     0  startup_stm32f10x_hd.o(.text)
    TIM7_IRQHandler                          0x0800286b   Thumb Code     0  startup_stm32f10x_hd.o(.text)
    TIM8_BRK_IRQHandler                      0x0800286b   Thumb Code     0  startup_stm32f10x_hd.o(.text)
    TIM8_CC_IRQHandler                       0x0800286b   Thumb Code     0  startup_stm32f10x_hd.o(.text)
    TIM8_TRG_COM_IRQHandler                  0x0800286b   Thumb Code     0  startup_stm32f10x_hd.o(.text)
    TIM8_UP_IRQHandler                       0x0800286b   Thumb Code     0  startup_stm32f10x_hd.o(.text)
    UART4_IRQHandler                         0x0800286b   Thumb Code     0  startup_stm32f10x_hd.o(.text)
    UART5_IRQHandler                         0x0800286b   Thumb Code     0  startup_stm32f10x_hd.o(.text)
    USART2_IRQHandler                        0x0800286b   Thumb Code     0  startup_stm32f10x_hd.o(.text)
    USART3_IRQHandler                        0x0800286b   Thumb Code     0  startup_stm32f10x_hd.o(.text)
    USBWakeUp_IRQHandler                     0x0800286b   Thumb Code     0  startup_stm32f10x_hd.o(.text)
    USB_HP_CAN1_TX_IRQHandler                0x0800286b   Thumb Code     0  startup_stm32f10x_hd.o(.text)
    USB_LP_CAN1_RX0_IRQHandler               0x0800286b   Thumb Code     0  startup_stm32f10x_hd.o(.text)
    WWDG_IRQHandler                          0x0800286b   Thumb Code     0  startup_stm32f10x_hd.o(.text)
    __aeabi_memcpy                           0x08002875   Thumb Code    36  memcpya.o(.text)
    __aeabi_memcpy4                          0x08002875   Thumb Code     0  memcpya.o(.text)
    __aeabi_memcpy8                          0x08002875   Thumb Code     0  memcpya.o(.text)
    __aeabi_memset                           0x08002899   Thumb Code    14  memseta.o(.text)
    __aeabi_memset4                          0x08002899   Thumb Code     0  memseta.o(.text)
    __aeabi_memset8                          0x08002899   Thumb Code     0  memseta.o(.text)
    __aeabi_memclr                           0x080028a7   Thumb Code     4  memseta.o(.text)
    __aeabi_memclr4                          0x080028a7   Thumb Code     0  memseta.o(.text)
    __aeabi_memclr8                          0x080028a7   Thumb Code     0  memseta.o(.text)
    _memset$wrapper                          0x080028ab   Thumb Code    18  memseta.o(.text)
    memcmp                                   0x080028bd   Thumb Code    26  memcmp.o(.text)
    __aeabi_uidiv                            0x080028d7   Thumb Code     0  uidiv.o(.text)
    __aeabi_uidivmod                         0x080028d7   Thumb Code    44  uidiv.o(.text)
    __scatterload                            0x08002905   Thumb Code    28  init.o(.text)
    __scatterload_rt2                        0x08002905   Thumb Code     0  init.o(.text)
    __0printf$1                              0x08002929   Thumb Code    22  printf1.o(i.__0printf$1)
    __1printf$1                              0x08002929   Thumb Code     0  printf1.o(i.__0printf$1)
    __2printf                                0x08002929   Thumb Code     0  printf1.o(i.__0printf$1)
    __scatterload_copy                       0x08002949   Thumb Code    14  handlers.o(i.__scatterload_copy)
    __scatterload_null                       0x08002957   Thumb Code     2  handlers.o(i.__scatterload_null)
    __scatterload_zeroinit                   0x08002959   Thumb Code    14  handlers.o(i.__scatterload_zeroinit)
    Region$$Table$$Base                      0x08002abc   Number         0  anon$$obj.o(Region$$Table)
    Region$$Table$$Limit                     0x08002adc   Number         0  anon$$obj.o(Region$$Table)
    Usart1ReadCnt                            0x20000000   Data           4  usart.o(.data)
    timer2Cnt                                0x20000008   Data           4  timer.o(.data)
    SystemCoreClock                          0x2000000c   Data           4  system_stm32f10x.o(.data)
    AHBPrescTable                            0x20000010   Data          16  system_stm32f10x.o(.data)
    __stdout                                 0x20000034   Data           4  stdout.o(.data)
    MainBuffer                               0x20000038   Data        1024  main.o(.bss)
    buff_manage_struct_usart1                0x20000438   Data          60  usart.o(.bss)
    rb_t_usart1_send                         0x20000474   Data          16  usart.o(.bss)
    Usart1BufferMemory                       0x20000484   Data        1024  usart.o(.bss)
    Usart1BufferMemoryCopy                   0x20000884   Data         150  usart.o(.bss)
    Usart1BufferMemoryManage                 0x2000091c   Data          80  usart.o(.bss)
    Usart1LoopListSendBuff                   0x2000096c   Data        1024  usart.o(.bss)
    Usart1ReadBuff                           0x20000d6c   Data         150  usart.o(.bss)
    BufferRankOrder                          0x20000e02   Data         250  bufferrankorder.o(.bss)
    __initial_sp                             0x20001300   Data           0  startup_stm32f10x_hd.o(STACK)



==============================================================================

Memory Map of the image

  Image Entry point : 0x08000131

  Load Region LR_IROM1 (Base: 0x08000000, Size: 0x00002b14, Max: 0x00010000, ABSOLUTE)

    Execution Region ER_IROM1 (Base: 0x08000000, Size: 0x00002adc, Max: 0x00010000, ABSOLUTE)

    Base Addr    Size         Type   Attr      Idx    E Section Name        Object

    0x08000000   0x00000130   Data   RO          411    RESET               startup_stm32f10x_hd.o
    0x08000130   0x00000000   Code   RO          416  * .ARM.Collect$$$$00000000  mc_w.l(entry.o)
    0x08000130   0x00000004   Code   RO          688    .ARM.Collect$$$$00000001  mc_w.l(entry2.o)
    0x08000134   0x00000004   Code   RO          691    .ARM.Collect$$$$00000004  mc_w.l(entry5.o)
    0x08000138   0x00000000   Code   RO          693    .ARM.Collect$$$$00000008  mc_w.l(entry7b.o)
    0x08000138   0x00000000   Code   RO          695    .ARM.Collect$$$$0000000A  mc_w.l(entry8b.o)
    0x08000138   0x00000008   Code   RO          696    .ARM.Collect$$$$0000000B  mc_w.l(entry9a.o)
    0x08000140   0x00000000   Code   RO          698    .ARM.Collect$$$$0000000D  mc_w.l(entry10a.o)
    0x08000140   0x00000000   Code   RO          700    .ARM.Collect$$$$0000000F  mc_w.l(entry11a.o)
    0x08000140   0x00000004   Code   RO          689    .ARM.Collect$$$$00002712  mc_w.l(entry2.o)
    0x08000144   0x00000040   Code   RO            1    .text               stm32f10x_it.o
    0x08000184   0x00000104   Code   RO          104    .text               main.o
    0x08000288   0x0000008c   Code   RO          151    .text               system.o
    0x08000314   0x0000028c   Code   RO          180    .text               usart.o
    0x080005a0   0x00000078   Code   RO          199    .text               timer.o
    0x08000618   0x000000d4   Code   RO          217    .text               buffermanage.o
    0x080006ec   0x000001fc   Code   RO          232    .text               looplist.o
    0x080008e8   0x00000134   Code   RO          254    .text               bufferrankorder.o
    0x08000a1c   0x000001e0   Code   RO          293    .text               system_stm32f10x.o
    0x08000bfc   0x000000dc   Code   RO          311    .text               misc.o
    0x08000cd8   0x000003a4   Code   RO          323    .text               stm32f10x_rcc.o
    0x0800107c   0x00000408   Code   RO          337    .text               stm32f10x_usart.o
    0x08001484   0x0000035c   Code   RO          361    .text               stm32f10x_gpio.o
    0x080017e0   0x00000e1a   Code   RO          373    .text               stm32f10x_tim.o
    0x080025fa   0x00000002   PAD
    0x080025fc   0x00000254   Code   RO          397    .text               stm32f10x_dma.o
    0x08002850   0x00000024   Code   RO          412    .text               startup_stm32f10x_hd.o
    0x08002874   0x00000024   Code   RO          419    .text               mc_w.l(memcpya.o)
    0x08002898   0x00000024   Code   RO          421    .text               mc_w.l(memseta.o)
    0x080028bc   0x0000001a   Code   RO          423    .text               mc_w.l(memcmp.o)
    0x080028d6   0x0000002c   Code   RO          703    .text               mc_w.l(uidiv.o)
    0x08002902   0x00000002   PAD
    0x08002904   0x00000024   Code   RO          718    .text               mc_w.l(init.o)
    0x08002928   0x00000020   Code   RO          472    i.__0printf$1       mc_w.l(printf1.o)
    0x08002948   0x0000000e   Code   RO          730    i.__scatterload_copy  mc_w.l(handlers.o)
    0x08002956   0x00000002   Code   RO          731    i.__scatterload_null  mc_w.l(handlers.o)
    0x08002958   0x0000000e   Code   RO          732    i.__scatterload_zeroinit  mc_w.l(handlers.o)
    0x08002966   0x00000002   PAD
    0x08002968   0x00000154   Code   RO          479    i._printf_core      mc_w.l(printf1.o)
    0x08002abc   0x00000020   Data   RO          728    Region$$Table       anon$$obj.o


    Execution Region RW_IRAM1 (Base: 0x20000000, Size: 0x00001300, Max: 0x00005000, ABSOLUTE)

    Base Addr    Size         Type   Attr      Idx    E Section Name        Object

    0x20000000   0x00000005   Data   RW          182    .data               usart.o
    0x20000005   0x00000003   PAD
    0x20000008   0x00000004   Data   RW          200    .data               timer.o
    0x2000000c   0x00000014   Data   RW          294    .data               system_stm32f10x.o
    0x20000020   0x00000014   Data   RW          324    .data               stm32f10x_rcc.o
    0x20000034   0x00000004   Data   RW          702    .data               mc_w.l(stdout.o)
    0x20000038   0x00000400   Zero   RW          105    .bss                main.o
    0x20000438   0x000009ca   Zero   RW          181    .bss                usart.o
    0x20000e02   0x000000fa   Zero   RW          255    .bss                bufferrankorder.o
    0x20000efc   0x00000004   PAD
    0x20000f00   0x00000400   Zero   RW          409    STACK               startup_stm32f10x_hd.o


==============================================================================

Image component sizes


      Code (inc. data)   RO Data    RW Data    ZI Data      Debug   Object Name

       212          0          0          0          0       2340   buffermanage.o
       308          4          0          0        250       1770   bufferrankorder.o
         0          0          0          0          0         32   core_cm3.o
       508          0          0          0          0       3415   looplist.o
       260         66          0          0       1024       3648   main.o
       220         22          0          0          0       1869   misc.o
        36          8        304          0       1024        832   startup_stm32f10x_hd.o
       596          8          0          0          0       4398   stm32f10x_dma.o
       860         38          0          0          0       5717   stm32f10x_gpio.o
        64          8          0          0          0     277885   stm32f10x_it.o
       932         36          0         20          0       8928   stm32f10x_rcc.o
      3610         88          0          0          0      22200   stm32f10x_tim.o
      1032         22          0          0          0       8436   stm32f10x_usart.o
       140         10          0          0          0        787   system.o
       480         38          0         20          0       1935   system_stm32f10x.o
       120          6          0          4          0        964   timer.o
       652         44          0          5       2506       3853   usart.o

    ----------------------------------------------------------------------
     10032        398        336         52       4808     349009   Object Totals
         0          0         32          0          0          0   (incl. Generated)
         2          0          0          3          4          0   (incl. Padding)

    ----------------------------------------------------------------------

      Code (inc. data)   RO Data    RW Data    ZI Data      Debug   Library Member Name

         0          0          0          0          0          0   entry.o
         0          0          0          0          0          0   entry10a.o
         0          0          0          0          0          0   entry11a.o
         8          4          0          0          0          0   entry2.o
         4          0          0          0          0          0   entry5.o
         0          0          0          0          0          0   entry7b.o
         0          0          0          0          0          0   entry8b.o
         8          4          0          0          0          0   entry9a.o
        30          0          0          0          0          0   handlers.o
        36          8          0          0          0         68   init.o
        26          0          0          0          0         80   memcmp.o
        36          0          0          0          0         68   memcpya.o
        36          0          0          0          0        108   memseta.o
       372         14          0          0          0        184   printf1.o
         0          0          0          4          0          0   stdout.o
        44          0          0          0          0         80   uidiv.o

    ----------------------------------------------------------------------
       604         30          0          4          0        588   Library Totals
         4          0          0          0          0          0   (incl. Padding)

    ----------------------------------------------------------------------

      Code (inc. data)   RO Data    RW Data    ZI Data      Debug   Library Name

       600         30          0          4          0        588   mc_w.l

    ----------------------------------------------------------------------
       604         30          0          4          0        588   Library Totals

    ----------------------------------------------------------------------

==============================================================================


      Code (inc. data)   RO Data    RW Data    ZI Data      Debug   

     10636        428        336         56       4808     348189   Grand Totals
     10636        428        336         56       4808     348189   ELF Image Totals
     10636        428        336         56          0          0   ROM Totals

==============================================================================

    Total RO  Size (Code + RO Data)                10972 (  10.71kB)
    Total RW  Size (RW Data + ZI Data)              4864 (   4.75kB)
    Total ROM Size (Code + RO Data + RW Data)      11028 (  10.77kB)

==============================================================================

