Component: ARM Compiler 5.05 update 1 (build 106) Tool: armlink [4d0efa]

==============================================================================

Section Cross References

    main.o(i.custom_ssl_recv) refers to main.o(i.net_recv) for net_recv
    main.o(i.custom_ssl_recv) refers to memmovea.o(.text) for __aeabi_memcpy
    main.o(i.custom_ssl_recv) refers to main.o(.data) for net_recv_data_len
    main.o(i.custom_ssl_recv) refers to main.o(.bss) for net_recv_buff
    main.o(i.custom_ssl_send) refers to main.o(i.net_send) for net_send
    main.o(i.main) refers to system.o(i.NVIC_Configuration) for NVIC_Configuration
    main.o(i.main) refers to usart.o(i.uart_init) for uart_init
    main.o(i.main) refers to gpio.o(i.GpioInit) for GpioInit
    main.o(i.main) refers to delay.o(i.DelayInit) for DelayInit
    main.o(i.main) refers to main.o(i.ssl_int) for ssl_int
    main.o(i.main) refers to ssl_tls.o(i.mbedtls_ssl_handshake) for mbedtls_ssl_handshake
    main.o(i.main) refers to ssl_msg.o(i.mbedtls_ssl_write) for mbedtls_ssl_write
    main.o(i.main) refers to memseta.o(.text) for __aeabi_memclr4
    main.o(i.main) refers to ssl_msg.o(i.mbedtls_ssl_read) for mbedtls_ssl_read
    main.o(i.main) refers to main.o(.bss) for ssl
    main.o(i.main) refers to main.o(.data) for ret
    main.o(i.mbedtls_hardware_poll) refers to rand.o(.text) for rand
    main.o(i.my_debug) refers to printfa.o(i.__0printf) for __2printf
==============================================================================

Removing Unused input sections from the image.

    Removing stm32f10x_it.o(.rev16_text), (4 bytes).
    Removing stm32f10x_it.o(.revsh_text), (4 bytes).
    Removing main.o(.rev16_text), (4 bytes).
    Removing main.o(.revsh_text), (4 bytes).
    Removing system.o(.rev16_text), (4 bytes).
    Removing system.o(.revsh_text), (4 bytes).
    Removing system.o(i.Reset_MCU), (44 bytes).
    Removing delay.o(.rev16_text), (4 bytes).
    Removing delay.o(.revsh_text), (4 bytes).
    Removing delay.o(i.delay_ms), (24 bytes).
    Removing usart.o(.rev16_text), (4 bytes).
    Removing usart.o(.revsh_text), (4 bytes).
    Removing usart.o(i.UsartOutChar), (32 bytes).
    Removing usart.o(i.UsartOutStr), (48 bytes).
    Removing gpio.o(.rev16_text), (4 bytes).
    Removing gpio.o(.revsh_text), (4 bytes).
    Removing core_cm3.o(.emb_text), (32 bytes).
    Removing system_stm32f10x.o(i.SystemCoreClockUpdate), (164 bytes).
==============================================================================

Image Symbol Table

    Local Symbols

    Symbol Name                              Value     Ov Type        Size  Object(Section)

    ../clib/microlib/division.c              0x00000000   Number         0  uidiv.o ABSOLUTE
    ../clib/microlib/division.c              0x00000000   Number         0  uldiv.o ABSOLUTE
    ../clib/microlib/init/entry.s            0x00000000   Number         0  entry.o ABSOLUTE
    ../clib/microlib/init/entry.s            0x00000000   Number         0  entry2.o ABSOLUTE
    ../clib/microlib/init/entry.s            0x00000000   Number         0  entry5.o ABSOLUTE
    ../clib/microlib/init/entry.s            0x00000000   Number         0  entry8a.o ABSOLUTE
    ../clib/microlib/init/entry.s            0x00000000   Number         0  entry11b.o ABSOLUTE
    ../clib/microlib/init/entry.s            0x00000000   Number         0  entry8b.o ABSOLUTE
    ../clib/microlib/init/entry.s            0x00000000   Number         0  entry10b.o ABSOLUTE
    ../clib/microlib/init/entry.s            0x00000000   Number         0  entry11a.o ABSOLUTE
    ../clib/microlib/init/entry.s            0x00000000   Number         0  entry10a.o ABSOLUTE
    ../clib/microlib/init/entry.s            0x00000000   Number         0  entry9b.o ABSOLUTE
    ../clib/microlib/init/entry.s            0x00000000   Number         0  entry7a.o ABSOLUTE
    ../clib/microlib/init/entry.s            0x00000000   Number         0  entry9a.o ABSOLUTE
    ../clib/microlib/init/entry.s            0x00000000   Number         0  entry7b.o ABSOLUTE
    ../clib/microlib/longlong.c              0x00000000   Number         0  llushr.o ABSOLUTE
    ../clib/microlib/longlong.c              0x00000000   Number         0  llshl.o ABSOLUTE
    ../clib/microlib/longlong.c              0x00000000   Number         0  llsshr.o ABSOLUTE
    ../clib/microlib/malloc/calloc.c         0x00000000   Number         0  calloc.o ABSOLUTE
    ../clib/microlib/malloc/malloc.c         0x00000000   Number         0  malloc.o ABSOLUTE
    ../clib/microlib/malloc/malloc.c         0x00000000   Number         0  mallocra.o ABSOLUTE
    ../clib/microlib/malloc/malloc.c         0x00000000   Number         0  malloca.o ABSOLUTE
    ../clib/microlib/malloc/malloc.c         0x00000000   Number         0  mallocr.o ABSOLUTE
    ../clib/microlib/malloc/mvars.c          0x00000000   Number         0  mvars.o ABSOLUTE
    ../clib/microlib/printf/printf.c         0x00000000   Number         0  printf6.o ABSOLUTE
    ../clib/microlib/printf/printf.c         0x00000000   Number         0  printf7.o ABSOLUTE
    ../clib/microlib/printf/printf.c         0x00000000   Number         0  printfa.o ABSOLUTE
    ../clib/microlib/printf/printf.c         0x00000000   Number         0  printf1.o ABSOLUTE
    ../clib/microlib/printf/printf.c         0x00000000   Number         0  printf2.o ABSOLUTE
    ../clib/microlib/printf/printf.c         0x00000000   Number         0  printf0.o ABSOLUTE
    ../clib/microlib/printf/printf.c         0x00000000   Number         0  printfb.o ABSOLUTE
    ../clib/microlib/printf/printf.c         0x00000000   Number         0  printf5.o ABSOLUTE
    ../clib/microlib/printf/printf.c         0x00000000   Number         0  printf8.o ABSOLUTE
    ../clib/microlib/printf/printf.c         0x00000000   Number         0  printf3.o ABSOLUTE
    ../clib/microlib/printf/printf.c         0x00000000   Number         0  printf4.o ABSOLUTE
    ../clib/microlib/printf/stubs.s          0x00000000   Number         0  stubs.o ABSOLUTE
    ../clib/microlib/stdio/streams.c         0x00000000   Number         0  stdout.o ABSOLUTE
    ../clib/microlib/stdlib/rand.c           0x00000000   Number         0  rand.o ABSOLUTE
    ../clib/microlib/string/memcmp.c         0x00000000   Number         0  memcmp.o ABSOLUTE
    ../clib/microlib/string/memcpy.c         0x00000000   Number         0  memcpyb.o ABSOLUTE
    ../clib/microlib/string/memcpy.c         0x00000000   Number         0  memmoveb.o ABSOLUTE
    ../clib/microlib/string/memcpy.c         0x00000000   Number         0  memcpya.o ABSOLUTE
    ../clib/microlib/string/memcpy.c         0x00000000   Number         0  memmovea.o ABSOLUTE
    ../clib/microlib/string/memset.c         0x00000000   Number         0  memset.o ABSOLUTE
    ../clib/microlib/string/memset.c         0x00000000   Number         0  memseta.o ABSOLUTE
    ../clib/microlib/string/strcmp.c         0x00000000   Number         0  strcmp.o ABSOLUTE
    ../clib/microlib/string/strlen.c         0x00000000   Number         0  strlen.o ABSOLUTE
    ../clib/microlib/stubs.s                 0x00000000   Number         0  iusefp.o ABSOLUTE
    ../fplib/microlib/fpadd.c                0x00000000   Number         0  dadd.o ABSOLUTE
    ../fplib/microlib/fpdiv.c                0x00000000   Number         0  ddiv.o ABSOLUTE
    ../fplib/microlib/fpepilogue.c           0x00000000   Number         0  depilogue.o ABSOLUTE
    ../fplib/microlib/fpfix.c                0x00000000   Number         0  dfixul.o ABSOLUTE
    ../fplib/microlib/fpmul.c                0x00000000   Number         0  dmul.o ABSOLUTE
    ..\CMSIS\core_cm3.c                      0x00000000   Number         0  core_cm3.o ABSOLUTE
    ..\CMSIS\system_stm32f10x.c              0x00000000   Number         0  system_stm32f10x.o ABSOLUTE
    ..\Libraries\src\misc.c                  0x00000000   Number         0  misc.o ABSOLUTE
    ..\Libraries\src\stm32f10x_flash.c       0x00000000   Number         0  stm32f10x_flash.o ABSOLUTE
    ..\Libraries\src\stm32f10x_gpio.c        0x00000000   Number         0  stm32f10x_gpio.o ABSOLUTE
    ..\Libraries\src\stm32f10x_rcc.c         0x00000000   Number         0  stm32f10x_rcc.o ABSOLUTE
    ..\Libraries\src\stm32f10x_usart.c       0x00000000   Number         0  stm32f10x_usart.o ABSOLUTE
    ..\Mbedtls\library\aes.c                 0x00000000   Number         0  aes.o ABSOLUTE
    ..\Mbedtls\library\aesni.c               0x00000000   Number         0  aesni.o ABSOLUTE
    ..\Mbedtls\library\arc4.c                0x00000000   Number         0  arc4.o ABSOLUTE
    ..\Mbedtls\library\aria.c                0x00000000   Number         0  aria.o ABSOLUTE
    ..\Mbedtls\library\asn1parse.c           0x00000000   Number         0  asn1parse.o ABSOLUTE
    ..\Mbedtls\library\asn1write.c           0x00000000   Number         0  asn1write.o ABSOLUTE
    ..\Mbedtls\library\base64.c              0x00000000   Number         0  base64.o ABSOLUTE
    ..\Mbedtls\library\bignum.c              0x00000000   Number         0  bignum.o ABSOLUTE
    ..\Mbedtls\library\blowfish.c            0x00000000   Number         0  blowfish.o ABSOLUTE
    ..\Mbedtls\library\camellia.c            0x00000000   Number         0  camellia.o ABSOLUTE
    ..\Mbedtls\library\ccm.c                 0x00000000   Number         0  ccm.o ABSOLUTE
    ..\Mbedtls\library\certs.c               0x00000000   Number         0  certs.o ABSOLUTE
    ..\Mbedtls\library\chacha20.c            0x00000000   Number         0  chacha20.o ABSOLUTE
    ..\Mbedtls\library\chachapoly.c          0x00000000   Number         0  chachapoly.o ABSOLUTE
    ..\Mbedtls\library\cipher.c              0x00000000   Number         0  cipher.o ABSOLUTE
    ..\Mbedtls\library\cipher_wrap.c         0x00000000   Number         0  cipher_wrap.o ABSOLUTE
    ..\Mbedtls\library\cmac.c                0x00000000   Number         0  cmac.o ABSOLUTE
    ..\Mbedtls\library\ctr_drbg.c            0x00000000   Number         0  ctr_drbg.o ABSOLUTE
    ..\Mbedtls\library\debug.c               0x00000000   Number         0  debug.o ABSOLUTE
    ..\Mbedtls\library\des.c                 0x00000000   Number         0  des.o ABSOLUTE
    ..\Mbedtls\library\dhm.c                 0x00000000   Number         0  dhm.o ABSOLUTE
    ..\Mbedtls\library\ecdh.c                0x00000000   Number         0  ecdh.o ABSOLUTE
    ..\Mbedtls\library\ecdsa.c               0x00000000   Number         0  ecdsa.o ABSOLUTE
    ..\Mbedtls\library\ecjpake.c             0x00000000   Number         0  ecjpake.o ABSOLUTE
    ..\Mbedtls\library\ecp.c                 0x00000000   Number         0  ecp.o ABSOLUTE
    ..\Mbedtls\library\ecp_curves.c          0x00000000   Number         0  ecp_curves.o ABSOLUTE
    ..\Mbedtls\library\entropy.c             0x00000000   Number         0  entropy.o ABSOLUTE
    ..\Mbedtls\library\entropy_poll.c        0x00000000   Number         0  entropy_poll.o ABSOLUTE
    ..\Mbedtls\library\error.c               0x00000000   Number         0  error.o ABSOLUTE
    ..\Mbedtls\library\gcm.c                 0x00000000   Number         0  gcm.o ABSOLUTE
    ..\Mbedtls\library\havege.c              0x00000000   Number         0  havege.o ABSOLUTE
    ..\Mbedtls\library\hkdf.c                0x00000000   Number         0  hkdf.o ABSOLUTE
    ..\Mbedtls\library\hmac_drbg.c           0x00000000   Number         0  hmac_drbg.o ABSOLUTE
    ..\Mbedtls\library\md.c                  0x00000000   Number         0  md.o ABSOLUTE
    ..\Mbedtls\library\md2.c                 0x00000000   Number         0  md2.o ABSOLUTE
    ..\Mbedtls\library\md4.c                 0x00000000   Number         0  md4.o ABSOLUTE
    ..\Mbedtls\library\md5.c                 0x00000000   Number         0  md5.o ABSOLUTE
    ..\Mbedtls\library\memory_buffer_alloc.c 0x00000000   Number         0  memory_buffer_alloc.o ABSOLUTE
    ..\Mbedtls\library\net_sockets.c         0x00000000   Number         0  net_sockets.o ABSOLUTE
    ..\Mbedtls\library\nist_kw.c             0x00000000   Number         0  nist_kw.o ABSOLUTE
    ..\Mbedtls\library\oid.c                 0x00000000   Number         0  oid.o ABSOLUTE
    ..\Mbedtls\library\padlock.c             0x00000000   Number         0  padlock.o ABSOLUTE
    ..\Mbedtls\library\pem.c                 0x00000000   Number         0  pem.o ABSOLUTE
    ..\Mbedtls\library\pk.c                  0x00000000   Number         0  pk.o ABSOLUTE
    ..\Mbedtls\library\pk_wrap.c             0x00000000   Number         0  pk_wrap.o ABSOLUTE
    ..\Mbedtls\library\pkcs11.c              0x00000000   Number         0  pkcs11.o ABSOLUTE
    ..\Mbedtls\library\pkcs12.c              0x00000000   Number         0  pkcs12.o ABSOLUTE
    ..\Mbedtls\library\pkcs5.c               0x00000000   Number         0  pkcs5.o ABSOLUTE
    ..\Mbedtls\library\pkparse.c             0x00000000   Number         0  pkparse.o ABSOLUTE
    ..\Mbedtls\library\pkwrite.c             0x00000000   Number         0  pkwrite.o ABSOLUTE
    ..\Mbedtls\library\platform.c            0x00000000   Number         0  platform.o ABSOLUTE
    ..\Mbedtls\library\platform_util.c       0x00000000   Number         0  platform_util.o ABSOLUTE
    ..\Mbedtls\library\poly1305.c            0x00000000   Number         0  poly1305.o ABSOLUTE
    ..\Mbedtls\library\psa_crypto.c          0x00000000   Number         0  psa_crypto.o ABSOLUTE
    ..\Mbedtls\library\psa_crypto_se.c       0x00000000   Number         0  psa_crypto_se.o ABSOLUTE
    ..\Mbedtls\library\psa_crypto_slot_management.c 0x00000000   Number         0  psa_crypto_slot_management.o ABSOLUTE
    ..\Mbedtls\library\psa_crypto_storage.c  0x00000000   Number         0  psa_crypto_storage.o ABSOLUTE
    ..\Mbedtls\library\psa_its_file.c        0x00000000   Number         0  psa_its_file.o ABSOLUTE
    ..\Mbedtls\library\ripemd160.c           0x00000000   Number         0  ripemd160.o ABSOLUTE
    ..\Mbedtls\library\rsa.c                 0x00000000   Number         0  rsa.o ABSOLUTE
    ..\Mbedtls\library\rsa_internal.c        0x00000000   Number         0  rsa_internal.o ABSOLUTE
    ..\Mbedtls\library\sha1.c                0x00000000   Number         0  sha1.o ABSOLUTE
    ..\Mbedtls\library\sha256.c              0x00000000   Number         0  sha256.o ABSOLUTE
    ..\Mbedtls\library\sha512.c              0x00000000   Number         0  sha512.o ABSOLUTE
    ..\Mbedtls\library\ssl_cache.c           0x00000000   Number         0  ssl_cache.o ABSOLUTE
    ..\Mbedtls\library\ssl_ciphersuites.c    0x00000000   Number         0  ssl_ciphersuites.o ABSOLUTE
    ..\Mbedtls\library\ssl_cli.c             0x00000000   Number         0  ssl_cli.o ABSOLUTE
    ..\Mbedtls\library\ssl_cookie.c          0x00000000   Number         0  ssl_cookie.o ABSOLUTE
    ..\Mbedtls\library\ssl_msg.c             0x00000000   Number         0  ssl_msg.o ABSOLUTE
    ..\Mbedtls\library\ssl_srv.c             0x00000000   Number         0  ssl_srv.o ABSOLUTE
    ..\Mbedtls\library\ssl_ticket.c          0x00000000   Number         0  ssl_ticket.o ABSOLUTE
    ..\Mbedtls\library\ssl_tls.c             0x00000000   Number         0  ssl_tls.o ABSOLUTE
    ..\Mbedtls\library\threading.c           0x00000000   Number         0  threading.o ABSOLUTE
    ..\Mbedtls\library\timing.c              0x00000000   Number         0  timing.o ABSOLUTE
    ..\Mbedtls\library\version.c             0x00000000   Number         0  version.o ABSOLUTE
    ..\Mbedtls\library\version_features.c    0x00000000   Number         0  version_features.o ABSOLUTE
    ..\Mbedtls\library\x509.c                0x00000000   Number         0  x509.o ABSOLUTE
    ..\Mbedtls\library\x509_create.c         0x00000000   Number         0  x509_create.o ABSOLUTE
    ..\Mbedtls\library\x509_crl.c            0x00000000   Number         0  x509_crl.o ABSOLUTE
    ..\Mbedtls\library\x509_crt.c            0x00000000   Number         0  x509_crt.o ABSOLUTE
    ..\Mbedtls\library\x509_csr.c            0x00000000   Number         0  x509_csr.o ABSOLUTE
    ..\Mbedtls\library\x509write_crt.c       0x00000000   Number         0  x509write_crt.o ABSOLUTE
    ..\Mbedtls\library\x509write_csr.c       0x00000000   Number         0  x509write_csr.o ABSOLUTE
    ..\Mbedtls\library\xtea.c                0x00000000   Number         0  xtea.o ABSOLUTE
    ..\Startup\startup_stm32f10x_hd.s        0x00000000   Number         0  startup_stm32f10x_hd.o ABSOLUTE
    ..\User\System.c                         0x00000000   Number         0  system.o ABSOLUTE
    ..\User\delay.c                          0x00000000   Number         0  delay.o ABSOLUTE
    ..\User\gpio.c                           0x00000000   Number         0  gpio.o ABSOLUTE
    ..\User\main.c                           0x00000000   Number         0  main.o ABSOLUTE
    ..\User\stm32f10x_it.c                   0x00000000   Number         0  stm32f10x_it.o ABSOLUTE
    ..\User\usart.c                          0x00000000   Number         0  usart.o ABSOLUTE
    ..\\CMSIS\\core_cm3.c                    0x00000000   Number         0  core_cm3.o ABSOLUTE
    ..\\Libraries\\src\\misc.c               0x00000000   Number         0  misc.o ABSOLUTE
    ..\\Libraries\\src\\stm32f10x_flash.c    0x00000000   Number         0  stm32f10x_flash.o ABSOLUTE
    ..\\Libraries\\src\\stm32f10x_gpio.c     0x00000000   Number         0  stm32f10x_gpio.o ABSOLUTE
    ..\\Libraries\\src\\stm32f10x_rcc.c      0x00000000   Number         0  stm32f10x_rcc.o ABSOLUTE
    ..\\Libraries\\src\\stm32f10x_usart.c    0x00000000   Number         0  stm32f10x_usart.o ABSOLUTE
    ..\\User\\System.c                       0x00000000   Number         0  system.o ABSOLUTE
    ..\\User\\delay.c                        0x00000000   Number         0  delay.o ABSOLUTE
    ..\\User\\gpio.c                         0x00000000   Number         0  gpio.o ABSOLUTE
    ..\\User\\main.c                         0x00000000   Number         0  main.o ABSOLUTE
    ..\\User\\stm32f10x_it.c                 0x00000000   Number         0  stm32f10x_it.o ABSOLUTE
    ..\\User\\usart.c                        0x00000000   Number         0  usart.o ABSOLUTE
    cdrcmple.s                               0x00000000   Number         0  cdrcmple.o ABSOLUTE
    dc.s                                     0x00000000   Number         0  dc.o ABSOLUTE
    handlers.s                               0x00000000   Number         0  handlers.o ABSOLUTE
    init.s                                   0x00000000   Number         0  init.o ABSOLUTE
    RESET                                    0x08000000   Section      304  startup_stm32f10x_hd.o(RESET)
    .ARM.Collect$$$$00000000                 0x08000130   Section        0  entry.o(.ARM.Collect$$$$00000000)
    .ARM.Collect$$$$00000001                 0x08000130   Section        4  entry2.o(.ARM.Collect$$$$00000001)
    .ARM.Collect$$$$00000004                 0x08000134   Section        4  entry5.o(.ARM.Collect$$$$00000004)
    .ARM.Collect$$$$00000008                 0x08000138   Section        0  entry7b.o(.ARM.Collect$$$$00000008)
    .ARM.Collect$$$$0000000A                 0x08000138   Section        0  entry8b.o(.ARM.Collect$$$$0000000A)
    .ARM.Collect$$$$0000000B                 0x08000138   Section        8  entry9a.o(.ARM.Collect$$$$0000000B)
    .ARM.Collect$$$$0000000D                 0x08000140   Section        0  entry10a.o(.ARM.Collect$$$$0000000D)
    .ARM.Collect$$$$0000000F                 0x08000140   Section        0  entry11a.o(.ARM.Collect$$$$0000000F)
    .ARM.Collect$$$$00002712                 0x08000140   Section        4  entry2.o(.ARM.Collect$$$$00002712)
    __lit__00000000                          0x08000140   Data           4  entry2.o(.ARM.Collect$$$$00002712)
    .text                                    0x08000144   Section       36  startup_stm32f10x_hd.o(.text)
    .text                                    0x08000168   Section        0  rand.o(.text)
    .text                                    0x0800018c   Section        0  memmovea.o(.text)
    .text                                    0x080001cc   Section        0  memseta.o(.text)
    .text                                    0x080001f0   Section        0  strlen.o(.text)
    .text                                    0x080001fe   Section        0  memcmp.o(.text)
    .text                                    0x08000218   Section        0  calloc.o(.text)
    .text                                    0x08000234   Section        0  uidiv.o(.text)
    .text                                    0x08000260   Section        0  uldiv.o(.text)
    .text                                    0x080002c2   Section        0  dadd.o(.text)
    .text                                    0x080002c2   Section        0  iusefp.o(.text)
    .text                                    0x08000410   Section        0  dmul.o(.text)
    .text                                    0x080004f4   Section        0  ddiv.o(.text)
    .text                                    0x080005d2   Section        0  dfixul.o(.text)
    .text                                    0x08000604   Section       48  cdrcmple.o(.text)
    .text                                    0x08000634   Section       36  init.o(.text)
    .text                                    0x08000658   Section        0  llshl.o(.text)
    .text                                    0x08000676   Section        0  llushr.o(.text)
    .text                                    0x08000696   Section        0  llsshr.o(.text)
    .text                                    0x080006ba   Section        0  depilogue.o(.text)
    i.BusFault_Handler                       0x08000774   Section        0  stm32f10x_it.o(i.BusFault_Handler)
    i.DebugMon_Handler                       0x08000778   Section        0  stm32f10x_it.o(i.DebugMon_Handler)
    i.DelayInit                              0x0800077c   Section        0  delay.o(i.DelayInit)
    i.GPIO_Init                              0x080007e4   Section        0  stm32f10x_gpio.o(i.GPIO_Init)
    i.GpioInit                               0x080008fc   Section        0  gpio.o(i.GpioInit)
    i.HardFault_Handler                      0x0800097c   Section        0  stm32f10x_it.o(i.HardFault_Handler)
    i.MemManage_Handler                      0x080009ac   Section        0  stm32f10x_it.o(i.MemManage_Handler)
    i.NMI_Handler                            0x080009b0   Section        0  stm32f10x_it.o(i.NMI_Handler)
    i.NVIC_Configuration                     0x080009b2   Section        0  system.o(i.NVIC_Configuration)
    i.NVIC_Init                              0x080009dc   Section        0  misc.o(i.NVIC_Init)
    i.NVIC_PriorityGroupConfig               0x08000a4c   Section        0  misc.o(i.NVIC_PriorityGroupConfig)
    i.PendSV_Handler                         0x08000a60   Section        0  stm32f10x_it.o(i.PendSV_Handler)
    i.RCC_APB2PeriphClockCmd                 0x08000a64   Section        0  stm32f10x_rcc.o(i.RCC_APB2PeriphClockCmd)
    i.RCC_GetClocksFreq                      0x08000a84   Section        0  stm32f10x_rcc.o(i.RCC_GetClocksFreq)
    i.SVC_Handler                            0x08000b58   Section        0  stm32f10x_it.o(i.SVC_Handler)
    i.SetSysClock                            0x08000b5a   Section        0  system_stm32f10x.o(i.SetSysClock)
    SetSysClock                              0x08000b5b   Thumb Code     8  system_stm32f10x.o(i.SetSysClock)
    i.SetSysClockTo72                        0x08000b64   Section        0  system_stm32f10x.o(i.SetSysClockTo72)
    SetSysClockTo72                          0x08000b65   Thumb Code   214  system_stm32f10x.o(i.SetSysClockTo72)
    i.SysTick_CLKSourceConfig                0x08000c44   Section        0  misc.o(i.SysTick_CLKSourceConfig)
    i.SysTick_Handler                        0x08000c6c   Section        0  delay.o(i.SysTick_Handler)
    i.SystemInit                             0x08000cc8   Section        0  system_stm32f10x.o(i.SystemInit)
    i.USART1_IRQHandler                      0x08000d28   Section        0  usart.o(i.USART1_IRQHandler)
    i.USART_ClearITPendingBit                0x08000d74   Section        0  stm32f10x_usart.o(i.USART_ClearITPendingBit)
    i.USART_Cmd                              0x08000d92   Section        0  stm32f10x_usart.o(i.USART_Cmd)
    i.USART_GetFlagStatus                    0x08000daa   Section        0  stm32f10x_usart.o(i.USART_GetFlagStatus)
    i.USART_GetITStatus                      0x08000dc4   Section        0  stm32f10x_usart.o(i.USART_GetITStatus)
    i.USART_ITConfig                         0x08000e18   Section        0  stm32f10x_usart.o(i.USART_ITConfig)
    i.USART_Init                             0x08000e64   Section        0  stm32f10x_usart.o(i.USART_Init)
    i.USART_ReceiveData                      0x08000f3c   Section        0  stm32f10x_usart.o(i.USART_ReceiveData)
    i.USART_SendData                         0x08000f46   Section        0  stm32f10x_usart.o(i.USART_SendData)
    i.UsageFault_Handler                     0x08000f4e   Section        0  stm32f10x_it.o(i.UsageFault_Handler)
    i.__0printf                              0x08000f54   Section        0  printfa.o(i.__0printf)
    i.__0snprintf                            0x08000f74   Section        0  printfa.o(i.__0snprintf)
    i.__0vsnprintf                           0x08000f9c   Section        0  printfa.o(i.__0vsnprintf)
    i.__scatterload_copy                     0x08000fc0   Section       14  handlers.o(i.__scatterload_copy)
    i.__scatterload_null                     0x08000fce   Section        2  handlers.o(i.__scatterload_null)
    i.__scatterload_zeroinit                 0x08000fd0   Section       14  handlers.o(i.__scatterload_zeroinit)
    i._fp_digits                             0x08000fe0   Section        0  printfa.o(i._fp_digits)
    _fp_digits                               0x08000fe1   Thumb Code   334  printfa.o(i._fp_digits)
    i._printf_core                           0x08001144   Section        0  printfa.o(i._printf_core)
    _printf_core                             0x08001145   Thumb Code  1744  printfa.o(i._printf_core)
    i._printf_post_padding                   0x08001820   Section        0  printfa.o(i._printf_post_padding)
    _printf_post_padding                     0x08001821   Thumb Code    36  printfa.o(i._printf_post_padding)
    i._printf_pre_padding                    0x08001844   Section        0  printfa.o(i._printf_pre_padding)
    _printf_pre_padding                      0x08001845   Thumb Code    46  printfa.o(i._printf_pre_padding)
    i._snputc                                0x08001872   Section        0  printfa.o(i._snputc)
    _snputc                                  0x08001873   Thumb Code    22  printfa.o(i._snputc)
    i.aes_crypt_cbc_wrap                     0x08001888   Section        0  cipher_wrap.o(i.aes_crypt_cbc_wrap)
    aes_crypt_cbc_wrap                       0x08001889   Thumb Code    36  cipher_wrap.o(i.aes_crypt_cbc_wrap)
    i.aes_crypt_ecb_wrap                     0x080018ac   Section        0  cipher_wrap.o(i.aes_crypt_ecb_wrap)
    aes_crypt_ecb_wrap                       0x080018ad   Thumb Code    28  cipher_wrap.o(i.aes_crypt_ecb_wrap)
    i.aes_ctx_alloc                          0x080018c8   Section        0  cipher_wrap.o(i.aes_ctx_alloc)
    aes_ctx_alloc                            0x080018c9   Thumb Code    30  cipher_wrap.o(i.aes_ctx_alloc)
    i.aes_ctx_free                           0x080018e6   Section        0  cipher_wrap.o(i.aes_ctx_free)
    aes_ctx_free                             0x080018e7   Thumb Code    18  cipher_wrap.o(i.aes_ctx_free)
    i.aes_setkey_dec_wrap                    0x080018f8   Section        0  cipher_wrap.o(i.aes_setkey_dec_wrap)
    aes_setkey_dec_wrap                      0x080018f9   Thumb Code    20  cipher_wrap.o(i.aes_setkey_dec_wrap)
    i.aes_setkey_enc_wrap                    0x0800190c   Section        0  cipher_wrap.o(i.aes_setkey_enc_wrap)
    aes_setkey_enc_wrap                      0x0800190d   Thumb Code    20  cipher_wrap.o(i.aes_setkey_enc_wrap)
    i.all_or_nothing_int                     0x08001920   Section        0  rsa.o(i.all_or_nothing_int)
    all_or_nothing_int                       0x08001921   Thumb Code    12  rsa.o(i.all_or_nothing_int)
    i.asn1_get_sequence_of_cb                0x0800192c   Section        0  asn1parse.o(i.asn1_get_sequence_of_cb)
    asn1_get_sequence_of_cb                  0x0800192d   Thumb Code    62  asn1parse.o(i.asn1_get_sequence_of_cb)
    i.asn1_get_tagged_int                    0x0800196a   Section        0  asn1parse.o(i.asn1_get_tagged_int)
    asn1_get_tagged_int                      0x0800196b   Thumb Code   164  asn1parse.o(i.asn1_get_tagged_int)
    i.block_cipher_df                        0x08001a0e   Section        0  ctr_drbg.o(i.block_cipher_df)
    block_cipher_df                          0x08001a0f   Thumb Code   368  ctr_drbg.o(i.block_cipher_df)
    i.ctr_drbg_update_internal               0x08001b7e   Section        0  ctr_drbg.o(i.ctr_drbg_update_internal)
    ctr_drbg_update_internal                 0x08001b7f   Thumb Code   160  ctr_drbg.o(i.ctr_drbg_update_internal)
    i.custom_ssl_recv                        0x08001c20   Section        0  main.o(i.custom_ssl_recv)
    custom_ssl_recv                          0x08001c21   Thumb Code   176  main.o(i.custom_ssl_recv)
    i.custom_ssl_send                        0x08001cdc   Section        0  main.o(i.custom_ssl_send)
    custom_ssl_send                          0x08001cdd   Thumb Code    22  main.o(i.custom_ssl_send)
    i.debug_print_line_by_line               0x08001cf2   Section        0  debug.o(i.debug_print_line_by_line)
    debug_print_line_by_line                 0x08001cf3   Thumb Code    96  debug.o(i.debug_print_line_by_line)
    i.debug_print_pk                         0x08001d54   Section        0  debug.o(i.debug_print_pk)
    debug_print_pk                           0x08001d55   Thumb Code   178  debug.o(i.debug_print_pk)
    i.debug_send_line                        0x08001e38   Section        0  debug.o(i.debug_send_line)
    debug_send_line                          0x08001e39   Thumb Code    38  debug.o(i.debug_send_line)
    i.entropy_gather_internal                0x08001e5e   Section        0  entropy.o(i.entropy_gather_internal)
    entropy_gather_internal                  0x08001e5f   Thumb Code   178  entropy.o(i.entropy_gather_internal)
    i.entropy_update                         0x08001f10   Section        0  entropy.o(i.entropy_update)
    entropy_update                           0x08001f11   Thumb Code   140  entropy.o(i.entropy_update)
    i.fputc                                  0x08001f9c   Section        0  usart.o(i.fputc)
    i.free                                   0x08001fdc   Section        0  malloc.o(i.free)
    i.gcm_aes_setkey_wrap                    0x0800202c   Section        0  cipher_wrap.o(i.gcm_aes_setkey_wrap)
    gcm_aes_setkey_wrap                      0x0800202d   Thumb Code    22  cipher_wrap.o(i.gcm_aes_setkey_wrap)
    i.gcm_ctx_alloc                          0x08002042   Section        0  cipher_wrap.o(i.gcm_ctx_alloc)
    gcm_ctx_alloc                            0x08002043   Thumb Code    26  cipher_wrap.o(i.gcm_ctx_alloc)
    i.gcm_ctx_free                           0x0800205c   Section        0  cipher_wrap.o(i.gcm_ctx_free)
    gcm_ctx_free                             0x0800205d   Thumb Code    18  cipher_wrap.o(i.gcm_ctx_free)
    i.gcm_gen_table                          0x0800206e   Section        0  gcm.o(i.gcm_gen_table)
    gcm_gen_table                            0x0800206f   Thumb Code   404  gcm.o(i.gcm_gen_table)
    i.gcm_mult                               0x08002204   Section        0  gcm.o(i.gcm_mult)
    gcm_mult                                 0x08002205   Thumb Code   448  gcm.o(i.gcm_mult)
    i.get_no_padding                         0x080023c8   Section        0  cipher.o(i.get_no_padding)
    get_no_padding                           0x080023c9   Thumb Code    16  cipher.o(i.get_no_padding)
    i.good_nonce_len                         0x080023dc   Section        0  ctr_drbg.o(i.good_nonce_len)
    good_nonce_len                           0x080023dd   Thumb Code    16  ctr_drbg.o(i.good_nonce_len)
    i.if_int                                 0x080023ec   Section        0  rsa.o(i.if_int)
    if_int                                   0x080023ed   Thumb Code    32  rsa.o(i.if_int)
    i.main                                   0x0800240c   Section        0  main.o(i.main)
    i.malloc                                 0x08002480   Section        0  malloc.o(i.malloc)
    i.mbedtls_aes_crypt_cbc                  0x080024ec   Section        0  aes.o(i.mbedtls_aes_crypt_cbc)
    i.mbedtls_aes_crypt_ecb                  0x080025a2   Section        0  aes.o(i.mbedtls_aes_crypt_ecb)
    i.mbedtls_aes_free                       0x080025dc   Section        0  aes.o(i.mbedtls_aes_free)
    i.mbedtls_aes_init                       0x080025f2   Section        0  aes.o(i.mbedtls_aes_init)
    i.mbedtls_aes_setkey_dec                 0x08002608   Section        0  aes.o(i.mbedtls_aes_setkey_dec)
    i.mbedtls_aes_setkey_enc                 0x080026f0   Section        0  aes.o(i.mbedtls_aes_setkey_enc)
    i.mbedtls_asn1_get_alg                   0x080028f0   Section        0  asn1parse.o(i.mbedtls_asn1_get_alg)
    i.mbedtls_asn1_get_bitstring             0x080029a2   Section        0  asn1parse.o(i.mbedtls_asn1_get_bitstring)
    i.mbedtls_asn1_get_bitstring_null        0x08002a06   Section        0  asn1parse.o(i.mbedtls_asn1_get_bitstring_null)
    i.mbedtls_asn1_get_bool                  0x08002a4c   Section        0  asn1parse.o(i.mbedtls_asn1_get_bool)
    i.mbedtls_asn1_get_int                   0x08002a90   Section        0  asn1parse.o(i.mbedtls_asn1_get_int)
    i.mbedtls_asn1_get_len                   0x08002aa6   Section        0  asn1parse.o(i.mbedtls_asn1_get_len)
    i.mbedtls_asn1_get_sequence_of           0x08002ba4   Section        0  asn1parse.o(i.mbedtls_asn1_get_sequence_of)
    i.mbedtls_asn1_get_tag                   0x08002be0   Section        0  asn1parse.o(i.mbedtls_asn1_get_tag)
    i.mbedtls_asn1_traverse_sequence_of      0x08002c18   Section        0  asn1parse.o(i.mbedtls_asn1_traverse_sequence_of)
    i.mbedtls_cipher_auth_decrypt            0x08002cbc   Section        0  cipher.o(i.mbedtls_cipher_auth_decrypt)
    i.mbedtls_cipher_auth_encrypt            0x08002d3c   Section        0  cipher.o(i.mbedtls_cipher_auth_encrypt)
    i.mbedtls_cipher_crypt                   0x08002da4   Section        0  cipher.o(i.mbedtls_cipher_crypt)
    i.mbedtls_cipher_finish                  0x08002e30   Section        0  cipher.o(i.mbedtls_cipher_finish)
    i.mbedtls_cipher_free                    0x08002f78   Section        0  cipher.o(i.mbedtls_cipher_free)
    i.mbedtls_cipher_get_block_size          0x08002f9a   Section        0  cipher.o(i.mbedtls_cipher_get_block_size)
    mbedtls_cipher_get_block_size            0x08002f9b   Thumb Code    20  cipher.o(i.mbedtls_cipher_get_block_size)
    i.mbedtls_cipher_get_cipher_mode         0x08002fae   Section        0  ssl_msg.o(i.mbedtls_cipher_get_cipher_mode)
    mbedtls_cipher_get_cipher_mode           0x08002faf   Thumb Code    20  ssl_msg.o(i.mbedtls_cipher_get_cipher_mode)
    i.mbedtls_cipher_info_from_type          0x08002fc4   Section        0  cipher.o(i.mbedtls_cipher_info_from_type)
    i.mbedtls_cipher_info_from_values        0x08002fe4   Section        0  cipher.o(i.mbedtls_cipher_info_from_values)
    i.mbedtls_cipher_init                    0x0800301c   Section        0  cipher.o(i.mbedtls_cipher_init)
    i.mbedtls_cipher_reset                   0x08003030   Section        0  cipher.o(i.mbedtls_cipher_reset)
    i.mbedtls_cipher_set_iv                  0x0800304c   Section        0  cipher.o(i.mbedtls_cipher_set_iv)
    i.mbedtls_cipher_set_padding_mode        0x080030a4   Section        0  cipher.o(i.mbedtls_cipher_set_padding_mode)
    i.mbedtls_cipher_setkey                  0x080030dc   Section        0  cipher.o(i.mbedtls_cipher_setkey)
    i.mbedtls_cipher_setup                   0x08003160   Section        0  cipher.o(i.mbedtls_cipher_setup)
    i.mbedtls_cipher_update                  0x0800319c   Section        0  cipher.o(i.mbedtls_cipher_update)
    i.mbedtls_clz                            0x08003360   Section        0  bignum.o(i.mbedtls_clz)
    mbedtls_clz                              0x08003361   Thumb Code    30  bignum.o(i.mbedtls_clz)
    i.mbedtls_ctr_drbg_free                  0x0800337e   Section        0  ctr_drbg.o(i.mbedtls_ctr_drbg_free)
    i.mbedtls_ctr_drbg_init                  0x0800339c   Section        0  ctr_drbg.o(i.mbedtls_ctr_drbg_init)
    i.mbedtls_ctr_drbg_random                0x080033b2   Section        0  ctr_drbg.o(i.mbedtls_ctr_drbg_random)
    i.mbedtls_ctr_drbg_random_with_add       0x080033da   Section        0  ctr_drbg.o(i.mbedtls_ctr_drbg_random_with_add)
    i.mbedtls_ctr_drbg_reseed                0x080034d8   Section        0  ctr_drbg.o(i.mbedtls_ctr_drbg_reseed)
    i.mbedtls_ctr_drbg_reseed_internal       0x080034ee   Section        0  ctr_drbg.o(i.mbedtls_ctr_drbg_reseed_internal)
    mbedtls_ctr_drbg_reseed_internal         0x080034ef   Thumb Code   210  ctr_drbg.o(i.mbedtls_ctr_drbg_reseed_internal)
    i.mbedtls_ctr_drbg_seed                  0x080035c0   Section        0  ctr_drbg.o(i.mbedtls_ctr_drbg_seed)
    i.mbedtls_debug_print_buf                0x08003644   Section        0  debug.o(i.mbedtls_debug_print_buf)
    i.mbedtls_debug_print_crt                0x080037ac   Section        0  debug.o(i.mbedtls_debug_print_crt)
    i.mbedtls_debug_print_mpi                0x08003868   Section        0  debug.o(i.mbedtls_debug_print_mpi)
    i.mbedtls_debug_print_msg                0x08003a1c   Section        0  debug.o(i.mbedtls_debug_print_msg)
    i.mbedtls_debug_print_ret                0x08003a94   Section        0  debug.o(i.mbedtls_debug_print_ret)
    i.mbedtls_debug_set_threshold            0x08003b18   Section        0  debug.o(i.mbedtls_debug_set_threshold)
    i.mbedtls_entropy_add_source             0x08003b24   Section        0  entropy.o(i.mbedtls_entropy_add_source)
    i.mbedtls_entropy_free                   0x08003b7c   Section        0  entropy.o(i.mbedtls_entropy_free)
    i.mbedtls_entropy_func                   0x08003ba0   Section        0  entropy.o(i.mbedtls_entropy_func)
    i.mbedtls_entropy_init                   0x08003cec   Section        0  entropy.o(i.mbedtls_entropy_init)
    i.mbedtls_gcm_auth_decrypt               0x08003d24   Section        0  gcm.o(i.mbedtls_gcm_auth_decrypt)
    i.mbedtls_gcm_crypt_and_tag              0x08003db2   Section        0  gcm.o(i.mbedtls_gcm_crypt_and_tag)
    i.mbedtls_gcm_finish                     0x08003e28   Section        0  gcm.o(i.mbedtls_gcm_finish)
    i.mbedtls_gcm_free                       0x08003fb4   Section        0  gcm.o(i.mbedtls_gcm_free)
    i.mbedtls_gcm_init                       0x08003fd0   Section        0  gcm.o(i.mbedtls_gcm_init)
    i.mbedtls_gcm_setkey                     0x08003fe4   Section        0  gcm.o(i.mbedtls_gcm_setkey)
    i.mbedtls_gcm_starts                     0x08004064   Section        0  gcm.o(i.mbedtls_gcm_starts)
    i.mbedtls_gcm_update                     0x080041f0   Section        0  gcm.o(i.mbedtls_gcm_update)
    i.mbedtls_hardware_poll                  0x0800432c   Section        0  main.o(i.mbedtls_hardware_poll)
    i.mbedtls_int_div_int                    0x0800435e   Section        0  bignum.o(i.mbedtls_int_div_int)
    mbedtls_int_div_int                      0x0800435f   Thumb Code   250  bignum.o(i.mbedtls_int_div_int)
    i.mbedtls_internal_aes_decrypt           0x08004458   Section        0  aes.o(i.mbedtls_internal_aes_decrypt)
    i.mbedtls_internal_aes_encrypt           0x080049cc   Section        0  aes.o(i.mbedtls_internal_aes_encrypt)
    i.mbedtls_internal_md5_process           0x08004f40   Section        0  md5.o(i.mbedtls_internal_md5_process)
    i.mbedtls_internal_sha1_process          0x08005950   Section        0  sha1.o(i.mbedtls_internal_sha1_process)
    i.mbedtls_internal_sha256_process        0x08007068   Section        0  sha256.o(i.mbedtls_internal_sha256_process)
    i.mbedtls_internal_sha512_process        0x08007e84   Section        0  sha512.o(i.mbedtls_internal_sha512_process)
    i.mbedtls_md                             0x08008cd0   Section        0  md.o(i.mbedtls_md)
    i.mbedtls_md5_finish_ret                 0x08008d50   Section        0  md5.o(i.mbedtls_md5_finish_ret)
    i.mbedtls_md5_free                       0x08008e62   Section        0  md5.o(i.mbedtls_md5_free)
    i.mbedtls_md5_init                       0x08008e76   Section        0  md5.o(i.mbedtls_md5_init)
    i.mbedtls_md5_ret                        0x08008e84   Section        0  md5.o(i.mbedtls_md5_ret)
    i.mbedtls_md5_starts_ret                 0x08008ed0   Section        0  md5.o(i.mbedtls_md5_starts_ret)
    i.mbedtls_md5_update_ret                 0x08008ef8   Section        0  md5.o(i.mbedtls_md5_update_ret)
    i.mbedtls_md_finish                      0x08008f90   Section        0  md.o(i.mbedtls_md_finish)
    i.mbedtls_md_free                        0x08008fe8   Section        0  md.o(i.mbedtls_md_free)
    i.mbedtls_md_get_size                    0x0800905c   Section        0  md.o(i.mbedtls_md_get_size)
    i.mbedtls_md_get_type                    0x08009068   Section        0  md.o(i.mbedtls_md_get_type)
    i.mbedtls_md_hmac_finish                 0x08009074   Section        0  md.o(i.mbedtls_md_hmac_finish)
    i.mbedtls_md_hmac_reset                  0x080090ec   Section        0  md.o(i.mbedtls_md_hmac_reset)
    i.mbedtls_md_hmac_starts                 0x08009124   Section        0  md.o(i.mbedtls_md_hmac_starts)
    i.mbedtls_md_hmac_update                 0x080091fc   Section        0  md.o(i.mbedtls_md_hmac_update)
    i.mbedtls_md_info_from_type              0x08009224   Section        0  md.o(i.mbedtls_md_info_from_type)
    i.mbedtls_md_init                        0x0800926c   Section        0  md.o(i.mbedtls_md_init)
    i.mbedtls_md_process                     0x08009278   Section        0  md.o(i.mbedtls_md_process)
    i.mbedtls_md_setup                       0x080092d0   Section        0  md.o(i.mbedtls_md_setup)
    i.mbedtls_md_starts                      0x080093a4   Section        0  md.o(i.mbedtls_md_starts)
    i.mbedtls_md_update                      0x08009408   Section        0  md.o(i.mbedtls_md_update)
    i.mbedtls_mpi_add_abs                    0x0800946c   Section        0  bignum.o(i.mbedtls_mpi_add_abs)
    i.mbedtls_mpi_add_int                    0x08009570   Section        0  bignum.o(i.mbedtls_mpi_add_int)
    i.mbedtls_mpi_add_mpi                    0x080095b0   Section        0  bignum.o(i.mbedtls_mpi_add_mpi)
    i.mbedtls_mpi_bitlen                     0x08009634   Section        0  bignum.o(i.mbedtls_mpi_bitlen)
    i.mbedtls_mpi_cmp_abs                    0x0800966c   Section        0  bignum.o(i.mbedtls_mpi_cmp_abs)
    i.mbedtls_mpi_cmp_int                    0x080096fe   Section        0  bignum.o(i.mbedtls_mpi_cmp_int)
    i.mbedtls_mpi_cmp_mpi                    0x08009736   Section        0  bignum.o(i.mbedtls_mpi_cmp_mpi)
    i.mbedtls_mpi_copy                       0x080097ea   Section        0  bignum.o(i.mbedtls_mpi_copy)
    i.mbedtls_mpi_div_mpi                    0x0800986a   Section        0  bignum.o(i.mbedtls_mpi_div_mpi)
    i.mbedtls_mpi_exp_mod                    0x08009c30   Section        0  bignum.o(i.mbedtls_mpi_exp_mod)
    i.mbedtls_mpi_fill_random                0x0800a126   Section        0  bignum.o(i.mbedtls_mpi_fill_random)
    i.mbedtls_mpi_free                       0x0800a1aa   Section        0  bignum.o(i.mbedtls_mpi_free)
    i.mbedtls_mpi_gcd                        0x0800a1d2   Section        0  bignum.o(i.mbedtls_mpi_gcd)
    i.mbedtls_mpi_get_bit                    0x0800a34a   Section        0  bignum.o(i.mbedtls_mpi_get_bit)
    i.mbedtls_mpi_grow                       0x0800a370   Section        0  bignum.o(i.mbedtls_mpi_grow)
    i.mbedtls_mpi_init                       0x0800a3c6   Section        0  bignum.o(i.mbedtls_mpi_init)
    i.mbedtls_mpi_inv_mod                    0x0800a3d6   Section        0  bignum.o(i.mbedtls_mpi_inv_mod)
    i.mbedtls_mpi_lsb                        0x0800a714   Section        0  bignum.o(i.mbedtls_mpi_lsb)
    i.mbedtls_mpi_lset                       0x0800a74c   Section        0  bignum.o(i.mbedtls_mpi_lset)
    i.mbedtls_mpi_mod_mpi                    0x0800a798   Section        0  bignum.o(i.mbedtls_mpi_mod_mpi)
    i.mbedtls_mpi_mul_int                    0x0800a826   Section        0  bignum.o(i.mbedtls_mpi_mul_int)
    i.mbedtls_mpi_mul_mpi                    0x0800a850   Section        0  bignum.o(i.mbedtls_mpi_mul_mpi)
    i.mbedtls_mpi_read_binary                0x0800a948   Section        0  bignum.o(i.mbedtls_mpi_read_binary)
    i.mbedtls_mpi_shift_l                    0x0800a9ce   Section        0  bignum.o(i.mbedtls_mpi_shift_l)
    i.mbedtls_mpi_shift_r                    0x0800aa98   Section        0  bignum.o(i.mbedtls_mpi_shift_r)
    i.mbedtls_mpi_size                       0x0800ab42   Section        0  bignum.o(i.mbedtls_mpi_size)
    i.mbedtls_mpi_sub_abs                    0x0800ab52   Section        0  bignum.o(i.mbedtls_mpi_sub_abs)
    i.mbedtls_mpi_sub_int                    0x0800ac1c   Section        0  bignum.o(i.mbedtls_mpi_sub_int)
    i.mbedtls_mpi_sub_mpi                    0x0800ac5c   Section        0  bignum.o(i.mbedtls_mpi_sub_mpi)
    i.mbedtls_mpi_write_binary               0x0800ace0   Section        0  bignum.o(i.mbedtls_mpi_write_binary)
    i.mbedtls_mpi_zeroize                    0x0800ad62   Section        0  bignum.o(i.mbedtls_mpi_zeroize)
    mbedtls_mpi_zeroize                      0x0800ad63   Thumb Code    16  bignum.o(i.mbedtls_mpi_zeroize)
    i.mbedtls_oid_get_attr_short_name        0x0800ad72   Section        0  oid.o(i.mbedtls_oid_get_attr_short_name)
    i.mbedtls_oid_get_certificate_policies   0x0800ad90   Section        0  oid.o(i.mbedtls_oid_get_certificate_policies)
    i.mbedtls_oid_get_extended_key_usage     0x0800adae   Section        0  oid.o(i.mbedtls_oid_get_extended_key_usage)
    i.mbedtls_oid_get_numeric_string         0x0800adcc   Section        0  oid.o(i.mbedtls_oid_get_numeric_string)
    i.mbedtls_oid_get_oid_by_md              0x0800ae98   Section        0  oid.o(i.mbedtls_oid_get_oid_by_md)
    i.mbedtls_oid_get_pk_alg                 0x0800aec8   Section        0  oid.o(i.mbedtls_oid_get_pk_alg)
    i.mbedtls_oid_get_sig_alg                0x0800aee6   Section        0  oid.o(i.mbedtls_oid_get_sig_alg)
    i.mbedtls_oid_get_sig_alg_desc           0x0800af0e   Section        0  oid.o(i.mbedtls_oid_get_sig_alg_desc)
    i.mbedtls_oid_get_x509_ext_type          0x0800af2c   Section        0  oid.o(i.mbedtls_oid_get_x509_ext_type)
    i.mbedtls_pk_can_do                      0x0800af4a   Section        0  pk.o(i.mbedtls_pk_can_do)
    i.mbedtls_pk_debug                       0x0800af64   Section        0  pk.o(i.mbedtls_pk_debug)
    i.mbedtls_pk_encrypt                     0x0800af94   Section        0  pk.o(i.mbedtls_pk_encrypt)
    i.mbedtls_pk_free                        0x0800afec   Section        0  pk.o(i.mbedtls_pk_free)
    i.mbedtls_pk_get_bitlen                  0x0800b00c   Section        0  pk.o(i.mbedtls_pk_get_bitlen)
    i.mbedtls_pk_get_name                    0x0800b024   Section        0  pk.o(i.mbedtls_pk_get_name)
    i.mbedtls_pk_get_type                    0x0800b044   Section        0  pk.o(i.mbedtls_pk_get_type)
    i.mbedtls_pk_info_from_type              0x0800b058   Section        0  pk.o(i.mbedtls_pk_info_from_type)
    i.mbedtls_pk_init                        0x0800b06c   Section        0  pk.o(i.mbedtls_pk_init)
    i.mbedtls_pk_parse_subpubkey             0x0800b078   Section        0  pkparse.o(i.mbedtls_pk_parse_subpubkey)
    i.mbedtls_pk_setup                       0x0800b158   Section        0  pk.o(i.mbedtls_pk_setup)
    i.mbedtls_pk_sign_restartable            0x0800b188   Section        0  pk.o(i.mbedtls_pk_sign_restartable)
    i.mbedtls_pk_verify                      0x0800b1e4   Section        0  pk.o(i.mbedtls_pk_verify)
    i.mbedtls_pk_verify_ext                  0x0800b20c   Section        0  pk.o(i.mbedtls_pk_verify_ext)
    i.mbedtls_pk_verify_restartable          0x0800b270   Section        0  pk.o(i.mbedtls_pk_verify_restartable)
    i.mbedtls_platform_zeroize               0x0800b2cc   Section        0  platform_util.o(i.mbedtls_platform_zeroize)
    i.mbedtls_rsa_check_privkey              0x0800b2ec   Section        0  rsa.o(i.mbedtls_rsa_check_privkey)
    i.mbedtls_rsa_check_pub_priv             0x0800b35c   Section        0  rsa.o(i.mbedtls_rsa_check_pub_priv)
    i.mbedtls_rsa_check_pubkey               0x0800b3a8   Section        0  rsa.o(i.mbedtls_rsa_check_pubkey)
    i.mbedtls_rsa_complete                   0x0800b404   Section        0  rsa.o(i.mbedtls_rsa_complete)
    i.mbedtls_rsa_deduce_crt                 0x0800b604   Section        0  rsa_internal.o(i.mbedtls_rsa_deduce_crt)
    i.mbedtls_rsa_deduce_primes              0x0800b6a4   Section        0  rsa_internal.o(i.mbedtls_rsa_deduce_primes)
    i.mbedtls_rsa_deduce_private_exponent    0x0800b8f0   Section        0  rsa_internal.o(i.mbedtls_rsa_deduce_private_exponent)
    i.mbedtls_rsa_free                       0x0800b9e4   Section        0  rsa.o(i.mbedtls_rsa_free)
    i.mbedtls_rsa_get_len                    0x0800ba58   Section        0  rsa.o(i.mbedtls_rsa_get_len)
    i.mbedtls_rsa_import_raw                 0x0800ba5e   Section        0  rsa.o(i.mbedtls_rsa_import_raw)
    i.mbedtls_rsa_init                       0x0800bb24   Section        0  rsa.o(i.mbedtls_rsa_init)
    i.mbedtls_rsa_pkcs1_decrypt              0x0800bb48   Section        0  rsa.o(i.mbedtls_rsa_pkcs1_decrypt)
    i.mbedtls_rsa_pkcs1_encrypt              0x0800bb94   Section        0  rsa.o(i.mbedtls_rsa_pkcs1_encrypt)
    i.mbedtls_rsa_pkcs1_sign                 0x0800bbdc   Section        0  rsa.o(i.mbedtls_rsa_pkcs1_sign)
    i.mbedtls_rsa_pkcs1_verify               0x0800bc24   Section        0  rsa.o(i.mbedtls_rsa_pkcs1_verify)
    i.mbedtls_rsa_private                    0x0800bc6c   Section        0  rsa.o(i.mbedtls_rsa_private)
    i.mbedtls_rsa_public                     0x0800bfcc   Section        0  rsa.o(i.mbedtls_rsa_public)
    i.mbedtls_rsa_rsaes_pkcs1_v15_decrypt    0x0800c078   Section        0  rsa.o(i.mbedtls_rsa_rsaes_pkcs1_v15_decrypt)
    i.mbedtls_rsa_rsaes_pkcs1_v15_encrypt    0x0800c274   Section        0  rsa.o(i.mbedtls_rsa_rsaes_pkcs1_v15_encrypt)
    i.mbedtls_rsa_rsassa_pkcs1_v15_sign      0x0800c370   Section        0  rsa.o(i.mbedtls_rsa_rsassa_pkcs1_v15_sign)
    i.mbedtls_rsa_rsassa_pkcs1_v15_verify    0x0800c464   Section        0  rsa.o(i.mbedtls_rsa_rsassa_pkcs1_v15_verify)
    i.mbedtls_rsa_set_padding                0x0800c544   Section        0  rsa.o(i.mbedtls_rsa_set_padding)
    i.mbedtls_rsa_validate_crt               0x0800c558   Section        0  rsa_internal.o(i.mbedtls_rsa_validate_crt)
    i.mbedtls_rsa_validate_params            0x0800c6a8   Section        0  rsa_internal.o(i.mbedtls_rsa_validate_params)
    i.mbedtls_safer_memcmp                   0x0800c874   Section        0  rsa.o(i.mbedtls_safer_memcmp)
    mbedtls_safer_memcmp                     0x0800c875   Thumb Code    36  rsa.o(i.mbedtls_safer_memcmp)
    i.mbedtls_sha1_finish_ret                0x0800c898   Section        0  sha1.o(i.mbedtls_sha1_finish_ret)
    i.mbedtls_sha1_free                      0x0800c9c8   Section        0  sha1.o(i.mbedtls_sha1_free)
    i.mbedtls_sha1_init                      0x0800c9dc   Section        0  sha1.o(i.mbedtls_sha1_init)
    i.mbedtls_sha1_ret                       0x0800c9ee   Section        0  sha1.o(i.mbedtls_sha1_ret)
    i.mbedtls_sha1_starts_ret                0x0800ca44   Section        0  sha1.o(i.mbedtls_sha1_starts_ret)
    i.mbedtls_sha1_update_ret                0x0800ca78   Section        0  sha1.o(i.mbedtls_sha1_update_ret)
    i.mbedtls_sha256_clone                   0x0800cb16   Section        0  sha256.o(i.mbedtls_sha256_clone)
    i.mbedtls_sha256_finish_ret              0x0800cb30   Section        0  sha256.o(i.mbedtls_sha256_finish_ret)
    i.mbedtls_sha256_free                    0x0800ccd2   Section        0  sha256.o(i.mbedtls_sha256_free)
    i.mbedtls_sha256_init                    0x0800cce6   Section        0  sha256.o(i.mbedtls_sha256_init)
    i.mbedtls_sha256_ret                     0x0800ccf8   Section        0  sha256.o(i.mbedtls_sha256_ret)
    i.mbedtls_sha256_starts_ret              0x0800cd60   Section        0  sha256.o(i.mbedtls_sha256_starts_ret)
    i.mbedtls_sha256_update_ret              0x0800cdfc   Section        0  sha256.o(i.mbedtls_sha256_update_ret)
    i.mbedtls_sha512_clone                   0x0800ce9a   Section        0  sha512.o(i.mbedtls_sha512_clone)
    i.mbedtls_sha512_finish_ret              0x0800ceb4   Section        0  sha512.o(i.mbedtls_sha512_finish_ret)
    i.mbedtls_sha512_free                    0x0800d294   Section        0  sha512.o(i.mbedtls_sha512_free)
    i.mbedtls_sha512_init                    0x0800d2a8   Section        0  sha512.o(i.mbedtls_sha512_init)
    i.mbedtls_sha512_ret                     0x0800d2ba   Section        0  sha512.o(i.mbedtls_sha512_ret)
    i.mbedtls_sha512_starts_ret              0x0800d320   Section        0  sha512.o(i.mbedtls_sha512_starts_ret)
    i.mbedtls_sha512_update_ret              0x0800d444   Section        0  sha512.o(i.mbedtls_sha512_update_ret)
    i.mbedtls_ssl_check_cert_usage           0x0800d4f6   Section        0  ssl_tls.o(i.mbedtls_ssl_check_cert_usage)
    i.mbedtls_ssl_check_timer                0x0800d500   Section        0  ssl_msg.o(i.mbedtls_ssl_check_timer)
    i.mbedtls_ssl_chk_buf_ptr                0x0800d560   Section        0  ssl_cli.o(i.mbedtls_ssl_chk_buf_ptr)
    mbedtls_ssl_chk_buf_ptr                  0x0800d561   Thumb Code    20  ssl_cli.o(i.mbedtls_ssl_chk_buf_ptr)
    i.mbedtls_ssl_ciphersuite_cert_req_allowed 0x0800d574   Section        0  ssl_cli.o(i.mbedtls_ssl_ciphersuite_cert_req_allowed)
    mbedtls_ssl_ciphersuite_cert_req_allowed 0x0800d575   Thumb Code    42  ssl_cli.o(i.mbedtls_ssl_ciphersuite_cert_req_allowed)
    i.mbedtls_ssl_ciphersuite_from_id        0x0800d5a0   Section        0  ssl_ciphersuites.o(i.mbedtls_ssl_ciphersuite_from_id)
    i.mbedtls_ssl_ciphersuite_uses_srv_cert  0x0800d5c0   Section        0  ssl_tls.o(i.mbedtls_ssl_ciphersuite_uses_srv_cert)
    mbedtls_ssl_ciphersuite_uses_srv_cert    0x0800d5c1   Thumb Code    44  ssl_tls.o(i.mbedtls_ssl_ciphersuite_uses_srv_cert)
    i.mbedtls_ssl_close_notify               0x0800d5ec   Section        0  ssl_msg.o(i.mbedtls_ssl_close_notify)
    i.mbedtls_ssl_conf_authmode              0x0800d6d4   Section        0  ssl_tls.o(i.mbedtls_ssl_conf_authmode)
    i.mbedtls_ssl_conf_dbg                   0x0800d6de   Section        0  ssl_tls.o(i.mbedtls_ssl_conf_dbg)
    i.mbedtls_ssl_conf_endpoint              0x0800d6e4   Section        0  ssl_tls.o(i.mbedtls_ssl_conf_endpoint)
    i.mbedtls_ssl_conf_rng                   0x0800d6ee   Section        0  ssl_tls.o(i.mbedtls_ssl_conf_rng)
    i.mbedtls_ssl_conf_transport             0x0800d6f4   Section        0  ssl_tls.o(i.mbedtls_ssl_conf_transport)
    i.mbedtls_ssl_config_defaults            0x0800d700   Section        0  ssl_tls.o(i.mbedtls_ssl_config_defaults)
    i.mbedtls_ssl_config_free                0x0800d798   Section        0  ssl_tls.o(i.mbedtls_ssl_config_free)
    i.mbedtls_ssl_config_init                0x0800d7ac   Section        0  ssl_tls.o(i.mbedtls_ssl_config_init)
    i.mbedtls_ssl_decrypt_buf                0x0800d7bc   Section        0  ssl_msg.o(i.mbedtls_ssl_decrypt_buf)
    i.mbedtls_ssl_derive_keys                0x0800df4c   Section        0  ssl_tls.o(i.mbedtls_ssl_derive_keys)
    i.mbedtls_ssl_encrypt_buf                0x0800e0e4   Section        0  ssl_msg.o(i.mbedtls_ssl_encrypt_buf)
    i.mbedtls_ssl_fetch_input                0x0800e7f8   Section        0  ssl_msg.o(i.mbedtls_ssl_fetch_input)
    i.mbedtls_ssl_flush_output               0x0800ea4c   Section        0  ssl_msg.o(i.mbedtls_ssl_flush_output)
    i.mbedtls_ssl_free                       0x0800ec48   Section        0  ssl_tls.o(i.mbedtls_ssl_free)
    i.mbedtls_ssl_get_ciphersuite_name       0x0800ed58   Section        0  ssl_ciphersuites.o(i.mbedtls_ssl_get_ciphersuite_name)
    i.mbedtls_ssl_get_max_out_record_payload 0x0800ed78   Section        0  ssl_tls.o(i.mbedtls_ssl_get_max_out_record_payload)
    i.mbedtls_ssl_handle_message_type        0x0800ed80   Section        0  ssl_msg.o(i.mbedtls_ssl_handle_message_type)
    i.mbedtls_ssl_handshake                  0x0800efbc   Section        0  ssl_tls.o(i.mbedtls_ssl_handshake)
    i.mbedtls_ssl_handshake_client_step      0x0800f050   Section        0  ssl_cli.o(i.mbedtls_ssl_handshake_client_step)
    i.mbedtls_ssl_handshake_free             0x0800f1c8   Section        0  ssl_tls.o(i.mbedtls_ssl_handshake_free)
    i.mbedtls_ssl_handshake_step             0x0800f1f8   Section        0  ssl_tls.o(i.mbedtls_ssl_handshake_step)
    i.mbedtls_ssl_handshake_wrapup           0x0800f228   Section        0  ssl_tls.o(i.mbedtls_ssl_handshake_wrapup)
    i.mbedtls_ssl_handshake_wrapup_free_hs_transform 0x0800f30c   Section        0  ssl_tls.o(i.mbedtls_ssl_handshake_wrapup_free_hs_transform)
    i.mbedtls_ssl_hash_from_md_alg           0x0800f3c0   Section        0  ssl_tls.o(i.mbedtls_ssl_hash_from_md_alg)
    i.mbedtls_ssl_init                       0x0800f3ee   Section        0  ssl_tls.o(i.mbedtls_ssl_init)
    i.mbedtls_ssl_list_ciphersuites          0x0800f3fc   Section        0  ssl_ciphersuites.o(i.mbedtls_ssl_list_ciphersuites)
    i.mbedtls_ssl_optimize_checksum          0x0800f404   Section        0  ssl_tls.o(i.mbedtls_ssl_optimize_checksum)
    i.mbedtls_ssl_out_hdr_len                0x0800f480   Section        0  ssl_msg.o(i.mbedtls_ssl_out_hdr_len)
    mbedtls_ssl_out_hdr_len                  0x0800f481   Thumb Code    14  ssl_msg.o(i.mbedtls_ssl_out_hdr_len)
    i.mbedtls_ssl_own_cert                   0x0800f48e   Section        0  ssl_tls.o(i.mbedtls_ssl_own_cert)
    mbedtls_ssl_own_cert                     0x0800f48f   Thumb Code    32  ssl_tls.o(i.mbedtls_ssl_own_cert)
    i.mbedtls_ssl_own_key                    0x0800f4ae   Section        0  ssl_cli.o(i.mbedtls_ssl_own_key)
    mbedtls_ssl_own_key                      0x0800f4af   Thumb Code    32  ssl_cli.o(i.mbedtls_ssl_own_key)
    i.mbedtls_ssl_parse_certificate          0x0800f4d0   Section        0  ssl_tls.o(i.mbedtls_ssl_parse_certificate)
    i.mbedtls_ssl_parse_change_cipher_spec   0x0800f6b0   Section        0  ssl_msg.o(i.mbedtls_ssl_parse_change_cipher_spec)
    i.mbedtls_ssl_parse_finished             0x0800f820   Section        0  ssl_tls.o(i.mbedtls_ssl_parse_finished)
    i.mbedtls_ssl_prepare_handshake_record   0x0800f9f8   Section        0  ssl_msg.o(i.mbedtls_ssl_prepare_handshake_record)
    i.mbedtls_ssl_read                       0x0800fb24   Section        0  ssl_msg.o(i.mbedtls_ssl_read)
    i.mbedtls_ssl_read_record                0x0800fe60   Section        0  ssl_msg.o(i.mbedtls_ssl_read_record)
    i.mbedtls_ssl_read_version               0x0800ffcc   Section        0  ssl_msg.o(i.mbedtls_ssl_read_version)
    i.mbedtls_ssl_reset_in_out_pointers      0x0800ffd8   Section        0  ssl_msg.o(i.mbedtls_ssl_reset_in_out_pointers)
    i.mbedtls_ssl_send_alert_message         0x0800fffc   Section        0  ssl_msg.o(i.mbedtls_ssl_send_alert_message)
    i.mbedtls_ssl_session_free               0x08010118   Section        0  ssl_tls.o(i.mbedtls_ssl_session_free)
    i.mbedtls_ssl_session_init               0x08010132   Section        0  ssl_tls.o(i.mbedtls_ssl_session_init)
    i.mbedtls_ssl_set_bio                    0x08010140   Section        0  ssl_tls.o(i.mbedtls_ssl_set_bio)
    i.mbedtls_ssl_set_timer                  0x08010150   Section        0  ssl_msg.o(i.mbedtls_ssl_set_timer)
    i.mbedtls_ssl_setup                      0x080101b0   Section        0  ssl_tls.o(i.mbedtls_ssl_setup)
    i.mbedtls_ssl_sig_from_pk                0x080102a8   Section        0  ssl_tls.o(i.mbedtls_ssl_sig_from_pk)
    i.mbedtls_ssl_sig_hash_set_const_hash    0x080102be   Section        0  ssl_tls.o(i.mbedtls_ssl_sig_hash_set_const_hash)
    i.mbedtls_ssl_transform_free             0x080102c4   Section        0  ssl_msg.o(i.mbedtls_ssl_transform_free)
    i.mbedtls_ssl_transform_init             0x080102f8   Section        0  ssl_tls.o(i.mbedtls_ssl_transform_init)
    i.mbedtls_ssl_update_handshake_status    0x08010326   Section        0  ssl_msg.o(i.mbedtls_ssl_update_handshake_status)
    i.mbedtls_ssl_update_in_pointers         0x08010346   Section        0  ssl_msg.o(i.mbedtls_ssl_update_in_pointers)
    i.mbedtls_ssl_update_out_pointers        0x0801035e   Section        0  ssl_msg.o(i.mbedtls_ssl_update_out_pointers)
    i.mbedtls_ssl_write                      0x08010394   Section        0  ssl_msg.o(i.mbedtls_ssl_write)
    i.mbedtls_ssl_write_certificate          0x08010460   Section        0  ssl_tls.o(i.mbedtls_ssl_write_certificate)
    i.mbedtls_ssl_write_change_cipher_spec   0x08010690   Section        0  ssl_msg.o(i.mbedtls_ssl_write_change_cipher_spec)
    i.mbedtls_ssl_write_finished             0x08010774   Section        0  ssl_tls.o(i.mbedtls_ssl_write_finished)
    i.mbedtls_ssl_write_handshake_msg        0x080108e4   Section        0  ssl_msg.o(i.mbedtls_ssl_write_handshake_msg)
    i.mbedtls_ssl_write_record               0x08010a98   Section        0  ssl_msg.o(i.mbedtls_ssl_write_record)
    i.mbedtls_ssl_write_version              0x08010dc0   Section        0  ssl_msg.o(i.mbedtls_ssl_write_version)
    i.mbedtls_x509_crt_free                  0x08010dc8   Section        0  x509_crt.o(i.mbedtls_x509_crt_free)
    i.mbedtls_x509_crt_info                  0x08010eb4   Section        0  x509_crt.o(i.mbedtls_x509_crt_info)
    i.mbedtls_x509_crt_init                  0x080115a8   Section        0  x509_crt.o(i.mbedtls_x509_crt_init)
    i.mbedtls_x509_crt_parse_der_internal    0x080115b8   Section        0  x509_crt.o(i.mbedtls_x509_crt_parse_der_internal)
    mbedtls_x509_crt_parse_der_internal      0x080115b9   Thumb Code   156  x509_crt.o(i.mbedtls_x509_crt_parse_der_internal)
    i.mbedtls_x509_crt_parse_der_nocopy      0x08011658   Section        0  x509_crt.o(i.mbedtls_x509_crt_parse_der_nocopy)
    i.mbedtls_x509_crt_verify_restartable    0x08011674   Section        0  x509_crt.o(i.mbedtls_x509_crt_verify_restartable)
    i.mbedtls_x509_dn_gets                   0x080116a0   Section        0  x509.o(i.mbedtls_x509_dn_gets)
    i.mbedtls_x509_get_alg                   0x080117c4   Section        0  x509.o(i.mbedtls_x509_get_alg)
    i.mbedtls_x509_get_ext                   0x080117f4   Section        0  x509.o(i.mbedtls_x509_get_ext)
    i.mbedtls_x509_get_name                  0x0801185c   Section        0  x509.o(i.mbedtls_x509_get_name)
    i.mbedtls_x509_get_serial                0x080118e8   Section        0  x509.o(i.mbedtls_x509_get_serial)
    i.mbedtls_x509_get_sig                   0x0801194c   Section        0  x509.o(i.mbedtls_x509_get_sig)
    i.mbedtls_x509_get_sig_alg               0x0801199c   Section        0  x509.o(i.mbedtls_x509_get_sig_alg)
    i.mbedtls_x509_get_time                  0x080119f0   Section        0  x509.o(i.mbedtls_x509_get_time)
    i.mbedtls_x509_key_size_helper           0x08011a58   Section        0  x509.o(i.mbedtls_x509_key_size_helper)
    i.mbedtls_x509_parse_subject_alt_name    0x08011aa4   Section        0  x509_crt.o(i.mbedtls_x509_parse_subject_alt_name)
    i.mbedtls_x509_serial_gets               0x08011b10   Section        0  x509.o(i.mbedtls_x509_serial_gets)
    i.mbedtls_x509_sig_alg_gets              0x08011bcc   Section        0  x509.o(i.mbedtls_x509_sig_alg_gets)
    i.mbedtls_x509_time_is_future            0x08011c34   Section        0  x509.o(i.mbedtls_x509_time_is_future)
    i.mbedtls_x509_time_is_past              0x08011c3a   Section        0  x509.o(i.mbedtls_x509_time_is_past)
    i.mem_move_to_left                       0x08011c40   Section        0  rsa.o(i.mem_move_to_left)
    mem_move_to_left                         0x08011c41   Thumb Code    94  rsa.o(i.mem_move_to_left)
    i.mpi_bigendian_to_host                  0x08011c9e   Section        0  bignum.o(i.mpi_bigendian_to_host)
    mpi_bigendian_to_host                    0x08011c9f   Thumb Code    56  bignum.o(i.mpi_bigendian_to_host)
    i.mpi_montg_init                         0x08011cd6   Section        0  bignum.o(i.mpi_montg_init)
    mpi_montg_init                           0x08011cd7   Thumb Code    50  bignum.o(i.mpi_montg_init)
    i.mpi_montmul                            0x08011d08   Section        0  bignum.o(i.mpi_montmul)
    mpi_montmul                              0x08011d09   Thumb Code   188  bignum.o(i.mpi_montmul)
    i.mpi_montred                            0x08011dc4   Section        0  bignum.o(i.mpi_montred)
    mpi_montred                              0x08011dc5   Thumb Code    44  bignum.o(i.mpi_montred)
    i.mpi_mul_hlp                            0x08011df0   Section        0  bignum.o(i.mpi_mul_hlp)
    mpi_mul_hlp                              0x08011df1   Thumb Code  3358  bignum.o(i.mpi_mul_hlp)
    i.mpi_safe_cond_assign                   0x08012b0e   Section        0  bignum.o(i.mpi_safe_cond_assign)
    mpi_safe_cond_assign                     0x08012b0f   Thumb Code    38  bignum.o(i.mpi_safe_cond_assign)
    i.mpi_sub_hlp                            0x08012b34   Section        0  bignum.o(i.mpi_sub_hlp)
    mpi_sub_hlp                              0x08012b35   Thumb Code    68  bignum.o(i.mpi_sub_hlp)
    i.mpi_uint_bigendian_to_host             0x08012b78   Section        0  bignum.o(i.mpi_uint_bigendian_to_host)
    mpi_uint_bigendian_to_host               0x08012b79   Thumb Code    12  bignum.o(i.mpi_uint_bigendian_to_host)
    i.mpi_uint_bigendian_to_host_c           0x08012b84   Section        0  bignum.o(i.mpi_uint_bigendian_to_host_c)
    mpi_uint_bigendian_to_host_c             0x08012b85   Thumb Code    28  bignum.o(i.mpi_uint_bigendian_to_host_c)
    i.my_debug                               0x08012ba0   Section        0  main.o(i.my_debug)
    my_debug                                 0x08012ba1   Thumb Code    30  main.o(i.my_debug)
    i.net_recv                               0x08012bd0   Section        0  main.o(i.net_recv)
    i.net_send                               0x08012bd4   Section        0  main.o(i.net_send)
    i.oid_certificate_policies_from_asn1     0x08012bd8   Section        0  oid.o(i.oid_certificate_policies_from_asn1)
    oid_certificate_policies_from_asn1       0x08012bd9   Thumb Code    56  oid.o(i.oid_certificate_policies_from_asn1)
    i.oid_ext_key_usage_from_asn1            0x08012c14   Section        0  oid.o(i.oid_ext_key_usage_from_asn1)
    oid_ext_key_usage_from_asn1              0x08012c15   Thumb Code    56  oid.o(i.oid_ext_key_usage_from_asn1)
    i.oid_pk_alg_from_asn1                   0x08012c50   Section        0  oid.o(i.oid_pk_alg_from_asn1)
    oid_pk_alg_from_asn1                     0x08012c51   Thumb Code    56  oid.o(i.oid_pk_alg_from_asn1)
    i.oid_sig_alg_from_asn1                  0x08012c8c   Section        0  oid.o(i.oid_sig_alg_from_asn1)
    oid_sig_alg_from_asn1                    0x08012c8d   Thumb Code    56  oid.o(i.oid_sig_alg_from_asn1)
    i.oid_x509_ext_from_asn1                 0x08012cc8   Section        0  oid.o(i.oid_x509_ext_from_asn1)
    oid_x509_ext_from_asn1                   0x08012cc9   Thumb Code    56  oid.o(i.oid_x509_ext_from_asn1)
    i.oid_x520_attr_from_asn1                0x08012d04   Section        0  oid.o(i.oid_x520_attr_from_asn1)
    oid_x520_attr_from_asn1                  0x08012d05   Thumb Code    56  oid.o(i.oid_x520_attr_from_asn1)
    i.pk_get_pk_alg                          0x08012d40   Section        0  pkparse.o(i.pk_get_pk_alg)
    pk_get_pk_alg                            0x08012d41   Thumb Code    92  pkparse.o(i.pk_get_pk_alg)
    i.pk_get_rsapubkey                       0x08012da4   Section        0  pkparse.o(i.pk_get_rsapubkey)
    pk_get_rsapubkey                         0x08012da5   Thumb Code   226  pkparse.o(i.pk_get_rsapubkey)
    i.pk_hashlen_helper                      0x08012e8c   Section        0  pk.o(i.pk_hashlen_helper)
    pk_hashlen_helper                        0x08012e8d   Thumb Code    40  pk.o(i.pk_hashlen_helper)
    i.rsa_alloc_wrap                         0x08012eb4   Section        0  pk_wrap.o(i.rsa_alloc_wrap)
    rsa_alloc_wrap                           0x08012eb5   Thumb Code    28  pk_wrap.o(i.rsa_alloc_wrap)
    i.rsa_can_do                             0x08012ed0   Section        0  pk_wrap.o(i.rsa_can_do)
    rsa_can_do                               0x08012ed1   Thumb Code    18  pk_wrap.o(i.rsa_can_do)
    i.rsa_check_context                      0x08012ee4   Section        0  rsa.o(i.rsa_check_context)
    rsa_check_context                        0x08012ee5   Thumb Code   198  rsa.o(i.rsa_check_context)
    i.rsa_check_pair_wrap                    0x08012fb0   Section        0  pk_wrap.o(i.rsa_check_pair_wrap)
    rsa_check_pair_wrap                      0x08012fb1   Thumb Code    16  pk_wrap.o(i.rsa_check_pair_wrap)
    i.rsa_debug                              0x08012fc0   Section        0  pk_wrap.o(i.rsa_debug)
    rsa_debug                                0x08012fc1   Thumb Code    32  pk_wrap.o(i.rsa_debug)
    i.rsa_decrypt_wrap                       0x08012ff0   Section        0  pk_wrap.o(i.rsa_decrypt_wrap)
    rsa_decrypt_wrap                         0x08012ff1   Thumb Code    64  pk_wrap.o(i.rsa_decrypt_wrap)
    i.rsa_encrypt_wrap                       0x08013034   Section        0  pk_wrap.o(i.rsa_encrypt_wrap)
    rsa_encrypt_wrap                         0x08013035   Thumb Code    68  pk_wrap.o(i.rsa_encrypt_wrap)
    i.rsa_free_wrap                          0x0801307c   Section        0  pk_wrap.o(i.rsa_free_wrap)
    rsa_free_wrap                            0x0801307d   Thumb Code    18  pk_wrap.o(i.rsa_free_wrap)
    i.rsa_get_bitlen                         0x0801308e   Section        0  pk_wrap.o(i.rsa_get_bitlen)
    rsa_get_bitlen                           0x0801308f   Thumb Code    16  pk_wrap.o(i.rsa_get_bitlen)
    i.rsa_prepare_blinding                   0x080130a0   Section        0  rsa.o(i.rsa_prepare_blinding)
    rsa_prepare_blinding                     0x080130a1   Thumb Code   266  rsa.o(i.rsa_prepare_blinding)
    i.rsa_rsassa_pkcs1_v15_encode            0x080131b0   Section        0  rsa.o(i.rsa_rsassa_pkcs1_v15_encode)
    rsa_rsassa_pkcs1_v15_encode              0x080131b1   Thumb Code   320  rsa.o(i.rsa_rsassa_pkcs1_v15_encode)
    i.rsa_sign_wrap                          0x080132f4   Section        0  pk_wrap.o(i.rsa_sign_wrap)
    rsa_sign_wrap                            0x080132f5   Thumb Code    60  pk_wrap.o(i.rsa_sign_wrap)
    i.rsa_verify_wrap                        0x08013330   Section        0  pk_wrap.o(i.rsa_verify_wrap)
    rsa_verify_wrap                          0x08013331   Thumb Code    86  pk_wrap.o(i.rsa_verify_wrap)
    i.size_greater_than                      0x08013390   Section        0  rsa.o(i.size_greater_than)
    size_greater_than                        0x08013391   Thumb Code     8  rsa.o(i.size_greater_than)
    i.ssl_build_record_nonce                 0x08013398   Section        0  ssl_msg.o(i.ssl_build_record_nonce)
    ssl_build_record_nonce                   0x08013399   Thumb Code    64  ssl_msg.o(i.ssl_build_record_nonce)
    i.ssl_calc_finished_tls_sha256           0x080133d8   Section        0  ssl_tls.o(i.ssl_calc_finished_tls_sha256)
    ssl_calc_finished_tls_sha256             0x080133d9   Thumb Code   190  ssl_tls.o(i.ssl_calc_finished_tls_sha256)
    i.ssl_calc_finished_tls_sha384           0x08013538   Section        0  ssl_tls.o(i.ssl_calc_finished_tls_sha384)
    ssl_calc_finished_tls_sha384             0x08013539   Thumb Code   190  ssl_tls.o(i.ssl_calc_finished_tls_sha384)
    i.ssl_calc_verify_tls_sha256             0x0801369c   Section        0  ssl_tls.o(i.ssl_calc_verify_tls_sha256)
    ssl_calc_verify_tls_sha256               0x0801369d   Thumb Code   110  ssl_tls.o(i.ssl_calc_verify_tls_sha256)
    i.ssl_calc_verify_tls_sha384             0x08013770   Section        0  ssl_tls.o(i.ssl_calc_verify_tls_sha384)
    ssl_calc_verify_tls_sha384               0x08013771   Thumb Code   110  ssl_tls.o(i.ssl_calc_verify_tls_sha384)
    i.ssl_check_record_type                  0x08013844   Section        0  ssl_msg.o(i.ssl_check_record_type)
    ssl_check_record_type                    0x08013845   Thumb Code    26  ssl_msg.o(i.ssl_check_record_type)
    i.ssl_clear_peer_cert                    0x08013864   Section        0  ssl_tls.o(i.ssl_clear_peer_cert)
    ssl_clear_peer_cert                      0x08013865   Thumb Code    26  ssl_tls.o(i.ssl_clear_peer_cert)
    i.ssl_compute_master                     0x08013880   Section        0  ssl_tls.o(i.ssl_compute_master)
    ssl_compute_master                       0x08013881   Thumb Code   158  ssl_tls.o(i.ssl_compute_master)
    i.ssl_consume_current_message            0x08013988   Section        0  ssl_msg.o(i.ssl_consume_current_message)
    ssl_consume_current_message              0x08013989   Thumb Code   130  ssl_msg.o(i.ssl_consume_current_message)
    i.ssl_extract_add_data_from_record       0x08013a60   Section        0  ssl_msg.o(i.ssl_extract_add_data_from_record)
    ssl_extract_add_data_from_record         0x08013a61   Thumb Code    48  ssl_msg.o(i.ssl_extract_add_data_from_record)
    i.ssl_generate_random                    0x08013a90   Section        0  ssl_cli.o(i.ssl_generate_random)
    ssl_generate_random                      0x08013a91   Thumb Code    92  ssl_cli.o(i.ssl_generate_random)
    i.ssl_get_hs_total_len                   0x08013b2c   Section        0  ssl_msg.o(i.ssl_get_hs_total_len)
    ssl_get_hs_total_len                     0x08013b2d   Thumb Code    24  ssl_msg.o(i.ssl_get_hs_total_len)
    i.ssl_get_next_record                    0x08013b44   Section        0  ssl_msg.o(i.ssl_get_next_record)
    ssl_get_next_record                      0x08013b45   Thumb Code   186  ssl_msg.o(i.ssl_get_next_record)
    i.ssl_handshake_init                     0x08013c38   Section        0  ssl_tls.o(i.ssl_handshake_init)
    ssl_handshake_init                       0x08013c39   Thumb Code   160  ssl_tls.o(i.ssl_handshake_init)
    i.ssl_handshake_params_init              0x08013d20   Section        0  ssl_tls.o(i.ssl_handshake_params_init)
    ssl_handshake_params_init                0x08013d21   Thumb Code    78  ssl_tls.o(i.ssl_handshake_params_init)
    i.ssl_int                                0x08013d74   Section        0  main.o(i.ssl_int)
    i.ssl_key_cert_free                      0x08013f3c   Section        0  ssl_tls.o(i.ssl_key_cert_free)
    ssl_key_cert_free                        0x08013f3d   Thumb Code    24  ssl_tls.o(i.ssl_key_cert_free)
    i.ssl_parse_certificate_chain            0x08013f54   Section        0  ssl_tls.o(i.ssl_parse_certificate_chain)
    ssl_parse_certificate_chain              0x08013f55   Thumb Code   456  ssl_tls.o(i.ssl_parse_certificate_chain)
    i.ssl_parse_certificate_coordinate       0x0801418c   Section        0  ssl_tls.o(i.ssl_parse_certificate_coordinate)
    ssl_parse_certificate_coordinate         0x0801418d   Thumb Code    28  ssl_tls.o(i.ssl_parse_certificate_coordinate)
    i.ssl_parse_certificate_request          0x080141a8   Section        0  ssl_cli.o(i.ssl_parse_certificate_request)
    ssl_parse_certificate_request            0x080141a9   Thumb Code   576  ssl_cli.o(i.ssl_parse_certificate_request)
    i.ssl_parse_certificate_verify           0x080144fc   Section        0  ssl_tls.o(i.ssl_parse_certificate_verify)
    ssl_parse_certificate_verify             0x080144fd   Thumb Code   496  ssl_tls.o(i.ssl_parse_certificate_verify)
    i.ssl_parse_record_header                0x08014808   Section        0  ssl_msg.o(i.ssl_parse_record_header)
    ssl_parse_record_header                  0x08014809   Thumb Code   316  ssl_msg.o(i.ssl_parse_record_header)
    i.ssl_parse_renegotiation_info           0x08014a04   Section        0  ssl_cli.o(i.ssl_parse_renegotiation_info)
    ssl_parse_renegotiation_info             0x08014a05   Thumb Code    58  ssl_cli.o(i.ssl_parse_renegotiation_info)
    i.ssl_parse_server_hello                 0x08014a88   Section        0  ssl_cli.o(i.ssl_parse_server_hello)
    ssl_parse_server_hello                   0x08014a89   Thumb Code  2028  ssl_cli.o(i.ssl_parse_server_hello)
    i.ssl_parse_server_hello_done            0x0801535c   Section        0  ssl_cli.o(i.ssl_parse_server_hello_done)
    ssl_parse_server_hello_done              0x0801535d   Thumb Code   170  ssl_cli.o(i.ssl_parse_server_hello_done)
    i.ssl_parse_server_key_exchange          0x080154a0   Section        0  ssl_cli.o(i.ssl_parse_server_key_exchange)
    ssl_parse_server_key_exchange            0x080154a1   Thumb Code   304  ssl_cli.o(i.ssl_parse_server_key_exchange)
    i.ssl_populate_transform                 0x080156ec   Section        0  ssl_tls.o(i.ssl_populate_transform)
    ssl_populate_transform                   0x080156ed   Thumb Code  1404  ssl_tls.o(i.ssl_populate_transform)
    i.ssl_prepare_record_content             0x08015c68   Section        0  ssl_msg.o(i.ssl_prepare_record_content)
    ssl_prepare_record_content               0x08015c69   Thumb Code   348  ssl_msg.o(i.ssl_prepare_record_content)
    i.ssl_read_memory                        0x08015f00   Section        0  ssl_msg.o(i.ssl_read_memory)
    ssl_read_memory                          0x08015f01   Thumb Code    26  ssl_msg.o(i.ssl_read_memory)
    i.ssl_record_is_in_progress              0x08015f1a   Section        0  ssl_msg.o(i.ssl_record_is_in_progress)
    ssl_record_is_in_progress                0x08015f1b   Thumb Code    14  ssl_msg.o(i.ssl_record_is_in_progress)
    i.ssl_remember_peer_crt_digest           0x08015f28   Section        0  ssl_tls.o(i.ssl_remember_peer_crt_digest)
    ssl_remember_peer_crt_digest             0x08015f29   Thumb Code   112  ssl_tls.o(i.ssl_remember_peer_crt_digest)
    i.ssl_remember_peer_pubkey               0x08015fd4   Section        0  ssl_tls.o(i.ssl_remember_peer_pubkey)
    ssl_remember_peer_pubkey                 0x08015fd5   Thumb Code    50  ssl_tls.o(i.ssl_remember_peer_pubkey)
    i.ssl_set_handshake_prfs                 0x0801600c   Section        0  ssl_tls.o(i.ssl_set_handshake_prfs)
    ssl_set_handshake_prfs                   0x0801600d   Thumb Code    62  ssl_tls.o(i.ssl_set_handshake_prfs)
    i.ssl_transform_aead_dynamic_iv_is_explicit 0x08016068   Section        0  ssl_msg.o(i.ssl_transform_aead_dynamic_iv_is_explicit)
    ssl_transform_aead_dynamic_iv_is_explicit 0x08016069   Thumb Code    18  ssl_msg.o(i.ssl_transform_aead_dynamic_iv_is_explicit)
    i.ssl_transform_get_explicit_iv_len      0x0801607a   Section        0  ssl_msg.o(i.ssl_transform_get_explicit_iv_len)
    ssl_transform_get_explicit_iv_len        0x0801607b   Thumb Code    22  ssl_msg.o(i.ssl_transform_get_explicit_iv_len)
    i.ssl_update_checksum_sha256             0x08016090   Section        0  ssl_tls.o(i.ssl_update_checksum_sha256)
    ssl_update_checksum_sha256               0x08016091   Thumb Code    24  ssl_tls.o(i.ssl_update_checksum_sha256)
    i.ssl_update_checksum_sha384             0x080160a8   Section        0  ssl_tls.o(i.ssl_update_checksum_sha384)
    ssl_update_checksum_sha384               0x080160a9   Thumb Code    24  ssl_tls.o(i.ssl_update_checksum_sha384)
    i.ssl_update_checksum_start              0x080160c0   Section        0  ssl_tls.o(i.ssl_update_checksum_start)
    ssl_update_checksum_start                0x080160c1   Thumb Code    38  ssl_tls.o(i.ssl_update_checksum_start)
    i.ssl_validate_ciphersuite               0x080160e6   Section        0  ssl_cli.o(i.ssl_validate_ciphersuite)
    ssl_validate_ciphersuite                 0x080160e7   Thumb Code    30  ssl_cli.o(i.ssl_validate_ciphersuite)
    i.ssl_write_certificate_verify           0x08016104   Section        0  ssl_cli.o(i.ssl_write_certificate_verify)
    ssl_write_certificate_verify             0x08016105   Thumb Code   508  ssl_cli.o(i.ssl_write_certificate_verify)
    i.ssl_write_client_hello                 0x08016408   Section        0  ssl_cli.o(i.ssl_write_client_hello)
    ssl_write_client_hello                   0x08016409   Thumb Code  1580  ssl_cli.o(i.ssl_write_client_hello)
    i.ssl_write_client_key_exchange          0x08016a34   Section        0  ssl_cli.o(i.ssl_write_client_key_exchange)
    ssl_write_client_key_exchange            0x08016a35   Thumb Code   166  ssl_cli.o(i.ssl_write_client_key_exchange)
    i.ssl_write_encrypted_pms                0x08016b74   Section        0  ssl_cli.o(i.ssl_write_encrypted_pms)
    ssl_write_encrypted_pms                  0x08016b75   Thumb Code   304  ssl_cli.o(i.ssl_write_encrypted_pms)
    i.ssl_write_real                         0x08016d34   Section        0  ssl_msg.o(i.ssl_write_real)
    ssl_write_real                           0x08016d35   Thumb Code   156  ssl_msg.o(i.ssl_write_real)
    i.ssl_write_signature_algorithms_ext     0x08016e50   Section        0  ssl_cli.o(i.ssl_write_signature_algorithms_ext)
    ssl_write_signature_algorithms_ext       0x08016e51   Thumb Code   222  ssl_cli.o(i.ssl_write_signature_algorithms_ext)
    i.time                                   0x08016fc0   Section        0  main.o(i.time)
    i.tls_prf_generic                        0x08016fcc   Section        0  ssl_tls.o(i.tls_prf_generic)
    tls_prf_generic                          0x08016fcd   Thumb Code   306  ssl_tls.o(i.tls_prf_generic)
    i.tls_prf_sha256                         0x08017108   Section        0  ssl_tls.o(i.tls_prf_sha256)
    tls_prf_sha256                           0x08017109   Thumb Code    42  ssl_tls.o(i.tls_prf_sha256)
    i.tls_prf_sha384                         0x08017132   Section        0  ssl_tls.o(i.tls_prf_sha384)
    tls_prf_sha384                           0x08017133   Thumb Code    42  ssl_tls.o(i.tls_prf_sha384)
    i.uart_init                              0x0801715c   Section        0  usart.o(i.uart_init)
    i.x509_check_wildcard                    0x080171e0   Section        0  x509_crt.o(i.x509_check_wildcard)
    x509_check_wildcard                      0x080171e1   Thumb Code   116  x509_crt.o(i.x509_check_wildcard)
    i.x509_crt_check_cn                      0x08017254   Section        0  x509_crt.o(i.x509_crt_check_cn)
    x509_crt_check_cn                        0x08017255   Thumb Code    50  x509_crt.o(i.x509_crt_check_cn)
    i.x509_crt_check_ee_locally_trusted      0x08017286   Section        0  x509_crt.o(i.x509_crt_check_ee_locally_trusted)
    x509_crt_check_ee_locally_trusted        0x08017287   Thumb Code    66  x509_crt.o(i.x509_crt_check_ee_locally_trusted)
    i.x509_crt_check_parent                  0x080172c8   Section        0  x509_crt.o(i.x509_crt_check_parent)
    x509_crt_check_parent                    0x080172c9   Thumb Code    62  x509_crt.o(i.x509_crt_check_parent)
    i.x509_crt_check_signature               0x08017306   Section        0  x509_crt.o(i.x509_crt_check_signature)
    x509_crt_check_signature                 0x08017307   Thumb Code   118  x509_crt.o(i.x509_crt_check_signature)
    i.x509_crt_find_parent                   0x0801737c   Section        0  x509_crt.o(i.x509_crt_find_parent)
    x509_crt_find_parent                     0x0801737d   Thumb Code   102  x509_crt.o(i.x509_crt_find_parent)
    i.x509_crt_find_parent_in                0x080173e2   Section        0  x509_crt.o(i.x509_crt_find_parent_in)
    x509_crt_find_parent_in                  0x080173e3   Thumb Code   174  x509_crt.o(i.x509_crt_find_parent_in)
    i.x509_crt_merge_flags_with_cb           0x08017490   Section        0  x509_crt.o(i.x509_crt_merge_flags_with_cb)
    x509_crt_merge_flags_with_cb             0x08017491   Thumb Code    76  x509_crt.o(i.x509_crt_merge_flags_with_cb)
    i.x509_crt_parse_der_core                0x080174dc   Section        0  x509_crt.o(i.x509_crt_parse_der_core)
    x509_crt_parse_der_core                  0x080174dd   Thumb Code   828  x509_crt.o(i.x509_crt_parse_der_core)
    i.x509_crt_verify_chain                  0x08017828   Section        0  x509_crt.o(i.x509_crt_verify_chain)
    x509_crt_verify_chain                    0x08017829   Thumb Code   298  x509_crt.o(i.x509_crt_verify_chain)
    i.x509_crt_verify_chain_reset            0x08017958   Section        0  x509_crt.o(i.x509_crt_verify_chain_reset)
    x509_crt_verify_chain_reset              0x08017959   Thumb Code    30  x509_crt.o(i.x509_crt_verify_chain_reset)
    i.x509_crt_verify_name                   0x08017978   Section        0  x509_crt.o(i.x509_crt_verify_name)
    x509_crt_verify_name                     0x08017979   Thumb Code   138  x509_crt.o(i.x509_crt_verify_name)
    i.x509_crt_verify_restartable_ca_cb      0x08017a08   Section        0  x509_crt.o(i.x509_crt_verify_restartable_ca_cb)
    x509_crt_verify_restartable_ca_cb        0x08017a09   Thumb Code   196  x509_crt.o(i.x509_crt_verify_restartable_ca_cb)
    i.x509_date_is_valid                     0x08017ad8   Section        0  x509.o(i.x509_date_is_valid)
    x509_date_is_valid                       0x08017ad9   Thumb Code   224  x509.o(i.x509_date_is_valid)
    i.x509_get_attr_type_value               0x08017bbc   Section        0  x509.o(i.x509_get_attr_type_value)
    x509_get_attr_type_value                 0x08017bbd   Thumb Code   250  x509.o(i.x509_get_attr_type_value)
    i.x509_get_basic_constraints             0x08017cbc   Section        0  x509_crt.o(i.x509_get_basic_constraints)
    x509_get_basic_constraints               0x08017cbd   Thumb Code   176  x509_crt.o(i.x509_get_basic_constraints)
    i.x509_get_certificate_policies          0x08017d70   Section        0  x509_crt.o(i.x509_get_certificate_policies)
    x509_get_certificate_policies            0x08017d71   Thumb Code   298  x509_crt.o(i.x509_get_certificate_policies)
    i.x509_get_crt_ext                       0x08017eac   Section        0  x509_crt.o(i.x509_get_crt_ext)
    x509_get_crt_ext                         0x08017ead   Thumb Code   560  x509_crt.o(i.x509_get_crt_ext)
    i.x509_get_dates                         0x080180e4   Section        0  x509_crt.o(i.x509_get_dates)
    x509_get_dates                           0x080180e5   Thumb Code    96  x509_crt.o(i.x509_get_dates)
    i.x509_get_ext_key_usage                 0x08018148   Section        0  x509_crt.o(i.x509_get_ext_key_usage)
    x509_get_ext_key_usage                   0x08018149   Thumb Code    50  x509_crt.o(i.x509_get_ext_key_usage)
    i.x509_get_key_usage                     0x08018180   Section        0  x509_crt.o(i.x509_get_key_usage)
    x509_get_key_usage                       0x08018181   Thumb Code    92  x509_crt.o(i.x509_get_key_usage)
    i.x509_get_ns_cert_type                  0x080181e0   Section        0  x509_crt.o(i.x509_get_ns_cert_type)
    x509_get_ns_cert_type                    0x080181e1   Thumb Code    60  x509_crt.o(i.x509_get_ns_cert_type)
    i.x509_get_other_name                    0x08018220   Section        0  x509_crt.o(i.x509_get_other_name)
    x509_get_other_name                      0x08018221   Thumb Code   302  x509_crt.o(i.x509_get_other_name)
    i.x509_get_subject_alt_name              0x08018368   Section        0  x509_crt.o(i.x509_get_subject_alt_name)
    x509_get_subject_alt_name                0x08018369   Thumb Code   262  x509_crt.o(i.x509_get_subject_alt_name)
    i.x509_get_uid                           0x08018474   Section        0  x509_crt.o(i.x509_get_uid)
    x509_get_uid                             0x08018475   Thumb Code    86  x509_crt.o(i.x509_get_uid)
    i.x509_get_version                       0x080184cc   Section        0  x509_crt.o(i.x509_get_version)
    x509_get_version                         0x080184cd   Thumb Code    86  x509_crt.o(i.x509_get_version)
    i.x509_info_cert_policies                0x08018528   Section        0  x509_crt.o(i.x509_info_cert_policies)
    x509_info_cert_policies                  0x08018529   Thumb Code   106  x509_crt.o(i.x509_info_cert_policies)
    i.x509_info_cert_type                    0x080185ac   Section        0  x509_crt.o(i.x509_info_cert_type)
    x509_info_cert_type                      0x080185ad   Thumb Code   392  x509_crt.o(i.x509_info_cert_type)
    i.x509_info_ext_key_usage                0x080187b4   Section        0  x509_crt.o(i.x509_info_ext_key_usage)
    x509_info_ext_key_usage                  0x080187b5   Thumb Code   106  x509_crt.o(i.x509_info_ext_key_usage)
    i.x509_info_key_usage                    0x08018838   Section        0  x509_crt.o(i.x509_info_key_usage)
    x509_info_key_usage                      0x08018839   Thumb Code   436  x509_crt.o(i.x509_info_key_usage)
    i.x509_info_subject_alt_name             0x08018a94   Section        0  x509_crt.o(i.x509_info_subject_alt_name)
    x509_info_subject_alt_name               0x08018a95   Thumb Code   518  x509_crt.o(i.x509_info_subject_alt_name)
    i.x509_memcasecmp                        0x08018d7c   Section        0  x509_crt.o(i.x509_memcasecmp)
    x509_memcasecmp                          0x08018d7d   Thumb Code    76  x509_crt.o(i.x509_memcasecmp)
    i.x509_name_cmp                          0x08018dc8   Section        0  x509_crt.o(i.x509_name_cmp)
    x509_name_cmp                            0x08018dc9   Thumb Code   102  x509_crt.o(i.x509_name_cmp)
    i.x509_parse_int                         0x08018e30   Section        0  x509.o(i.x509_parse_int)
    x509_parse_int                           0x08018e31   Thumb Code    66  x509.o(i.x509_parse_int)
    i.x509_parse_time                        0x08018e78   Section        0  x509.o(i.x509_parse_time)
    x509_parse_time                          0x08018e79   Thumb Code   246  x509.o(i.x509_parse_time)
    i.x509_profile_check_key                 0x08018f74   Section        0  x509_crt.o(i.x509_profile_check_key)
    x509_profile_check_key                   0x08018f75   Thumb Code    50  x509_crt.o(i.x509_profile_check_key)
    i.x509_profile_check_md_alg              0x08018fa6   Section        0  x509_crt.o(i.x509_profile_check_md_alg)
    x509_profile_check_md_alg                0x08018fa7   Thumb Code    34  x509_crt.o(i.x509_profile_check_md_alg)
    i.x509_profile_check_pk_alg              0x08018fc8   Section        0  x509_crt.o(i.x509_profile_check_pk_alg)
    x509_profile_check_pk_alg                0x08018fc9   Thumb Code    34  x509_crt.o(i.x509_profile_check_pk_alg)
    i.x509_string_cmp                        0x08018fea   Section        0  x509_crt.o(i.x509_string_cmp)
    x509_string_cmp                          0x08018feb   Thumb Code    92  x509_crt.o(i.x509_string_cmp)
    .constdata                               0x08019048   Section     8744  aes.o(.constdata)
    FSb                                      0x08019048   Data         256  aes.o(.constdata)
    FT0                                      0x08019148   Data        1024  aes.o(.constdata)
    FT1                                      0x08019548   Data        1024  aes.o(.constdata)
    FT2                                      0x08019948   Data        1024  aes.o(.constdata)
    FT3                                      0x08019d48   Data        1024  aes.o(.constdata)
    RSb                                      0x0801a148   Data         256  aes.o(.constdata)
    RT0                                      0x0801a248   Data        1024  aes.o(.constdata)
    RT1                                      0x0801a648   Data        1024  aes.o(.constdata)
    RT2                                      0x0801aa48   Data        1024  aes.o(.constdata)
    RT3                                      0x0801ae48   Data        1024  aes.o(.constdata)
    RCON                                     0x0801b248   Data          40  aes.o(.constdata)
    .constdata                               0x0801b270   Section      388  cipher_wrap.o(.constdata)
    aes_info                                 0x0801b270   Data          28  cipher_wrap.o(.constdata)
    aes_128_ecb_info                         0x0801b28c   Data          28  cipher_wrap.o(.constdata)
    aes_192_ecb_info                         0x0801b2a8   Data          28  cipher_wrap.o(.constdata)
    aes_256_ecb_info                         0x0801b2c4   Data          28  cipher_wrap.o(.constdata)
    aes_128_cbc_info                         0x0801b2e0   Data          28  cipher_wrap.o(.constdata)
    aes_192_cbc_info                         0x0801b2fc   Data          28  cipher_wrap.o(.constdata)
    aes_256_cbc_info                         0x0801b318   Data          28  cipher_wrap.o(.constdata)
    gcm_aes_info                             0x0801b334   Data          28  cipher_wrap.o(.constdata)
    aes_128_gcm_info                         0x0801b350   Data          28  cipher_wrap.o(.constdata)
    aes_192_gcm_info                         0x0801b36c   Data          28  cipher_wrap.o(.constdata)
    aes_256_gcm_info                         0x0801b388   Data          28  cipher_wrap.o(.constdata)
    .constdata                               0x0801b3f8   Section      128  gcm.o(.constdata)
    last4                                    0x0801b3f8   Data         128  gcm.o(.constdata)
    .constdata                               0x0801b478   Section       76  md.o(.constdata)
    supported_digests                        0x0801b4a8   Data          28  md.o(.constdata)
    .constdata                               0x0801b4c4   Section     1280  oid.o(.constdata)
    oid_x520_attr_type                       0x0801b4c4   Data         400  oid.o(.constdata)
    oid_x509_ext                             0x0801b654   Data         140  oid.o(.constdata)
    oid_ext_key_usage                        0x0801b6e0   Data         128  oid.o(.constdata)
    oid_certificate_policies                 0x0801b760   Data          32  oid.o(.constdata)
    oid_sig_alg                              0x0801b780   Data         180  oid.o(.constdata)
    oid_pk_alg                               0x0801b834   Data          80  oid.o(.constdata)
    oid_cipher_alg                           0x0801b884   Data          60  oid.o(.constdata)
    oid_md_alg                               0x0801b8c0   Data         140  oid.o(.constdata)
    oid_md_hmac                              0x0801b94c   Data         120  oid.o(.constdata)
    .constdata                               0x0801b9c4   Section       48  pk_wrap.o(.constdata)
    .constdata                               0x0801b9f4   Section      256  sha256.o(.constdata)
    K                                        0x0801b9f4   Data         256  sha256.o(.constdata)
    .constdata                               0x0801baf8   Section      640  sha512.o(.constdata)
    K                                        0x0801baf8   Data         640  sha512.o(.constdata)
    .constdata                               0x0801bd78   Section      232  ssl_ciphersuites.o(.constdata)
    ciphersuite_preference                   0x0801bd78   Data           8  ssl_ciphersuites.o(.constdata)
    ciphersuite_definitions                  0x0801bd80   Data         224  ssl_ciphersuites.o(.constdata)
    .constdata                               0x0801be60   Section      216  x509_crt.o(.constdata)
    x509_crt_verify_strings                  0x0801be90   Data         168  x509_crt.o(.constdata)
    .conststring                             0x0801bf38   Section       12  main.o(.conststring)
    .conststring                             0x0801bf44   Section      108  cipher_wrap.o(.conststring)
    .conststring                             0x0801bfb0   Section        4  md.o(.conststring)
    .conststring                             0x0801bfb4   Section     2523  oid.o(.conststring)
    .conststring                             0x0801c990   Section      193  ssl_ciphersuites.o(.conststring)
    .conststring                             0x0801ca54   Section      164  ssl_cli.o(.conststring)
    .conststring                             0x0801caf8   Section      152  ssl_msg.o(.conststring)
    .conststring                             0x0801cb90   Section     1030  x509_crt.o(.conststring)
    .conststrlit                             0x0801cf98   Section        5  oid.o(.conststrlit)
    .data                                    0x20000000   Section       20  main.o(.data)
    .data                                    0x20000014   Section        8  delay.o(.data)
    .data                                    0x2000001c   Section       18  usart.o(.data)
    flage                                    0x2000002d   Data           1  usart.o(.data)
    .data                                    0x20000030   Section       20  system_stm32f10x.o(.data)
    .data                                    0x20000044   Section       20  stm32f10x_rcc.o(.data)
    APBAHBPrescTable                         0x20000044   Data          16  stm32f10x_rcc.o(.data)
    ADCPrescTable                            0x20000054   Data           4  stm32f10x_rcc.o(.data)
    .data                                    0x20000058   Section        4  debug.o(.data)
    debug_threshold                          0x20000058   Data           4  debug.o(.data)
    .data                                    0x2000005c   Section        4  platform_util.o(.data)
    memset_func                              0x2000005c   Data           4  platform_util.o(.data)
    .data                                    0x20000060   Section       52  ssl_tls.o(.data)
    ssl_serialized_session_header            0x20000060   Data           5  ssl_tls.o(.data)
    ssl_preset_default_hashes                0x20000068   Data          20  ssl_tls.o(.data)
    ssl_preset_suiteb_ciphersuites           0x2000007c   Data          12  ssl_tls.o(.data)
    ssl_preset_suiteb_hashes                 0x20000088   Data          12  ssl_tls.o(.data)
    .data                                    0x20000094   Section        4  stdout.o(.data)
    .data                                    0x20000098   Section        4  rand.o(.data)
    _rand_state                              0x20000098   Data           4  rand.o(.data)
    .data                                    0x2000009c   Section        4  mvars.o(.data)
    .data                                    0x200000a0   Section        4  mvars.o(.data)
    .bss                                     0x200000a8   Section     5232  main.o(.bss)
    .bss                                     0x20001518   Section      150  usart.o(.bss)
    HEAP                                     0x200015b0   Section    40960  startup_stm32f10x_hd.o(HEAP)
    STACK                                    0x2000b5b0   Section     1024  startup_stm32f10x_hd.o(STACK)

    Global Symbols

    Symbol Name                              Value     Ov Type        Size  Object(Section)

    BuildAttributes$$THM_ISAv4$P$D$K$B$S$PE$A:L22UL41UL21$X:L11$S22US41US21$IEEE1$IW$USESV6$~STKCKD$USESV7$~SHL$OSPACE$ROPI$EBA8$MICROLIB$REQ8$PRES8$EABIv2 0x00000000   Number         0  anon$$obj.o ABSOLUTE
    __ARM_use_no_argv                        0x00000000   Number         0  main.o ABSOLUTE
    _printf_a                                0x00000000   Number         0  stubs.o ABSOLUTE
    _printf_c                                0x00000000   Number         0  stubs.o ABSOLUTE
    _printf_charcount                        0x00000000   Number         0  stubs.o ABSOLUTE
    _printf_d                                0x00000000   Number         0  stubs.o ABSOLUTE
    _printf_e                                0x00000000   Number         0  stubs.o ABSOLUTE
    _printf_f                                0x00000000   Number         0  stubs.o ABSOLUTE
    _printf_flags                            0x00000000   Number         0  stubs.o ABSOLUTE
    _printf_fp_dec                           0x00000000   Number         0  stubs.o ABSOLUTE
    _printf_fp_hex                           0x00000000   Number         0  stubs.o ABSOLUTE
    _printf_g                                0x00000000   Number         0  stubs.o ABSOLUTE
    _printf_i                                0x00000000   Number         0  stubs.o ABSOLUTE
    _printf_int_dec                          0x00000000   Number         0  stubs.o ABSOLUTE
    _printf_l                                0x00000000   Number         0  stubs.o ABSOLUTE
    _printf_lc                               0x00000000   Number         0  stubs.o ABSOLUTE
    _printf_ll                               0x00000000   Number         0  stubs.o ABSOLUTE
    _printf_lld                              0x00000000   Number         0  stubs.o ABSOLUTE
    _printf_lli                              0x00000000   Number         0  stubs.o ABSOLUTE
    _printf_llo                              0x00000000   Number         0  stubs.o ABSOLUTE
    _printf_llu                              0x00000000   Number         0  stubs.o ABSOLUTE
    _printf_llx                              0x00000000   Number         0  stubs.o ABSOLUTE
    _printf_longlong_dec                     0x00000000   Number         0  stubs.o ABSOLUTE
    _printf_longlong_hex                     0x00000000   Number         0  stubs.o ABSOLUTE
    _printf_longlong_oct                     0x00000000   Number         0  stubs.o ABSOLUTE
    _printf_ls                               0x00000000   Number         0  stubs.o ABSOLUTE
    _printf_mbtowc                           0x00000000   Number         0  stubs.o ABSOLUTE
    _printf_n                                0x00000000   Number         0  stubs.o ABSOLUTE
    _printf_o                                0x00000000   Number         0  stubs.o ABSOLUTE
    _printf_p                                0x00000000   Number         0  stubs.o ABSOLUTE
    _printf_percent                          0x00000000   Number         0  stubs.o ABSOLUTE
    _printf_pre_padding                      0x00000000   Number         0  stubs.o ABSOLUTE
    _printf_return_value                     0x00000000   Number         0  stubs.o ABSOLUTE
    _printf_s                                0x00000000   Number         0  stubs.o ABSOLUTE
    _printf_sizespec                         0x00000000   Number         0  stubs.o ABSOLUTE
    _printf_str                              0x00000000   Number         0  stubs.o ABSOLUTE
    _printf_truncate_signed                  0x00000000   Number         0  stubs.o ABSOLUTE
    _printf_truncate_unsigned                0x00000000   Number         0  stubs.o ABSOLUTE
    _printf_u                                0x00000000   Number         0  stubs.o ABSOLUTE
    _printf_wc                               0x00000000   Number         0  stubs.o ABSOLUTE
    _printf_wctomb                           0x00000000   Number         0  stubs.o ABSOLUTE
    _printf_widthprec                        0x00000000   Number         0  stubs.o ABSOLUTE
    _printf_x                                0x00000000   Number         0  stubs.o ABSOLUTE
    __cpp_initialize__aeabi_                  - Undefined Weak Reference
    __cxa_finalize                            - Undefined Weak Reference
    __decompress                              - Undefined Weak Reference
    _clock_init                               - Undefined Weak Reference
    _microlib_exit                            - Undefined Weak Reference
    __Vectors_Size                           0x00000130   Number         0  startup_stm32f10x_hd.o ABSOLUTE
    __Vectors                                0x08000000   Data           4  startup_stm32f10x_hd.o(RESET)
    __Vectors_End                            0x08000130   Data           0  startup_stm32f10x_hd.o(RESET)
    __main                                   0x08000131   Thumb Code     0  entry.o(.ARM.Collect$$$$00000000)
    _main_stk                                0x08000131   Thumb Code     0  entry2.o(.ARM.Collect$$$$00000001)
    _main_scatterload                        0x08000135   Thumb Code     0  entry5.o(.ARM.Collect$$$$00000004)
    __main_after_scatterload                 0x08000139   Thumb Code     0  entry5.o(.ARM.Collect$$$$00000004)
    _main_clock                              0x08000139   Thumb Code     0  entry7b.o(.ARM.Collect$$$$00000008)
    _main_cpp_init                           0x08000139   Thumb Code     0  entry8b.o(.ARM.Collect$$$$0000000A)
    _main_init                               0x08000139   Thumb Code     0  entry9a.o(.ARM.Collect$$$$0000000B)
    __rt_final_cpp                           0x08000141   Thumb Code     0  entry10a.o(.ARM.Collect$$$$0000000D)
    __rt_final_exit                          0x08000141   Thumb Code     0  entry11a.o(.ARM.Collect$$$$0000000F)
    Reset_Handler                            0x08000145   Thumb Code     8  startup_stm32f10x_hd.o(.text)
    ADC1_2_IRQHandler                        0x0800015f   Thumb Code     0  startup_stm32f10x_hd.o(.text)
    ADC3_IRQHandler                          0x0800015f   Thumb Code     0  startup_stm32f10x_hd.o(.text)
    CAN1_RX1_IRQHandler                      0x0800015f   Thumb Code     0  startup_stm32f10x_hd.o(.text)
    CAN1_SCE_IRQHandler                      0x0800015f   Thumb Code     0  startup_stm32f10x_hd.o(.text)
    DMA1_Channel1_IRQHandler                 0x0800015f   Thumb Code     0  startup_stm32f10x_hd.o(.text)
    DMA1_Channel2_IRQHandler                 0x0800015f   Thumb Code     0  startup_stm32f10x_hd.o(.text)
    DMA1_Channel3_IRQHandler                 0x0800015f   Thumb Code     0  startup_stm32f10x_hd.o(.text)
    DMA1_Channel4_IRQHandler                 0x0800015f   Thumb Code     0  startup_stm32f10x_hd.o(.text)
    DMA1_Channel5_IRQHandler                 0x0800015f   Thumb Code     0  startup_stm32f10x_hd.o(.text)
    DMA1_Channel6_IRQHandler                 0x0800015f   Thumb Code     0  startup_stm32f10x_hd.o(.text)
    DMA1_Channel7_IRQHandler                 0x0800015f   Thumb Code     0  startup_stm32f10x_hd.o(.text)
    DMA2_Channel1_IRQHandler                 0x0800015f   Thumb Code     0  startup_stm32f10x_hd.o(.text)
    DMA2_Channel2_IRQHandler                 0x0800015f   Thumb Code     0  startup_stm32f10x_hd.o(.text)
    DMA2_Channel3_IRQHandler                 0x0800015f   Thumb Code     0  startup_stm32f10x_hd.o(.text)
    DMA2_Channel4_5_IRQHandler               0x0800015f   Thumb Code     0  startup_stm32f10x_hd.o(.text)
    EXTI0_IRQHandler                         0x0800015f   Thumb Code     0  startup_stm32f10x_hd.o(.text)
    EXTI15_10_IRQHandler                     0x0800015f   Thumb Code     0  startup_stm32f10x_hd.o(.text)
    EXTI1_IRQHandler                         0x0800015f   Thumb Code     0  startup_stm32f10x_hd.o(.text)
    EXTI2_IRQHandler                         0x0800015f   Thumb Code     0  startup_stm32f10x_hd.o(.text)
    EXTI3_IRQHandler                         0x0800015f   Thumb Code     0  startup_stm32f10x_hd.o(.text)
    EXTI4_IRQHandler                         0x0800015f   Thumb Code     0  startup_stm32f10x_hd.o(.text)
    EXTI9_5_IRQHandler                       0x0800015f   Thumb Code     0  startup_stm32f10x_hd.o(.text)
    FLASH_IRQHandler                         0x0800015f   Thumb Code     0  startup_stm32f10x_hd.o(.text)
    FSMC_IRQHandler                          0x0800015f   Thumb Code     0  startup_stm32f10x_hd.o(.text)
    I2C1_ER_IRQHandler                       0x0800015f   Thumb Code     0  startup_stm32f10x_hd.o(.text)
    I2C1_EV_IRQHandler                       0x0800015f   Thumb Code     0  startup_stm32f10x_hd.o(.text)
    I2C2_ER_IRQHandler                       0x0800015f   Thumb Code     0  startup_stm32f10x_hd.o(.text)
    I2C2_EV_IRQHandler                       0x0800015f   Thumb Code     0  startup_stm32f10x_hd.o(.text)
    PVD_IRQHandler                           0x0800015f   Thumb Code     0  startup_stm32f10x_hd.o(.text)
    RCC_IRQHandler                           0x0800015f   Thumb Code     0  startup_stm32f10x_hd.o(.text)
    RTCAlarm_IRQHandler                      0x0800015f   Thumb Code     0  startup_stm32f10x_hd.o(.text)
    RTC_IRQHandler                           0x0800015f   Thumb Code     0  startup_stm32f10x_hd.o(.text)
    SDIO_IRQHandler                          0x0800015f   Thumb Code     0  startup_stm32f10x_hd.o(.text)
    SPI1_IRQHandler                          0x0800015f   Thumb Code     0  startup_stm32f10x_hd.o(.text)
    SPI2_IRQHandler                          0x0800015f   Thumb Code     0  startup_stm32f10x_hd.o(.text)
    SPI3_IRQHandler                          0x0800015f   Thumb Code     0  startup_stm32f10x_hd.o(.text)
    TAMPER_IRQHandler                        0x0800015f   Thumb Code     0  startup_stm32f10x_hd.o(.text)
    TIM1_BRK_IRQHandler                      0x0800015f   Thumb Code     0  startup_stm32f10x_hd.o(.text)
    TIM1_CC_IRQHandler                       0x0800015f   Thumb Code     0  startup_stm32f10x_hd.o(.text)
    TIM1_TRG_COM_IRQHandler                  0x0800015f   Thumb Code     0  startup_stm32f10x_hd.o(.text)
    TIM1_UP_IRQHandler                       0x0800015f   Thumb Code     0  startup_stm32f10x_hd.o(.text)
    TIM2_IRQHandler                          0x0800015f   Thumb Code     0  startup_stm32f10x_hd.o(.text)
    TIM3_IRQHandler                          0x0800015f   Thumb Code     0  startup_stm32f10x_hd.o(.text)
    TIM4_IRQHandler                          0x0800015f   Thumb Code     0  startup_stm32f10x_hd.o(.text)
    TIM5_IRQHandler                          0x0800015f   Thumb Code     0  startup_stm32f10x_hd.o(.text)
    TIM6_IRQHandler                          0x0800015f   Thumb Code     0  startup_stm32f10x_hd.o(.text)
    TIM7_IRQHandler                          0x0800015f   Thumb Code     0  startup_stm32f10x_hd.o(.text)
    TIM8_BRK_IRQHandler                      0x0800015f   Thumb Code     0  startup_stm32f10x_hd.o(.text)
    TIM8_CC_IRQHandler                       0x0800015f   Thumb Code     0  startup_stm32f10x_hd.o(.text)
    TIM8_TRG_COM_IRQHandler                  0x0800015f   Thumb Code     0  startup_stm32f10x_hd.o(.text)
    TIM8_UP_IRQHandler                       0x0800015f   Thumb Code     0  startup_stm32f10x_hd.o(.text)
    UART4_IRQHandler                         0x0800015f   Thumb Code     0  startup_stm32f10x_hd.o(.text)
    UART5_IRQHandler                         0x0800015f   Thumb Code     0  startup_stm32f10x_hd.o(.text)
    USART2_IRQHandler                        0x0800015f   Thumb Code     0  startup_stm32f10x_hd.o(.text)
    USART3_IRQHandler                        0x0800015f   Thumb Code     0  startup_stm32f10x_hd.o(.text)
    USBWakeUp_IRQHandler                     0x0800015f   Thumb Code     0  startup_stm32f10x_hd.o(.text)
    USB_HP_CAN1_TX_IRQHandler                0x0800015f   Thumb Code     0  startup_stm32f10x_hd.o(.text)
    USB_LP_CAN1_RX0_IRQHandler               0x0800015f   Thumb Code     0  startup_stm32f10x_hd.o(.text)
    WWDG_IRQHandler                          0x0800015f   Thumb Code     0  startup_stm32f10x_hd.o(.text)
    rand                                     0x08000169   Thumb Code    20  rand.o(.text)
    srand                                    0x0800017d   Thumb Code     6  rand.o(.text)
    ___aeabi_memcpy8$move                    0x0800018d   Thumb Code     0  memmovea.o(.text)
    __aeabi_memcpy                           0x0800018d   Thumb Code    64  memmovea.o(.text)
    __aeabi_memcpy4                          0x0800018d   Thumb Code     0  memmovea.o(.text)
    __aeabi_memmove                          0x0800018d   Thumb Code     0  memmovea.o(.text)
    __aeabi_memmove4                         0x0800018d   Thumb Code     0  memmovea.o(.text)
    __aeabi_memmove8                         0x0800018d   Thumb Code     0  memmovea.o(.text)
    __aeabi_memset                           0x080001cd   Thumb Code    14  memseta.o(.text)
    __aeabi_memset4                          0x080001cd   Thumb Code     0  memseta.o(.text)
    __aeabi_memset8                          0x080001cd   Thumb Code     0  memseta.o(.text)
    __aeabi_memclr                           0x080001db   Thumb Code     4  memseta.o(.text)
    __aeabi_memclr4                          0x080001db   Thumb Code     0  memseta.o(.text)
    __aeabi_memclr8                          0x080001db   Thumb Code     0  memseta.o(.text)
    memset                                   0x080001df   Thumb Code    18  memseta.o(.text)
    strlen                                   0x080001f1   Thumb Code    14  strlen.o(.text)
    memcmp                                   0x080001ff   Thumb Code    26  memcmp.o(.text)
    calloc                                   0x08000219   Thumb Code    28  calloc.o(.text)
    __aeabi_uidiv                            0x08000235   Thumb Code     0  uidiv.o(.text)
    __aeabi_uidivmod                         0x08000235   Thumb Code    44  uidiv.o(.text)
    __aeabi_uldivmod                         0x08000261   Thumb Code    98  uldiv.o(.text)
    __I$use$fp                               0x080002c3   Thumb Code     0  iusefp.o(.text)
    __aeabi_dadd                             0x080002c3   Thumb Code   322  dadd.o(.text)
    __aeabi_dsub                             0x08000405   Thumb Code     6  dadd.o(.text)
    __aeabi_drsub                            0x0800040b   Thumb Code     6  dadd.o(.text)
    __aeabi_dmul                             0x08000411   Thumb Code   228  dmul.o(.text)
    __aeabi_ddiv                             0x080004f5   Thumb Code   222  ddiv.o(.text)
    __aeabi_d2ulz                            0x080005d3   Thumb Code    48  dfixul.o(.text)
    __aeabi_cdrcmple                         0x08000605   Thumb Code    48  cdrcmple.o(.text)
    __scatterload                            0x08000635   Thumb Code    28  init.o(.text)
    __scatterload_rt2                        0x08000635   Thumb Code     0  init.o(.text)
    __aeabi_llsl                             0x08000659   Thumb Code    30  llshl.o(.text)
    _ll_shift_l                              0x08000659   Thumb Code     0  llshl.o(.text)
    __aeabi_llsr                             0x08000677   Thumb Code    32  llushr.o(.text)
    _ll_ushift_r                             0x08000677   Thumb Code     0  llushr.o(.text)
    __aeabi_lasr                             0x08000697   Thumb Code    36  llsshr.o(.text)
    _ll_sshift_r                             0x08000697   Thumb Code     0  llsshr.o(.text)
    _double_round                            0x080006bb   Thumb Code    30  depilogue.o(.text)
    _double_epilogue                         0x080006d9   Thumb Code   156  depilogue.o(.text)
    BusFault_Handler                         0x08000775   Thumb Code     4  stm32f10x_it.o(i.BusFault_Handler)
    DebugMon_Handler                         0x08000779   Thumb Code     2  stm32f10x_it.o(i.DebugMon_Handler)
    DelayInit                                0x0800077d   Thumb Code    90  delay.o(i.DelayInit)
    GPIO_Init                                0x080007e5   Thumb Code   278  stm32f10x_gpio.o(i.GPIO_Init)
    GpioInit                                 0x080008fd   Thumb Code   120  gpio.o(i.GpioInit)
    HardFault_Handler                        0x0800097d   Thumb Code    40  stm32f10x_it.o(i.HardFault_Handler)
    MemManage_Handler                        0x080009ad   Thumb Code     4  stm32f10x_it.o(i.MemManage_Handler)
    NMI_Handler                              0x080009b1   Thumb Code     2  stm32f10x_it.o(i.NMI_Handler)
    NVIC_Configuration                       0x080009b3   Thumb Code    40  system.o(i.NVIC_Configuration)
    NVIC_Init                                0x080009dd   Thumb Code   100  misc.o(i.NVIC_Init)
    NVIC_PriorityGroupConfig                 0x08000a4d   Thumb Code    10  misc.o(i.NVIC_PriorityGroupConfig)
    PendSV_Handler                           0x08000a61   Thumb Code     2  stm32f10x_it.o(i.PendSV_Handler)
    RCC_APB2PeriphClockCmd                   0x08000a65   Thumb Code    26  stm32f10x_rcc.o(i.RCC_APB2PeriphClockCmd)
    RCC_GetClocksFreq                        0x08000a85   Thumb Code   192  stm32f10x_rcc.o(i.RCC_GetClocksFreq)
    SVC_Handler                              0x08000b59   Thumb Code     2  stm32f10x_it.o(i.SVC_Handler)
    SysTick_CLKSourceConfig                  0x08000c45   Thumb Code    40  misc.o(i.SysTick_CLKSourceConfig)
    SysTick_Handler                          0x08000c6d   Thumb Code    66  delay.o(i.SysTick_Handler)
    SystemInit                               0x08000cc9   Thumb Code    78  system_stm32f10x.o(i.SystemInit)
    USART1_IRQHandler                        0x08000d29   Thumb Code    60  usart.o(i.USART1_IRQHandler)
    USART_ClearITPendingBit                  0x08000d75   Thumb Code    30  stm32f10x_usart.o(i.USART_ClearITPendingBit)
    USART_Cmd                                0x08000d93   Thumb Code    24  stm32f10x_usart.o(i.USART_Cmd)
    USART_GetFlagStatus                      0x08000dab   Thumb Code    26  stm32f10x_usart.o(i.USART_GetFlagStatus)
    USART_GetITStatus                        0x08000dc5   Thumb Code    84  stm32f10x_usart.o(i.USART_GetITStatus)
    USART_ITConfig                           0x08000e19   Thumb Code    74  stm32f10x_usart.o(i.USART_ITConfig)
    USART_Init                               0x08000e65   Thumb Code   210  stm32f10x_usart.o(i.USART_Init)
    USART_ReceiveData                        0x08000f3d   Thumb Code    10  stm32f10x_usart.o(i.USART_ReceiveData)
    USART_SendData                           0x08000f47   Thumb Code     8  stm32f10x_usart.o(i.USART_SendData)
    UsageFault_Handler                       0x08000f4f   Thumb Code     4  stm32f10x_it.o(i.UsageFault_Handler)
    __0printf                                0x08000f55   Thumb Code    22  printfa.o(i.__0printf)
    __1printf                                0x08000f55   Thumb Code     0  printfa.o(i.__0printf)
    __2printf                                0x08000f55   Thumb Code     0  printfa.o(i.__0printf)
    __c89printf                              0x08000f55   Thumb Code     0  printfa.o(i.__0printf)
    printf                                   0x08000f55   Thumb Code     0  printfa.o(i.__0printf)
    __0snprintf                              0x08000f75   Thumb Code    36  printfa.o(i.__0snprintf)
    __1snprintf                              0x08000f75   Thumb Code     0  printfa.o(i.__0snprintf)
    __2snprintf                              0x08000f75   Thumb Code     0  printfa.o(i.__0snprintf)
    __c89snprintf                            0x08000f75   Thumb Code     0  printfa.o(i.__0snprintf)
    snprintf                                 0x08000f75   Thumb Code     0  printfa.o(i.__0snprintf)
    __0vsnprintf                             0x08000f9d   Thumb Code    32  printfa.o(i.__0vsnprintf)
    __1vsnprintf                             0x08000f9d   Thumb Code     0  printfa.o(i.__0vsnprintf)
    __2vsnprintf                             0x08000f9d   Thumb Code     0  printfa.o(i.__0vsnprintf)
    __c89vsnprintf                           0x08000f9d   Thumb Code     0  printfa.o(i.__0vsnprintf)
    vsnprintf                                0x08000f9d   Thumb Code     0  printfa.o(i.__0vsnprintf)
    __scatterload_copy                       0x08000fc1   Thumb Code    14  handlers.o(i.__scatterload_copy)
    __scatterload_null                       0x08000fcf   Thumb Code     2  handlers.o(i.__scatterload_null)
    __scatterload_zeroinit                   0x08000fd1   Thumb Code    14  handlers.o(i.__scatterload_zeroinit)
    fputc                                    0x08001f9d   Thumb Code    54  usart.o(i.fputc)
    free                                     0x08001fdd   Thumb Code    76  malloc.o(i.free)
    main                                     0x0800240d   Thumb Code    90  main.o(i.main)
    malloc                                   0x08002481   Thumb Code    92  malloc.o(i.malloc)
    mbedtls_aes_crypt_cbc                    0x080024ed   Thumb Code   182  aes.o(i.mbedtls_aes_crypt_cbc)
    mbedtls_aes_crypt_ecb                    0x080025a3   Thumb Code    58  aes.o(i.mbedtls_aes_crypt_ecb)
    mbedtls_aes_free                         0x080025dd   Thumb Code    22  aes.o(i.mbedtls_aes_free)
    mbedtls_aes_init                         0x080025f3   Thumb Code    20  aes.o(i.mbedtls_aes_init)
    mbedtls_aes_setkey_dec                   0x08002609   Thumb Code   210  aes.o(i.mbedtls_aes_setkey_dec)
    mbedtls_aes_setkey_enc                   0x080026f1   Thumb Code   504  aes.o(i.mbedtls_aes_setkey_enc)
    mbedtls_asn1_get_alg                     0x080028f1   Thumb Code   178  asn1parse.o(i.mbedtls_asn1_get_alg)
    mbedtls_asn1_get_bitstring               0x080029a3   Thumb Code   100  asn1parse.o(i.mbedtls_asn1_get_bitstring)
    mbedtls_asn1_get_bitstring_null          0x08002a07   Thumb Code    70  asn1parse.o(i.mbedtls_asn1_get_bitstring_null)
    mbedtls_asn1_get_bool                    0x08002a4d   Thumb Code    68  asn1parse.o(i.mbedtls_asn1_get_bool)
    mbedtls_asn1_get_int                     0x08002a91   Thumb Code    22  asn1parse.o(i.mbedtls_asn1_get_int)
    mbedtls_asn1_get_len                     0x08002aa7   Thumb Code   254  asn1parse.o(i.mbedtls_asn1_get_len)
    mbedtls_asn1_get_sequence_of             0x08002ba5   Thumb Code    56  asn1parse.o(i.mbedtls_asn1_get_sequence_of)
    mbedtls_asn1_get_tag                     0x08002be1   Thumb Code    56  asn1parse.o(i.mbedtls_asn1_get_tag)
    mbedtls_asn1_traverse_sequence_of        0x08002c19   Thumb Code   162  asn1parse.o(i.mbedtls_asn1_traverse_sequence_of)
    mbedtls_cipher_auth_decrypt              0x08002cbd   Thumb Code   120  cipher.o(i.mbedtls_cipher_auth_decrypt)
    mbedtls_cipher_auth_encrypt              0x08002d3d   Thumb Code    98  cipher.o(i.mbedtls_cipher_auth_encrypt)
    mbedtls_cipher_crypt                     0x08002da5   Thumb Code   138  cipher.o(i.mbedtls_cipher_crypt)
    mbedtls_cipher_finish                    0x08002e31   Thumb Code   320  cipher.o(i.mbedtls_cipher_finish)
    mbedtls_cipher_free                      0x08002f79   Thumb Code    34  cipher.o(i.mbedtls_cipher_free)
    mbedtls_cipher_info_from_type            0x08002fc5   Thumb Code    28  cipher.o(i.mbedtls_cipher_info_from_type)
    mbedtls_cipher_info_from_values          0x08002fe5   Thumb Code    52  cipher.o(i.mbedtls_cipher_info_from_values)
    mbedtls_cipher_init                      0x0800301d   Thumb Code    18  cipher.o(i.mbedtls_cipher_init)
    mbedtls_cipher_reset                     0x08003031   Thumb Code    22  cipher.o(i.mbedtls_cipher_reset)
    mbedtls_cipher_set_iv                    0x0800304d   Thumb Code    84  cipher.o(i.mbedtls_cipher_set_iv)
    mbedtls_cipher_set_padding_mode          0x080030a5   Thumb Code    48  cipher.o(i.mbedtls_cipher_set_padding_mode)
    mbedtls_cipher_setkey                    0x080030dd   Thumb Code   126  cipher.o(i.mbedtls_cipher_setkey)
    mbedtls_cipher_setup                     0x08003161   Thumb Code    54  cipher.o(i.mbedtls_cipher_setup)
    mbedtls_cipher_update                    0x0800319d   Thumb Code   438  cipher.o(i.mbedtls_cipher_update)
    mbedtls_ctr_drbg_free                    0x0800337f   Thumb Code    30  ctr_drbg.o(i.mbedtls_ctr_drbg_free)
    mbedtls_ctr_drbg_init                    0x0800339d   Thumb Code    22  ctr_drbg.o(i.mbedtls_ctr_drbg_init)
    mbedtls_ctr_drbg_random                  0x080033b3   Thumb Code    40  ctr_drbg.o(i.mbedtls_ctr_drbg_random)
    mbedtls_ctr_drbg_random_with_add         0x080033db   Thumb Code   254  ctr_drbg.o(i.mbedtls_ctr_drbg_random_with_add)
    mbedtls_ctr_drbg_reseed                  0x080034d9   Thumb Code    22  ctr_drbg.o(i.mbedtls_ctr_drbg_reseed)
    mbedtls_ctr_drbg_seed                    0x080035c1   Thumb Code   132  ctr_drbg.o(i.mbedtls_ctr_drbg_seed)
    mbedtls_debug_print_buf                  0x08003645   Thumb Code   300  debug.o(i.mbedtls_debug_print_buf)
    mbedtls_debug_print_crt                  0x080037ad   Thumb Code   164  debug.o(i.mbedtls_debug_print_crt)
    mbedtls_debug_print_mpi                  0x08003869   Thumb Code   382  debug.o(i.mbedtls_debug_print_mpi)
    mbedtls_debug_print_msg                  0x08003a1d   Thumb Code   116  debug.o(i.mbedtls_debug_print_msg)
    mbedtls_debug_print_ret                  0x08003a95   Thumb Code    98  debug.o(i.mbedtls_debug_print_ret)
    mbedtls_debug_set_threshold              0x08003b19   Thumb Code     6  debug.o(i.mbedtls_debug_set_threshold)
    mbedtls_entropy_add_source               0x08003b25   Thumb Code    88  entropy.o(i.mbedtls_entropy_add_source)
    mbedtls_entropy_free                     0x08003b7d   Thumb Code    36  entropy.o(i.mbedtls_entropy_free)
    mbedtls_entropy_func                     0x08003ba1   Thumb Code   330  entropy.o(i.mbedtls_entropy_func)
    mbedtls_entropy_init                     0x08003ced   Thumb Code    52  entropy.o(i.mbedtls_entropy_init)
    mbedtls_gcm_auth_decrypt                 0x08003d25   Thumb Code   142  gcm.o(i.mbedtls_gcm_auth_decrypt)
    mbedtls_gcm_crypt_and_tag                0x08003db3   Thumb Code   118  gcm.o(i.mbedtls_gcm_crypt_and_tag)
    mbedtls_gcm_finish                       0x08003e29   Thumb Code   396  gcm.o(i.mbedtls_gcm_finish)
    mbedtls_gcm_free                         0x08003fb5   Thumb Code    28  gcm.o(i.mbedtls_gcm_free)
    mbedtls_gcm_init                         0x08003fd1   Thumb Code    20  gcm.o(i.mbedtls_gcm_init)
    mbedtls_gcm_setkey                       0x08003fe5   Thumb Code   128  gcm.o(i.mbedtls_gcm_setkey)
    mbedtls_gcm_starts                       0x08004065   Thumb Code   396  gcm.o(i.mbedtls_gcm_starts)
    mbedtls_gcm_update                       0x080041f1   Thumb Code   316  gcm.o(i.mbedtls_gcm_update)
    mbedtls_hardware_poll                    0x0800432d   Thumb Code    50  main.o(i.mbedtls_hardware_poll)
    mbedtls_internal_aes_decrypt             0x08004459   Thumb Code  1394  aes.o(i.mbedtls_internal_aes_decrypt)
    mbedtls_internal_aes_encrypt             0x080049cd   Thumb Code  1394  aes.o(i.mbedtls_internal_aes_encrypt)
    mbedtls_internal_md5_process             0x08004f41   Thumb Code  2454  md5.o(i.mbedtls_internal_md5_process)
    mbedtls_internal_sha1_process            0x08005951   Thumb Code  5908  sha1.o(i.mbedtls_internal_sha1_process)
    mbedtls_internal_sha256_process          0x08007069   Thumb Code  3606  sha256.o(i.mbedtls_internal_sha256_process)
    mbedtls_internal_sha512_process          0x08007e85   Thumb Code  3654  sha512.o(i.mbedtls_internal_sha512_process)
    mbedtls_md                               0x08008cd1   Thumb Code   122  md.o(i.mbedtls_md)
    mbedtls_md5_finish_ret                   0x08008d51   Thumb Code   274  md5.o(i.mbedtls_md5_finish_ret)
    mbedtls_md5_free                         0x08008e63   Thumb Code    20  md5.o(i.mbedtls_md5_free)
    mbedtls_md5_init                         0x08008e77   Thumb Code    14  md5.o(i.mbedtls_md5_init)
    mbedtls_md5_ret                          0x08008e85   Thumb Code    76  md5.o(i.mbedtls_md5_ret)
    mbedtls_md5_starts_ret                   0x08008ed1   Thumb Code    30  md5.o(i.mbedtls_md5_starts_ret)
    mbedtls_md5_update_ret                   0x08008ef9   Thumb Code   150  md5.o(i.mbedtls_md5_update_ret)
    mbedtls_md_finish                        0x08008f91   Thumb Code    84  md.o(i.mbedtls_md_finish)
    mbedtls_md_free                          0x08008fe9   Thumb Code   116  md.o(i.mbedtls_md_free)
    mbedtls_md_get_size                      0x0800905d   Thumb Code    12  md.o(i.mbedtls_md_get_size)
    mbedtls_md_get_type                      0x08009069   Thumb Code    12  md.o(i.mbedtls_md_get_type)
    mbedtls_md_hmac_finish                   0x08009075   Thumb Code   116  md.o(i.mbedtls_md_hmac_finish)
    mbedtls_md_hmac_reset                    0x080090ed   Thumb Code    52  md.o(i.mbedtls_md_hmac_reset)
    mbedtls_md_hmac_starts                   0x08009125   Thumb Code   210  md.o(i.mbedtls_md_hmac_starts)
    mbedtls_md_hmac_update                   0x080091fd   Thumb Code    34  md.o(i.mbedtls_md_hmac_update)
    mbedtls_md_info_from_type                0x08009225   Thumb Code    46  md.o(i.mbedtls_md_info_from_type)
    mbedtls_md_init                          0x0800926d   Thumb Code    10  md.o(i.mbedtls_md_init)
    mbedtls_md_process                       0x08009279   Thumb Code    84  md.o(i.mbedtls_md_process)
    mbedtls_md_setup                         0x080092d1   Thumb Code   206  md.o(i.mbedtls_md_setup)
    mbedtls_md_starts                        0x080093a5   Thumb Code    94  md.o(i.mbedtls_md_starts)
    mbedtls_md_update                        0x08009409   Thumb Code    94  md.o(i.mbedtls_md_update)
    mbedtls_mpi_add_abs                      0x0800946d   Thumb Code   260  bignum.o(i.mbedtls_mpi_add_abs)
    mbedtls_mpi_add_int                      0x08009571   Thumb Code    64  bignum.o(i.mbedtls_mpi_add_int)
    mbedtls_mpi_add_mpi                      0x080095b1   Thumb Code   132  bignum.o(i.mbedtls_mpi_add_mpi)
    mbedtls_mpi_bitlen                       0x08009635   Thumb Code    56  bignum.o(i.mbedtls_mpi_bitlen)
    mbedtls_mpi_cmp_abs                      0x0800966d   Thumb Code   146  bignum.o(i.mbedtls_mpi_cmp_abs)
    mbedtls_mpi_cmp_int                      0x080096ff   Thumb Code    56  bignum.o(i.mbedtls_mpi_cmp_int)
    mbedtls_mpi_cmp_mpi                      0x08009737   Thumb Code   180  bignum.o(i.mbedtls_mpi_cmp_mpi)
    mbedtls_mpi_copy                         0x080097eb   Thumb Code   128  bignum.o(i.mbedtls_mpi_copy)
    mbedtls_mpi_div_mpi                      0x0800986b   Thumb Code   966  bignum.o(i.mbedtls_mpi_div_mpi)
    mbedtls_mpi_exp_mod                      0x08009c31   Thumb Code  1270  bignum.o(i.mbedtls_mpi_exp_mod)
    mbedtls_mpi_fill_random                  0x0800a127   Thumb Code   132  bignum.o(i.mbedtls_mpi_fill_random)
    mbedtls_mpi_free                         0x0800a1ab   Thumb Code    40  bignum.o(i.mbedtls_mpi_free)
    mbedtls_mpi_gcd                          0x0800a1d3   Thumb Code   376  bignum.o(i.mbedtls_mpi_gcd)
    mbedtls_mpi_get_bit                      0x0800a34b   Thumb Code    38  bignum.o(i.mbedtls_mpi_get_bit)
    mbedtls_mpi_grow                         0x0800a371   Thumb Code    86  bignum.o(i.mbedtls_mpi_grow)
    mbedtls_mpi_init                         0x0800a3c7   Thumb Code    16  bignum.o(i.mbedtls_mpi_init)
    mbedtls_mpi_inv_mod                      0x0800a3d7   Thumb Code   830  bignum.o(i.mbedtls_mpi_inv_mod)
    mbedtls_mpi_lsb                          0x0800a715   Thumb Code    56  bignum.o(i.mbedtls_mpi_lsb)
    mbedtls_mpi_lset                         0x0800a74d   Thumb Code    76  bignum.o(i.mbedtls_mpi_lset)
    mbedtls_mpi_mod_mpi                      0x0800a799   Thumb Code   142  bignum.o(i.mbedtls_mpi_mod_mpi)
    mbedtls_mpi_mul_int                      0x0800a827   Thumb Code    42  bignum.o(i.mbedtls_mpi_mul_int)
    mbedtls_mpi_mul_mpi                      0x0800a851   Thumb Code   248  bignum.o(i.mbedtls_mpi_mul_mpi)
    mbedtls_mpi_read_binary                  0x0800a949   Thumb Code   134  bignum.o(i.mbedtls_mpi_read_binary)
    mbedtls_mpi_shift_l                      0x0800a9cf   Thumb Code   202  bignum.o(i.mbedtls_mpi_shift_l)
    mbedtls_mpi_shift_r                      0x0800aa99   Thumb Code   170  bignum.o(i.mbedtls_mpi_shift_r)
    mbedtls_mpi_size                         0x0800ab43   Thumb Code    16  bignum.o(i.mbedtls_mpi_size)
    mbedtls_mpi_sub_abs                      0x0800ab53   Thumb Code   202  bignum.o(i.mbedtls_mpi_sub_abs)
    mbedtls_mpi_sub_int                      0x0800ac1d   Thumb Code    64  bignum.o(i.mbedtls_mpi_sub_int)
    mbedtls_mpi_sub_mpi                      0x0800ac5d   Thumb Code   132  bignum.o(i.mbedtls_mpi_sub_mpi)
    mbedtls_mpi_write_binary                 0x0800ace1   Thumb Code   130  bignum.o(i.mbedtls_mpi_write_binary)
    mbedtls_oid_get_attr_short_name          0x0800ad73   Thumb Code    30  oid.o(i.mbedtls_oid_get_attr_short_name)
    mbedtls_oid_get_certificate_policies     0x0800ad91   Thumb Code    30  oid.o(i.mbedtls_oid_get_certificate_policies)
    mbedtls_oid_get_extended_key_usage       0x0800adaf   Thumb Code    30  oid.o(i.mbedtls_oid_get_extended_key_usage)
    mbedtls_oid_get_numeric_string           0x0800adcd   Thumb Code   192  oid.o(i.mbedtls_oid_get_numeric_string)
    mbedtls_oid_get_oid_by_md                0x0800ae99   Thumb Code    42  oid.o(i.mbedtls_oid_get_oid_by_md)
    mbedtls_oid_get_pk_alg                   0x0800aec9   Thumb Code    30  oid.o(i.mbedtls_oid_get_pk_alg)
    mbedtls_oid_get_sig_alg                  0x0800aee7   Thumb Code    40  oid.o(i.mbedtls_oid_get_sig_alg)
    mbedtls_oid_get_sig_alg_desc             0x0800af0f   Thumb Code    30  oid.o(i.mbedtls_oid_get_sig_alg_desc)
    mbedtls_oid_get_x509_ext_type            0x0800af2d   Thumb Code    30  oid.o(i.mbedtls_oid_get_x509_ext_type)
    mbedtls_pk_can_do                        0x0800af4b   Thumb Code    26  pk.o(i.mbedtls_pk_can_do)
    mbedtls_pk_debug                         0x0800af65   Thumb Code    44  pk.o(i.mbedtls_pk_debug)
    mbedtls_pk_encrypt                       0x0800af95   Thumb Code    82  pk.o(i.mbedtls_pk_encrypt)
    mbedtls_pk_free                          0x0800afed   Thumb Code    32  pk.o(i.mbedtls_pk_free)
    mbedtls_pk_get_bitlen                    0x0800b00d   Thumb Code    24  pk.o(i.mbedtls_pk_get_bitlen)
    mbedtls_pk_get_name                      0x0800b025   Thumb Code    18  pk.o(i.mbedtls_pk_get_name)
    mbedtls_pk_get_type                      0x0800b045   Thumb Code    18  pk.o(i.mbedtls_pk_get_type)
    mbedtls_pk_info_from_type                0x0800b059   Thumb Code    14  pk.o(i.mbedtls_pk_info_from_type)
    mbedtls_pk_init                          0x0800b06d   Thumb Code    12  pk.o(i.mbedtls_pk_init)
    mbedtls_pk_parse_subpubkey               0x0800b079   Thumb Code   214  pkparse.o(i.mbedtls_pk_parse_subpubkey)
    mbedtls_pk_setup                         0x0800b159   Thumb Code    38  pk.o(i.mbedtls_pk_setup)
    mbedtls_pk_sign_restartable              0x0800b189   Thumb Code    86  pk.o(i.mbedtls_pk_sign_restartable)
    mbedtls_pk_verify                        0x0800b1e5   Thumb Code    40  pk.o(i.mbedtls_pk_verify)
    mbedtls_pk_verify_ext                    0x0800b20d   Thumb Code    90  pk.o(i.mbedtls_pk_verify_ext)
    mbedtls_pk_verify_restartable            0x0800b271   Thumb Code    86  pk.o(i.mbedtls_pk_verify_restartable)
    mbedtls_platform_zeroize                 0x0800b2cd   Thumb Code    26  platform_util.o(i.mbedtls_platform_zeroize)
    mbedtls_rsa_check_privkey                0x0800b2ed   Thumb Code   106  rsa.o(i.mbedtls_rsa_check_privkey)
    mbedtls_rsa_check_pub_priv               0x0800b35d   Thumb Code    70  rsa.o(i.mbedtls_rsa_check_pub_priv)
    mbedtls_rsa_check_pubkey                 0x0800b3a9   Thumb Code    88  rsa.o(i.mbedtls_rsa_check_pubkey)
    mbedtls_rsa_complete                     0x0800b405   Thumb Code   506  rsa.o(i.mbedtls_rsa_complete)
    mbedtls_rsa_deduce_crt                   0x0800b605   Thumb Code   160  rsa_internal.o(i.mbedtls_rsa_deduce_crt)
    mbedtls_rsa_deduce_primes                0x0800b6a5   Thumb Code   530  rsa_internal.o(i.mbedtls_rsa_deduce_primes)
    mbedtls_rsa_deduce_private_exponent      0x0800b8f1   Thumb Code   244  rsa_internal.o(i.mbedtls_rsa_deduce_private_exponent)
    mbedtls_rsa_free                         0x0800b9e5   Thumb Code   116  rsa.o(i.mbedtls_rsa_free)
    mbedtls_rsa_get_len                      0x0800ba59   Thumb Code     6  rsa.o(i.mbedtls_rsa_get_len)
    mbedtls_rsa_import_raw                   0x0800ba5f   Thumb Code   198  rsa.o(i.mbedtls_rsa_import_raw)
    mbedtls_rsa_init                         0x0800bb25   Thumb Code    36  rsa.o(i.mbedtls_rsa_init)
    mbedtls_rsa_pkcs1_decrypt                0x0800bb49   Thumb Code    72  rsa.o(i.mbedtls_rsa_pkcs1_decrypt)
    mbedtls_rsa_pkcs1_encrypt                0x0800bb95   Thumb Code    66  rsa.o(i.mbedtls_rsa_pkcs1_encrypt)
    mbedtls_rsa_pkcs1_sign                   0x0800bbdd   Thumb Code    68  rsa.o(i.mbedtls_rsa_pkcs1_sign)
    mbedtls_rsa_pkcs1_verify                 0x0800bc25   Thumb Code    68  rsa.o(i.mbedtls_rsa_pkcs1_verify)
    mbedtls_rsa_private                      0x0800bc6d   Thumb Code   854  rsa.o(i.mbedtls_rsa_private)
    mbedtls_rsa_public                       0x0800bfcd   Thumb Code   166  rsa.o(i.mbedtls_rsa_public)
    mbedtls_rsa_rsaes_pkcs1_v15_decrypt      0x0800c079   Thumb Code   502  rsa.o(i.mbedtls_rsa_rsaes_pkcs1_v15_decrypt)
    mbedtls_rsa_rsaes_pkcs1_v15_encrypt      0x0800c275   Thumb Code   246  rsa.o(i.mbedtls_rsa_rsaes_pkcs1_v15_encrypt)
    mbedtls_rsa_rsassa_pkcs1_v15_sign        0x0800c371   Thumb Code   234  rsa.o(i.mbedtls_rsa_rsassa_pkcs1_v15_sign)
    mbedtls_rsa_rsassa_pkcs1_v15_verify      0x0800c465   Thumb Code   214  rsa.o(i.mbedtls_rsa_rsassa_pkcs1_v15_verify)
    mbedtls_rsa_set_padding                  0x0800c545   Thumb Code    18  rsa.o(i.mbedtls_rsa_set_padding)
    mbedtls_rsa_validate_crt                 0x0800c559   Thumb Code   328  rsa_internal.o(i.mbedtls_rsa_validate_crt)
    mbedtls_rsa_validate_params              0x0800c6a9   Thumb Code   454  rsa_internal.o(i.mbedtls_rsa_validate_params)
    mbedtls_sha1_finish_ret                  0x0800c899   Thumb Code   304  sha1.o(i.mbedtls_sha1_finish_ret)
    mbedtls_sha1_free                        0x0800c9c9   Thumb Code    20  sha1.o(i.mbedtls_sha1_free)
    mbedtls_sha1_init                        0x0800c9dd   Thumb Code    18  sha1.o(i.mbedtls_sha1_init)
    mbedtls_sha1_ret                         0x0800c9ef   Thumb Code    84  sha1.o(i.mbedtls_sha1_ret)
    mbedtls_sha1_starts_ret                  0x0800ca45   Thumb Code    38  sha1.o(i.mbedtls_sha1_starts_ret)
    mbedtls_sha1_update_ret                  0x0800ca79   Thumb Code   158  sha1.o(i.mbedtls_sha1_update_ret)
    mbedtls_sha256_clone                     0x0800cb17   Thumb Code    26  sha256.o(i.mbedtls_sha256_clone)
    mbedtls_sha256_finish_ret                0x0800cb31   Thumb Code   418  sha256.o(i.mbedtls_sha256_finish_ret)
    mbedtls_sha256_free                      0x0800ccd3   Thumb Code    20  sha256.o(i.mbedtls_sha256_free)
    mbedtls_sha256_init                      0x0800cce7   Thumb Code    18  sha256.o(i.mbedtls_sha256_init)
    mbedtls_sha256_ret                       0x0800ccf9   Thumb Code   102  sha256.o(i.mbedtls_sha256_ret)
    mbedtls_sha256_starts_ret                0x0800cd61   Thumb Code    90  sha256.o(i.mbedtls_sha256_starts_ret)
    mbedtls_sha256_update_ret                0x0800cdfd   Thumb Code   158  sha256.o(i.mbedtls_sha256_update_ret)
    mbedtls_sha512_clone                     0x0800ce9b   Thumb Code    26  sha512.o(i.mbedtls_sha512_clone)
    mbedtls_sha512_finish_ret                0x0800ceb5   Thumb Code   992  sha512.o(i.mbedtls_sha512_finish_ret)
    mbedtls_sha512_free                      0x0800d295   Thumb Code    20  sha512.o(i.mbedtls_sha512_free)
    mbedtls_sha512_init                      0x0800d2a9   Thumb Code    18  sha512.o(i.mbedtls_sha512_init)
    mbedtls_sha512_ret                       0x0800d2bb   Thumb Code   102  sha512.o(i.mbedtls_sha512_ret)
    mbedtls_sha512_starts_ret                0x0800d321   Thumb Code   162  sha512.o(i.mbedtls_sha512_starts_ret)
    mbedtls_sha512_update_ret                0x0800d445   Thumb Code   178  sha512.o(i.mbedtls_sha512_update_ret)
    mbedtls_ssl_check_cert_usage             0x0800d4f7   Thumb Code     8  ssl_tls.o(i.mbedtls_ssl_check_cert_usage)
    mbedtls_ssl_check_timer                  0x0800d501   Thumb Code    48  ssl_msg.o(i.mbedtls_ssl_check_timer)
    mbedtls_ssl_ciphersuite_from_id          0x0800d5a1   Thumb Code    28  ssl_ciphersuites.o(i.mbedtls_ssl_ciphersuite_from_id)
    mbedtls_ssl_close_notify                 0x0800d5ed   Thumb Code   116  ssl_msg.o(i.mbedtls_ssl_close_notify)
    mbedtls_ssl_conf_authmode                0x0800d6d5   Thumb Code    10  ssl_tls.o(i.mbedtls_ssl_conf_authmode)
    mbedtls_ssl_conf_dbg                     0x0800d6df   Thumb Code     6  ssl_tls.o(i.mbedtls_ssl_conf_dbg)
    mbedtls_ssl_conf_endpoint                0x0800d6e5   Thumb Code    10  ssl_tls.o(i.mbedtls_ssl_conf_endpoint)
    mbedtls_ssl_conf_rng                     0x0800d6ef   Thumb Code     6  ssl_tls.o(i.mbedtls_ssl_conf_rng)
    mbedtls_ssl_conf_transport               0x0800d6f5   Thumb Code    10  ssl_tls.o(i.mbedtls_ssl_conf_transport)
    mbedtls_ssl_config_defaults              0x0800d701   Thumb Code   130  ssl_tls.o(i.mbedtls_ssl_config_defaults)
    mbedtls_ssl_config_free                  0x0800d799   Thumb Code    20  ssl_tls.o(i.mbedtls_ssl_config_free)
    mbedtls_ssl_config_init                  0x0800d7ad   Thumb Code    14  ssl_tls.o(i.mbedtls_ssl_config_init)
    mbedtls_ssl_decrypt_buf                  0x0800d7bd   Thumb Code  1912  ssl_msg.o(i.mbedtls_ssl_decrypt_buf)
    mbedtls_ssl_derive_keys                  0x0800df4d   Thumb Code   274  ssl_tls.o(i.mbedtls_ssl_derive_keys)
    mbedtls_ssl_encrypt_buf                  0x0800e0e5   Thumb Code  1762  ssl_msg.o(i.mbedtls_ssl_encrypt_buf)
    mbedtls_ssl_fetch_input                  0x0800e7f9   Thumb Code   316  ssl_msg.o(i.mbedtls_ssl_fetch_input)
    mbedtls_ssl_flush_output                 0x0800ea4d   Thumb Code   270  ssl_msg.o(i.mbedtls_ssl_flush_output)
    mbedtls_ssl_free                         0x0800ec49   Thumb Code   222  ssl_tls.o(i.mbedtls_ssl_free)
    mbedtls_ssl_get_ciphersuite_name         0x0800ed59   Thumb Code    22  ssl_ciphersuites.o(i.mbedtls_ssl_get_ciphersuite_name)
    mbedtls_ssl_get_max_out_record_payload   0x0800ed79   Thumb Code     8  ssl_tls.o(i.mbedtls_ssl_get_max_out_record_payload)
    mbedtls_ssl_handle_message_type          0x0800ed81   Thumb Code   288  ssl_msg.o(i.mbedtls_ssl_handle_message_type)
    mbedtls_ssl_handshake                    0x0800efbd   Thumb Code    78  ssl_tls.o(i.mbedtls_ssl_handshake)
    mbedtls_ssl_handshake_client_step        0x0800f051   Thumb Code   282  ssl_cli.o(i.mbedtls_ssl_handshake_client_step)
    mbedtls_ssl_handshake_free               0x0800f1c9   Thumb Code    48  ssl_tls.o(i.mbedtls_ssl_handshake_free)
    mbedtls_ssl_handshake_step               0x0800f1f9   Thumb Code    42  ssl_tls.o(i.mbedtls_ssl_handshake_step)
    mbedtls_ssl_handshake_wrapup             0x0800f229   Thumb Code   128  ssl_tls.o(i.mbedtls_ssl_handshake_wrapup)
    mbedtls_ssl_handshake_wrapup_free_hs_transform 0x0800f30d   Thumb Code    82  ssl_tls.o(i.mbedtls_ssl_handshake_wrapup_free_hs_transform)
    mbedtls_ssl_hash_from_md_alg             0x0800f3c1   Thumb Code    46  ssl_tls.o(i.mbedtls_ssl_hash_from_md_alg)
    mbedtls_ssl_init                         0x0800f3ef   Thumb Code    14  ssl_tls.o(i.mbedtls_ssl_init)
    mbedtls_ssl_list_ciphersuites            0x0800f3fd   Thumb Code     4  ssl_ciphersuites.o(i.mbedtls_ssl_list_ciphersuites)
    mbedtls_ssl_optimize_checksum            0x0800f405   Thumb Code    62  ssl_tls.o(i.mbedtls_ssl_optimize_checksum)
    mbedtls_ssl_parse_certificate            0x0800f4d1   Thumb Code   320  ssl_tls.o(i.mbedtls_ssl_parse_certificate)
    mbedtls_ssl_parse_change_cipher_spec     0x0800f6b1   Thumb Code   168  ssl_msg.o(i.mbedtls_ssl_parse_change_cipher_spec)
    mbedtls_ssl_parse_finished               0x0800f821   Thumb Code   344  ssl_tls.o(i.mbedtls_ssl_parse_finished)
    mbedtls_ssl_prepare_handshake_record     0x0800f9f9   Thumb Code   128  ssl_msg.o(i.mbedtls_ssl_prepare_handshake_record)
    mbedtls_ssl_read                         0x0800fb25   Thumb Code   516  ssl_msg.o(i.mbedtls_ssl_read)
    mbedtls_ssl_read_record                  0x0800fe61   Thumb Code   214  ssl_msg.o(i.mbedtls_ssl_read_record)
    mbedtls_ssl_read_version                 0x0800ffcd   Thumb Code    12  ssl_msg.o(i.mbedtls_ssl_read_version)
    mbedtls_ssl_reset_in_out_pointers        0x0800ffd9   Thumb Code    36  ssl_msg.o(i.mbedtls_ssl_reset_in_out_pointers)
    mbedtls_ssl_send_alert_message           0x0800fffd   Thumb Code   138  ssl_msg.o(i.mbedtls_ssl_send_alert_message)
    mbedtls_ssl_session_free                 0x08010119   Thumb Code    26  ssl_tls.o(i.mbedtls_ssl_session_free)
    mbedtls_ssl_session_init                 0x08010133   Thumb Code    14  ssl_tls.o(i.mbedtls_ssl_session_init)
    mbedtls_ssl_set_bio                      0x08010141   Thumb Code    14  ssl_tls.o(i.mbedtls_ssl_set_bio)
    mbedtls_ssl_set_timer                    0x08010151   Thumb Code    44  ssl_msg.o(i.mbedtls_ssl_set_timer)
    mbedtls_ssl_setup                        0x080101b1   Thumb Code   186  ssl_tls.o(i.mbedtls_ssl_setup)
    mbedtls_ssl_sig_from_pk                  0x080102a9   Thumb Code    22  ssl_tls.o(i.mbedtls_ssl_sig_from_pk)
    mbedtls_ssl_sig_hash_set_const_hash      0x080102bf   Thumb Code     6  ssl_tls.o(i.mbedtls_ssl_sig_hash_set_const_hash)
    mbedtls_ssl_transform_free               0x080102c5   Thumb Code    52  ssl_msg.o(i.mbedtls_ssl_transform_free)
    mbedtls_ssl_transform_init               0x080102f9   Thumb Code    46  ssl_tls.o(i.mbedtls_ssl_transform_init)
    mbedtls_ssl_update_handshake_status      0x08010327   Thumb Code    32  ssl_msg.o(i.mbedtls_ssl_update_handshake_status)
    mbedtls_ssl_update_in_pointers           0x08010347   Thumb Code    24  ssl_msg.o(i.mbedtls_ssl_update_in_pointers)
    mbedtls_ssl_update_out_pointers          0x0801035f   Thumb Code    52  ssl_msg.o(i.mbedtls_ssl_update_out_pointers)
    mbedtls_ssl_write                        0x08010395   Thumb Code   118  ssl_msg.o(i.mbedtls_ssl_write)
    mbedtls_ssl_write_certificate            0x08010461   Thumb Code   362  ssl_tls.o(i.mbedtls_ssl_write_certificate)
    mbedtls_ssl_write_change_cipher_spec     0x08010691   Thumb Code   106  ssl_msg.o(i.mbedtls_ssl_write_change_cipher_spec)
    mbedtls_ssl_write_finished               0x08010775   Thumb Code   210  ssl_tls.o(i.mbedtls_ssl_write_finished)
    mbedtls_ssl_write_handshake_msg          0x080108e5   Thumb Code   262  ssl_msg.o(i.mbedtls_ssl_write_handshake_msg)
    mbedtls_ssl_write_record                 0x08010a99   Thumb Code   546  ssl_msg.o(i.mbedtls_ssl_write_record)
    mbedtls_ssl_write_version                0x08010dc1   Thumb Code     8  ssl_msg.o(i.mbedtls_ssl_write_version)
    mbedtls_x509_crt_free                    0x08010dc9   Thumb Code   236  x509_crt.o(i.mbedtls_x509_crt_free)
    mbedtls_x509_crt_info                    0x08010eb5   Thumb Code  1700  x509_crt.o(i.mbedtls_x509_crt_info)
    mbedtls_x509_crt_init                    0x080115a9   Thumb Code    16  x509_crt.o(i.mbedtls_x509_crt_init)
    mbedtls_x509_crt_parse_der_nocopy        0x08011659   Thumb Code    28  x509_crt.o(i.mbedtls_x509_crt_parse_der_nocopy)
    mbedtls_x509_crt_verify_restartable      0x08011675   Thumb Code    42  x509_crt.o(i.mbedtls_x509_crt_verify_restartable)
    mbedtls_x509_dn_gets                     0x080116a1   Thumb Code   266  x509.o(i.mbedtls_x509_dn_gets)
    mbedtls_x509_get_alg                     0x080117c5   Thumb Code    46  x509.o(i.mbedtls_x509_get_alg)
    mbedtls_x509_get_ext                     0x080117f5   Thumb Code   100  x509.o(i.mbedtls_x509_get_ext)
    mbedtls_x509_get_name                    0x0801185d   Thumb Code   136  x509.o(i.mbedtls_x509_get_name)
    mbedtls_x509_get_serial                  0x080118e9   Thumb Code    96  x509.o(i.mbedtls_x509_get_serial)
    mbedtls_x509_get_sig                     0x0801194d   Thumb Code    76  x509.o(i.mbedtls_x509_get_sig)
    mbedtls_x509_get_sig_alg                 0x0801199d   Thumb Code    76  x509.o(i.mbedtls_x509_get_sig_alg)
    mbedtls_x509_get_time                    0x080119f1   Thumb Code    98  x509.o(i.mbedtls_x509_get_time)
    mbedtls_x509_key_size_helper             0x08011a59   Thumb Code    58  x509.o(i.mbedtls_x509_key_size_helper)
    mbedtls_x509_parse_subject_alt_name      0x08011aa5   Thumb Code   102  x509_crt.o(i.mbedtls_x509_parse_subject_alt_name)
    mbedtls_x509_serial_gets                 0x08011b11   Thumb Code   158  x509.o(i.mbedtls_x509_serial_gets)
    mbedtls_x509_sig_alg_gets                0x08011bcd   Thumb Code    92  x509.o(i.mbedtls_x509_sig_alg_gets)
    mbedtls_x509_time_is_future              0x08011c35   Thumb Code     6  x509.o(i.mbedtls_x509_time_is_future)
    mbedtls_x509_time_is_past                0x08011c3b   Thumb Code     6  x509.o(i.mbedtls_x509_time_is_past)
    net_recv                                 0x08012bd1   Thumb Code     4  main.o(i.net_recv)
    net_send                                 0x08012bd5   Thumb Code     4  main.o(i.net_send)
    ssl_int                                  0x08013d75   Thumb Code   210  main.o(i.ssl_int)
    time                                     0x08016fc1   Thumb Code    12  main.o(i.time)
    uart_init                                0x0801715d   Thumb Code   124  usart.o(i.uart_init)
    mbedtls_cipher_definitions               0x0801b3a4   Data          80  cipher_wrap.o(.constdata)
    mbedtls_md5_info                         0x0801b478   Data           8  md.o(.constdata)
    mbedtls_sha1_info                        0x0801b480   Data           8  md.o(.constdata)
    mbedtls_sha224_info                      0x0801b488   Data           8  md.o(.constdata)
    mbedtls_sha256_info                      0x0801b490   Data           8  md.o(.constdata)
    mbedtls_sha384_info                      0x0801b498   Data           8  md.o(.constdata)
    mbedtls_sha512_info                      0x0801b4a0   Data           8  md.o(.constdata)
    mbedtls_rsa_info                         0x0801b9c4   Data          48  pk_wrap.o(.constdata)
    mbedtls_x509_crt_profile_default         0x0801be60   Data          16  x509_crt.o(.constdata)
    mbedtls_x509_crt_profile_next            0x0801be70   Data          16  x509_crt.o(.constdata)
    mbedtls_x509_crt_profile_suiteb          0x0801be80   Data          16  x509_crt.o(.constdata)
    Region$$Table$$Base                      0x0801cfa0   Number         0  anon$$obj.o(Region$$Table)
    Region$$Table$$Limit                     0x0801cfc0   Number         0  anon$$obj.o(Region$$Table)
    MainLen                                  0x20000000   Data           4  main.o(.data)
    net_recv_data_len                        0x20000004   Data           4  main.o(.data)
    net_recv_data_len_count                  0x20000008   Data           4  main.o(.data)
    ret                                      0x2000000c   Data           4  main.o(.data)
    pers                                     0x20000010   Data           4  main.o(.data)
    SysTickLedTime                           0x20000014   Data           4  delay.o(.data)
    SysTickCntMs                             0x20000018   Data           4  delay.o(.data)
    Usart1ReadCnt                            0x2000001c   Data           4  usart.o(.data)
    Usart1ReadCntCopy                        0x20000020   Data           4  usart.o(.data)
    Usart1IdleCnt                            0x20000024   Data           4  usart.o(.data)
    Usart1IdleTime                           0x20000028   Data           4  usart.o(.data)
    Usart1ReadFlage                          0x2000002c   Data           1  usart.o(.data)
    SystemCoreClock                          0x20000030   Data           4  system_stm32f10x.o(.data)
    AHBPrescTable                            0x20000034   Data          16  system_stm32f10x.o(.data)
    __stdout                                 0x20000094   Data           4  stdout.o(.data)
    __microlib_freelist                      0x2000009c   Data           4  mvars.o(.data)
    __microlib_freelist_initialised          0x200000a0   Data           4  mvars.o(.data)
    MainBuffer                               0x200000a8   Data        2000  main.o(.bss)
    net_recv_buff                            0x20000878   Data        2000  main.o(.bss)
    entropy                                  0x20001048   Data         632  main.o(.bss)
    ctr_drbg                                 0x200012c0   Data         320  main.o(.bss)
    ssl                                      0x20001400   Data         196  main.o(.bss)
    conf                                     0x200014c4   Data          84  main.o(.bss)
    Usart1ReadBuff                           0x20001518   Data         150  usart.o(.bss)
    __heap_base                              0x200015b0   Data           0  startup_stm32f10x_hd.o(HEAP)
    __heap_limit                             0x2000b5b0   Data           0  startup_stm32f10x_hd.o(HEAP)
    __initial_sp                             0x2000b9b0   Data           0  startup_stm32f10x_hd.o(STACK)



==============================================================================

Memory Map of the image

  Image Entry point : 0x08000131

  Load Region LR_IROM1 (Base: 0x08000000, Size: 0x0001d064, Max: 0x00080000, ABSOLUTE)

    Execution Region ER_IROM1 (Base: 0x08000000, Size: 0x0001cfc0, Max: 0x00080000, ABSOLUTE)

    Base Addr    Size         Type   Attr      Idx    E Section Name        Object

    0x08000000   0x00000130   Data   RO         1292    RESET               startup_stm32f10x_hd.o
    0x08000130   0x00000000   Code   RO         5394  * .ARM.Collect$$$$00000000  mc_w.l(entry.o)
    0x08000130   0x00000004   Code   RO         5710    .ARM.Collect$$$$00000001  mc_w.l(entry2.o)
    0x08000134   0x00000004   Code   RO         5713    .ARM.Collect$$$$00000004  mc_w.l(entry5.o)
    0x08000138   0x00000000   Code   RO         5715    .ARM.Collect$$$$00000008  mc_w.l(entry7b.o)
    0x08000138   0x00000000   Code   RO         5717    .ARM.Collect$$$$0000000A  mc_w.l(entry8b.o)
    0x08000138   0x00000008   Code   RO         5718    .ARM.Collect$$$$0000000B  mc_w.l(entry9a.o)
    0x08000140   0x00000000   Code   RO         5720    .ARM.Collect$$$$0000000D  mc_w.l(entry10a.o)
    0x08000140   0x00000000   Code   RO         5722    .ARM.Collect$$$$0000000F  mc_w.l(entry11a.o)
    0x08000140   0x00000004   Code   RO         5711    .ARM.Collect$$$$00002712  mc_w.l(entry2.o)
    0x08000144   0x00000024   Code   RO         1293    .text               startup_stm32f10x_hd.o
    0x08000168   0x00000024   Code   RO         5398    .text               mc_w.l(rand.o)
    0x0800018c   0x00000040   Code   RO         5403    .text               mc_w.l(memmovea.o)
    0x080001cc   0x00000024   Code   RO         5407    .text               mc_w.l(memseta.o)
    0x080001f0   0x0000000e   Code   RO         5409    .text               mc_w.l(strlen.o)
    0x080001fe   0x0000001a   Code   RO         5413    .text               mc_w.l(memcmp.o)
    0x08000218   0x0000001c   Code   RO         5708    .text               mc_w.l(calloc.o)
    0x08000234   0x0000002c   Code   RO         5724    .text               mc_w.l(uidiv.o)
    0x08000260   0x00000062   Code   RO         5726    .text               mc_w.l(uldiv.o)
    0x080002c2   0x00000000   Code   RO         5730    .text               mc_w.l(iusefp.o)
    0x080002c2   0x0000014e   Code   RO         5731    .text               mf_w.l(dadd.o)
    0x08000410   0x000000e4   Code   RO         5733    .text               mf_w.l(dmul.o)
    0x080004f4   0x000000de   Code   RO         5735    .text               mf_w.l(ddiv.o)
    0x080005d2   0x00000030   Code   RO         5737    .text               mf_w.l(dfixul.o)
    0x08000602   0x00000002   PAD
    0x08000604   0x00000030   Code   RO         5739    .text               mf_w.l(cdrcmple.o)
    0x08000634   0x00000024   Code   RO         5741    .text               mc_w.l(init.o)
    0x08000658   0x0000001e   Code   RO         5743    .text               mc_w.l(llshl.o)
    0x08000676   0x00000020   Code   RO         5745    .text               mc_w.l(llushr.o)
    0x08000696   0x00000024   Code   RO         5747    .text               mc_w.l(llsshr.o)
    0x080006ba   0x000000ba   Code   RO         5749    .text               mf_w.l(depilogue.o)
    0x08000774   0x00000004   Code   RO            3    i.BusFault_Handler  stm32f10x_it.o
    0x08000778   0x00000002   Code   RO            4    i.DebugMon_Handler  stm32f10x_it.o
    0x0800077a   0x00000002   PAD
    0x0800077c   0x00000068   Code   RO          372    i.DelayInit         delay.o
    0x080007e4   0x00000116   Code   RO         1176    i.GPIO_Init         stm32f10x_gpio.o
    0x080008fa   0x00000002   PAD
    0x080008fc   0x00000080   Code   RO          465    i.GpioInit          gpio.o
    0x0800097c   0x00000030   Code   RO            5    i.HardFault_Handler  stm32f10x_it.o
    0x080009ac   0x00000004   Code   RO            6    i.MemManage_Handler  stm32f10x_it.o
    0x080009b0   0x00000002   Code   RO            7    i.NMI_Handler       stm32f10x_it.o
    0x080009b2   0x00000028   Code   RO          346    i.NVIC_Configuration  system.o
    0x080009da   0x00000002   PAD
    0x080009dc   0x00000070   Code   RO          548    i.NVIC_Init         misc.o
    0x08000a4c   0x00000014   Code   RO          549    i.NVIC_PriorityGroupConfig  misc.o
    0x08000a60   0x00000002   Code   RO            8    i.PendSV_Handler    stm32f10x_it.o
    0x08000a62   0x00000002   PAD
    0x08000a64   0x00000020   Code   RO          596    i.RCC_APB2PeriphClockCmd  stm32f10x_rcc.o
    0x08000a84   0x000000d4   Code   RO          604    i.RCC_GetClocksFreq  stm32f10x_rcc.o
    0x08000b58   0x00000002   Code   RO            9    i.SVC_Handler       stm32f10x_it.o
    0x08000b5a   0x00000008   Code   RO          493    i.SetSysClock       system_stm32f10x.o
    0x08000b62   0x00000002   PAD
    0x08000b64   0x000000e0   Code   RO          494    i.SetSysClockTo72   system_stm32f10x.o
    0x08000c44   0x00000028   Code   RO          552    i.SysTick_CLKSourceConfig  misc.o
    0x08000c6c   0x0000005c   Code   RO          373    i.SysTick_Handler   delay.o
    0x08000cc8   0x00000060   Code   RO          496    i.SystemInit        system_stm32f10x.o
    0x08000d28   0x0000004c   Code   RO          414    i.USART1_IRQHandler  usart.o
    0x08000d74   0x0000001e   Code   RO          801    i.USART_ClearITPendingBit  stm32f10x_usart.o
    0x08000d92   0x00000018   Code   RO          804    i.USART_Cmd         stm32f10x_usart.o
    0x08000daa   0x0000001a   Code   RO          807    i.USART_GetFlagStatus  stm32f10x_usart.o
    0x08000dc4   0x00000054   Code   RO          808    i.USART_GetITStatus  stm32f10x_usart.o
    0x08000e18   0x0000004a   Code   RO          810    i.USART_ITConfig    stm32f10x_usart.o
    0x08000e62   0x00000002   PAD
    0x08000e64   0x000000d8   Code   RO          811    i.USART_Init        stm32f10x_usart.o
    0x08000f3c   0x0000000a   Code   RO          818    i.USART_ReceiveData  stm32f10x_usart.o
    0x08000f46   0x00000008   Code   RO          821    i.USART_SendData    stm32f10x_usart.o
    0x08000f4e   0x00000004   Code   RO           10    i.UsageFault_Handler  stm32f10x_it.o
    0x08000f52   0x00000002   PAD
    0x08000f54   0x00000020   Code   RO         5652    i.__0printf         mc_w.l(printfa.o)
    0x08000f74   0x00000028   Code   RO         5653    i.__0snprintf       mc_w.l(printfa.o)
    0x08000f9c   0x00000024   Code   RO         5657    i.__0vsnprintf      mc_w.l(printfa.o)
    0x08000fc0   0x0000000e   Code   RO         5753    i.__scatterload_copy  mc_w.l(handlers.o)
    0x08000fce   0x00000002   Code   RO         5754    i.__scatterload_null  mc_w.l(handlers.o)
    0x08000fd0   0x0000000e   Code   RO         5755    i.__scatterload_zeroinit  mc_w.l(handlers.o)
    0x08000fde   0x00000002   PAD
    0x08000fe0   0x00000164   Code   RO         5659    i._fp_digits        mc_w.l(printfa.o)
    0x08001144   0x000006dc   Code   RO         5660    i._printf_core      mc_w.l(printfa.o)
    0x08001820   0x00000024   Code   RO         5661    i._printf_post_padding  mc_w.l(printfa.o)
    0x08001844   0x0000002e   Code   RO         5662    i._printf_pre_padding  mc_w.l(printfa.o)
    0x08001872   0x00000016   Code   RO         5663    i._snputc           mc_w.l(printfa.o)
    0x08001888   0x00000024   Code   RO         2201    i.aes_crypt_cbc_wrap  cipher_wrap.o
    0x080018ac   0x0000001c   Code   RO         2202    i.aes_crypt_ecb_wrap  cipher_wrap.o
    0x080018c8   0x0000001e   Code   RO         2203    i.aes_ctx_alloc     cipher_wrap.o
    0x080018e6   0x00000012   Code   RO         2204    i.aes_ctx_free      cipher_wrap.o
    0x080018f8   0x00000014   Code   RO         2205    i.aes_setkey_dec_wrap  cipher_wrap.o
    0x0800190c   0x00000014   Code   RO         2206    i.aes_setkey_enc_wrap  cipher_wrap.o
    0x08001920   0x0000000c   Code   RO         3473    i.all_or_nothing_int  rsa.o
    0x0800192c   0x0000003e   Code   RO         1408    i.asn1_get_sequence_of_cb  asn1parse.o
    0x0800196a   0x000000a4   Code   RO         1409    i.asn1_get_tagged_int  asn1parse.o
    0x08001a0e   0x00000170   Code   RO         2272    i.block_cipher_df   ctr_drbg.o
    0x08001b7e   0x000000a0   Code   RO         2273    i.ctr_drbg_update_internal  ctr_drbg.o
    0x08001c1e   0x00000002   PAD
    0x08001c20   0x000000bc   Code   RO          163    i.custom_ssl_recv   main.o
    0x08001cdc   0x00000016   Code   RO          164    i.custom_ssl_send   main.o
    0x08001cf2   0x00000060   Code   RO         2373    i.debug_print_line_by_line  debug.o
    0x08001d52   0x00000002   PAD
    0x08001d54   0x000000e4   Code   RO         2374    i.debug_print_pk    debug.o
    0x08001e38   0x00000026   Code   RO         2375    i.debug_send_line   debug.o
    0x08001e5e   0x000000b2   Code   RO         2530    i.entropy_gather_internal  entropy.o
    0x08001f10   0x0000008c   Code   RO         2531    i.entropy_update    entropy.o
    0x08001f9c   0x00000040   Code   RO          417    i.fputc             usart.o
    0x08001fdc   0x00000050   Code   RO         5680    i.free              mc_w.l(malloc.o)
    0x0800202c   0x00000016   Code   RO         2207    i.gcm_aes_setkey_wrap  cipher_wrap.o
    0x08002042   0x0000001a   Code   RO         2208    i.gcm_ctx_alloc     cipher_wrap.o
    0x0800205c   0x00000012   Code   RO         2209    i.gcm_ctx_free      cipher_wrap.o
    0x0800206e   0x00000194   Code   RO         2604    i.gcm_gen_table     gcm.o
    0x08002202   0x00000002   PAD
    0x08002204   0x000001c4   Code   RO         2605    i.gcm_mult          gcm.o
    0x080023c8   0x00000014   Code   RO         2054    i.get_no_padding    cipher.o
    0x080023dc   0x00000010   Code   RO         2274    i.good_nonce_len    ctr_drbg.o
    0x080023ec   0x00000020   Code   RO         3474    i.if_int            rsa.o
    0x0800240c   0x00000074   Code   RO          165    i.main              main.o
    0x08002480   0x0000006c   Code   RO         5681    i.malloc            mc_w.l(malloc.o)
    0x080024ec   0x000000b6   Code   RO         1297    i.mbedtls_aes_crypt_cbc  aes.o
    0x080025a2   0x0000003a   Code   RO         1298    i.mbedtls_aes_crypt_ecb  aes.o
    0x080025dc   0x00000016   Code   RO         1301    i.mbedtls_aes_free  aes.o
    0x080025f2   0x00000014   Code   RO         1302    i.mbedtls_aes_init  aes.o
    0x08002606   0x00000002   PAD
    0x08002608   0x000000e8   Code   RO         1303    i.mbedtls_aes_setkey_dec  aes.o
    0x080026f0   0x00000200   Code   RO         1304    i.mbedtls_aes_setkey_enc  aes.o
    0x080028f0   0x000000b2   Code   RO         1413    i.mbedtls_asn1_get_alg  asn1parse.o
    0x080029a2   0x00000064   Code   RO         1415    i.mbedtls_asn1_get_bitstring  asn1parse.o
    0x08002a06   0x00000046   Code   RO         1416    i.mbedtls_asn1_get_bitstring_null  asn1parse.o
    0x08002a4c   0x00000044   Code   RO         1417    i.mbedtls_asn1_get_bool  asn1parse.o
    0x08002a90   0x00000016   Code   RO         1419    i.mbedtls_asn1_get_int  asn1parse.o
    0x08002aa6   0x000000fe   Code   RO         1420    i.mbedtls_asn1_get_len  asn1parse.o
    0x08002ba4   0x0000003c   Code   RO         1422    i.mbedtls_asn1_get_sequence_of  asn1parse.o
    0x08002be0   0x00000038   Code   RO         1423    i.mbedtls_asn1_get_tag  asn1parse.o
    0x08002c18   0x000000a2   Code   RO         1425    i.mbedtls_asn1_traverse_sequence_of  asn1parse.o
    0x08002cba   0x00000002   PAD
    0x08002cbc   0x00000080   Code   RO         2055    i.mbedtls_cipher_auth_decrypt  cipher.o
    0x08002d3c   0x00000068   Code   RO         2056    i.mbedtls_cipher_auth_encrypt  cipher.o
    0x08002da4   0x0000008a   Code   RO         2058    i.mbedtls_cipher_crypt  cipher.o
    0x08002e2e   0x00000002   PAD
    0x08002e30   0x00000148   Code   RO         2059    i.mbedtls_cipher_finish  cipher.o
    0x08002f78   0x00000022   Code   RO         2060    i.mbedtls_cipher_free  cipher.o
    0x08002f9a   0x00000014   Code   RO         2061    i.mbedtls_cipher_get_block_size  cipher.o
    0x08002fae   0x00000014   Code   RO         4118    i.mbedtls_cipher_get_cipher_mode  ssl_msg.o
    0x08002fc2   0x00000002   PAD
    0x08002fc4   0x00000020   Code   RO         2063    i.mbedtls_cipher_info_from_type  cipher.o
    0x08002fe4   0x00000038   Code   RO         2064    i.mbedtls_cipher_info_from_values  cipher.o
    0x0800301c   0x00000012   Code   RO         2065    i.mbedtls_cipher_init  cipher.o
    0x0800302e   0x00000002   PAD
    0x08003030   0x0000001c   Code   RO         2067    i.mbedtls_cipher_reset  cipher.o
    0x0800304c   0x00000058   Code   RO         2068    i.mbedtls_cipher_set_iv  cipher.o
    0x080030a4   0x00000038   Code   RO         2069    i.mbedtls_cipher_set_padding_mode  cipher.o
    0x080030dc   0x00000084   Code   RO         2070    i.mbedtls_cipher_setkey  cipher.o
    0x08003160   0x0000003c   Code   RO         2071    i.mbedtls_cipher_setup  cipher.o
    0x0800319c   0x000001c4   Code   RO         2072    i.mbedtls_cipher_update  cipher.o
    0x08003360   0x0000001e   Code   RO         1679    i.mbedtls_clz       bignum.o
    0x0800337e   0x0000001e   Code   RO         2275    i.mbedtls_ctr_drbg_free  ctr_drbg.o
    0x0800339c   0x00000016   Code   RO         2276    i.mbedtls_ctr_drbg_init  ctr_drbg.o
    0x080033b2   0x00000028   Code   RO         2277    i.mbedtls_ctr_drbg_random  ctr_drbg.o
    0x080033da   0x000000fe   Code   RO         2278    i.mbedtls_ctr_drbg_random_with_add  ctr_drbg.o
    0x080034d8   0x00000016   Code   RO         2279    i.mbedtls_ctr_drbg_reseed  ctr_drbg.o
    0x080034ee   0x000000d2   Code   RO         2280    i.mbedtls_ctr_drbg_reseed_internal  ctr_drbg.o
    0x080035c0   0x00000084   Code   RO         2281    i.mbedtls_ctr_drbg_seed  ctr_drbg.o
    0x08003644   0x00000168   Code   RO         2376    i.mbedtls_debug_print_buf  debug.o
    0x080037ac   0x000000bc   Code   RO         2377    i.mbedtls_debug_print_crt  debug.o
    0x08003868   0x000001b4   Code   RO         2378    i.mbedtls_debug_print_mpi  debug.o
    0x08003a1c   0x00000078   Code   RO         2379    i.mbedtls_debug_print_msg  debug.o
    0x08003a94   0x00000084   Code   RO         2380    i.mbedtls_debug_print_ret  debug.o
    0x08003b18   0x0000000c   Code   RO         2381    i.mbedtls_debug_set_threshold  debug.o
    0x08003b24   0x00000058   Code   RO         2532    i.mbedtls_entropy_add_source  entropy.o
    0x08003b7c   0x00000024   Code   RO         2533    i.mbedtls_entropy_free  entropy.o
    0x08003ba0   0x0000014a   Code   RO         2534    i.mbedtls_entropy_func  entropy.o
    0x08003cea   0x00000002   PAD
    0x08003cec   0x00000038   Code   RO         2536    i.mbedtls_entropy_init  entropy.o
    0x08003d24   0x0000008e   Code   RO         2606    i.mbedtls_gcm_auth_decrypt  gcm.o
    0x08003db2   0x00000076   Code   RO         2607    i.mbedtls_gcm_crypt_and_tag  gcm.o
    0x08003e28   0x0000018c   Code   RO         2608    i.mbedtls_gcm_finish  gcm.o
    0x08003fb4   0x0000001c   Code   RO         2609    i.mbedtls_gcm_free  gcm.o
    0x08003fd0   0x00000014   Code   RO         2610    i.mbedtls_gcm_init  gcm.o
    0x08003fe4   0x00000080   Code   RO         2611    i.mbedtls_gcm_setkey  gcm.o
    0x08004064   0x0000018c   Code   RO         2612    i.mbedtls_gcm_starts  gcm.o
    0x080041f0   0x0000013c   Code   RO         2613    i.mbedtls_gcm_update  gcm.o
    0x0800432c   0x00000032   Code   RO          166    i.mbedtls_hardware_poll  main.o
    0x0800435e   0x000000fa   Code   RO         1680    i.mbedtls_int_div_int  bignum.o
    0x08004458   0x00000572   Code   RO         1305    i.mbedtls_internal_aes_decrypt  aes.o
    0x080049ca   0x00000002   PAD
    0x080049cc   0x00000572   Code   RO         1306    i.mbedtls_internal_aes_encrypt  aes.o
    0x08004f3e   0x00000002   PAD
    0x08004f40   0x00000a10   Code   RO         2866    i.mbedtls_internal_md5_process  md5.o
    0x08005950   0x00001718   Code   RO         3702    i.mbedtls_internal_sha1_process  sha1.o
    0x08007068   0x00000e1c   Code   RO         3786    i.mbedtls_internal_sha256_process  sha256.o
    0x08007e84   0x00000e4c   Code   RO         3872    i.mbedtls_internal_sha512_process  sha512.o
    0x08008cd0   0x00000080   Code   RO         2694    i.mbedtls_md        md.o
    0x08008d50   0x00000112   Code   RO         2870    i.mbedtls_md5_finish_ret  md5.o
    0x08008e62   0x00000014   Code   RO         2871    i.mbedtls_md5_free  md5.o
    0x08008e76   0x0000000e   Code   RO         2872    i.mbedtls_md5_init  md5.o
    0x08008e84   0x0000004c   Code   RO         2874    i.mbedtls_md5_ret   md5.o
    0x08008ed0   0x00000028   Code   RO         2876    i.mbedtls_md5_starts_ret  md5.o
    0x08008ef8   0x00000096   Code   RO         2878    i.mbedtls_md5_update_ret  md5.o
    0x08008f8e   0x00000002   PAD
    0x08008f90   0x00000058   Code   RO         2696    i.mbedtls_md_finish  md.o
    0x08008fe8   0x00000074   Code   RO         2697    i.mbedtls_md_free   md.o
    0x0800905c   0x0000000c   Code   RO         2699    i.mbedtls_md_get_size  md.o
    0x08009068   0x0000000c   Code   RO         2700    i.mbedtls_md_get_type  md.o
    0x08009074   0x00000078   Code   RO         2702    i.mbedtls_md_hmac_finish  md.o
    0x080090ec   0x00000038   Code   RO         2703    i.mbedtls_md_hmac_reset  md.o
    0x08009124   0x000000d8   Code   RO         2704    i.mbedtls_md_hmac_starts  md.o
    0x080091fc   0x00000028   Code   RO         2705    i.mbedtls_md_hmac_update  md.o
    0x08009224   0x00000048   Code   RO         2707    i.mbedtls_md_info_from_type  md.o
    0x0800926c   0x0000000a   Code   RO         2708    i.mbedtls_md_init   md.o
    0x08009276   0x00000002   PAD
    0x08009278   0x00000058   Code   RO         2711    i.mbedtls_md_process  md.o
    0x080092d0   0x000000d4   Code   RO         2712    i.mbedtls_md_setup  md.o
    0x080093a4   0x00000064   Code   RO         2713    i.mbedtls_md_starts  md.o
    0x08009408   0x00000064   Code   RO         2714    i.mbedtls_md_update  md.o
    0x0800946c   0x00000104   Code   RO         1681    i.mbedtls_mpi_add_abs  bignum.o
    0x08009570   0x00000040   Code   RO         1682    i.mbedtls_mpi_add_int  bignum.o
    0x080095b0   0x00000084   Code   RO         1683    i.mbedtls_mpi_add_mpi  bignum.o
    0x08009634   0x00000038   Code   RO         1684    i.mbedtls_mpi_bitlen  bignum.o
    0x0800966c   0x00000092   Code   RO         1685    i.mbedtls_mpi_cmp_abs  bignum.o
    0x080096fe   0x00000038   Code   RO         1686    i.mbedtls_mpi_cmp_int  bignum.o
    0x08009736   0x000000b4   Code   RO         1687    i.mbedtls_mpi_cmp_mpi  bignum.o
    0x080097ea   0x00000080   Code   RO         1688    i.mbedtls_mpi_copy  bignum.o
    0x0800986a   0x000003c6   Code   RO         1690    i.mbedtls_mpi_div_mpi  bignum.o
    0x08009c30   0x000004f6   Code   RO         1691    i.mbedtls_mpi_exp_mod  bignum.o
    0x0800a126   0x00000084   Code   RO         1692    i.mbedtls_mpi_fill_random  bignum.o
    0x0800a1aa   0x00000028   Code   RO         1693    i.mbedtls_mpi_free  bignum.o
    0x0800a1d2   0x00000178   Code   RO         1694    i.mbedtls_mpi_gcd   bignum.o
    0x0800a34a   0x00000026   Code   RO         1695    i.mbedtls_mpi_get_bit  bignum.o
    0x0800a370   0x00000056   Code   RO         1696    i.mbedtls_mpi_grow  bignum.o
    0x0800a3c6   0x00000010   Code   RO         1697    i.mbedtls_mpi_init  bignum.o
    0x0800a3d6   0x0000033e   Code   RO         1698    i.mbedtls_mpi_inv_mod  bignum.o
    0x0800a714   0x00000038   Code   RO         1699    i.mbedtls_mpi_lsb   bignum.o
    0x0800a74c   0x0000004c   Code   RO         1700    i.mbedtls_mpi_lset  bignum.o
    0x0800a798   0x0000008e   Code   RO         1703    i.mbedtls_mpi_mod_mpi  bignum.o
    0x0800a826   0x0000002a   Code   RO         1704    i.mbedtls_mpi_mul_int  bignum.o
    0x0800a850   0x000000f8   Code   RO         1705    i.mbedtls_mpi_mul_mpi  bignum.o
    0x0800a948   0x00000086   Code   RO         1706    i.mbedtls_mpi_read_binary  bignum.o
    0x0800a9ce   0x000000ca   Code   RO         1712    i.mbedtls_mpi_shift_l  bignum.o
    0x0800aa98   0x000000aa   Code   RO         1713    i.mbedtls_mpi_shift_r  bignum.o
    0x0800ab42   0x00000010   Code   RO         1715    i.mbedtls_mpi_size  bignum.o
    0x0800ab52   0x000000ca   Code   RO         1716    i.mbedtls_mpi_sub_abs  bignum.o
    0x0800ac1c   0x00000040   Code   RO         1717    i.mbedtls_mpi_sub_int  bignum.o
    0x0800ac5c   0x00000084   Code   RO         1718    i.mbedtls_mpi_sub_mpi  bignum.o
    0x0800ace0   0x00000082   Code   RO         1720    i.mbedtls_mpi_write_binary  bignum.o
    0x0800ad62   0x00000010   Code   RO         1723    i.mbedtls_mpi_zeroize  bignum.o
    0x0800ad72   0x0000001e   Code   RO         2968    i.mbedtls_oid_get_attr_short_name  oid.o
    0x0800ad90   0x0000001e   Code   RO         2969    i.mbedtls_oid_get_certificate_policies  oid.o
    0x0800adae   0x0000001e   Code   RO         2971    i.mbedtls_oid_get_extended_key_usage  oid.o
    0x0800adcc   0x000000cc   Code   RO         2974    i.mbedtls_oid_get_numeric_string  oid.o
    0x0800ae98   0x00000030   Code   RO         2975    i.mbedtls_oid_get_oid_by_md  oid.o
    0x0800aec8   0x0000001e   Code   RO         2978    i.mbedtls_oid_get_pk_alg  oid.o
    0x0800aee6   0x00000028   Code   RO         2979    i.mbedtls_oid_get_sig_alg  oid.o
    0x0800af0e   0x0000001e   Code   RO         2980    i.mbedtls_oid_get_sig_alg_desc  oid.o
    0x0800af2c   0x0000001e   Code   RO         2981    i.mbedtls_oid_get_x509_ext_type  oid.o
    0x0800af4a   0x0000001a   Code   RO         3131    i.mbedtls_pk_can_do  pk.o
    0x0800af64   0x00000030   Code   RO         3133    i.mbedtls_pk_debug  pk.o
    0x0800af94   0x00000058   Code   RO         3135    i.mbedtls_pk_encrypt  pk.o
    0x0800afec   0x00000020   Code   RO         3136    i.mbedtls_pk_free   pk.o
    0x0800b00c   0x00000018   Code   RO         3137    i.mbedtls_pk_get_bitlen  pk.o
    0x0800b024   0x00000020   Code   RO         3138    i.mbedtls_pk_get_name  pk.o
    0x0800b044   0x00000012   Code   RO         3139    i.mbedtls_pk_get_type  pk.o
    0x0800b056   0x00000002   PAD
    0x0800b058   0x00000014   Code   RO         3140    i.mbedtls_pk_info_from_type  pk.o
    0x0800b06c   0x0000000c   Code   RO         3141    i.mbedtls_pk_init   pk.o
    0x0800b078   0x000000e0   Code   RO         3341    i.mbedtls_pk_parse_subpubkey  pkparse.o
    0x0800b158   0x00000030   Code   RO         3142    i.mbedtls_pk_setup  pk.o
    0x0800b188   0x0000005c   Code   RO         3144    i.mbedtls_pk_sign_restartable  pk.o
    0x0800b1e4   0x00000028   Code   RO         3145    i.mbedtls_pk_verify  pk.o
    0x0800b20c   0x00000064   Code   RO         3146    i.mbedtls_pk_verify_ext  pk.o
    0x0800b270   0x0000005c   Code   RO         3147    i.mbedtls_pk_verify_restartable  pk.o
    0x0800b2cc   0x00000020   Code   RO         3414    i.mbedtls_platform_zeroize  platform_util.o
    0x0800b2ec   0x00000070   Code   RO         3475    i.mbedtls_rsa_check_privkey  rsa.o
    0x0800b35c   0x0000004c   Code   RO         3476    i.mbedtls_rsa_check_pub_priv  rsa.o
    0x0800b3a8   0x0000005c   Code   RO         3477    i.mbedtls_rsa_check_pubkey  rsa.o
    0x0800b404   0x00000200   Code   RO         3478    i.mbedtls_rsa_complete  rsa.o
    0x0800b604   0x000000a0   Code   RO         3666    i.mbedtls_rsa_deduce_crt  rsa_internal.o
    0x0800b6a4   0x0000024c   Code   RO         3667    i.mbedtls_rsa_deduce_primes  rsa_internal.o
    0x0800b8f0   0x000000f4   Code   RO         3668    i.mbedtls_rsa_deduce_private_exponent  rsa_internal.o
    0x0800b9e4   0x00000074   Code   RO         3483    i.mbedtls_rsa_free  rsa.o
    0x0800ba58   0x00000006   Code   RO         3484    i.mbedtls_rsa_get_len  rsa.o
    0x0800ba5e   0x000000c6   Code   RO         3486    i.mbedtls_rsa_import_raw  rsa.o
    0x0800bb24   0x00000024   Code   RO         3487    i.mbedtls_rsa_init  rsa.o
    0x0800bb48   0x0000004c   Code   RO         3488    i.mbedtls_rsa_pkcs1_decrypt  rsa.o
    0x0800bb94   0x00000048   Code   RO         3489    i.mbedtls_rsa_pkcs1_encrypt  rsa.o
    0x0800bbdc   0x00000048   Code   RO         3490    i.mbedtls_rsa_pkcs1_sign  rsa.o
    0x0800bc24   0x00000048   Code   RO         3491    i.mbedtls_rsa_pkcs1_verify  rsa.o
    0x0800bc6c   0x00000360   Code   RO         3492    i.mbedtls_rsa_private  rsa.o
    0x0800bfcc   0x000000ac   Code   RO         3493    i.mbedtls_rsa_public  rsa.o
    0x0800c078   0x000001fc   Code   RO         3494    i.mbedtls_rsa_rsaes_pkcs1_v15_decrypt  rsa.o
    0x0800c274   0x000000fc   Code   RO         3495    i.mbedtls_rsa_rsaes_pkcs1_v15_encrypt  rsa.o
    0x0800c370   0x000000f4   Code   RO         3496    i.mbedtls_rsa_rsassa_pkcs1_v15_sign  rsa.o
    0x0800c464   0x000000e0   Code   RO         3497    i.mbedtls_rsa_rsassa_pkcs1_v15_verify  rsa.o
    0x0800c544   0x00000012   Code   RO         3498    i.mbedtls_rsa_set_padding  rsa.o
    0x0800c556   0x00000002   PAD
    0x0800c558   0x00000150   Code   RO         3669    i.mbedtls_rsa_validate_crt  rsa_internal.o
    0x0800c6a8   0x000001cc   Code   RO         3670    i.mbedtls_rsa_validate_params  rsa_internal.o
    0x0800c874   0x00000024   Code   RO         3499    i.mbedtls_safer_memcmp  rsa.o
    0x0800c898   0x00000130   Code   RO         3706    i.mbedtls_sha1_finish_ret  sha1.o
    0x0800c9c8   0x00000014   Code   RO         3707    i.mbedtls_sha1_free  sha1.o
    0x0800c9dc   0x00000012   Code   RO         3708    i.mbedtls_sha1_init  sha1.o
    0x0800c9ee   0x00000054   Code   RO         3710    i.mbedtls_sha1_ret  sha1.o
    0x0800ca42   0x00000002   PAD
    0x0800ca44   0x00000034   Code   RO         3712    i.mbedtls_sha1_starts_ret  sha1.o
    0x0800ca78   0x0000009e   Code   RO         3714    i.mbedtls_sha1_update_ret  sha1.o
    0x0800cb16   0x0000001a   Code   RO         3788    i.mbedtls_sha256_clone  sha256.o
    0x0800cb30   0x000001a2   Code   RO         3790    i.mbedtls_sha256_finish_ret  sha256.o
    0x0800ccd2   0x00000014   Code   RO         3791    i.mbedtls_sha256_free  sha256.o
    0x0800cce6   0x00000012   Code   RO         3792    i.mbedtls_sha256_init  sha256.o
    0x0800ccf8   0x00000066   Code   RO         3794    i.mbedtls_sha256_ret  sha256.o
    0x0800cd5e   0x00000002   PAD
    0x0800cd60   0x0000009c   Code   RO         3796    i.mbedtls_sha256_starts_ret  sha256.o
    0x0800cdfc   0x0000009e   Code   RO         3798    i.mbedtls_sha256_update_ret  sha256.o
    0x0800ce9a   0x0000001a   Code   RO         3874    i.mbedtls_sha512_clone  sha512.o
    0x0800ceb4   0x000003e0   Code   RO         3876    i.mbedtls_sha512_finish_ret  sha512.o
    0x0800d294   0x00000014   Code   RO         3877    i.mbedtls_sha512_free  sha512.o
    0x0800d2a8   0x00000012   Code   RO         3878    i.mbedtls_sha512_init  sha512.o
    0x0800d2ba   0x00000066   Code   RO         3880    i.mbedtls_sha512_ret  sha512.o
    0x0800d320   0x00000124   Code   RO         3882    i.mbedtls_sha512_starts_ret  sha512.o
    0x0800d444   0x000000b2   Code   RO         3884    i.mbedtls_sha512_update_ret  sha512.o
    0x0800d4f6   0x00000008   Code   RO         4398    i.mbedtls_ssl_check_cert_usage  ssl_tls.o
    0x0800d4fe   0x00000002   PAD
    0x0800d500   0x00000060   Code   RO         4120    i.mbedtls_ssl_check_timer  ssl_msg.o
    0x0800d560   0x00000014   Code   RO         4015    i.mbedtls_ssl_chk_buf_ptr  ssl_cli.o
    0x0800d574   0x0000002a   Code   RO         4016    i.mbedtls_ssl_ciphersuite_cert_req_allowed  ssl_cli.o
    0x0800d59e   0x00000002   PAD
    0x0800d5a0   0x00000020   Code   RO         3964    i.mbedtls_ssl_ciphersuite_from_id  ssl_ciphersuites.o
    0x0800d5c0   0x0000002c   Code   RO         4400    i.mbedtls_ssl_ciphersuite_uses_srv_cert  ssl_tls.o
    0x0800d5ec   0x000000e8   Code   RO         4121    i.mbedtls_ssl_close_notify  ssl_msg.o
    0x0800d6d4   0x0000000a   Code   RO         4401    i.mbedtls_ssl_conf_authmode  ssl_tls.o
    0x0800d6de   0x00000006   Code   RO         4406    i.mbedtls_ssl_conf_dbg  ssl_tls.o
    0x0800d6e4   0x0000000a   Code   RO         4407    i.mbedtls_ssl_conf_endpoint  ssl_tls.o
    0x0800d6ee   0x00000006   Code   RO         4413    i.mbedtls_ssl_conf_rng  ssl_tls.o
    0x0800d6f4   0x0000000a   Code   RO         4415    i.mbedtls_ssl_conf_transport  ssl_tls.o
    0x0800d6fe   0x00000002   PAD
    0x0800d700   0x00000098   Code   RO         4417    i.mbedtls_ssl_config_defaults  ssl_tls.o
    0x0800d798   0x00000014   Code   RO         4418    i.mbedtls_ssl_config_free  ssl_tls.o
    0x0800d7ac   0x0000000e   Code   RO         4419    i.mbedtls_ssl_config_init  ssl_tls.o
    0x0800d7ba   0x00000002   PAD
    0x0800d7bc   0x00000790   Code   RO         4122    i.mbedtls_ssl_decrypt_buf  ssl_msg.o
    0x0800df4c   0x00000198   Code   RO         4420    i.mbedtls_ssl_derive_keys  ssl_tls.o
    0x0800e0e4   0x00000714   Code   RO         4123    i.mbedtls_ssl_encrypt_buf  ssl_msg.o
    0x0800e7f8   0x00000254   Code   RO         4124    i.mbedtls_ssl_fetch_input  ssl_msg.o
    0x0800ea4c   0x000001fc   Code   RO         4125    i.mbedtls_ssl_flush_output  ssl_msg.o
    0x0800ec48   0x00000110   Code   RO         4421    i.mbedtls_ssl_free  ssl_tls.o
    0x0800ed58   0x00000020   Code   RO         3967    i.mbedtls_ssl_get_ciphersuite_name  ssl_ciphersuites.o
    0x0800ed78   0x00000008   Code   RO         4424    i.mbedtls_ssl_get_max_out_record_payload  ssl_tls.o
    0x0800ed80   0x0000023c   Code   RO         4128    i.mbedtls_ssl_handle_message_type  ssl_msg.o
    0x0800efbc   0x00000094   Code   RO         4430    i.mbedtls_ssl_handshake  ssl_tls.o
    0x0800f050   0x00000178   Code   RO         4017    i.mbedtls_ssl_handshake_client_step  ssl_cli.o
    0x0800f1c8   0x00000030   Code   RO         4431    i.mbedtls_ssl_handshake_free  ssl_tls.o
    0x0800f1f8   0x00000030   Code   RO         4432    i.mbedtls_ssl_handshake_step  ssl_tls.o
    0x0800f228   0x000000e4   Code   RO         4433    i.mbedtls_ssl_handshake_wrapup  ssl_tls.o
    0x0800f30c   0x000000b4   Code   RO         4434    i.mbedtls_ssl_handshake_wrapup_free_hs_transform  ssl_tls.o
    0x0800f3c0   0x0000002e   Code   RO         4435    i.mbedtls_ssl_hash_from_md_alg  ssl_tls.o
    0x0800f3ee   0x0000000e   Code   RO         4436    i.mbedtls_ssl_init  ssl_tls.o
    0x0800f3fc   0x00000008   Code   RO         3970    i.mbedtls_ssl_list_ciphersuites  ssl_ciphersuites.o
    0x0800f404   0x0000007c   Code   RO         4438    i.mbedtls_ssl_optimize_checksum  ssl_tls.o
    0x0800f480   0x0000000e   Code   RO         4129    i.mbedtls_ssl_out_hdr_len  ssl_msg.o
    0x0800f48e   0x00000020   Code   RO         4439    i.mbedtls_ssl_own_cert  ssl_tls.o
    0x0800f4ae   0x00000020   Code   RO         4018    i.mbedtls_ssl_own_key  ssl_cli.o
    0x0800f4ce   0x00000002   PAD
    0x0800f4d0   0x000001e0   Code   RO         4440    i.mbedtls_ssl_parse_certificate  ssl_tls.o
    0x0800f6b0   0x00000170   Code   RO         4130    i.mbedtls_ssl_parse_change_cipher_spec  ssl_msg.o
    0x0800f820   0x000001d8   Code   RO         4441    i.mbedtls_ssl_parse_finished  ssl_tls.o
    0x0800f9f8   0x0000012c   Code   RO         4131    i.mbedtls_ssl_prepare_handshake_record  ssl_msg.o
    0x0800fb24   0x0000033c   Code   RO         4132    i.mbedtls_ssl_read  ssl_msg.o
    0x0800fe60   0x0000016c   Code   RO         4133    i.mbedtls_ssl_read_record  ssl_msg.o
    0x0800ffcc   0x0000000c   Code   RO         4134    i.mbedtls_ssl_read_version  ssl_msg.o
    0x0800ffd8   0x00000024   Code   RO         4135    i.mbedtls_ssl_reset_in_out_pointers  ssl_msg.o
    0x0800fffc   0x0000011c   Code   RO         4136    i.mbedtls_ssl_send_alert_message  ssl_msg.o
    0x08010118   0x0000001a   Code   RO         4445    i.mbedtls_ssl_session_free  ssl_tls.o
    0x08010132   0x0000000e   Code   RO         4446    i.mbedtls_ssl_session_init  ssl_tls.o
    0x08010140   0x0000000e   Code   RO         4451    i.mbedtls_ssl_set_bio  ssl_tls.o
    0x0801014e   0x00000002   PAD
    0x08010150   0x00000060   Code   RO         4138    i.mbedtls_ssl_set_timer  ssl_msg.o
    0x080101b0   0x000000f8   Code   RO         4457    i.mbedtls_ssl_setup  ssl_tls.o
    0x080102a8   0x00000016   Code   RO         4458    i.mbedtls_ssl_sig_from_pk  ssl_tls.o
    0x080102be   0x00000006   Code   RO         4461    i.mbedtls_ssl_sig_hash_set_const_hash  ssl_tls.o
    0x080102c4   0x00000034   Code   RO         4139    i.mbedtls_ssl_transform_free  ssl_msg.o
    0x080102f8   0x0000002e   Code   RO         4464    i.mbedtls_ssl_transform_init  ssl_tls.o
    0x08010326   0x00000020   Code   RO         4140    i.mbedtls_ssl_update_handshake_status  ssl_msg.o
    0x08010346   0x00000018   Code   RO         4141    i.mbedtls_ssl_update_in_pointers  ssl_msg.o
    0x0801035e   0x00000034   Code   RO         4142    i.mbedtls_ssl_update_out_pointers  ssl_msg.o
    0x08010392   0x00000002   PAD
    0x08010394   0x000000cc   Code   RO         4143    i.mbedtls_ssl_write  ssl_msg.o
    0x08010460   0x00000230   Code   RO         4465    i.mbedtls_ssl_write_certificate  ssl_tls.o
    0x08010690   0x000000e4   Code   RO         4144    i.mbedtls_ssl_write_change_cipher_spec  ssl_msg.o
    0x08010774   0x00000170   Code   RO         4466    i.mbedtls_ssl_write_finished  ssl_tls.o
    0x080108e4   0x000001b4   Code   RO         4145    i.mbedtls_ssl_write_handshake_msg  ssl_msg.o
    0x08010a98   0x00000328   Code   RO         4146    i.mbedtls_ssl_write_record  ssl_msg.o
    0x08010dc0   0x00000008   Code   RO         4147    i.mbedtls_ssl_write_version  ssl_msg.o
    0x08010dc8   0x000000ec   Code   RO         5102    i.mbedtls_x509_crt_free  x509_crt.o
    0x08010eb4   0x000006f4   Code   RO         5103    i.mbedtls_x509_crt_info  x509_crt.o
    0x080115a8   0x00000010   Code   RO         5104    i.mbedtls_x509_crt_init  x509_crt.o
    0x080115b8   0x000000a0   Code   RO         5107    i.mbedtls_x509_crt_parse_der_internal  x509_crt.o
    0x08011658   0x0000001c   Code   RO         5108    i.mbedtls_x509_crt_parse_der_nocopy  x509_crt.o
    0x08011674   0x0000002a   Code   RO         5112    i.mbedtls_x509_crt_verify_restartable  x509_crt.o
    0x0801169e   0x00000002   PAD
    0x080116a0   0x00000124   Code   RO         4977    i.mbedtls_x509_dn_gets  x509.o
    0x080117c4   0x0000002e   Code   RO         4978    i.mbedtls_x509_get_alg  x509.o
    0x080117f2   0x00000002   PAD
    0x080117f4   0x00000068   Code   RO         4980    i.mbedtls_x509_get_ext  x509.o
    0x0801185c   0x0000008c   Code   RO         4981    i.mbedtls_x509_get_name  x509.o
    0x080118e8   0x00000064   Code   RO         4982    i.mbedtls_x509_get_serial  x509.o
    0x0801194c   0x00000050   Code   RO         4983    i.mbedtls_x509_get_sig  x509.o
    0x0801199c   0x00000054   Code   RO         4984    i.mbedtls_x509_get_sig_alg  x509.o
    0x080119f0   0x00000068   Code   RO         4985    i.mbedtls_x509_get_time  x509.o
    0x08011a58   0x0000004c   Code   RO         4986    i.mbedtls_x509_key_size_helper  x509.o
    0x08011aa4   0x0000006c   Code   RO         5114    i.mbedtls_x509_parse_subject_alt_name  x509_crt.o
    0x08011b10   0x000000bc   Code   RO         4987    i.mbedtls_x509_serial_gets  x509.o
    0x08011bcc   0x00000068   Code   RO         4988    i.mbedtls_x509_sig_alg_gets  x509.o
    0x08011c34   0x00000006   Code   RO         4989    i.mbedtls_x509_time_is_future  x509.o
    0x08011c3a   0x00000006   Code   RO         4990    i.mbedtls_x509_time_is_past  x509.o
    0x08011c40   0x0000005e   Code   RO         3500    i.mem_move_to_left  rsa.o
    0x08011c9e   0x00000038   Code   RO         1724    i.mpi_bigendian_to_host  bignum.o
    0x08011cd6   0x00000032   Code   RO         1726    i.mpi_montg_init    bignum.o
    0x08011d08   0x000000bc   Code   RO         1727    i.mpi_montmul       bignum.o
    0x08011dc4   0x0000002c   Code   RO         1728    i.mpi_montred       bignum.o
    0x08011df0   0x00000d1e   Code   RO         1729    i.mpi_mul_hlp       bignum.o
    0x08012b0e   0x00000026   Code   RO         1730    i.mpi_safe_cond_assign  bignum.o
    0x08012b34   0x00000044   Code   RO         1731    i.mpi_sub_hlp       bignum.o
    0x08012b78   0x0000000c   Code   RO         1732    i.mpi_uint_bigendian_to_host  bignum.o
    0x08012b84   0x0000001c   Code   RO         1733    i.mpi_uint_bigendian_to_host_c  bignum.o
    0x08012ba0   0x00000030   Code   RO          167    i.my_debug          main.o
    0x08012bd0   0x00000004   Code   RO          168    i.net_recv          main.o
    0x08012bd4   0x00000004   Code   RO          169    i.net_send          main.o
    0x08012bd8   0x0000003c   Code   RO         2982    i.oid_certificate_policies_from_asn1  oid.o
    0x08012c14   0x0000003c   Code   RO         2984    i.oid_ext_key_usage_from_asn1  oid.o
    0x08012c50   0x0000003c   Code   RO         2987    i.oid_pk_alg_from_asn1  oid.o
    0x08012c8c   0x0000003c   Code   RO         2988    i.oid_sig_alg_from_asn1  oid.o
    0x08012cc8   0x0000003c   Code   RO         2989    i.oid_x509_ext_from_asn1  oid.o
    0x08012d04   0x0000003c   Code   RO         2990    i.oid_x520_attr_from_asn1  oid.o
    0x08012d40   0x00000064   Code   RO         3342    i.pk_get_pk_alg     pkparse.o
    0x08012da4   0x000000e8   Code   RO         3343    i.pk_get_rsapubkey  pkparse.o
    0x08012e8c   0x00000028   Code   RO         3148    i.pk_hashlen_helper  pk.o
    0x08012eb4   0x0000001c   Code   RO         3251    i.rsa_alloc_wrap    pk_wrap.o
    0x08012ed0   0x00000012   Code   RO         3252    i.rsa_can_do        pk_wrap.o
    0x08012ee2   0x00000002   PAD
    0x08012ee4   0x000000cc   Code   RO         3501    i.rsa_check_context  rsa.o
    0x08012fb0   0x00000010   Code   RO         3253    i.rsa_check_pair_wrap  pk_wrap.o
    0x08012fc0   0x00000030   Code   RO         3254    i.rsa_debug         pk_wrap.o
    0x08012ff0   0x00000044   Code   RO         3255    i.rsa_decrypt_wrap  pk_wrap.o
    0x08013034   0x00000048   Code   RO         3256    i.rsa_encrypt_wrap  pk_wrap.o
    0x0801307c   0x00000012   Code   RO         3257    i.rsa_free_wrap     pk_wrap.o
    0x0801308e   0x00000010   Code   RO         3258    i.rsa_get_bitlen    pk_wrap.o
    0x0801309e   0x00000002   PAD
    0x080130a0   0x00000110   Code   RO         3502    i.rsa_prepare_blinding  rsa.o
    0x080131b0   0x00000144   Code   RO         3503    i.rsa_rsassa_pkcs1_v15_encode  rsa.o
    0x080132f4   0x0000003c   Code   RO         3259    i.rsa_sign_wrap     pk_wrap.o
    0x08013330   0x00000060   Code   RO         3260    i.rsa_verify_wrap   pk_wrap.o
    0x08013390   0x00000008   Code   RO         3504    i.size_greater_than  rsa.o
    0x08013398   0x00000040   Code   RO         4148    i.ssl_build_record_nonce  ssl_msg.o
    0x080133d8   0x00000160   Code   RO         4468    i.ssl_calc_finished_tls_sha256  ssl_tls.o
    0x08013538   0x00000164   Code   RO         4469    i.ssl_calc_finished_tls_sha384  ssl_tls.o
    0x0801369c   0x000000d4   Code   RO         4470    i.ssl_calc_verify_tls_sha256  ssl_tls.o
    0x08013770   0x000000d4   Code   RO         4471    i.ssl_calc_verify_tls_sha384  ssl_tls.o
    0x08013844   0x00000020   Code   RO         4149    i.ssl_check_record_type  ssl_msg.o
    0x08013864   0x0000001a   Code   RO         4472    i.ssl_clear_peer_cert  ssl_tls.o
    0x0801387e   0x00000002   PAD
    0x08013880   0x00000108   Code   RO         4473    i.ssl_compute_master  ssl_tls.o
    0x08013988   0x000000d8   Code   RO         4150    i.ssl_consume_current_message  ssl_msg.o
    0x08013a60   0x00000030   Code   RO         4151    i.ssl_extract_add_data_from_record  ssl_msg.o
    0x08013a90   0x0000009c   Code   RO         4019    i.ssl_generate_random  ssl_cli.o
    0x08013b2c   0x00000018   Code   RO         4152    i.ssl_get_hs_total_len  ssl_msg.o
    0x08013b44   0x000000f4   Code   RO         4153    i.ssl_get_next_record  ssl_msg.o
    0x08013c38   0x000000e8   Code   RO         4474    i.ssl_handshake_init  ssl_tls.o
    0x08013d20   0x00000054   Code   RO         4475    i.ssl_handshake_params_init  ssl_tls.o
    0x08013d74   0x000001c8   Code   RO          170    i.ssl_int           main.o
    0x08013f3c   0x00000018   Code   RO         4476    i.ssl_key_cert_free  ssl_tls.o
    0x08013f54   0x00000238   Code   RO         4477    i.ssl_parse_certificate_chain  ssl_tls.o
    0x0801418c   0x0000001c   Code   RO         4478    i.ssl_parse_certificate_coordinate  ssl_tls.o
    0x080141a8   0x00000354   Code   RO         4020    i.ssl_parse_certificate_request  ssl_cli.o
    0x080144fc   0x0000030c   Code   RO         4479    i.ssl_parse_certificate_verify  ssl_tls.o
    0x08014808   0x000001fc   Code   RO         4154    i.ssl_parse_record_header  ssl_msg.o
    0x08014a04   0x00000084   Code   RO         4021    i.ssl_parse_renegotiation_info  ssl_cli.o
    0x08014a88   0x000008d4   Code   RO         4022    i.ssl_parse_server_hello  ssl_cli.o
    0x0801535c   0x00000144   Code   RO         4023    i.ssl_parse_server_hello_done  ssl_cli.o
    0x080154a0   0x0000024c   Code   RO         4024    i.ssl_parse_server_key_exchange  ssl_cli.o
    0x080156ec   0x0000057c   Code   RO         4480    i.ssl_populate_transform  ssl_tls.o
    0x08015c68   0x00000298   Code   RO         4155    i.ssl_prepare_record_content  ssl_msg.o
    0x08015f00   0x0000001a   Code   RO         4156    i.ssl_read_memory   ssl_msg.o
    0x08015f1a   0x0000000e   Code   RO         4157    i.ssl_record_is_in_progress  ssl_msg.o
    0x08015f28   0x000000ac   Code   RO         4481    i.ssl_remember_peer_crt_digest  ssl_tls.o
    0x08015fd4   0x00000038   Code   RO         4482    i.ssl_remember_peer_pubkey  ssl_tls.o
    0x0801600c   0x0000005c   Code   RO         4485    i.ssl_set_handshake_prfs  ssl_tls.o
    0x08016068   0x00000012   Code   RO         4158    i.ssl_transform_aead_dynamic_iv_is_explicit  ssl_msg.o
    0x0801607a   0x00000016   Code   RO         4159    i.ssl_transform_get_explicit_iv_len  ssl_msg.o
    0x08016090   0x00000018   Code   RO         4486    i.ssl_update_checksum_sha256  ssl_tls.o
    0x080160a8   0x00000018   Code   RO         4487    i.ssl_update_checksum_sha384  ssl_tls.o
    0x080160c0   0x00000026   Code   RO         4488    i.ssl_update_checksum_start  ssl_tls.o
    0x080160e6   0x0000001e   Code   RO         4025    i.ssl_validate_ciphersuite  ssl_cli.o
    0x08016104   0x00000304   Code   RO         4026    i.ssl_write_certificate_verify  ssl_cli.o
    0x08016408   0x0000062c   Code   RO         4027    i.ssl_write_client_hello  ssl_cli.o
    0x08016a34   0x00000140   Code   RO         4028    i.ssl_write_client_key_exchange  ssl_cli.o
    0x08016b74   0x000001c0   Code   RO         4029    i.ssl_write_encrypted_pms  ssl_cli.o
    0x08016d34   0x0000011c   Code   RO         4160    i.ssl_write_real    ssl_msg.o
    0x08016e50   0x00000170   Code   RO         4030    i.ssl_write_signature_algorithms_ext  ssl_cli.o
    0x08016fc0   0x0000000c   Code   RO          171    i.time              main.o
    0x08016fcc   0x0000013c   Code   RO         4489    i.tls_prf_generic   ssl_tls.o
    0x08017108   0x0000002a   Code   RO         4490    i.tls_prf_sha256    ssl_tls.o
    0x08017132   0x0000002a   Code   RO         4491    i.tls_prf_sha384    ssl_tls.o
    0x0801715c   0x00000084   Code   RO          418    i.uart_init         usart.o
    0x080171e0   0x00000074   Code   RO         5115    i.x509_check_wildcard  x509_crt.o
    0x08017254   0x00000032   Code   RO         5116    i.x509_crt_check_cn  x509_crt.o
    0x08017286   0x00000042   Code   RO         5117    i.x509_crt_check_ee_locally_trusted  x509_crt.o
    0x080172c8   0x0000003e   Code   RO         5118    i.x509_crt_check_parent  x509_crt.o
    0x08017306   0x00000076   Code   RO         5119    i.x509_crt_check_signature  x509_crt.o
    0x0801737c   0x00000066   Code   RO         5120    i.x509_crt_find_parent  x509_crt.o
    0x080173e2   0x000000ae   Code   RO         5121    i.x509_crt_find_parent_in  x509_crt.o
    0x08017490   0x0000004c   Code   RO         5122    i.x509_crt_merge_flags_with_cb  x509_crt.o
    0x080174dc   0x0000034c   Code   RO         5123    i.x509_crt_parse_der_core  x509_crt.o
    0x08017828   0x00000130   Code   RO         5124    i.x509_crt_verify_chain  x509_crt.o
    0x08017958   0x0000001e   Code   RO         5125    i.x509_crt_verify_chain_reset  x509_crt.o
    0x08017976   0x00000002   PAD
    0x08017978   0x00000090   Code   RO         5126    i.x509_crt_verify_name  x509_crt.o
    0x08017a08   0x000000d0   Code   RO         5127    i.x509_crt_verify_restartable_ca_cb  x509_crt.o
    0x08017ad8   0x000000e4   Code   RO         4991    i.x509_date_is_valid  x509.o
    0x08017bbc   0x00000100   Code   RO         4992    i.x509_get_attr_type_value  x509.o
    0x08017cbc   0x000000b4   Code   RO         5128    i.x509_get_basic_constraints  x509_crt.o
    0x08017d70   0x0000013c   Code   RO         5129    i.x509_get_certificate_policies  x509_crt.o
    0x08017eac   0x00000238   Code   RO         5130    i.x509_get_crt_ext  x509_crt.o
    0x080180e4   0x00000064   Code   RO         5131    i.x509_get_dates    x509_crt.o
    0x08018148   0x00000038   Code   RO         5132    i.x509_get_ext_key_usage  x509_crt.o
    0x08018180   0x00000060   Code   RO         5133    i.x509_get_key_usage  x509_crt.o
    0x080181e0   0x00000040   Code   RO         5134    i.x509_get_ns_cert_type  x509_crt.o
