:020000040800F2
:10000000B0B9002045010008B10900087D090008C9
:10001000AD090008750700084F0F00080000000038
:10002000000000000000000000000000590B000864
:100030007907000800000000610A00086D0C000844
:100040005F0100085F0100085F0100085F01000810
:100050005F0100085F0100085F0100085F01000800
:100060005F0100085F0100085F0100085F010008F0
:100070005F0100085F0100085F0100085F010008E0
:100080005F0100085F0100085F0100085F010008D0
:100090005F0100085F0100085F0100085F010008C0
:1000A0005F0100085F0100085F0100085F010008B0
:1000B0005F0100085F0100085F0100085F010008A0
:1000C0005F0100085F0100085F0100085F01000890
:1000D0005F010008290D00085F0100085F010008AA
:1000E0005F0100085F0100085F0100085F01000870
:1000F0005F0100085F0100085F0100085F01000860
:100100005F0100085F0100085F0100085F0100084F
:100110005F0100085F0100085F0100085F0100083F
:100120005F0100085F0100085F0100085F0100082F
:10013000DFF80CD000F07EFA004800470D240008DC
:10014000B0B900200648804706480047FEE7FEE7B2
:10015000FEE7FEE7FEE7FEE7FEE7FEE7FEE7FEE777
:10016000C90C0008310100080649074A08685043D5
:1001700043F23902104408604008704701490860A2
:1001800070470000980000206D4EC64110B5431A1C
:10019000934209D28318881803E010F8011D03F870
:1001A000011D521EF9D210BD40EA01039B0703D086
:1001B00009E008C9121F08C0042AFAD203E011F8A6
:1001C000013B00F8013B521EF9D210BDD2B201E052
:1001D00000F8012B491EFBD270470022F6E710B54C
:1001E00013460A4604461946FFF7F0FF204610BDA5
:1001F000421C10F8011B0029FBD1801A704730B552
:1002000004460020034600E05B1C934203D2E05CFE
:10021000CD5C401BF8D030BD10B54843044602F019
:100220002FF9002805D00021002C02D0641E0155B2
:10023000FAE710BD30B50B4601460020202201240C
:1002400009E021FA02F59D4205D303FA02F5491BA4
:1002500004FA02F52844151EA2F10102F1DC30BDBA
:100260002DE9F05F0546002092469B4688460646EB
:10027000814640241BE0284641464746224600F07E
:10028000FAF953465A46C01A914110D311461846FE
:10029000224600F0E1F92D1A67EB01084F4622468D
:1002A0000120002100F0D8F917EB00094E41201E73
:1002B000A4F10104DFDC484631462A464346BDE846
:1002C000F09F2DE9FE4F804681EA0300C00F0C46E7
:1002D000009021F0004123F00045B8EB0200A94155
:1002E00005D24046214690461C460B46024623F066
:1002F0000040104347D0270DC7F30A00C3F30A514B
:100300000290401A019040286BDAC3F3130040F4C6
:10031000801B0098924620B10023D2EB030A63EBC6
:100320000B0B01985946C0F14002504600F094F979
:1003300006460D4650465946019A00F0ACF910EBBE
:1003400008006141002487EA115284EAE7731A43E6
:1003500040D0009A62B3019A012A4FEA075215DC95
:10036000001B61EB02014FF0004202EA0752CDE9A7
:100370000042001C41F5801132462B4600F0ACF9DA
:1003800003B0BDE8F08F40462146F9E7001B61EB62
:100390000201001C41F5801300185B412018A2F5F2
:1003A000001747EB030140EAD570B6196D4111E023
:1003B0006D084FEA360645EAC0754FEA0752001B42
:1003C00061EB0201001C41F5801149084FEA300041
:1003D0000019514132462B4603B0BDE8F04F00F002
:1003E0006CB90098012240000023D0EB020263EBBD
:1003F000E073009821464FEAE074B8EB000061EB2F
:100400000401E9E783F000435BE781F0004158E72E
:100410002DE9FE4F81EA030404F0004421F000417D
:1004200000944FF0000B23F0004350EA01045ED02B
:1004300052EA03045BD0C3F30A54C1F30A552C44B7
:10044000A4F2F3340194A0FB0254C1F3130141F46C
:100450008011C3F3130343F4801301FB024400FB38
:10046000034E840A970A44EA815447EA8357A4FB5F
:10047000076802958D0A05FB07854FEA932C04FB5C
:100480000C542705029D4FEA065847EA1637B5EB8C
:1004900008056EEB070C870E920E47EA811742EAB9
:1004A0008312A7FB0201B6EB0B0164EB00042B0DDA
:1004B00043EA0C335E1844EB1C50DA465146E7FB26
:1004C0000201C5F313044FEA0B3343EA14534FEA16
:1004D0000432019C43EA0603A4F10C040294009C3C
:1004E000CDE900B400F0F8F803B0BDE8F08F0020CB
:1004F0000146F9E72DE9F04D81EA030404F0004BD1
:1005000021F0004514464FF0000A23F0004150EA64
:10051000050220D054EA01021DD0C5F30A57024655
:10052000C5F31303C1F31300C1F30A5640F4801559
:1005300043F48013A7EB0608101BD64608F2FD38DB
:1005400073EB050002D308F1010801E092185B414A
:10055000B8F1000F03DA00200146BDE8F08D00205D
:100560004FF48011064684460EE0171B73EB050717
:1005700005D3121B63EB050306434CEA010C490843
:100580004FEA300092185B4150EA0107EDD152EA80
:10059000030012D082EA040083EA0501084305D073
:1005A000101BAB4106D20122002306E000224FF0CF
:1005B000004302E06FF0010253101AEB06004CEB0F
:1005C000085110EB0A0041EB0B01BDE8F04D00F0C3
:1005D00074B8C1F30A52C1F3130140F2FF3341F47E
:1005E00080119A4202DA00200146704740F23343FC
:1005F0009A42A2F2334202DC524200F03CB800F0D0
:100600002BB8000030B5041E71F1000404DB4FF07C
:100610000044404264EB0101141E73F1000405DB49
:100620001C464FF00043524263EB0403994208BF5B
:10063000904230BD064C074D06E0E06840F00103F3
:1006400094E8070098471034AC42F6D3FFF774FDE6
:10065000A0CF0108C0CF0108202A04DB203A00FA0D
:1006600002F1002070479140C2F1200320FA03F309
:10067000194390407047202A04DB203A21FA02F007
:100680000021704721FA02F3D040C2F120029140CC
:10069000084319467047202A06DBCB17203A41FA57
:1006A00002F043EAE07306E041FA02F3D040C2F1FF
:1006B0002002914008431946704710B5141E73F18B
:1006C000000408DA401C41F1000192185B411A4312
:1006D00001D120F0010010BD2DE9F04D92469B465E
:1006E00011B1B1FA81F202E0B0FA80F22032904604
:1006F000FFF7B2FF04460F4640EA0A0041EA0B0149
:1007000053465A46084313D0114653EA010019D004
:10071000C8F140025046FFF7AEFF05460E46504670
:1007200059464246FFF798FF084305D0012004E0F0
:1007300020463946BDE8F08D0020054346EAE076C4
:100740002C4337430A986305E40AA0EB0800002213
:10075000FD0A44EA47540A3002D500200146E9E781
:10076000010510196941DDE9084500196941BDE835
:10077000F04DA2E700BFFEE77047000070B56FF0D4
:10078000040000F05FFA144800684FF47A72B0FB7E
:10079000F2F1481EB0F1807F00D31BE0481E4FF0FD
:1007A000E022506150170F22002807DA13071D0EB0
:1007B0000A4B00F00F04241F1D5503E013071C0E05
:1007C000074B1C5400BF00204FF0E022906107202F
:1007D000106100BF70BD00003000002018ED00E087
:1007E00000E400E02DE9F04102460025002600204B
:1007F00000230024002791F803C00CF00F0591F8A6
:1008000003C00CF0100CBCF1000F03D091F802C033
:100810004CEA050591F800C0BCF1000F31D0146816
:1008200000202BE04FF0010C0CFA00F3B1F800C0EF
:100830000CEA03069E4220D183004FF00F0C0CFA05
:1008400003F7BC4305FA03FC4CEA040491F803C027
:10085000BCF1280F06D14FF0010C0CFA00FCC2F8D5
:1008600014C00AE091F803C0BCF1480F05D14FF065
:10087000010C0CFA00FCC2F810C0401C0828D1D3AF
:100880001460B1F800C0BCF1FF0F34DD54680020E3
:100890002EE000F1080C4FF0010808FA0CF3B1F853
:1008A00000C00CEA03069E4221D183004FF00F0CDA
:1008B0000CFA03F7BC4305FA03FC4CEA040491F874
:1008C00003C0BCF1280F05D100F1080C08FA0CF8A0
:1008D000C2F8148091F803C0BCF1480F07D100F1B1
:1008E000080C4FF0010808FA0CF8C2F81080401C00
:1008F0000828CED35460BDE8F081000008B501217E
:100900007D2000F0AFF84FF40050ADF8000010204B
:100910008DF8030003208DF8020069461548FFF7A3
:1009200061FF0420ADF8000010208DF803000320C3
:100930008DF8020069461048FFF754FF2020ADF8FB
:10094000000048208DF8030003208DF8020069465E
:100950000948FFF747FF4FF40070ADF8000014207E
:100960008DF8030003208DF8020069460248FFF766
:1009700039FF08BD00100140000C014011E071B6C4
:1009800000BFBFF34F8F0748006800F4E0600649DE
:100990000843001D03490860BFF34F8F00BF00BF2D
:1009A000FEE7ECE70CED00E00000FA0500BFFEE713
:1009B000704708B54FF4A06000F048F825208DF886
:1009C000000000208DF801008DF8020001208DF854
:1009D0000300684600F002F808BD000070B5002171
:1009E00000230F22C47804B3154C246804F4E06497
:1009F000C4F5E064210AC1F10403CA40447804FA52
:100A000003F184781440214309010E4C0678A15566
:100A1000047804F01F050124AC4005786D11AD0089
:100A200005F1E025C5F8004109E0047804F01F0550
:100A30000124AC40044D0678761145F8264070BD7F
:100A40000CED00E000E400E080E100E00249014339
:100A5000024A1160704700000000FA050CED00E04A
:100A60007047000029B1064A92690243044B9A611B
:100A700004E0034A92698243014B9A617047000087
:100A80000010024030B500210022002400232D4D2B
:100A90006D6805F00C0121B1042905D0082923D186
:100AA00005E0294D056022E0274D05601FE0254D3A
:100AB0006D6805F47012234D6D6805F480340225CD
:100AC00005EB92421CB9214D554305600BE01D4DCD
:100AD0006D6805F400351DB11C4D5543056002E0FD
:100AE000194D5543056002E0174D056000BF00BF7A
:100AF000144D6D6805F0F0010909154D6B5C056832
:100B0000DD4045600F4D6D6805F4E061090A104D48
:100B10006B5C4568DD4085600A4D6D6805F4605189
:100B2000C90A0B4D6B5C4568DD40C560054D6D68BD
:100B300005F44041890B074D6B5CC568B5FBF3F5C7
:100B4000056130BD0010024000127A0000093D002E
:100B50004400002054000020704710B500F002F857
:100B600010BD00000CB500200190009033480068D3
:100B700040F480303149086000BF3048006800F41C
:100B8000003000900198401C0190009818B901981D
:100B9000B0F5A06FF1D12948006800F4003010B121
:100BA0000120009001E0002000900098012843D12E
:100BB0002348006840F0100021490860084600689A
:100BC00020F0030008600846006840F0020008605A
:100BD0001A48406819494860084640684860084615
:100BE000406840F4806048600846406820F47C100B
:100BF00048600846406840F4E810486008460068CD
:100C000040F08070086000BF0C48006800F0007081
:100C10000028F9D00948406820F0030007494860DF
:100C20000846406840F00200486000BF0348406842
:100C300000F00C000828F9D10CBD000000100240A3
:100C400000200240042808D14FF0E021096941F05A
:100C500004014FF0E022116107E04FF0E021096943
:100C600021F004014FF0E022116170471048006844
:100C7000401C0F4908600F480068B8B10E48006872
:100C8000401C0D490860084600680C490968884204
:100C90000CD300200849086006480068084908602D
:100CA00000200449086001200649087070470000D0
:100CB000180000201C000020240000202800002034
:100CC000200000202C00002010B51348006840F0E0
:100CD00001001149086008464068104908400E4963
:100CE0004860084600680E4908400B4908600846FD
:100CF000006820F4802008600846406820F4FE0068
:100D000048604FF41F008860FFF727FF4FF0006036
:100D10000449086010BD0000001002400000FFF808
:100D2000FFFFF6FE08ED00E010B540F225510D483A
:100D300000F048F8A8B10B4800F000F9C4B20A4826
:100D40000A490968445409480068401C074908607A
:100D5000084600688C2801D900200860002004495A
:100D6000086010BD00380140181500201C0000204C
:100D70002400002010B50022002340F66A14A1428E
:100D800000D100BF0A1201249440A3B2DC430480C6
:100D900010BD21B1828942F40052828104E082892F
:100DA0004DF6FF731A408281704702460020B1F56C
:100DB000007F00D100BF13880B400BB1012000E081
:100DC0000020704770B50246002400230025002053
:100DD00040F66A16B14200D100BFC1F3421501F0DE
:100DE0001F03012606FA03F3012D02D19689334031
:100DF00006E0022D02D1168A334001E0968A334084
:100E00000C12012606FA04F41688344013B10CB112
:100E1000012000E0002070BDF0B50346002400264C
:100E20000025002040F66A17B94200D100BF1846DD
:100E3000C1F3421401F01F06012707FA06F5012C41
:100E400001D10C3004E0022C01D1103000E014304C
:100E50001AB107682F43076002E00768AF430760D5
:100E6000F0BD00002DE9F04786B005460E4600248F
:100E7000A24600BFA1460027B08900B100BF2F469F
:100E80002C8A4CF6FF700440F08804432C82AC8915
:100E90004EF6F3100440B088318908437189084345
:100EA0000443AC81AC8A4FF6FF400440B089044350
:100EB000AC8201A8FFF7E6FD1F48874202D1DDF8AA
:100EC00010A001E0DDF80CA0A88900F4004040B1BA
:100ED0000AEBCA0000EB0A1031684900B0FBF1F8D8
:100EE00007E00AEBCA0000EB0A1031688900B0FB8A
:100EF000F1F86420B8FBF0F004012009642101FB43
:100F00001089A88900F4004040B1322000EBC900EC
:100F1000B0FBF1F000F00700044308E0322000EBE2
:100F200009106421B0FBF1F000F00F0004432C81A4
:100F300006B0BDE8F087000000380140014688880F
:100F4000C0F308007047C1F308028280704700BFF9
:100F5000FEE700000FB4054B10B503A9044A029840
:100F600000F0F0F810BC5DF814FB00009D1F0008B5
:100F7000940000200FB41CB50A46521ECDE90002B1
:100F800007A9054B6A46069800F0DCF8009A002194
:100F900011701CBC5DF814FB731800087CB5491E69
:100FA0001C461546CDE90001044B6A4621462846F9
:100FB00000F0C8F8009A002111707CBD7318000879
:100FC00002E008C8121F08C1002AFAD17047704712
:100FD000002001E001C1121F002AFBD17047000070
:100FE0002DE9FF5FDDE90220010DDDF838B0024395
:100FF00018D044F61050A1F2FF3141430D140F9860
:10100000012820D0A5EB0B00401C5FEA000A4FF03E
:101010000004474EDFF81C91A046504616D5CAF191
:10102000000728E00F98012443A2012808D00021DE
:1010300000980F9BC0E90021C0E90243BDE8FF9F73
:101040006FEA0B01F4E7CBF10000DEE7074612E0A0
:10105000F80707D02246334640464946FFF7D8F9FD
:10106000804689462246334610461946FFF7D0F996
:1010700004460E467F10002FEAD1DDE90201BAF1E5
:10108000000F42464B4602DAFFF7C2F901E0FFF7D4
:1010900031FA04460E460022284BFFF7B3FA03D874
:1010A0004FF0FF30014607E00022254B2046314635
:1010B000FFF707F9FFF78DFA102409E0002C0ADB8F
:1010C0000A220023FFF7CCF8019B30321A55641E28
:1010D00050EA0102F2D1641C019AC4F111031444D4
:1010E0000F9A012A03D0012208430DD10AE00843D8
:1010F00004D000204FF0110B0F9080E7A3EB0B05FD
:101100006D1E0DE05B4504DD4FF0000205F10105A9
:1011100004E003DA4FF00002A5F10105002AECD04B
:1011200000980F99C0E90231C0E9004586E7000048
:10113000000024400000F03F300000000000F043B9
:101140000000E03F2DE9FF4F95B09B4689460646DB
:1011500000250FE2252877D100242746F84A0121EF
:10116000059400E0044316F8013F203B01FA03F028
:101170001042F7D130782A2811D06FF02F03307841
:10118000A0F13002092A16D8059A44F0020402EBB5
:10119000820203EB42021044761C0590EFE759F8F7
:1011A000042B0592002A03DA504244F400540590BF
:1011B00044F00204761C30782E2816D116F8010F60
:1011C00044F004042A280DD06FF02F023078A0F1EB
:1011D0003003092B09D807EB870302EB4303C71839
:1011E000761CF3E759F8047B761C30786C280FD016
:1011F00006DC4C2817D068280DD06A2814D104E0EA
:10120000742810D07A280FD10DE044F400140AE0BD
:1012100044F4801401E044F440147278824202D114
:1012200004F58014761C761C307866280BD013DC0D
:10123000582877D009DC002875D04528F6D04628F4
:10124000F4D047281AD19DE118E0632835D06428EE
:1012500079D0652812D195E1702873D008DC672811
:10126000F1D069286FD06E280DD06F2806D1B5E077
:1012700073282CD0752875D0782874D05A461799C1
:1012800090476D1C75E1C4F30250022809D0032871
:101290000DD0D9F8001004280DD00D6009F1040913
:1012A00067E1D9F80010EA17C1E90052F6E7D9F86A
:1012B00000100D80F2E70D70F0E719F8041B8DF8AF
:1012C000001000208DF80100EA46012003E059F8E3
:1012D00004AB4FF0FF3061074FF0000102D40DE086
:1012E00008F101018846B9420FDA8045F8DB1AF8A7
:1012F00008100029F4D108E008F101018846814274
:10130000FADB1AF808100029F6D105985B46A0EB25
:10131000080721463846179A00F094FA284400EB53
:10132000080507E04DE029E10DE01AF8010B5A46E7
:1013300017999047B8F10108F7D25B462146384625
:10134000179A13E142E00A220092C4F302524FF0CE
:10135000000A022A08D059F804CB032A4FEAEC719C
:101360000AD00DE029E02AE009F1070121F0070287
:10137000F2E802C1914609E00FFA8CFC4FEAEC71E9
:10138000042A03D14FFA8CFC4FEAEC71002907DAEA
:101390000A460021DCF1000C61EB02012D2202E083
:1013A000220504D52B228DF80420012203E0E20758
:1013B00001D02022F7E7904659E00A2102E01022EE
:1013C0000DE010214FF0000A00910BE010224FF0C9
:1013D000000A44F004040827009203E008224FF0BA
:1013E000000A0092C4F30252022A05D059F804CB35
:1013F0000021032A08D009E009F1070121F00702C2
:10140000F2E802C1914605E01FFA8CFC042A01D1E2
:101410000CF0FF0C4FF00008220728D5702806D0EA
:10142000009B83F0100353EA0A0305D00EE040222C
:101430008DF80420012208E05CEA010206D0302287
:101440008DF804208DF8050002229046009B83F061
:10145000080353EA0A030AD15CEA010201D16207D8
:1014600005D530228DF804204FF001087F1E582842
:1014700004D034A003900EA802900DE036A0F9E746
:1014800053466046009AFEF7EBFE84460398825C62
:101490000298401E029002705CEA0100F0D10298AE
:1014A00006A9081A00F1200A600702D524F4803446
:1014B00000E00127574502DDA7EB0A0000E000200D
:1014C00000EB0A01009005984144401A0590E003A2
:1014D00006D45B462146179A059800F0B3F90544F7
:1014E000002706E001A85A46C05D179990476D1C79
:1014F0007F1C4745F6DBE0030CD55B462146179A77
:10150000059800F09FF9054404E030205A461799E9
:1015100090476D1C0099481E00900029F5DC08E0FA
:10152000029802995A460078491C029117999047EF
:101530006D1CBAF10001AAF1010AF1DC65E10000BD
:101540000928010030313233343536373839616299
:10155000636465660000000030313233343536375D
:1015600038394142434445460000000000F058F934
:101570000544761C307800287FF4ECAD19B028467D
:10158000BDE8F08F620700D4062709F1070222F0B8
:10159000070CFCE80223E14603F000485FEA080C70
:1015A00002D00FF2702C0DE05FEA045C02D50FF25E
:1015B000682C07E05FEAC47C02D00FF2602C01E0E7
:1015C000AFF2700C4FF0FF3823F00043CDF850C05D
:1015D00065280CD006DC452809D046281DD04728B0
:1015E0003DD13DE0662818D067287ED138E0002143
:1015F000112F01DB112000E0781CCDE9000106A9C4
:101600000EA8FFF7EDFCDDE90F010E9A0391002112
:10161000009207F1010A04914DE04FF0004000975D
:10162000CDE9011006A90EA8FFF7DAFCDDE90F02EB
:1016300003920E9B11990022DDF80CA000930492F6
:1016400011B9791C00EB010AB7EB0A0004D4C0F110
:10165000FF3007F1010A0490AAEB0700019044E073
:10166000012F00DA01270021112F01DD112000E0F8
:101670003846CDE9000106A90EA8FFF7B1FCDDE967
:101680000F010E9A0391002104910092BA4621079E
:101690000CD40399514500DA8A46BAF1010F05DDF1
:1016A000009AAAF10101515C302908D0B84202DA4F
:1016B00010F1040F06DA0121CDE9011015E0AAF1BD
:1016C0000101E9E7002805DC049901440491AAEB33
:1016D000000102E0411C514500DD8A460499401A90
:1016E000401C01904FF000400290200704D4019864
:1016F000504501DBCDF8048000208DF84F000298A2
:101700000DF14F07B0F1004F25D02B200E9002981D
:101710004FF0020800280CDA404202902D200E9073
:1017200007E00A210298FEF785FD3031029007F8A4
:10173000011DB8F10001A8F10108F2DC02980028AF
:10174000EFD1791E0E980870307800F0200040F03C
:10175000450007F8020D12A8C01B00F107081498F5
:10176000007800B1012000EB0A01019801EBE07163
:1017700005984144401A401E0590E00306D45B469C
:101780002146179A059800F05DF8054414980078F2
:1017900018B15A46179990476D1CE00324D55B4653
:1017A0002146179A059800F04DF805441CE004986E
:1017B000002807DBDDE90301884203DD0098405C77
:1017C000179901E0179930205A469047049805F17F
:1017D0000105401C04900198401E019004D12E2068
:1017E0005A46179990476D1CBAF10001AAF1010AF7
:1017F000DDDC05E017F8010B5A46179990476D1C80
:10180000B8F10001A8F10108F4DC5B462146179A03
:101810000598ABE62D0000002B0000002000000022
:101820002DE9F041044600251E461746880404D4DD
:1018300005E039462020B0476D1C641EF9D52846C6
:10184000BDE8F0812DE9F041044600251E46904692
:10185000C80301D5302700E02027880404D505E01F
:1018600041463846B0476D1C641EF9D52846BDE890
:10187000F0814A68002A06D00A68531C0B60107079
:101880004868401E486070472DE9FC4704460D46F5
:1018900016461F46DDE90A893B4632462946204660
:1018A000CDE9008900F022FEBDE8FC872DE9F0417A
:1018B00004460D4616461F463B46324629462046FC
:1018C00000F06FFEBDE8F08110B54FF48C7101207F
:1018D000FEF7A2FC04460CB9002010BD204600F023
:1018E00088FE2046F9E710B50446204600F076FE53
:1018F000204600F073FB10BD70B504460D46164639
:1019000032462946204600F07FFE70BD70B5044681
:101910000D46164632462946204600F0E9FE70BDC7
:10192000014648420843C00F404270472DE9F04746
:1019300005460E4617469846A946D9F80440A068C1
:1019400058B110210120FEF767FCE060E06818B98B
:101950006FF06900BDE8F087E468A760C4F8048010
:101960002660C9F804400020F4E72DE9F841044658
:101970000F4616461D466FF06D0833466A463946D7
:10198000204601F02DF95FEA000802D04046BDE88C
:10199000F881009810B96FF06300F8E720680078CC
:1019A00000F0800010B16FF06300F0E705E0206800
:1019B000401C20600098401E0090009818B12068DC
:1019C00000780028F3D00098042802D96FF0630053
:1019D000DDE70098042807D12068007800F0800037
:1019E00010B16FF06300D2E70020286008E02068A3
:1019F0000078296840EA012028602068401C2060A7
:101A00000099481E00900029F1D10020BFE72DE980
:101A1000F74FADF5487D8246164600200190B6F599
:101A2000C07F05D96FF037000DF54B7DBDE8F08F15
:101A30004FF4D07160A8FEF7D0FB02A800F0D9FDEA
:101A400064AC300E04F8010B300C04F8010B300AC2
:101A500004F8010B04F8016BE41C302004F8010BBE
:101A600032462046C999FEF791FB8020A05506F129
:101A7000190B002502E04CA94D556D1C202DFADBF9
:101A80004FF480724CA902A800F032FE019000B120
:101A900059E0002734E060AC0020489049904A901B
:101AA0004B90D9461CE0002506E048A8405D615DEA
:101AB000484048A948556D1C102DF6DB1034B9F18B
:101AC000100F01D3102000E04846A9EB000948ABF5
:101AD00048AA012102A800F064FD019000B132E0A3
:101AE000B9F1000FDFD154A9C819102248A9FEF797
:101AF0004DFB9DF88301401CC0B28DF88301103767
:101B0000302FC8DB4FF4807254A902A800F0F0FD1A
:101B1000019000B117E00DF5B878544600270FE0AA
:101B200043464246012102A800F03BFD019000B16E
:101B300009E0102241462046FEF728FB10341037FA
:101B4000302FEDDB00BF02A800F048FD4FF4D0714C
:101B500060A809F0BBFB302154A809F0B7FB202195
:101B60004CA809F0B3FB102148A809F0AFFB01987D
:101B700018B13021504609F0A9FB019854E72DE92E
:101B8000F0438DB005460E4601AF4FF000093021FD
:101B900001A8FEF722FBC8461BE0102408E0601EE7
:101BA000285C401CC1B2601E295401B102E0641ED1
:101BB000002CF4DC00BF3B462A46012105F1200041
:101BC00000F0EFFC5FEA000900D020E0103708F1D8
:101BD0001008B8F1300FE0DB002406E001A8005D3A
:101BE000315D484001A90855641C302CF6DB4FF4E8
:101BF000807201A905F1200000F07AFD5FEA00097A
:101C000000D004E009A80FC885E80F0000BF30210C
:101C100001A809F05BFB48460DB0BDE8F083000069
:101C200070B506460D4614462948006830BB294861
:101C300010F0CEFF264908600846006800281ADD2B
:101C40000846006884420DD30846046822462149AC
:101C50002846FEF79BFA00201D4908601E490860CF
:101C6000204670BD22461B492846FEF78FFA1A48C7
:101C700004602046F5E76FF04B00F2E71448006877
:101C800015490968401AA04213D811480068124942
:101C90000968441A0F48104A1268811822462846DB
:101CA000FEF774FA00200A4908600B4908602046D4
:101CB000D7E70848084A1268811822462846FEF7E6
:101CC00065FA054800682044034908602046C8E7D3
:101CD00004000020780800200800002030B50546E8
:101CE0000C46134600BF1946204610F073FF1846F5
:101CF00030BD2DE9F04FADF5017D80468946924615
:101D00009B468A9F3D463C461CE020780A2818D115
:101D1000601B461CB6F5007F01D340F2FF16324629
:101D2000294601A8FEF732FA002001A9885501A82A
:101D30005B46524649460090404600F07DF8651CDF
:101D400000BF641C20780028DFD10DF5017DBDE8BF
:101D5000F08F00002DE9F04790B005460E4617467B
:101D60009846DDE9189A242107A8FEF736FA07A954
:101D7000504609F0F7F850B123A043463A463146A1
:101D80000090284600F058F810B0BDE8F087002415
:101D900035E004EB440007A911F8200000B9F3E78F
:101DA00004EB440007A901EB800040684B461BA2EE
:101DB0001021009003A8FFF7DDF800208DF81B002C
:101DC00004EB440007A911F8200001280ED104EB10
:101DD000440001EB8000806803A943463A46CDE900
:101DE00000103146284601F03FFD07E00DA04346B4
:101DF0003A4631460090284600F01EF8641C032C39
:101E0000C7D300BFC0E70000696E76616C696420CB
:101E1000504B20636F6E746578740A0025732573C8
:101E20000000000073686F756C64206E6F7420682A
:101E3000617070656E0A00002DE9F84304460D4696
:101E400016461F46DDF82080CDF8008021683B460D
:101E50003246D1E904C02946E047BDE8F883F0B531
:101E6000A1B005466FF03B060027D5F8E00010B999
:101E7000301F21B0F0BD00243CE004EB840105F1EB
:101E8000E40000EB81000069012800D10127002057
:101E9000009004EB840205F1E40101EB820104EB04
:101EA0008402486805F1E40151F822C06B468022A3
:101EB00001A9E047060000D024E00098C8B1E1B2D3
:101EC00001AA2846009B00F023F8060001D0304606
:101ED000CFE704EB840105F1E40000EB81008068AA
:101EE0000099014404EB840205F1E40000EB820058
:101EF0008160641CD5F8E000A042BEDC0FB96FF031
:101F00003C0600BF802101A809F0E0F93046B0E7A7
:101F10002DE9F04792B00446884616461D462F46E6
:101F2000B1464FF0000A402F0CD9002301AA2946E0
:101F300030460BF0C2F95FEA000A00D026E00DF14E
:101F4000040940278DF84480F8B28DF845002068D8
:101F500040B9002104F108000BF0E2F95FEA000A41
:101F600000D013E001202060022211A904F1080032
:101F70000BF068FA5FEA000A00D007E03A464946EB
:101F800004F108000BF05EFA824600BF402101A870
:101F900009F09CF9504612B0BDE8F08770B50446D0
:101FA0000D460C48007838B901200A49087040F203
:101FB00026610948FEF7DEFEE1B20748FEF7C3FFDF
:101FC00000BF40210448FEF7F0FE0028F9D020466B
:101FD00070BD00002D0000200038014010B5002821
:101FE00021D0114B0022001F196803E0814203D861
:101FF0000A4649680029F9D152B11368841A9C42F3
:1020000004D1006818441060104602E0506000E0FF
:10201000186039B102680B1A934203D10B681A4455
:1020200002604968416010BD9C00002070B5064602
:102030000C4615462B4622460221304601F0D2FFBF
:1020400070BD10B54FF4C4710120FEF7E5F80446E9
:1020500014B1204601F0BCFF204610BD10B5044667
:10206000204601F0A7FF2046FFF7B8FF10BD2DE97D
:10207000F04F8BB0804600200190029003900490B6
:10208000059001A802AB102202A90090404601F081
:1020900085F85FEA000B03D058460BB0BDE8F08F1F
:1020A0009DF8080000069DF8091040EA01409DF8DF
:1020B0000A1040EA01209DF80B10084308909DF893
:1020C0000C0000069DF80D1040EA01409DF80E102E
:1020D00040EA01209DF80F1008430021CDE90601D8
:1020E000DDE906231646089840EA03079DF810002C
:1020F00000069DF8111040EA01409DF8121040EAD8
:1021000001209DF81310084308909DF81400000664
:102110009DF8151040EA01409DF8161040EA012094
:102120009DF8171008430021CDE90601DDE90623DB
:102130001446089840EA030508F14000C0E910453C
:102140008030C0E91067C8F8C010C8F8C410C8F8DB
:102150004010C8F844104FF004091DE0012121404F
:102160004FF06142A1FB02025FEA550C4FEA3403D3
:102170004CEAC6751C467A084FEA360682EA000722
:1021800008F1400101EBC90130C108F1C00101EBC8
:10219000C901C0C14FEA6909B9F1000FDEDC4FF097
:1021A000020929E008F1400202EBC900803202EB8B
:1021B000C901D1E90067D0E900454FF0010A17E0F5
:1021C00008F1C00202EBCA030CCB72407B4001EB6A
:1021D000CA0CCCE9002308F1400202EBCA030CCB85
:1021E00062406B4000EBCA0CCCE900230AF1010A03
:1021F000CA45E5DB4FEA4909B9F1080FD2DD0020F5
:102200004BE700002DE9FC4F05460F46002697F8E6
:102210000F8008F00F0C05F1C00808EBCC09D9E9D4
:10222000000105F1400808EBCC09D9E900340F267C
:102230006CE017F8068008F00F0C17F806804FEADC
:102240001818CDF804800F2E2DD003F00F08CDF80C
:1022500000804FEA00784FEA131949EA047948EA06
:1022600014144B464FEA101848EA01700909DFF8C8
:102270005491DDF8008039F8388081EA084105F191
:10228000C00808EBCC08D8E9009889EA000088EA81
:10229000010105F1400808EBCC08D8E9009889EA6B
:1022A000030388EA040403F00F08CDF800804FEA26
:1022B00000784FEA131949EA047948EA14144B46A6
:1022C0004FEA101848EA01700909DFF8F890DDF8C4
:1022D000008039F8388081EA084105F1C008DDF84E
:1022E000049008EBC908D8E9009889EA000088EA58
:1022F000010105F14008DDF8049008EBC909D9E9AE
:10230000008988EA030389EA0404761E002E90DA25
:102310004FF000084FEA082949EA116882F8008066
:102320004FF000084FEA084949EA114882F8018055
:102330004FF000084FEA086949EA112882F8028044
:10234000D1704FEA106848EA012882F804804FEA09
:10235000104848EA014882F805804FEA102848EA08
:10236000016882F80680D0714FF000084FEA082912
:1023700049EA146882F808804FF000084FEA0849DB
:1023800049EA144882F809804FF000084FEA0869CA
:1023900049EA142882F80A80D4724FEA136848EA9E
:1023A000042882F80C804FEA134848EA044882F86F
:1023B0000D804FEA132848EA046882F80E80D37330
:1023C000BDE8FC8FF8B30108034603B10AB902481F
:1023D000704711600020FBE7009FFFFF0146302996
:1023E00001D300207047481C4008FBE72DE9F0416D
:1023F00007460C4615463846FFF792FA064606EAA7
:10240000040025EA06010843BDE8F081FEF7D1FA91
:102410004FF4E13014F0A2FEFEF770FAFEF7AEF9C9
:1024200020E011F0A7FC00E000BF0F480CF0C6FD53
:102430000E4908600028F7D113E00DA404222146BC
:1024400009480DF0A7FF4FF4FA610B48FDF7C5FEF0
:1024500040F2CF72084904480DF064FB0749086058
:1024600000BFEAE7DDE70000001400200C000020B8
:102470003131313100000000A800002000000020B0
:10248000F0B50B30154D20F007010024144A0FE081
:1024900003688B420BD38B4205D95E1A43184768F9
:1024A000C3E9006700E04368136002C004E0021D56
:1024B00010680028ECD12046002802D1286808B115
:1024C0000020F0BD064A07481060074A121A22F0A1
:1024D0000702C0E9002401202860D7E7A0000020FF
:1024E0009C000020B4150020B0B500202DE9FF4766
:1024F0008246894616469846DDE90C7500BF00BF46
:1025000000BF00BF00BF00BF00BF00BF00BF00BFD3
:1025100006F00F0020B16FF0210004B0BDE8F08795
:10252000B9F1000F20D11CE0102239466846FDF7B2
:102530002DFE2B463A464946504600F032F800241C
:1025400005E0285D18F8041048402855641C102C3C
:10255000F7DB102269464046FDF718FE10371035AC
:10256000103E002EE0D11AE017E0002405E0385DAF
:1025700018F8041048402855641C102CF7DB2B4633
:102580002A464946504600F00CF81022294640469B
:10259000FDF7FCFD10371035103E002EE5D1002070
:1025A000BBE72DE9F04107460C4615461E4600BF25
:1025B00000BF00BF00BF00BF00BF00BF00BF012CB5
:1025C00006D132462946384602F000FABDE8F081CD
:1025D00032462946384601F03FFFF7E710B504467A
:1025E00004B910BD4FF48C71204608F06FFE00BF97
:1025F000F7E710B5044600BF00BF4FF48C712046CA
:10260000FDF7EBFD10BD00002DE9F04FC7B0064609
:102610008A46934600BF00BF00BF00BF01A8FFF776
:10262000E8FF06F1080575605A46514601A800F01A
:102630005FF85FEA000900D048E001983060DDE90A
:10264000011000EB011401CC01C501CC01C501CC86
:1026500001C501CC01C53068471E203C2BE04FF07E
:10266000000823E020781D49085C1D4951F820002E
:102670002188C1F30721194A515C1A4A52F82110E6
:1026800048402168C1F30741144A515C164A52F888
:10269000211048402168090E104A515C134A52F833
:1026A0002110484001C508F10108241DB8F1040FAC
:1026B000D8DB7F1E203C002FD1DC01CC01C501CC32
:1026C00001C501CC01C501CC01C500BF01A8FFF7C0
:1026D00085FF484647B0BDE8F08F000048900108EC
:1026E00048A2010848A6010848AA010848AE010806
:1026F000F0B503460C46154600BF00BF00BF00BF43
:10270000802D05D0C02D06D0B5F5807F09D105E01C
:102710000A20186008E00C20186005E00E20186000
:1027200002E06FF01F00F0BD00BF03F10801596027
:10273000002216E014F82200012606EB8206A65DB0
:1027400040EA0620022606EB8206A65D40EA064025
:10275000032606EB8206A65D40EA066041F82200E9
:10276000521CB2EB551FE5D318680A2804D00C2878
:1027700030D00E282DD163E0002228E05A4E56F8C2
:102780002260086870408E89C6F30726574FBE5DE9
:102790007040CE68C6F30746BE5D80EA0626C8686C
:1027A000000E385C86EA00400E7BBE5D80EA066063
:1027B00008610E694868704048614E6988687040D9
:1027C00088618E69C8687040C861521C10310A2A3D
:1027D000D4D386E0002230E0434E56F822600868E9
:1027E00070408E8AC6F30726404FBE5D70404E692A
:1027F000C6F30746BE5D80EA06264869000E385CCF
:1028000086EA00400E7DBE5D80EA066088618E69C2
:1028100048687040C861CE698868704008620E6A76
:10282000C868704048624E6A0869704088628E6A63
:1028300048697040C862521C1831082ACCD350E055
:1028400000224BE0284E56F82260086870408E8BBC
:10285000C6F30726254FBE5D7040CE69C6F3074616
:10286000BE5D80EA0626C869000E385C86EA004034
:102870000E7FBE5D80EA066008620E6A486870409E
:1028800048624E6A8868704088628E6AC868704084
:10289000C86291F82C60BE5D086970408E8DC6F3E9
:1028A0000726BE5D80EA0620CE6AC6F30746BE5DF7
:1028B00080EA0646C86A000E385C86EA0060086353
:1028C0000E6B4869704048634E6B8869704088633E
:1028D0008E6BC8697040C863521C2031072AB1D37F
:1028E00000BF00BF00201EE748B201084890010861
:1028F0002DE9F84304460F4616461D466FF06D0855
:1029000030236A463946204600F06AF95FEA00083B
:1029100002D04046BDE8F8832068381A012802DA60
:102920006FF05F00F6E7206800783060206800995B
:1029300047180623321D3946204600F051F95FEA58
:10294000000801D04046E5E72068B0602068716863
:10295000084420602068B84205D10C21284608F0C0
:10296000B5FC0020D6E72068007828602068401C6D
:1029700020602A1D3946204600F095F85FEA0008DD
:1029800001D04046C6E72068A8602068696808440E
:1029900020602068B84202D06FF06500BAE70020DE
:1029A000B8E7F0B504460E4615466FF06D070323F1
:1029B0002A463146204600F013F9070001D0384678
:1029C000F0BD286810B96FF05F00F9E72868401E75
:1029D00028602068007828712879072802DD6FF0C8
:1029E0006300EDE72068401C20602068A860206834
:1029F0002968084420602068B04202D06FF065006A
:102A0000DEE70020DCE7F0B504460E4615466FF021
:102A10006D0703232A463146204600F0E1F80700FF
:102A200001D03846F0BD286810B96FF06700F9E7AB
:102A30002868401E28602068007810B16FF0670099
:102A4000F0E72068401C20600020EBE7F8B5044662
:102A50000E4615466FF06D0701236A463146204643
:102A600000F0BEF8070001D03846F8BD00980128F4
:102A700002D06FF06300F8E72068007808B1012009
:102A800000E0002028602068401C20600020ECE767
:102A900070B505460E4614462346022231462846A6
:102AA000FEF763FF70BD10B503461868081A0128C9
:102AB00002DA6FF05F0010BD1868007800F0800047
:102AC00028B91C68601C18602078106060E01868E5
:102AD000007800F07F00012806D0022812D00328D9
:102AE00022D0042850D135E01868081A022802DAEA
:102AF0006FF05F00DFE71868407810601868801C8E
:102B0000186044E01868081A032802DA6FF05F00C2
:102B1000D1E7186880781C68647840EA0420106067
:102B20001868C01C186032E01868081A042802DA15
:102B30006FF05F00BFE71868407800041C68A47855
:102B400040EA04201C68E478204310601868001DE7
:102B500018601CE01868081A052802DA6FF05F0098
:102B6000A9E71868407800061C68A47840EA044089
:102B70001C68E47840EA04201C6824792043106033
:102B80001868401D186002E06FF0630093E700BF13
:102B900010681C680C1BA04202D96FF05F008AE726
:102BA000002088E7F0B587B006460F4614461D465C
:102BB00005950694002020606060A060E06005A894
:102BC000064900220092EBB2CDE901210390FF22D9
:102BD0003946304600F020F807B0F0BD2D19000846
:102BE000F0B504460D4617461E462068281A0128EF
:102BF00002DA6FF05F00F0BD20680078B04202D0CA
:102C00006FF06100F7E72068401C20603A462946D3
:102C10002046FFF748FFEEE72DE9F84F04460D4642
:102C200017469846DDF828B0DDF8309030236A4624
:102C300029462046FFF7D4FF5FEA000A02D050463B
:102C4000BDE8F88F206800990844A84202D06FF0D0
:102C50006500F5E72CE02168481C20600E7806EA44
:102C60000700404502D06FF06100E9E76A46294657
:102C70002046FFF718FF5FEA000A01D05046DFE761
:102C800006EA0B000B9988420DD1B9F1000F0AD06A
:102C900022683146009B0D98C8478246BAF1000F62
:102CA00001D05046CCE7206800990844206000BF5E
:102CB0002068A842CFD30020C2E700002DE9F04FE2
:102CC00087B004460D4616461F46DDE9128BDDF837
:102CD00044A000BF00BF00BF00BF00BF00BF00BFD7
:102CE00000BF00BF00BF00BF00BF00BF00BF206823
:102CF000407806281CD16FF06D091498C0F8008048
:102D0000DDE9150102AAA2E8030C1098CDE90070D4
:102D100033462A464146E06B01F004F8814609F14A
:102D2000120008B9DFF80C90484607B0BDE8F08FF4
:102D30000148FAE7009DFFFF809FFFFF2DE9F04F5C
:102D400087B004460D4616461F46DDE9128BDDE9C5
:102D5000109A00BF00BF00BF00BF00BF00BF00BF90
:102D600000BF00BF00BF00BF00BF00BF00BF2068A2
:102D70004078062811D11498C0F80080DDE91501CB
:102D80008DE8C00ECDE905102B4642460121E06BCF
:102D900001F00FF807B0BDE8F08F0148FAE7000036
:102DA000809FFFFF2DE9FC5F0746884691461D4640
:102DB000DDE90CA60E9C6FF06D0B00BF00BF00BFDD
:102DC00000BF00BF00BF00BF00BF00BF00BF4A463A
:102DD0004146384600F03AF95FEA000B02D0584607
:102DE000BDE8FC9F384600F023F95FEA000B01D0F4
:102DF0005846F5E73346524629463846009400F0D7
:102E0000CDF95FEA000B01D05846E9E72068811947
:102E100001AA384600F00CF85FEA000B01D05846D2
:102E2000DEE720680199084420600020D8E7000010
:102E30002DE9FC4104460D46164600BF00BF00BF09
:102E400000BF00BF00BF206810B94948BDE8FC8141
:102E50000020306020684078032813D02068407834
:102E600004280FD02068407805280BD020684078CF
:102E7000062807D020684078092803D020684078C9
:102E8000072801D10020E1E720680078482803D016
:102E900020680078492801D10020D7E720684078D1
:102EA000012805D1606A08B13248CFE70020CDE79C
:102EB00020684078022858D10027207A01281DD1A7
:102EC000E06828B9606A08B12A48BFE70020BDE77A
:102ED00000BF00BF00BF00BF206808B9002005E0A8
:102EE000A06B08B1A06B01E02068C0688046414635
:102EF00004F11400E368626A98470DE0204600F090
:102F00004CF8616A884207D0E06818B9606A08B96D
:102F100000209BE7174899E7204600F03EF88046DE
:102F200004F11400CDE9000594F908102268E06B63
:102F3000926904F12803D2F808C04246E04707002E
:102F400001D0384682E7207A48B9204600F025F8BB
:102F500080463246414628462369984776E7204610
:102F600000F01BF83060002070E7014880306DE70A
:102F7000009FFFFF809DFFFF10B5044604B910BD00
:102F8000E06B20B12268E06B92699169884740212B
:102F9000204608F09BF900BFF1E7014600BF00BFE3
:102FA000086808B90020704708684069FBE70146D7
:102FB00000BF00BF086808B9002070470868407863
:102FC000FBE700000246064905E00878904201D17F
:102FD00048687047083148680028F6D100BFF8E714
:102FE000A4B3010810B503460C460B490FE048682E
:102FF00080690078984209D148684068A04205D1AC
:1030000048684078904201D1486810BD083148684E
:103010000028ECD100BFF8E7A4B3010810B50446BE
:1030200000BF00BF40212046FDF7D7F810BD0000CB
:10303000014600BF00BF086808B903487047002078
:10304000486200BFFAE70000009FFFFF2DE9F04152
:1030500004460F46164600BF00BF00BF00BF2068F1
:1030600010B90F48BDE8F081102E02D90C4880300D
:10307000F8E72068007C00F0010008B1354605E063
:103080002068C568B54201D90548EBE735B12A4645
:10309000394604F12800FDF779F8A5630020E1E73F
:1030A000009FFFFF024600BF00BF106818B1106804
:1030B0004078022801D007487047042904D1002035
:1030C000D0600548106102E002488030F4E700BF9C
:1030D0000020F1E7009FFFFFC92300082DE9F04120
:1030E00004460F4616461D4600BF00BF00BF00BF86
:1030F00000BF00BF206810B91848BDE8F081206803
:10310000007C00F0020028B920684068B04201D07D
:103110001248F2E766602572012D0BD020684078D6
:10312000032807D020684078042803D0206840781E
:10313000052807D1D4E90012E06B8969CB683946CC
:103140009847DAE73DB9D4E90012E06B89690B6969
:1031500039469847D1E70148CFE70000009FFFFFBD
:1031600070B505460C4600BF00BF0CB90A4870BDDB
:1031700040212846FDF731F8A16948698047E86396
:1031800010B905488038F2E72C6004212846FFF783
:1031900089FF0020EBE70000009FFFFF2DE9FC5FA7
:1031A0000446894615469A460C9F6FF06D0B00BF8A
:1031B00000BF00BF00BF00BF00BF00BF00BF20684E
:1031C00010B96448BDE8FC9F002038602046FFF736
:1031D000E4FE06460EB96048F4E72068407801280E
:1031E00015D1B54201D05D48ECE73D6094F9081077
:1031F0002268E06B92695346D2F804C04A46E04721
:103200005FEA000B01D05846DCE70020DAE72068CF
:103210004078062807D13D6053464A462946E06B70
:1032200000F0E6FFCEE7D14508D1606A20B9B5FBD2
:10323000F6F006FB105008B14648C3E72068407816
:1032400002287DD14FF00008207A28B9E06818B133
:10325000606A301AA8420ED2207A28B9E06818B9FC
:10326000606A301AA84206D8207A012810D1606A14
:10327000301AA8420CD904F11401626A50182A4687
:103280004946FCF783FF606A28446062002099E7A2
:10329000606A38B3606AA6EB000804F11401626A40
:1032A000501842464946FCF771FF04F11400CDE97D
:1032B000000A94F908102268E06B926904F128036F
:1032C000D2F808C03246E0475FEA000B01D058460A
:1032D00078E7386830443860B24400206062C14406
:1032E000A5EB0805CDB1B5FBF6F006FB1058B8F11B
:1032F000000F04D1207A10B9E06800B1B046A5EB08
:10330000080000EB0901424604F11400FCF73EFFFF
:10331000606A40446062A5EB0805ADB1CDE9009A52
:1033200094F908102268E06B926904F12803D2F83E
:1033300008C02A46E0475FEA000B02D0584641E742
:1033400004E038682844386000203BE701488030BA
:1033500038E70000009FFFFF809CFFFF809DFFFF7C
:1033600002464FF00041002005E002EA010303B1EC
:1033700003E04908401C2028F7D300BF704710B570
:10338000044604B910BD04F12000FFF727F94FF4FB
:10339000A071204607F09AFF00BFF3E710B504467E
:1033A0004FF4A0712046FCF718FF4FF0FF3020616A
:1033B00010BD2DE9F84304460D4616466FF06D0723
:1033C000A04600200346324629460090404600F0C1
:1033D00004F807463846BDE8F8832DE9F04F93B06E
:1033E00081468A4615469B461C9F002012904C46FB
:1033F000CDF814A0B5F5806F04D96FF0350013B087
:10340000BDE8F08FB7F5807F02D96FF03700F6E79F
:10341000302106A8FCF7E1FEE1692069884201DC61
:10342000606948B13A465946204600F055F8129076
:1034300008B11298E3E7002777B13A46594606A843
:10344000FEF7E5FA129000B13CE006A92046FEF72F
:1034500096FB129000B135E027E0102608E0701EC0
:10346000205C401CC1B2701E215401B102E0761EE6
:10347000002EF4DC00BF01AB2246012104F1200044
:10348000FFF78FF8129000B11CE0102D01D9102029
:1034900000E028468046424601A90598FCF776FEE2
:1034A000059840440590A5EB0805002DD5D106A947
:1034B0002046FEF764FB129000B103E02069401C37
:1034C000206100BF302106A807F000FF102101A8ED
:1034D00007F0FCFE129892E770B504460D461646BA
:1034E000002332462946204600F001F870BD2DE940
:1034F000F043E1B00446884617461D4600266FF0AB
:103500006D09A069B0F5C07F04D96FF0370061B0D4
:10351000BDE8F083A069C0F5C070A84202D26FF088
:103520003700F4E7A069C0F5C070401BB84202D272
:103530006FF03700EBE74FF4C07101A8FCF74DFEC8
:1035400001A9D4F83831A269D4F83C01984710B1E8
:103550006FF03300DBE7A06906445DB12A4601A99C
:10356000D4F83831D4F83C01984710B16FF03300EB
:10357000CDE72E44B8F1000F07D037B101A9881963
:103580003A464146FCF702FE3E44324601A901A8F4
:10359000FEF73DFA5FEA000900D00AE001A92046E3
:1035A000FEF7EDFA5FEA000900D002E00120206199
:1035B00000BF4FF4C07101A807F088FE4846A6E797
:1035C0002DE9F04788B004460D4616461F46DDF843
:1035D00040806FF06D0920216846FCF7FEFD04F184
:1035E0002000FFF706F8C4F83851C4F83C61A06920
:1035F00008B93020A0612069002801DB206902E0C1
:10360000A069FEF7EBFE824642F21070E0614FF4D3
:103610008072694604F12000FFF76AF85FEA00094A
:1036200003D0484608B0BDE8F087534642463946C5
:103630002046FFF75CFF5FEA000901D04846F1E74A
:103640000020EFE72DE9F04FADF5077D06468946EE
:1036500092469B46DDF84882919F002446B130682F
:1036600030B13068006918B141480068814503DD18
:103670000DF5077DBDE8F08FC4F5007107AA10199C
:10368000CDF800803BA2909BFDF774FC07A85B4639
:103690005246494600903046FEF7CEFB00241421E6
:1036A00002A8FCF79AFD00253CE0B5F5805F00D349
:1036B0003AE005F00F00F0B9A5B1C4F5007107AA12
:1036C000101902AB32A2FDF755FC07A85B46524623
:1036D000494600903046FEF7AFFB0024142102A8B3
:1036E000FCF77BFDC4F5007107AA10192B462AA22E
:1036F000FDF740FC04447B5DC4F5007107AA101976
:1037000027A2FDF737FC0444785D1F2804DD785DAF
:103710007F2801DA785D00E02E2005F00F0102AA73
:1037200050546D1C4545C0D300BFB8F1000F1DD0EB
:1037300008E0C4F5007107AA10191BA2FDF71AFCD6
:1037400004446D1C05F00F000028F2D1C4F500718F
:1037500007AA101902AB0EA2FDF70CFC07A85B46E6
:103760005246494600903046FEF766FB00BF7FE7B1
:103770005800002064756D70696E672027257327D7
:1037800020282575206279746573290A00000000DD
:10379000202025730A000000253034783A200000EC
:1037A0002025303278000000202020002DE9F0474D
:1037B000ADF5C16D05460E4690469946DDF828A642
:1037C000DDF82C4600274DB1286838B1286800691B
:1037D00020B11CB11E480068864203DD0DF5C16DA5
:1037E000BDE8F08730E0781C0746534619A24FF435
:1037F000007100900DF58160FDF7BCFB0DF5816057
:103800004B464246314600902846FEF715FB2346BC
:1038100012A240F2FF3102A80DF04CFB02A84B4669
:103820004246314600902846FEF763FA04F1CC0088
:103830000BA14B464246CDE9001031462846FEF723
:1038400089FAD4F8504100BF002CCCD100BFC5E7A5
:10385000580000202573202325643A0A0000000048
:103860006372742D3E0000002DE9FF4FADF5017D20
:1038700081468F9F4FF0010B0024B9F1000F0CD04F
:10388000D9F8000048B1D9F80000006928B127B183
:10389000554982980968884203DD0DF5057DBDE82C
:1038A000F08F7868461E05E0B86850F8260000B131
:1038B00002E0761E002EF7D100BF1F2508E0B86891
:1038C00050F82600E84000F0010000B102E06D1E53
:1038D000002DF4DA00BF05EB4610401CC4F5007162
:1038E00001AA0090101941A28E9BFDF743FB01A88D
:1038F0000090484682A90EC9FEF79EFA002406F100
:103900000108002551E0BBF1000F06D0A8F101002D
:10391000B96851F8200000B945E04FF0030A3EE0D5
:10392000BBF1000F0AD0A8F10100B96851F82000DE
:103930004FEACA01C840C0B200B92EE04FF0000BF8
:10394000E91705EB11710911A5EB011181B9002DE2
:103950000EDDC4F5007101AA10192CA2FDF70AFBB7
:1039600001A80090484682A90EC9FEF765FA002416
:10397000A8F10102D7F808C05CF822204FEACA0C6F
:1039800022FA0CF2D3B2C4F5007101AA101920A2D8
:10399000FDF7F0FA04446D1C00BFAAF1010ABAF168
:1039A000000FBDDA00BFA8F10108B8F1000FAAD1DD
:1039B000BBF1010F07D1C4F5007101AA101916A2BD
:1039C000FDF7D8FA0444C4F5007101AA10190FA23A
:1039D000FDF7D0FA01A80090484682A90EC9FEF76B
:1039E0002BFA00BF59E700005800002076616C7583
:1039F00065206F66202725732720282564206269AB
:103A00007473292069733A0A000000000A0000005C
:103A10002025303278000000203030002DE9F041C0
:103A2000ADF5027D04460E46174698466FF06D05CB
:103A300044B1206830B12068006918B114480068AA
:103A4000864203DD0DF5027DBDE8F08189A88190F5
:103A50004FF4007101A8819B889AFDF79FFA0546F3
:103A600000208190002D09DBB5F5FF7F06DC0A20E0
:103A700001A94855002101AA681C115401A8434618
:103A80003A46314600902046FEF7D6F900BFD9E706
:103A9000580000202DE9F043ADF5037D04460E46A5
:103AA00017469846DDF828928B9D44B1206830B1C6
:103AB0002068006918B110480068864203DD0DF5E2
:103AC000037DBDE8F08315F5D24F00D1F7E76842DA
:103AD0004B460AA24FF40071CDE9005003A8FDF750
:103AE00049FA03A843463A46314600902046FEF77D
:103AF000A3F900BFE3E70000580000202573282940
:103B00002072657475726E656420256420282D30DE
:103B10007825303478290A00014908607047000090
:103B200058000020F0B504460D46059E0020D4F84C
:103B3000E010142902DB6FF03D001EE001EB810C68
:103B400004F1E40747F82C5001EB810C07EB8C07DC
:103B50007A6001EB810C04F1E40707EB8C07FB6052
:103B600001EB810C04F1E40707EB8C073E61D4F80C
:103B7000E0707F1CC4F8E07000BFF0BD10B50446D3
:103B800004F1080009F086FB0020C4F8E0004FF4BF
:103B9000C87104F1E40007F099FB0020206010BD1B
:103BA0002DE9F04F91B006460F4690464FF0000BBE
:103BB0003446B8F1400F04D96FF03B0011B0BDE8B6
:103BC000F08F00BF58460BF1010BB0F5807F02DD8E
:103BD0006FF03B0983E02046FEF741F95FEA0009F8
:103BE00000D07CE0012010904FF0000A002523E077
:103BF00005EB850104F1E40000EB810005EB850293
:103C0000816804F1E40000EB8200C068814201D2C7
:103C10000020109005EB850104F1E40000EB810029
:103C20000069012807D105EB850104F1E40000EBF0
:103C30008100806882446D1CD4F8E000A842D7DC83
:103C400010980028BED0BAF1400FBBD3402168467F
:103C5000FCF7C3FA694604F1080009F02BF95FEAA2
:103C6000000900D03BE004F1080009F013FB04F167
:103C7000080009F019FB002104F1080009F050FBCD
:103C80005FEA000900D02AE04022694604F10800FA
:103C900009F0D8FB5FEA000900D020E000236A4663
:103CA0004021684609F009FB5FEA000900D016E0F0
:103CB000002508E0002105EB850204F1E40000EB9B
:103CC000820081606D1CD4F8E000A842F2DC42461C
:103CD00069463846FCF75AFA4FF0000900BF402108
:103CE000684607F0F3FA484668E7000038B504462E
:103CF0000020C4F8E0004FF4C87104F1E400FCF7C0
:103D00006CFA0020206004F1080009F0CDFA0120CF
:103D100020230022024900902046FFF703FF38BD10
:103D20002D4300082DE9FF4F8DB00E4617469846EB
:103D3000DDF868B0DDF87CA0DDF874906FF06D0000
:103D40000C9000BF00BF00BF00BF00BF00BF00BF9E
:103D500000BF00BF00BF00BF00BF08A91E98CDE98B
:103D600004A9069103901B983B4632460021CDE9F9
:103D7000008B02900D9800F01CF80C9018B10C9874
:103D800011B0BDE8F08F0025002406E01C98005D0E
:103D900008A9095D48400543641C4C45F6D335B17C
:103DA0003146504607F092FA6FF01100E8E7002024
:103DB000E6E72DE9FE4F06460F4614461D46DDE9AF
:103DC0000EABDDE90C896FF06D00029000BF00BF03
:103DD00000BF00BF00BF00BF00BF00BF00BF00BFEB
:103DE00000BF00BF43462A4639463046CDE9009A17
:103DF00000F038F9029010B10298BDE8FE8F5A46E3
:103E000021463046109B00F0F3F9029008B1029869
:103E1000F3E73046DDE9112100F006F8029008B121
:103E20000298EAE70020E8E72DE9FF5F81468A462D
:103E3000934600BF00BF00BF00BF0822002109F564
:103E4000A07009C8A0FB024C03FB02C200FB0125C5
:103E50000823002209F5A47003C8A0FB036C01FB32
:103E600003C100FB0217BBF1100F02D8BBF1040F16
:103E700004D26FF0130004B0BDE8F09F5A4609F574
:103E8000A8715046FCF782F9002184EA01006940DC
:103E9000084305D1002186EA01007940084379D022
:103EA00000200090019002900390010241EA176007
:103EB000C0B28DF800000020010441EA1740C0B2F2
:103EC0008DF801000020010641EA1720C0B28DF8EC
:103ED0000200F8B28DF80300300E40EA0720C0B2AD
:103EE0008DF80400300C40EA0740C0B28DF80500A0
:103EF000300A40EA0760C0B28DF80600F0B28DF8D3
:103F000007000020010241EA1560C0B28DF80800E8
:103F10000020010441EA1540C0B28DF809000020DC
:103F2000010641EA1520C0B28DF80A00E8B28DF80A
:103F30000B00200E40EA0520C0B28DF80C00200CCA
:103F400040EA0540C0B28DF80D00200A40EA056045
:103F5000C0B28DF80E00E0B28DF80F004FF00008EF
:103F60000CE009F5B87010F808001DF8081048407A
:103F700009F5B87101F8080008F10108B8F1100F4F
:103F8000EFD309F5B87211464846FEF73BF94FF0FA
:103F900000080BE00CE01AF8080009F5B87111F8F8
:103FA000081048400AF8080008F10108D845F2D383
:103FB000002060E710B5044604B910BD2046FEF7A6
:103FC000DBFF4FF4C471204607F080F900BFF4E72F
:103FD00010B5044600BF00BF4FF4C4712046FCF783
:103FE000FCF810BD2DE9F04780460E4617461D46E9
:103FF0006FF06D0900BF00BF00BF00BF00BF00BF72
:10400000012229463046FEF7EDFF04461CB96FF049
:104010001300BDE8F0876069102802D06FF013002C
:10402000F7E74046FEF7A8FF21464046FFF798F81D
:104030005FEA000901D04846EBE701232A463946EA
:104040004046FFF74BF85FEA000901D04846E0E739
:104050004046FEF70CF85FEA000901D04846D8E771
:104060000020D6E72DE9F04F87B004468B469246F4
:104070001E46119F6FF06D0006900020019000BF5A
:1040800000BF00BF00BF00BF00BF56B180EA000103
:104090004040014305D1002080EA00014040014337
:1040A00004D06FF0130007B0BDE8F08F04F5807006
:1040B0000021016641668166C166016741678167CB
:1040C000C167C4F880B1C4F84011C4F84411C4F801
:1040D0004811C4F84C110C2E09D1324651466030BB
:1040E000FCF754F8012140F26F10015549E000201F
:1040F0000290039004900590C6F347508DF8140089
:10410000C6F34F308DF81500C6F357108DF8160022
:10411000F006000E8DF81700D1461CE0102E01D2DB
:10412000304600E010208046002509E004F5B0701C
:10413000405D19F80510484004F5B07148556D1CF4
:104140004545F3D304F5B07211462046FEF75AF800
:10415000A6EB0806C144002EE0D1002509E004F5D5
:10416000B070405D02A9495D484004F5B071485502
:104170006D1C102DF3D304F5B07211462046FEF7E6
:1041800041F801A804F5A873102204F5B07100905D
:104190002046FFF703F8069008B1069883E7002051
:1041A000C4F84871C4F84C01DDF840901CE0102FB1
:1041B00001D2384600E010208046002509E004F5D1
:1041C000B870405D19F80510484004F5B8714855BD
:1041D0006D1C4545F3D304F5B87211462046FEF731
:1041E00011F8A7EB0807C144002FE0D100205AE7DF
:1041F0002DE9F04F87B004460E46174698466FF0FB
:104200006D000690C3460020019000BF00BF00BFB4
:1042100000BF00BF00BFB84508D9A8EB0700B042F7
:1042200004D26FF0130007B0BDE8F08FD4F840213E
:10423000D4F84401931940F100001146D4F8442108
:10424000591A90410CD3D4F84021D4F84401921962
:1042500040F100006FF01F030F219A1A814102D232
:104260006FF01300DFE7D4F84021D4F8440192192D
:1042700040F10000C4F84021C4F84401B94651E0BF
:10428000102E01D2304600E01020824610250AE0B0
:10429000681E04F5B071085C401CC2B2681E0A5466
:1042A00002B102E06D1E0C2DF2D800BF01A802ABD6
:1042B000102204F5B07100902046FEF76FFF0690C3
:1042C00008B10698AFE7002520E0D4F8800140B996
:1042D00004F5B870405D19F80510484004F5B87150
:1042E000485502A8405D19F8051048400BF8050034
:1042F000D4F88001012808D104F5B870405D1BF89E
:104300000510484004F5B87148556D1C5545DCD37F
:1043100004F5B87211462046FDF774FFA6EB0A06B5
:10432000D144D344002EABD100207CE72DE9F041ED
:1043300080460D4616461C46FBF716FF00EB800034
:104340004FF47A7101EB800700202060042E01D227
:10435000BDE8F0812F60042020600020F8E72DE9FF
:10436000FF4F87B005468B4614464FF480300690C9
:10437000401E05900CB1A5420AD30A9818B14FF01F
:10438000FF310A9801604FF0FF300BB0BDE8F08FAD
:104390002046FEF7E5FF0746BC40BD40C7F12000C0
:1043A0002BFA00F1784201EAE07005430BFA07FBB3
:1043B0004FEA1448A0B204904FEA1B4001901FFA44
:1043C0008BF00090B5FBF8F608FB165A05E0761E58
:1043D000C244BAF5803F00D30BE0B6F5803FF6D279
:1043E000049870434FF48032019902FB0A1188420D
:1043F000EDD800BF019806FB140000EB05400390C8
:104400000398B0FBF8F9039809FB180A06E0A9F134
:104410000109C244BAF5803F00D30CE0B9F5803FF2
:10442000F5D2049809FB00F04FF48032009902FBAA
:104430000A118842EBD800BF0A9840B1009903984E
:1044400001EB004009FB1400F8400A99086009EBF1
:1044500006400290029898E7F0B589B006460C46EF
:104460001546706808902078617840EA0120A178AC
:1044700040EA0140E17840EA01600790089800684E
:104480000899091D0891079948400790207961799A
:1044900040EA0120A17940EA0140E17940EA016067
:1044A0000690089800680899091D089106994840E7
:1044B0000690207A617A40EA0120A17A40EA014020
:1044C000E17A40EA01600590089800680899091DA2
:1044D0000891059948400590207B617B40EA0120C6
:1044E000A17B40EA0140E17B40EA0160049008982A
:1044F00000680899091D0891049948400490012119
:104500003068C1EB600704E100BF089800680899B3
:10451000091D08910799C9B2FE4A52F82110484076
:104520000499C1F30721FC4A52F82110484005992B
:10453000C1F30741F94A52F8211048400699090E83
:10454000F74A52F8211048400390089800680899EB
:10455000091D08910699C9B2EE4A52F82110484047
:104560000799C1F30721EC4A52F8211048400499F9
:10457000C1F30741E94A52F8211048400599090E54
:10458000E74A52F8211048400290089800680899BC
:10459000091D08910599C9B2DE4A52F82110484018
:1045A0000699C1F30721DC4A52F8211048400799C7
:1045B000C1F30741D94A52F8211048400499090E25
:1045C000D74A52F82110484001900898006808998D
:1045D000091D08910499C9B2CE4A52F821104840E9
:1045E0000599C1F30721CC4A52F821104840069999
:1045F000C1F30741C94A52F8211048400799090EF2
:10460000C74A52F821104840009000BF00BF0898E8
:1046100000680899091D08910399C9B2BD4A52F86A
:10462000211048400099C1F30721BB4A52F82110DC
:1046300048400199C1F30741B84A52F82110484057
:104640000299090EB64A52F821104840079008987E
:1046500000680899091D08910299C9B2AD4A52F83B
:10466000211048400399C1F30721AB4A52F82110A9
:1046700048400099C1F30741A84A52F82110484028
:104680000199090EA64A52F8211048400690089850
:1046900000680899091D08910199C9B29D4A52F80C
:1046A000211048400299C1F307219B4A52F821107A
:1046B00048400399C1F30741984A52F821104840F5
:1046C0000099090E964A52F8211048400590089822
:1046D00000680899091D08910099C9B28D4A52F8DD
:1046E000211048400199C1F307218B4A52F821104B
:1046F00048400299C1F30741884A52F821104840C6
:104700000399090E864A52F821104840049000BFD0
:104710007F1E002F3FF7F8AE00BF08980068089989
:10472000091D08910799C9B27A4A52F821104840E8
:104730000499C1F30721784A52F82110484005999D
:10474000C1F30741754A52F8211048400699090EF5
:10475000734A52F82110484003900898006808995D
:10476000091D08910699C9B26A4A52F821104840B9
:104770000799C1F30721684A52F82110484004996B
:10478000C1F30741654A52F8211048400599090EC6
:10479000634A52F82110484002900898006808992E
:1047A000091D08910599C9B25A4A52F8211048408A
:1047B0000699C1F30721584A52F821104840079939
:1047C000C1F30741554A52F8211048400499090E97
:1047D000534A52F8211048400190089800680899FF
:1047E000091D08910499C9B24A4A52F8211048405B
:1047F0000599C1F30721484A52F82110484006990B
:10480000C1F30741454A52F8211048400799090E63
:10481000434A52F821104840009000BF08980068B1
:104820000899091D08910399C9B23E4A515C484054
:104830001146009AC2F30722895C80EA01213948B7
:10484000019AC2F30742805C81EA00410298000E9F
:10485000344A105C81EA0060079008980068089963
:10486000091D08910299C9B2515C48401146039A4A
:10487000C2F30722895C80EA01212A48009AC2F328
:104880000742805C81EA00410198000E254A105CD5
:1048900081EA00600690089800680899091D08914F
:1048A0000199C9B2515C48401146029AC2F30722ED
:1048B000895C80EA01201B49039AC2F30742895CA4
:1048C00080EA01410098000E164A105C81EA0060FF
:1048D0000590089800680899091D08910099C9B2C7
:1048E000515C48401146019AC2F30722895C80EA74
:1048F00001210C48029AC2F30742805C81EA004120
:104900000398000E074A105C81EA00600490079843
:10491000287009E048A2010848A6010848AA010831
:1049200048AE010848A101080798000A6870079876
:10493000000CA8700798000EE87006982871069879
:10494000000A68710698000CA8710698000EE871BC
:10495000059828720598000A68720598000CA872DC
:104960000598000EE872049828730498000A68738A
:104970000498000CA8730498000EE873042107A89B
:1049800006F0A4FC042106A806F0A0FC042105A85A
:1049900006F09CFC042104A806F098FC042103A85E
:1049A00006F094FC042102A806F090FC042101A862
:1049B00006F08CFC0421684606F088FC042108A857
:1049C00006F084FC002009B0F0BD0000F0B589B00D
:1049D00006460C461546706808902078617840EAD3
:1049E0000120A17840EA0140E17840EA01600790A7
:1049F000089800680899091D089107994840079090
:104A00002079617940EA0120A17940EA0140E17909
:104A100040EA01600690089800680899091D08910D
:104A2000069948400690207A617A40EA0120A17AEE
:104A300040EA0140E17A40EA016005900898006888
:104A40000899091D0891059948400590207B617BD4
:104A500040EA0120A17B40EA0140E17B40EA01609D
:104A60000490089800680899091D08910499484025
:104A7000049001213068C1EB600704E100BF089891
:104A800000680899091D08910799C9B2FE4A52F8B1
:104A9000211048400699C1F30721FC4A52F8211021
:104AA00048400599C1F30741F94A52F8211048409E
:104AB0000499090EF74A52F82110484003900898CB
:104AC00000680899091D08910699C9B2EE4A52F882
:104AD000211048400599C1F30721EC4A52F82110F2
:104AE00048400499C1F30741E94A52F8211048406F
:104AF0000799090EE74A52F8211048400290089899
:104B000000680899091D08910599C9B2DE4A52F852
:104B1000211048400499C1F30721DC4A52F82110C2
:104B200048400799C1F30741D94A52F8211048403B
:104B30000699090ED74A52F821104840019008986A
:104B400000680899091D08910499C9B2CE4A52F823
:104B5000211048400799C1F30721CC4A52F821108F
:104B600048400699C1F30741C94A52F8211048400C
:104B70000599090EC74A52F821104840009000BF1D
:104B800000BF089800680899091D08910399C9B2E7
:104B9000BD4A52F8211048400299C1F30721BB4A8F
:104BA00052F8211048400199C1F30741B84A52F820
:104BB000211048400099090EB64A52F82110484089
:104BC0000790089800680899091D08910299C9B2D0
:104BD000AD4A52F8211048400199C1F30721AB4A70
:104BE00052F8211048400099C1F30741A84A52F8F1
:104BF000211048400399090EA64A52F82110484056
:104C00000690089800680899091D08910199C9B291
:104C10009D4A52F8211048400099C1F307219B4A50
:104C200052F8211048400399C1F30741984A52F8BD
:104C3000211048400299090E964A52F82110484026
:104C40000590089800680899091D08910099C9B253
:104C50008D4A52F8211048400399C1F307218B4A2D
:104C600052F8211048400299C1F30741884A52F88E
:104C7000211048400199090E864A52F821104840F7
:104C8000049000BF7F1E002F3FF7F8AE00BF0898CA
:104C900000680899091D08910799C9B27A4A52F823
:104CA000211048400699C1F30721784A52F8211093
:104CB00048400599C1F30741754A52F82110484010
:104CC0000499090E734A52F821104840039008983D
:104CD00000680899091D08910699C9B26A4A52F8F4
:104CE000211048400599C1F30721684A52F8211064
:104CF00048400499C1F30741654A52F821104840E1
:104D00000799090E634A52F821104840029008980A
:104D100000680899091D08910599C9B25A4A52F8C4
:104D2000211048400499C1F30721584A52F8211034
:104D300048400799C1F30741554A52F821104840AD
:104D40000699090E534A52F82110484001900898DC
:104D500000680899091D08910499C9B24A4A52F895
:104D6000211048400799C1F30721484A52F8211001
:104D700048400699C1F30741454A52F8211048407E
:104D80000599090E434A52F821104840009000BF8F
:104D9000089800680899091D08910399C9B23E4A0C
:104DA000515C48401146029AC2F30722895C80EAAE
:104DB00001213948019AC2F30742805C81EA00412F
:104DC0000098000E344A105C81EA00600790089851
:104DD00000680899091D08910299C9B2515C4840C0
:104DE0001146019AC2F30722895C80EA01212A4810
:104DF000009AC2F30742805C81EA00410398000EEA
:104E0000254A105C81EA00600690089800680899BD
:104E1000091D08910199C9B2515C48401146009A98
:104E2000C2F30722895C80EA01201B49039AC2F37E
:104E30000742895C80EA01410298000E164A105C24
:104E400081EA00600590089800680899091D08919A
:104E50000099C9B2515C48401146039AC2F3072237
:104E6000895C80EA01210C48029AC2F30742805C07
:104E700081EA00410198000E074A105C81EA006057
:104E800004900798287009E04891010848950108A6
:104E900048990108489D0108489001080798000AB0
:104EA00068700798000CA8700798000EE8700698C4
:104EB00028710698000A68710698000CA871069877
:104EC000000EE871059828720598000A6872059826
:104ED000000CA8720598000EE872049828730498D4
:104EE000000A68730498000CA8730498000EE87315
:104EF000042107A806F0EAF9042106A806F0E6F95D
:104F0000042105A806F0E2F9042104A806F0DEF960
:104F1000042103A806F0DAF9042102A806F0D6F964
:104F2000042101A806F0D2F90421684606F0CEF962
:104F3000042108A806F0CAF9002009B0F0BD00005D
:104F4000F0B590B006460D4628786F7840EA072005
:104F5000AF7840EA0740EF7840EA07600090287990
:104F60006F7940EA0720AF7940EA0740EF7940EADD
:104F700007600190287A6F7A40EA0720AF7A40EA0A
:104F80000740EF7A40EA07600290287B6F7B40EA97
:104F90000720AF7B40EA0740EF7B40EA07600390C1
:104FA000287C6F7C40EA0720AF7C40EA0740EF7C1A
:104FB00040EA07600490287D6F7D40EA0720AF7DBE
:104FC00040EA0740EF7D40EA07600590287E6F7E4B
:104FD00040EA0720AF7E40EA0740EF7E40EA0760E4
:104FE0000690287F6F7F40EA0720AF7F40EA0740A6
:104FF000EF7F40EA0760079095F8200095F8217050
:1050000040EA072095F8227040EA074095F823709F
:1050100040EA0760089095F8240095F8257040EA6A
:10502000072095F8267040EA074095F8277040EA77
:105030000760099095F8280095F8297040EA072044
:1050400095F82A7040EA074095F82B7040EA07600F
:105050000A9095F82C0095F82D7040EA072095F8F5
:105060002E7040EA074095F82F7040EA07600B90D9
:1050700095F8300095F8317040EA072095F83270C5
:1050800040EA074095F8337040EA07600C9095F8C5
:10509000340095F8357040EA072095F8367040EAFC
:1050A000074095F8377040EA07600D9095F8380092
:1050B00095F8397040EA072095F83A7040EA0740C1
:1050C00095F83B7040EA07600E9095F83C0095F823
:1050D0003D7040EA072095F83E7040EA074095F899
:1050E0003F7040EA07600F90B168F26833697469F5
:1050F00000BF83EA040010406040009F3844FE4F28
:1051000038440144C80140EA5160811800BF00BF23
:1051100082EA030008405840019F3844F74F384462
:105120000444200340EA1450441800BF00BF81EA41
:10513000020020405040029F3844F14F384403445D
:10514000580440EAD330031900BF00BF84EA0100CD
:1051500018404840039F3844EA4F384402449005C1
:1051600040EA9220C21800BF00BF83EA040010404A
:105170006040049F3844E44F38440144C80140EA89
:105180005160811800BF00BF82EA03000840584008
:10519000059F3844DD4F38440444200340EA14504E
:1051A000441800BF00BF81EA020020405040069F23
:1051B0003844D74F38440344580440EAD3300319E5
:1051C00000BF00BF84EA010018404840079F3844F0
:1051D000D04F38440244900540EA9220C21800BFE4
:1051E00000BF83EA040010406040089F3844CA4F63
:1051F00038440144C80140EA5160811800BF00BF33
:1052000082EA030008405840099F3844C34F38449D
:105210000444200340EA1450441800BF00BF81EA50
:105220000200204050400A9F3844A0F524404F38E7
:105230000344580440EAD330031900BF00BF84EA96
:105240000100184048400B9F3844B54F3844024491
:10525000900540EA9220C21800BF00BF83EA040014
:10526000104060400C9F3844AE4F38440144C801A0
:1052700040EA5160811800BF00BF82EA0300084085
:1052800058400D9F3844A84F38440444200340EA56
:105290001450441800BF00BF81EA02002040504073
:1052A0000E9F3844A14F38440344580440EAD33099
:1052B000031900BF00BF84EA0100184048400F9F57
:1052C00038449B4F38440244900540EA9220C2186B
:1052D00000BF00BF82EA030020405840019F3844CD
:1052E000944F38440144480140EAD160811800BF1E
:1052F00000BF81EA020018405040069F38448E4F9C
:1053000038440444600240EAD450441800BF00BF4F
:1053100084EA0100104048400B9F3844874F3844CE
:105320000344980340EA9340031900BF00BF83EA97
:10533000040008406040009F3844814F38440244D4
:10534000100540EA1230C21800BF00BF82EA030015
:1053500020405840059F38447A4F38440144480162
:1053600040EAD160811800BF00BF81EA0200184006
:1053700050400A9F3844744F38440444600240EA65
:10538000D450441800BF00BF84EA010010404840D8
:105390000F9F38446D4F38440344980340EA9340CC
:1053A000031900BF00BF83EA040008406040049F67
:1053B0003844674F38440244100540EA1230C2189E
:1053C00000BF00BF82EA030020405840099F3844D4
:1053D000604F38440144480140EAD160811800BF61
:1053E00000BF81EA0200184050400E9F38445A4FD7
:1053F00038440444600240EAD450441800BF00BF5F
:1054000084EA010010404840039F3844534F384419
:105410000344980340EA9340031900BF00BF83EAA6
:10542000040008406040089F38444D4F384402440F
:10543000100540EA1230C21800BF00BF82EA030024
:10544000204058400D9F3844464F3844014448019D
:1054500040EAD160811800BF00BF81EA0200184015
:105460005040029F3844404F38440444600240EAB0
:10547000D450441800BF00BF84EA010010404840E7
:10548000079F3844394F38440344980340EA934017
:10549000031900BF00BF83EA0400084060400C9F6E
:1054A0003844334F38440244100540EA1230C218E1
:1054B00000BF00BF82EA03006040059F38442D4FC3
:1054C00038440144080140EA1170811800BF00BF50
:1054D00081EA02005840089F3844274F384404446A
:1054E000E00240EA5450441800BF00BF84EA0100C3
:1054F00050400B9F384441E078A46AD756B7C7E8BC
:10550000DB702024EECEBDC1AF0F7CF52AC68747E5
:10551000134630A8019546FDD8988069AFF7448BB3
:10552000BED75C892211906B937198FD8E4379A64A
:105530002108B44962251EF640B340C0515A5E2688
:10554000AAC7B6E95D102FD65314440281E6A1D84C
:10555000C8FBD3E7E6CDE121D60737C3870DD5F4E5
:10556000ED145A4505E9E3A9F8A3EFFCD9026F67EA
:105570008A4C2A8D4239FAFF81F67187D64F38441A
:105580000344180440EA1340031900BF00BF83EA34
:10559000040048400E9F3844D04F38440244D005A0
:1055A00040EA5220C21800BF00BF82EA03006040F8
:1055B000019F3844CA4F38440144080140EA117041
:1055C000811800BF00BF81EA02005840049F3844A0
:1055D000C44F38440444E00240EA5450441800BF29
:1055E00000BF84EA01005040079F3844BE4F384452
:1055F0000344180440EA1340031900BF00BF83EAC4
:10560000040048400A9F3844B84F38440244D0054B
:1056100040EA5220C21800BF00BF82EA0300604087
:105620000D9F3844B24F38440144080140EA1170DC
:10563000811800BF00BF81EA02005840009F384433
:10564000AC4F38440444E00240EA5450441800BFD0
:1056500000BF84EA01005040039F3844A64F3844FD
:105660000344180440EA1340031900BF00BF83EA53
:1056700004004840069F3844A04F38440244D005F7
:1056800040EA5220C21800BF00BF82EA0300604017
:10569000099F38449A4F38440144080140EA117088
:1056A000811800BF00BF81EA020058400C9F3844B7
:1056B000944F38440444E00240EA5450441800BF78
:1056C00000BF84EA010050400F9F38448E4F384499
:1056D0000344180440EA1340031900BF00BF83EAE3
:1056E00004004840029F3844884F38440244D005A3
:1056F00040EA5220C21800BF00BF62EA04005840CE
:10570000009F3844824F38440144880140EA916048
:10571000811800BF00BF61EA03005040079F384472
:105720007C4F38440444A00240EA9450441800BF1F
:1057300000BF64EA020048400E9F3844764F384468
:105740000344D80340EA5340031900BF00BF63EA93
:1057500001006040059F3844704F384402445005B2
:1057600040EAD220C21800BF00BF62EA04005840DD
:105770000C9F38446A4F38440144880140EA9160E4
:10578000811800BF00BF61EA03005040039F384406
:10579000644F38440444A00240EA9450441800BFC7
:1057A00000BF64EA020048400A9F38445E4F384414
:1057B0000344D80340EA5340031900BF00BF63EA23
:1057C00001006040019F3844584F3844024450055E
:1057D00040EAD220C21800BF00BF62EA040058406D
:1057E000089F3844524F38440144880140EA916090
:1057F000811800BF00BF61EA030050400F9F38448A
:105800004C4F38440444A00240EA9450441800BF6E
:1058100000BF64EA02004840069F3844464F3844BF
:105820000344D80340EA5340031900BF00BF63EAB2
:10583000010060400D9F3844404F384402445005F9
:1058400040EAD220C21800BF00BF62EA04005840FC
:10585000049F38443A4F38440144880140EA91603B
:10586000811800BF00BF61EA030050400B9F38441D
:10587000344F38440444A00240EA9450441800BF16
:1058800000BF64EA02004840029F38442E4F38446B
:105890000344D80340EA5340031900BF00BF63EA42
:1058A00001006040099F3844284F384402445005A5
:1058B00040EAD220C21800BFB0680844B060F06867
:1058C0008718F7603069C718376170690719776101
:1058D000002010B0F0BD000022619D6D0C38E5FD88
:1058E00044EABEA4A9CFDE4B604BBBF670BCBFBE82
:1058F000C67E9B28FA27A1EA8530EFD4051D8804CF
:1059000039D0D4D9E599DBE6F87CA21F6556ACC442
:10591000442229F497FF2A43A72394AB39A093FC90
:10592000C3595B6592CC0C8F7DF4EFFFD15D84850C
:105930004F7EA86FE0E62CFE144301A3A111084E90
:10594000827E53F735F23ABDBBD2D72A91D386EB8C
:105950002DE9F04390B084460F4600BF00BF00BF62
:1059600000BF3878000697F8018040EA084097F8B1
:10597000028040EA082097F8038040EA080000907F
:105980003879000697F8058040EA084097F80680C5
:1059900040EA082097F8078040EA08000190387A2A
:1059A000000697F8098040EA084097F80A8040EA24
:1059B000082097F80B8040EA08000290387B000628
:1059C00097F80D8040EA084097F80E8040EA0820DA
:1059D00097F80F8040EA08000390387C000697F89B
:1059E000118040EA084097F8128040EA082097F8B2
:1059F000138040EA08000490387D000697F815806F
:105A000040EA084097F8168040EA082097F8178087
:105A100040EA08000590387E000697F8198040EAB1
:105A2000084097F81A8040EA082097F81B8040EA5F
:105A300008000690387F000697F81D8040EA08406D
:105A400097F81E8040EA082097F81F8040EA080077
:105A5000079097F82000000697F8218040EA084058
:105A600097F8228040EA082097F8238040EA08004F
:105A7000089097F82400000697F8258040EA08402F
:105A800097F8268040EA082097F8278040EA080027
:105A9000099097F82800000697F8298040EA084006
:105AA00097F82A8040EA082097F82B8040EA0800FF
:105AB0000A9097F82C00000697F82D8040EA0840DD
:105AC00097F82E8040EA082097F82F8040EA0800D7
:105AD0000B9097F83000000697F8318040EA0840B4
:105AE00097F8328040EA082097F8338040EA0800AF
:105AF0000C9097F83400000697F8358040EA08408B
:105B000097F8368040EA082097F8378040EA080086
:105B10000D9097F83800000697F8398040EA084061
:105B200097F83A8040EA082097F83B8040EA08005E
:105B30000E9097F83C00000697F83D8040EA084038
:105B400097F83E8040EA082097F83F8040EA080036
:105B50000F90DCF80810DCF80C20DCF81030DCF8D2
:105B60001440DCF8185000BF480140EAD16883EACD
:105B70000400104060404044DFF8F88F4044DDF8F6
:105B8000008040440544900740EA920200BF00BFF5
:105B9000680140EAD56882EA030008405840404462
:105BA000DFF8D08F4044DDF8048040440444880787
:105BB00040EA910100BF00BF600140EAD46881EA79
:105BC0000200284050404044DFF8A88F4044DDF8F0
:105BD000088040440344A80740EA950500BF00BF81
:105BE000580140EAD36885EA01002040484040441B
:105BF000DFF8808F4044DDF80C8040440244A00769
:105C000040EA940400BF00BF500140EAD26884EA31
:105C10000500184068404044DFF8588F4044DDF8E4
:105C2000108040440144980740EA930300BF00BF3E
:105C3000480140EAD16883EA0400104060404044D3
:105C4000DFF8308F4044DDF814804044054490076D
:105C500040EA920200BF00BF680140EAD56882EACC
:105C60000300084058404044DFF8088F4044DDF806
:105C7000188040440444880740EA910100BF00BFF7
:105C8000600140EAD46881EA020028405040404464
:105C9000DFF8E08E4044DDF81C8040440344A80750
:105CA00040EA950500BF00BF580140EAD36885EA85
:105CB0000100204048404044DFF8B88E4044DDF801
:105CC000208040440244A00740EA940400BF00BF83
:105CD000500140EAD26884EA050018406840404418
:105CE000DFF8908E4044DDF824804044014498075A
:105CF00040EA930300BF00BF480140EAD16883EA4D
:105D00000400104060404044DFF8688E4044DDF8F5
:105D1000288040440544900740EA920200BF00BF3B
:105D2000680140EAD56882EA0300084058404044D0
:105D3000DFF8408E4044DDF82C804044044488075E
:105D400040EA910100BF00BF600140EAD46881EAE7
:105D50000200284050404044DFF8188E4044DDF8EF
:105D6000308040440344A80740EA950500BF00BFC7
:105D7000580140EAD36885EA010020404840404489
:105D8000DFF8F08D4044DDF8348040440244A00741
:105D900040EA940400BF00BF500140EAD26884EAA0
:105DA0000500184068404044DFF8C88D4044DDF8E5
:105DB000388040440144980740EA930300BF00BF85
:105DC000480140EAD16883EA040010406040404442
:105DD000DFF8A08D4044DDF83C8040440544900746
:105DE00040EA920200BF00BFDDF820800D9880EAF3
:105DF0000800DDF8088080EA0800DDF8008080EA0D
:105E00000806700040EAD678680140EAD56982EA5F
:105E10000300084058404844DFF8589D4844404437
:105E20000444CDF80080880740EA910100BF00BF1C
:105E3000DDF824800E9880EA0800DDF80C8080EA06
:105E40000800DDF8048080EA0806700040EAD67891
:105E5000600140EAD46981EA020028405040484489
:105E6000DFF8109D484440440344CDF80480A8075F
:105E700040EA950500BF00BFDDF828800F9880EA52
:105E80000800DDF8108080EA0800DDF8088080EA6C
:105E90000806700040EAD678580140EAD36985EADE
:105EA0000100204048404844DFF8C89C4844404432
:105EB0000244CDF80880A00740EA940400BF00BF68
:105EC000DDF82C80009880EA0800DDF8148080EA74
:105ED0000800DDF80C8080EA0806700040EAD678F9
:105EE000500140EAD26984EA0500184068404844FD
:105EF000DFF8809C484440440144CDF80C8098076A
:105F000040EA930300BF00BFDDF83080019880EACB
:105F10000800DDF8188080EA0800DDF8108080EACB
:105F20000806700040EAD678480140EAD16982EA62
:105F3000030060404844DFF8409C48444044054426
:105F4000CDF81080900740EA920200BF00BFDDF854
:105F50003480029880EA0800DDF81C8080EA08009E
:105F6000DDF8148080EA0806700040EAD6786801FF
:105F700040EAD56981EA020058404844DFF8F89BBE
:105F8000484440440444CDF81480880740EA910115
:105F900000BF00BFDDF83880039880EA0800DDF814
:105FA000208080EA0800DDF8188080EA080670008A
:105FB00040EAD678600140EAD46985EA01005040A1
:105FC0004844DFF8B49B484440440344CDF818806B
:105FD000A80740EA950500BF00BFDDF83C800498A3
:105FE00080EA0800DDF8248080EA0800DDF81C80E3
:105FF00080EA0806700040EAD678580140EAD36982
:1060000084EA050048404844DFF86C9B484440441B
:106010000244CDF81C80A00740EA940400BF00BFF2
:10602000DDF80080059880EA0800DDF8288080EA25
:106030000800DDF8208080EA0806700040EAD67883
:10604000500140EAD26983EA040068404844DFF81E
:10605000289B484440440144CDF82080980740EAFA
:10606000930300BF00BFDDF80480069880EA0800B3
:10607000DDF82C8080EA0800DDF8248080EA08063C
:10608000700040EAD678480140EAD16982EA03000C
:1060900060404844DFF8E09A484440440544CDF865
:1060A0002480900740EA920200BF00BFDDF808801C
:1060B000079880EA0800DDF8308080EA0800DDF803
:1060C000288080EA0806700040EAD678680140EA35
:1060D000D56981EA020058404844DFF89C9A484458
:1060E00040440444CDF82880880740EA910100BF6D
:1060F00000BFDDF80C80089880EA0800DDF83480E5
:1061000080EA0800DDF82C8080EA0806700040EA8A
:10611000D678600140EAD46985EA010050404844DD
:10612000DFF8549A484440440344CDF82C80A80733
:1061300040EA950500BF00BFDDF81080099880EAAD
:106140000800DDF8388080EA0800DDF8308080EA59
:106150000806700040EAD678580140EAD36984EA1C
:10616000050048404844DFF8109A4844404402443F
:10617000CDF83080A00740EA940400BF00BFDDF8EE
:1061800014800A9880EA0800DDF83C8080EA080064
:10619000DDF8348080EA0806700040EAD6785001C5
:1061A00040EAD26983EA040068404844DFF8C899AD
:1061B000484440440144CDF83480980740EA9303B2
:1061C00000BF00BFDDF818800B9880EA0800DDF8FA
:1061D000008080EA0800DDF8388080EA0806700058
:1061E00040EAD678480140EAD16982EA030060407B
:1061F0004844DFF88499484440440544CDF8388049
:10620000900740EA920200BF00BFDDF81C800C98A6
:1062100080EA0800DDF8048080EA0800DDF83C80B0
:1062200080EA0806700040EAD678680140EAD5693D
:1062300081EA020058404844DFF83C994844404411
:106240000444CDF83C80880740EA910100BF00BFBC
:10625000DDF820800D9880EA0800DDF8088080EAEB
:106260000800DDF8008080EA0806700040EAD67871
:10627000600140EAD46985EA010050404844DFF8F3
:10628000F898484440440344CDF80080A80740EA09
:10629000950500BF00BFDDF824800E9880EA080055
:1062A000DDF80C8080EA0800DDF8048080EA08064A
:1062B000700040EAD678580140EAD36984EA0500C4
:1062C00048404844DFF8B098484440440244CDF880
:1062D0000480A00740EA940400BF00BFDDF82880D6
:1062E0000F9880EA0800DDF8108080EA0800DDF8E9
:1062F000088080EA0806700040EAD678500140EA3B
:10630000D26983EA040068404844DFF86C98484446
:1063100040440144CDF80880980740EA930300BF49
:1063200000BFDDF82C80009880EA0800DDF81480BA
:1063300080EA0800DDF80C8080EA0806700040EA78
:10634000D678480140EAD16982EA030060404844B7
:10635000DFF82498484440440544CDF80C80900769
:1063600040EA920200BF00BFDDF83080019880EA69
:106370000800DDF8188080EA0800DDF8108080EA67
:106380000806700040EAD678680140EAD56981EADB
:10639000020058404844DFF8E09748444044044431
:1063A000CDF81080880740EA910100BF00BFDDF8FA
:1063B0003480029880EA0800DDF81C8080EA08003A
:1063C000DDF8148080EA0806700040EAD6786001A3
:1063D00040EAD46985EA010050404844DFF89897C4
:1063E000484440440344CDF81480A80740EA95058A
:1063F00000BF00BFDDF83880039880EA0800DDF8B0
:10640000208080EA0800DDF8188080EA0806700025
:1064100040EAD678580140EAD36984EA050048404A
:106420004844DFF85497484440440244CDF818806B
:10643000A00740EA940400BF00BFDDF83C80049848
:1064400080EA0800DDF8248080EA0800DDF81C807E
:1064500080EA0806700040EAD678500140EAD26926
:1064600083EA040068404844DFF80C9748444044FD
:106470000144CDF81C80980740EA930300BF00BF99
:10648000480140EAD16902EA030042EA030808EA47
:10649000040840EA08004844DFF8E0868044DDF85C
:1064A0000090059880EA0900DDF8289080EA09004C
:1064B000DDF8209080EA0906700040EAD670089066
:1064C00040440544900740EA920200BF00BF6801C3
:1064D00040EAD56901EA020041EA020808EA030835
:1064E00040EA08004844DFF894868044DDF80490D0
:1064F000069880EA0900DDF82C9080EA0900DDF8B2
:10650000249080EA0906700040EAD6700990404461
:106510000444880740EA910100BF00BF600140EADF
:10652000D46905EA010045EA010808EA020840EAE0
:1065300008004844DFF844868044DDF80890079856
:1065400080EA0900DDF8309080EA0900DDF8289043
:1065500080EA0906700040EAD6700A90404403447D
:10656000A80740EA950500BF00BF580140EAD3697B
:1065700004EA050044EA050808EA010840EA0800C0
:106580004844DFF8F8858044DDF80C90089880EAEC
:106590000900DDF8349080EA0900DDF82C9080EAEB
:1065A0000906700040EAD6700B9040440244A007F0
:1065B00040EA940400BF00BF500140EAD26903EAF8
:1065C000040043EA040808EA050840EA08004844D1
:1065D000DFF8A8858044DDF81090099880EA09006A
:1065E000DDF8389080EA0900DDF8309080EA09068D
:1065F000700040EAD6700C9040440144980740EA8D
:10660000930300BF00BF480140EAD16902EA0300DA
:1066100042EA030808EA040840EA08004844DFF8B0
:106620005C858044DDF814900A9880EA0900DDF862
:106630003C9080EA0900DDF8349080EA0906700099
:1066400040EAD6700D9040440544900740EA92021B
:1066500000BF00BF680140EAD56901EA020041EAD3
:10666000020808EA030840EA08004844DFF80C85FD
:106670008044DDF818900B9880EA0900DDF800905E
:1066800080EA0900DDF8389080EA0906700040EAE7
:10669000D6700E9040440444880740EA910100BF40
:1066A00000BF600140EAD46905EA010045EA01083B
:1066B00008EA020840EA08004844DFF8C084804441
:1066C000DDF81C900C9880EA0900DDF8049080EA5F
:1066D0000900DDF83C9080EA0906700040EAD670B7
:1066E0000F9040440344A80740EA950500BF00BF4F
:1066F000580140EAD36904EA050044EA050808EABB
:10670000010840EA08004844DFF870848044DDF85E
:1067100020900D9880EA0900DDF8089080EA0900D1
:10672000DDF8009080EA0906700040EAD67000901B
:1067300040440244A00740EA940400BF00BF500157
:1067400040EAD26903EA040043EA040808EA0508BB
:1067500040EA08004844DFF824848044DDF82490AF
:106760000E9880EA0900DDF80C9080EA0900DDF857
:10677000049080EA0906700040EAD6700190404417
:106780000144980740EA930300BF00BF480140EA74
:10679000D16902EA030042EA030808EA040840EA71
:1067A00008004844DFF8D4838044DDF828900F982F
:1067B00080EA0900DDF8109080EA0900DDF8089011
:1067C00080EA0906700040EAD67002904044054411
:1067D000900740EA920200BF00BF680140EAD56915
:1067E00001EA020041EA020808EA030840EA080058
:1067F0004844DFF888838044DDF82C90009880EAD4
:106800000900DDF8149080EA0900DDF80C9080EAB8
:106810000906700040EAD67003904044044488079B
:1068200040EA910100BF00BF600140EAD46905EA77
:10683000010045EA010808EA020840EA0800484465
:10684000DFF838838044DDF83090019880EA090051
:10685000DDF8189080EA0900DDF8109080EA09065A
:10686000700040EAD670049040440344A80740EA10
:10687000950500BF00BF580140EAD36904EA05004E
:1068800044EA050808EA010840EA08004844DFF83D
:10689000EC828044DDF83490029880EA0900DDF84B
:1068A0001C9080EA0900DDF8149080EA0906700067
:1068B00040EAD670059040440244A00740EA9404A0
:1068C00000BF00BF500140EAD26903EA040043EA76
:1068D000040808EA050840EA08004844DFF89C82FA
:1068E0008044DDF83890039880EA0900DDF82090B4
:1068F00080EA0900DDF8189080EA0906700040EA95
:10690000D670069040440144980740EA930300BFC4
:1069100000BF480140EAD16902EA030042EA0308E5
:1069200008EA040840EA08004844DFF8508280443E
:10693000DDF83C90049880EA0900DDF8249080EAB4
:106940000900DDF81C9080EA0906700040EAD67064
:10695000079040440544900740EA920200BF00BF00
:10696000680140EAD56901EA020041EA020808EA42
:10697000030840EA08004844DFF800828044DDF85C
:106980000090059880EA0900DDF8289080EA090067
:10699000DDF8209080EA0906700040EAD670089081
:1069A00040440444880740EA910100BF00BF6001F1
:1069B00040EAD46905EA010045EA010808EA02084C
:1069C00040EA08004844DFF8B4818044DDF80490D0
:1069D000069880EA0900DDF82C9080EA0900DDF8CD
:1069E000249080EA0906700040EAD670099040447D
:1069F0000344A80740EA950500BF00BF580140EADC
:106A0000D36904EA050044EA050808EA010840EAF7
:106A100008004844DFF864818044DDF80890079856
:106A200080EA0900DDF8309080EA0900DDF828905E
:106A300080EA0906700040EAD6700A904044024499
:106A4000A00740EA940400BF00BF500140EAD269A9
:106A500003EA040043EA040808EA050840EA0800DB
:106A60004844DFF818818044DDF80C90089880EAEB
:106A70000900DDF8349080EA0900DDF82C9080EA06
:106A80000906700040EAD6700B9040440144980714
:106A900040EA930300BF00BFDDF81080099880EA48
:106AA0000800DDF8388080EA0800DDF8308080EAF0
:106AB0000806700040EAD678480140EAD16982EAC7
:106AC000030060404844DFF8B8904844404405441F
:106AD000CDF83080900740EA920200BF00BFDDF899
:106AE00014800A9880EA0800DDF83C8080EA0800FB
:106AF000DDF8348080EA0806700040EAD678680144
:106B000040EAD56981EA020058404844DFF87090B5
:106B1000484440440444CDF83480880740EA910159
:106B200000BF00BFDDF818800B9880EA0800DDF890
:106B3000008080EA0800DDF8388080EA08067000EE
:106B400040EAD678600140EAD46985EA0100504005
:106B50004844DFF82C90484440440344CDF8388042
:106B6000A80740EA950500BF00BFDDF81C800C981F
:106B700008E000009979825AA1EBD96EDCBC1B8F2A
:106B8000D6C162CA80EA0800DDF8048080EA080005
:106B9000DDF83C8080EA0806700040EAD6785801AB
:106BA00040EAD36984EA050048404844DFF8B494D9
:106BB000484440440244CDF83C80A00740EA940495
:106BC00000BF00BFDDF820800D9880EA0800DDF8E6
:106BD000088080EA0800DDF8008080EA080670007E
:106BE00040EAD678500140EAD26983EA040068405E
:106BF0004844DFF87094484440440144CDF8008094
:106C0000980740EA930300BF00BFDDF824800E9888
:106C100080EA0800DDF80C8080EA0800DDF80480D6
:106C200080EA0806700040EAD678480140EAD16957
:106C300082EA030060404844DFF828944844404416
:106C40000544CDF80480900740EA920200BF00BFDF
:106C5000DDF828800F9880EA0800DDF8108080EACF
:106C60000800DDF8088080EA0806700040EAD6785F
:106C7000680140EAD56981EA020058404844DFF8DB
:106C8000E493484440440444CDF80880880740EA2F
:106C9000910100BF00BFDDF82C80009880EA080059
:106CA000DDF8148080EA0800DDF80C8080EA080630
:106CB000700040EAD678600140EAD46985EA0100B4
:106CC00050404844DFF89C93484440440344CDF886
:106CD0000C80A80740EA950500BF00BFDDF83080B2
:106CE000019880EA0800DDF8188080EA0800DDF8E5
:106CF000108080EA0806700040EAD678580140EA21
:106D0000D36984EA050048404844DFF85893484472
:106D100040440244CDF81080A00740EA940400BF2C
:106D200000BFDDF83480029880EA0800DDF81C809E
:106D300080EA0800DDF8148080EA0806700040EA66
:106D4000D678500140EAD26983EA0400684048449A
:106D5000DFF81093484440440144CDF8148098076C
:106D600040EA930300BF00BFDDF83880039880EA53
:106D70000800DDF8208080EA0800DDF8188080EA4D
:106D80000806700040EAD678480140EAD16982EAF4
:106D9000030060404844DFF8CC9248444044054436
:106DA000CDF81880900740EA920200BF00BFDDF8DE
:106DB0003C80049880EA0800DDF8248080EA08001E
:106DC000DDF81C8080EA0806700040EAD678680189
:106DD00040EAD56981EA020058404844DFF88492CD
:106DE000484440440444CDF81C80880740EA91019F
:106DF00000BF00BFDDF80080059880EA0800DDF8DC
:106E0000288080EA0800DDF8208080EA080670000B
:106E100040EAD678600140EAD46985EA0100504032
:106E20004844DFF84092484440440344CDF8208071
:106E3000A80740EA950500BF00BFDDF8048006986A
:106E400080EA0800DDF82C8080EA0800DDF8248064
:106E500080EA0806700040EAD678580140EAD36913
:106E600084EA050048404844DFF8F891484440442B
:106E70000244CDF82480A00740EA940400BF00BF7C
:106E8000DDF80880079880EA0800DDF8308080EAA5
:106E90000800DDF8288080EA0806700040EAD6780D
:106EA000500140EAD26983EA040068404844DFF8B0
:106EB000B491484440440144CDF82880980740EA02
:106EC000930300BF00BFDDF80C80089880EA08003B
:106ED000DDF8348080EA0800DDF82C8080EA0806BE
:106EE000700040EAD678480140EAD16982EA03009E
:106EF00060404844DFF86C91484440440544CDF874
:106F00002C80900740EA920200BF00BFDDF810809D
:106F1000099880EA0800DDF8388080EA0800DDF88A
:106F2000308080EA0806700040EAD678680140EABE
:106F3000D56981EA020058404844DFF82891484466
:106F400040440444CDF83080880740EA910100BFF6
:106F500000BFDDF814800A9880EA0800DDF83C8064
:106F600080EA0800DDF8348080EA0806700040EA14
:106F7000D678600140EAD46985EA0100504048446F
:106F8000DFF8E090484440440344CDF83480A8073B
:106F900040EA950500BF00BFDDF818800B9880EA35
:106FA0000800DDF8008080EA0800DDF8388080EA1B
:106FB0000806700040EAD678580140EAD36984EAAE
:106FC000050048404844DFF89C904844404402444F
:106FD000CDF83880A00740EA940400BF00BFDDF878
:106FE0001C800C9880EA0800DDF8048080EA080024
:106FF000DDF83C8080EA0806700040EAD67850014F
:1070000040EAD26983EA040068404844DFF85490BB
:10701000484440440144CDF83C80980740EA93033B
:1070200000BFDCF808000844CCF80800DCF80C00CD
:1070300000EB0208CCF80C80DCF8100000EB030831
:10704000CCF81080DCF8140000EB0408CCF81480B5
:10705000DCF8180000EB0508CCF81880002010B010
:10706000BDE8F083D6C162CA2DE9F041C8B005463B
:107070000C4600BF00BF00BF00BF002106E005F1C5
:10708000080050F821004DF82100491C0829F6D3CA
:10709000002116E000BF14F8210006068800401CFD
:1070A000205C46EA00468800801C205C46EA0020FE
:1070B0008E00F61CA65D304308AE46F8210000BFE6
:1070C000491C1029E6D300212AE200BF0498800958
:1070D000049E40EA8660F60A049F46EA47567040DE
:1070E0007E0E46EAC7167040079E0644DDE9050796
:1070F0007840049F3840069F78403044FE4E56F852
:107100002160304408AE56F821608219009880084A
:10711000009E40EA8670760B009F46EAC7467040A4
:10712000BE0D46EA872680EA0607DDE90006304004
:10713000DDE9006C46EA0C06DDF808C006EA0C063C
:1071400030433B18039810440390D018079000BFB9
:1071500000BF03988009039E40EA8660F60A039FF9
:1071600046EA475670407E0E46EAC7167040069EB5
:107170000644DDE904077840039F3840059F7840C6
:107180000644DD4F481C57F82000064408AF481C51
:1071900057F82000321807988008079E40EA86704A
:1071A000760B079F46EAC7467040BE0D46EA872623
:1071B00080EA0607009E07983040DDF800C0079E71
:1071C00046EA0C06DDF804C006EA0C0630433B181C
:1071D000029810440290D018069000BF00BF029899
:1071E0008009029E40EA8660F60A029F46EA4756F8
:1071F00070407E0E46EAC7167040059E0644DDE9E3
:1072000003077840029F3840049F78400644BA4FF5
:10721000881C57F82000064408AF881C57F8200047
:10722000321806988008069E40EA8670760B069F04
:1072300046EAC7467040BE0D46EA872680EA060742
:10724000DDE906063040DDE9066C46EA0C06DDF8AD
:1072500000C006EA0C0630433B1801981044019028
:10726000D018059000BF00BF01988009019E40EA38
:107270008660F60A019F46EA475670407E0E46EA4F
:10728000C7167040049E0644DDE902077840019F5E
:107290003840039F78400644974FC81C57F8200099
:1072A000064408AFC81C57F820003218059880081B
:1072B000059E40EA8670760B059F46EAC7467040F9
:1072C000BE0D46EA872680EA0607DDE9050630405E
:1072D000DDE9056C46EA0C06DDF81CC006EA0C0682
:1072E00030433B18009810440090D018049000BF21
:1072F00000BF00988009009E40EA8660F60A009F61
:1073000046EA475670407E0E46EAC7167040039E16
:107310000644DDE901077840009F3840029F78402D
:107320000644754F081D57F82000064408AF081D95
:1073300057F82000321804988008049E40EA8670AE
:10734000760B049F46EAC7467040BE0D46EA872684
:1073500080EA0607DDE904063040DDE9046C46EA10
:107360000C06DDF818C006EA0C0630433B180798F7
:1073700010440790D018039000BF00BF0798800901
:10738000079E40EA8660F60A079F46EA4756704025
:107390007E0E46EAC7167040029E0644DDE90007ED
:1073A0007840079F3840019F78400644524F481D5F
:1073B00057F82000064408AF481D57F8200032183F
:1073C00003988008039E40EA8670760B039F46EA86
:1073D000C7467040BE0D46EA872680EA0607DDE90B
:1073E00003063040DDE9036C46EA0C06DDF814C004
:1073F00006EA0C0630433B18069810440690D01855
:10740000029000BF00BF06988009069E40EA866091
:10741000F60A069F46EA475670407E0E46EAC716B1
:107420007040019E0644009F07987840069F3840B0
:10743000009F78400644304F881D57F820000644CE
:1074400008AF881D57F82000321802988008029E65
:1074500040EA8670760B029F46EAC7467040BE0D32
:1074600046EA872680EA0607DDE902063040DDE9C4
:10747000026C46EA0C06DDF810C006EA0C06304342
:107480003B18059810440590D018019000BF00BF2C
:1074900005988009059E40EA8660F60A059F46EA3F
:1074A000475670407E0E46EAC7167040009E06445E
:1074B000DDE906077840059F3840079F784006447D
:1074C0000D4FC81D57F82000064408AFC81D57F8D7
:1074D0002000321801988008019E40EA8670760BE1
:1074E000019F46EAC7467040BE0D46EA872680EAFD
:1074F0000607DDE9010601E0F4B901083040DDE9E5
:10750000016C46EA0C06DDF80CC006EA0C063043B6
:107510003B18049810440490D018009000BF083124
:107520001029FFF4D2AD1021FEE300BF881E08AE83
:1075300056F82000460C881E08AF57F8200046EA8F
:10754000C0308E1E57F82660F70C8E1E0DF1200CF1
:107550005CF8266047EA463670408E1E08AF57F842
:10756000266080EA9626C81F57F820003044A1F113
:107570000F0657F82660F709A1F10F061CF82660E0
:1075800047EA4666A1F10F075CF827704FEA974C6F
:10759000A1F10F070DF1200858F827704CEA873742
:1075A0007E40A1F10F07C4465CF8277086EAD70633
:1075B0000644A1F1100008AF57F82000064408A8BF
:1075C00040F8216004988009049F40EA8760FF0A20
:1075D000DDF810C047EA4C5778404FEA5C6747EA4D
:1075E000CC177840079F0744DDE9050C80EA0C00C2
:1075F000DDF810C000EA0C00DDF818C080EA0C00CD
:107600003844FE4F57F821703844321800988008EB
:10761000009E40EA8670760B009F46EAC74670409F
:10762000BE0D46EA872680EA0607DDE900063040FF
:10763000DDE9006C46EA0C06DDF808C006EA0C0637
:1076400030433B18039810440390D018079000BFB4
:1076500000BF481E08AE56F82000460C481E08AF72
:1076600057F8200046EAC036481E57F82000C70CDD
:10767000481EC4465CF8200047EA40304640481E99
:1076800008AF57F8200086EA9026881F57F8200098
:107690000644A1F10E0057F82000C709A1F10E0021
:1076A0001CF8200047EA4067A1F10E005CF82000BA
:1076B0004FEA904CA1F10E0058F820004CEA8030BF
:1076C0004740A1F10E00C4465CF8200087EAD000D4
:1076D0000644A1F10F0008AF57F820000644481CEB
:1076E00047F8206003988009039F40EA8760FF0AFB
:1076F000DDF80CC047EA4C5778404FEA5C6747EA30
:10770000CC177840069F0744DDE9040C80EA0C00A2
:10771000DDF80CC000EA0C00DDF814C080EA0C00B3
:107720000744DFF8D8C2481C5CF8200038443218FF
:1077300007988008079E40EA8670760B079F46EA06
:10774000C7467040BE0D46EA872680EA0607009EBF
:1077500007983040DDF800C0079E46EA0C06DDF8C9
:1077600004C006EA0C0630433B180298104402900D
:10777000D018069000BF00BF08AE56F82100460C96
:1077800008AF57F8210046EAC03657F82100C70C69
:10779000C4465CF8210047EA4030464008AF57F83D
:1077A000210086EA9026481F57F820000644A1F1E0
:1077B0000D0057F82000C709A1F10D001CF82000AA
:1077C00047EA4067A1F10D005CF820004FEA904CB9
:1077D000A1F10D0058F820004CEA80304740A1F19B
:1077E0000D00C4465CF8200087EAD0000644A1F1F1
:1077F0000E0008AF57F820000644881C47F82060A8
:1078000002988009029F40EA8760FF0ADDF808C0FD
:1078100047EA4C5778404FEA5C6747EACC17784014
:10782000059F0744DDE9030C80EA0C00DDF808C081
:1078300000EA0C00DDF810C080EA0C000744DFF815
:10784000BCC1881C5CF820003844321806988008B7
:10785000069E40EA8670760B069F46EAC746704051
:10786000BE0D46EA872680EA0607DDE906063040B7
:10787000DDE9066C46EA0C06DDF800C006EA0C06F7
:1078800030433B18019810440190D018059000BF78
:1078900000BF481C08AE56F82000460C481C08AF34
:1078A00057F8200046EAC036481C57F82000C70C9D
:1078B000481CC4465CF8200047EA40304640481C5B
:1078C00008AF57F8200086EA9026081F57F82000D6
:1078D0000644A1F10C0057F82000C709A1F10C00E3
:1078E0001CF8200047EA4067A1F10C005CF820007A
:1078F0004FEA904CA1F10C0058F820004CEA80307F
:107900004740A1F10C00C4465CF8200087EAD00093
:107910000644A1F10D0008AF57F820000644C81C2A
:1079200047F8206001988009019F40EA8760FF0ABC
:10793000DDF804C047EA4C5778404FEA5C6747EAF5
:10794000CC177840049F0744DDE9020C80EA0C0064
:10795000DDF804C000EA0C00DDF80CC080EA0C0081
:107960000744DFF898C0C81C5CF82000384432187F
:1079700005988008059E40EA8670760B059F46EACA
:10798000C7467040BE0D46EA872680EA0607DDE955
:1079900005063040DDE9056C46EA0C06DDF81CC042
:1079A00006EA0C0630433B18009810440090D018AB
:1079B000049000BF00BF881C08AE56F82000460C9B
:1079C000881C08AF57F8200046EAC036881C57F8D4
:1079D0002000C70C881CC4465CF8200047EA4030F1
:1079E0004640881C08AF57F8200086EA9026C81E3B
:1079F00057F820000644A1F10B0001E0F4B901089A
:107A000057F82000C709A1F10B001CF8200047EA35
:107A10004067A1F10B005CF820004FEA904CA1F107
:107A20000B0058F820004CEA80304740A1F10B00D1
:107A3000C4465CF8200087EAD0000644A1F10C009F
:107A400008AF57F820000644081D47F8206000984A
:107A50008009009F40EA8760FF0ADDF800C047EA1E
:107A60004C5778404FEA5C6747EACC177840039F51
:107A70000744DDE9010C80EA0C00DDF800C000EAF3
:107A80000C00DDF808C080EA0C000744DFF8F0C302
:107A9000081D5CF820003844321804988008049EC1
:107AA00040EA8670760B049F46EAC7467040BE0DDA
:107AB00046EA872680EA0607DDE904063040DDE96C
:107AC000046C46EA0C06DDF818C006EA0C063043E2
:107AD0003B18079810440790D018039000BF00BFD0
:107AE000C81C08AE56F82000460CC81C08AF57F852
:107AF000200046EAC036C81C57F82000C70CC81C36
:107B0000C4465CF8200047EA40304640C81C08AF35
:107B100057F8200086EA9026881E57F82000064471
:107B2000A1F10A0057F82000C709A1F10A001CF8CA
:107B3000200047EA4067A1F10A005CF820004FEA04
:107B4000904CA1F10A0058F820004CEA80304740E0
:107B5000A1F10A00C4465CF8200087EAD000064480
:107B6000A1F10B0008AF57F820000644481D47F864
:107B7000206007988009079F40EA8760FF0ADDF8C8
:107B80001CC047EA4C5778404FEA5C6747EACC177D
:107B90007840029F0744DDE9000C80EA0C00DDF824
:107BA0001CC000EA0C00DDF804C080EA0C000744A9
:107BB000DFF8CCC2481D5CF8200038443218039826
:107BC0008008039E40EA8670760B039F46EAC7460C
:107BD0007040BE0D46EA872680EA0607DDE9030607
:107BE0003040DDE9036C46EA0C06DDF814C006EA15
:107BF0000C0630433B18069810440690D0180290AB
:107C000000BF00BF081D08AE56F82000460C081D36
:107C100008AF57F8200046EAC036081D57F8200084
:107C2000C70C081DC4465CF8200047EA40304640B7
:107C3000081D08AF57F8200086EA9026481E57F81E
:107C400020000644A1F1090057F82000C709A1F15E
:107C500009001CF8200047EA4067A1F109005CF820
:107C600020004FEA904CA1F1090058F820004CEA9E
:107C700080304740A1F10900C4465CF8200087EA43
:107C8000D0000644A1F10A0008AF57F820000644CE
:107C9000881D47F8206006988009069F40EA8760A3
:107CA000FF0ADDF818C047EA4C5778404FEA5C6796
:107CB00047EACC177840019F0744DDF800C00798D9
:107CC00080EA0C00DDF818C000EA0C00DDF800C006
:107CD00080EA0C000744DFF8A8C1881D5CF820008A
:107CE0003844321802988008029E40EA8670760B6B
:107CF000029F46EAC7467040BE0D46EA872680EAE4
:107D00000607DDE902063040DDE9026C46EA0C06B2
:107D1000DDF810C006EA0C0630433B180598104405
:107D20000590D018019000E092E000BF00BF481D10
:107D300008AE56F82000460C481D08AF57F8200042
:107D400046EAC036481D57F82000C70C481DC446F7
:107D50005CF8200047EA40304640481D08AF57F81D
:107D6000200086EA902657F821000644A1F1080079
:107D700057F82000C709A1F108001CF8200047EAC5
:107D80004067A1F108005CF820004FEA904CA1F197
:107D9000080058F820004CEA80304740A1F1080064
:107DA000C4465CF8200087EAD0000644A1F109002F
:107DB00008AF57F820000644C81D47F82060059812
:107DC0008009059F40EA8760FF0ADDF814C047EA92
:107DD0004C5778404FEA5C6747EACC177840009FE1
:107DE0000744DDE9060C80EA0C00DDF814C000EA67
:107DF0000C00DDF81CC080EA0C000744DFF880C0EE
:107E0000C81D5CF820003844321801988008019E93
:107E100040EA8670760B019F46EAC7467040BE0D69
:107E200046EA872680EA0607DDE901063040DDE9FB
:107E3000016C46EA0C06DDF80CC006EA0C0630437D
:107E40003B18049810440490D018009000BF0831EB
:107E50004029FFF46AAB00210BE005F1080050F85F
:107E600021005DF82160064405F1080040F821601A
:107E7000491C0829F1D3002048B0BDE8F08100007A
:107E8000F4B901082DE9F34FADF5317D0E4600BF81
:107E900000BF00BF00BF00210AE0B198103000EB26
:107EA000C10781CFEC460CEBC10CCCE90007491CA3
:107EB0000829F2DB002154E016F8310007064FF0E4
:107EC000000C012000EBC100305C4FEA00484CEA96
:107ED0000C0047EA08074FF0020C0CEBC10C16F837
:107EE0000CC04FEA0C29844647EA0907032000EB3F
:107EF000C100305C3843042707EBC10716F8078040
:107F000000273F0647EA18294CEA086740EA090CAF
:107F1000052000EBC10016F800800020000440EAB4
:107F2000184047EA08474CEA000C062000EBC10065
:107F300016F800800020000240EA186947EA08208D
:107F40004CEA09074FF0070C0CEBC10C16F80CC0FB
:107F500040EA0C000DF1400C0CEBC10CCCE9000721
:107F6000491C1029A8DB8DE0881E10AF07EBC0006C
:107F7000D0E900704FEAD74C4CEA403CC00C8F1E51
:107F80000DF1400858F8377040EA47308F1E08EB73
:107F9000C7077F684FEA57798F1EC2460AEBC707AB
:107FA000D7E900A7FF0047EA5A7B49EACA078CEAEB
:107FB000070C80EA0B008F1E08EBC708D8E9007891
:107FC000BF0947EA88678CEA070C80EA9810CF1F40
:107FD0000DF1400808EBC708D8E900781CEB070E44
:107FE00040EB0808A1F10F0010AF07EBC007D7E97D
:107FF000000C07465FEA5C004FEA3707A1F10F0C5F
:108000000DF1400919F83CC040EACC70A1F10F0C09
:1080100009EBCC09D9E900C94FEA1C2C4CEA096CE0
:108020004FEA1929A1F10F0A0DF1400B1BF83AA0F4
:1080300049EA0A6987EA0C0C80EA0907A1F10F00F6
:10804000D94609EBC009D9E900094FEAD01040EA46
:1080500049608CEA000C87EAD9171EEB0C0048EB4C
:108060000708A1F11007DC460CEBC707D7E900C7EA
:1080700010EB0C0048EB070810AF07EBC107C7E98E
:108080000008491C5029FFF66FAF002100BF00BF58
:10809000DDE90870BF0B47EA80474FEA903CB846DD
:1080A00008984CEA804C800C099F40EA87304FEAE0
:1080B0009749089F49EA873788EA00008CEA070851
:1080C000099F4FEA5729FF05DDF820A047EA5A2B00
:1080D00049EACA57474088EA0B00DDE90EC817EBAA
:1080E0000C0940EB0800DDE90BCA0A9F87EA0A0782
:1080F000DDF834B08CEA0B0CDDE908AB07EA0A08BE
:108100000CEA0B07DDE90CAB88EA0A0C87EA0B08DE
:1081100019EB0C0740EB0800DFF8B08B08EBC10847
:10812000D8E900C817EB0C0740EB08000DF1400C34
:108130000CEBC10CDCE9008C17EB080240EB0C03E4
:10814000DDE900704FEA177C4CEA001C070F00982D
:1081500047EA001701984FEA90098007DDF800A070
:1081600040EA9A0B49EA8A708CEA000087EA0B0C15
:10817000019F4FEAD7197F0647EADA1B49EA4A67A7
:1081800047408CEA0B00DDE901CADDF8008008EA0F
:108190000A08DDF80CB00CEA0B0CDDE9019EDDF8F5
:1081A00000A04AEA0E0A49EA0B09DDE904BE0AEA20
:1081B0000B0A09EA0E0948EA0A084CEA090C17EB0F
:1081C000080440EB0C05DDE906C01CEB020740EBA0
:1081D000030CCDE9067C171943EB050CCDE90E7CA9
:1081E00000BF491C00BFDDE906704FEA973848EA36
:1081F0008048870B069847EA804784464FEA9C4CA4
:1082000007984CEA803C4FEA9049069849EA80304A
:1082100088EA0C08474007984FEA5029C005DDF866
:1082200018A040EA5A2B49EACA5088EA000887EAAF
:108230000B00DDE90CC918EB0C0840EB0900DDE987
:1082400009CA089F87EA0A07DDF82CB08CEA0B0CF4
:10825000DDE906A907EA0A070CEA090CDDF828A0FF
:1082600087EA0A078CEA0B0C18EB070740EB0C00B7
:10827000DFF858CA0CEBC108D8E900C817EB0C07A7
:1082800040EB08000DF1400C0CEBC108D8E900C828
:1082900017EB0C0240EB0803DDE90E074FEA107CF8
:1082A0004CEA071C380F0E9F40EA07100F9F4FEA59
:1082B00097094FF0000ABB46DDF838804746D8469C
:1082C0004FEA887848EA97084FEA877B5746C246C4
:1082D00049EA0B0847EA0A078CEA080880EA070C13
:1082E0000F984FEAD0194FF0000ADDE90E7B4FEAF4
:1082F0004B6040EAD7104FEA476B5746824649EA3F
:108300000B0047EA0A0988EA00078CEA0900DDE960
:1083100000ABDDE90E8C08EA0A080CEA0B0CDDF86C
:1083200000E0DDE90EA94AEA0E0A49EA0B09DDE997
:1083300002BE0AEA0B0A09EA0E0948EA0A084CEAF0
:10834000090C17EB080440EB0C05DDE904C01CEB3D
:10835000020740EB030CCDE9047C171943EB050C35
:10836000CDE90C7C00BF491C00BFDDE904704FEA79
:10837000973848EA8048870B049847EA8047800C82
:10838000DDF814C040EA8C304FEA9C49DDF810C09B
:108390004FEA8C3A844649EA0A0088EA0C08784099
:1083A000059F4FEA5729DDE904AC4FEACC5C4CEA63
:1083B0005A2B49EACA5C88EA0C0880EA0B00DDE91E
:1083C0000A7C18EB070940EB0C00DDE906C7DDE984
:1083D00008B88CEA0B0C87EA0807DDE904A80CEA68
:1083E0000A0C07EA0808DA468CEA0A07DDF824B026
:1083F00088EA0B0819EB070740EB0800DFF8CCC848
:108400000CEBC108D8E900C817EB0C0740EB0800DB
:108410000DF1400C0CEBC108D8E900C817EB0C02B9
:1084200040EB0803DDE90C07000F40EA07103F0F9F
:10843000DDF830C047EA0C17DDF834C04FEA9C097C
:108440004FF0000AE346DDF83080C446D8464FEAD4
:10845000887848EA9C084FEA8C7BD446C24649EAB1
:108460000B084CEA0A0980EA080C87EA09070D980C
:108470004FEAD0194006DDF830A040EADA1B49EA9D
:108480004A60B9468CEA000789EA0B00D046DDE96C
:108490000DC908EA0908DDF83CA00CEA0A0CDDE980
:1084A0000EEBDDE90CA94AEA0E0A49EA0B09DDE9FF
:1084B00000BE0AEA0B0A09EA0E0948EA0A084CEA71
:1084C000090C17EB080440EB0C05DDE902C01CEBBE
:1084D000020740EB030CCDE9027C171943EB050CB6
:1084E000CDE90A7C00BF491C00BFDDE902704FEAFC
:1084F000973848EA8048870B029847EA80478446C5
:108500004FEA9C4C03984CEA803C4FEA9049029811
:108510004FEA803A604649EA0A0CB94688EA000701
:1085200089EA0C0803984FEA5029C005DDF808A035
:1085300040EA5A2B49EACA50474088EA0B00DDE975
:1085400008C917EB0C0840EB0900DDE904C7DDE9B9
:1085500006AB8CEA0A0C87EA0B07DDE902A90CEAF4
:108560000A0C07EA0907DDF818A08CEA0A0C87EA6A
:108570000B0918EB0C0740EB0900DFF850C70CEBB8
:10858000C108D8E900C817EB0C0740EB08000DF153
:10859000400C0CEBC108D8E900C817EB0C0240EB0B
:1085A0000803DDE90A704FEA177C4CEA001C4FEA29
:1085B000107848EA07184FEA90094FF0000A8346FE
:1085C00038465F46BF0747EA90074FEA807B504630
:1085D000BA4649EA0B0740EA0A098CEA070088EA2A
:1085E0000907DDF82CC04FEADC194FEA4C6CDDF8C6
:1085F00028A04CEADA1B49EA4A6CB94680EA0C0723
:1086000089EA0B00D046DDE90BCA08EA0A08DDF862
:1086100034B00CEA0B0CDDE90B9EDDF828A04AEA29
:108620000E0A49EA0B09DDE90EBE0AEA0B0A09EA5D
:108630000E0948EA0A084CEA090C17EB080440EB5B
:108640000C05DDE900C01CEB020740EB030CCDE993
:10865000007C171943EB050CCDE9087C00BF491CD1
:1086600000BFDDE900C04FEA9C3848EA8048800B33
:1086700040EA8C406746BF0CDDF804C047EA8C37FF
:108680004FEA9C49DDF800C049EA8C3988EA070CBA
:1086900080EA0900019F4FEA5729BB46DDF80080B8
:1086A00047464FEA582E4EEACB584FEAC75B49EA95
:1086B0000B098CEA090C80EA0800DDE906871CEB4F
:1086C00008097841DDE902C7DDE904AB8CEA0A0C50
:1086D00087EA0B07DDE900A80CEA0A0C07EA08089C
:1086E000DDF810A08CEA0A0788EA0B0819EB070CE2
:1086F00040EB0800DFF8D48508EBC108D8E9007822
:108700001CEB070C40EB08000DF1400808EBC1081A
:10871000D8E900781CEB070240EB0803DDE908C745
:108720004FEA1C7040EA07103F0F47EA0C17DDF8CC
:1087300024C04FEA9C094FF0000AE346DDF8208090
:10874000C4464FEA980E4EEA8B784FEA8C7BD446AB
:10875000C24649EA0B084CEA0A0980EA080C87EA93
:10876000090709984FEAD0194006DDF820A040EA31
:10877000DA1B49EA4A60B9468CEA000789EA0B002D
:10878000D046DDE909CA08EA0A08DDF82CB00CEA8F
:108790000B0CDDE9099EDDF820A04AEA0E0A49EA41
:1087A0000B09DDE90CBE0AEA0B0A09EA0E0948EAE0
:1087B0000A084CEA090C17EB080440EB0C05DDE94C
:1087C0000EC01CEB020740EB030CCDE90E7C171921
:1087D00043EB050CCDE9067C00BF491C00BFDDE979
:1087E0000E704FEA973848EA8048870B0E9847EAA0
:1087F000804784464FEA9C4C0F984CEA803C4FEAF5
:1088000090490E9849EA803988EA0C0087EA090CF9
:108810000F9F4FEA57294FF0000ABB46DDF838801A
:1088200047464FEA582E4EEACB584FEAC75B5746A9
:10883000C24649EA0B0847EA0A0780EA08098CEAB7
:108840000700DDE9048719EB08087841DDE900C776
:10885000DDE902AB8CEA0A0C87EA0B07DDE90EA919
:108860000CEA0A0C07EA0909DDF808A08CEA0A07F5
:1088700089EA0B0918EB070740EB0900DFF84CC445
:108880000CEBC108D8E900C817EB0C0740EB080057
:108890000DF1400C0CEBC108D8E900C817EB0C0235
:1088A00040EB0803DDE906704FEA177C4CEA001C38
:1088B0004FEA107848EA07184FEA90094FF0000A8B
:1088C000834638464FEA970E4EEA8B774FEA807B15
:1088D0005046BA4649EA0B0740EA0A008CEA070C00
:1088E00088EA000807984FEAD0194006DDF818A07A
:1088F00040EADA1B49EA4A608CEA000788EA0B0082
:10890000D046DDE907CA08EA0A08DDF824B00CEA17
:108910000B0CDDE9079EDDF818A04AEA0E0A49EAC9
:108920000B09DDE90ABE0AEA0B0A09EA0E0948EA60
:108930000A084CEA090C17EB080440EB0C05DDE9CA
:108940000CC01CEB020740EB030CCDE90C7C1719A3
:1089500043EB050CCDE9047C00BF491C00BFDDE9F9
:108960000C07800B40EA87404FEA97380C9F4FEA8C
:10897000874C074648EA0C00DDE90C8C4FEA984822
:1089800048EA8C384FEA9C49DDF830C049EA8C3C13
:10899000814687EA080089EA0C07DDF834C04FEA0F
:1089A0005C294FEACC5CDDF830A04CEA5A2B49EA4E
:1089B000CA5C80EA0C0987EA0B00DDE9028C19EB3E
:1089C000080840EB0C00DDE90EC7DDE900AB8CEADE
:1089D0000A0C87EA0B07DDE90CA90CEA0A0C07EA86
:1089E0000907DDF800A08CEA0A0C87EA0B0918EBEE
:1089F0000C0740EB0900DFF8D4C20CEBC108D8E942
:108A000000C817EB0C0740EB08000DF1400C0CEB15
:108A1000C108D8E900C817EB0C0240EB0803DDE9F8
:108A200004C74FEA1C7040EA07103F0F47EA0C17D3
:108A3000DDF814C04FEA9C094FF0000AE346DDF868
:108A40001080C4464FEA980E4EEA8B784FEA8C7B32
:108A5000D446C24649EA0B084CEA0A0C80EA0808E8
:108A600087EA0C00059F4FEAD7194FF0000ABB4672
:108A7000DDF810C067464FEADC1E4EEA4B6C4FEA49
:108A8000476B5746E24649EA0B0C47EA0A0988EA6F
:108A90000C0780EA0900DDE905CADDF8108008EA64
:108AA0000A08DDF81CB00CEA0B0CDDE9059EDDF8C8
:108AB00010A04AEA0E0A49EA0B09DDE908BE0AEAF3
:108AC0000B0A09EA0E0948EA0A084CEA090C17EBF6
:108AD000080440EB0C05DDE90AC01CEB020740EB83
:108AE000030CCDE90A7C171943EB050CCDE9027C98
:108AF00000BF491C00BFDDE90A704FEA973848EA19
:108B00008048870B0A9847EA8047800CDDF82CC024
:108B100040EA8C304FEA9C49DDF828C049EA8C3C99
:108B200088EA000087EA0C07DDF82CC04FEA5C29D0
:108B30004FF0000AE346DDF82880C4464FEA582E7D
:108B40004EEACB584FEACC5BD446C24649EA0B0802
:108B50004CEA0A0C80EA080087EA0C07DDE9008C81
:108B600010EB080947EB0C07DDE90CC0DDE90EABA3
:108B70008CEA0A0C80EA0B08DDE90AAB0CEA0A0071
:108B800008EA0B08DDE90EAC80EA0A0088EA0C0866
:108B900019EB000947EB0800DFF8308108EBC1084A
:108BA000D8E900C819EB0C0740EB08000DF1400CA8
:108BB0000CEBC108D8E900C817EB0C0240EB080326
:108BC000DDE90207000F40EA07104FEA1778029F1D
:108BD00048EA0718039F4FEA97094FF0000ABB467F
:108BE000DDF808C067464FEA9C0E4EEA8B7C4FEAE0
:108BF000877B5746E24649EA0B0C47EA0A0780EAB8
:108C00000C0088EA0707DDF80CC04FEADC194FEAD0
:108C10004C6CDDF808A04CEADA1B49EA4A6CB9460C
:108C200080EA0C0789EA0B00D046DDE903C908EAAF
:108C30000908DDF814A00CEA0A0CDDE904EBDDE913
:108C400002A94AEA0E0A49EA0B09DDE906BE0AEA68
:108C50000B0A09EA0E0948EA0A084CEA090C17EB64
:108C6000080440EB0C05DDE908C01CEB020740EBF3
:108C7000030CCDE9087C171943EB050CCDE9007C0A
:108C800000BF491C5029FFF602AA002116E0B19846
:108C9000103000EBC100EC460CEBC10CD0E90087B2
:108CA000DCE9000918EB000C47EB0907B19800F16B
:108CB000100808EBC100C0E900C7491C0829E6DB21
:108CC00000200DF5337DBDE8F08F0000F8BA0108F3
:108CD0002DE9F04104460D4616461F4614B91B48BF
:108CE000BDE8F0812079C01E06282CD2DFE800F014
:108CF00003090F161D243A463146284600F0C2F8F3
:108D0000EEE73A463146284603F071FEE8E70123D4
:108D10003A463146284603F0EFFFE1E700233A46A2
:108D20003146284603F0E8FFDAE701233A463146A8
:108D3000284604F0C2FAD3E700233A4631462846D3
:108D400004F0BBFACCE70148CAE7000000AFFFFF20
:108D50002DE9F04704460D466FF06D09207800F0CC
:108D60003F0680223046761C04F118010A54382E42
:108D700007D8C6F1380104F118029019F7F72DFA57
:108D800016E0C6F1400104F118029019F7F725FA30
:108D900004F118012046FCF7D3F85FEA000902D07D
:108DA0004846BDE8F087382104F11800F7F715FAB6
:108DB0002068400F616840EAC10720684FEAC00898
:108DC00084F850804FEA182184F851104FEA184176
:108DD00084F852104FEA186084F8530084F85470F5
:108DE000390A84F85510390C84F85610380E84F876
:108DF000570004F118012046FCF7A2F85FEA0009C9
:108E000001D04846CDE7207A28702089000A687092
:108E1000A068000CA870A068000EE870207B287184
:108E2000A089000A6871E068000CA871E068000E73
:108E3000E871207C2872208A000A68722069000C80
:108E4000A8722069000EE872207D2873A08A000AAB
:108E500068736069000CA8736069000EE8730020F5
:108E60009FE710B5044604B910BD5821204602F012
:108E70002DFA00BFF8E710B5044658212046F7F751
:108E8000ACF910BDF0B597B004460D4616466FF02C
:108E90006D0701A8FFF7EFFF01A800F019F8070020
:108EA00000D00FE02A46214601A800F025F807006F
:108EB00000D007E0314601A8FFF74AFF070000D0C5
:108EC00000E000BF01A8FFF7CCFF384617B0F0BDA7
:108ED000014600200860486005488860054ACA606D
:108EE000C2430A61034AD2434A610020704700002E
:108EF0000123456789ABCDEF2DE9F047044688464D
:108F000015466FF06D0915B90020BDE8F08720788F
:108F100000F03F07C7F14006206828442060206821
:108F200020602068A84202D26068401C6060AFB137
:108F3000B54213D304F11801C81932464146F7F778
:108F400025F904F118012046FBF7FAFF5FEA000952
:108F500001D04846D9E7B044AD1B00270BE041469D
:108F60002046FBF7EDFF5FEA000901D04846CCE759
:108F700008F14008403D402DF1D235B104F118010F
:108F8000C8192A464146F7F701F90020BDE700005D
:108F900070B504460D460CB1206808B9114870BD83
:108FA00020680079C01E06281AD2DFE800F0030806
:108FB0000D0E131429466068FFF7CAFEEFE7294635
:108FC000606803F069FCEAE700BF2946606803F0C7
:108FD000AFFDE4E700BF2946606803F06BFFDEE702
:108FE0000048DCE700AFFFFF10B504460CB1206875
:108FF00000B910BD606800B320680079C01E062863
:1090000016D2DFE800F003070B0C10116068FFF7C1
:1090100028FF0EE0606803F0D7FC0AE000BF60683C
:1090200003F057FE05E000BF606804F033F900E08C
:1090300000BF00BF6068F8F7D1FFA06840B12268A8
:1090400092795100A06802F041F9A068F8F7C6FFD4
:109050000C21204602F03AF900BFCAE7014609B9DF
:10906000002070474879FCE7014609B900207047A5
:109070000879FCE7F0B591B004460E466FF06D0735
:109080001CB1206808B1A06810B9174811B0F0BD34
:1090900021688979A068451801A92046FFF778FF63
:1090A000070001D03846F1E7204600F07BF90700C1
:1090B00001D03846EAE7206882792946204600F048
:1090C000A3F9070001D03846E0E72068427901A9FA
:1090D000204600F099F9070001D03846D6E731461E
:1090E0002046FFF755FFD1E700AFFFFF70B50446FC
:1090F0006FF06D061CB1206808B1A06808B9084877
:1091000070BDA568204600F04DF9060001D030463C
:10911000F6E7206882792946204600F075F9EFE7E6
:1091200000AFFFFF2DE9F04790B004468846914616
:109130006FF06D0A1CB1206808B1A06818B92E48FC
:1091400010B0BDE8F0872068807948451BD22046E2
:1091500000F028F95FEA000A00D046E04A4641469E
:10916000204600F051F95FEA000A00D03DE0694670
:109170002046FFF70DFF5FEA000A00D035E02068C7
:1091800090F80590E846A66821688979A068471894
:109190002068817936223046F7F718F820688179FF
:1091A0005C223846F7F712F800250AE0705D18F8DF
:1091B000051048407055785D18F8051048407855FE
:1091C0006D1C4D45F2D3204600F0ECF85FEA000A32
:1091D00000D00AE0206882793146204600F014F978
:1091E0005FEA000A00D000E000BF4021684602F0BC
:1091F0006DF85046A4E7000000AFFFFF70B50446CD
:109200000D4616461CB1206808B1A06808B904488C
:1092100070BD32462946204600F0F6F8F8E7000017
:1092200000AFFFFF0146C81E062810D2DFE800F09D
:10923000030507090B0D074870470748FCE7074877
:10924000FAE70748F8E70748F6E70748F4E7002099
:10925000F2E7000078B4010880B4010888B401087E
:1092600090B4010898B40108A0B40108002101607D
:10927000416081607047000070B504460D460CB136
:10928000206808B9114870BD20680079C01E062802
:109290001AD2DFE800F003080D0E131429466068A7
:1092A000FBF74EFEEFE729466068FCF751FBEAE763
:1092B00000BF29466068FDF7D7FEE4E700BF2946F6
:1092C0006068FEF7DFFDDEE70048DCE700AFFFFF88
:1092D00070B504460D46164605B10CB9304870BD50
:1092E0002879C01E062846D2DFE800F003132324A5
:1092F000343500BF58210120F6F78EFF60606068AA
:1093000010B927488038EAE76068FFF7B4FD00BF6E
:1093100033E000BF5C210120F6F77EFF60606068EB
:1093200010B91F488038DAE7606803F057FB00BFC8
:1093300023E000BF00BF6C210120F6F76DFF6060E5
:10934000606810B916488038C9E7606803F0CBFC44
:1093500000BF12E000BF00BFD8210120F6F75CFF7C
:109360006060606810B90E488038B8E7606803F044
:109370009BFF00BF01E00A48B1E700BF66B1A979D1
:109380000220F6F749FFA060A06828B92046FFF741
:109390002BFE03488038A2E7256000209FE70000ED
:1093A00000AFFFFF10B504460CB1206808B915489E
:1093B00010BD20680079C01E062820D2DFE800F02A
:1093C00003070B10151A6068FFF782FDF0E760686D
:1093D00003F038FBECE70121606803F0C1FCE7E72C
:1093E0000021606803F0BCFCE2E70121606803F043
:1093F00097FFDDE70021606803F092FFD8E701489E
:10940000D6E7000000AFFFFF70B504460D461646D4
:109410000CB1206808B9144870BD20680079C01EDE
:1094200006281ED2DFE800F003090F101617324697
:1094300029466068FFF760FDEEE73246294660681E
:1094400003F01AFBE8E700BF32462946606803F0E4
:10945000D5FCE1E700BF32462946606803F0F2FF21
:10946000DAE70148D8E7000000AFFFFF2DE9FC5F15
:1094700005468A4691466FF06D00019000BF00BF1F
:1094800000BF00BF00BF00BF4D4503D15046AA46F4
:10949000814600BF554508D000BF5146284600F020
:1094A000A4F9019000B160E000BF01202860D9F864
:1094B000048009E0A8F10100D9F8081051F8200053
:1094C00000B104E0A8F10108B8F1000FF2D100BF2B
:1094D00000BF4146284600F04BFF019000B144E038
:1094E00000BFD9F808000090AC68002700261BE0F8
:1094F0000098D0F800B02068384420602068B84256
:1095000001D2012000E00020074620685844206076
:109510002068584501D2012000E000200744761C55
:109520000098001D0090241D4645E1D31AE06868AC
:10953000B0420BD800BF711C284600F019FF019003
:1095400000B112E000BFA86800EB86042068384430
:1095500020602068B84201D2012000E000200746C8
:10956000761C241D002FE2D100BF0198BDE8FC9FAE
:109570007FB505460E46144600BF00BF00BF00BFC2
:10958000002C01DA604200E020460090002C02DA54
:109590004FF0FF3000E00120019001200290CDF853
:1095A0000CD001AA3146284600F002F804B070BD84
:1095B0002DE9F04105460C46174600BF00BF00BF2D
:1095C00000BF00BF00BF26682068396848430028F4
:1095D00020DA3946204600F049F800280CDB00BFAD
:1095E0003A462146284601F0B4FA5FEA000800D066
:1095F0001DE000BF2E6019E000BF22463946284614
:1096000001F0A7FA5FEA000800D010E000BF704246
:1096100028600BE000BF3A4621462846FFF726FFA8
:109620005FEA000800D002E000BF2E6000BF4046A5
:10963000BDE8F08170B50546686808B9002070BDC6
:109640006868441E05E0A86850F8240000B102E0F4
:10965000641E002CF7D100BFA96851F82400F9F767
:109660007FFEC0F1200606EB4410E8E770B5034624
:109670000C4600BF00BF00BF00BF596806E0481E8F
:109680009D6855F8200000B102E0491E0029F6D17E
:1096900000BF626806E0501EA56855F8200000B1C2
:1096A00002E0521E002AF6D100BF11B90AB900200B
:1096B00070BD914201D90120FAE78A4202D94FF0E8
:1096C000FF30F5E717E0481E9D6855F82050A66862
:1096D00056F82000854201D90120E9E7481E9D681F
:1096E00055F82050A66856F82000854202D24FF067
:1096F000FF30DDE7491E0029E5D10020D8E73FB55E
:1097000005460C4600BF00BF002C01DA604200E0B5
:1097100020460090002C02DA4FF0FF3000E00120DC
:10972000019001200290CDF80CD001A9284600F04C
:1097300002F804B030BD70B502460B4600BF00BF52
:1097400000BF00BF516806E0481E956855F820002C
:1097500000B102E0491E0029F6D100BF5C6806E0B6
:10976000601E9D6855F8200000B102E0641E002CC8
:10977000F6D100BF11B90CB9002070BDA14201D9CA
:109780001068FAE78C4202D918684042F5E7106881
:10979000002804DD1868002801DA0120EDE71868C8
:1097A000002805DD1068002802DA4FF0FF30E4E7FA
:1097B00017E0481E956855F820509E6856F820001E
:1097C000854201D91068D8E7481E956855F82050A1
:1097D0009E6856F82000854202D210684042CCE7CD
:1097E000491E0029E5D10020C7E72DE9F0410546D3
:1097F0000E46002700BF00BF00BF00BFB54202D128
:109800000020BDE8F081706820B9284600F0CDFC4A
:109810000020F6E77068441E05E0B06850F82400A8
:1098200000B102E0641E002CF7D100BF641C306858
:1098300028606868A04208D200BF2146284600F090
:1098400097FD070000D00EE007E0AA6802EB840055
:109850006A68121B9100F6F7C0FCA200B168A86804
:10986000F6F794FC00BF3846CBE72DE9F04F93B0F4
:109870008146884616469A466FF06D00129000BFEA
:1098800000BF00BF00BF00215046FFF738FF20B9DE
:109890006FF00B0013B0BDE8F08F0FA800F093FD40
:1098A0000CA800F090FD09A800F08DFD06A800F0BE
:1098B0008AFD0120039003200490CDF814D0514676
:1098C0003046FFF7D3FE002819DAB9F1000F08D0AF
:1098D00000BF0021484600F039FF129000B195E129
:1098E00000BFB8F1000F08D000BF31464046FFF777
:1098F0007CFF129000B189E100BF0020CAE700BFE1
:1099000031460FA8FFF771FF129000B17EE100BF52
:1099100000BF51460CA8FFF768FF129000B175E137
:1099200000BF01200C900F9000BF7068811C09A837
:1099300000F01EFD129000B168E100BF00BF0021E1
:1099400009A800F003FF129000B15FE100BF00BF63
:10995000022106A800F00CFD129000B156E100BFF4
:109960000CA8FFF767FE00F01F0BBBF11F0F13D20F
:10997000CBF11F0B00BF59460FA801F028F8129039
:1099800000B143E100BF00BF59460CA801F01FF829
:10999000129000B13AE101E04FF0000B1098471E21
:1099A0000D98451E00BF781B41010CA801F00FF86F
:1099B000129000B12AE100BF12E0791B0B9850F819
:1099C0002100401C7A1B0B9941F8220000BF0CAA11
:1099D0000FA90FA801F042F9129000B116E100BFE3
:1099E0000CA90FA8FFF7A7FE0028E6DA00BF781B36
:1099F00041010CA801F050F8129000B106E100BF3F
:109A00003C46CEE0119850F824000E9951F82510EC
:109A1000884207D34FF0FF31601B401E0B9A42F87B
:109A2000201011E00E9B53F82520631EDDF844C082
:109A30005CF823105CF824000023FAF790FC611B0B
:109A4000491E0B9A42F82100022C01D2002003E0AB
:109A5000A01E119951F82000059908600CB900204A
:109A600003E0601E119951F8200005994860119893
:109A700050F8240005998860601B401E0B9951F82E
:109A80002000401C0A46611B491E42F8210000BF0D
:109A9000601B401E0B9951F82000401E0A46611BB6
:109AA000491E42F8210000BF002106A800F04EFE2A
:109AB000129000B1AAE000BF0DB9002003E0681EBB
:109AC0000E9951F82000089908600E9850F825006A
:109AD0000899486000BF601B401E0B9951F8202078
:109AE00006A906A800F09FFE129000B18EE000BF0C
:109AF00003A906A8FFF71FFE0028C9DC00BF601BF2
:109B0000401E0B9951F820200CA906A800F08BFEEE
:109B1000129000B17AE000BF00BF601B401E4101FF
:109B200006A800F054FF129000B16FE000BF00BF24
:109B300006AA0FA90FA801F091F8129000B165E0F4
:109B400000BF00210FA8FFF7DAFD002828DA00BFC8
:109B50000CA906A8FFF749FE129000B156E000BF1D
:109B600000BF601B401E410106A800F030FF1290AC
:109B700000B14BE000BF00BF06AA0FA90FA8FFF776
:109B800017FD129000B141E000BF601B401E0B9911
:109B900051F82000401E0A46611B491E42F8210070
:109BA000641EAC423FF62EAFB9F1000F0ED000BFDD
:109BB00009A94846FFF719FE129000B126E000BF40
:109BC0003068DAF800104843C9F80000B8F1000F17
:109BD0001BD000BF59460FA800F05EFF129000B1E5
:109BE00014E000BF30680F9000BF0FA94046FFF798
:109BF000FCFD129000B109E000BF00214046FFF7D4
:109C00007EFD10B90120C8F8000000BF0FA800F0C9
:109C1000CCFA0CA800F0C9FA09A800F0C6FA06A808
:109C200000F0C3FA0C21684601F050FB129831E6AF
:109C30002DE9FF4FADF24C6D91461E46DDF8808652
:109C40006FF06D00CDF848064FF0010A00BF00BF6D
:109C500000BF00BF00BF00BF00BF00BF00213046F3
:109C6000FFF74DFD002804DDB068007800F001002A
:109C700028B96FF003000DF25C6DBDE8F08F002194
:109C80004846FFF73CFD002802DA6FF00300F2E7D8
:109C900031460DF2346008F01EF80DF2246000F039
:109CA00092FB0DF5C36000F08EFB03A800F08BFB68
:109CB0004FF4C06106A8F6F790FA4846FFF7BAFCE1
:109CC0000446B4F5287F01D306200CE0EF2C01D91F
:109CD000052008E04F2C01D9042004E0172C01D9FD
:109CE000032000E0012005467068471C00BF39468C
:109CF000DDF84C0600F03CFBCDF8480600B1EBE186
:109D000000BF00BF394609A800F032FBCDF8480675
:109D100000B1E1E100BF00BF79000DF5C36000F0C4
:109D200027FBCDF8480600B1D6E100BFDDF85006AC
:109D30000068401C08B9012000E000200290029851
:109D400078B100BF03A8DDF85016FFF74EFDCDF83F
:109D5000480600B1C0E100BF0120039003A8CDF880
:109D60005006B8F1000F02D0D8F8080058BB00BF69
:109D700001210DF2246000F0E9FCCDF8480600B1A5
:109D8000AAE100BF00BF706881010DF2246000F0FD
:109D90001EFECDF8480600B19EE100BF00BF32466E
:109DA0000DF22461084600F0F7FCCDF8480600B13A
:109DB00092E100BFB8F1000F0ED00DF2246007C889
:109DC00088E8070008E0D8E90102D8F800100DF58E
:109DD000C56305C3CDF824163146DDF85006FFF7FC
:109DE000AAFC00280BDB00BF324609A8DDF850169C
:109DF00000F0D2FCCDF8480600B16DE10AE000BFEA
:109E000009A8DDF85016FFF7F0FCCDF8480600B1C0
:109E100062E100BF0DF5C360009032460DF224618F
:109E200009A8DDF8343607F06FFF00BF0DF224619A
:109E3000DDF84C06FFF7D9FCCDF8480600B14BE140
:109E400000BF0DF5C3633146DDF83426DDF84C065E
:109E500007F0B8FF012D6CD9681E0AFA00F700BFA1
:109E60007268511C07EB470206AB03EB820000F05F
:109E70007FFACDF8480600B12EE100BF00BF07EB26
:109E8000470106AA02EB810009A9FFF7AEFCCDF855
:109E9000480600B120E100BF002411E00DF5C360C9
:109EA00007EB470206AB03EB820107EB470200908A
:109EB00003EB82003246DDF8343607F025FF641CE0
:109EC000681EA042EAD87C1C2FE000BF7268511CBB
:109ED00004EB440206AB03EB820000F049FACDF834
:109EE000480600B1F8E000BF00BF621E02EB42026C
:109EF00006AB03EB820104EB440203EB8200FFF7A5
:109F000074FCCDF8480600B1E6E000BF0DF5C36073
:109F100004EB440106AA009002EB8100324609A935
:109F2000DDF8343607F0F0FE641C0AFA05F0A042B2
:109F3000CBD8D9F80400CDF840060020CDF83C0677
:109F40008346CDF84406CDF8300677E0DDF83C06D0
:109F500058B9DDF8400600B971E0DDF84006401E52
:109F6000CDF840062020CDF83C06DDF83C06401E2A
:109F7000CDF83C06D9F80810DDF8400651F820006D
:109F8000DDF83C16C84000F00100CDF83806DDF8D9
:109F9000380618B9DDF8300600B94FE0DDF83806AC
:109FA00078B9DDF8300601280BD10DF5C3600090BB
:109FB0003246DDF84C160846DDF8343607F0A4FECC
:109FC0003CE00220CDF830060BF1010BA5EB0B01B4
:109FD000DDF838068840DDF844160843CDF844061D
:109FE000AB452AD100240BE00DF5C360009032464A
:109FF000DDF84C160846DDF8343607F085FE641CA3
:10A00000AC42F1D30DF5C3600090DDF8440600EBDF
:10A01000400006AA02EB80013246DDF83436DDF856
:10A020004C0607F071FEDDF83006401ECDF8300614
:10A030004FF0000B0020CDF8440600BF86E700BFBC
:10A04000002421E00DF5C36000903246DDF84C1687
:10A050000846DDF8343607F057FEDDF844064000C8
:10A06000CDF844060AFA05F0DDF84416084050B170
:10A070000DF5C3600090324609A9DDF83436DDF8ED
:10A080004C0607F041FE641C5C45DBD30DF5C36351
:10A090003146DDF83426DDF84C0607F093FE0298D1
:10A0A000C8B1D9F80400B0B1D9F80800007800F0C0
:10A0B000010080B14FF0FF31DDF84C06016000BFB8
:10A0C0003146DDF84C261046FFF772FACDF8480607
:10A0D00000B101E000BF00BF681E0AFA00F407E00B
:10A0E00004EB440106AA02EB810000F05EF8641C58
:10A0F0000AFA05F0A042F3D809A800F056F80DF5C9
:10A10000C36000F052F803A800F04FF8B8F1000F58
:10A1100002D0D8F8080018B90DF2246000F045F814
:10A12000DDF84806A7E52DE9F05F06460C46174620
:10A1300098466FF06D0B04F0030008B1012000E0B9
:10A14000002000EB9405C4EB850900BF00BF00BFF1
:10A1500000BF7068A8420FD0304600F026F83046A5
:10A1600000F031F900BF2946304600F001F95FEAFE
:10A17000000B00D016E000BF00BF0021304600F009
:10A18000E5FA5FEA000B00D00CE000BFD6F808A0AB
:10A190000AEB090122464046B8472946B06807F055
:10A1A0007EFD00BF5846BDE8F09F10B5044604B9D7
:10A1B00010BDA06830B1D4E9011000F0D2FDA06854
:10A1C000F7F70CFF0120206000206060A06000BF56
:10A1D000EEE72DE9F04786B00746884616466FF051
:10A1E0006D0900BF00BF00BF00BF00BF00BF03A8D4
:10A1F00000F0E9F8684600F0E6F800BF414603A821
:10A20000FFF7F3FA5FEA000900D094E000BF00BF57
:10A2100031466846FFF7E9FA5FEA000900D08AE0B4
:10A2200000BF03A800F076FA0546684600F072FA0F
:10A230000446AC4200D2254600BF294603A800F0E0
:10A240002BFC5FEA000900D075E000BF00BF294683
:10A25000684600F021FC5FEA000900D06BE000BF17
:10A260000120009003904BE000BF03A800F052FAD9
:10A270008246514603A800F00FFC5FEA000900D0B7
:10A2800059E000BF00BF684600F044FA82465146DC
:10A29000684600F001FC5FEA000900D04BE000BF17
:10A2A000694603A8FFF747FA002814DB00BF6A4697
:10A2B00003A903A800F04DFC5FEA000900D03AE0D2
:10A2C00000BF00BF012103A800F0E6FB5FEA000920
:10A2D00000D030E014E000BF03AA6946684600F0F1
:10A2E00038FC5FEA000900D025E000BF00BF012173
:10A2F000684600F0D1FB5FEA000900D01BE000BF18
:10A30000002103A8FFF7FBF90028ADD100BF2946C3
:10A31000684600F05CFB5FEA000900D00BE000BF7C
:10A3200000BF69463846FFF760FA5FEA000900D0CF
:10A3300001E000BF00BF03A8FFF737FF6846FFF743
:10A3400034FF484606B0BDE8F087024600BF00BFB4
:10A350005068B1EB401F01D3002070474B09906853
:10A3600050F8230001F01F03D84000F00100F4E78B
:10A3700070B504460D4600BF00BF42F21070854222
:10A3800002D96FF00F0070BD6068A84219D2042195
:10A390002846F5F741FF060002D16FF00F00F2E703
:10A3A000A06860B1606882003046A168F5F7EEFEF3
:10A3B000D4E9011000F0D5FCA068F7F70FFE656046
:10A3C000A6600020DFE700BF00BF0121016000217F
:10A3D000416081607047F0B59BB005460E4614465B
:10A3E0006FF06D0700BF00BF00BF00BF00BF00BF20
:10A3F00001212046FFF783F9002802DC78111BB009
:10A40000F0BD15A8FFF7DFFF12A8FFF7DCFF0FA8CC
:10A41000FFF7D9FF0CA8FFF7D6FF18A8FFF7D3FF67
:10A4200009A8FFF7D0FF06A8FFF7CDFF03A8FFF7A5
:10A43000CAFF6846FFF7C7FF00BF2246314618A88B
:10A44000FFF7C7FE070000D047E100BF012118A8B1
:10A45000FFF755F910B16FF00D073EE100BF22463E
:10A46000314615A800F098F9070000D035E100BF8B
:10A4700000BF15A912A8FFF7B8F9070000D02CE11A
:10A4800000BF00BF214609A8FFF7AFF9070000D0C1
:10A4900023E100BF00BF214606A8FFF7A6F9070089
:10A4A00000D01AE100BF00BF01210FA800F04EF953
:10A4B000070000D011E100BF00BF00210CA800F090
:10A4C00045F9070000D008E100BF00BF002103A844
:10A4D00000F03CF9070000D0FFE000BF00BF012101
:10A4E000684600F033F9070000D0F6E000BF00BF77
:10A4F00038E000BF012112A800F0CEFA070000D01A
:10A50000EBE000BF1198007800F0010020B90E9830
:10A51000007800F0010098B100BF09AA0FA90FA8A8
:10A52000FFF746F8070000D0D7E000BF00BF15AA2C
:10A530000CA90CA800F092FB070000D0CDE000BFF2
:10A5400000BF01210FA800F0A7FA070000D0C4E067
:10A5500000BF00BF01210CA800F09EFA070000D048
:10A56000BBE000BF1498007800F001000028C0D0C4
:10A5700038E000BF012106A800F08EFA070000D0E5
:10A58000ABE000BF0598007800F0010020B9029808
:10A59000007800F0010098B100BF09AA03A903A840
:10A5A000FFF706F8070000D097E000BF00BF15AA2C
:10A5B0006946684600F052FB070000D08DE000BFFE
:10A5C00000BF012103A800F067FA070000D084E073
:10A5D00000BF00BF0121684600F05EFA070000D00E
:10A5E0007BE000BF0898007800F001000028C0D090
:10A5F00006A912A8FFF79FF800281DDB00BF06AAD6
:10A6000012A912A800F02AFB070000D065E000BFE5
:10A6100000BF03AA0FA90FA800F020FB070000D07D
:10A620005BE000BF00BF6A460CA90CA800F016FB57
:10A63000070000D051E01DE000BF12AA06A906A83D
:10A6400000F00CFB070000D047E000BF00BF0FAADE
:10A6500003A903A800F002FB070000D03DE000BF03
:10A6600000BF0CAA6946684600F0F8FA070000D05F
:10A6700033E000BF002112A8FFF741F800287FF463
:10A6800037AF09E000BF224603A903A8FEF790FFF9
:10A69000070000D021E000BF002103A8FFF72FF83A
:10A6A0000028EFDB09E000BF224603A903A800F061
:10A6B000D5FA070000D010E000BF214603A8FFF73D
:10A6C0003AF80028EFDA00BF03A92846FFF78DF813
:10A6D000070000D001E000BF00BF15A8FFF765FD2F
:10A6E00012A8FFF762FD0FA8FFF75FFD0CA8FFF7A8
:10A6F0005CFD18A8FFF759FD09A8FFF756FD06A84D
:10A70000FFF753FD03A8FFF750FD6846FFF74DFD27
:10A71000384674E610B50246002400BF00BF002191
:10A720000FE000230AE0906850F82100D84000F0C4
:10A73000010008B1204610BD5B1C641C202BF2D325
:10A74000491C50688842ECD80020F4E770B50446F4
:10A750000D466FF06D0600BF00BF00BF012120460F
:10A76000FFF706FE060000D014E000BF626891000B
:10A77000A068F5F732FD002D01DA684200E02846B6
:10A78000A1680860002D02DA4FF0FF3000E00120E0
:10A79000206000BF304670BD2DE9F04105460E46F1
:10A7A00014466FF06D0700BF00BF00BF00BF00BFC1
:10A7B00000BF00212046FEF7A2FF002803DA6FF059
:10A7C0000900BDE8F08100BF23463246294600203B
:10A7D000FFF74BF8070000D023E000BF09E000BFFF
:10A7E000224629462846FEF7E3FE070000D018E07F
:10A7F00000BF00212846FEF782FF0028EFDB09E0BA
:10A8000000BF22462946284600F028FA070000D05B
:10A8100007E000BF21462846FEF78DFF0028EFDA4B
:10A8200000BF3846CDE77FB505460E46144600BF4B
:10A8300000BF00BF00BF012001900290CDF80CD0F6
:10A84000009401AA3146284600F002F804B070BD19
:10A850002DE9F04387B080460E4615466FF06D092E
:10A8600000BF00BF00BF00BF00BF00BF04A8FFF7CC
:10A87000AAFD01A8FFF7A7FDB0450AD100BF3146E8
:10A8800004A8FEF7B2FF5FEA000900D052E000BF63
:10A8900004AEA8450AD100BF294601A8FEF7A5FFCE
:10A8A0005FEA000900D045E000BF01AD776806E02F
:10A8B000781EB16851F8200000B102E07F1E002F21
:10A8C000F6D100BF6C6806E0601EA96851F8200050
:10A8D00000B102E0641E002CF6D100BF00BF3919A0
:10A8E0004046FFF745FD5FEA000900D022E000BFC7
:10A8F00000BF00214046FFF729FF5FEA000900D0B2
:10A9000018E000BF0EE0601ED5F808C05CF82030EB
:10A91000D8F8080000EB8400021F3846B16807F041
:10A9200067FA641E002CEED1306829684843C8F8E5
:10A93000000000BF01A8FFF738FC04A8FFF735FCB2
:10A94000484607B0BDE8F0832DE9F04705460F46BD
:10A9500016466FF06D0A06F0030008B1012000E012
:10A96000002000EB9604C6EB840800BF00BF00BFC8
:10A9700000BF6868A0420FD02846FFF716FC2846A3
:10A98000FFF721FD00BF21462846FFF7F1FC5FEAF3
:10A99000000A00D018E000BF00BF00212846FFF7E2
:10A9A000D5FE5FEA000A00D00EE000BF5FB1D5F827
:10A9B000089009EB080032463946F5F7E7FB2146D7
:10A9C000A86807F06CF900BF5046BDE8F0872DE994
:10A9D000F05F05460F466FF06D0A4FF0000B00BFA9
:10A9E00000BF7E0907F01F082846FEF723FEC419A2
:10A9F0006868B4EB401F10D900BF04F01F0008B115
:10AA0000012000E0002000EB54112846FFF7B0FCC5
:10AA10005FEA000A00D03CE000BF4FF0000AB6B188
:10AA20006C6809E0A01B401EA96851F82010601E48
:10AA3000AA6842F82010641EB442F3D805E0002151
:10AA4000601EAA6842F82010641E002CF7D1B8F1ED
:10AA5000000F1DD0344618E0A86850F82400C8F153
:10AA6000200120FA01F9A86850F8240000FA08F043
:10AA7000A96841F82400A86850F8240040EA0B00B7
:10AA8000A96841F82400CB46641C6868A042E3D85A
:10AA900000BF5046BDE8F09F2DE9F04705468846C7
:10AAA0004FF0000A00BF00BF4FEA581608F01F071A
:10AAB0006868B04203D36868B04206D12FB1002164
:10AAC0002846FFF743FEBDE8F087B6B1002407E053
:10AAD000A119A86850F82100A96841F82400641C55
:10AAE0006868801BA042F3D804E00020A96841F800
:10AAF0002400641C6868A042F7D807B36C681CE0A7
:10AB0000601EA96851F82000C7F1200100FA01F980
:10AB1000601EA96851F82000F8400A46611E42F8FC
:10AB20002100601EA96851F8200040EA0A000A4688
:10AB3000611E42F82100CA46641E002CE0D10020AC
:10AB4000C1E710B504462046FEF774FDC01DC008DD
:10AB500010BD2DE9FE430546884616466FF06D0987
:10AB600000BF00BF00BF00BF00BF00BF6846FFF7C7
:10AB70002AFCB5420AD100BF31466846FEF735FED1
:10AB80005FEA000900D044E000BF6E46454509D0A9
:10AB900000BF41462846FEF728FE5FEA000900D0C4
:10ABA00037E000BF012028604FF00009746806E01C
:10ABB000601EB16851F8200000B102E0641E002C54
:10ABC000F6D100BFB2682046A96807F0B3FF074678
:10ABD000F7B107E0A86850F82400401EA96841F8C2
:10ABE0002400641C6868A04204D9A86850F82400B6
:10ABF0000028EFD06868A04203D16FF00900BDE8DB
:10AC0000FE83A86850F82400401EA96841F824007B
:10AC100000BF6846FFF7C9FA4846F0E77FB505462A
:10AC20000E46144600BF00BF00BF00BF002C01DA73
:10AC3000604200E020460090002C02DA4FF0FF3026
:10AC400000E00120019001200290CDF80CD001AA73
:10AC50003146284600F002F804B070BD2DE9F041FD
:10AC600005460C46174600BF00BF00BF00BF00BF2F
:10AC700000BF2668206839684843002820DD39462F
:10AC80002046FEF7F3FC00280CDB00BF3A462146C5
:10AC90002846FFF75EFF5FEA000800D01DE000BF16
:10ACA0002E6019E000BF224639462846FFF751FFC3
:10ACB0005FEA000800D010E000BF704228600BE09F
:10ACC00000BF3A4621462846FEF7D0FB5FEA00085F
:10ACD00000D002E000BF2E6000BF4046BDE8F0811A
:10ACE0002DE9F04780468946164600BF00BF00BFE9
:10ACF00000BFD8F804008700B74209D23D4609EBEF
:10AD00000600A0EB050A711B4846F5F766FA14E049
:10AD10003546CA462C460EE0A108D8F8080050F87F
:10AD20002100A107C90EC840C0B218B16FF00700DA
:10AD3000BDE8F087641CBC42EED300240DE0A108FE
:10AD4000D8F8080050F82100A107C90EC840C1B2C8
:10AD5000281B401E0AF80010641CAC42EFD30020F0
:10AD6000E6E770B505460C46A100284600F0AEFAAD
:10AD700070BD70B506460C46304607F0C3FF054669
:10AD800015B96FF02D0070BD286920600020FAE72A
:10AD900070B506460C46304607F01EFF054615B94D
:10ADA0006FF02D0070BDE86820600020FAE770B5F4
:10ADB00006460C46304607F02DFF054615B96FF0E4
:10ADC0002D0070BDE86820600020FAE72DE9FE4FF5
:10ADD0008346894615466FF06D04DA464E4668682C
:10ADE00008B3A8680078282190FBF1F201FB12005B
:10ADF0000290A868007890FBF1F001900298009012
:10AE000022A231465046019BF6F7B4F8044600BF33
:10AE1000002C01DBB44203D36FF00A00BDE8FE8FC3
:10AE2000361BA24400BF00274FF0010828E027F09E
:10AE30007E40B84202D06FF00A00EFE7FF01A86839
:10AE400010F8080000F07F000744A86810F8080018
:10AE500000F0800090B93B460EA231465046F6F70E
:10AE600089F8044600BF002C01DBB44202D36FF026
:10AE70000A00D3E7361BA24400BF002708F10108EF
:10AE800068684045D3D8A9EB0600C7E725642E259E
:10AE9000640000002E25750010B503460C460949D4
:10AEA00009E0087C984205D1086820604868106075
:10AEB000002010BD143108680028F2D16FF02D0079
:10AEC000F7E70000C0B8010870B506460C463046EA
:10AED00007F0BEFE054615B96FF02D0070BD287C49
:10AEE00020700020FAE72DE9F04107460D4616468E
:10AEF000384607F0CBFE04461CB96FF02D00BDE8C4
:10AF0000F081207C2870607C30700020F7E770B5FD
:10AF100006460C46304607F0B9FE054615B96FF0F7
:10AF20002D0070BDE86820600020FAE770B5064685
:10AF30000C46304607F0C8FE054615B96FF02D00E7
:10AF400070BD286920600020FAE770B504460D4600
:10AF50000CB1206808B9002070BD2068C16828467F
:10AF60008847F9E770B504460D4600BF00BF20686A
:10AF700008B9074870BD2068C06A10B90448803815
:10AF8000F8E7D4E90010CA6A294690470020F1E7A3
:10AF900080C1FFFF2DE9FF5F04460D4616461F46A0
:10AFA000DDE910ABDDE90E8900BF00BF00BF00BFC7
:10AFB00000BF00BF00BF00BF206818B90A4804B036
:10AFC000BDE8F09F2068C06910B907488038F6E7EF
:10AFD0008DE8000FD4E900103B463246D1F81CC082
:10AFE0002946E047EBE7000080C1FFFF10B50446AB
:10AFF00004B910BD206818B1D4E90020916A8847CF
:10B000000821204600F062F900BFF2E710B50446BF
:10B010000CB1206808B9002010BDD4E90020916867
:10B020008847F9E7014609B1086808B902A07047E6
:10B0300008684068FBE70000696E76616C6964200F
:10B04000504B0000014609B1086808B9002070475C
:10B0500008680078FBE700000146012901D1024899
:10B0600070470020FCE70000C4B9010800BF00BF22
:10B0700000210160416070472DE9F04387B005462B
:10B080000E4617466FF06D040020029000BF00BF0F
:10B0900000BF00BF00BF00BF00BF00BF302306AA33
:10B0A00031462846F7F79CFD040004D0A4F57450FF
:10B0B00007B0BDE8F08328680699461803AB02AADA
:10B0C0003146284607F03CFE040001D02046EFE759
:10B0D00006AA31462846F7F796FC040002D0A4F5EC
:10B0E0006C50E5E7286806990844B04201D018483A
:10B0F000DEE79DF80800FFF7AFFF5FEA000901D126
:10B100001448D5E74946384600F026F8040001D037
:10B110002046CDE79DF8080001280CD1D7E90001B1
:10B12000CDE900010198804642463146284607F0A5
:10B1300039FE044600E0074C1CB92868B04200D034
:10B14000034C14B13846FFF751FF2046B0E700002A
:10B150009AC4FFFF80C3FFFF70B504460D4600BFD1
:10B1600000BF0DB1206808B1054870BD686A80470E
:10B17000606008B90348F8E725600020F5E70000A3
:10B1800080C1FFFF80C0FFFF2DE9FF4F85B004465F
:10B190000D46164612AF97E8800F00BF00BF00BFF4
:10B1A00000BF00BF00BF206820B108A9284607F0F3
:10B1B0006DFE18B10A4809B0BDE8F08F20684069FB
:10B1C00010B907488038F6E78DE88007D4E9001009
:10B1D000D1F814C032462946089BE047EBE700004F
:10B1E00080C1FFFF2DE9FE4304460D4616461F466B
:10B1F000DDE90A8900203B4632462946CDE900892F
:10B200000290204600F034F8BDE8FE832DE9FC5F93
:10B2100004460E4615461F46DDE90EABDDE90C89F6
:10B2200000BF00BF00BF00BF00BF00BF286810B94B
:10B230000D48BDE8FC9F21462846FFF786FE10B961
:10B2400009488038F5E7062C01D10848F1E70EB12E
:10B250000548EEE74B46424639462846CDE900AB65
:10B26000FFF7C0FFE5E7000080C1FFFF80C6FFFFDA
:10B270002DE9FF4383B004460D461646DDE90F89EC
:10B280000E9F00BF00BF00BF00BF00BF00BF20680F
:10B2900020B106A9284607F0F9FD18B10A4807B001
:10B2A000BDE8F0832068006910B907488038F6E7E8
:10B2B000CDE90078D4E90010D1F810C03246294613
:10B2C000069BE047EBE7000080C1FFFF70B5054635
:10B2D0000C4600BF00BF2CB1224600212846024B7D
:10B2E0001B68984770BD00005C0000203EB5044616
:10B2F00000BF00BF204600F057F828B901221146D0
:10B30000204607F0EFFD08B113483EBD002104F1CF
:10B310001400CDE9000104F1200304F13802029188
:10B3200004F12C010C3801F0BFF908B10A48ECE730
:10B3300004F15C0004F1500104F1440304F1200223
:10B34000CDE900101839303801F006F908B102488B
:10B35000DBE70020D9E7000000BEFFFF70B505461F
:10B360000C4600BF00BF00BF00BF284600F01CF81D
:10B3700018B92046FFF7BAFF08B10A4870BD04F1BA
:10B38000080105F10800FEF7D6F930B904F11401FF
:10B3900005F11400FEF7CFF908B10248EEE70020EE
:10B3A000ECE7000000BEFFFF10B5044600BF00BF81
:10B3B00000221146204607F095FD08B1104810BD47
:10B3C00004F10800FEF736F9802801D20C48F6E7B0
:10B3D000002104F11400FEF7B8FF68B104F1140075
:10B3E000FEF728F9022807D304F1080104F114003C
:10B3F000FEF7A1F9002801DB0148E0E70020DEE7C5
:10B4000000BEFFFF2DE9F04F89B00446002500BFC4
:10B4100000BF002104F10800FEF771F908B1012016
:10B4200000E000208246002104F12C00FEF767F9BD
:10B4300008B1012000E000200646002104F1380098
:10B44000FEF75DF908B1012000E000200746002169
:10B4500004F12000FEF753F908B1012000E00020BC
:10B460008046002104F11400FEF749F908B10120DB
:10B4700000E000208146002104F14400FEF73FF97E
:10B4800008B1012000E000200890002104F15000E4
:10B49000FEF735F908B1012000E0002007900021F7
:10B4A00004F15C00FEF72BF908B1012000E0002058
:10B4B000069046B13FB1B8F1000F04D0B9F1000FCA
:10B4C00001D0012000E000200590BAF1000F09D062
:10B4D00046B93FB9B8F1000F04D0B9F1000F01D05F
:10B4E000012000E00020049046B13FB1B8F1000F08
:10B4F00004D1B9F1000F01D0012000E00020039039
:10B50000BAF1000F09D046B93FB9B8F1000F04D124
:10B51000B9F1000F01D0012000E000200290059851
:10B5200018B9049808B9039808B1012000E0002078
:10B530008346BBF1000F05D1029818B9304809B015
:10B54000BDE8F08FBAF1000F13D196B18FB104F1BD
:10B55000380204F12C0104F10800FFF779F9050025
:10B5600002D0A5F58140EAE704F10800FFF7E9FA07
:10B570006060049880B104F1380004F12C0304F1F8
:10B58000200204F114010090303800F08BF80546D9
:10B590009DB1A5F58140D2E7039870B104F1200375
:10B5A00004F1140204F1380104F12C0000F0A0F9B8
:10B5B000050002D0A5F58140C1E7BBF1000F18D00E
:10B5C000089818B1079808B1069890B904F15C0082
:10B5D00004F1500104F1440304F12002CDE900100C
:10B5E0001839303800F00EF8054615B1A5F5814040
:10B5F000A5E701225946204607F074FC9FE70000AA
:10B6000080BFFFFF2DE9FE4F0446894616461D46C2
:10B61000DDE90C784FF0000A6846FEF7D4FEADB1C4
:10B6200000BF012221466846FFF7F8FA5FEA000AE8
:10B6300000D031E000BF00BF6A4631462846FFF720
:10B64000ABF85FEA000A00D026E000BFAFB100BF50
:10B65000012249466846FFF7E1FA5FEA000A00D096
:10B660001AE000BF00BF6A4631463846FFF794F83B
:10B670005FEA000A00D00FE000BFB8F1000F0AD067
:10B6800000BF224649464046FEF7A5FE5FEA000A93
:10B6900000D001E000BF00BF6846FEF786FD5046BF
:10B6A000BDE8FE8F2DE9F04F97B0044688469146DD
:10B6B0001D46209E0020169038227FA102A8F4F794
:10B6C00065FD3620019025B11EB1A86808B9B068A3
:10B6D00020B16FF0030017B0BDE8F08F00212046C5
:10B6E000FEF70DF8002817DD01214846FEF707F8A0
:10B6F000002811DD21464846FEF71DF800280BDA28
:10B7000001214046FDF7FBFF002805DD21464046AC
:10B71000FEF711F8002802DB6FF00300DBE710A84A
:10B72000FEF751FE13A8FEF74EFE00BF4246494603
:10B7300013A8FFF78DF8169000B1B4E000BF00BF6A
:10B74000012213A913A8FFF769FA169000B1AAE025
:10B7500000BF13A8FEF7DEFF1FFA80FABAF1000F50
:10B7600003D16FF0030016909DE000BF514613A86F
:10B77000FFF792F9169000B195E000BF0027A0688E
:10B78000007800F00700012800D1012783E002A81B
:10B79000C15D10A8FEF7DAFF00BF224610A92846B7
:10B7A000FEF717FD169000B17DE000BF012128468D
:10B7B000FDF7A5FF00B16CE000BF234613AA10A956
:10B7C00010A80096FEF734FA169000B16BE000BFA7
:10B7D0004FF0010B53E0012110A8FDF790FF00B9D5
:10B7E0004FE000BF012210A910A8FDF7C1FE16907E
:10B7F00000B158E000BF00BF224610A92846FEF75E
:10B80000E8FC169000B14EE000BF01212846FDF78C
:10B8100076FF012811D121462846FDF78CFF401CF8
:10B8200058B900BF2B46224600213046FEF71DF8CE
:10B83000169000B137E000BF35E000BF012210A92B
:10B8400010A8FFF7EBF9169000B12CE000BF00BF85
:10B8500010AA10A910A8FEF7FBFF169000B122E075
:10B8600000BF00BF224610A910A8FEF795FF169052
:10B8700000B118E000BF0BF101001FFA80FBD345B7
:10B88000A9DD00BF012110A8FDF739FF00B105E0D7
:10B8900000BF781C87B2362FFFF479AF00BF6FF07E
:10B8A0000300169000BF10A8FEF77FFC13A8FEF758
:10B8B0007CFC16980FE70000020305070B0D11131F
:10B8C000171D1F25292B2F353B3D4347494F535902
:10B8D0006165676B6D717F83898B95979DA3A7AD1C
:10B8E000B3B5BFC1C5C7D3DFE3E5E9EFF1FB0000A6
:10B8F0002DE9F04186B006460F4614461D464FF02E
:10B90000000825B100212846FDF7F9FE20B16FF0AF
:10B91000030006B0BDE8F08101213046FDF7EFFEDF
:10B9200000280ADD01213846FDF7E9FE002804DD84
:10B9300000212046FDF7E3FE10B96FF00300E8E7B1
:10B9400003A8FEF740FD6846FEF73DFD00BF01225B
:10B95000314603A8FFF762F95FEA000800D039E03A
:10B9600000BF00BF012239466846FFF757F95FEA7A
:10B97000000800D02EE000BF00BF6A4603A9284699
:10B98000FEF727FC5FEA000800D023E000BF00BFFD
:10B990006A4603A903A8FEF75BFF5FEA000800D030
:10B9A00018E000BF00BF2B4603AA002103A8FDF743
:10B9B0005CFF5FEA000800D00CE000BF00BF03AAF4
:10B9C00021462846FEF707FD5FEA000800D001E0A7
:10B9D00000BF00BF03A8FEF7E8FB6846FEF7E5FBE3
:10B9E000404696E710B5044604B910BD04F18C003A
:10B9F000FEF7DBFB04F19800FEF7D7FB04F16800CB
:10BA0000FEF7D3FB04F12000FEF7CFFB04F1380072
:10BA1000FEF7CBFB04F12C00FEF7C7FB04F114008A
:10BA2000FEF7C3FB04F10800FEF7BFFB04F1800042
:10BA3000FEF7BBFB04F17400FEF7B7FB04F15C00FA
:10BA4000FEF7B3FB04F15000FEF7AFFB04F1440036
:10BA5000FEF7ABFB00BFC8E70146486870472DE919
:10BA6000F05F04460E4693461D46DDF83C90DDF837
:10BA700034800B9F4FF0000A00BF00BF86B100BFAB
:10BA80005A46314604F10800FEF75EFF5FEA000AFD
:10BA900000D03EE000BF04F10800FFF752F86060FC
:10BAA0005DB100BF294604F12C000A9AFEF74CFF55
:10BAB0005FEA000A00D02CE000BF5FB100BF39464A
:10BAC00004F138000C9AFEF73FFF5FEA000A00D04D
:10BAD0001FE000BFB8F1000F0BD000BF414604F1DA
:10BAE00020000E9AFEF730FF5FEA000A00D010E057
:10BAF00000BFB9F1000F0BD000BF494604F114009C
:10BB0000109AFEF721FF5FEA000A00D001E000BFB3
:10BB100000BFBAF1000F03D0AAF58140BDE8F09F45
:10BB20000020FBE770B504460D46164600BF00BF77
:10BB300000BF00BFAC212046F4F74FFB3246294638
:10BB4000204600F0FFFC70BD2DE9FF5F04460D4666
:10BB500016461F46DDE910ABDDE90E8900BF00BFC8
:10BB600000BF00BF00BF00BF00BF00BF00BF00BFDD
:10BB7000D4F8A40050B93B463246294620468DE809
:10BB8000000F00F079FA04B0BDE8F09F0048FAE732
:10BB900000BFFFFF2DE9FE4F04460D4616461F4627
:10BBA000DDE90D9ADDF8308000BF00BF00BF00BFA7
:10BBB00000BF00BF00BF00BFD4F8A40048B93B4697
:10BBC0003246294620468DE8000700F053FBBDE8C9
:10BBD000FE8F0148FBE7000000BFFFFF2DE9FF5F7C
:10BBE00004460D4616461F46DDE910ABDDE90E8919
:10BBF00000BF00BF00BF00BF00BF00BF00BF00BF4D
:10BC0000D4F8A40050B93B463246294620468DE878
:10BC1000000F00F0ADFB04B0BDE8F09F0048FAE76C
:10BC200000BFFFFF2DE9FF5F04460D4616461F4685
:10BC3000DDE910ABDDE90E8900BF00BF00BF00BF2A
:10BC400000BF00BF00BF00BFD4F8A40050B93B46FE
:10BC50003246294620468DE8000F00F003FC04B070
:10BC6000BDE8F09F0048FAE700BFFFFF2DE9F04F65
:10BC7000A1B004460D4616461F46DDF8A8A06FF099
:10BC80006D0804F1440B04F15000089000BF00BFA0
:10BC900000BF00BF00BF00BF0DB1012000E00020C9
:10BCA00002460121204607F01DF918B1C54821B010
:10BCB000BDE8F08F1EA8FEF786FB1BA8FEF783FBEE
:10BCC00018A8FEF780FB15A8FEF77DFB2DB10CA888
:10BCD000FEF779FB09A8FEF776FB12A8FEF773FBC7
:10BCE0000FA8FEF770FB05A8FEF76DFB02A8FEF794
:10BCF0006AFB00BF39461EA86268FEF725FE5FEAB0
:10BD0000000800D036E100BF04F108011EA8FDF7CD
:10BD100012FD002802DB6FF003082BE100BF1EA913
:10BD200005A8FDF762FD5FEA000800D022E100BF30
:10BD3000002D75D000BF32462946204607F0B0F9E5
:10BD40005FEA000800D015E100BF00BF04F18C02DB
:10BD50001EA91EA8FEF77CFD5FEA000800D009E1DD
:10BD600000BF00BF04F108021EA91EA8FEF714FDC3
:10BD70005FEA000800D0FDE000BF00BF012204F12F
:10BD80002C011BA8FEF74AFF5FEA000800D0F1E093
:10BD900000BF00BF012204F1380118A8FEF73EFFE2
:10BDA0005FEA000800D0E5E000BF00BF33462A4646
:10BDB0001C2115A8FEF7B7F95FEA000800D0D9E00A
:10BDC00000BF00BF15AA1BA90CA8FEF741FD5FEA42
:10BDD000000800D0CEE000BF00BF04F144020CA96F
:10BDE0000CA8FDF7E5FB5FEA000800D0C2E000BF49
:10BDF0000DF1300B00BF33462A461C2115A8FEF773
:10BE000092F95FEA000800D0B4E000BF00BF15AAB5
:10BE100018A909A8FEF71CFD5FEA000801D0A9E0F7
:10BE20000EE000BF00BF04F1500209A909A8FDF708
:10BE3000BFFB5FEA000800D09CE000BF09A80890A3
:10BE400000BF04F1740004F12C035A461EA90090AF
:10BE500012A8FDF7EDFE5FEA000800D08AE000BFFF
:10BE600000BF04F1800004F1380300901EA90FA860
:10BE7000089AFDF7DDFE5FEA000800D07AE000BF17
:10BE800000BF0FAA12A91EA8FEF7E8FE5FEA00088D
:10BE900000D06FE000BF00BF04F15C021EA912A831
:10BEA000FEF7D6FC5FEA000800D063E000BF00BFE9
:10BEB00004F12C0212A91EA8FEF76EFC5FEA00082E
:10BEC00000D057E000BF00BF04F138021EA912A83D
:10BED000FEF7BEFC5FEA000800D04BE000BF00BFE9
:10BEE00012AA0FA91EA8FDF763FB5FEA000800D0A5
:10BEF00040E000BFBDB100BF04F198021EA91EA81A
:10BF0000FEF7A6FC5FEA000800D033E000BF00BFE8
:10BF100004F108021EA91EA8FEF73EFC5FEA000815
:10BF200000D027E000BF00BF04F1680004F108035F
:10BF300004F114021EA9009002A8FDF779FE5FEA41
:10BF4000000800D016E000BF05A902A8FDF7F3FB2A
:10BF500010B1DFF874800DE0D4F8049000BF4A46B9
:10BF600051461EA8FEF7BCFE5FEA000800D001E0C3
:10BF700000BF00BF1BA8FEF718F918A8FEF715F9B7
:10BF800015A8FEF712F92DB10CA8FEF70EF909A8B5
:10BF9000FEF70BF91EA8FEF708F912A8FEF705F93F
:10BFA0000FA8FEF702F902A8FEF7FFF805A8FEF7B2
:10BFB000FCF8B8F1000F02D0A8F5864077E6002023
:10BFC00075E6000080BFFFFF80BCFFFF2DE9FF4149
:10BFD0000446884615466FF06D0600BF00BF00BFDF
:10BFE00000BF00BF00BF00221146204606F07AFFC6
:10BFF00018B1204804B0BDE8F08101A8FEF7E3F9CC
:10C0000000BF414601A86268FEF79EFC060000D012
:10C0100026E000BF04F1080101A8FDF78CFB002811
:10C0200002DB6FF003061BE0676800BF04F16800E5
:10C0300004F1080304F1140201A9009001A8FDF71E
:10C04000F7FD060000D00BE000BF00BF3A462946CE
:10C0500001A8FEF745FE060000D001E000BF00BFCA
:10C0600001A8FEF7A2F816B1A6F58540C2E70020A8
:10C07000C0E7000080BFFFFF2DE9FF4FADF20C4D80
:10C0800099466FF06D00CDF808044FF0000A0026C5
:10C090004FF000084FF0000B00BF00BF00BF00BF13
:10C0A00000BF00BF00BF00BF00BF00BFDDF80C0431
:10C0B0004568A5F10B00DDF84C14884200D201E080
:10C0C000DDF84C040746B9F1010F09D1DDF80C0485
:10C0D000D0F8A40020B166480DF21C4DBDE8F08FE9
:10C0E000102D02D3B5F5806F01D96148F4E7B9F19D
:10C0F000000F07D102AADDF84414DDF80C04FFF7A5
:10C1000065FF08E002A80090DDF844340DF20C4011
:10C1100007C8FFF7ABFDCDF80804DDF8080400B14F
:10C120009DE09DF808000643B9F1010F1ED19DF86E
:10C13000090080F002000643022414E002A8005D1A
:10C1400002A9095D4942C9B20843012181EAE01010
:10C1500040EA0808C8F10000C0B240EA080081EADD
:10C16000E0108244641CAC42E8D322E09DF8090050
:10C1700080F001000643022419E002A9085D0122B3
:10C180000021F6F733F940EA080000F0FF08012229
:10C1900000214046F6F72AF9824402A8005D80F0AB
:10C1A000FF0200214046F6F721F90643641CAC4229
:10C1B000E3D3012200214046F6F718F90643514621
:10C1C000082007F0E5F80643A5EB0A00C21E394631
:10C1D0003046F6F70BF983463946584607F0D8F84B
:10C1E000019000224FF488410198F6F7FFF80246CB
:10C1F0004FF4824100903046F6F7F8F84042CDF80F
:10C200000804019946EA0100F5F78AFB06460B246B
:10C2100005E002A8005DB04302A90855641CAC42C9
:10C22000F7D35A4639460198F6F7E0F88346A7EB6C
:10C230000B0202A92944C81B394605F001FDDDF8AF
:10C240004C0438B102A82844C11B3A46DDF8480422
:10C25000F3F79CFFDDF84004C0F800B000BF4FF4D6
:10C26000806102A8FFF732F8DDF8080434E7000027
:10C2700080BFFFFF2DE9FF4F81B080461F46109E13
:10C280000E9D6FF06D0B344600BF00BF00BF00BFB6
:10C2900000BF00BF00BF00BF012F06D1D8F8A40027
:10C2A00018B1324805B0BDE8F08FD8F804A005F108
:10C2B0000B00A84201D3824501D22C48F2E7AAF133
:10C2C0000300A0EB0509002004F8010B4FBB029806
:10C2D00008B92648E6E7022004F8010B1BE06420B9
:10C2E000009000BF01222146DDE9023098478346D5
:10C2F000207830B90098401E009010B1BBF1000FBB
:10C30000F0D0009810B1BBF1000F02D0ABF589401E
:10C31000C8E7641C00BF5FEA0900A9F10109DED18A
:10C320000BE0012004F8010B02E0FF2004F8010BF0
:10C330005FEA0900A9F10109F7D1002004F8010B17
:10C3400025B12A4620460F99F3F720FF2FB9324630
:10C3500031464046FFF73AFEA4E733460096404692
:10C36000DDE90212FFF782FC9CE7000080BFFFFFBF
:10C370002DE9FC5F0446894692461F46DDF830B041
:10C380000F9D6FF06D00019000264FF0000800BF78
:10C3900000BF00BF00BF00BF00BF00BF00BF012F34
:10C3A00005D1D4F8A40010B12C48BDE8FC9F00953D
:10C3B00063685846DDE90D1206F0FAFE019008B1F7
:10C3C0000198F2E72FB92A4629462046FFF7FEFDDD
:10C3D000EBE701206168F3F71FFF064616B96FF01F
:10C3E0000F00E2E701206168F3F716FF8046B8F11D
:10C3F000000F05D13046F5F7F1FD6FF00F00D4E7DF
:10C4000000BF2B465246494620460096FFF72EFCB9
:10C41000019000B119E000BF00BF424631462046FE
:10C42000FFF7D4FD019000B10FE000BF2946404660
:10C43000626800F01FFA10B10948019005E031462A
:10C4400028466268F3F7A2FE00BF3046F5F7C6FD46
:10C450004046F5F7C3FD0198A7E7000080BFFFFF46
:10C4600000BDFFFF2DE9FF4F81B007468B46984680
:10C47000DDF844904FF0000A0025002600BF00BF01
:10C4800000BF00BF00BF00BF00BF00BF7C68B8F1A5
:10C49000010F06D1D7F8A40018B1284805B0BDE8AF
:10C4A000F08F21460120F3F7B7FE050005D02146A5
:10C4B0000120F3F7B1FE060002D16FF00F0A2AE067
:10C4C000234600960EA807C806F072FE5FEA000A2F
:10C4D00000D020E0B8F1000F05D12A464946384681
:10C4E000FFF774FD06E04B46009559463846039A1F
:10C4F000FFF7BCFB8246BAF1000F00D00BE02246EA
:10C500003146284600F0B6F95FEA000A02D0DFF8AB
:10C5100030A000E000BF35B121462846FEF7D6FE28
:10C520002846F5F75BFD36B121463046FEF7CEFED4
:10C530003046F5F753FD5046B0E7000080BFFFFFDF
:10C5400080BCFFFF00BF00BF00BF00BFC0F8A41049
:10C55000C0F8A820704700002DE9F04786B00446D7
:10C560000E4692461F46DDE90E89002503A8FDF719
:10C570002AFF6846FDF727FF3FB30CB9484D7CE022
:10C5800000BF0122214603A8FEF748FB050000D0AA
:10C5900073E000BF00BF524639466846FEF75EFBB7
:10C5A000050000D069E000BF00BF03AA69466846E5
:10C5B000FEF7F2F8050000D05FE000BF00216846FA
:10C5C000FDF79DF808B1374D57E0B8F1000F27D0BF
:10C5D0000EB9334D51E000BF0122314603A8FEF7EA
:10C5E0001DFB050000D048E000BF00BF5246414699
:10C5F0006846FEF733FB050000D03EE000BF00BFF9
:10C6000003AA69466846FEF7C7F8050000D034E083
:10C6100000BF00216846FDF772F808B1214D2CE0FB
:10C62000B9F1000F28D004B10EB91D4D25E000BFAF
:10C630003246494603A8FEF70BF9050000D01CE07E
:10C6400000BF00BF012203A903A8FEF7E7FA050017
:10C6500000D012E000BF00BF224603A903A8FEF7E6
:10C660009BF8050000D008E000BF002103A8FDF7FB
:10C6700046F808B10B4D00E000BF3DB115F5844F01
:10C6800004D015F5814F01D0A5F5844503A8FDF729
:10C690008CFD6846FDF789FD284606B0BDE8F087A9
:10C6A00080BFFFFF00BEFFFF2DE9F04F87B00646B9
:10C6B0000F4614461D46DDE911ABDDF840804FF012
:10C6C000000904A8FDF77FFE01A8FDF77CFED7B1A5
:10C6D000CCB1C6B100BF2246394604A8FEF7B8F86F
:10C6E0005FEA000900D0B0E000BF01213046FDF74D
:10C6F00006F8002804DD314604A8FDF71CF810B147
:10C70000DFF86C91A1E0F6B1EDB1B8F1000F1AD0ED
:10C7100001212846FCF7F3FF002811DD01214046E6
:10C72000FCF7EDFF00280BDD31462846FDF703F846
:10C73000002805DA31464046FCF7FDFF002802DB01
:10C74000DFF82C9181E0002F7ED0002C7CD0002DD2
:10C750007AD0B8F1000F77D001213846FCF7CFFF2F
:10C76000002805DD01212046FCF7C9FF002802DC76
:10C77000DFF8FC9069E000BF4246294604A8FEF7B6
:10C7800067F85FEA000900D05FE000BF00BF012248
:10C7900004A904A8FEF742FA5FEA000900D054E0B9
:10C7A00000BF00BF0122394601A8FEF737FA5FEA51
:10C7B000000900D049E000BF00BF01AA04A904A8F5
:10C7C000FDF7EAFF5FEA000900D03EE000BF00216C
:10C7D00004A8FCF794FF10B1DFF8949035E000BF97
:10C7E0004246294604A8FEF733F85FEA000900D064
:10C7F0002BE000BF00BF012204A904A8FEF70EFA37
:10C800005FEA000900D020E000BF00BF01222146FE
:10C8100001A8FEF703FA5FEA000900D015E000BFA7
:10C8200000BF01AA04A904A8FDF7B6FF5FEA00094A
:10C8300001D00AE008E000BF002104A8FCF75FFF78
:10C8400010B1DFF82C9000E000BF04A8FDF7ADFCAC
:10C8500001A8FDF7AAFCB9F1000F04D019F5844F27
:10C8600001D0A9F58449484607B0BDE8F08F000023
:10C8700000BEFFFFF0B503460C461D4626460020CD
:10C88000002106E06F5C16F801C087EA0C07384308
:10C89000491C9142F6D3F0BD2DE9F04704460D4600
:10C8A0006FF06D0900BF00BF00BF00BF207800F02F
:10C8B0003F0680223046761C04F11C010A54382EB3
:10C8C00007D8C6F1380104F11C029019F3F785FC72
:10C8D00016E0C6F1400104F11C029019F3F77DFC4B
:10C8E00004F11C012046F9F733F85FEA000902D091
:10C8F0004846BDE8F087382104F11C00F3F76DFCD1
:10C900002068400F616840EAC10720684FEAC0080C
:10C91000390E84F85410390C84F85510390A84F80B
:10C92000561084F857704FEA186184F858104FEA8F
:10C93000184184F859104FEA182184F85A1084F8E5
:10C940005B8004F11C012046F9F702F85FEA000958
:10C9500001D04846CDE7A068000E2870A068000C02
:10C9600068702089000AA870207AE870E068000EDC
:10C970002871E068000C6871A089000AA871207B0A
:10C98000E8712069000E28722069000C6872208A04
:10C99000000AA872207CE8726069000E2873606942
:10C9A000000C6873A08A000AA873207DE873A06950
:10C9B000000E2874A069000C6874208B000AA8740B
:10C9C000207EE874002094E710B5044604B910BD39
:10C9D0005C212046FEF77AFC00BFF8E710B504465C
:10C9E00000BF00BF5C212046F3F7F7FB10BDF0B598
:10C9F00097B004460D4616466FF06D0700BF00BFA6
:10CA000000BF00BF6846FFF7E9FF684600F01AF86C
:10CA1000070000D00FE02A462146684600F02CF8B7
:10CA2000070000D007E031466846FFF735FF0700F2
:10CA300000D000E000BF6846FFF7C6FF384617B0D9
:10CA4000F0BD0000014600BF00BF00200860486044
:10CA500006488860064ACA60C2430A61044AD24353
:10CA60004A61044A8A61002070470000012345673B
:10CA700089ABCDEFF0E1D2C32DE9F04704468846FB
:10CA800015466FF06D0900BF00BF00BF00BF15B9AC
:10CA90000020BDE8F087207800F03F07C7F140068E
:10CAA000206828442060206820602068A84202D2C4
:10CAB0006068401C6060AFB1B54213D304F11C0143
:10CAC000C81932464146F3F761FB04F11C012046C8
:10CAD000F8F73EFF5FEA000901D04846D9E7B044C5
:10CAE000AD1B00270BE041462046F8F731FF5FEA17
:10CAF000000901D04846CCE708F14008403D402DF0
:10CB0000F1D235B104F11C01C8192A464146F3F7A8
:10CB10003DFB0020BDE770B504460D4600BF00BFD9
:10CB200000BF00BF6C2229462046F3F72FFB70BDE3
:10CB30002DE9F04704460D466FF06D0900BF00BFB8
:10CB400000BF00BF207800F03F0680223046761CF0
:10CB500004F128010A54382E07D8C6F1380104F12F
:10CB600028029019F3F739FB16E0C6F1400104F1F1
:10CB700028029019F3F731FB04F128012046FAF757
:10CB800073FA5FEA000902D04846BDE8F087382111
:10CB900004F12800F3F721FB2068400F616840EAA8
:10CBA000C10720684FEAC00800BF390E84F8601042
:10CBB000390C84F86110390A84F8621084F86370C3
:10CBC00000BF00BF4FEA186184F864104FEA1841B3
:10CBD00084F865104FEA182184F8661084F867809D
:10CBE00000BF04F128012046FAF73EFA5FEA000987
:10CBF00001D04846C9E700BFA068000E2870A068B1
:10CC0000000C68702089000AA870207AE87000BFC4
:10CC100000BFE068000E2871E068000C6871A08910
:10CC2000000AA871207BE87100BF00BF2069000ED8
:10CC300028722069000C6872208A000AA872207C81
:10CC4000E87200BF00BF6069000E28736069000CC5
:10CC50006873A08A000AA873207DE87300BF00BF34
:10CC6000A069000E2874A069000C6874208B000A6B
:10CC7000A874207EE87400BF00BFE069000E28752C
:10CC8000E069000C6875A08B000AA875207FE87524
:10CC900000BF00BF206A000E2876206A000C68766C
:10CCA000208C000AA8762020005DE87600BFA06EE8
:10CCB00068B900BF606A000E2877606A000C687768
:10CCC000A08C000AA8772420005DE87700BF002030
:10CCD0005BE710B5044604B910BD6C212046FEF791
:10CCE000F5FA00BFF8E710B5044600BF00BF6C219D
:10CCF0002046F3F772FA10BD2DE9F0419CB00446CE
:10CD00000D4616461F466FF06D0800BF00BF00BFFE
:10CD100000BF00BF00BF01A8FFF7E5FF394601A82B
:10CD200000F01EF85FEA000800D011E02A46214614
:10CD300001A800F063F85FEA000800D008E031467F
:10CD400001A8FFF7F5FE5FEA000800D000E000BF91
:10CD500001A8FFF7BEFF40461CB0BDE8F08100000F
:10CD6000024600BF00BF00BF00BF0020106050603F
:10CD700081B912489060124BD360124B1361124B71
:10CD80005361124B9361124BD361124B1362124BDE
:10CD900053620FE011489060114BD360114B136147
:10CDA000114B5361114B9361114BD361114B1362C2
:10CDB000114B5362916600207047000067E6096AD4
:10CDC00085AE67BB72F36E3C3AF54FA57F520E51AC
:10CDD0008C68059BABD9831F19CDE05BD89E05C13C
:10CDE00007D57C3617DD703039590EF7310BC0FF8F
:10CDF00011155868A78FF964A44FFABE2DE9F047C2
:10CE00000446884615466FF06D0900BF00BF00BF9D
:10CE100000BF15B90020BDE8F087207800F03F077B
:10CE2000C7F1400620682844206020682060206800
:10CE3000A84202D26068401C6060AFB1B54213D313
:10CE400004F12801C81932464146F3F79FF904F16D
:10CE500028012046FAF708F95FEA000901D04846A0
:10CE6000D9E7B044AD1B00270BE041462046FAF756
:10CE7000FBF85FEA000901D04846CCE708F140081A
:10CE8000403D402DF1D235B104F12801C8192A46A0
:10CE90004146F3F77BF90020BDE770B504460D4627
:10CEA00000BF00BF00BF00BFD82229462046F3F7CD
:10CEB0006DF970BD2DE9F05F044689466FF06D0B8A
:10CEC00000BF00BF00BF00BF7F21206800EA010A49
:10CED000802250460AF1010A04F150010A54BAF1C5
:10CEE000700F08D8CAF1700104F1500202EB0A0079
:10CEF000F3F773F917E0CAF1800104F1500202EB75
:10CF00000A00F3F76AF904F150012046FAF7BAFF74
:10CF10005FEA000B02D05846BDE8F09F702104F193
:10CF20005000F3F75AF96068420FD4E90231C900A2
:10CF300041EA537142EAC3050E46D4E90001C90033
:10CF400041EA5078C700310E84F8C010310C84F8E3
:10CF5000C110310A84F8C21084F8C360280E40EA78
:10CF6000062084F8C400280C40EA064084F8C50076
:10CF7000280A40EA066084F8C60084F8C7504FEAE1
:10CF8000186184F8C8104FEA184184F8C9104FEAB4
:10CF9000182184F8CA1084F8CB80380E40EA0820A3
:10CFA00084F8CC00380C40EA084084F8CD00380AF8
:10CFB00040EA086084F8CE0084F8CF7004F1500194
:10CFC0002046FAF75FFF5FEA000B01D05846A3E75F
:10CFD0006069000E89F800006069000C89F80100A2
:10CFE000A08A000A89F80200207D89F80300207DCC
:10CFF0000202216942EA116089F80400217D20695A
:10D00000000C40EA014089F80500208A217D000AD1
:10D0100040EA016089F80600207C89F80700E06991
:10D02000000E89F80800E069000C89F80900A08B5F
:10D03000000A89F80A00207F89F80B00207F02028D
:10D04000A16942EA116089F80C00217FA069000CF7
:10D0500040EA014089F80D00208B217F000A40EA58
:10D06000016089F80E00207E89F80F00606A000ECA
:10D0700089F81000606A000C89F81100A08C000A81
:10D0800089F812002420005D89F813002421095D2D
:10D09000206A000E40EA012089F814002421095D6D
:10D0A000206A000C40EA014089F815002420218CF8
:10D0B000005D020642EA112089F816002020005D7A
:10D0C00089F81700E06A000E89F81800E06A000C81
:10D0D00089F81900A08D000A89F81A002C20005D3B
:10D0E00089F81B002C21095DA06A000E40EA01208E
:10D0F00089F81C002C21095DA06A000C40EA01405F
:10D1000089F81D002C21208D095D000A40EA01608C
:10D1100089F81E002820005D89F81F00606B000E52
:10D1200089F82000606B000C89F82100A08E000AAD
:10D1300089F8220094F8340089F8230094F8341018
:10D14000206B000E40EA012089F8240094F8340096
:10D150000204216B42EA114089F82500218E94F8DF
:10D160003400020642EA112089F8260094F83000C3
:10D1700089F82700E06B000E89F82800E06B000CAE
:10D1800089F82900A08F000A89F82A0094F83C0049
:10D1900089F82B0094F83C000202A16B42EA11606E
:10D1A00089F82C0094F83C000204A16B42EA11407B
:10D1B00089F82D00208F94F83C10000A40EA0160A5
:10D1C00089F82E0094F8380089F82F00D4F8D000A0
:10D1D00000285DD1606C000E89F83000606C000C96
:10D1E00089F831004420005B000A89F8320094F885
:10D1F000440089F8330094F844000202216C42EAAA
:10D20000116089F8340094F84410206C000C40EA56
:10D21000014089F8350004F11001088E94F844109B
:10D22000000A40EA016089F8360094F8400089F865
:10D230003700E06C000E89F83800E06C000C89F8CB
:10D2400039004C20005B000A89F83A0094F84C0041
:10D2500089F83B0094F84C10A06C000E40EA0120C5
:10D2600089F83C0094F84C000204A16C42EA114099
:10D2700089F83D0004F11000018F94F84C0002067B
:10D2800042EA112089F83E0094F8480089F83F00EE
:10D29000002041E610B5044604B910BDD82120464F
:10D2A000FEF714F800BFF8E710B5044600BF00BF52
:10D2B000D8212046F2F791FF10BD2DE9F041B6B01C
:10D2C00004460D4616461F466FF06D0800BF00BFAE
:10D2D00000BF00BF00BF00BF6846FFF7E5FF39464B
:10D2E000684600F01DF85FEA000800D011E02A4609
:10D2F0002146684600F0A6F85FEA000800D008E082
:10D3000031466846FFF7D6FD5FEA000800D000E02E
:10D3100000BF6846FFF7BEFF404636B0BDE8F0816B
:10D3200010B5024600BF00BF00BF00BF0020106064
:10D3300050609060D06001BB224B2348C2E90430AA
:10D34000224B2348C2E906302248234BC2E9080396
:10D35000224B2348C2E90A30224B2348C2E90C3051
:10D36000224B2348C2E90E30224B2348C2E9103039
:10D37000224B2348C2E912301FE0224B2248C2E967
:10D3800004302248224BC2E90603224C2248C2E95B
:10D390000840224B2248C2E90A30224B2248C2E907
:10D3A0000C302248224BC2E90E03224B2248C2E92C
:10D3B0001030224B2248C2E91230C2F8D0100020AF
:10D3C00010BD000008C9BCF367E6096A3BA7CA8420
:10D3D00085AE67BB2BF894FE72F36E3CF1361D5F91
:10D3E0003AF54FA5D182E6AD7F520E511F6C3E2B10
:10D3F0008C68059B6BBD41FBABD9831F79217E13E4
:10D4000019CDE05BD89E05C15D9DBBCB07D57C36B1
:10D410002A299A6217DD70305A01599139590EF74D
:10D42000D8EC2F15310BC0FF6726336711155868EC
:10D43000874AB48EA78FF9640D2E0CDBA44FFABE79
:10D440001D48B5472DE9F0470546884614466FF05C
:10D450006D0900BF00BF00BF00BF14B90020BDE8C8
:10D46000F0877F21286800EA0106C6F18007D5E928
:10D470000020121940F10000C5E90020D5E9002084
:10D48000121B70F1000006D2D5E90220521C40F1B7
:10D490000000C5E90220AEB1BC4213D305F1500132
:10D4A00088193A464146F2F771FE05F150012846C7
:10D4B000FAF7E8FC5FEA000901D04846CFE7B84434
:10D4C000E41B00260BE041462846FAF7DBFC5FEA46
:10D4D000000901D04846C2E708F18008803C802C52
:10D4E000F1D234B105F15001881922464146F2F7D4
:10D4F0004DFE0020B3E730B50446002030BD0000EB
:10D5000038B50446606D08B9002038BD616DE06C27
:10D51000884702280AD106A05A2309A203210090B5
:10D520002046F6F77BFA4FF0FF30EEE70020ECE7FD
:10D5300074696D65722065787069726564000000B9
:10D540002E2E5C4D626564746C735C6C69627261F2
:10D5500072795C73736C5F6D73672E6300000000FB
:10D5600003468B4202D8C81A904201D2012070476C
:10D570000020FCE70146887A0B280ED2DFE800F095
:10D580000D0607090B0D0D0D0D080A0000BF00BFA9
:10D5900000BF00BF00BF012070470020FCE7000073
:10D5A0000246064905E00868904201D108467047E6
:10D5B000203108680028F6D100BFF8E780BD0108D7
:10D5C0000146887A0B280FD2DFE800F00E06080A21
:10D5D0000C0E0E070E090B0000BF00BF00BF00BFFE
:10D5E00000BF00BF012070470020FCE77CB5044667
:10D5F0006FF06D050CB1206808B919487CBD19A001
:10D6000041F287631DA2022100902046F6F706FA38
:10D61000D4F8AC0018B1204601F018FAEEE76068C3
:10D62000102812D100220121204602F0E7FC05005B
:10D630000BD01AA041F2926310A20121CDE900059E
:10D640002046F6F727FA2846D8E71CA041F2976350
:10D650000AA2022100902046F6F7E0F90020CDE76B
:10D66000008FFFFF3D3E20777269746520636C6F09
:10D670007365206E6F746966790000002E2E5C4D14
:10D68000626564746C735C6C6962726172795C73FC
:10D69000736C5F6D73672E63000000006D626564DC
:10D6A000746C735F73736C5F73656E645F616C65DC
:10D6B00072745F6D65737361676500003C3D207730
:10D6C0007269746520636C6F7365206E6F74696630
:10D6D00079000000026D61F3830202657047016109
:10D6E00042617047026D61F300020265704781611B
:10D6F000C2617047026D61F341020265704700002C
:10D700002DE9F04104460D4616461F46294620469F
:10D71000FFF7E8FF31462046FFF7ECFF25B9206D03
:10D7200020F00C0008302065022F12D1032084F86D
:10D730004E0084F84F0084F84C0084F84D001148E6
:10D74000E060A060606020600F4860630F48606424
:10D7500013E0032084F84E0084F84F0084F84C0056
:10D7600084F84D0001F04AFEE060A0606060206037
:10D77000074860630748606400BF00BF0020BDE841
:10D78000F08100007C00002080BE0108880000209D
:10D7900060BE01086800002010B50446A06B06F0CA
:10D7A000CDFB54212046FDF791FD10BD10B5044678
:10D7B00054212046F2F711FD10BD00002DE9F74F6E
:10D7C000C0B00D46144600203E9000264FF0010ADE
:10D7D000F1A040F24743F4A2022100904098F6F7EE
:10D7E0001DF95CB1E06848B1D4E90401884205D371
:10D7F000D4E90401401AA16988420CD2F2A040F297
:10D800004D43E9A2012100904098F6F707F9FA4844
:10D8100043B0BDE8F08F6169E068471805F18C00FE
:10D82000F5F7C5FB8046B8F1060F05D0B8F1080F33
:10D8300002D0B8F10A0F7DD14FF0080B284608F04E
:10D8400013FC01281AD1A06958450DD2EBA1A0699B
:10D8500040F28D43D4A2CDE9010B00910121409803
:10D86000F6F7DCF8EE48D3E72D975F44606958443B
:10D870006061A069A0EB0B00A06100E02D94A0699D
:10D88000296988420AD2E7A04FF49463C6A2012115
:10D8900000904098F6F7C2F8E148B9E7A069296915
:10D8A000401AA0612D98CDE9000B05F124020C214E
:10D8B0002EA8AB6805F070FD224631A932A8D5F834
:10D8C000CC3006F0CDF832A9DDA2319840F2B44355
:10D8D000CDE900210290B4A204214098F5F7B2FEF0
:10D8E0002EA9DFA2686840F2BD43CDE90021029075
:10D8F000ADA204214098F5F7A5FE2869A169394435
:10D90000D9A240F2BE43CDE900210290A6A2042193
:10D910004098F5F797FE2869A16939443FAACDE9F7
:10D920000372CDE90510A0693199CDE90017029085
:10D9300032AB00E02CE02EA905F18C006A68F5F707
:10D94000BDF95FEA000910D0CAA040F2CC4396A20C
:10D950000121CDE900094098F6F79CF819F5C64F6A
:10D9600001D1AF4854E7484652E73E98401C3E90EC
:10D97000A0693F9988420AD0C5A04FF49B638AA250
:10D98000012100904098F6F749F89B4840E7D6E11E
:10D99000B8F1020F78D14FF0000BD5F8CC00022877
:10D9A00001DB68688344A06969685944884205D3EB
:10D9B000A169E8685844401C814210D26968E8684F
:10D9C000B8A3A269CDE90032CDE9021040F20753B5
:10D9D00075A201214098F6F721F8914818E7A0694F
:10D9E0006968B0FBF1F201FB120070B16868BDA27A
:10D9F000A16940F24953CDE9002102906AA20121B8
:10DA00004098F6F70BF8864802E7D5F8CC000228D4
:10DA10000FDB394605F124006A68F2F7B7FB686846
:10DA200007446069696808446061A0696968401AD0
:10DA3000A0613FA9A069CDE9017100903B4605F1C5
:10DA4000240105F18C006A68F5F7ACF95FEA00097A
:10DA50000BD0ACA040F2635353A20121CDE90009E1
:10DA60004098F6F717F84846D2E6A0693F998842F1
:10DA70000BD087A040F26A534BA20121009040983E
:10DA8000F5F7CCFF5C48C3E64CE1A069401E3E5C64
:10DA90003E98012811D1701CA169814201D3012057
:10DAA00000E000200AFB00FA701CA169814201D34A
:10DAB000012000E00020464314E0A169E8683044FA
:10DAC000401C814201D3012000E000200AFB00FA43
:10DAD000A169E8683044401C814201D3012000E084
:10DAE00000204643761CD5F8CC00002849DD0021F3
:10DAF00000223097D4F818C0ACEB060CCDF8BCC0AF
:10DB0000D4F818C0BCF5807F02D8D4F818C001E062
:10DB10004FF4807CCDF8B8C0D4F818E0DDF8B8C078
:10DB2000AEEB0C0318461AE0DDF8BCC0604502D32A
:10DB30004FF0010C01E04FF0000C4CEA0202DDF85E
:10DB4000C0C01CF800C0A6F1010EF44502D14FF090
:10DB5000010C01E04FF0000C02FB0C11401CD4F84A
:10DB600018C08445E0D8B14202D14FF0010C01E069
:10DB70004FF0000C0CEA0A0ACAEB4A2C0CEA060623
:10DB8000CCE043A040F2D15307A20121009040987D
:10DB9000F5F744FF18483BE63D3E20646563727923
:10DBA00070742062756600002E2E5C4D6265647490
:10DBB0006C735C6C6962726172795C73736C5F6DBB
:10DBC00073672E6300000000626164207265636FFA
:10DBD0007264207374727563747572652070726FED
:10DBE000766964656420746F20646563727970740B
:10DBF0005F627566000000000094FFFF6D73676C44
:10DC0000656E2028256429203C206578706C696346
:10DC100069745F69765F6C656E2028256429200031
:10DC2000808EFFFF6D73676C656E20282564292048
:10DC30003C207461676C656E2028256429200000F3
:10DC40006164646974696F6E616C206461746120E1
:10DC50007573656420666F72204145414400000081
:10DC60004956207573656400544147207573656497
:10DC7000000000006D626564746C735F63697068B6
:10DC800065725F617574685F646563727970740052
:10DC900073686F756C64206E65766572206861705C
:10DCA00070656E006D73676C656E20282564292091
:10DCB0003C206D6178282069766C656E2825642982
:10DCC0002C206D61636C656E2028256429202B2033
:10DCD0003120292028202B206578706C204956207F
:10DCE000290000006D73676C656E2028256429206B
:10DCF00025252069766C656E202825642920213D24
:10DD0000203000006D626564746C735F63697068D5
:10DD100065725F637279707400000000A069801BF7
:10DD2000A0610CE0AFF2980040F2DF53AFF288122E
:10DD3000012100904098F5F771FE7E4868E53E9815
:10DD400000287BD1A069E968401AA061224631A968
:10DD500032A8D5F8CC3005F083FED5F8CC000028E9
:10DD60006DDD00202490A069304403900398B0F545
:10DD7000807F03D90398A0F5807000E00020029016
:10DD8000802104A8F2F729FA286CFBF76DF9032823
:10DD900006D0042805D0062804D007281ED10FE09D
:10DDA00000BF00BFA16931980844304408308109A0
:10DDB000A069319A10440830A1EB901024901AE029
:10DDC000A0693199084430441030C109A069319AE2
:10DDD00010441030A1EBD01024900CE0AFF25010A2
:10DDE00040F25663AFF24022012100904098F5F7CF
:10DDF00015FE50480CE500BFCAEB0A2024990840E4
:10DE0000249032A905F14000319AFBF7F7F9394621
:10DE100005F14000A269FBF7F1F9A169C819314683
:10DE200008F06EF825A905F14000FBF723F905F18C
:10DE30004000FBF7B7FA4FF0000B08E059E01DE097
:10DE400004A905F14000FBF717FA0BF1010B249828
:10DE5000401C8345F4D304A905F14000FBF798F872
:10DE600005F14000FBF742F9DDE90232D21AEB6816
:10DE7000D118029AB81808F043F80CE0AFF2F0108D
:10DE800040F27D63AFF2E022012100904098F5F767
:10DE9000C5FD2848BCE4A069C11925AAEB682491F6
:10DEA00023924FF0000CCDF888C0002014E0DDF87C
:10DEB00090B01BF800C0DDF88CB01BF800B0CDF8B6
:10DEC00084B0DDF884E08CEA0E0B9DF888E04BEA24
:10DED0000E0BCDF888B0401C9842E8D39DF888C05E
:10DEE000BCF1000F01D04FF0000A3E98401C3E905C
:10DEF00000BFBAF1000F01D10F4889E43E98012814
:10DF00000CD0AFF2742040F29B63AFF26432012177
:10DF100000904098F5F782FD064879E407A040F2AA
:10DF2000B563AFF27C32022100904098F5F776FDA0
:10DF300000206DE40094FFFF808EFFFF3C3D2064D5
:10DF4000656372797074206275660000F0B591B0F7
:10DF500004466FF06D05A06BD0F8686140A040F2F8
:10DF6000376343A2022100902046F5F757FD727AED
:10DF7000E168A06B08F04AF8054665B144A040F29C
:10DF80003F633BA20121CDE900052046F5F782FD64
:10DF9000284611B0F0BD626B02F130012246A06B41
:10DFA00005F06EFC05465DB13FA040F2496330A22A
:10DFB0000121CDE900052046F5F76CFD2846E8E78C
:10DFC000A06B00F5B871402201A8F2F7DFF8A16B51
:10DFD00001F5B870202209A9F2F7D8F8A16B01F574
:10DFE000C870202201A9F2F7D1F8402101A8FDF75D
:10DFF0006DF9206890F8500000F00100A26B02F566
:10E00000B872E168CDE90204CDE90021A76BD7F829
:10E010006431676B07F130027968A06C07F066FB2A
:10E0200005465DB125A040F26E6311A20121CDE944
:10E0300000052046F5F72EFD2846AAE7A16B01F55D
:10E04000B8704021FDF742F922A040F2866308A291
:10E05000022100902046F5F7E1FC002099E700003E
:10E060003D3E20646572697665206B6579730000BA
:10E070002E2E5C4D626564746C735C6C69627261B7
:10E0800072795C73736C5F746C732E6300000000B4
:10E0900073736C5F7365745F68616E647368616BE2
:10E0A000655F70726673000073736C5F636F6D7091
:10E0B0007574655F6D6173746572000073736C5F76
:10E0C000706F70756C6174655F7472616E73666F8A
:10E0D000726D00003C3D20646572697665206B6559
:10E0E000797300002DE9FF4F9BB00D4614460020C8
:10E0F0001A90EBA040F27123EDA2022100901B9830
:10E10000F5F78CFC65B9F2A040F27523E8A2012175
:10E1100000901B98F5F782FCF7481FB0BDE8F08F20
:10E120005CB1E06848B1D4E90401884205D3D4E980
:10E130000401401AA16988420AD2F0A040F281236A
:10E14000DBA2012100901B98F5F768FCEA48E4E7A0
:10E150006169E0684618D4E9051008442169A1EB1B
:10E160000008F2A1A06940F28723D1A2CDE90016F0
:10E17000029004211B98F5F765FA05F14C00F4F7BD
:10E1800016FF0746A069B0F5804F0FD94FF48041C4
:10E19000EEA2A06940F28E23CDE900200291C4A234
:10E1A00001211B98F5F73AFCF248B6E7D4E90510CF
:10E1B00008442169A1EB0008072F01D0022F57D195
:10E1C000E86840450AD9ECA040F2E323B8A2012157
:10E1D00000901B98F5F722FCF5489EE7D5F8CC0097
:10E1E000012822DB22460DA90EA8D5F8CC3005F077
:10E1F00037FC0EA905F134000D9AFAF7FFFF3146FE
:10E2000005F13400A269FAF7F9FF01A905F134001C
:10E21000FAF730FF05F13400FAF768FFEA68A16900
:10E22000881901A9F1F7B2FF0AE0E2A040F2063333
:10E230009FA2012100901B98F5F7F0FBAE486CE718
:10E24000E868A1693144E0A240F20A33CDE9002137
:10E25000029097A204211B98F5F7F4F9A069E968E8
:10E260000844A061E868A8EB00081A98401C1A90BE
:10E27000062F03D0082F01D00A2F75D16FF06D0B38
:10E28000284607F0F1FE0990286940450AD9BAA04E
:10E2900040F2423386A2012100901B98F5F7BEFBA5
:10E2A000C3483AE7A2464FF008095446CDE900A911
:10E2B00005F114020C210AA8AB6805F06DF822469E
:10E2C0000DA90EA8D5F8CC3005F0CAFB0AA9C2A248
:10E2D000686840F26233CDE90021029074A2042103
:10E2E0001B98F5F7AFF9099808B1484600E00020FF
:10E2F000BEA14FF459736EA2CDE9001A0290042119
:10E300001B98F5F79FF90EA9BEA20D9840F267334E
:10E31000CDE90021029066A204211B98F5F792F93D
:10E32000C0A1A06940F2693361A2CDE900100321C8
:10E330001B98F5F773FB2869A169314404F11802B1
:10E34000CDE90362CDE90510A0690D99CDE900166C
:10E3500002900EAB0AA905F14C006A68F4F7EEFCD6
:10E360005FEA000B0DD000E041E0BDA04FF45E730A
:10E370004FA20121CDE9000B1B98F5F78BFB584606
:10E38000CBE62869A1693144BCA240F27B33CDE9D8
:10E390000021029046A204211B98F5F753F9A069C9
:10E3A00029690844A0612869A8EB00080998D0B140
:10E3B000606948450AD270A04FF462733CA2012103
:10E3C00000901B98F5F72AFB7948A6E6A6EB090012
:10E3D0004A465146F1F7DAFE6069A0EB0900606138
:10E3E000A0694844A0611A98401C1A90CFE1022FFE
:10E3F00052D16FF06D0BA069401C6968B0FBF1F25F
:10E4000001FB1200A1EB00096868484501D14FF0FB
:10E41000000909F1010080450AD257A040F2A63355
:10E4200023A2012100901B98F5F7F8FA604874E6E2
:10E430004FF0000A05E0A169514406F801900AF185
:10E44000010ACA45F7D909F10100A1690844A06190
:10E4500009F10100A8EB0008D5F8CC0002281CDB6C
:10E460001E9850B98AA040F2B93311A20121009040
:10E470001B98F5F7D3FA20484FE66069696888422F
:10E480000CD23DA040F2BF3309A2012100901B989D
:10E49000F5F7C4FA464840E66CE121E10EE10000E0
:10E4A0003D3E20656E63727970742062756600006F
:10E4B0002E2E5C4D626564746C735C6C6962726173
:10E4C00072795C73736C5F6D73672E63000000007C
:10E4D0006E6F207472616E73666F726D2070726FF2
:10E4E000766964656420746F20656E6372797074F8
:10E4F0005F627566000000000094FFFF62616420A7
:10E500007265636F7264207374727563747572657B
:10E510002070726F766964656420746F20656E6325
:10E52000727970745F627566000000006265666FE4
:10E53000726520656E63727970743A206F757470BD
:10E540007574207061796C6F616400005265636F4F
:10E55000726420636F6E74656E7420257520746F0D
:10E560006F206C617267652C206D6178696D756DC7
:10E5700020256400008FFFFF42756666657220707B
:10E58000726F766964656420666F7220656E63726F
:10E590007970746564207265636F7264206E6F7445
:10E5A000206C6172676520656E6F7567680000009A
:10E5B0000096FFFF73686F756C64206E65766572F8
:10E5C0002068617070656E00636F6D70757465644E
:10E5D000206D61630000000049562075736564205A
:10E5E00028696E7465726E616C2900004956207549
:10E5F00073656420287472616E736D6974746564E8
:10E60000290000006164646974696F6E616C206444
:10E61000617461207573656420666F7220414541A5
:10E62000440000006265666F726520656E637279F2
:10E6300070743A206D73676C656E203D2025642CE4
:10E6400020696E636C7564696E672030206279742E
:10E650006573206F662070616464696E67000000F6
:10E660006D626564746C735F6369706865725F6125
:10E670007574685F656E6372797074006166746545
:10E680007220656E63727970743A2074616700005D
:10E690004E6F2050524E472070726F7669646564E9
:10E6A00020746F20656E63727970745F7265636F3A
:10E6B000726420726F7574696E65000005F1140153
:10E6C0006A681E9B289898478346BBF1000F01D0CB
:10E6D000584622E56A68B01A05F11401F1F756FDB3
:10E6E00009F101006968384BA269CDE90032CDE932
:10E6F00002104FF47473AFF2482203211B98F5F710
:10E700008DF90CA9A069CDE901610090334605F1AE
:10E71000140105F14C006A68F4F744FB5FEA000B52
:10E720000CD02AA040F2DB33AFF27C220121CDE9EC
:10E73000000B1B98F5F7AEF95846EEE4A0690C996A
:10E7400088420CD0AFF2941040F2E133AFF2A02235
:10E75000012100901B98F5F761F92248DDE4686813
:10E76000361A60696968401A6061A069696808447E
:10E77000A0610CE0AFF2C41040F22443AFF2D0220B
:10E78000012100901B98F5F749F91648C5E41A983D
:10E7900001280CD0AFF2E41040F22B43AFF2F0228C
:10E7A000012100901B98F5F739F90E48B5E40EA049
:10E7B00040F22F43AFF20832022100901B98F5F788
:10E7C0002DF90020A9E40000F8CA01086D62656413
:10E7D000746C735F6369706865725F63727970747B
:10E7E000000000000094FFFF3C3D20656E637279DD
:10E7F00070742062756600002DE9FE4304460E46E3
:10E800006FF06D0544F24D184AA040F244734DA2DA
:10E81000022100902046F5F701F9E06968B9206A05
:10E8200058B950A04FF4E96346A201210090204658
:10E83000F5F7F4F85A48BDE8FE83A16D206E401A42
:10E84000A8EB0000B0420AD256A040F24F733DA29E
:10E85000012100902046F5F7E1F85148EBE759A176
:10E86000E06F40F2E57337A2CDE901060091022185
:10E870002046F5F7D3F84FE0E06F371A2046FEF751
:10E880003FFE08B1564D18E0206A60B1D4F87C9084
:10E89000226E02EB09012268936C3A46D4E908C063
:10E8A000E047054609E0D4F87CC0226E02EB0C017B
:10E8B0003A46E369606A9847054642A1E06F40F234
:10E8C000FD7320A2CDE90106009102212046F5F753
:10E8D000A5F844A040F2FF731AA20221CDE9000579
:10E8E0002046F5F7D7F80DB94448A4E7002D01DA22
:10E8F0002846A0E7BD4200D80BE041A040F609033E
:10E9000010A201218DE8A1002046F5F787F84A48BA
:10E9100091E7E06F2844E067E06FB042ACD347A0D6
:10E9200040F6130307A2022100902046F5F776F87F
:10E93000002080E73D3E20666574636820696E7044
:10E94000757400002E2E5C4D626564746C735C6C93
:10E950006962726172795C73736C5F6D73672E6349
:10E9600000000000426164207573616765206F6676
:10E97000206D626564746C735F73736C5F73657430
:10E980005F62696F2829206F72206D626564746C04
:10E99000735F73736C5F7365745F62696F282900BE
:10E9A000008FFFFF72657175657374696E67206D06
:10E9B0006F72652064617461207468616E2066699D
:10E9C00074730000696E5F6C6566743A2025642C70
:10E9D000206E625F77616E743A202564000000004B
:10E9E0000098FFFF73736C2D3E665F726563762837
:10E9F0005F74696D656F757429000000808DFFFF7D
:10EA0000665F726563762072657475726E656420E8
:10EA1000256420627974657320627574206F6E6C52
:10EA20007920256C75207765726520726571756532
:10EA300073746564000000000094FFFF3C3D206695
:10EA40006574636820696E7075740000FEB50446D5
:10EA50006FF06D0541A04FF4026344A202210090C3
:10EA60002046F4F7DBFFA06950B948A040F6240324
:10EA70003EA2012100902046F4F7D0FF5248FEBD8F
:10EA8000D4F8AC0050B951A040F62C0337A20221B3
:10EA900000902046F4F7C2FF0020F0E745E0204652
:10EAA00000F0EEFCD4F8A81047184CA1D4F8AC0044
:10EAB00040F632032DA2CDE9001702900221204634
:10EAC000F4F7ACFFD4F8AC10D4F89400461A3146F1
:10EAD000A369D4F8AC20606A9847054648A040F680
:10EAE000380322A20221CDE900052046F4F7D2FF27
:10EAF000002D01DC2846C2E7D4F8AC00A84200D3C0
:10EB00000EE042A1D4F8AC0040F63F0317A2CDE9D5
:10EB10000015029001212046F4F780FF4948AEE736
:10EB2000D4F8AC00401BC4F8AC00D4F8AC0000280A
:10EB3000B5D1D4F88C000830C4F894002046216C7C
:10EB400001F00DFC21A040F6540308A20221009020
:10EB50002046F4F763FF002091E700003D3E206669
:10EB60006C757368206F7574707574002E2E5C4D13
:10EB7000626564746C735C6C6962726172795C73F7
:10EB8000736C5F6D73672E63000000004261642048
:10EB90007573616765206F66206D626564746C7360
:10EBA0005F73736C5F7365745F62696F2829206F90
:10EBB00072206D626564746C735F73736C5F7365F0
:10EBC000745F62696F282900008FFFFF3C3D20665B
:10EBD0006C757368206F7574707574006D657373F0
:10EBE000616765206C656E6774683A2025642C2027
:10EBF0006F75745F6C6566743A20256400000000D0
:10EC000073736C2D3E665F73656E6400665F73653B
:10EC10006E642072657475726E656420256420626E
:10EC20007974657320627574206F6E6C7920256C21
:10EC30007520627974657320776572652073656EDF
:10EC4000740000000094FFFF38B5044604B938BDD5
:10EC500035A041F62B2336A2022100902046F4F77E
:10EC6000DDFED4F88C0068B144F24D1554F88C0FD9
:10EC70002946FCF72BFB2068F3F7B0F9002044F895
:10EC80008C0900BFA06D58B144F24D152946A06D06
:10EC9000FCF71CFBA06DF3F7A1F90020A06500BFF5
:10ECA000606C28B1606C01F00DFB606CF3F796F9B5
:10ECB000A06B88B1204600F087FAA06C01F002FB3F
:10ECC000606B01F029FAA06BF3F788F9A06CF3F7F9
:10ECD00085F9606BF3F782F9206B28B1206B01F0A6
:10ECE0001BFA206BF3F77AF9D4F8BC0060B154F842
:10ECF000BC0FF1F77DFA054629462068FCF7E6FAD5
:10ED000054F8BC09F3F76AF911A041F67A2308A276
:10ED1000022100902046F4F781FEC4212046FCF732
:10ED2000D5FA00BF93E700003D3E2066726565009E
:10ED30002E2E5C4D626564746C735C6C69627261EA
:10ED400072795C73736C5F746C732E6300000000E7
:10ED50003C3D20667265650010B504462046FEF70E
:10ED60001FFC03460BB902A010BD5868FCE7000069
:10ED7000756E6B6E6F776E0001464FF48040704782
:10ED80003EB504466FF06D05606F162806D120462B
:10ED900000F032FE050001D028463EBD606F142809
:10EDA00021D1A06F01280CD03DA1A06F41F2A32377
:10EDB00043A2CDE9001001212046F4F72FFE484878
:10EDC000EBE7E06E007801280DD0E06E007845A1F9
:10EDD00041F2AA233AA2CDE9001001212046F4F71E
:10EDE0001DFE3F48D9E7606F152857D1A06F022854
:10EDF0000CD045A1A06F41F2C72331A2CDE900108C
:10EE000001212046F4F70AFE3548C6E7E06E407857
:10EE1000E16E097844A241F2CC23CDE900210290B1
:10EE200027A202212046F4F7F9FDE06E00780228BF
:10EE30000DD1E06E407845A141F2D42320A2CDE966
:10EE4000001001212046F4F7E9FD4948A5E7E06EEE
:10EE5000007801280DD1E06E407850B945A041F20C
:10EE6000DC2317A2022100902046F4F7D7FD484882
:10EE700093E7E06E007801280ED1E06E40786428B8
:10EE80000AD144A041F2E4230DA2022100902046C1
:10EE9000F4F7C4FD002080E747487EE700207CE7C8
:10EEA000696E76616C696420434353206D657373AA
:10EEB0006167652C206C656E3A20256400000000B7
:10EEC0002E2E5C4D626564746C735C6C6962726159
:10EED00072795C73736C5F6D73672E630000000062
:10EEE000008EFFFF696E76616C6964204343532096
:10EEF0006D6573736167652C20636F6E74656E74E6
:10EF00003A20253032780000696E76616C696420A1
:10EF1000616C657274206D6573736167652C206C1C
:10EF2000656E3A2025640000676F7420616E206171
:10EF30006C657274206D6573736167652C207479DC
:10EF400070653A205B25643A25645D006973206131
:10EF500020666174616C20616C657274206D6573EC
:10EF60007361676520286D736720256429000000A0
:10EF70008088FFFF6973206120636C6F7365206E6A
:10EF80006F74696679206D65737361676500000051
:10EF90008087FFFF697320612053534C7633206EC6
:10EFA0006F2072656E65676F74696174696F6E203A
:10EFB000616C6572740000008099FFFF38B50446EB
:10EFC00000250CB1206808B9104838BD10A041F2E6
:10EFD0003E6313A2022100902046F4F71FFD05E0D6
:10EFE000204600F009F9054605B102E060681028E6
:10EFF000F6D100BF12A041F2486309A2022100909D
:10F000002046F4F70BFD2846DFE70000008FFFFFE6
:10F010003D3E2068616E647368616B6500000000AE
:10F020002E2E5C4D626564746C735C6C69627261F7
:10F0300072795C73736C5F746C732E6300000000F4
:10F040003C3D2068616E647368616B650000000080
:10F050007CB5044600256068102801D0A06B08B973
:10F0600042487CBD42A1606841F2450345A2CDE91A
:10F07000001002212046F4F7D1FC2046FFF7E6FC01
:10F08000050001D02846ECE7606810285DD2DFE873
:10F0900000F0080B10151A1F24292E33383D424763
:10F0A0004C58012060605DE0204607F0ADF9054650
:10F0B00058E0204605F0E8FC054653E0204600F005
:10F0C00007FA05464EE0204606F0EAF9054649E013
:10F0D000204605F069F8054644E0204606F03EF972
:10F0E00005463FE0204601F0BBF905463AE02046E0
:10F0F00007F0A0FC054635E0204607F003F805467A
:10F1000030E0204601F0C4FA05462BE0204601F02D
:10F1100031FB054626E0204600F0CAFA054621E00C
:10F12000204600F07DFB05461CE01EA041F2B40322
:10F1300014A2022100902046F4F770FC0F206060BA
:10F1400010E0204600F070F80CE01AA1606841F26F
:10F15000BD030CA2CDE9001001212046F4F75EFCAE
:10F1600002487EE700BF28467BE70000008FFFFFD4
:10F17000636C69656E742073746174653A202564EC
:10F18000000000002E2E5C4D626564746C735C6C34
:10F190006962726172795C73736C5F636C692E6310
:10F1A0000000000068616E647368616B653A2064FA
:10F1B0006F6E6500696E76616C696420737461744A
:10F1C000652025640000000070B50546AC6B04B9ED
:10F1D00070BD04F11000FDF77CFD04F18000FEF726
:10F1E00059F804F10800FBF701FF4FF4F8712046CD
:10F1F000FCF76CF800BFEBE770B50446094D0CB1A5
:10F20000206810B90748803870BD206890F8500019
:10F2100000F0010018B92046FFF71AFF05462846FE
:10F22000F2E70000808FFFFF38B50446A06BD0F8EE
:10F23000E0511DA040F6EF4320A20321009020469C
:10F24000F4F7ECFB206B28B1206B00F065FF206B1E
:10F25000F2F7C4FE606B2063002060632068406AA0
:10F2600090B1206BC06878B175B92368216BD3E980
:10F270000920904740B119A040F612530FA2012176
:10F2800000902046F4F7CAFB204600F03FF8606883
:10F29000401C606018A040F6265308A2032100908D
:10F2A0002046F4F7BBFB38BD3D3E2068616E6473B9
:10F2B00068616B6520777261707570002E2E5C4DF1
:10F2C000626564746C735C6C6962726172795C73A0
:10F2D000736C5F746C732E6300000000636163687D
:10F2E0006520646964206E6F742073746F7265208A
:10F2F00073657373696F6E003C3D2068616E647363
:10F3000068616B65207772617075700038B504466E
:10F3100013A040F6D4431AA2032100902046F4F72C
:10F320007DFB2046FFF750FFA06BF2F757FE002051
:10F33000A063606C28B1606C00F0C4FF606CF2F7F1
:10F340004DFEA06C60640020A06415A040F6E84368
:10F350000BA2032100902046F4F760FB38BD0000AB
:10F360003D3E2068616E647368616B6520777261F1
:10F370007075703A2066696E616C20667265650012
:10F380002E2E5C4D626564746C735C6C6962726194
:10F3900072795C73736C5F746C732E630000000091
:10F3A0003C3D2068616E647368616B6520777261B3
:10F3B0007075703A2066696E616C206672656500D2
:10F3C0000146C81E062810D2DFE800F00305070931
:10F3D0000B0D012070470220FCE70320FAE7042010
:10F3E000F8E70520F6E70620F4E70020F2E710B57D
:10F3F0000446C4212046F0F7F0FE10BD00487047D7
:10F4000078BD010838B505460C46607A072804D156
:10F410000C48A96BC1F8580111E0607A072804D0A4
:10F420000948A96BC1F8580109E008A040F64B3320
:10F430000BA2012100902846F4F7F0FA38BD00BF76
:10F44000FCE70000A96001089160010873686F750E
:10F450006C64206E657665722068617070656E0000
:10F460002E2E5C4D626564746C735C6C69627261B3
:10F4700072795C73736C5F746C732E6300000000B0
:10F480000146D1F89420D1F89C00801A70470146BB
:10F49000886B28B1886B406810B1886B426801E0C6
:10F4A0000868826B0AB9002070471068FCE70146C3
:10F4B000886B28B1886B406810B1886B426801E0A6
:10F4C0000868826B0AB9002070475068FCE70000AA
:10F4D0002DE9FE4F06460025306890F85000C0F335
:10F4E000810800200290002449A040F6AB234EA2E0
:10F4F000022100903046F4F791FA4146304604F07C
:10F5000045FE0746012F09D14FA04FF42B6346A2B9
:10F51000022100903046F4F781FA6BE00121304679
:10F5200000F09EFC05000AD04EA040F6C2233EA289
:10F530000121CDE900053046F4F7ACFA5AE0706BD2
:10F5400004F090F94FF4AA710120F0F765FE04462B
:10F5500094B94FF4AA7049A140F6D92332A2CDE95B
:10F56000001001213046F4F759FA502202213046AA
:10F5700000F044FD474D3DE0204602F015F82146DD
:10F58000304604F0E7FC054605B133E0224641462B
:10F590003046029B04F0B2FF054605B12AE0D4F8DC
:10F5A0000C90D4F808B0C82050F804A0C42000592A
:10F5B0000190204601F008FC2046F2F70FFD0024E0
:10F5C0005A464946304606F0AFFC054605B111E003
:10F5D00051463046019A06F0FDFC054605B109E0AA
:10F5E0002DA040F61A3310A2022100903046F4F705
:10F5F00015FA00BF15B97068401C70602CB1204628
:10F6000001F0E2FB2046F2F7E9FC2846BDE8FE8F58
:10F610003D3E20706172736520636572746966692E
:10F6200063617465000000002E2E5C4D6265647499
:10F630006C735C6C6962726172795C73736C5F7419
:10F640006C732E63000000003C3D20736B697020DA
:10F650007061727365206365727469666963617451
:10F66000650000006D626564746C735F73736C5F3A
:10F67000726561645F7265636F726400616C6C6F68
:10F680006328256420627974657329206661696C3A
:10F69000656400000081FFFF3C3D2070617273656E
:10F6A00020636572746966696361746500000000B7
:10F6B0007CB504466FF06D0527A041F253332DA2AF
:10F6C000022100902046F4F7A9F90121204600F01C
:10F6D000C7FB05000BD02FA041F2573325A2012113
:10F6E000CDE900052046F4F7D5F928467CBD606FCA
:10F6F00014280FD02DA041F25D331EA201210090ED
:10F700002046F4F78BF90A220221204600F076FC0D
:10F710002E48EBE72EA041F26A3316A20321009097
:10F720002046F4F77BF9A06CE063606BA0620021D7
:10F73000E06D01604160204600F005FE6068401CFD
:10F74000606030A041F293330AA20221009020466B
:10F75000F4F764F90020C9E73D3E207061727365DB
:10F76000206368616E6765206369706865722073E5
:10F77000706563002E2E5C4D626564746C735C6C06
:10F780006962726172795C73736C5F6D73672E630B
:10F79000000000006D626564746C735F73736C5F6E
:10F7A000726561645F7265636F7264006261642098
:10F7B0006368616E67652063697068657220737045
:10F7C0006563206D65737361676500000089FFFFE5
:10F7D000737769746368696E6720746F206E6577EC
:10F7E000207472616E73666F726D20737065632032
:10F7F000666F7220696E626F756E642064617461F9
:10F80000000000003C3D20706172736520636861F8
:10F810006E67652063697068657220737065630048
:10F820002DE9F04F85B004466FF06D0652A040F60A
:10F83000AB5356A2022100902046F4F7EFF820685F
:10F8400090F8500000F0010080F00102A06B02A9C6
:10F85000D0F86031204698470121204600F000FB97
:10F8600006000DD051A040F6B15348A20121CDE9C8
:10F8700000062046F4F70EF9304605B0BDE8F08FDB
:10F88000606F16280FD04FA040F6B7533FA201215A
:10F8900000902046F4F7C2F80A220221204600F028
:10F8A000ADFB4E48E9E70C25E06E0078142806D140
:10F8B00000BF04202844D4F8801088420FD041A013
:10F8C00040F6C85331A2012100902046F4F7A6F873
:10F8D00032220221204600F091FB4148CDE700BFD3
:10F8E0000420E76EC11902AA2B460F4694464FF03A
:10F8F0000008CDF8048000200CE017F800801CF808
:10F90000009088EA090A9DF804B04AEA0B0ACDF88B
:10F9100004A0401C9842F0D39DF80480B8F1000F79
:10F920000FD028A040F6D15318A201210090204604
:10F93000F4F774F832220221204600F05FFB2848D9
:10F940009BE7A06BD0F8E00140B1206890F8500030
:10F9500000F0010028B90A20606002E06068401CE5
:10F96000606020A040F6EF5308A2022100902046DC
:10F97000F4F754F8002080E73D3E20706172736513
:10F980002066696E69736865640000002E2E5C4D08
:10F99000626564746C735C6C6962726172795C73C9
:10F9A000736C5F746C732E63000000006D6265649D
:10F9B000746C735F73736C5F726561645F726563AF
:10F9C0006F7264006261642066696E697368656461
:10F9D000206D657373616765000000000089FFFF9B
:10F9E0008081FFFF3C3D2070617273652066696E07
:10F9F00069736865640000007FB5044600BF042099
:10FA0000A16F88420DD91CA1A06F40F6AB3322A292
:10FA1000CDE9001001212046F4F700F8264804B093
:10FA200070BD00BF0425204604F080F82844C4F8C7
:10FA30008000E16E097821A3A26FD4F88000CDE99F
:10FA40000032CDE9021040F6B23313A20321204662
:10FA5000F3F7E4FFD4F88010A06F88420AD225A003
:10FA600040F6FC330CA2012100902046F3F7D6FFAC
:10FA70002B48D4E70020D2E768616E647368616B3D
:10FA800065206D65737361676520746F6F2073689F
:10FA90006F72743A202564002E2E5C4D626564748A
:10FAA0006C735C6C6962726172795C73736C5F6DAC
:10FAB00073672E6300000000008EFFFF68616E64B4
:10FAC0007368616B65206D6573736167653A206D5E
:10FAD00073676C656E203D2025642C2074797065F9
:10FAE000203D2025642C2068736C656E203D202508
:10FAF00064000000544C532068616E647368616B4D
:10FB00006520667261676D656E746174696F6E20E1
:10FB10006E6F7420737570706F727465640000008E
:10FB2000808FFFFF2DE9FC4104460F4690466FF0A1
:10FB30006D050CB1206810B97B48BDE8FC817BA045
:10FB400041F2BE437BA2022100902046F3F766FFFC
:10FB50006068102813D02046FFF730FA054615F5E7
:10FB6000D64F0CD05DB17BA041F2EB4371A20121D5
:10FB7000CDE900052046F3F78DFF2846DDE7ABE031
:10FB8000606D48B1616DE06C8847401C20B9206809
:10FB9000816C204600F0DCFA0121204600F060F97B
:10FBA000050010D015F5E54F01D10020C5E76FA085
:10FBB00041F2FF435FA20121CDE900052046F3F7A2
:10FBC00069FF2846B9E7A06FC8B9606F172816D13A
:10FBD0000121204600F044F9050010D015F5E54F4D
:10FBE00001D10020A9E761A041F20E5351A20121E9
:10FBF000CDE900052046F3F74DFF28469DE7606FED
:10FC0000162843D15FA041F215534AA2012100906A
:10FC10002046F3F703FF206890F8500000F0010041
:10FC200098B9E06E007828B900BF0420D4F880109D
:10FC300088420AD05AA041F222533EA201210090EC
:10FC40002046F3F7EBFE604877E760A041F263538C
:10FC500038A2032100902046F3F7E0FEE068012877
:10FC600008DB64220121204600F0C8F905000CD011
:10FC7000284662E75FA041F27F532EA20121009047
:10FC80002046F3F7CBFE604857E725E0606F152864
:10FC90000AD15EA041F2AA5326A20221009020467A
:10FCA000F3F7BCFE634848E7606F17280AD062A0EC
:10FCB00041F2B0531FA2012100902046F3F7AEFE9F
:10FCC00041483AE7E06E20676068102803D10021C0
:10FCD000204600F03DFA00BF206F00283FF450AFEF
:10FCE000A06F404501D9404600E0A06F064632466D
:10FCF0003846216FF0F74AFAA06F801BA067A06F0B
:10FD000020B900202067C4F8880002E0206F30444A
:10FD1000206751A04FF4AF5306A202210090204665
:10FD2000F3F77CFE304608E7008FFFFF3D3E207270
:10FD3000656164002E2E5C4D626564746C735C6C4E
:10FD40006962726172795C73736C5F6D73672E6345
:10FD5000000000006D626564746C735F73736C5FA8
:10FD600068616E647368616B650000006D62656454
:10FD7000746C735F73736C5F726561645F726563EB
:10FD80006F72640072656365697665642068616E90
:10FD9000647368616B65206D6573736167650000EE
:10FDA00068616E647368616B65207265636569760E
:10FDB000656420286E6F742048656C6C6F526571A5
:10FDC00075657374290000000089FFFF7265667510
:10FDD00073696E672072656E65676F7469617469B7
:10FDE0006F6E2C2073656E64696E6720616C65723E
:10FDF0007400000073686F756C64206E65766572C0
:10FE00002068617070656E000094FFFF69676E6F17
:10FE100072696E67206E6F6E2D666174616C206E04
:10FE20006F6E2D636C6F7375726520616C65727493
:10FE3000000000000097FFFF626164206170706C39
:10FE400069636174696F6E2064617461206D6573AC
:10FE500073616765000000003C3D207265616400CD
:10FE60007CB505460E466FF06D0433A040F6267350
:10FE700035A2022100902846F3F7D0FDD5F888007E
:10FE8000002841D100BF284603F07EFD04460CB196
:10FE900020467CBD284606F040F8A0B9284603F06D
:10FEA00051FE044614F5CB4F00D111E05CB12EA0F9
:10FEB00040F6477324A20121CDE900042846F3F758
:10FEC000E9FD2046E5E72846FEF75AFF044600BF55
:10FED00014F5CD4FD7D014F5CB4FD4D05CB127A0BB
:10FEE0004FF4766318A20121CDE900042846F3F708
:10FEF000D1FD2046CDE7686F162811D1012E0FD114
:10FF0000284600F010FA0BE024A040F66C730EA215
:10FF1000022100902846F3F781FD0020C5F88800F3
:10FF200026A04FF4776308A2022100902846F3F739
:10FF300075FD0020ADE700003D3E20726561642044
:10FF40007265636F726400002E2E5C4D626564748E
:10FF50006C735C6C6962726172795C73736C5F6DF7
:10FF600073672E630000000073736C5F6765745FD6
:10FF70006E6578745F7265636F7264006D6265644C
:10FF8000746C735F73736C5F68616E646C655F6DD6
:10FF90006573736167655F74797065007265757309
:10FFA000652070726576696F75736C792072656112
:10FFB00064206D6573736167650000003C3D2072CD
:10FFC000656164207265636F7264000010B51C780F
:10FFD00004605C780C6010BD10B50446D4F88C0049
:10FFE0000830C4F89400A06D083020660021204637
:10FFF00000F0B5F9204600F0A6F910BDFEB50446A4
:020000040801F1
:100000000D4616466FF06D070CB1206808B91E4802
:10001000FEBD1EA041F2263322A2022100902046FE
:10002000F3F7FCFC27A041F227331EA203218DE841
:1000300061002046F3F7F2FC1520A0346060022036
:10004000A0602068057054F8A00946700121204680
:1000500000F022FD07000BD022A041F2303311A2A4
:100060000121CDE900072046F3F714FD3846CFE71C
:1000700023A041F233330BA2022100902046F3F774
:10008000CDFC0020C4E70000008FFFFF3D3E207341
:10009000656E6420616C657274206D657373616751
:1000A000650000002E2E5C4D626564746C735C6CA0
:1000B0006962726172795C73736C5F6D73672E63D2
:1000C0000000000073656E6420616C657274206CC2
:1000D0006576656C3D2575206D6573736167653D5B
:1000E000257500006D626564746C735F73736C5F7B
:1000F00077726974655F7265636F726400000000F7
:100100003C3D2073656E6420616C657274206D6582
:10011000737361676500000010B5044604B910BD33
:10012000204603F09FFB70212046FBF7CFF800BF6D
:10013000F5E710B5044670212046F0F74EF810BDE3
:1001400010B5029C41628261C361046210BD00006F
:100150007CB504460D46206D00B97CBD07A04C233C
:100160000BA20321CDE900052046F3F757FCA908AF
:100170002A46D4E91303984700BFEEE77365745F1E
:1001800074696D657220746F202564206D730000A2
:100190002E2E5C4D626564746C735C6C6962726176
:1001A00072795C73736C5F6D73672E63000000007F
:1001B0002DE9FC4104460D466FF06D0844F24D16E2
:1001C000374625600020C4F88C0031460120F0F746
:1001D00023F8A065A06D60B924A040F60A7329A297
:1001E0000121CDE900062046F3F718FCDFF8B480C2
:1001F00022E039460120F0F70FF8C4F88C00D4F85B
:100200008C0060B919A040F615731EA20121CDE93A
:1002100000072046F3F702FCDFF888800CE0204658
:10022000FFF7DAFE204603F007FD5FEA000800D082
:1002300002E00020BDE8FC8154F8580FF1F7CEFE33
:10024000606BF1F7CBFE002044F8580C206060632F
:10025000A0606060E06020616061E063A063206492
:100260006064A064583C4046E4E70000616C6C6F39
:100270006328256420627974657329206661696C3E
:10028000656400002E2E5C4D626564746C735C6C5A
:100290006962726172795C73736C5F746C732E63E4
:1002A000000000000081FFFF10B504460121204638
:1002B000FAF74BFE08B1012010BD0020FCE70170E9
:1002C0004170704710B5044604B910BD04F14C00EC
:1002D000F2F752FE04F18C00F2F74EFE04F1340006
:1002E000F8F782FE04F14000F8F77EFED0212046A8
:1002F000FAF7ECFF00BFE8E710B50446D02120462E
:10030000EFF76BFF04F14C00F2F788FE04F18C006C
:10031000F2F784FE04F13400F8F7A8FF04F140007E
:10032000F8F7A4FF10BD70B50446A56B60681028EF
:1003300008D03DB1D4F88020E16EA06BD0F85831E0
:100340002046984770BD016E0839C165016EC91C11
:100350004166016E491D8166816EC166704770B548
:1003600004460D4690346068083820606068C01C00
:10037000A0606068401DE060E0682061903C3DB195
:10038000284605F07AFED4F8A0100844C4F8A0006E
:1003900070BD00002DE9FC4104460E4617466FF083
:1003A0006D051AA041F25C631BA202210090204659
:1003B000F3F734FB0CB1206810B91F48BDE8FC818D
:1003C0006068102810D02046FEF7F8FD05000BD01D
:1003D0001AA041F26D6310A20121CDE9000520466B
:1003E000F3F758FB2846E9E73A463146204606F03F
:1003F000A1FC054617A041F2786307A202210090F4
:100400002046F3F70BFB2846D8E700003D3E207757
:1004100072697465000000002E2E5C4D6265647484
:100420006C735C6C6962726172795C73736C5F6D22
:1004300073672E6300000000008FFFFF6D6265642C
:10044000746C735F73736C5F68616E647368616B07
:10045000650000003C3D2077726974650000000073
:100460002DE9FE4F0446DFF86481A06BD0F8689157
:1004700057A040F62D035CA2022100902046F3F71E
:10048000CDFA4846FDF79CF870B95FA040F63103FD
:1004900055A2022100902046F3F7C0FA6068401C84
:1004A00060600020BDE8FE8F206890F8500000F0EA
:1004B000010080B9D4F8B80068B953A040F63B03F6
:1004C00049A2022100902046F3F7A8FA6068401C78
:1004D00060600020E6E72046FEF7D9FF824651A083
:1004E00040F65E0340A20321CDE9000A2046F3F75F
:1004F0005DF907252046FEF7CAFF07462EE0BE68D5
:1005000043F6FD70401BB04210D24FF48041E81C0E
:10051000304448A240F67103CDE90020029132A296
:1005200001212046F3F77AFA4A48BBE7C6F30740B1
:1005300054F8A01F4855C6F30721681C22681154BF
:10054000A81C22681654ED1CF96854F8A02950190B
:100550003246EFF71BFE3544D7F85071002FCED14D
:10056000E81F000C54F8A01F0871E81F000A21685A
:100570004871E81F21688871A560162060600B2013
:100580002168087054F89C0C401C44F89C0CA03C5A
:10059000204600F0A7F95FEA00080BD02EA040F635
:1005A0008E0311A20121CDE900082046F3F772FA6B
:1005B000404677E730A040F692030BA2022100905C
:1005C0002046F3F72BFA40466CE70000808FFFFFD0
:1005D0003D3E20777269746520636572746966694F
:1005E00063617465000000002E2E5C4D62656474CA
:1005F0006C735C6C6962726172795C73736C5F744A
:100600006C732E63000000003C3D20736B6970200A
:100610007772697465206365727469666963617471
:10062000650000006F776E206365727469666963A8
:1006300061746500636572746966696361746520DD
:10064000746F6F206C617267652C202564203E20DA
:1006500025640000008BFFFF6D626564746C735F3E
:1006600073736C5F77726974655F68616E647368D9
:10067000616B655F6D7367003C3D207772697465DF
:1006800020636572746966696361746500000000C7
:100690007CB504466FF06D0518A041F23C331EA2F4
:1006A000022100902046F3F7B9F91420C4F8A40001
:1006B0000120C4F8A800D4F8A01008706068401C9D
:1006C0006060204600F00EF905000BD01AA041F240
:1006D000463311A20121CDE900052046F3F7DAF9EE
:1006E00028467CBD1CA041F24A330BA20221009097
:1006F0002046F3F793F90020F3E700003D3E207712
:1007000072697465206368616E67652063697068EB
:1007100065722073706563002E2E5C4D6265647493
:100720006C735C6C6962726172795C73736C5F6D1F
:1007300073672E63000000006D626564746C735F04
:1007400073736C5F77726974655F68616E647368F8
:10075000616B655F6D7367003C3D207772697465FE
:10076000206368616E6765206369706865722073D5
:10077000706563007CB5044633A040F62D5337A264
:10078000022100902046F3F749F92046A16CFFF7BB
:10079000E6FD206890F8500000F00102D4F8A000B7
:1007A000011DA06BD0F8603120469847E06808B979
:1007B000242000E00C200646301D38342067162027
:1007C000E0661420A16E087054F83809D0F8E001F2
:1007D00040B1206890F8500000F0010028B90F20C7
:1007E000606002E06068401C606024A040F65A53DC
:1007F0001AA2032100902046F3F710F904F18000BB
:10080000002101634163A06C2064606BE0622046BC
:1008100000F068F805000BD025A040F68D530FA21C
:100820000121CDE900052046F3F734F928467CBDC7
:1008300027A040F69A5309A2022100902046F3F720
:10084000EDF80020F3E700003D3E20777269746503
:100850002066696E69736865640000002E2E5C4D29
:10086000626564746C735C6C6962726172795C73EA
:10087000736C5F746C732E6300000000737769748F
:100880006368696E6720746F206E6577207472618B
:100890006E73666F726D207370656320666F722071
:1008A0006F7574626F756E6420646174610000001E
:1008B0006D626564746C735F73736C5F7772697477
:1008C000655F68616E647368616B655F6D73670017
:1008D0003C3D2077726974652066696E697368654E
:1008E00064000000FEB504466FF06D06D4F8A80061
:1008F000051FD4F8A00007783CA040F6D41342A20C
:10090000022100902046F3F789F8D4F8A4001628B5
:100910000ED0D4F8A40014280AD043A040F6E31364
:1009200039A2012100902046F3F778F84348FEBD34
:10093000D4F8A400162800D167B1A06B50B93AA032
:1009400040F6EE1330A2012100902046F3F766F83E
:100950003A48ECE7D4F8A800B0F5804F10D94FF42E
:10096000804137A2D4F8A80040F60623CDE9002044
:10097000029125A201212046F3F750F82F48D6E72F
:10098000D4F8A400162813D1280C54F8A01F4870DE
:10099000280A2168887054F8A019CD7047B1D4F89E
:1009A000A820D4F8A010A06BD0F858312046984762
:1009B0000121204600F070F806000BD02AA040F676
:1009C000572311A20121CDE900062046F3F762F872
:1009D0003046ACE729A040F65C230BA20221009030
:1009E0002046F3F71BF80020A1E700003D3E2077EA
:1009F000726974652068616E647368616B65206DEF
:100A000065737361676500002E2E5C4D62656474CA
:100A10006C735C6C6962726172795C73736C5F6D2C
:100A200073672E630000000073686F756C64206E3E
:100A3000657665722068617070656E000094FFFFD6
:100A40005265636F726420746F6F206C61726765AA
:100A50003A2073697A652025752C206D6178696D5F
:100A6000756D20257500000073736C5F7772697473
:100A7000655F7265636F7264000000003C3D207723
:100A8000726974652068616E647368616B65206D5E
:100A900065737361676500002DE9F04F8BB0044604
:100AA00089464FF0000BD4F8A870CDF8289083A0A9
:100AB00040F6732385A2022100902046F2F7AEFF94
:100AC000BBF1000F70D144F24D1AD4F894C00CF170
:100AD0000103D4F800C09CF850C0CCF34002D4E924
:100AE000020100F06DF9D4F89010D4F8B0200A603B
:100AF000D4F8B4004860380AD4F898100870D4F8D4
:100B000098104F70206C00285FD0D4F89C0006909D
:100B1000D4F88C10D4F89C00401AAAEB000007907F
:100B2000D4F8A8000990D4F8A0000699401A0890BB
:100B3000D4F890000168039140680490236893F80A
:100B40005030C3F340020DF11503D4E9020100F067
:100B500037F994F8A4008DF814002068C06900905B
:100B60002068836903AA2046216CFDF7BBFA0600C2
:100B70000DD05EA040F6BC2354A20121CDE90006B1
:100B80002046F2F787FF30460BB0BDE8F08F08989B
:100B900058B15AA040F6C2234CA201210090204631
:100BA000F2F73CFF5A48EFE768E09DF814009834EC
:100BB000E0600998074620610998000A21680870DA
:100BC000099854F89819487000BF2046FEF758FC61
:100BD00000EB07089434207C216808702068807836
:100BE0002168497854F894291278CDE90307CDE9B2
:100BF000012148A040F6E62334A2032100902046BC
:100C0000F2F70CFF52A1D4F8940040F6EB232FA288
:100C1000CDE90108009104212046F2F713FD40348C
:100C2000E06E4044E066606D4044606554F84019F1
:100C30002046FFF794FB08250AE0681E04F1B00186
:100C4000085C401CC2B2681E0A5402B104E06D1E6A
:100C500000BF0020A842F0D300BF00BF0020A84280
:100C60000BD143A040F6F92318A2012100902046A1
:100C7000F2F7D4FE2648803086E700BF0A980128A4
:100C800010D12046FDF7E2FE06000BD041A040F651
:100C90001A330EA20121CDE900062046F2F7FAFE32
:100CA000304671E742A040F61E3308A202210090B0
:100CB0002046F2F7B3FE002066E700003D3E2077B5
:100CC00072697465207265636F7264002E2E5C4DCC
:100CD000626564746C735C6C6962726172795C7376
:100CE000736C5F6D73672E630000000073736C5F3D
:100CF000656E63727970745F6275660073686F7594
:100D00006C64206E657665722068617070656E0037
:100D10000094FFFF6F7574707574207265636F7255
:100D2000643A206D736774797065203D2025642CCA
:100D30002076657273696F6E203D205B25643A25CD
:100D4000645D2C206D73676C656E203D202564000A
:100D50006F7574707574207265636F72642073654B
:100D60006E7420746F206E6574776F726B00000074
:100D70006F7574676F696E67206D65737361676502
:100D800020636F756E74657220776F756C64207761
:100D9000726170006D626564746C735F73736C5F15
:100DA000666C7573685F6F75747075740000000011
:100DB0003C3D207772697465207265636F726400D0
:100DC00010B51870597010BD2DE9F04707463C4624
:100DD0000FB9BDE8F08700BF04F1CC00FAF706F9BF
:100DE000A66E08E0B246B66920215046FAF76EFAC0
:100DF0005046F1F7F3F8002EF4D18820065908E0A8
:100E0000B246B66920215046FAF760FA5046F1F72B
:100E1000E5F8002EF4D14FF49A70055908E0A94680
:100E2000ED6810214846FAF751FA4846F1F7D6F82E
:100E3000002DF4D14FF48270055908E0A946ED6801
:100E400010214846FAF742FA4846F1F7C7F8002D54
:100E5000F4D14FF48A70055908E0A946ED681021D5
:100E60004846FAF733FA4846F1F7B8F8002DF4D1BE
:100E7000E06840B1206830B1D4E90210FAF726FAF0
:100E8000E068F1F7ABF8D4F85041002CA4D13C460F
:100E900000BFA046D4F850414FF4AA714046FAF77B
:100EA00015FAB84502D04046F1F798F8002CF0D179
:100EB00000BF8EE72DE9F0438DB007460E46904601
:100EC0001D466FF06D040B970C96CDB9F8A2DDE9C5
:100ED0000B01F0F74FF8044600BF002C02DB0C9822
:100EE000844203D3FA480DB0BDE8F0830C98001B90
:100EF0000C900B9820440B9000BF0C98301AF2E72E
:100F0000E8694346F3A20090DDE90B01F0F732F8FF
:100F1000044600BF002C02DB0C98844201D3EC484D
:100F2000E1E70C98001B0C900B9820440B9000BF3D
:100F30004346EFA2DDE90B01F0F71CF8044600BFC1
:100F4000002C02DB0C98844201D3E148CBE70C98DB
:100F5000001B0C900B9820440B9000BF05F1200261
:100F6000DDE90B0100F0D4FD044600BF002C02DBDC
:100F70000C98844201D3D648B5E70C98001B0C901E
:100F80000B9820440B9000BF4346DFA2DDE90B0124
:100F9000EFF7F0FF044600BF002C02DB0C98844200
:100FA00001D3CB489FE70C98001B0C900B98204472
:100FB0000B9000BF05F15002DDE90B0100F070FB62
:100FC000044600BF002C02DB0C98844201D3C048C9
:100FD00089E70C98001B0C900B9820440B9000BFE5
:100FE0004346CFA2DDE90B01EFF7C4FF044600BF83
:100FF000002C02DB0C98844201D3B54873E70C98AF
:10100000001B0C900B9820440B9000BF05F1700260
:10101000DDE90B0100F044FB044600BF002C02DBBD
:101020000C98844201D3AA485DE70C98001B0C90F1
:101030000B9820440B9000BFA4204059A02149598F
:101040009C22525998235B59CDE90232CDE9041014
:1010500094204059D5F890104346B7A2CDE900102E
:10106000DDE90B01EFF786FF044600BF002C02DB31
:101070000C98844201D3964835E70C98001B0C90DD
:101080000B9820440B9000BFBC204059B82149590F
:10109000B4225259B0235B59CDE90232CDE9041094
:1010A000AC204059D5F8A8104346B1A2CDE90010B4
:1010B000DDE90B01EFF75EFF044600BF002C02DB09
:1010C0000C98844201D382480DE70C98001B0C90C9
:1010D0000B9820440B9000BF4346B3A2DDE90B01FF
:1010E000EFF748FF044600BF002C02DB0C98844257
:1010F00001D37748F7E60C98001B0C900B9820441E
:101100000B9000BF95F84811D5F84C01CDE90010BF
:1011100095F8493105F12C02DDE90B0100F056FD8F
:10112000044600BF002C02DB0C98844201D36848BF
:10113000D9E60C98001B0C900B9820440B9000BF34
:1011400005F1CC00F9F76EFF81464A46122106A848
:1011500000F082FC040001D02046C4E605F1CC007A
:10116000F9F754FF814606A8434695A2CDE9000948
:10117000DDE90B01EFF7FEFE044600BF002C02DBA9
:101180000C98844201D35248ADE60C98001B0C9099
:101190000B9820440B9000BFB5F8180100F4807044
:1011A00088B3D5F81C0108B18AA000E08BA04346A3
:1011B0008CA20090DDE90B01EFF7DCFE044600BFD6
:1011C000002C02DB0C98844201D341488BE60C983A
:1011D000001B0C900B9820440B9000BFD5F8200109
:1011E000002818DDD5F82001431E86A2DDE90B0199
:1011F000EFF7C0FE044600BF002C02DB0C988442CF
:1012000002D333486FE606E00C98001B0C900B9855
:1012100020440B9000BF95F8180100F0200000B3A7
:1012200043467DA2DDE90B01EFF7A4FE044600BFB3
:10123000002C02DB0C98844201D3254853E60C981D
:10124000001B0C900B9820440B9000BF434605F107
:10125000F8020CA90BA807F01DFC040001D02046E1
:1012600041E6D5F8180100F48030F8B1434670A289
:10127000DDE90B01EFF77EFE044600BF002C02DB28
:101280000C98844201D312482DE60C98001B0C9058
:101290000B9820440B9000BF95F838210CA90BA89F
:1012A00007F084F9040001D020461CE6CCE00000E1
:1012B0000A436572746966696361746520697320A5
:1012C000756E696E697469616C69736564210A0081
:1012D00080D6FFFF2573636572742E207665727366
:1012E000696F6E20202020203A2025640A0000002B
:1012F000257373657269616C206E756D626572200D
:10130000202020203A2000000A2573697373756538
:1013100072206E616D65202020202020203A200060
:101320000A25737375626A656374206E616D65204A
:1013300020202020203A20000A25736973737565E8
:101340006420206F6E20202020202020203A20259D
:101350003034642D253032642D2530326420253020
:1013600032643A253032643A25303264000000009D
:101370000A257365787069726573206F6E2020206E
:1013800020202020203A20253034642D253032645E
:101390002D2530326420253032643A253032643ACB
:1013A00025303264000000000A25737369676E659A
:1013B00064207573696E672020202020203A200069
:1013C0000A2573252D3138733A202564206269740B
:1013D00073000000747275650000000066616C7334
:1013E000650000000A2573626173696320636F6E94
:1013F00073747261696E7473203A2043413D2573A2
:10140000000000002C206D61785F706174686C656D
:101410006E3D2564000000000A25737375626A65DD
:10142000637420616C74206E616D6520203A000049
:101430000A2573636572742E2074797065202020EC
:1014400020202020203A200095F8180100F0040008
:10145000F8B1434640A2DDE90B01EFF78BFD0446EE
:1014600000BF002C02DB0C98844201D340483AE5CF
:101470000C98001B0C900B9820440B9000BF0CA9FB
:101480000BA8D5F8242107F0D7F9040001D0204695
:1014900029E5B5F8180100F40060F8B1434635A21B
:1014A000DDE90B01EFF766FD044600BF002C02DB0F
:1014B0000C98844201D32E4815E50C98001B0C9023
:1014C0000B9820440B9000BF05F594720CA90BA853
:1014D00007F070F9040001D0204604E595F81801E2
:1014E00000F00800F8B1434628A2DDE90B01EFF750
:1014F00041FD044600BF002C02DB0C98844201D35E
:101500001B48F0E40C98001B0C900B9820440B90A7
:1015100000BF05F584720CA90BA807F005F80400BC
:1015200001D02046DFE4AFF23C22DDE90B01EFF70A
:1015300021FD044600BF002C02DB0C98844201D33D
:101540000B48D0E40C98001B0C900B9820440B9097
:1015500000BF0C98301AC6E40A25736B65792075B4
:10156000736167652020202020202020203A200061
:1015700080D6FFFF0A2573657874206B6579207526
:101580007361676520202020203A20000A257363BC
:101590006572746966696361746520706F6C6963F4
:1015A000696573203A20000010B504464FF4AA7113
:1015B0002046EEF712FE10BD2DE9FF4F83B0064620
:1015C0000F469146DDE910AB6FF06D0834460025FB
:1015D00004B11FB91F4807B0BDE8F08F02E02546EF
:1015E000D4F85041E06918B1D4F850010028F6D180
:1015F000E069B0B1D4F8500198B94FF4AA71012054
:10160000EEF70AFEC4F85001D4F8500110B91148A1
:101610008038E0E72546D4F85001FFF7C5FFD4F83D
:101620005041CDE900AB4A4639462046069B05F0BD
:1016300055FF8046B8F1000F0AD015B10020C5F85B
:101640005001B44202D02046F0F7C8FC4046C2E741
:101650000020C0E700D8FFFF7CB504460D461646C3
:101660000020009003463246294601902046FFF7AD
:10167000A3FF7CBD2DE9FF4F87B005460E461C46F3
:1016800014AF97E8800F002003468DE8910F314694
:101690002846099A06F0B8F90BB0BDE8F08F0000B3
:1016A0002DE9F74FC2B08A4693466FF06D040020D3
:1016B000419040904FF480716846EEF78EFD5D4694
:1016C000DDF8089156466BE0A86808B9AD6967E097
:1016D0005D4516D0419808B134A000E034A0024620
:1016E00031464846EFF746FC044600BF002C01DBBC
:1016F000B44203D32F4845B0BDE8F08F361BA14458
:1017000000BF40A92846F9F734FB04463CB92AA299
:1017100031464846409BEFF72DFC044605E027A2E2
:1017200031464846EFF726FC044600BF002C01DB9B
:10173000B44201D31F48DEE7361BA14400BF002797
:1017400012E0FF2F00D312E0686910F80780B8F1AB
:10175000200F02DBB8F17F0F03DB3F200DF80700FD
:1017600001E00DF807807F1C2869B842E9D800BF66
:1017700000200DF807006B4611A231464846EFF7EE
:10178000F9FB044600BF002C01DBB44201D3094839
:10179000B1E7361BA14400BF287F4190AD6900BF6F
:1017A000002D91D1AAEB0600A5E70000202B200018
:1017B0002C20000080D6FFFF25733D003F3F3D00F9
:1017C000257300002DE9F04104460D4616461F46DC
:1017D0006FF06D083B46324629462046F1F788F8FF
:1017E0005FEA000803D0A8F50C50BDE8F0810020A6
:1017F000FBE700002DE9F8430546884614461E46DF
:101800006FF06D0746F0A003221D41462846F1F710
:10181000E7F907461FB1A7F51450BDE8F88346F075
:10182000A00020602868A0602868616800EB0108BB
:1018300030236A4641462846F1F7D2F9070002D024
:10184000A7F51450E9E7286800990844404501D0FD
:101850000148E2E70020E0E79ADAFFFF2DE9F843CC
:1018600005460F4614466FF06D083AE031236A468C
:1018700039462846F1F7B4F95FEA000803D0A8F525
:101880000E50BDE8F88328680099461818E02246F3
:101890003146284606F092F95FEA000801D040463A
:1018A000EFE72868B04200D10BE00120207720212B
:1018B000EEF7B2FCA061A06908B90A48E1E7A469A3
:1018C000E5E700BF2868B84201D10020D9E7202110
:1018D0000120EEF7A1FCA061A06908B90148D0E79A
:1018E000A469C3E780D7FFFF2DE9F04104460E4607
:1018F00015466FF06D072068301A012802DA124889
:10190000BDE8F08120680078822806D02068007841
:10191000022802D00C48801EF2E72168481C206093
:10192000087828602A1D31462046F1F7BCF80700E8
:1019300002D0A7F50A50E3E72068A860206869682C
:10194000084420600020DBE720DDFFFF2DE9F8439D
:1019500004460E4615466FF06D082068301A0128BF
:1019600002DA0D48BDE8F883206807786A463146F8
:101970002046F1F748F85FEA000802D0A8F51250B7
:10198000F0E72F60009868602068A86020680099E0
:10199000084420600020E5E720DBFFFF2DE9F04749
:1019A00007460C4615461E46DDF820806FF06D098F
:1019B000D8F8000010B10C48BDE8F087324629463F
:1019C0003846F9F790FA5FEA000902D0A9F51850F5
:1019D000F2E72068052801D0206808B9606808B1DE
:1019E0000248E9E70020E7E700D8FFFF00DDFFFF3E
:1019F0002DE9F84304460F4690466FF06D092068C4
:101A0000381A012802DA1348BDE8F88320680678FE
:101A1000172E01D1022506E0182E01D1042502E07F
:101A20000C48801EF0E72068401C20606A4639465A
:101A30002046F1F738F88146B9F1000F02D0A9F538
:101A40001050E1E743462A462046009907F014FA71
:101A5000DAE70000A0DBFFFF2DE9F04706460F465E
:101A60009046B1463D466FF06D04434609A22946B3
:101A70004846EFF77FFA044600BF002C01DBAC427A
:101A800002D30748BDE8F0872D1BA14400BF00200A
:101A9000F8E700002573206B65792073697A65008B
:101AA00080D6FFFF70B58AB005460C466FF06D0614
:101AB000287800F0DF00802802D0822820D114E0AE
:101AC00001A9284606F0ACFB064616B130460AB01E
:101AD00070BD28212046EEF780FB002020602422E4
:101AE00001A9201DEEF752FB0CE028212046EEF75D
:101AF00074FB0220206095E80700231D07C301E066
:101B00000248E4E700BF0020E1E7000080DFFFFFBC
:101B10002DE9F84F8346894616466FF06D04DA4684
:101B20004F467068202801D8706800E01C2080466D
:101B3000002524E035B9B8F1010F03D9B068405D44
:101B400000B91BE0A8F10100A84201D918A000E0EB
:101B500018A00090B068435D17A239465046EFF7D1
:101B600009FA044600BF002C01DBBC4202D3144832
:101B7000BDE8F88F3F1BA24400BF00BF6D1C454568
:101B8000D8D3706840450FD00EA239465046EFF7C3
:101B9000F1F9044600BF002C01DBBC4201D3084828
:101BA000E6E73F1BA24400BFA9EB0700E0E7000007
:101BB0003A00000000000000253032582573000074
:101BC00080D6FFFF2E2E2E2E000000002DE9F84FAC
:101BD00007460E469046DDE90AAB6FF06D04B94644
:101BE00035460020009069464046F9F790F90446D2
:101BF00034B10DA229464846EFF7BCF9044606E089
