Component: ARM Compiler 5.05 update 1 (build 106) Tool: armlink [4d0efa]

==============================================================================

Section Cross References

    main.o(.text) refers to flash_helper.o(.text) for FlashHelperUpdate
    main.o(.text) refers to system.o(.text) for NVIC_Configuration
    main.o(.text) refers to usart.o(.text) for uart_init
    main.o(.text) refers to gpio.o(.text) for GpioInit
    main.o(.text) refers to delay.o(.text) for DelayInit
    main.o(.text) refers to printf1.o(i.__0printf$1) for __2printf
    main.o(.text) refers to flash_helper.o(.bss) for flash_helper_struct
    system.o(.text) refers to misc.o(.text) for NVIC_PriorityGroupConfig
    delay.o(.text) refers to misc.o(.text) for SysTick_CLKSourceConfig
    delay.o(.text) refers to system_stm32f10x.o(.data) for SystemCoreClock
    delay.o(.text) refers to delay.o(.data) for fac_us
    usart.o(.text) refers to looplist.o(.text) for rbCreate
    usart.o(.text) refers to buffermanage.o(.text) for BufferManageCreate
    usart.o(.text) refers to stm32f10x_rcc.o(.text) for RCC_APB1PeriphClockCmd
    usart.o(.text) refers to stm32f10x_gpio.o(.text) for GPIO_Init
    usart.o(.text) refers to stm32f10x_usart.o(.text) for USART_Init
    usart.o(.text) refers to usart.o(.bss) for Usart1SendBuff
    usart.o(.text) refers to usart.o(.data) for Usart2SendData
==============================================================================

Removing Unused input sections from the image.

    Removing iwdg.o(.text), (44 bytes).
    Removing core_cm3.o(.emb_text), (32 bytes).
    Removing stm32f10x_iwdg.o(.text), (64 bytes).
    Removing stm32f10x_pwr.o(.text), (204 bytes).
    Removing stm32f10x_bkp.o(.text), (196 bytes).
    Removing startup_stm32f10x_hd.o(HEAP), (512 bytes).
    Removing dadd.o(.text), (334 bytes).
    Removing dmul.o(.text), (228 bytes).
    Removing ddiv.o(.text), (222 bytes).
    Removing dfixul.o(.text), (48 bytes).
    Removing cdrcmple.o(.text), (48 bytes).
    Removing depilogue.o(.text), (186 bytes).

12 unused section(s) (total 2118 bytes) removed from the image.

==============================================================================

Image Symbol Table

    Local Symbols

    Symbol Name                              Value     Ov Type        Size  Object(Section)

    ../clib/microlib/division.c              0x00000000   Number         0  uidiv.o ABSOLUTE
    ../clib/microlib/division.c              0x00000000   Number         0  uldiv.o ABSOLUTE
    ../clib/microlib/init/entry.s            0x00000000   Number         0  entry5.o ABSOLUTE
    ../clib/microlib/init/entry.s            0x00000000   Number         0  entry7b.o ABSOLUTE
    ../clib/microlib/init/entry.s            0x00000000   Number         0  entry11b.o ABSOLUTE
    ../clib/microlib/init/entry.s            0x00000000   Number         0  entry11a.o ABSOLUTE
    ../clib/microlib/init/entry.s            0x00000000   Number         0  entry10b.o ABSOLUTE
    ../clib/microlib/init/entry.s            0x00000000   Number         0  entry7a.o ABSOLUTE
    ../clib/microlib/init/entry.s            0x00000000   Number         0  entry.o ABSOLUTE
    ../clib/microlib/init/entry.s            0x00000000   Number         0  entry10a.o ABSOLUTE
    ../clib/microlib/init/entry.s            0x00000000   Number         0  entry8b.o ABSOLUTE
    ../clib/microlib/init/entry.s            0x00000000   Number         0  entry9b.o ABSOLUTE
    ../clib/microlib/init/entry.s            0x00000000   Number         0  entry9a.o ABSOLUTE
    ../clib/microlib/init/entry.s            0x00000000   Number         0  entry8a.o ABSOLUTE
    ../clib/microlib/init/entry.s            0x00000000   Number         0  entry2.o ABSOLUTE
    ../clib/microlib/longlong.c              0x00000000   Number         0  llsshr.o ABSOLUTE
    ../clib/microlib/longlong.c              0x00000000   Number         0  llushr.o ABSOLUTE
    ../clib/microlib/longlong.c              0x00000000   Number         0  llshl.o ABSOLUTE
    ../clib/microlib/printf/printf.c         0x00000000   Number         0  printf3.o ABSOLUTE
    ../clib/microlib/printf/printf.c         0x00000000   Number         0  printfa.o ABSOLUTE
    ../clib/microlib/printf/printf.c         0x00000000   Number         0  printf8.o ABSOLUTE
    ../clib/microlib/printf/printf.c         0x00000000   Number         0  printf7.o ABSOLUTE
    ../clib/microlib/printf/printf.c         0x00000000   Number         0  printf6.o ABSOLUTE
    ../clib/microlib/printf/printf.c         0x00000000   Number         0  printf5.o ABSOLUTE
    ../clib/microlib/printf/printf.c         0x00000000   Number         0  printf4.o ABSOLUTE
    ../clib/microlib/printf/printf.c         0x00000000   Number         0  printf2.o ABSOLUTE
    ../clib/microlib/printf/printf.c         0x00000000   Number         0  printf1.o ABSOLUTE
    ../clib/microlib/printf/printf.c         0x00000000   Number         0  printf0.o ABSOLUTE
    ../clib/microlib/printf/printf.c         0x00000000   Number         0  printfb.o ABSOLUTE
    ../clib/microlib/printf/stubs.s          0x00000000   Number         0  stubs.o ABSOLUTE
    ../clib/microlib/stdio/streams.c         0x00000000   Number         0  stdout.o ABSOLUTE
    ../clib/microlib/string/memcpy.c         0x00000000   Number         0  memcpya.o ABSOLUTE
    ../clib/microlib/string/memcpy.c         0x00000000   Number         0  memcpyb.o ABSOLUTE
    ../clib/microlib/stubs.s                 0x00000000   Number         0  iusefp.o ABSOLUTE
    ../fplib/microlib/fpadd.c                0x00000000   Number         0  dadd.o ABSOLUTE
    ../fplib/microlib/fpdiv.c                0x00000000   Number         0  ddiv.o ABSOLUTE
    ../fplib/microlib/fpepilogue.c           0x00000000   Number         0  depilogue.o ABSOLUTE
    ../fplib/microlib/fpfix.c                0x00000000   Number         0  dfixul.o ABSOLUTE
    ../fplib/microlib/fpmul.c                0x00000000   Number         0  dmul.o ABSOLUTE
    ..\CMSIS\core_cm3.c                      0x00000000   Number         0  core_cm3.o ABSOLUTE
    ..\CMSIS\system_stm32f10x.c              0x00000000   Number         0  system_stm32f10x.o ABSOLUTE
    ..\Libraries\src\misc.c                  0x00000000   Number         0  misc.o ABSOLUTE
    ..\Libraries\src\stm32f10x_bkp.c         0x00000000   Number         0  stm32f10x_bkp.o ABSOLUTE
    ..\Libraries\src\stm32f10x_flash.c       0x00000000   Number         0  stm32f10x_flash.o ABSOLUTE
    ..\Libraries\src\stm32f10x_gpio.c        0x00000000   Number         0  stm32f10x_gpio.o ABSOLUTE
    ..\Libraries\src\stm32f10x_iwdg.c        0x00000000   Number         0  stm32f10x_iwdg.o ABSOLUTE
    ..\Libraries\src\stm32f10x_pwr.c         0x00000000   Number         0  stm32f10x_pwr.o ABSOLUTE
    ..\Libraries\src\stm32f10x_rcc.c         0x00000000   Number         0  stm32f10x_rcc.o ABSOLUTE
    ..\Libraries\src\stm32f10x_tim.c         0x00000000   Number         0  stm32f10x_tim.o ABSOLUTE
    ..\Libraries\src\stm32f10x_usart.c       0x00000000   Number         0  stm32f10x_usart.o ABSOLUTE
    ..\Startup\startup_stm32f10x_hd.s        0x00000000   Number         0  startup_stm32f10x_hd.o ABSOLUTE
    ..\User\BufferManage.c                   0x00000000   Number         0  buffermanage.o ABSOLUTE
    ..\User\LoopList.c                       0x00000000   Number         0  looplist.o ABSOLUTE
    ..\User\System.c                         0x00000000   Number         0  system.o ABSOLUTE
    ..\User\delay.c                          0x00000000   Number         0  delay.o ABSOLUTE
    ..\User\flash_helper.c                   0x00000000   Number         0  flash_helper.o ABSOLUTE
    ..\User\gpio.c                           0x00000000   Number         0  gpio.o ABSOLUTE
    ..\User\iwdg.c                           0x00000000   Number         0  iwdg.o ABSOLUTE
    ..\User\main.c                           0x00000000   Number         0  main.o ABSOLUTE
    ..\User\stm32f10x_it.c                   0x00000000   Number         0  stm32f10x_it.o ABSOLUTE
    ..\User\stmflash.c                       0x00000000   Number         0  stmflash.o ABSOLUTE
    ..\User\timer.c                          0x00000000   Number         0  timer.o ABSOLUTE
    ..\User\usart.c                          0x00000000   Number         0  usart.o ABSOLUTE
    ..\\CMSIS\\core_cm3.c                    0x00000000   Number         0  core_cm3.o ABSOLUTE
    cdrcmple.s                               0x00000000   Number         0  cdrcmple.o ABSOLUTE
    dc.s                                     0x00000000   Number         0  dc.o ABSOLUTE
    handlers.s                               0x00000000   Number         0  handlers.o ABSOLUTE
    init.s                                   0x00000000   Number         0  init.o ABSOLUTE
    RESET                                    0x08000000   Section      304  startup_stm32f10x_hd.o(RESET)
    .ARM.Collect$$$$00000000                 0x08000130   Section        0  entry.o(.ARM.Collect$$$$00000000)
    .ARM.Collect$$$$00000001                 0x08000130   Section        4  entry2.o(.ARM.Collect$$$$00000001)
    .ARM.Collect$$$$00000004                 0x08000134   Section        4  entry5.o(.ARM.Collect$$$$00000004)
    .ARM.Collect$$$$00000008                 0x08000138   Section        0  entry7b.o(.ARM.Collect$$$$00000008)
    .ARM.Collect$$$$0000000A                 0x08000138   Section        0  entry8b.o(.ARM.Collect$$$$0000000A)
    .ARM.Collect$$$$0000000B                 0x08000138   Section        8  entry9a.o(.ARM.Collect$$$$0000000B)
    .ARM.Collect$$$$0000000D                 0x08000140   Section        0  entry10a.o(.ARM.Collect$$$$0000000D)
    .ARM.Collect$$$$0000000F                 0x08000140   Section        0  entry11a.o(.ARM.Collect$$$$0000000F)
    .ARM.Collect$$$$00002712                 0x08000140   Section        4  entry2.o(.ARM.Collect$$$$00002712)
    __lit__00000000                          0x08000140   Data           4  entry2.o(.ARM.Collect$$$$00002712)
    .text                                    0x08000144   Section        0  main.o(.text)
    .text                                    0x08000268   Section        0  stm32f10x_it.o(.text)
    .text                                    0x080002a8   Section        0  system.o(.text)
    .text                                    0x0800034c   Section        0  delay.o(.text)
    .text                                    0x08000420   Section        0  usart.o(.text)
    .text                                    0x080007fc   Section        0  gpio.o(.text)
    .text                                    0x0800087c   Section        0  timer.o(.text)
    .text                                    0x080008f4   Section        0  stmflash.o(.text)
    .text                                    0x08000bac   Section        0  flash_helper.o(.text)
    .text                                    0x080013b4   Section        0  buffermanage.o(.text)
    .text                                    0x08001488   Section        0  looplist.o(.text)
    .text                                    0x08001794   Section        0  system_stm32f10x.o(.text)
    SetSysClockTo72                          0x08001795   Thumb Code   214  system_stm32f10x.o(.text)
    SetSysClock                              0x0800186b   Thumb Code     8  system_stm32f10x.o(.text)
    .text                                    0x08001974   Section        0  misc.o(.text)
    .text                                    0x08001a50   Section        0  stm32f10x_rcc.o(.text)
    .text                                    0x08001df4   Section        0  stm32f10x_usart.o(.text)
    .text                                    0x080021fc   Section        0  stm32f10x_flash.o(.text)
    .text                                    0x080027b8   Section        0  stm32f10x_gpio.o(.text)
    .text                                    0x08002b14   Section        0  stm32f10x_tim.o(.text)
    TI4_Config                               0x08002fbb   Thumb Code   130  stm32f10x_tim.o(.text)
    TI3_Config                               0x0800304f   Thumb Code   122  stm32f10x_tim.o(.text)
    TI2_Config                               0x080030e3   Thumb Code   130  stm32f10x_tim.o(.text)
    TI1_Config                               0x08003177   Thumb Code   108  stm32f10x_tim.o(.text)
    .text                                    0x08003930   Section       36  startup_stm32f10x_hd.o(.text)
    .text                                    0x08003954   Section        0  memcpya.o(.text)
    .text                                    0x08003978   Section        0  uidiv.o(.text)
    .text                                    0x080039a4   Section       36  init.o(.text)
    i.__0printf$1                            0x080039c8   Section        0  printf1.o(i.__0printf$1)
    i.__scatterload_copy                     0x080039e8   Section       14  handlers.o(i.__scatterload_copy)
    i.__scatterload_null                     0x080039f6   Section        2  handlers.o(i.__scatterload_null)
    i.__scatterload_zeroinit                 0x080039f8   Section       14  handlers.o(i.__scatterload_zeroinit)
    i._printf_core                           0x08003a08   Section        0  printf1.o(i._printf_core)
    _printf_core                             0x08003a09   Thumb Code   336  printf1.o(i._printf_core)
    .data                                    0x20000000   Section        4  delay.o(.data)
    fac_us                                   0x20000000   Data           1  delay.o(.data)
    fac_ms                                   0x20000002   Data           2  delay.o(.data)
    .data                                    0x20000004   Section       29  usart.o(.data)
    flage                                    0x20000020   Data           1  usart.o(.data)
    .data                                    0x20000024   Section        4  timer.o(.data)
    .data                                    0x20000028   Section        1  stmflash.o(.data)
    .data                                    0x2000002c   Section       20  system_stm32f10x.o(.data)
    .data                                    0x20000040   Section       20  stm32f10x_rcc.o(.data)
    APBAHBPrescTable                         0x20000040   Data          16  stm32f10x_rcc.o(.data)
    ADCPrescTable                            0x20000050   Data           4  stm32f10x_rcc.o(.data)
    .data                                    0x20000054   Section        4  stdout.o(.data)
    .bss                                     0x20000058   Section     5656  usart.o(.bss)
    .bss                                     0x20001670   Section     1024  stmflash.o(.bss)
    .bss                                     0x20001a70   Section       68  flash_helper.o(.bss)
    STACK                                    0x20001ab8   Section     1024  startup_stm32f10x_hd.o(STACK)

    Global Symbols

    Symbol Name                              Value     Ov Type        Size  Object(Section)

    BuildAttributes$$THM_ISAv4$P$D$K$B$S$PE$A:L22UL41UL21$X:L11$S22US41US21$IEEE1$IW$USESV6$~STKCKD$USESV7$~SHL$OSPACE$ROPI$EBA8$MICROLIB$REQ8$PRES8$EABIv2 0x00000000   Number         0  anon$$obj.o ABSOLUTE
    __ARM_use_no_argv                        0x00000000   Number         0  main.o ABSOLUTE
    _printf_a                                0x00000000   Number         0  stubs.o ABSOLUTE
    _printf_c                                0x00000000   Number         0  stubs.o ABSOLUTE
    _printf_charcount                        0x00000000   Number         0  stubs.o ABSOLUTE
    _printf_d                                0x00000000   Number         0  stubs.o ABSOLUTE
    _printf_e                                0x00000000   Number         0  stubs.o ABSOLUTE
    _printf_f                                0x00000000   Number         0  stubs.o ABSOLUTE
    _printf_flags                            0x00000000   Number         0  stubs.o ABSOLUTE
    _printf_fp_dec                           0x00000000   Number         0  stubs.o ABSOLUTE
    _printf_fp_hex                           0x00000000   Number         0  stubs.o ABSOLUTE
    _printf_g                                0x00000000   Number         0  stubs.o ABSOLUTE
    _printf_i                                0x00000000   Number         0  stubs.o ABSOLUTE
    _printf_int_dec                          0x00000000   Number         0  stubs.o ABSOLUTE
    _printf_l                                0x00000000   Number         0  stubs.o ABSOLUTE
    _printf_lc                               0x00000000   Number         0  stubs.o ABSOLUTE
    _printf_ll                               0x00000000   Number         0  stubs.o ABSOLUTE
    _printf_lld                              0x00000000   Number         0  stubs.o ABSOLUTE
    _printf_lli                              0x00000000   Number         0  stubs.o ABSOLUTE
    _printf_llo                              0x00000000   Number         0  stubs.o ABSOLUTE
    _printf_llu                              0x00000000   Number         0  stubs.o ABSOLUTE
    _printf_llx                              0x00000000   Number         0  stubs.o ABSOLUTE
    _printf_longlong_dec                     0x00000000   Number         0  stubs.o ABSOLUTE
    _printf_longlong_hex                     0x00000000   Number         0  stubs.o ABSOLUTE
    _printf_longlong_oct                     0x00000000   Number         0  stubs.o ABSOLUTE
    _printf_ls                               0x00000000   Number         0  stubs.o ABSOLUTE
    _printf_mbtowc                           0x00000000   Number         0  stubs.o ABSOLUTE
    _printf_n                                0x00000000   Number         0  stubs.o ABSOLUTE
    _printf_o                                0x00000000   Number         0  stubs.o ABSOLUTE
    _printf_p                                0x00000000   Number         0  stubs.o ABSOLUTE
    _printf_percent                          0x00000000   Number         0  stubs.o ABSOLUTE
    _printf_pre_padding                      0x00000000   Number         0  stubs.o ABSOLUTE
    _printf_return_value                     0x00000000   Number         0  stubs.o ABSOLUTE
    _printf_s                                0x00000000   Number         0  stubs.o ABSOLUTE
    _printf_sizespec                         0x00000000   Number         0  stubs.o ABSOLUTE
    _printf_str                              0x00000000   Number         0  stubs.o ABSOLUTE
    _printf_truncate_signed                  0x00000000   Number         0  stubs.o ABSOLUTE
    _printf_truncate_unsigned                0x00000000   Number         0  stubs.o ABSOLUTE
    _printf_u                                0x00000000   Number         0  stubs.o ABSOLUTE
    _printf_wc                               0x00000000   Number         0  stubs.o ABSOLUTE
    _printf_wctomb                           0x00000000   Number         0  stubs.o ABSOLUTE
    _printf_widthprec                        0x00000000   Number         0  stubs.o ABSOLUTE
    _printf_x                                0x00000000   Number         0  stubs.o ABSOLUTE
    __cpp_initialize__aeabi_                  - Undefined Weak Reference
    __cxa_finalize                            - Undefined Weak Reference
    __decompress                              - Undefined Weak Reference
    _clock_init                               - Undefined Weak Reference
    _microlib_exit                            - Undefined Weak Reference
    __Vectors_Size                           0x00000130   Number         0  startup_stm32f10x_hd.o ABSOLUTE
    __Vectors                                0x08000000   Data           4  startup_stm32f10x_hd.o(RESET)
    __Vectors_End                            0x08000130   Data           0  startup_stm32f10x_hd.o(RESET)
    __main                                   0x08000131   Thumb Code     0  entry.o(.ARM.Collect$$$$00000000)
    _main_stk                                0x08000131   Thumb Code     0  entry2.o(.ARM.Collect$$$$00000001)
    _main_scatterload                        0x08000135   Thumb Code     0  entry5.o(.ARM.Collect$$$$00000004)
    __main_after_scatterload                 0x08000139   Thumb Code     0  entry5.o(.ARM.Collect$$$$00000004)
    _main_clock                              0x08000139   Thumb Code     0  entry7b.o(.ARM.Collect$$$$00000008)
    _main_cpp_init                           0x08000139   Thumb Code     0  entry8b.o(.ARM.Collect$$$$0000000A)
    _main_init                               0x08000139   Thumb Code     0  entry9a.o(.ARM.Collect$$$$0000000B)
    __rt_final_cpp                           0x08000141   Thumb Code     0  entry10a.o(.ARM.Collect$$$$0000000D)
    __rt_final_exit                          0x08000141   Thumb Code     0  entry11a.o(.ARM.Collect$$$$0000000F)
    PWR_PVD_Init                             0x08000145   Thumb Code    92  main.o(.text)
    PVD_IRQHandler                           0x080001a1   Thumb Code    40  main.o(.text)
    main                                     0x080001c9   Thumb Code    84  main.o(.text)
    NMI_Handler                              0x08000269   Thumb Code     2  stm32f10x_it.o(.text)
    HardFault_Handler                        0x0800026b   Thumb Code    36  stm32f10x_it.o(.text)
    MemManage_Handler                        0x0800028f   Thumb Code     4  stm32f10x_it.o(.text)
    BusFault_Handler                         0x08000293   Thumb Code     4  stm32f10x_it.o(.text)
    UsageFault_Handler                       0x08000297   Thumb Code     4  stm32f10x_it.o(.text)
    SVC_Handler                              0x0800029b   Thumb Code     2  stm32f10x_it.o(.text)
    DebugMon_Handler                         0x0800029d   Thumb Code     2  stm32f10x_it.o(.text)
    PendSV_Handler                           0x0800029f   Thumb Code     2  stm32f10x_it.o(.text)
    NVIC_Configuration                       0x080002a9   Thumb Code   124  system.o(.text)
    Reset_MCU                                0x08000325   Thumb Code    32  system.o(.text)
    DelayInit                                0x0800034d   Thumb Code    50  delay.o(.text)
    delay_us                                 0x0800037f   Thumb Code    72  delay.o(.text)
    delay_ms                                 0x080003c7   Thumb Code    72  delay.o(.text)
    uart_init                                0x08000421   Thumb Code   284  usart.o(.text)
    UsartOutStrIT                            0x0800053d   Thumb Code    66  usart.o(.text)
    UsartOutStr                              0x0800057f   Thumb Code    44  usart.o(.text)
    UsartOutChar                             0x080005ab   Thumb Code    30  usart.o(.text)
    USART1_IRQHandler                        0x080005c9   Thumb Code   210  usart.o(.text)
    USART2_IRQHandler                        0x0800069b   Thumb Code   218  usart.o(.text)
    fputc                                    0x08000775   Thumb Code    58  usart.o(.text)
    GpioInit                                 0x080007fd   Thumb Code   120  gpio.o(.text)
    Timer2_Config                            0x0800087d   Thumb Code    80  timer.o(.text)
    TIM2_IRQHandler                          0x080008cd   Thumb Code    34  timer.o(.text)
    STMFLASH_ReadHalfWord                    0x080008f5   Thumb Code     6  stmflash.o(.text)
    STMFLASH_Write_NoCheck                   0x080008fb   Thumb Code    38  stmflash.o(.text)
    STMFLASH_Read                            0x08000921   Thumb Code    34  stmflash.o(.text)
    STMFLASH_Write                           0x08000943   Thumb Code   274  stmflash.o(.text)
    WriteFlashHalfWords                      0x08000a55   Thumb Code    60  stmflash.o(.text)
    WriteFlashHalfWord                       0x08000a91   Thumb Code    78  stmflash.o(.text)
    FlashErasePage                           0x08000adf   Thumb Code    96  stmflash.o(.text)
    FlashErasePages                          0x08000b3f   Thumb Code    96  stmflash.o(.text)
    FlashHelperReadDataEx                    0x08000bad   Thumb Code    20  flash_helper.o(.text)
    FlashHelperWriteDataEx                   0x08000bc1   Thumb Code    20  flash_helper.o(.text)
    FlashHelperErasePageEx                   0x08000bd5   Thumb Code    16  flash_helper.o(.text)
    FlashHelperInit                          0x08000be5   Thumb Code  1402  flash_helper.o(.text)
    FlashHelperUpdate                        0x0800115f   Thumb Code   568  flash_helper.o(.text)
    FlashHelperGetIndex                      0x08001397   Thumb Code    26  flash_helper.o(.text)
    BufferManageCreate                       0x080013b5   Thumb Code    64  buffermanage.o(.text)
    BufferManageWrite                        0x080013f5   Thumb Code    84  buffermanage.o(.text)
    BufferManageRead                         0x08001449   Thumb Code    64  buffermanage.o(.text)
    rbCreate                                 0x08001489   Thumb Code    34  looplist.o(.text)
    rbDelete                                 0x080014ab   Thumb Code    28  looplist.o(.text)
    rbCapacity                               0x080014c7   Thumb Code    22  looplist.o(.text)
    rbCanRead                                0x080014dd   Thumb Code    62  looplist.o(.text)
    rbCanWrite                               0x0800151b   Thumb Code    36  looplist.o(.text)
    rbRead                                   0x0800153f   Thumb Code   174  looplist.o(.text)
    rbWrite                                  0x080015ed   Thumb Code   176  looplist.o(.text)
    PutData                                  0x0800169d   Thumb Code    58  looplist.o(.text)
    SystemInit                               0x08001873   Thumb Code    78  system_stm32f10x.o(.text)
    SystemCoreClockUpdate                    0x080018c1   Thumb Code   142  system_stm32f10x.o(.text)
    NVIC_PriorityGroupConfig                 0x08001975   Thumb Code    10  misc.o(.text)
    NVIC_Init                                0x0800197f   Thumb Code   100  misc.o(.text)
    NVIC_SetVectorTable                      0x080019e3   Thumb Code    14  misc.o(.text)
    NVIC_SystemLPConfig                      0x080019f1   Thumb Code    34  misc.o(.text)
    SysTick_CLKSourceConfig                  0x08001a13   Thumb Code    40  misc.o(.text)
    RCC_DeInit                               0x08001a51   Thumb Code    64  stm32f10x_rcc.o(.text)
    RCC_HSEConfig                            0x08001a91   Thumb Code    70  stm32f10x_rcc.o(.text)
    RCC_GetFlagStatus                        0x08001ad7   Thumb Code    56  stm32f10x_rcc.o(.text)
    RCC_WaitForHSEStartUp                    0x08001b0f   Thumb Code    56  stm32f10x_rcc.o(.text)
    RCC_AdjustHSICalibrationValue            0x08001b47   Thumb Code    20  stm32f10x_rcc.o(.text)
    RCC_HSICmd                               0x08001b5b   Thumb Code     6  stm32f10x_rcc.o(.text)
    RCC_PLLConfig                            0x08001b61   Thumb Code    24  stm32f10x_rcc.o(.text)
    RCC_PLLCmd                               0x08001b79   Thumb Code     6  stm32f10x_rcc.o(.text)
    RCC_SYSCLKConfig                         0x08001b7f   Thumb Code    18  stm32f10x_rcc.o(.text)
    RCC_GetSYSCLKSource                      0x08001b91   Thumb Code    10  stm32f10x_rcc.o(.text)
    RCC_HCLKConfig                           0x08001b9b   Thumb Code    18  stm32f10x_rcc.o(.text)
    RCC_PCLK1Config                          0x08001bad   Thumb Code    18  stm32f10x_rcc.o(.text)
    RCC_PCLK2Config                          0x08001bbf   Thumb Code    20  stm32f10x_rcc.o(.text)
    RCC_ITConfig                             0x08001bd3   Thumb Code    26  stm32f10x_rcc.o(.text)
    RCC_USBCLKConfig                         0x08001bed   Thumb Code     8  stm32f10x_rcc.o(.text)
    RCC_ADCCLKConfig                         0x08001bf5   Thumb Code    18  stm32f10x_rcc.o(.text)
    RCC_LSEConfig                            0x08001c07   Thumb Code    50  stm32f10x_rcc.o(.text)
    RCC_LSICmd                               0x08001c39   Thumb Code     6  stm32f10x_rcc.o(.text)
    RCC_RTCCLKConfig                         0x08001c3f   Thumb Code    12  stm32f10x_rcc.o(.text)
    RCC_RTCCLKCmd                            0x08001c4b   Thumb Code     8  stm32f10x_rcc.o(.text)
    RCC_GetClocksFreq                        0x08001c53   Thumb Code   192  stm32f10x_rcc.o(.text)
    RCC_AHBPeriphClockCmd                    0x08001d13   Thumb Code    26  stm32f10x_rcc.o(.text)
    RCC_APB2PeriphClockCmd                   0x08001d2d   Thumb Code    26  stm32f10x_rcc.o(.text)
    RCC_APB1PeriphClockCmd                   0x08001d47   Thumb Code    26  stm32f10x_rcc.o(.text)
    RCC_APB2PeriphResetCmd                   0x08001d61   Thumb Code    26  stm32f10x_rcc.o(.text)
    RCC_APB1PeriphResetCmd                   0x08001d7b   Thumb Code    26  stm32f10x_rcc.o(.text)
    RCC_BackupResetCmd                       0x08001d95   Thumb Code     8  stm32f10x_rcc.o(.text)
    RCC_ClockSecuritySystemCmd               0x08001d9d   Thumb Code     6  stm32f10x_rcc.o(.text)
    RCC_MCOConfig                            0x08001da3   Thumb Code     6  stm32f10x_rcc.o(.text)
    RCC_ClearFlag                            0x08001da9   Thumb Code    14  stm32f10x_rcc.o(.text)
    RCC_GetITStatus                          0x08001db7   Thumb Code    20  stm32f10x_rcc.o(.text)
    RCC_ClearITPendingBit                    0x08001dcb   Thumb Code     6  stm32f10x_rcc.o(.text)
    USART_DeInit                             0x08001df5   Thumb Code   134  stm32f10x_usart.o(.text)
    USART_Init                               0x08001e7b   Thumb Code   210  stm32f10x_usart.o(.text)
    USART_StructInit                         0x08001f4d   Thumb Code    24  stm32f10x_usart.o(.text)
    USART_ClockInit                          0x08001f65   Thumb Code    34  stm32f10x_usart.o(.text)
    USART_ClockStructInit                    0x08001f87   Thumb Code    12  stm32f10x_usart.o(.text)
    USART_Cmd                                0x08001f93   Thumb Code    24  stm32f10x_usart.o(.text)
    USART_ITConfig                           0x08001fab   Thumb Code    74  stm32f10x_usart.o(.text)
    USART_DMACmd                             0x08001ff5   Thumb Code    18  stm32f10x_usart.o(.text)
    USART_SetAddress                         0x08002007   Thumb Code    18  stm32f10x_usart.o(.text)
    USART_WakeUpConfig                       0x08002019   Thumb Code    18  stm32f10x_usart.o(.text)
    USART_ReceiverWakeUpCmd                  0x0800202b   Thumb Code    24  stm32f10x_usart.o(.text)
    USART_LINBreakDetectLengthConfig         0x08002043   Thumb Code    18  stm32f10x_usart.o(.text)
    USART_LINCmd                             0x08002055   Thumb Code    24  stm32f10x_usart.o(.text)
    USART_SendData                           0x0800206d   Thumb Code     8  stm32f10x_usart.o(.text)
    USART_ReceiveData                        0x08002075   Thumb Code    10  stm32f10x_usart.o(.text)
    USART_SendBreak                          0x0800207f   Thumb Code    10  stm32f10x_usart.o(.text)
    USART_SetGuardTime                       0x08002089   Thumb Code    16  stm32f10x_usart.o(.text)
    USART_SetPrescaler                       0x08002099   Thumb Code    16  stm32f10x_usart.o(.text)
    USART_SmartCardCmd                       0x080020a9   Thumb Code    24  stm32f10x_usart.o(.text)
    USART_SmartCardNACKCmd                   0x080020c1   Thumb Code    24  stm32f10x_usart.o(.text)
    USART_HalfDuplexCmd                      0x080020d9   Thumb Code    24  stm32f10x_usart.o(.text)
    USART_OverSampling8Cmd                   0x080020f1   Thumb Code    22  stm32f10x_usart.o(.text)
    USART_OneBitMethodCmd                    0x08002107   Thumb Code    24  stm32f10x_usart.o(.text)
    USART_IrDAConfig                         0x0800211f   Thumb Code    18  stm32f10x_usart.o(.text)
    USART_IrDACmd                            0x08002131   Thumb Code    24  stm32f10x_usart.o(.text)
    USART_GetFlagStatus                      0x08002149   Thumb Code    26  stm32f10x_usart.o(.text)
    USART_ClearFlag                          0x08002163   Thumb Code    18  stm32f10x_usart.o(.text)
    USART_GetITStatus                        0x08002175   Thumb Code    84  stm32f10x_usart.o(.text)
    USART_ClearITPendingBit                  0x080021c9   Thumb Code    52  stm32f10x_usart.o(.text)
    FLASH_SetLatency                         0x080021fd   Thumb Code    18  stm32f10x_flash.o(.text)
    FLASH_HalfCycleAccessCmd                 0x0800220f   Thumb Code    22  stm32f10x_flash.o(.text)
    FLASH_PrefetchBufferCmd                  0x08002225   Thumb Code    22  stm32f10x_flash.o(.text)
    FLASH_Unlock                             0x0800223b   Thumb Code    12  stm32f10x_flash.o(.text)
    FLASH_UnlockBank1                        0x08002247   Thumb Code    12  stm32f10x_flash.o(.text)
    FLASH_Lock                               0x08002253   Thumb Code    14  stm32f10x_flash.o(.text)
    FLASH_LockBank1                          0x08002261   Thumb Code    14  stm32f10x_flash.o(.text)
    FLASH_GetBank1Status                     0x0800226f   Thumb Code    48  stm32f10x_flash.o(.text)
    FLASH_WaitForLastOperation               0x0800229f   Thumb Code    38  stm32f10x_flash.o(.text)
    FLASH_ErasePage                          0x080022c5   Thumb Code    72  stm32f10x_flash.o(.text)
    FLASH_EraseAllPages                      0x0800230d   Thumb Code    68  stm32f10x_flash.o(.text)
    FLASH_WaitForLastBank1Operation          0x08002351   Thumb Code    38  stm32f10x_flash.o(.text)
    FLASH_EraseAllBank1Pages                 0x08002377   Thumb Code    68  stm32f10x_flash.o(.text)
    FLASH_GetReadOutProtectionStatus         0x080023bb   Thumb Code    20  stm32f10x_flash.o(.text)
    FLASH_EraseOptionBytes                   0x080023cf   Thumb Code   150  stm32f10x_flash.o(.text)
    FLASH_ProgramWord                        0x08002465   Thumb Code   102  stm32f10x_flash.o(.text)
    FLASH_ProgramHalfWord                    0x080024cb   Thumb Code    60  stm32f10x_flash.o(.text)
    FLASH_ProgramOptionByteData              0x08002507   Thumb Code    72  stm32f10x_flash.o(.text)
    FLASH_EnableWriteProtection              0x0800254f   Thumb Code   200  stm32f10x_flash.o(.text)
    FLASH_ReadOutProtection                  0x08002617   Thumb Code   156  stm32f10x_flash.o(.text)
    FLASH_UserOptionByteConfig               0x080026b3   Thumb Code    88  stm32f10x_flash.o(.text)
    FLASH_GetUserOptionByte                  0x0800270b   Thumb Code     8  stm32f10x_flash.o(.text)
    FLASH_GetWriteProtectionOptionByte       0x08002713   Thumb Code     6  stm32f10x_flash.o(.text)
    FLASH_GetPrefetchBufferStatus            0x08002719   Thumb Code    20  stm32f10x_flash.o(.text)
    FLASH_ITConfig                           0x0800272d   Thumb Code    26  stm32f10x_flash.o(.text)
    FLASH_GetFlagStatus                      0x08002747   Thumb Code    42  stm32f10x_flash.o(.text)
    FLASH_ClearFlag                          0x08002771   Thumb Code     6  stm32f10x_flash.o(.text)
    FLASH_GetStatus                          0x08002777   Thumb Code    48  stm32f10x_flash.o(.text)
    GPIO_DeInit                              0x080027b9   Thumb Code   172  stm32f10x_gpio.o(.text)
    GPIO_AFIODeInit                          0x08002865   Thumb Code    20  stm32f10x_gpio.o(.text)
    GPIO_Init                                0x08002879   Thumb Code   278  stm32f10x_gpio.o(.text)
    GPIO_StructInit                          0x0800298f   Thumb Code    16  stm32f10x_gpio.o(.text)
    GPIO_ReadInputDataBit                    0x0800299f   Thumb Code    18  stm32f10x_gpio.o(.text)
    GPIO_ReadInputData                       0x080029b1   Thumb Code     8  stm32f10x_gpio.o(.text)
    GPIO_ReadOutputDataBit                   0x080029b9   Thumb Code    18  stm32f10x_gpio.o(.text)
    GPIO_ReadOutputData                      0x080029cb   Thumb Code     8  stm32f10x_gpio.o(.text)
    GPIO_SetBits                             0x080029d3   Thumb Code     4  stm32f10x_gpio.o(.text)
    GPIO_ResetBits                           0x080029d7   Thumb Code     4  stm32f10x_gpio.o(.text)
    GPIO_WriteBit                            0x080029db   Thumb Code    10  stm32f10x_gpio.o(.text)
    GPIO_Write                               0x080029e5   Thumb Code     4  stm32f10x_gpio.o(.text)
    GPIO_PinLockConfig                       0x080029e9   Thumb Code    18  stm32f10x_gpio.o(.text)
    GPIO_EventOutputConfig                   0x080029fb   Thumb Code    26  stm32f10x_gpio.o(.text)
    GPIO_EventOutputCmd                      0x08002a15   Thumb Code     6  stm32f10x_gpio.o(.text)
    GPIO_PinRemapConfig                      0x08002a1b   Thumb Code   138  stm32f10x_gpio.o(.text)
    GPIO_EXTILineConfig                      0x08002aa5   Thumb Code    66  stm32f10x_gpio.o(.text)
    GPIO_ETH_MediaInterfaceConfig            0x08002ae7   Thumb Code     8  stm32f10x_gpio.o(.text)
    TIM_DeInit                               0x08002b15   Thumb Code   424  stm32f10x_tim.o(.text)
    TIM_TimeBaseInit                         0x08002cbd   Thumb Code   122  stm32f10x_tim.o(.text)
    TIM_OC1Init                              0x08002d37   Thumb Code   132  stm32f10x_tim.o(.text)
    TIM_OC2Init                              0x08002dbb   Thumb Code   154  stm32f10x_tim.o(.text)
    TIM_OC3Init                              0x08002e55   Thumb Code   150  stm32f10x_tim.o(.text)
    TIM_OC4Init                              0x08002eeb   Thumb Code   182  stm32f10x_tim.o(.text)
    TIM_SetIC4Prescaler                      0x08002fa1   Thumb Code    26  stm32f10x_tim.o(.text)
    TIM_SetIC3Prescaler                      0x0800303d   Thumb Code    18  stm32f10x_tim.o(.text)
    TIM_SetIC2Prescaler                      0x080030c9   Thumb Code    26  stm32f10x_tim.o(.text)
    TIM_SetIC1Prescaler                      0x08003165   Thumb Code    18  stm32f10x_tim.o(.text)
    TIM_ICInit                               0x080031e3   Thumb Code   150  stm32f10x_tim.o(.text)
    TIM_PWMIConfig                           0x08003279   Thumb Code   124  stm32f10x_tim.o(.text)
    TIM_BDTRConfig                           0x080032f5   Thumb Code    32  stm32f10x_tim.o(.text)
    TIM_TimeBaseStructInit                   0x08003315   Thumb Code    18  stm32f10x_tim.o(.text)
    TIM_OCStructInit                         0x08003327   Thumb Code    20  stm32f10x_tim.o(.text)
    TIM_ICStructInit                         0x0800333b   Thumb Code    18  stm32f10x_tim.o(.text)
    TIM_BDTRStructInit                       0x0800334d   Thumb Code    40  stm32f10x_tim.o(.text)
    TIM_Cmd                                  0x08003375   Thumb Code    24  stm32f10x_tim.o(.text)
    TIM_CtrlPWMOutputs                       0x0800338d   Thumb Code    30  stm32f10x_tim.o(.text)
    TIM_ITConfig                             0x080033ab   Thumb Code    18  stm32f10x_tim.o(.text)
    TIM_GenerateEvent                        0x080033bd   Thumb Code     4  stm32f10x_tim.o(.text)
    TIM_DMAConfig                            0x080033c1   Thumb Code    10  stm32f10x_tim.o(.text)
    TIM_DMACmd                               0x080033cb   Thumb Code    18  stm32f10x_tim.o(.text)
    TIM_InternalClockConfig                  0x080033dd   Thumb Code    12  stm32f10x_tim.o(.text)
    TIM_SelectInputTrigger                   0x080033e9   Thumb Code    18  stm32f10x_tim.o(.text)
    TIM_ITRxExternalClockConfig              0x080033fb   Thumb Code    24  stm32f10x_tim.o(.text)
    TIM_TIxExternalClockConfig               0x08003413   Thumb Code    62  stm32f10x_tim.o(.text)
    TIM_ETRConfig                            0x08003451   Thumb Code    28  stm32f10x_tim.o(.text)
    TIM_ETRClockMode1Config                  0x0800346d   Thumb Code    54  stm32f10x_tim.o(.text)
    TIM_ETRClockMode2Config                  0x080034a3   Thumb Code    32  stm32f10x_tim.o(.text)
    TIM_PrescalerConfig                      0x080034c3   Thumb Code     6  stm32f10x_tim.o(.text)
    TIM_CounterModeConfig                    0x080034c9   Thumb Code    18  stm32f10x_tim.o(.text)
    TIM_EncoderInterfaceConfig               0x080034db   Thumb Code    66  stm32f10x_tim.o(.text)
    TIM_ForcedOC1Config                      0x0800351d   Thumb Code    18  stm32f10x_tim.o(.text)
    TIM_ForcedOC2Config                      0x0800352f   Thumb Code    26  stm32f10x_tim.o(.text)
    TIM_ForcedOC3Config                      0x08003549   Thumb Code    18  stm32f10x_tim.o(.text)
    TIM_ForcedOC4Config                      0x0800355b   Thumb Code    26  stm32f10x_tim.o(.text)
    TIM_ARRPreloadConfig                     0x08003575   Thumb Code    24  stm32f10x_tim.o(.text)
    TIM_SelectCOM                            0x0800358d   Thumb Code    24  stm32f10x_tim.o(.text)
    TIM_SelectCCDMA                          0x080035a5   Thumb Code    24  stm32f10x_tim.o(.text)
    TIM_CCPreloadControl                     0x080035bd   Thumb Code    24  stm32f10x_tim.o(.text)
    TIM_OC1PreloadConfig                     0x080035d5   Thumb Code    18  stm32f10x_tim.o(.text)
    TIM_OC2PreloadConfig                     0x080035e7   Thumb Code    26  stm32f10x_tim.o(.text)
    TIM_OC3PreloadConfig                     0x08003601   Thumb Code    18  stm32f10x_tim.o(.text)
    TIM_OC4PreloadConfig                     0x08003613   Thumb Code    26  stm32f10x_tim.o(.text)
    TIM_OC1FastConfig                        0x0800362d   Thumb Code    18  stm32f10x_tim.o(.text)
    TIM_OC2FastConfig                        0x0800363f   Thumb Code    26  stm32f10x_tim.o(.text)
    TIM_OC3FastConfig                        0x08003659   Thumb Code    18  stm32f10x_tim.o(.text)
    TIM_OC4FastConfig                        0x0800366b   Thumb Code    26  stm32f10x_tim.o(.text)
    TIM_ClearOC1Ref                          0x08003685   Thumb Code    18  stm32f10x_tim.o(.text)
    TIM_ClearOC2Ref                          0x08003697   Thumb Code    24  stm32f10x_tim.o(.text)
    TIM_ClearOC3Ref                          0x080036af   Thumb Code    18  stm32f10x_tim.o(.text)
    TIM_ClearOC4Ref                          0x080036c1   Thumb Code    24  stm32f10x_tim.o(.text)
    TIM_OC1PolarityConfig                    0x080036d9   Thumb Code    18  stm32f10x_tim.o(.text)
    TIM_OC1NPolarityConfig                   0x080036eb   Thumb Code    18  stm32f10x_tim.o(.text)
    TIM_OC2PolarityConfig                    0x080036fd   Thumb Code    26  stm32f10x_tim.o(.text)
    TIM_OC2NPolarityConfig                   0x08003717   Thumb Code    26  stm32f10x_tim.o(.text)
    TIM_OC3PolarityConfig                    0x08003731   Thumb Code    26  stm32f10x_tim.o(.text)
    TIM_OC3NPolarityConfig                   0x0800374b   Thumb Code    26  stm32f10x_tim.o(.text)
    TIM_OC4PolarityConfig                    0x08003765   Thumb Code    26  stm32f10x_tim.o(.text)
    TIM_CCxCmd                               0x0800377f   Thumb Code    30  stm32f10x_tim.o(.text)
    TIM_CCxNCmd                              0x0800379d   Thumb Code    30  stm32f10x_tim.o(.text)
    TIM_SelectOCxM                           0x080037bb   Thumb Code    82  stm32f10x_tim.o(.text)
    TIM_UpdateDisableConfig                  0x0800380d   Thumb Code    24  stm32f10x_tim.o(.text)
    TIM_UpdateRequestConfig                  0x08003825   Thumb Code    24  stm32f10x_tim.o(.text)
    TIM_SelectHallSensor                     0x0800383d   Thumb Code    24  stm32f10x_tim.o(.text)
    TIM_SelectOnePulseMode                   0x08003855   Thumb Code    18  stm32f10x_tim.o(.text)
    TIM_SelectOutputTrigger                  0x08003867   Thumb Code    18  stm32f10x_tim.o(.text)
    TIM_SelectSlaveMode                      0x08003879   Thumb Code    18  stm32f10x_tim.o(.text)
    TIM_SelectMasterSlaveMode                0x0800388b   Thumb Code    18  stm32f10x_tim.o(.text)
    TIM_SetCounter                           0x0800389d   Thumb Code     4  stm32f10x_tim.o(.text)
    TIM_SetAutoreload                        0x080038a1   Thumb Code     4  stm32f10x_tim.o(.text)
    TIM_SetCompare1                          0x080038a5   Thumb Code     4  stm32f10x_tim.o(.text)
    TIM_SetCompare2                          0x080038a9   Thumb Code     4  stm32f10x_tim.o(.text)
    TIM_SetCompare3                          0x080038ad   Thumb Code     4  stm32f10x_tim.o(.text)
    TIM_SetCompare4                          0x080038b1   Thumb Code     6  stm32f10x_tim.o(.text)
    TIM_SetClockDivision                     0x080038b7   Thumb Code    18  stm32f10x_tim.o(.text)
    TIM_GetCapture1                          0x080038c9   Thumb Code     6  stm32f10x_tim.o(.text)
    TIM_GetCapture2                          0x080038cf   Thumb Code     6  stm32f10x_tim.o(.text)
    TIM_GetCapture3                          0x080038d5   Thumb Code     6  stm32f10x_tim.o(.text)
    TIM_GetCapture4                          0x080038db   Thumb Code     8  stm32f10x_tim.o(.text)
    TIM_GetCounter                           0x080038e3   Thumb Code     6  stm32f10x_tim.o(.text)
    TIM_GetPrescaler                         0x080038e9   Thumb Code     6  stm32f10x_tim.o(.text)
    TIM_GetFlagStatus                        0x080038ef   Thumb Code    18  stm32f10x_tim.o(.text)
    TIM_ClearFlag                            0x08003901   Thumb Code     6  stm32f10x_tim.o(.text)
    TIM_GetITStatus                          0x08003907   Thumb Code    34  stm32f10x_tim.o(.text)
    TIM_ClearITPendingBit                    0x08003929   Thumb Code     6  stm32f10x_tim.o(.text)
    Reset_Handler                            0x08003931   Thumb Code     8  startup_stm32f10x_hd.o(.text)
    SysTick_Handler                          0x08003949   Thumb Code     2  startup_stm32f10x_hd.o(.text)
    ADC1_2_IRQHandler                        0x0800394b   Thumb Code     0  startup_stm32f10x_hd.o(.text)
    ADC3_IRQHandler                          0x0800394b   Thumb Code     0  startup_stm32f10x_hd.o(.text)
    CAN1_RX1_IRQHandler                      0x0800394b   Thumb Code     0  startup_stm32f10x_hd.o(.text)
    CAN1_SCE_IRQHandler                      0x0800394b   Thumb Code     0  startup_stm32f10x_hd.o(.text)
    DMA1_Channel1_IRQHandler                 0x0800394b   Thumb Code     0  startup_stm32f10x_hd.o(.text)
    DMA1_Channel2_IRQHandler                 0x0800394b   Thumb Code     0  startup_stm32f10x_hd.o(.text)
    DMA1_Channel3_IRQHandler                 0x0800394b   Thumb Code     0  startup_stm32f10x_hd.o(.text)
    DMA1_Channel4_IRQHandler                 0x0800394b   Thumb Code     0  startup_stm32f10x_hd.o(.text)
    DMA1_Channel5_IRQHandler                 0x0800394b   Thumb Code     0  startup_stm32f10x_hd.o(.text)
    DMA1_Channel6_IRQHandler                 0x0800394b   Thumb Code     0  startup_stm32f10x_hd.o(.text)
    DMA1_Channel7_IRQHandler                 0x0800394b   Thumb Code     0  startup_stm32f10x_hd.o(.text)
    DMA2_Channel1_IRQHandler                 0x0800394b   Thumb Code     0  startup_stm32f10x_hd.o(.text)
    DMA2_Channel2_IRQHandler                 0x0800394b   Thumb Code     0  startup_stm32f10x_hd.o(.text)
    DMA2_Channel3_IRQHandler                 0x0800394b   Thumb Code     0  startup_stm32f10x_hd.o(.text)
    DMA2_Channel4_5_IRQHandler               0x0800394b   Thumb Code     0  startup_stm32f10x_hd.o(.text)
    EXTI0_IRQHandler                         0x0800394b   Thumb Code     0  startup_stm32f10x_hd.o(.text)
    EXTI15_10_IRQHandler                     0x0800394b   Thumb Code     0  startup_stm32f10x_hd.o(.text)
    EXTI1_IRQHandler                         0x0800394b   Thumb Code     0  startup_stm32f10x_hd.o(.text)
    EXTI2_IRQHandler                         0x0800394b   Thumb Code     0  startup_stm32f10x_hd.o(.text)
    EXTI3_IRQHandler                         0x0800394b   Thumb Code     0  startup_stm32f10x_hd.o(.text)
    EXTI4_IRQHandler                         0x0800394b   Thumb Code     0  startup_stm32f10x_hd.o(.text)
    EXTI9_5_IRQHandler                       0x0800394b   Thumb Code     0  startup_stm32f10x_hd.o(.text)
    FLASH_IRQHandler                         0x0800394b   Thumb Code     0  startup_stm32f10x_hd.o(.text)
    FSMC_IRQHandler                          0x0800394b   Thumb Code     0  startup_stm32f10x_hd.o(.text)
    I2C1_ER_IRQHandler                       0x0800394b   Thumb Code     0  startup_stm32f10x_hd.o(.text)
    I2C1_EV_IRQHandler                       0x0800394b   Thumb Code     0  startup_stm32f10x_hd.o(.text)
    I2C2_ER_IRQHandler                       0x0800394b   Thumb Code     0  startup_stm32f10x_hd.o(.text)
    I2C2_EV_IRQHandler                       0x0800394b   Thumb Code     0  startup_stm32f10x_hd.o(.text)
    RCC_IRQHandler                           0x0800394b   Thumb Code     0  startup_stm32f10x_hd.o(.text)
    RTCAlarm_IRQHandler                      0x0800394b   Thumb Code     0  startup_stm32f10x_hd.o(.text)
    RTC_IRQHandler                           0x0800394b   Thumb Code     0  startup_stm32f10x_hd.o(.text)
    SDIO_IRQHandler                          0x0800394b   Thumb Code     0  startup_stm32f10x_hd.o(.text)
    SPI1_IRQHandler                          0x0800394b   Thumb Code     0  startup_stm32f10x_hd.o(.text)
    SPI2_IRQHandler                          0x0800394b   Thumb Code     0  startup_stm32f10x_hd.o(.text)
    SPI3_IRQHandler                          0x0800394b   Thumb Code     0  startup_stm32f10x_hd.o(.text)
    TAMPER_IRQHandler                        0x0800394b   Thumb Code     0  startup_stm32f10x_hd.o(.text)
    TIM1_BRK_IRQHandler                      0x0800394b   Thumb Code     0  startup_stm32f10x_hd.o(.text)
    TIM1_CC_IRQHandler                       0x0800394b   Thumb Code     0  startup_stm32f10x_hd.o(.text)
    TIM1_TRG_COM_IRQHandler                  0x0800394b   Thumb Code     0  startup_stm32f10x_hd.o(.text)
    TIM1_UP_IRQHandler                       0x0800394b   Thumb Code     0  startup_stm32f10x_hd.o(.text)
    TIM3_IRQHandler                          0x0800394b   Thumb Code     0  startup_stm32f10x_hd.o(.text)
    TIM4_IRQHandler                          0x0800394b   Thumb Code     0  startup_stm32f10x_hd.o(.text)
    TIM5_IRQHandler                          0x0800394b   Thumb Code     0  startup_stm32f10x_hd.o(.text)
    TIM6_IRQHandler                          0x0800394b   Thumb Code     0  startup_stm32f10x_hd.o(.text)
    TIM7_IRQHandler                          0x0800394b   Thumb Code     0  startup_stm32f10x_hd.o(.text)
    TIM8_BRK_IRQHandler                      0x0800394b   Thumb Code     0  startup_stm32f10x_hd.o(.text)
    TIM8_CC_IRQHandler                       0x0800394b   Thumb Code     0  startup_stm32f10x_hd.o(.text)
    TIM8_TRG_COM_IRQHandler                  0x0800394b   Thumb Code     0  startup_stm32f10x_hd.o(.text)
    TIM8_UP_IRQHandler                       0x0800394b   Thumb Code     0  startup_stm32f10x_hd.o(.text)
    UART4_IRQHandler                         0x0800394b   Thumb Code     0  startup_stm32f10x_hd.o(.text)
    UART5_IRQHandler                         0x0800394b   Thumb Code     0  startup_stm32f10x_hd.o(.text)
    USART3_IRQHandler                        0x0800394b   Thumb Code     0  startup_stm32f10x_hd.o(.text)
    USBWakeUp_IRQHandler                     0x0800394b   Thumb Code     0  startup_stm32f10x_hd.o(.text)
    USB_HP_CAN1_TX_IRQHandler                0x0800394b   Thumb Code     0  startup_stm32f10x_hd.o(.text)
    USB_LP_CAN1_RX0_IRQHandler               0x0800394b   Thumb Code     0  startup_stm32f10x_hd.o(.text)
    WWDG_IRQHandler                          0x0800394b   Thumb Code     0  startup_stm32f10x_hd.o(.text)
    __aeabi_memcpy                           0x08003955   Thumb Code    36  memcpya.o(.text)
    __aeabi_memcpy4                          0x08003955   Thumb Code     0  memcpya.o(.text)
    __aeabi_memcpy8                          0x08003955   Thumb Code     0  memcpya.o(.text)
    __aeabi_uidiv                            0x08003979   Thumb Code     0  uidiv.o(.text)
    __aeabi_uidivmod                         0x08003979   Thumb Code    44  uidiv.o(.text)
    __scatterload                            0x080039a5   Thumb Code    28  init.o(.text)
    __scatterload_rt2                        0x080039a5   Thumb Code     0  init.o(.text)
    __0printf$1                              0x080039c9   Thumb Code    22  printf1.o(i.__0printf$1)
    __1printf$1                              0x080039c9   Thumb Code     0  printf1.o(i.__0printf$1)
    __2printf                                0x080039c9   Thumb Code     0  printf1.o(i.__0printf$1)
    __scatterload_copy                       0x080039e9   Thumb Code    14  handlers.o(i.__scatterload_copy)
    __scatterload_null                       0x080039f7   Thumb Code     2  handlers.o(i.__scatterload_null)
    __scatterload_zeroinit                   0x080039f9   Thumb Code    14  handlers.o(i.__scatterload_zeroinit)
    Region$$Table$$Base                      0x08003b5c   Number         0  anon$$obj.o(Region$$Table)
    Region$$Table$$Limit                     0x08003b7c   Number         0  anon$$obj.o(Region$$Table)
    Usart2SendData                           0x20000004   Data           4  usart.o(.data)
    Usart1ReadCnt                            0x20000008   Data           4  usart.o(.data)
    Usart1SendBits                           0x2000000c   Data           1  usart.o(.data)
    Usart1SendData                           0x20000010   Data           4  usart.o(.data)
    Usart1SendDataCnt                        0x20000014   Data           4  usart.o(.data)
    Usart2ReadCnt                            0x20000018   Data           4  usart.o(.data)
    Usart2SendDataCnt                        0x2000001c   Data           4  usart.o(.data)
    SystemRunTimer                           0x20000024   Data           4  timer.o(.data)
    FlashStatus                              0x20000028   Data           1  stmflash.o(.data)
    SystemCoreClock                          0x2000002c   Data           4  system_stm32f10x.o(.data)
    AHBPrescTable                            0x20000030   Data          16  system_stm32f10x.o(.data)
    __stdout                                 0x20000054   Data           4  stdout.o(.data)
    buff_manage_struct_usart1                0x20000058   Data          60  usart.o(.bss)
    rb_t_usart1                              0x20000094   Data          16  usart.o(.bss)
    Usart1BufferMemory                       0x200000a4   Data        1024  usart.o(.bss)
    Usart1BufferMemoryRead                   0x200004a4   Data         512  usart.o(.bss)
    Usart1BufferMemoryManage                 0x200006a4   Data         200  usart.o(.bss)
    Usart1SendBuff                           0x2000076c   Data        1024  usart.o(.bss)
    buff_manage_struct_usart2                0x20000b6c   Data          60  usart.o(.bss)
    Usart2BufferMemory                       0x20000ba8   Data        1024  usart.o(.bss)
    Usart2BufferMemoryCopy                   0x20000fa8   Data         512  usart.o(.bss)
    Usart2BufferMemoryManage                 0x200011a8   Data         200  usart.o(.bss)
    Usart1ReadBuff                           0x20001270   Data         512  usart.o(.bss)
    Usart2ReadBuff                           0x20001470   Data         512  usart.o(.bss)
    STMFLASH_BUF                             0x20001670   Data        1024  stmflash.o(.bss)
    flash_helper_struct                      0x20001a70   Data          68  flash_helper.o(.bss)
    __initial_sp                             0x20001eb8   Data           0  startup_stm32f10x_hd.o(STACK)



==============================================================================

Memory Map of the image

  Image Entry point : 0x08000131

  Load Region LR_IROM1 (Base: 0x08000000, Size: 0x00003bd4, Max: 0x00080000, ABSOLUTE)

    Execution Region ER_IROM1 (Base: 0x08000000, Size: 0x00003b7c, Max: 0x00080000, ABSOLUTE)

    Base Addr    Size         Type   Attr      Idx    E Section Name        Object

    0x08000000   0x00000130   Data   RO          469    RESET               startup_stm32f10x_hd.o
    0x08000130   0x00000000   Code   RO          474  * .ARM.Collect$$$$00000000  mc_w.l(entry.o)
    0x08000130   0x00000004   Code   RO          742    .ARM.Collect$$$$00000001  mc_w.l(entry2.o)
    0x08000134   0x00000004   Code   RO          745    .ARM.Collect$$$$00000004  mc_w.l(entry5.o)
    0x08000138   0x00000000   Code   RO          747    .ARM.Collect$$$$00000008  mc_w.l(entry7b.o)
    0x08000138   0x00000000   Code   RO          749    .ARM.Collect$$$$0000000A  mc_w.l(entry8b.o)
    0x08000138   0x00000008   Code   RO          750    .ARM.Collect$$$$0000000B  mc_w.l(entry9a.o)
    0x08000140   0x00000000   Code   RO          752    .ARM.Collect$$$$0000000D  mc_w.l(entry10a.o)
    0x08000140   0x00000000   Code   RO          754    .ARM.Collect$$$$0000000F  mc_w.l(entry11a.o)
    0x08000140   0x00000004   Code   RO          743    .ARM.Collect$$$$00002712  mc_w.l(entry2.o)
    0x08000144   0x00000124   Code   RO            1    .text               main.o
    0x08000268   0x00000040   Code   RO          145    .text               stm32f10x_it.o
    0x080002a8   0x000000a4   Code   RO          164    .text               system.o
    0x0800034c   0x000000d4   Code   RO          176    .text               delay.o
    0x08000420   0x000003dc   Code   RO          193    .text               usart.o
    0x080007fc   0x00000080   Code   RO          212    .text               gpio.o
    0x0800087c   0x00000078   Code   RO          239    .text               timer.o
    0x080008f4   0x000002b8   Code   RO          257    .text               stmflash.o
    0x08000bac   0x00000808   Code   RO          273    .text               flash_helper.o
    0x080013b4   0x000000d4   Code   RO          291    .text               buffermanage.o
    0x08001488   0x0000030c   Code   RO          306    .text               looplist.o
    0x08001794   0x000001e0   Code   RO          339    .text               system_stm32f10x.o
    0x08001974   0x000000dc   Code   RO          357    .text               misc.o
    0x08001a50   0x000003a4   Code   RO          369    .text               stm32f10x_rcc.o
    0x08001df4   0x00000408   Code   RO          383    .text               stm32f10x_usart.o
    0x080021fc   0x000005bc   Code   RO          395    .text               stm32f10x_flash.o
    0x080027b8   0x0000035c   Code   RO          407    .text               stm32f10x_gpio.o
    0x08002b14   0x00000e1a   Code   RO          419    .text               stm32f10x_tim.o
    0x0800392e   0x00000002   PAD
    0x08003930   0x00000024   Code   RO          470    .text               startup_stm32f10x_hd.o
    0x08003954   0x00000024   Code   RO          477    .text               mc_w.l(memcpya.o)
    0x08003978   0x0000002c   Code   RO          757    .text               mc_w.l(uidiv.o)
    0x080039a4   0x00000024   Code   RO          772    .text               mc_w.l(init.o)
    0x080039c8   0x00000020   Code   RO          526    i.__0printf$1       mc_w.l(printf1.o)
    0x080039e8   0x0000000e   Code   RO          784    i.__scatterload_copy  mc_w.l(handlers.o)
    0x080039f6   0x00000002   Code   RO          785    i.__scatterload_null  mc_w.l(handlers.o)
    0x080039f8   0x0000000e   Code   RO          786    i.__scatterload_zeroinit  mc_w.l(handlers.o)
    0x08003a06   0x00000002   PAD
    0x08003a08   0x00000154   Code   RO          533    i._printf_core      mc_w.l(printf1.o)
    0x08003b5c   0x00000020   Data   RO          782    Region$$Table       anon$$obj.o


    Execution Region RW_IRAM1 (Base: 0x20000000, Size: 0x00001eb8, Max: 0x00010000, ABSOLUTE)

    Base Addr    Size         Type   Attr      Idx    E Section Name        Object

    0x20000000   0x00000004   Data   RW          177    .data               delay.o
    0x20000004   0x0000001d   Data   RW          195    .data               usart.o
    0x20000021   0x00000003   PAD
    0x20000024   0x00000004   Data   RW          240    .data               timer.o
    0x20000028   0x00000001   Data   RW          259    .data               stmflash.o
    0x20000029   0x00000003   PAD
    0x2000002c   0x00000014   Data   RW          340    .data               system_stm32f10x.o
    0x20000040   0x00000014   Data   RW          370    .data               stm32f10x_rcc.o
    0x20000054   0x00000004   Data   RW          756    .data               mc_w.l(stdout.o)
    0x20000058   0x00001618   Zero   RW          194    .bss                usart.o
    0x20001670   0x00000400   Zero   RW          258    .bss                stmflash.o
    0x20001a70   0x00000044   Zero   RW          274    .bss                flash_helper.o
    0x20001ab4   0x00000004   PAD
    0x20001ab8   0x00000400   Zero   RW          467    STACK               startup_stm32f10x_hd.o


==============================================================================

Image component sizes


      Code (inc. data)   RO Data    RW Data    ZI Data      Debug   Object Name

       212          0          0          0          0       2464   buffermanage.o
         0          0          0          0          0         32   core_cm3.o
       212         18          0          4          0       1170   delay.o
      2056         10          0          0         68       4870   flash_helper.o
       128          8          0          0          0        607   gpio.o
       780        190          0          0          0       3607   looplist.o
       292         76          0          0          0     262979   main.o
       220         22          0          0          0       1949   misc.o
        36          8        304          0       1024        864   startup_stm32f10x_hd.o
      1468         34          0          0          0       8186   stm32f10x_flash.o
       860         38          0          0          0       5801   stm32f10x_gpio.o
        64          8          0          0          0      16473   stm32f10x_it.o
       932         36          0         20          0       9060   stm32f10x_rcc.o
      3610         88          0          0          0      22284   stm32f10x_tim.o
      1032         22          0          0          0       8520   stm32f10x_usart.o
       696         14          0          1       1024       4077   stmflash.o
       164          8          0          0          0        851   system.o
       480         38          0         20          0       2067   system_stm32f10x.o
       120          6          0          4          0       1057   timer.o
       988         78          0         29       5656       4975   usart.o

    ----------------------------------------------------------------------
     14352        702        336         84       7776     361893   Object Totals
         0          0         32          0          0          0   (incl. Generated)
         2          0          0          6          4          0   (incl. Padding)

    ----------------------------------------------------------------------

      Code (inc. data)   RO Data    RW Data    ZI Data      Debug   Library Member Name

         0          0          0          0          0          0   entry.o
         0          0          0          0          0          0   entry10a.o
         0          0          0          0          0          0   entry11a.o
         8          4          0          0          0          0   entry2.o
         4          0          0          0          0          0   entry5.o
         0          0          0          0          0          0   entry7b.o
         0          0          0          0          0          0   entry8b.o
         8          4          0          0          0          0   entry9a.o
        30          0          0          0          0          0   handlers.o
        36          8          0          0          0         68   init.o
        36          0          0          0          0         68   memcpya.o
       372         14          0          0          0        184   printf1.o
         0          0          0          4          0          0   stdout.o
        44          0          0          0          0         80   uidiv.o

    ----------------------------------------------------------------------
       540         30          0          4          0        400   Library Totals
         2          0          0          0          0          0   (incl. Padding)

    ----------------------------------------------------------------------

      Code (inc. data)   RO Data    RW Data    ZI Data      Debug   Library Name

       538         30          0          4          0        400   mc_w.l

    ----------------------------------------------------------------------
       540         30          0          4          0        400   Library Totals

    ----------------------------------------------------------------------

==============================================================================


      Code (inc. data)   RO Data    RW Data    ZI Data      Debug   

     14892        732        336         88       7776     360729   Grand Totals
     14892        732        336         88       7776     360729   ELF Image Totals
     14892        732        336         88          0          0   ROM Totals

==============================================================================

    Total RO  Size (Code + RO Data)                15228 (  14.87kB)
    Total RW  Size (RW Data + ZI Data)              7864 (   7.68kB)
    Total ROM Size (Code + RO Data + RW Data)      15316 (  14.96kB)

==============================================================================

