:020000040800F2
:10000000E80400208D12000845010008470100089F
:100010006F0100087301000877010008000000006C
:100020000000000000000000000000007B0100084C
:100030007D010008000000007F0100089502000813
:10004000A7120008A7120008A7120008A7120008AC
:10005000A7120008A7120008A7120008A71200089C
:10006000A7120008A7120008A7120008A71200088C
:10007000A7120008A7120008A7120008A71200087C
:10008000A7120008A7120008A7120008A71200086C
:10009000A7120008A7120008A7120008A71200085C
:1000A000A7120008A7120008A7120008A71200084C
:1000B000A7120008A7120008A7120008A71200083C
:1000C000A7120008A7120008A7120008A71200082C
:1000D000A7120008BF030008A7120008A712000813
:1000E000A7120008A7120008A7120008A71200080C
:1000F000A7120008A7120008A7120008A7120008FC
:10010000A7120008A7120008A7120008A7120008EB
:10011000A7120008A7120008A7120008A7120008DB
:10012000A7120008A7120008A7120008A7120008CB
:10013000DFF80CD001F0CEFA004800478901000832
:10014000E8040020704711E071B600BFBFF34F8F85
:100150000B48006800F4E0600A490843001D0849A4
:100160000860BFF34F8F00BF00BFFEE7ECE700BFA2
:10017000FEE700BFFEE700BFFEE77047704770472D
:100180000CED00E00000FA0500F024F84FF4E13037
:1001900000F0B4F800F058F900F046F800200949E2
:1001A0000870802048705C2088704320C870086800
:1001B00001F07EF8044622460B4603A001F02AFB1C
:1001C00000BFFEE700000020466C6F61743D2566AD
:1001D0000000000008B54FF4A06000F065FA25208B
:1001E0008DF8000000208DF801008DF8020001203C
:1001F0008DF80300684600F05CFA08BD71B600BFD8
:10020000BFF34F8F0648006800F4E06005490843DB
:10021000001D03490860BFF34F8F00BF00BFFEE71A
:100220000CED00E00000FA0570B56FF0040000F07E
:100230008AFA294800684FF47A72B0FBF2F1481E3E
:10024000B0F1807F00D31BE0481E4FF0E0225061E8
:1002500050170F22002807DA13071D0E1F4B00F05E
:100260000F04241F1D5503E013071C0E1C4B1C54C8
:1002700000BF00204FF0E02290610720106100BF16
:1002800070BD0021174A116000BF164909688142FC
:10029000FBD3704713480068401C1249086012489D
:1002A0000068B8B111480068401C10490860084651
:1002B00000680F49096888420CD300200B49086088
:1002C000094800680B4908600020074908600120C0
:1002D00009490870704700002000002018ED00E078
:1002E00000E400E0080000200C00002014000020C2
:1002F00018000020100000201C00002010B586B05F
:100300000446012144F2040000F0AAFB4FF40070FF
:10031000ADF8140003208DF8160018208DF8170092
:1003200005A9434800F064FE4FF48060ADF8140066
:1003300004208DF8170005A93D4800F059FE0194EE
:100340000020ADF80800ADF80A00ADF80C00ADF8DB
:1003500010000C20ADF80E0001A9364800F027FC73
:10036000012240F22551334800F0B9FC0121314807
:1003700000F0A9FC06B010BD70B504460D460BE0B8
:1003800014F8011B2B4800F00BFD00BF8021294809
:1003900000F074FD0028F9D02800A5F10105EFD187
:1003A00070BD10B504462146224800F0F9FC00BF9C
:1003B0008021204800F062FD0028F9D010BD10B562
:1003C00040F225511B4800F06FFDA8B1194800F01C
:1003D000EBFCC4B21848194909684454174800682E
:1003E000401C16490860084600688C2801D9002086
:1003F000086000201249086010BD70B504460D4623
:100400001048007838B901200E49087040F2266182
:10041000084800F073FDE1B2064800F0C1FC00BFDF
:100420004021044800F02AFD0028F9D0204670BD84
:1004300000080140003801404C0000200C00002062
:10044000140000201D00002008B501217D2000F0CF
:1004500007FB4FF40050ADF8000010208DF80300AA
:1004600003208DF802006946154800F0C1FD042004
:10047000ADF8000010208DF8030003208DF8020075
:100480006946104800F0B4FD2020ADF80000482077
:100490008DF8030003208DF802006946094800F03A
:1004A000A7FD4FF40070ADF8000014208DF8030094
:1004B00003208DF802006946024800F099FD08BD4E
:1004C00000100140000C01400CB50020019000908C
:1004D0006C48006840F480306A49086000BF694891
:1004E000006800F4003000900198401C01900098D2
:1004F00018B90198B0F5A06FF1D16248006800F416
:10050000003010B10120009001E000200090009820
:10051000012843D15C48006840F010005A49086047
:100520000846006820F0030008600846006840F0B4
:1005300002000860534840685249486008464068D5
:1005400048600846406840F480604860084640685B
:1005500020F47C1048600846406840F4E810486089
:100560000846006840F08070086000BF4548006899
:1005700000F000700028F9D04248406820F00300E5
:10058000404948600846406840F00200486000BFAB
:100590003C48406800F00C000828F9D10CBD10B5AB
:1005A000FFF792FF10BD10B53648006840F001001B
:1005B0003449086008464068344908403149486079
:1005C00008460068324908402E490860084600681D
:1005D00020F4802008600846406820F4FE0048604F
:1005E0004FF41F008860FFF7DAFF4FF000602949E1
:1005F000086010BD10B5002100200022214B5B686F
:1006000003F00C0121B1042906D0082928D107E004
:10061000214B224C236027E01F4B204C236023E01A
:10062000184B5B6803F47010164B5B6803F4803260
:10063000022303EB904022B9194B4343174C23602C
:100640000DE0104B5B6803F4003323B1144B4343BC
:10065000124C236003E0104B4343104C236003E033
:100660000D4B0E4C236000BF00BF064B5B68C3F30D
:1006700003130C4CE15C094B1B68CB40074C236017
:1006800010BD000000100240002002400000FFF8F2
:10069000FFFFF6FE08ED00E000127A0020000020C7
:1006A00000093D002400002031490143314A116016
:1006B000704770B5002100230F22C47804B32D4C7D
:1006C000246804F4E064C4F5E064210AC1F1040381
:1006D000CA40447804FA03F18478144021430901A4
:1006E000254C0678A155047804F01F050124AC4080
:1006F00005786D11AD0005F1E025C5F8004109E070
:10070000047804F01F050124AC401C4D06787611D6
:1007100045F8264070BD1A4A0A400243154B1B1F7C
:100720001A60704739B1134A121D12680243114B07
:100730001B1D1A6006E00F4A121D126882430D4B02
:100740001B1D1A607047042808D14FF0E021096989
:1007500041F004014FF0E022116107E04FF0E02189
:10076000096921F004014FF0E02211617047000097
:100770000000FA050CED00E000E400E080E100E09C
:1007800080FFFF1FDF48006840F00100DD4908607E
:1007900008464068DC490840DA4948600846006875
:1007A000DA490840D74908600846006820F48020EC
:1007B00008600846406820F4FE0048604FF41F00BF
:1007C00088607047CF49096821F48031CD4A1160B3
:1007D0001146096821F480211160B0F5803F03D0F3
:1007E000B0F5802F0ED106E0C649096841F480318A
:1007F000C44A116007E0C349096841F4A021C14A15
:10080000116000E000BF00BF704710B50146002234
:10081000002300204A11012A02D1BA4C236806E0C5
:10082000022A02D1B74C236A01E0B64C636A01F098
:100830001F02012494401C400CB1012000E0002064
:1008400010BD38B5002000900024002500BF3120E5
:10085000FFF7DBFF05460098401C00900098B0F5BC
:10086000A06F01D0002DF2D03120FFF7CEFF08B1EC
:10087000012400E00024204638BD01460020A14AA2
:10088000106820F0F80040EAC10010607047A049ED
:1008900008607047024600209A4B586820F47C108C
:1008A00042EA01031843974B58607047984908661D
:1008B000704701460020934A506820F00300084327
:1008C000506070478F48406800F00C007047014648
:1008D00000208C4A506820F0F000084350607047B8
:1008E00001460020874A506820F4E06008435060C9
:1008F000704701460020834A506820F4605040EA67
:10090000C1005060704729B17E4A527A02437D4B44
:100910005A7204E07B4A527A82437A4B5A72704789
:100920007B49D8310860704701460020754A5068FD
:1009300020F440400843506070470021714A203243
:100940001170704A82F82010012802D004280AD1C0
:1009500004E001216B4A2032117005E00521694A4B
:100960002032117000E000BF00BF70476949086085
:1009700070476449096A0143624A116270476549D8
:1009800044390860704730B500210022002400235C
:100990005C4D6D6805F00C0121B1042905D00829D2
:1009A00023D105E05C4D056022E05B4D05601FE052
:1009B000544D6D6805F47012524D6D6805F4803425
:1009C000022505EB92421CB9544D554305600BE0DE
:1009D0004C4D6D6805F400351DB1504D5543056013
:1009E00002E04D4D5543056002E04B4D056000BFF0
:1009F00000BF444D6D6805F0F0010909484D6B5C7E
:100A00000568DD4045603F4D6D6805F4E061090A09
:100A1000434D6B5C4568DD4085603A4D6D6805F47B
:100A20006051C90A3E4D6B5C4568DD40C560354D7F
:100A30006D6805F44041890B3A4D6B5CC568B5FBA8
:100A4000F3F5056130BD29B12E4A526902432D4BA1
:100A50005A6104E02B4A526982432A4B5A6170471B
:100A600029B1284A92690243264B9A6104E0254A3B
:100A700092698243234B9A61704729B1214AD26916
:100A80000243204BDA6104E01E4AD26982431D4BC7
:100A9000DA61704729B11B4AD2680243194BDA6008
:100AA00004E0184AD2688243164BDA60704729B1D5
:100AB000144A12690243134B1A6104E0114A126985
:100AC0008243104B1A6170471249403908607047E1
:100AD0000F49C86470470B49C87170470948406A9C
:100AE00040F0807007494862704701460020054A7F
:100AF00092680A400AB1012000E0002070470149D5
:100B000088727047001002400000FFF8FFFFF6FEF9
:100B1000000042428004424200127A0000093D0077
:100B2000340000204400002010B50446FB488442F5
:100B300009D101218803FFF7ADFF00214FF4804068
:100B4000FFF7A8FF32E0F648844209D101214804AA
:100B5000FFF7ADFF00214FF40030FFF7A8FF25E0BD
:100B6000F048844209D101218804FFF7A0FF002149
:100B70004FF48020FFF79BFF18E0EB48844209D137
:100B80000121C804FFF793FF00214FF40020FFF775
:100B90008EFF0BE0E548844208D101210805FFF7EC
:100BA00086FF00214FF48010FFF781FF10BD2DE973
:100BB000F04786B005460E460024A24600BFA14677
:100BC0000027B08900B100BF2F462C8A4CF6FF7079
:100BD0000440F08804432C82AC894EF6F3100440A4
:100BE000B08831890843718908430443AC81AC8AD9
:100BF0004FF6FF400440B0890443AC8201A8FFF7E0
:100C0000C2FEC648874202D1DDF810A001E0DDF83F
:100C10000CA0A88900F4004040B10AEBCA0000EB28
:100C20000A1031684900B0FBF1F807E00AEBCA008E
:100C300000EB0A1031688900B0FBF1F86420B8FBC2
:100C4000F0F004012009642101FB1089A88900F457
:100C5000004040B1322000EBC900B0FBF1F000F0E1
:100C60000700044308E0322000EB09106421B0FBC8
:100C7000F1F000F00F0004432C8106B0BDE8F087CE
:100C80004FF41651016000218180C18001810C2147
:100C9000418100218181704710B502460020108AF1
:100CA0004FF2FF0318400B884C8823438C88234362
:100CB000CC8823431843108210BD0021018041805D
:100CC0008180C180704721B1828942F400528281C3
:100CD00004E082894DF6FF731A4082817047F0B5B7
:100CE0000346002400260025002040F66A17B9427A
:100CF00000D100BF1846C1F3421401F01F060127BE
:100D000007FA06F5012C01D10C3004E0022C01D1C8
:100D1000103000E014301AB107682F43076002E07A
:100D20000768AF430760F0BD1AB1838A0B43838223
:100D300002E0838A8B4383827047028A4FF6F07306
:100D40001A400282028A0A430282704782894FF265
:100D5000FF731A40828182890A438281704721B1E0
:100D6000828942F00202828104E082894FF6FD739B
:100D70001A4082817047028A4FF6DF731A4002825E
:100D8000028A0A430282704721B1028A42F48042F9
:100D9000028204E0028A4BF6FF731A400282704717
:100DA000C1F308028280704701468888C0F30800BA
:100DB0007047818941F0010181817047028BD2B275
:100DC0000283028B42EA012202837047028B02F403
:100DD0007F420283028B0A430283704721B1828AD9
:100DE00042F02002828204E0828A4FF6DF731A40CA
:100DF0008282704721B1828A42F01002828204E02E
:100E0000828A4FF6EF731A408282704721B1828A3C
:100E100042F00802828204E0828A4FF6F7731A4099
:100E20008282704721B1828942F40042828103E0CC
:100E30008289C2F30E028281704721B1828A42F414
:100E40000062828204E0828A4FF2FF731A4082823B
:100E50007047828A4FF6FB731A408282828A0A4365
:100E60008282704721B1828A42F00202828204E0CB
:100E7000828A4FF6FD731A40828270470246002034
:100E8000B1F5007F00D100BF13880B400BB10120EA
:100E900000E00020704701F40072B2F5007F00D13D
:100EA00000BFCA430280704770B502460024002389
:100EB0000025002040F66A16B14200D100BFC1F300
:100EC000421501F01F03012606FA03F3012D02D19A
:100ED0009689334006E0022D02D1168A334001E0A4
:100EE000968A33400C12012606FA04F41688344020
:100EF00013B10CB1012000E0002070BD10B500223C
:100F0000002340F66A14A14200D100BF0A12012456
:100F10009440A3B2DC43048010BD000000380140BF
:100F20000044004000480040004C00400050004099
:100F300010B50446CC48844208D101210420FFF7B3
:100F4000A9FD00210420FFF7A5FD46E0C748844223
:100F500008D101210820FFF79DFD00210820FFF79F
:100F600099FD3AE0C248844208D101211020FFF7E0
:100F700091FD00211020FFF78DFD2EE0BD48844239
:100F800008D101212020FFF785FD00212020FFF757
:100F900081FD22E0B848844208D101214020FFF7BA
:100FA00079FD00214020FFF775FD16E0B34884422B
:100FB00008D101218020FFF76DFD00218020FFF77F
:100FC00069FD0AE0AE48844207D101218015FFF790
:100FD00061FD0021A015FFF75DFD10BD10B50121D9
:100FE0000846FFF757FD00210120FFF753FD10BD14
:100FF0002DE9F041024600250026002000230024B0
:10100000002791F803C00CF00F0591F803C00CF015
:10101000100CBCF1000F03D091F802C04CEA05059A
:1010200091F800C0BCF1000F31D0146800202BE013
:101030004FF0010C0CFA00F3B1F800C00CEA030603
:101040009E4220D183004FF00F0C0CFA03F7BC43F3
:1010500005FA03FC4CEA040491F803C0BCF1280F24
:1010600006D14FF0010C0CFA00FCC2F814C00AE0E3
:1010700091F803C0BCF1480F05D14FF0010C0CFAF8
:1010800000FCC2F810C0401C0828D1D31460B1F88D
:1010900000C0BCF1FF0F34DD546800202EE000F1E9
:1010A000080C4FF0010808FA0CF3B1F800C00CEA84
:1010B00003069E4221D183004FF00F0C0CFA03F778
:1010C000BC4305FA03FC4CEA040491F803C0BCF1EC
:1010D000280F05D100F1080C08FA0CF8C2F81480AA
:1010E00091F803C0BCF1480F07D100F1080C4FF094
:1010F000010808FA0CF8C2F81080401C0828CED36A
:101100005460BDE8F0814FF6FF71018002218170CB
:101110000421C17070470246002093680B400BB158
:10112000012000E0002070470146886880B27047C7
:1011300002460020D3680B400BB1012000E00020E4
:1011400070470146C86880B27047016170474161CD
:1011500070470AB1016100E041617047C1607047AA
:101160004FF480320A4382618161826182698269BF
:10117000704702460020434B18684FF680731840B2
:1011800040EA021008433F4B186070473E49C8616F
:101190007047F0B50A46002300240021002500F026
:1011A0000046B6F1004F02D1364EF16901E0354EEE
:1011B0007168C0F3034583B200F44016B6F5401FD2
:1011C00008D121F070612F4E766826F070662D4FA1
:1011D0007E6012E000F48016B6F5801F06D103266B
:1011E00006FA05F4A14341F0706106E0460D3601B0
:1011F00003FA06F6B14341F0706122B1460D3601A3
:1012000003FA06F6314300F00046B6F1004F02D172
:101210001C4EF16101E01B4E7160F0BD30B5002243
:101220008B071C0F0F2303FA04F2164B08338C10A4
:1012300053F824309343134C08348D1044F8253070
:1012400023468C1053F824308C07240F00FA04F442
:1012500023430C4C08348D1044F8253030BD0A4926
:10126000DC3108607047000000080140000C0140BC
:10127000001001400014014000180140001C014012
:101280000020014000000140000020420648804745
:1012900006480047FEE7FEE7FEE7FEE7FEE7FEE75B
:1012A000FEE7FEE7FEE7FEE7A705000831010008BC
:1012B00000F0004230F000400AD0C10D01F560712D
:1012C000C0F3160042EA0151C208400711437047BB
:1012D00000200146704730B50B4601460020202211
:1012E000012409E021FA02F59D4205D303FA02F533
:1012F000491B04FA02F52844151EA2F10102F1DC93
:1013000030BD2DE9F05F0546002092469B46884699
:101310000646814640241BE0284641464746224671
:1013200000F0F9F953465A46C01A914110D31146BC
:101330001846224600F0E0F92D1A67EB01084F46E7
:1013400022460120002100F0D7F917EB00094E4199
:10135000201EA4F10104DFDC484631462A464346FC
:10136000BDE8F09F2DE9FE4F804681EA0300C00FE3
:101370000C46009021F0004123F00045B8EB02003C
:10138000A94105D24046214690461C460B460246DE
:1013900023F00040104347D0270DC7F30A00C3F3E2
:1013A0000A510290401A019040286BDAC3F31300EF
:1013B00040F4801B0098924620B10023D2EB030A30
:1013C00063EB0B0B01985946C0F14002504600F008
:1013D00093F906460D4650465946019A00F0ABF97E
:1013E00010EB08006141002487EA115284EAE77398
:1013F0001A4340D0009A62B3019A012A4FEA075279
:1014000015DC001B61EB02014FF0004202EA0752BB
:10141000CDE90042001C41F5801132462B4600F018
:10142000ABF903B0BDE8F08F40462146F9E7001B59
:1014300061EB0201001C41F5801300185B4120188C
:10144000A2F5001747EB030140EAD570B6196D41CC
:1014500011E06D084FEA360645EAC0754FEA0752BB
:10146000001B61EB0201001C41F5801149084FEAA5
:1014700030000019514132462B4603B0BDE8F04F11
:1014800000F06BB90098012240000023D0EB02026B
:1014900063EBE073009821464FEAE074B8EB00007C
:1014A00061EB0401E9E783F000435BE781F0004171
:1014B00058E72DE9FE4F81EA030404F0004421F0CF
:1014C000004100944FF0000B23F0004350EA010468
:1014D0005ED052EA03045BD0C3F30A54C1F30A5549
:1014E0002C44A4F2F3340194A0FB0254C1F3130181
:1014F00041F48011C3F3130343F4801301FB02444E
:1015000000FB034E840A970A44EA815447EA835752
:10151000A4FB076802958D0A05FB07854FEA932C0B
:1015200004FB0C542705029D4FEA065847EA16377C
:10153000B5EB08056EEB070C870E920E47EA811794
:1015400042EA8312A7FB0201B6EB0B0164EB000435
:101550002B0D43EA0C335E1844EB1C50DA4651461F
:10156000E7FB0201C5F313044FEA0B3343EA1453BC
:101570004FEA0432019C43EA0603A4F10C040294EE
:10158000009CCDE900B400F0F7F803B0BDE8F08F9F
:1015900000200146F9E72DE9F04D81EA030404F04B
:1015A000004B21F0004514464FF0000A23F00041A3
:1015B00050EA050220D054EA01021DD0C5F30A57B3
:1015C0000246C5F31303C1F31300C1F30A5640F4F6
:1015D000801543F48013A7EB0608101BD64608F2CB
:1015E000FD3873EB050002D308F1010801E0921801
:1015F0005B41B8F1000F03DA00200146BDE8F08D31
:1016000000204FF48011064684460EE0171B73EB52
:10161000050705D3121B63EB050306434CEA010CD7
:1016200049084FEA300092185B4150EA0107EDD1BA
:1016300052EA030012D082EA040083EA050108435B
:1016400005D0101BAB4106D20122002306E0002288
:101650004FF0004302E06FF0010253101AEB060056
:101660004CEB085110EB0A0041EB0B01BDE8F04DCB
:1016700000F073B8C1F30A52C1F3130140F2FF3313
:1016800041F480119A4202DA00200146704740F28C
:1016900033439A42A2F2334202DC524200F03BB89A
:1016A00000F02AB830B5041E71F1000404DB4FF0DD
:1016B0000044404264EB0101141E73F1000405DB99
:1016C0001C464FF00043524263EB0403994208BFAB
:1016D000904230BD064C074D06E0E06840F0010343
:1016E00094E8070098471034AC42F6D3FEF724FD87
:1016F000E820000808210008202A04DB203A00FA2C
:1017000002F1002070479140C2F1200320FA03F358
:10171000194390407047202A04DB203A21FA02F056
:101720000021704721FA02F3D040C2F1200291401B
:10173000084319467047202A06DBCB17203A41FAA6
:1017400002F043EAE07306E041FA02F3D040C2F14E
:101750002002914008431946704710B5141E73F1DA
:10176000000408DA401C41F1000192185B411A4361
:1017700001D120F0010010BD2DE9F04D92469B46AD
:1017800011B1B1FA81F202E0B0FA80F22032904653
:10179000FFF7B2FF04460F4640EA0A0041EA0B0198
:1017A00053465A46084313D0114653EA010019D054
:1017B000C8F140025046FFF7AEFF05460E465046C0
:1017C00059464246FFF798FF084305D0012004E040
:1017D00020463946BDE8F08D0020054346EAE07614
:1017E0002C4337430A986305E40AA0EB0800002263
:1017F000FD0A44EA47540A3002D500200146E9E7D1
:10180000010510196941DDE9084500196941BDE884
:10181000F04DA2E70FB4054B10B503A9044A029896
:1018200000F0CAF810BC5DF814FB0000FB030008D0
:101830004800002002E008C8121F08C1002AFAD19F
:1018400070477047002001E001C1121F002AFBD140
:10185000704700002DE9FF5FDDE90220010DDDF892
:1018600038B0024318D044F61050A1F2FF31414382
:101870000D140F98012820D0A5EB0B00401C5FEA47
:10188000000A4FF00004474EDFF81C91A046504676
:1018900016D5CAF1000728E00F98012443A20128B9
:1018A00008D0002100980F9BC0E90021C0E9024345
:1018B000BDE8FF9F6FEA0B01F4E7CBF10000DEE724
:1018C000074612E0F80707D022463346404649460D
:1018D000FFF7EFFD804689462246334610461946FB
:1018E000FFF7E7FD04460E467F10002FEAD1DDE941
:1018F0000201BAF1000F42464B4602DAFFF7D9FD6A
:1019000001E0FFF748FE04460E460022284BFFF791
:10191000C9FE03D84FF0FF30014607E00022254BF7
:1019200020463146FFF71EFDFFF7A4FE102409E014
:10193000002C0ADB0A220023FFF7E3FC019B303274
:101940001A55641E50EA0102F2D1641C019AC4F1D6
:10195000110314440F9A012A03D0012208430DD128
:101960000AE0084304D000204FF0110B0F9080E7ED
:10197000A3EB0B056D1E0DE05B4504DD4FF000028F
:1019800005F1010504E003DA4FF00002A5F10105BD
:10199000002AECD000980F99C0E90231C0E9004557
:1019A00086E70000000024400000F03F3000000007
:1019B0000000F0430000E03F2DE9FF4F95B09B464B
:1019C0008946064600250FE2252877D100242746C0
:1019D000F84A0121059400E0044316F8013F203B3A
:1019E00001FA03F01042F7D130782A2811D06FF0B5
:1019F0002F033078A0F13002092A16D8059A44F056
:101A0000020402EB820203EB42021044761C0590B2
:101A1000EFE759F8042B0592002A03DA504244F408
:101A20000054059044F00204761C30782E2816D11C
:101A300016F8010F44F004042A280DD06FF02F028D
:101A40003078A0F13003092B09D807EB870302EBAC
:101A50004303C718761CF3E759F8047B761C3078EB
:101A60006C280FD006DC4C2817D068280DD06A28C7
:101A700014D104E0742810D07A280FD10DE044F47A
:101A800000140AE044F4801401E044F44014727835
:101A9000824202D104F58014761C761C30786628C8
:101AA0000BD013DC582877D009DC002875D04528E6
:101AB000F6D04628F4D047281AD19DE118E06328D3
:101AC00035D0642879D0652812D195E1702873D07B
:101AD00008DC6728F1D069286FD06E280DD06F28F8
:101AE00006D1B5E073282CD0752875D0782874D02D
:101AF0005A46179990476D1C75E1C4F302500228AD
:101B000009D003280DD0D9F8001004280DD00D609D
:101B100009F1040967E1D9F80010EA17C1E9005298
:101B2000F6E7D9F800100D80F2E70D70F0E719F82C
:101B3000041B8DF8001000208DF80100EA460120FA
:101B400003E059F804AB4FF0FF3061074FF000019C
:101B500002D40DE008F101018846B9420FDA804550
:101B6000F8DB1AF808100029F4D108E008F10101A7
:101B700088468142FADB1AF808100029F6D1059848
:101B80005B46A0EB080721463846179A00F094FA06
:101B9000284400EB080507E04DE029E10DE01AF8C4
:101BA000010B5A4617999047B8F10108F7D25B46E6
:101BB00021463846179A13E142E00A220092C4F304
:101BC00002524FF0000A022A08D059F804CB032A27
:101BD0004FEAEC710AD00DE029E02AE009F1070193
:101BE00021F00702F2E802C1914609E00FFA8CFCED
:101BF0004FEAEC71042A03D14FFA8CFC4FEAEC71E6
:101C0000002907DA0A460021DCF1000C61EB020131
:101C10002D2202E0220504D52B228DF8042001227A
:101C200003E0E20701D02022F7E7904659E00A21BD
:101C300002E010220DE010214FF0000A00910BE0AD
:101C400010224FF0000A44F004040827009203E039
:101C500008224FF0000A0092C4F30252022A05D073
:101C600059F804CB0021032A08D009E009F1070143
:101C700021F00702F2E802C1914605E01FFA8CFC50
:101C8000042A01D10CF0FF0C4FF00008220728D5E0
:101C9000702806D0009B83F0100353EA0A0305D096
:101CA0000EE040228DF80420012208E05CEA0102E7
:101CB00006D030228DF804208DF8050002229046CF
:101CC000009B83F0080353EA0A030AD15CEA01028D
:101CD00001D1620705D530228DF804204FF00108AC
:101CE0007F1E582804D034A003900EA802900DE067
:101CF00036A0F9E753466046009AFFF702FB844698
:101D00000398825C0298401E029002705CEA010017
:101D1000F0D1029806A9081A00F1200A600702D53E
:101D200024F4803400E00127574502DDA7EB0A00C8
:101D300000E0002000EB0A01009005984144401AA1
:101D40000590E00306D45B462146179A059800F0FB
:101D5000B3F90544002706E001A85A46C05D17996B
:101D600090476D1C7F1C4745F6DBE0030CD55B46B6
:101D70002146179A059800F09FF9054404E03020A9
:101D80005A46179990476D1C0099481E00900029EB
:101D9000F5DC08E0029802995A460078491C029145
:101DA000179990476D1CBAF10001AAF1010AF1DC04
:101DB00065E100000928010030313233343536370F
:101DC0003839616263646566000000003031323387
:101DD0003435363738394142434445460000000027
:101DE00000F058F90544761C307800287FF4ECADFB
:101DF00019B02846BDE8F08F620700D4062709F124
:101E0000070222F0070CFCE80223E14603F0004839
:101E10005FEA080C02D00FF2702C0DE05FEA045C60
:101E200002D50FF2682C07E05FEAC47C02D00FF203
:101E3000602C01E0AFF2700C4FF0FF3823F000434C
:101E4000CDF850C065280CD006DC452809D04628BE
:101E50001DD047283DD13DE0662818D067287ED1A7
:101E600038E00021112F01DB112000E0781CCDE9C2
:101E7000000106A90EA8FFF7EDFCDDE90F010E9A9F
:101E800003910021009207F1010A04914DE04FF007
:101E900000400097CDE9011006A90EA8FFF7DAFC73
:101EA000DDE90F0203920E9B11990022DDF80CA0D0
:101EB0000093049211B9791C00EB010AB7EB0A00F8
:101EC00004D4C0F1FF3007F1010A0490AAEB070027
:101ED000019044E0012F00DA01270021112F01DDDC
:101EE000112000E03846CDE9000106A90EA8FFF751
:101EF000B1FCDDE90F010E9A0391002104910092DB
:101F0000BA4621070CD40399514500DA8A46BAF142
:101F1000010F05DD009AAAF10101515C302908D0BA
:101F2000B84202DA10F1040F06DA0121CDE90110FE
:101F300015E0AAF10101E9E7002805DC0499014454
:101F40000491AAEB000102E0411C514500DD8A46E4
:101F50000499401A401C01904FF000400290200765
:101F600004D40198504501DBCDF8048000208DF8A1
:101F70004F0002980DF14F07B0F1004F25D02B20F4
:101F80000E9002984FF0020800280CDA40420290AE
:101F90002D200E9007E00A210298FFF79CF93031BE
:101FA000029007F8011DB8F10001A8F10108F2DC68
:101FB00002980028EFD1791E0E980870307800F052
:101FC000200040F0450007F8020D12A8C01B00F1E8
:101FD00007081498007800B1012000EB0A0101986D
:101FE00001EBE07105984144401A401E0590E00362
:101FF00006D45B462146179A059800F05DF8054423
:102000001498007818B15A46179990476D1CE00350
:1020100024D55B462146179A059800F04DF80544F3
:102020001CE00498002807DBDDE90301884203DD9A
:102030000098405C179901E0179930205A46904764
:10204000049805F10105401C04900198401E019080
:1020500004D12E205A46179990476D1CBAF1000101
:10206000AAF1010ADDDC05E017F8010B5A461799C1
:1020700090476D1CB8F10001A8F10108F4DC5B4643
:102080002146179A0598ABE62D0000002B000000B2
:10209000200000002DE9F041044600251E461746A9
:1020A000880404D405E039462020B0476D1C641E26
:1020B000F9D52846BDE8F0812DE9F0410446002518
:1020C0001E469046C80301D5302700E0202788042B
:1020D00004D505E041463846B0476D1C641EF9D56D
:1020E0002846BDE8F081000008210008000000201B
:1020F0004C00000034180008542100084C00002057
:102100009C040000441800080000000000000000CB
:1021100000000000000000000000000000000000BF
:102120000A0000000000000000A24A0400000000B5
:102130000000000001020304060708090000000077
:102140000102030401020304060708090204060849
:04215000000000008B
:0400000508000131BD
:00000001FF
