Component: ARM Compiler 5.05 update 1 (build 106) Tool: armlink [4d0efa]

==============================================================================

Section Cross References

    main.o(.text) refers to mcu_sys.o(.text) for NVIC_Configuration
    main.o(.text) refers to usart.o(.text) for usart_init
    main.o(.text) refers to delay.o(.text) for delay_init
    main.o(.text) refers to timer.o(.text) for timer2_init
    main.o(.text) refers to configmodulenoblock.o(.text) for ConfigModuleNoBlock
    main.o(.text) refers to looplist.o(.text) for rbCanRead
    main.o(.text) refers to memseta.o(.text) for __aeabi_memclr
    main.o(.text) refers to strstr.o(.text) for strstr
    main.o(.text) refers to configmodulenoblock.o(.data) for ConfigModuleNoBlockFlage
    main.o(.text) refers to usart.o(.data) for usart1_idle_flag
    main.o(.text) refers to usart.o(.bss) for rb_t_usart1_read
    main.o(.text) refers to main.o(.data) for usart1_read_len
    delay.o(.text) refers to misc.o(.text) for SysTick_CLKSourceConfig
    delay.o(.text) refers to system_stm32f10x.o(.data) for SystemCoreClock
    delay.o(.text) refers to delay.o(.data) for fac_us
    usart.o(.text) refers to looplist.o(.text) for rbCreate
    usart.o(.text) refers to stm32f10x_rcc.o(.text) for RCC_APB1PeriphClockCmd
    usart.o(.text) refers to stm32f10x_gpio.o(.text) for GPIO_Init
==============================================================================

Removing Unused input sections from the image.

    Removing main.o(.bss), (500 bytes).
    Removing core_cm3.o(.emb_text), (32 bytes).
    Removing stm32f10x_flash.o(.text), (1468 bytes).
    Removing stm32f10x_iwdg.o(.text), (64 bytes).
    Removing stm32f10x_can.o(.text), (2544 bytes).
    Removing stm32f10x_adc.o(.text), (1102 bytes).
    Removing stm32f10x_pwr.o(.text), (204 bytes).
    Removing stm32f10x_exti.o(.text), (284 bytes).
    Removing startup_stm32f10x_hd.o(HEAP), (512 bytes).
    Removing buffermanage.o(.text), (212 bytes).
    Removing dadd.o(.text), (334 bytes).
    Removing dmul.o(.text), (228 bytes).
    Removing ddiv.o(.text), (222 bytes).
    Removing dfixul.o(.text), (48 bytes).
    Removing cdrcmple.o(.text), (48 bytes).
    Removing depilogue.o(.text), (186 bytes).

16 unused section(s) (total 7988 bytes) removed from the image.
==============================================================================

Image Symbol Table

    Local Symbols

    Symbol Name                              Value     Ov Type        Size  Object(Section)

    ../clib/microlib/division.c              0x00000000   Number         0  uldiv.o ABSOLUTE
    ../clib/microlib/division.c              0x00000000   Number         0  uidiv.o ABSOLUTE
    ../clib/microlib/init/entry.s            0x00000000   Number         0  entry11b.o ABSOLUTE
    ../clib/microlib/init/entry.s            0x00000000   Number         0  entry.o ABSOLUTE
    ../clib/microlib/init/entry.s            0x00000000   Number         0  entry5.o ABSOLUTE
    ../clib/microlib/init/entry.s            0x00000000   Number         0  entry7b.o ABSOLUTE
    ../clib/microlib/init/entry.s            0x00000000   Number         0  entry7a.o ABSOLUTE
    ../clib/microlib/init/entry.s            0x00000000   Number         0  entry2.o ABSOLUTE
    ../clib/microlib/init/entry.s            0x00000000   Number         0  entry8a.o ABSOLUTE
    ../clib/microlib/init/entry.s            0x00000000   Number         0  entry11a.o ABSOLUTE
    ../clib/microlib/init/entry.s            0x00000000   Number         0  entry10b.o ABSOLUTE
    ../clib/microlib/init/entry.s            0x00000000   Number         0  entry10a.o ABSOLUTE
    ../clib/microlib/init/entry.s            0x00000000   Number         0  entry9b.o ABSOLUTE
    ../clib/microlib/init/entry.s            0x00000000   Number         0  entry9a.o ABSOLUTE
    ../clib/microlib/init/entry.s            0x00000000   Number         0  entry8b.o ABSOLUTE
    ../clib/microlib/longlong.c              0x00000000   Number         0  llsshr.o ABSOLUTE
    ../clib/microlib/longlong.c              0x00000000   Number         0  llushr.o ABSOLUTE
    ../clib/microlib/longlong.c              0x00000000   Number         0  llshl.o ABSOLUTE
    ../clib/microlib/printf/printf.c         0x00000000   Number         0  printf3.o ABSOLUTE
    ../clib/microlib/printf/printf.c         0x00000000   Number         0  printf2.o ABSOLUTE
    ../clib/microlib/printf/printf.c         0x00000000   Number         0  printf1.o ABSOLUTE
    ../clib/microlib/printf/printf.c         0x00000000   Number         0  printf0.o ABSOLUTE
    ../clib/microlib/printf/printf.c         0x00000000   Number         0  printfb.o ABSOLUTE
    ../clib/microlib/printf/printf.c         0x00000000   Number         0  printfa.o ABSOLUTE
    ../clib/microlib/printf/printf.c         0x00000000   Number         0  printf8.o ABSOLUTE
    ../clib/microlib/printf/printf.c         0x00000000   Number         0  printf7.o ABSOLUTE
    ../clib/microlib/printf/printf.c         0x00000000   Number         0  printf6.o ABSOLUTE
    ../clib/microlib/printf/printf.c         0x00000000   Number         0  printf5.o ABSOLUTE
    ../clib/microlib/printf/printf.c         0x00000000   Number         0  printf4.o ABSOLUTE
    ../clib/microlib/printf/stubs.s          0x00000000   Number         0  stubs.o ABSOLUTE
    ../clib/microlib/stdio/streams.c         0x00000000   Number         0  stdout.o ABSOLUTE
    ../clib/microlib/string/memcpy.c         0x00000000   Number         0  memcpyb.o ABSOLUTE
    ../clib/microlib/string/memcpy.c         0x00000000   Number         0  memcpya.o ABSOLUTE
    ../clib/microlib/string/memset.c         0x00000000   Number         0  memseta.o ABSOLUTE
    ../clib/microlib/string/strlen.c         0x00000000   Number         0  strlen.o ABSOLUTE
    ../clib/microlib/string/strstr.c         0x00000000   Number         0  strstr.o ABSOLUTE
    ../clib/microlib/stubs.s                 0x00000000   Number         0  iusefp.o ABSOLUTE
    ../fplib/microlib/fpadd.c                0x00000000   Number         0  dadd.o ABSOLUTE
    ../fplib/microlib/fpdiv.c                0x00000000   Number         0  ddiv.o ABSOLUTE
    ../fplib/microlib/fpepilogue.c           0x00000000   Number         0  depilogue.o ABSOLUTE
    ../fplib/microlib/fpfix.c                0x00000000   Number         0  dfixul.o ABSOLUTE
    ../fplib/microlib/fpmul.c                0x00000000   Number         0  dmul.o ABSOLUTE
    ..\CMSIS\core_cm3.c                      0x00000000   Number         0  core_cm3.o ABSOLUTE
    ..\CMSIS\system_stm32f10x.c              0x00000000   Number         0  system_stm32f10x.o ABSOLUTE
    ..\Libraries\src\misc.c                  0x00000000   Number         0  misc.o ABSOLUTE
    ..\Libraries\src\stm32f10x_adc.c         0x00000000   Number         0  stm32f10x_adc.o ABSOLUTE
    ..\Libraries\src\stm32f10x_can.c         0x00000000   Number         0  stm32f10x_can.o ABSOLUTE
    ..\Libraries\src\stm32f10x_exti.c        0x00000000   Number         0  stm32f10x_exti.o ABSOLUTE
    ..\Libraries\src\stm32f10x_flash.c       0x00000000   Number         0  stm32f10x_flash.o ABSOLUTE
    ..\Libraries\src\stm32f10x_gpio.c        0x00000000   Number         0  stm32f10x_gpio.o ABSOLUTE
    ..\Libraries\src\stm32f10x_iwdg.c        0x00000000   Number         0  stm32f10x_iwdg.o ABSOLUTE
    ..\Libraries\src\stm32f10x_pwr.c         0x00000000   Number         0  stm32f10x_pwr.o ABSOLUTE
    ..\Libraries\src\stm32f10x_rcc.c         0x00000000   Number         0  stm32f10x_rcc.o ABSOLUTE
    ..\Libraries\src\stm32f10x_tim.c         0x00000000   Number         0  stm32f10x_tim.o ABSOLUTE
    ..\Libraries\src\stm32f10x_usart.c       0x00000000   Number         0  stm32f10x_usart.o ABSOLUTE
    ..\Startup\startup_stm32f10x_hd.s        0x00000000   Number         0  startup_stm32f10x_hd.o ABSOLUTE
    ..\User\ConfigModuleNoBlock.c            0x00000000   Number         0  configmodulenoblock.o ABSOLUTE
    ..\User\delay.c                          0x00000000   Number         0  delay.o ABSOLUTE
    ..\User\main.c                           0x00000000   Number         0  main.o ABSOLUTE
    ..\User\mcu_sys.c                        0x00000000   Number         0  mcu_sys.o ABSOLUTE
    ..\User\stm32f10x_it.c                   0x00000000   Number         0  stm32f10x_it.o ABSOLUTE
    ..\User\timer.c                          0x00000000   Number         0  timer.o ABSOLUTE
    ..\User\usart.c                          0x00000000   Number         0  usart.o ABSOLUTE
    ..\\CMSIS\\core_cm3.c                    0x00000000   Number         0  core_cm3.o ABSOLUTE
    ..\mem\BufferManage.c                    0x00000000   Number         0  buffermanage.o ABSOLUTE
    ..\mem\LoopList.c                        0x00000000   Number         0  looplist.o ABSOLUTE
    cdrcmple.s                               0x00000000   Number         0  cdrcmple.o ABSOLUTE
    dc.s                                     0x00000000   Number         0  dc.o ABSOLUTE
    handlers.s                               0x00000000   Number         0  handlers.o ABSOLUTE
    init.s                                   0x00000000   Number         0  init.o ABSOLUTE
    RESET                                    0x08000000   Section      304  startup_stm32f10x_hd.o(RESET)
    .ARM.Collect$$$$00000000                 0x08000130   Section        0  entry.o(.ARM.Collect$$$$00000000)
    .ARM.Collect$$$$00000001                 0x08000130   Section        4  entry2.o(.ARM.Collect$$$$00000001)
    .ARM.Collect$$$$00000004                 0x08000134   Section        4  entry5.o(.ARM.Collect$$$$00000004)
    .ARM.Collect$$$$00000008                 0x08000138   Section        0  entry7b.o(.ARM.Collect$$$$00000008)
    .ARM.Collect$$$$0000000A                 0x08000138   Section        0  entry8b.o(.ARM.Collect$$$$0000000A)
    .ARM.Collect$$$$0000000B                 0x08000138   Section        8  entry9a.o(.ARM.Collect$$$$0000000B)
    .ARM.Collect$$$$0000000D                 0x08000140   Section        0  entry10a.o(.ARM.Collect$$$$0000000D)
    .ARM.Collect$$$$0000000F                 0x08000140   Section        0  entry11a.o(.ARM.Collect$$$$0000000F)
    .ARM.Collect$$$$00002712                 0x08000140   Section        4  entry2.o(.ARM.Collect$$$$00002712)
    __lit__00000000                          0x08000140   Data           4  entry2.o(.ARM.Collect$$$$00002712)
    .text                                    0x08000144   Section        0  stm32f10x_it.o(.text)
    .text                                    0x08000184   Section        0  main.o(.text)
    .text                                    0x08000224   Section        0  delay.o(.text)
    .text                                    0x080002f8   Section        0  usart.o(.text)
    .text                                    0x08000920   Section        0  timer.o(.text)
    .text                                    0x080009c8   Section        0  mcu_sys.o(.text)
    .text                                    0x080009fc   Section        0  configmodulenoblock.o(.text)
    .text                                    0x08000c1c   Section        0  system_stm32f10x.o(.text)
    SetSysClockTo72                          0x08000c1d   Thumb Code   214  system_stm32f10x.o(.text)
    SetSysClock                              0x08000cf3   Thumb Code     8  system_stm32f10x.o(.text)
    .text                                    0x08000dfc   Section        0  misc.o(.text)
    .text                                    0x08000ed8   Section        0  stm32f10x_rcc.o(.text)
    .text                                    0x0800127c   Section        0  stm32f10x_usart.o(.text)
    .text                                    0x08001684   Section        0  stm32f10x_gpio.o(.text)
    .text                                    0x080019e0   Section        0  stm32f10x_tim.o(.text)
    TI4_Config                               0x08001e87   Thumb Code   130  stm32f10x_tim.o(.text)
    TI3_Config                               0x08001f1b   Thumb Code   122  stm32f10x_tim.o(.text)
    TI2_Config                               0x08001faf   Thumb Code   130  stm32f10x_tim.o(.text)
    TI1_Config                               0x08002043   Thumb Code   108  stm32f10x_tim.o(.text)
    .text                                    0x080027fc   Section       36  startup_stm32f10x_hd.o(.text)
    .text                                    0x08002820   Section        0  looplist.o(.text)
    .text                                    0x08002a1c   Section        0  memcpya.o(.text)
    .text                                    0x08002a40   Section        0  memseta.o(.text)
    .text                                    0x08002a64   Section        0  strstr.o(.text)
    .text                                    0x08002a88   Section        0  strlen.o(.text)
    .text                                    0x08002a98   Section       36  init.o(.text)
    i.__0printf$2                            0x08002abc   Section        0  printf2.o(i.__0printf$2)
    i.__0sprintf$2                           0x08002adc   Section        0  printf2.o(i.__0sprintf$2)
    i.__scatterload_copy                     0x08002b04   Section       14  handlers.o(i.__scatterload_copy)
    i.__scatterload_null                     0x08002b12   Section        2  handlers.o(i.__scatterload_null)
    i.__scatterload_zeroinit                 0x08002b14   Section       14  handlers.o(i.__scatterload_zeroinit)
    i._printf_core                           0x08002b22   Section        0  printf2.o(i._printf_core)
    _printf_core                             0x08002b23   Thumb Code   214  printf2.o(i._printf_core)
    i._sputc                                 0x08002bf8   Section        0  printf2.o(i._sputc)
    _sputc                                   0x08002bf9   Thumb Code    10  printf2.o(i._sputc)
    .data                                    0x20000000   Section        8  main.o(.data)
    .data                                    0x20000008   Section        4  delay.o(.data)
    fac_us                                   0x20000008   Data           1  delay.o(.data)
    fac_ms                                   0x2000000a   Data           2  delay.o(.data)
    .data                                    0x2000000c   Section       28  usart.o(.data)
    flag                                     0x20000026   Data           1  usart.o(.data)
    flage                                    0x20000027   Data           1  usart.o(.data)
    .data                                    0x20000028   Section        4  timer.o(.data)
    .data                                    0x2000002c   Section       29  configmodulenoblock.o(.data)
    .data                                    0x2000004c   Section       20  system_stm32f10x.o(.data)
    .data                                    0x20000060   Section       20  stm32f10x_rcc.o(.data)
    APBAHBPrescTable                         0x20000060   Data          16  stm32f10x_rcc.o(.data)
    ADCPrescTable                            0x20000070   Data           4  stm32f10x_rcc.o(.data)
    .data                                    0x20000074   Section        4  stdout.o(.data)
    .bss                                     0x20000078   Section     6424  usart.o(.bss)
    .bss                                     0x20001990   Section       40  configmodulenoblock.o(.bss)
    STACK                                    0x200019b8   Section     1024  startup_stm32f10x_hd.o(STACK)

    Global Symbols

    Symbol Name                              Value     Ov Type        Size  Object(Section)

    BuildAttributes$$THM_ISAv4$P$D$K$B$S$PE$A:L22UL41UL21$X:L11$S22US41US21$IEEE1$IW$USESV6$~STKCKD$USESV7$~SHL$OSPACE$ROPI$EBA8$MICROLIB$REQ8$PRES8$EABIv2 0x00000000   Number         0  anon$$obj.o ABSOLUTE
    __ARM_use_no_argv                        0x00000000   Number         0  main.o ABSOLUTE
    _printf_a                                0x00000000   Number         0  stubs.o ABSOLUTE
    _printf_c                                0x00000000   Number         0  stubs.o ABSOLUTE
    _printf_charcount                        0x00000000   Number         0  stubs.o ABSOLUTE
    _printf_d                                0x00000000   Number         0  stubs.o ABSOLUTE
    _printf_e                                0x00000000   Number         0  stubs.o ABSOLUTE
    _printf_f                                0x00000000   Number         0  stubs.o ABSOLUTE
    _printf_flags                            0x00000000   Number         0  stubs.o ABSOLUTE
    _printf_fp_dec                           0x00000000   Number         0  stubs.o ABSOLUTE
    _printf_fp_hex                           0x00000000   Number         0  stubs.o ABSOLUTE
    _printf_g                                0x00000000   Number         0  stubs.o ABSOLUTE
    _printf_i                                0x00000000   Number         0  stubs.o ABSOLUTE
    _printf_int_dec                          0x00000000   Number         0  stubs.o ABSOLUTE
    _printf_l                                0x00000000   Number         0  stubs.o ABSOLUTE
    _printf_lc                               0x00000000   Number         0  stubs.o ABSOLUTE
    _printf_ll                               0x00000000   Number         0  stubs.o ABSOLUTE
    _printf_lld                              0x00000000   Number         0  stubs.o ABSOLUTE
    _printf_lli                              0x00000000   Number         0  stubs.o ABSOLUTE
    _printf_llo                              0x00000000   Number         0  stubs.o ABSOLUTE
    _printf_llu                              0x00000000   Number         0  stubs.o ABSOLUTE
    _printf_llx                              0x00000000   Number         0  stubs.o ABSOLUTE
    _printf_longlong_dec                     0x00000000   Number         0  stubs.o ABSOLUTE
    _printf_longlong_hex                     0x00000000   Number         0  stubs.o ABSOLUTE
    _printf_longlong_oct                     0x00000000   Number         0  stubs.o ABSOLUTE
    _printf_ls                               0x00000000   Number         0  stubs.o ABSOLUTE
    _printf_mbtowc                           0x00000000   Number         0  stubs.o ABSOLUTE
    _printf_n                                0x00000000   Number         0  stubs.o ABSOLUTE
    _printf_o                                0x00000000   Number         0  stubs.o ABSOLUTE
    _printf_p                                0x00000000   Number         0  stubs.o ABSOLUTE
    _printf_percent                          0x00000000   Number         0  stubs.o ABSOLUTE
    _printf_pre_padding                      0x00000000   Number         0  stubs.o ABSOLUTE
    _printf_return_value                     0x00000000   Number         0  stubs.o ABSOLUTE
    _printf_s                                0x00000000   Number         0  stubs.o ABSOLUTE
    _printf_sizespec                         0x00000000   Number         0  stubs.o ABSOLUTE
    _printf_str                              0x00000000   Number         0  stubs.o ABSOLUTE
    _printf_truncate_signed                  0x00000000   Number         0  stubs.o ABSOLUTE
    _printf_truncate_unsigned                0x00000000   Number         0  stubs.o ABSOLUTE
    _printf_u                                0x00000000   Number         0  stubs.o ABSOLUTE
    _printf_wc                               0x00000000   Number         0  stubs.o ABSOLUTE
    _printf_wctomb                           0x00000000   Number         0  stubs.o ABSOLUTE
    _printf_widthprec                        0x00000000   Number         0  stubs.o ABSOLUTE
    _printf_x                                0x00000000   Number         0  stubs.o ABSOLUTE
    __cpp_initialize__aeabi_                  - Undefined Weak Reference
    __cxa_finalize                            - Undefined Weak Reference
    __decompress                              - Undefined Weak Reference
    _clock_init                               - Undefined Weak Reference
    _microlib_exit                            - Undefined Weak Reference
    __Vectors_Size                           0x00000130   Number         0  startup_stm32f10x_hd.o ABSOLUTE
    __Vectors                                0x08000000   Data           4  startup_stm32f10x_hd.o(RESET)
    __Vectors_End                            0x08000130   Data           0  startup_stm32f10x_hd.o(RESET)
    __main                                   0x08000131   Thumb Code     0  entry.o(.ARM.Collect$$$$00000000)
    _main_stk                                0x08000131   Thumb Code     0  entry2.o(.ARM.Collect$$$$00000001)
    _main_scatterload                        0x08000135   Thumb Code     0  entry5.o(.ARM.Collect$$$$00000004)
    __main_after_scatterload                 0x08000139   Thumb Code     0  entry5.o(.ARM.Collect$$$$00000004)
    _main_clock                              0x08000139   Thumb Code     0  entry7b.o(.ARM.Collect$$$$00000008)
    _main_cpp_init                           0x08000139   Thumb Code     0  entry8b.o(.ARM.Collect$$$$0000000A)
    _main_init                               0x08000139   Thumb Code     0  entry9a.o(.ARM.Collect$$$$0000000B)
    __rt_final_cpp                           0x08000141   Thumb Code     0  entry10a.o(.ARM.Collect$$$$0000000D)
    __rt_final_exit                          0x08000141   Thumb Code     0  entry11a.o(.ARM.Collect$$$$0000000F)
    NMI_Handler                              0x08000145   Thumb Code     2  stm32f10x_it.o(.text)
    HardFault_Handler                        0x08000147   Thumb Code    36  stm32f10x_it.o(.text)
    MemManage_Handler                        0x0800016b   Thumb Code     4  stm32f10x_it.o(.text)
    BusFault_Handler                         0x0800016f   Thumb Code     4  stm32f10x_it.o(.text)
    UsageFault_Handler                       0x08000173   Thumb Code     4  stm32f10x_it.o(.text)
    SVC_Handler                              0x08000177   Thumb Code     2  stm32f10x_it.o(.text)
    DebugMon_Handler                         0x08000179   Thumb Code     2  stm32f10x_it.o(.text)
    PendSV_Handler                           0x0800017b   Thumb Code     2  stm32f10x_it.o(.text)
    main                                     0x08000185   Thumb Code   120  main.o(.text)
    delay_init                               0x08000225   Thumb Code    50  delay.o(.text)
    delay_us                                 0x08000257   Thumb Code    72  delay.o(.text)
    delay_ms                                 0x0800029f   Thumb Code    72  delay.o(.text)
    usart_init                               0x080002f9   Thumb Code   460  usart.o(.text)
    UsartOutStrIT                            0x080004c5   Thumb Code   110  usart.o(.text)
    UsartOutStr                              0x08000533   Thumb Code   114  usart.o(.text)
    UsartOutChar                             0x080005a5   Thumb Code    30  usart.o(.text)
    Usart2IdleLoop                           0x080005c3   Thumb Code    68  usart.o(.text)
    USART1_IRQHandler                        0x08000607   Thumb Code   186  usart.o(.text)
    USART2_IRQHandler                        0x080006c1   Thumb Code   258  usart.o(.text)
    USART3_IRQHandler                        0x080007c3   Thumb Code   222  usart.o(.text)
    fputc                                    0x080008a1   Thumb Code    58  usart.o(.text)
    timer2_init                              0x08000921   Thumb Code   110  timer.o(.text)
    TIM2_IRQHandler                          0x0800098f   Thumb Code    50  timer.o(.text)
    NVIC_Configuration                       0x080009c9   Thumb Code    12  mcu_sys.o(.text)
    mcu_sys_reset                            0x080009d5   Thumb Code    32  mcu_sys.o(.text)
    FunctionParseSendAT                      0x080009fd   Thumb Code    14  configmodulenoblock.o(.text)
    ConfigModuleRunNext                      0x08000a0b   Thumb Code    32  configmodulenoblock.o(.text)
    FunctionParseGetID                       0x08000a2b   Thumb Code    26  configmodulenoblock.o(.text)
    SendConfigFunction                       0x08000a45   Thumb Code   112  configmodulenoblock.o(.text)
    FunctionParseCompare                     0x08000ab5   Thumb Code    96  configmodulenoblock.o(.text)
    ConfigModuleNoBlock                      0x08000b15   Thumb Code   202  configmodulenoblock.o(.text)
    SystemInit                               0x08000cfb   Thumb Code    78  system_stm32f10x.o(.text)
    SystemCoreClockUpdate                    0x08000d49   Thumb Code   142  system_stm32f10x.o(.text)
    NVIC_PriorityGroupConfig                 0x08000dfd   Thumb Code    10  misc.o(.text)
    NVIC_Init                                0x08000e07   Thumb Code   100  misc.o(.text)
    NVIC_SetVectorTable                      0x08000e6b   Thumb Code    14  misc.o(.text)
    NVIC_SystemLPConfig                      0x08000e79   Thumb Code    34  misc.o(.text)
    SysTick_CLKSourceConfig                  0x08000e9b   Thumb Code    40  misc.o(.text)
    RCC_DeInit                               0x08000ed9   Thumb Code    64  stm32f10x_rcc.o(.text)
    RCC_HSEConfig                            0x08000f19   Thumb Code    70  stm32f10x_rcc.o(.text)
    RCC_GetFlagStatus                        0x08000f5f   Thumb Code    56  stm32f10x_rcc.o(.text)
    RCC_WaitForHSEStartUp                    0x08000f97   Thumb Code    56  stm32f10x_rcc.o(.text)
    RCC_AdjustHSICalibrationValue            0x08000fcf   Thumb Code    20  stm32f10x_rcc.o(.text)
    RCC_HSICmd                               0x08000fe3   Thumb Code     6  stm32f10x_rcc.o(.text)
    RCC_PLLConfig                            0x08000fe9   Thumb Code    24  stm32f10x_rcc.o(.text)
    RCC_PLLCmd                               0x08001001   Thumb Code     6  stm32f10x_rcc.o(.text)
    RCC_SYSCLKConfig                         0x08001007   Thumb Code    18  stm32f10x_rcc.o(.text)
    RCC_GetSYSCLKSource                      0x08001019   Thumb Code    10  stm32f10x_rcc.o(.text)
    RCC_HCLKConfig                           0x08001023   Thumb Code    18  stm32f10x_rcc.o(.text)
    RCC_PCLK1Config                          0x08001035   Thumb Code    18  stm32f10x_rcc.o(.text)
    RCC_PCLK2Config                          0x08001047   Thumb Code    20  stm32f10x_rcc.o(.text)
    RCC_ITConfig                             0x0800105b   Thumb Code    26  stm32f10x_rcc.o(.text)
    RCC_USBCLKConfig                         0x08001075   Thumb Code     8  stm32f10x_rcc.o(.text)
    RCC_ADCCLKConfig                         0x0800107d   Thumb Code    18  stm32f10x_rcc.o(.text)
    RCC_LSEConfig                            0x0800108f   Thumb Code    50  stm32f10x_rcc.o(.text)
    RCC_LSICmd                               0x080010c1   Thumb Code     6  stm32f10x_rcc.o(.text)
    RCC_RTCCLKConfig                         0x080010c7   Thumb Code    12  stm32f10x_rcc.o(.text)
    RCC_RTCCLKCmd                            0x080010d3   Thumb Code     8  stm32f10x_rcc.o(.text)
    RCC_GetClocksFreq                        0x080010db   Thumb Code   192  stm32f10x_rcc.o(.text)
    RCC_AHBPeriphClockCmd                    0x0800119b   Thumb Code    26  stm32f10x_rcc.o(.text)
    RCC_APB2PeriphClockCmd                   0x080011b5   Thumb Code    26  stm32f10x_rcc.o(.text)
    RCC_APB1PeriphClockCmd                   0x080011cf   Thumb Code    26  stm32f10x_rcc.o(.text)
    RCC_APB2PeriphResetCmd                   0x080011e9   Thumb Code    26  stm32f10x_rcc.o(.text)
    RCC_APB1PeriphResetCmd                   0x08001203   Thumb Code    26  stm32f10x_rcc.o(.text)
    RCC_BackupResetCmd                       0x0800121d   Thumb Code     8  stm32f10x_rcc.o(.text)
    RCC_ClockSecuritySystemCmd               0x08001225   Thumb Code     6  stm32f10x_rcc.o(.text)
    RCC_MCOConfig                            0x0800122b   Thumb Code     6  stm32f10x_rcc.o(.text)
    RCC_ClearFlag                            0x08001231   Thumb Code    14  stm32f10x_rcc.o(.text)
    RCC_GetITStatus                          0x0800123f   Thumb Code    20  stm32f10x_rcc.o(.text)
    RCC_ClearITPendingBit                    0x08001253   Thumb Code     6  stm32f10x_rcc.o(.text)
    USART_DeInit                             0x0800127d   Thumb Code   134  stm32f10x_usart.o(.text)
    USART_Init                               0x08001303   Thumb Code   210  stm32f10x_usart.o(.text)
    USART_StructInit                         0x080013d5   Thumb Code    24  stm32f10x_usart.o(.text)
    USART_ClockInit                          0x080013ed   Thumb Code    34  stm32f10x_usart.o(.text)
    USART_ClockStructInit                    0x0800140f   Thumb Code    12  stm32f10x_usart.o(.text)
    USART_Cmd                                0x0800141b   Thumb Code    24  stm32f10x_usart.o(.text)
    USART_ITConfig                           0x08001433   Thumb Code    74  stm32f10x_usart.o(.text)
    USART_DMACmd                             0x0800147d   Thumb Code    18  stm32f10x_usart.o(.text)
    USART_SetAddress                         0x0800148f   Thumb Code    18  stm32f10x_usart.o(.text)
    USART_WakeUpConfig                       0x080014a1   Thumb Code    18  stm32f10x_usart.o(.text)
    USART_ReceiverWakeUpCmd                  0x080014b3   Thumb Code    24  stm32f10x_usart.o(.text)
    USART_LINBreakDetectLengthConfig         0x080014cb   Thumb Code    18  stm32f10x_usart.o(.text)
    USART_LINCmd                             0x080014dd   Thumb Code    24  stm32f10x_usart.o(.text)
    USART_SendData                           0x080014f5   Thumb Code     8  stm32f10x_usart.o(.text)
    USART_ReceiveData                        0x080014fd   Thumb Code    10  stm32f10x_usart.o(.text)
    USART_SendBreak                          0x08001507   Thumb Code    10  stm32f10x_usart.o(.text)
    USART_SetGuardTime                       0x08001511   Thumb Code    16  stm32f10x_usart.o(.text)
    USART_SetPrescaler                       0x08001521   Thumb Code    16  stm32f10x_usart.o(.text)
    USART_SmartCardCmd                       0x08001531   Thumb Code    24  stm32f10x_usart.o(.text)
    USART_SmartCardNACKCmd                   0x08001549   Thumb Code    24  stm32f10x_usart.o(.text)
    USART_HalfDuplexCmd                      0x08001561   Thumb Code    24  stm32f10x_usart.o(.text)
    USART_OverSampling8Cmd                   0x08001579   Thumb Code    22  stm32f10x_usart.o(.text)
    USART_OneBitMethodCmd                    0x0800158f   Thumb Code    24  stm32f10x_usart.o(.text)
    USART_IrDAConfig                         0x080015a7   Thumb Code    18  stm32f10x_usart.o(.text)
    USART_IrDACmd                            0x080015b9   Thumb Code    24  stm32f10x_usart.o(.text)
    USART_GetFlagStatus                      0x080015d1   Thumb Code    26  stm32f10x_usart.o(.text)
    USART_ClearFlag                          0x080015eb   Thumb Code    18  stm32f10x_usart.o(.text)
    USART_GetITStatus                        0x080015fd   Thumb Code    84  stm32f10x_usart.o(.text)
    USART_ClearITPendingBit                  0x08001651   Thumb Code    52  stm32f10x_usart.o(.text)
    GPIO_DeInit                              0x08001685   Thumb Code   172  stm32f10x_gpio.o(.text)
    GPIO_AFIODeInit                          0x08001731   Thumb Code    20  stm32f10x_gpio.o(.text)
    GPIO_Init                                0x08001745   Thumb Code   278  stm32f10x_gpio.o(.text)
    GPIO_StructInit                          0x0800185b   Thumb Code    16  stm32f10x_gpio.o(.text)
    GPIO_ReadInputDataBit                    0x0800186b   Thumb Code    18  stm32f10x_gpio.o(.text)
    GPIO_ReadInputData                       0x0800187d   Thumb Code     8  stm32f10x_gpio.o(.text)
    GPIO_ReadOutputDataBit                   0x08001885   Thumb Code    18  stm32f10x_gpio.o(.text)
    GPIO_ReadOutputData                      0x08001897   Thumb Code     8  stm32f10x_gpio.o(.text)
    GPIO_SetBits                             0x0800189f   Thumb Code     4  stm32f10x_gpio.o(.text)
    GPIO_ResetBits                           0x080018a3   Thumb Code     4  stm32f10x_gpio.o(.text)
    GPIO_WriteBit                            0x080018a7   Thumb Code    10  stm32f10x_gpio.o(.text)
    GPIO_Write                               0x080018b1   Thumb Code     4  stm32f10x_gpio.o(.text)
    GPIO_PinLockConfig                       0x080018b5   Thumb Code    18  stm32f10x_gpio.o(.text)
    GPIO_EventOutputConfig                   0x080018c7   Thumb Code    26  stm32f10x_gpio.o(.text)
    GPIO_EventOutputCmd                      0x080018e1   Thumb Code     6  stm32f10x_gpio.o(.text)
    GPIO_PinRemapConfig                      0x080018e7   Thumb Code   138  stm32f10x_gpio.o(.text)
    GPIO_EXTILineConfig                      0x08001971   Thumb Code    66  stm32f10x_gpio.o(.text)
    GPIO_ETH_MediaInterfaceConfig            0x080019b3   Thumb Code     8  stm32f10x_gpio.o(.text)
    TIM_DeInit                               0x080019e1   Thumb Code   424  stm32f10x_tim.o(.text)
    TIM_TimeBaseInit                         0x08001b89   Thumb Code   122  stm32f10x_tim.o(.text)
    TIM_OC1Init                              0x08001c03   Thumb Code   132  stm32f10x_tim.o(.text)
    TIM_OC2Init                              0x08001c87   Thumb Code   154  stm32f10x_tim.o(.text)
    TIM_OC3Init                              0x08001d21   Thumb Code   150  stm32f10x_tim.o(.text)
    TIM_OC4Init                              0x08001db7   Thumb Code   182  stm32f10x_tim.o(.text)
    TIM_SetIC4Prescaler                      0x08001e6d   Thumb Code    26  stm32f10x_tim.o(.text)
    TIM_SetIC3Prescaler                      0x08001f09   Thumb Code    18  stm32f10x_tim.o(.text)
    TIM_SetIC2Prescaler                      0x08001f95   Thumb Code    26  stm32f10x_tim.o(.text)
    TIM_SetIC1Prescaler                      0x08002031   Thumb Code    18  stm32f10x_tim.o(.text)
    TIM_ICInit                               0x080020af   Thumb Code   150  stm32f10x_tim.o(.text)
    TIM_PWMIConfig                           0x08002145   Thumb Code   124  stm32f10x_tim.o(.text)
    TIM_BDTRConfig                           0x080021c1   Thumb Code    32  stm32f10x_tim.o(.text)
    TIM_TimeBaseStructInit                   0x080021e1   Thumb Code    18  stm32f10x_tim.o(.text)
    TIM_OCStructInit                         0x080021f3   Thumb Code    20  stm32f10x_tim.o(.text)
    TIM_ICStructInit                         0x08002207   Thumb Code    18  stm32f10x_tim.o(.text)
    TIM_BDTRStructInit                       0x08002219   Thumb Code    40  stm32f10x_tim.o(.text)
    TIM_Cmd                                  0x08002241   Thumb Code    24  stm32f10x_tim.o(.text)
    TIM_CtrlPWMOutputs                       0x08002259   Thumb Code    30  stm32f10x_tim.o(.text)
    TIM_ITConfig                             0x08002277   Thumb Code    18  stm32f10x_tim.o(.text)
    TIM_GenerateEvent                        0x08002289   Thumb Code     4  stm32f10x_tim.o(.text)
    TIM_DMAConfig                            0x0800228d   Thumb Code    10  stm32f10x_tim.o(.text)
    TIM_DMACmd                               0x08002297   Thumb Code    18  stm32f10x_tim.o(.text)
    TIM_InternalClockConfig                  0x080022a9   Thumb Code    12  stm32f10x_tim.o(.text)
    TIM_SelectInputTrigger                   0x080022b5   Thumb Code    18  stm32f10x_tim.o(.text)
    TIM_ITRxExternalClockConfig              0x080022c7   Thumb Code    24  stm32f10x_tim.o(.text)
    TIM_TIxExternalClockConfig               0x080022df   Thumb Code    62  stm32f10x_tim.o(.text)
    TIM_ETRConfig                            0x0800231d   Thumb Code    28  stm32f10x_tim.o(.text)
    TIM_ETRClockMode1Config                  0x08002339   Thumb Code    54  stm32f10x_tim.o(.text)
    TIM_ETRClockMode2Config                  0x0800236f   Thumb Code    32  stm32f10x_tim.o(.text)
    TIM_PrescalerConfig                      0x0800238f   Thumb Code     6  stm32f10x_tim.o(.text)
    TIM_CounterModeConfig                    0x08002395   Thumb Code    18  stm32f10x_tim.o(.text)
    TIM_EncoderInterfaceConfig               0x080023a7   Thumb Code    66  stm32f10x_tim.o(.text)
    TIM_ForcedOC1Config                      0x080023e9   Thumb Code    18  stm32f10x_tim.o(.text)
    TIM_ForcedOC2Config                      0x080023fb   Thumb Code    26  stm32f10x_tim.o(.text)
    TIM_ForcedOC3Config                      0x08002415   Thumb Code    18  stm32f10x_tim.o(.text)
    TIM_ForcedOC4Config                      0x08002427   Thumb Code    26  stm32f10x_tim.o(.text)
    TIM_ARRPreloadConfig                     0x08002441   Thumb Code    24  stm32f10x_tim.o(.text)
    TIM_SelectCOM                            0x08002459   Thumb Code    24  stm32f10x_tim.o(.text)
    TIM_SelectCCDMA                          0x08002471   Thumb Code    24  stm32f10x_tim.o(.text)
    TIM_CCPreloadControl                     0x08002489   Thumb Code    24  stm32f10x_tim.o(.text)
    TIM_OC1PreloadConfig                     0x080024a1   Thumb Code    18  stm32f10x_tim.o(.text)
    TIM_OC2PreloadConfig                     0x080024b3   Thumb Code    26  stm32f10x_tim.o(.text)
    TIM_OC3PreloadConfig                     0x080024cd   Thumb Code    18  stm32f10x_tim.o(.text)
    TIM_OC4PreloadConfig                     0x080024df   Thumb Code    26  stm32f10x_tim.o(.text)
    TIM_OC1FastConfig                        0x080024f9   Thumb Code    18  stm32f10x_tim.o(.text)
    TIM_OC2FastConfig                        0x0800250b   Thumb Code    26  stm32f10x_tim.o(.text)
    TIM_OC3FastConfig                        0x08002525   Thumb Code    18  stm32f10x_tim.o(.text)
    TIM_OC4FastConfig                        0x08002537   Thumb Code    26  stm32f10x_tim.o(.text)
    TIM_ClearOC1Ref                          0x08002551   Thumb Code    18  stm32f10x_tim.o(.text)
    TIM_ClearOC2Ref                          0x08002563   Thumb Code    24  stm32f10x_tim.o(.text)
    TIM_ClearOC3Ref                          0x0800257b   Thumb Code    18  stm32f10x_tim.o(.text)
    TIM_ClearOC4Ref                          0x0800258d   Thumb Code    24  stm32f10x_tim.o(.text)
    TIM_OC1PolarityConfig                    0x080025a5   Thumb Code    18  stm32f10x_tim.o(.text)
    TIM_OC1NPolarityConfig                   0x080025b7   Thumb Code    18  stm32f10x_tim.o(.text)
    TIM_OC2PolarityConfig                    0x080025c9   Thumb Code    26  stm32f10x_tim.o(.text)
    TIM_OC2NPolarityConfig                   0x080025e3   Thumb Code    26  stm32f10x_tim.o(.text)
    TIM_OC3PolarityConfig                    0x080025fd   Thumb Code    26  stm32f10x_tim.o(.text)
    TIM_OC3NPolarityConfig                   0x08002617   Thumb Code    26  stm32f10x_tim.o(.text)
    TIM_OC4PolarityConfig                    0x08002631   Thumb Code    26  stm32f10x_tim.o(.text)
    TIM_CCxCmd                               0x0800264b   Thumb Code    30  stm32f10x_tim.o(.text)
    TIM_CCxNCmd                              0x08002669   Thumb Code    30  stm32f10x_tim.o(.text)
    TIM_SelectOCxM                           0x08002687   Thumb Code    82  stm32f10x_tim.o(.text)
    TIM_UpdateDisableConfig                  0x080026d9   Thumb Code    24  stm32f10x_tim.o(.text)
    TIM_UpdateRequestConfig                  0x080026f1   Thumb Code    24  stm32f10x_tim.o(.text)
    TIM_SelectHallSensor                     0x08002709   Thumb Code    24  stm32f10x_tim.o(.text)
    TIM_SelectOnePulseMode                   0x08002721   Thumb Code    18  stm32f10x_tim.o(.text)
    TIM_SelectOutputTrigger                  0x08002733   Thumb Code    18  stm32f10x_tim.o(.text)
    TIM_SelectSlaveMode                      0x08002745   Thumb Code    18  stm32f10x_tim.o(.text)
    TIM_SelectMasterSlaveMode                0x08002757   Thumb Code    18  stm32f10x_tim.o(.text)
    TIM_SetCounter                           0x08002769   Thumb Code     4  stm32f10x_tim.o(.text)
    TIM_SetAutoreload                        0x0800276d   Thumb Code     4  stm32f10x_tim.o(.text)
    TIM_SetCompare1                          0x08002771   Thumb Code     4  stm32f10x_tim.o(.text)
    TIM_SetCompare2                          0x08002775   Thumb Code     4  stm32f10x_tim.o(.text)
    TIM_SetCompare3                          0x08002779   Thumb Code     4  stm32f10x_tim.o(.text)
    TIM_SetCompare4                          0x0800277d   Thumb Code     6  stm32f10x_tim.o(.text)
    TIM_SetClockDivision                     0x08002783   Thumb Code    18  stm32f10x_tim.o(.text)
    TIM_GetCapture1                          0x08002795   Thumb Code     6  stm32f10x_tim.o(.text)
    TIM_GetCapture2                          0x0800279b   Thumb Code     6  stm32f10x_tim.o(.text)
    TIM_GetCapture3                          0x080027a1   Thumb Code     6  stm32f10x_tim.o(.text)
    TIM_GetCapture4                          0x080027a7   Thumb Code     8  stm32f10x_tim.o(.text)
    TIM_GetCounter                           0x080027af   Thumb Code     6  stm32f10x_tim.o(.text)
    TIM_GetPrescaler                         0x080027b5   Thumb Code     6  stm32f10x_tim.o(.text)
    TIM_GetFlagStatus                        0x080027bb   Thumb Code    18  stm32f10x_tim.o(.text)
    TIM_ClearFlag                            0x080027cd   Thumb Code     6  stm32f10x_tim.o(.text)
    TIM_GetITStatus                          0x080027d3   Thumb Code    34  stm32f10x_tim.o(.text)
    TIM_ClearITPendingBit                    0x080027f5   Thumb Code     6  stm32f10x_tim.o(.text)
    Reset_Handler                            0x080027fd   Thumb Code     8  startup_stm32f10x_hd.o(.text)
    SysTick_Handler                          0x08002815   Thumb Code     2  startup_stm32f10x_hd.o(.text)
    ADC1_2_IRQHandler                        0x08002817   Thumb Code     0  startup_stm32f10x_hd.o(.text)
    ADC3_IRQHandler                          0x08002817   Thumb Code     0  startup_stm32f10x_hd.o(.text)
    CAN1_RX1_IRQHandler                      0x08002817   Thumb Code     0  startup_stm32f10x_hd.o(.text)
    CAN1_SCE_IRQHandler                      0x08002817   Thumb Code     0  startup_stm32f10x_hd.o(.text)
    DMA1_Channel1_IRQHandler                 0x08002817   Thumb Code     0  startup_stm32f10x_hd.o(.text)
    DMA1_Channel2_IRQHandler                 0x08002817   Thumb Code     0  startup_stm32f10x_hd.o(.text)
    DMA1_Channel3_IRQHandler                 0x08002817   Thumb Code     0  startup_stm32f10x_hd.o(.text)
    DMA1_Channel4_IRQHandler                 0x08002817   Thumb Code     0  startup_stm32f10x_hd.o(.text)
    DMA1_Channel5_IRQHandler                 0x08002817   Thumb Code     0  startup_stm32f10x_hd.o(.text)
    DMA1_Channel6_IRQHandler                 0x08002817   Thumb Code     0  startup_stm32f10x_hd.o(.text)
    DMA1_Channel7_IRQHandler                 0x08002817   Thumb Code     0  startup_stm32f10x_hd.o(.text)
    DMA2_Channel1_IRQHandler                 0x08002817   Thumb Code     0  startup_stm32f10x_hd.o(.text)
    DMA2_Channel2_IRQHandler                 0x08002817   Thumb Code     0  startup_stm32f10x_hd.o(.text)
    DMA2_Channel3_IRQHandler                 0x08002817   Thumb Code     0  startup_stm32f10x_hd.o(.text)
    DMA2_Channel4_5_IRQHandler               0x08002817   Thumb Code     0  startup_stm32f10x_hd.o(.text)
    EXTI0_IRQHandler                         0x08002817   Thumb Code     0  startup_stm32f10x_hd.o(.text)
    EXTI15_10_IRQHandler                     0x08002817   Thumb Code     0  startup_stm32f10x_hd.o(.text)
    EXTI1_IRQHandler                         0x08002817   Thumb Code     0  startup_stm32f10x_hd.o(.text)
    EXTI2_IRQHandler                         0x08002817   Thumb Code     0  startup_stm32f10x_hd.o(.text)
    EXTI3_IRQHandler                         0x08002817   Thumb Code     0  startup_stm32f10x_hd.o(.text)
    EXTI4_IRQHandler                         0x08002817   Thumb Code     0  startup_stm32f10x_hd.o(.text)
    EXTI9_5_IRQHandler                       0x08002817   Thumb Code     0  startup_stm32f10x_hd.o(.text)
    FLASH_IRQHandler                         0x08002817   Thumb Code     0  startup_stm32f10x_hd.o(.text)
    FSMC_IRQHandler                          0x08002817   Thumb Code     0  startup_stm32f10x_hd.o(.text)
    I2C1_ER_IRQHandler                       0x08002817   Thumb Code     0  startup_stm32f10x_hd.o(.text)
    I2C1_EV_IRQHandler                       0x08002817   Thumb Code     0  startup_stm32f10x_hd.o(.text)
    I2C2_ER_IRQHandler                       0x08002817   Thumb Code     0  startup_stm32f10x_hd.o(.text)
    I2C2_EV_IRQHandler                       0x08002817   Thumb Code     0  startup_stm32f10x_hd.o(.text)
    PVD_IRQHandler                           0x08002817   Thumb Code     0  startup_stm32f10x_hd.o(.text)
    RCC_IRQHandler                           0x08002817   Thumb Code     0  startup_stm32f10x_hd.o(.text)
    RTCAlarm_IRQHandler                      0x08002817   Thumb Code     0  startup_stm32f10x_hd.o(.text)
    RTC_IRQHandler                           0x08002817   Thumb Code     0  startup_stm32f10x_hd.o(.text)
    SDIO_IRQHandler                          0x08002817   Thumb Code     0  startup_stm32f10x_hd.o(.text)
    SPI1_IRQHandler                          0x08002817   Thumb Code     0  startup_stm32f10x_hd.o(.text)
    SPI2_IRQHandler                          0x08002817   Thumb Code     0  startup_stm32f10x_hd.o(.text)
    SPI3_IRQHandler                          0x08002817   Thumb Code     0  startup_stm32f10x_hd.o(.text)
    TAMPER_IRQHandler                        0x08002817   Thumb Code     0  startup_stm32f10x_hd.o(.text)
    TIM1_BRK_IRQHandler                      0x08002817   Thumb Code     0  startup_stm32f10x_hd.o(.text)
    TIM1_CC_IRQHandler                       0x08002817   Thumb Code     0  startup_stm32f10x_hd.o(.text)
    TIM1_TRG_COM_IRQHandler                  0x08002817   Thumb Code     0  startup_stm32f10x_hd.o(.text)
    TIM1_UP_IRQHandler                       0x08002817   Thumb Code     0  startup_stm32f10x_hd.o(.text)
    TIM3_IRQHandler                          0x08002817   Thumb Code     0  startup_stm32f10x_hd.o(.text)
    TIM4_IRQHandler                          0x08002817   Thumb Code     0  startup_stm32f10x_hd.o(.text)
    TIM5_IRQHandler                          0x08002817   Thumb Code     0  startup_stm32f10x_hd.o(.text)
    TIM6_IRQHandler                          0x08002817   Thumb Code     0  startup_stm32f10x_hd.o(.text)
    TIM7_IRQHandler                          0x08002817   Thumb Code     0  startup_stm32f10x_hd.o(.text)
    TIM8_BRK_IRQHandler                      0x08002817   Thumb Code     0  startup_stm32f10x_hd.o(.text)
    TIM8_CC_IRQHandler                       0x08002817   Thumb Code     0  startup_stm32f10x_hd.o(.text)
    TIM8_TRG_COM_IRQHandler                  0x08002817   Thumb Code     0  startup_stm32f10x_hd.o(.text)
    TIM8_UP_IRQHandler                       0x08002817   Thumb Code     0  startup_stm32f10x_hd.o(.text)
    UART4_IRQHandler                         0x08002817   Thumb Code     0  startup_stm32f10x_hd.o(.text)
    UART5_IRQHandler                         0x08002817   Thumb Code     0  startup_stm32f10x_hd.o(.text)
    USBWakeUp_IRQHandler                     0x08002817   Thumb Code     0  startup_stm32f10x_hd.o(.text)
    USB_HP_CAN1_TX_IRQHandler                0x08002817   Thumb Code     0  startup_stm32f10x_hd.o(.text)
    USB_LP_CAN1_RX0_IRQHandler               0x08002817   Thumb Code     0  startup_stm32f10x_hd.o(.text)
    WWDG_IRQHandler                          0x08002817   Thumb Code     0  startup_stm32f10x_hd.o(.text)
    rbCreate                                 0x08002821   Thumb Code    20  looplist.o(.text)
    rbDelete                                 0x08002835   Thumb Code    18  looplist.o(.text)
    rbCapacity                               0x08002847   Thumb Code    14  looplist.o(.text)
    rbCanRead                                0x08002855   Thumb Code    56  looplist.o(.text)
    rbCanWrite                               0x0800288d   Thumb Code    30  looplist.o(.text)
    rbRead                                   0x080028ab   Thumb Code   164  looplist.o(.text)
    rbWrite                                  0x0800294f   Thumb Code   160  looplist.o(.text)
    PutData                                  0x080029ef   Thumb Code    46  looplist.o(.text)
    __aeabi_memcpy                           0x08002a1d   Thumb Code    36  memcpya.o(.text)
    __aeabi_memcpy4                          0x08002a1d   Thumb Code     0  memcpya.o(.text)
    __aeabi_memcpy8                          0x08002a1d   Thumb Code     0  memcpya.o(.text)
    __aeabi_memset                           0x08002a41   Thumb Code    14  memseta.o(.text)
    __aeabi_memset4                          0x08002a41   Thumb Code     0  memseta.o(.text)
    __aeabi_memset8                          0x08002a41   Thumb Code     0  memseta.o(.text)
    __aeabi_memclr                           0x08002a4f   Thumb Code     4  memseta.o(.text)
    __aeabi_memclr4                          0x08002a4f   Thumb Code     0  memseta.o(.text)
    __aeabi_memclr8                          0x08002a4f   Thumb Code     0  memseta.o(.text)
    _memset$wrapper                          0x08002a53   Thumb Code    18  memseta.o(.text)
    strstr                                   0x08002a65   Thumb Code    36  strstr.o(.text)
    strlen                                   0x08002a89   Thumb Code    14  strlen.o(.text)
    __scatterload                            0x08002a99   Thumb Code    28  init.o(.text)
    __scatterload_rt2                        0x08002a99   Thumb Code     0  init.o(.text)
    __0printf$2                              0x08002abd   Thumb Code    22  printf2.o(i.__0printf$2)
    __1printf$2                              0x08002abd   Thumb Code     0  printf2.o(i.__0printf$2)
    __2printf                                0x08002abd   Thumb Code     0  printf2.o(i.__0printf$2)
    __0sprintf$2                             0x08002add   Thumb Code    34  printf2.o(i.__0sprintf$2)
    __1sprintf$2                             0x08002add   Thumb Code     0  printf2.o(i.__0sprintf$2)
    __2sprintf                               0x08002add   Thumb Code     0  printf2.o(i.__0sprintf$2)
    __scatterload_copy                       0x08002b05   Thumb Code    14  handlers.o(i.__scatterload_copy)
    __scatterload_null                       0x08002b13   Thumb Code     2  handlers.o(i.__scatterload_null)
    __scatterload_zeroinit                   0x08002b15   Thumb Code    14  handlers.o(i.__scatterload_zeroinit)
    Region$$Table$$Base                      0x08002c04   Number         0  anon$$obj.o(Region$$Table)
    Region$$Table$$Limit                     0x08002c24   Number         0  anon$$obj.o(Region$$Table)
    main_len                                 0x20000000   Data           4  main.o(.data)
    usart1_read_len                          0x20000004   Data           4  main.o(.data)
    rb_t_usart1_send_byte                    0x2000000c   Data           1  usart.o(.data)
    rb_t_usart3_send_byte                    0x2000000d   Data           1  usart.o(.data)
    usart1_read_count                        0x20000010   Data           4  usart.o(.data)
    usart1_idle_flag                         0x20000014   Data           1  usart.o(.data)
    usart2_read_count                        0x20000018   Data           4  usart.o(.data)
    usart2_idle_read_count                   0x2000001c   Data           4  usart.o(.data)
    usart2_idle_cnt                          0x20000020   Data           4  usart.o(.data)
    usart2_idle_flag                         0x20000024   Data           1  usart.o(.data)
    usart3_idle_flag                         0x20000025   Data           1  usart.o(.data)
    timer2Value                              0x20000028   Data           4  timer.o(.data)
    ConfigConnectDispose                     0x2000002c   Data           4  configmodulenoblock.o(.data)
    ConfigModuleNoBlockCnt                   0x20000030   Data           4  configmodulenoblock.o(.data)
    ConfigModuleNoBlockCaseValue             0x20000034   Data           4  configmodulenoblock.o(.data)
    ConfigModuleNoBlockFlage                 0x20000038   Data           1  configmodulenoblock.o(.data)
    CompareValue                             0x2000003c   Data           4  configmodulenoblock.o(.data)
    SendNextDelay                            0x20000040   Data           4  configmodulenoblock.o(.data)
    Cnt                                      0x20000044   Data           4  configmodulenoblock.o(.data)
    DataReturnFlage                          0x20000048   Data           1  configmodulenoblock.o(.data)
    SystemCoreClock                          0x2000004c   Data           4  system_stm32f10x.o(.data)
    AHBPrescTable                            0x20000050   Data          16  system_stm32f10x.o(.data)
    __stdout                                 0x20000074   Data           4  stdout.o(.data)
    rb_t_usart1_read                         0x20000078   Data          16  usart.o(.bss)
    rb_t_usart1_read_buff                    0x20000088   Data        1024  usart.o(.bss)
    usart1_read_buff_copy                    0x20000488   Data        1024  usart.o(.bss)
    rb_t_usart1_send                         0x20000888   Data          16  usart.o(.bss)
    rb_t_usart1_send_buff                    0x20000898   Data        1024  usart.o(.bss)
    rb_t_usart2_read                         0x20000c98   Data          16  usart.o(.bss)
    rb_t_usart2_read_buff                    0x20000ca8   Data         100  usart.o(.bss)
    usart2_read_buff_copy                    0x20000d0c   Data         100  usart.o(.bss)
    rb_t_usart3_read                         0x20000d70   Data          16  usart.o(.bss)
    rb_t_usart3_read_buff                    0x20000d80   Data        1024  usart.o(.bss)
    usart3_read_buff_copy                    0x20001180   Data        1024  usart.o(.bss)
    rb_t_usart3_send                         0x20001580   Data          16  usart.o(.bss)
    rb_t_usart3_send_buff                    0x20001590   Data        1024  usart.o(.bss)
    HopeReturnData1                          0x20001990   Data          20  configmodulenoblock.o(.bss)
    HopeReturnData2                          0x200019a4   Data          20  configmodulenoblock.o(.bss)
    __initial_sp                             0x20001db8   Data           0  startup_stm32f10x_hd.o(STACK)



==============================================================================

Memory Map of the image

  Image Entry point : 0x08000131

  Load Region LR_IROM1 (Base: 0x08000000, Size: 0x00002c9c, Max: 0x00020000, ABSOLUTE)

    Execution Region ER_IROM1 (Base: 0x08000000, Size: 0x00002c24, Max: 0x00020000, ABSOLUTE)

    Base Addr    Size         Type   Attr      Idx    E Section Name        Object

    0x08000000   0x00000130   Data   RO          415    RESET               startup_stm32f10x_hd.o
    0x08000130   0x00000000   Code   RO          457  * .ARM.Collect$$$$00000000  mc_w.l(entry.o)
    0x08000130   0x00000004   Code   RO          731    .ARM.Collect$$$$00000001  mc_w.l(entry2.o)
    0x08000134   0x00000004   Code   RO          734    .ARM.Collect$$$$00000004  mc_w.l(entry5.o)
    0x08000138   0x00000000   Code   RO          736    .ARM.Collect$$$$00000008  mc_w.l(entry7b.o)
    0x08000138   0x00000000   Code   RO          738    .ARM.Collect$$$$0000000A  mc_w.l(entry8b.o)
    0x08000138   0x00000008   Code   RO          739    .ARM.Collect$$$$0000000B  mc_w.l(entry9a.o)
    0x08000140   0x00000000   Code   RO          741    .ARM.Collect$$$$0000000D  mc_w.l(entry10a.o)
    0x08000140   0x00000000   Code   RO          743    .ARM.Collect$$$$0000000F  mc_w.l(entry11a.o)
    0x08000140   0x00000004   Code   RO          732    .ARM.Collect$$$$00002712  mc_w.l(entry2.o)
    0x08000144   0x00000040   Code   RO            1    .text               stm32f10x_it.o
    0x08000184   0x000000a0   Code   RO          104    .text               main.o
    0x08000224   0x000000d4   Code   RO          161    .text               delay.o
    0x080002f8   0x00000628   Code   RO          178    .text               usart.o
    0x08000920   0x000000a8   Code   RO          197    .text               timer.o
    0x080009c8   0x00000034   Code   RO          215    .text               mcu_sys.o
    0x080009fc   0x00000220   Code   RO          227    .text               configmodulenoblock.o
    0x08000c1c   0x000001e0   Code   RO          261    .text               system_stm32f10x.o
    0x08000dfc   0x000000dc   Code   RO          279    .text               misc.o
    0x08000ed8   0x000003a4   Code   RO          291    .text               stm32f10x_rcc.o
    0x0800127c   0x00000408   Code   RO          305    .text               stm32f10x_usart.o
    0x08001684   0x0000035c   Code   RO          329    .text               stm32f10x_gpio.o
    0x080019e0   0x00000e1a   Code   RO          341    .text               stm32f10x_tim.o
    0x080027fa   0x00000002   PAD
    0x080027fc   0x00000024   Code   RO          416    .text               startup_stm32f10x_hd.o
    0x08002820   0x000001fc   Code   RO          435    .text               looplist.o
    0x08002a1c   0x00000024   Code   RO          460    .text               mc_w.l(memcpya.o)
    0x08002a40   0x00000024   Code   RO          462    .text               mc_w.l(memseta.o)
    0x08002a64   0x00000024   Code   RO          464    .text               mc_w.l(strstr.o)
    0x08002a88   0x0000000e   Code   RO          466    .text               mc_w.l(strlen.o)
    0x08002a96   0x00000002   PAD
    0x08002a98   0x00000024   Code   RO          761    .text               mc_w.l(init.o)
    0x08002abc   0x00000020   Code   RO          537    i.__0printf$2       mc_w.l(printf2.o)
    0x08002adc   0x00000028   Code   RO          539    i.__0sprintf$2      mc_w.l(printf2.o)
    0x08002b04   0x0000000e   Code   RO          773    i.__scatterload_copy  mc_w.l(handlers.o)
    0x08002b12   0x00000002   Code   RO          774    i.__scatterload_null  mc_w.l(handlers.o)
    0x08002b14   0x0000000e   Code   RO          775    i.__scatterload_zeroinit  mc_w.l(handlers.o)
    0x08002b22   0x000000d6   Code   RO          544    i._printf_core      mc_w.l(printf2.o)
    0x08002bf8   0x0000000a   Code   RO          546    i._sputc            mc_w.l(printf2.o)
    0x08002c02   0x00000002   PAD
    0x08002c04   0x00000020   Data   RO          771    Region$$Table       anon$$obj.o


    Execution Region RW_IRAM1 (Base: 0x20000000, Size: 0x00001db8, Max: 0x00005000, ABSOLUTE)

    Base Addr    Size         Type   Attr      Idx    E Section Name        Object

    0x20000000   0x00000008   Data   RW          106    .data               main.o
    0x20000008   0x00000004   Data   RW          162    .data               delay.o
    0x2000000c   0x0000001c   Data   RW          180    .data               usart.o
    0x20000028   0x00000004   Data   RW          198    .data               timer.o
    0x2000002c   0x0000001d   Data   RW          229    .data               configmodulenoblock.o
    0x20000049   0x00000003   PAD
    0x2000004c   0x00000014   Data   RW          262    .data               system_stm32f10x.o
    0x20000060   0x00000014   Data   RW          292    .data               stm32f10x_rcc.o
    0x20000074   0x00000004   Data   RW          745    .data               mc_w.l(stdout.o)
    0x20000078   0x00001918   Zero   RW          179    .bss                usart.o
    0x20001990   0x00000028   Zero   RW          228    .bss                configmodulenoblock.o
    0x200019b8   0x00000400   Zero   RW          413    STACK               startup_stm32f10x_hd.o


==============================================================================

Image component sizes


      Code (inc. data)   RO Data    RW Data    ZI Data      Debug   Object Name

       544         62          0         29         40       3668   configmodulenoblock.o
         0          0          0          0          0         32   core_cm3.o
       212         18          0          4          0       1095   delay.o
       508          0          0          0          0       3415   looplist.o
       160         40          0          8          0       3144   main.o
        52          8          0          0          0        711   mcu_sys.o
       220         22          0          0          0       1877   misc.o
        36          8        304          0       1024        836   startup_stm32f10x_hd.o
       860         38          0          0          0       5725   stm32f10x_gpio.o
        64          8          0          0          0     268045   stm32f10x_it.o
       932         36          0         20          0       8940   stm32f10x_rcc.o
      3610         88          0          0          0      22208   stm32f10x_tim.o
      1032         22          0          0          0       8444   stm32f10x_usart.o
       480         38          0         20          0       1947   system_stm32f10x.o
       168          8          0          4          0       1032   timer.o
      1576        242          0         28       6424       5476   usart.o

    ----------------------------------------------------------------------
     10456        638        336        116       7488     336595   Object Totals
         0          0         32          0          0          0   (incl. Generated)
         2          0          0          3          0          0   (incl. Padding)

    ----------------------------------------------------------------------

      Code (inc. data)   RO Data    RW Data    ZI Data      Debug   Library Member Name

         0          0          0          0          0          0   entry.o
         0          0          0          0          0          0   entry10a.o
         0          0          0          0          0          0   entry11a.o
         8          4          0          0          0          0   entry2.o
         4          0          0          0          0          0   entry5.o
         0          0          0          0          0          0   entry7b.o
         0          0          0          0          0          0   entry8b.o
         8          4          0          0          0          0   entry9a.o
        30          0          0          0          0          0   handlers.o
        36          8          0          0          0         68   init.o
        36          0          0          0          0         68   memcpya.o
        36          0          0          0          0        108   memseta.o
       296         16          0          0          0        328   printf2.o
         0          0          0          4          0          0   stdout.o
        14          0          0          0          0         68   strlen.o
        36          0          0          0          0         80   strstr.o

    ----------------------------------------------------------------------
       508         32          0          4          0        720   Library Totals
         4          0          0          0          0          0   (incl. Padding)

    ----------------------------------------------------------------------

      Code (inc. data)   RO Data    RW Data    ZI Data      Debug   Library Name

       504         32          0          4          0        720   mc_w.l

    ----------------------------------------------------------------------
       508         32          0          4          0        720   Library Totals

    ----------------------------------------------------------------------

==============================================================================


      Code (inc. data)   RO Data    RW Data    ZI Data      Debug   

     10964        670        336        120       7488     335907   Grand Totals
     10964        670        336        120       7488     335907   ELF Image Totals
     10964        670        336        120          0          0   ROM Totals

==============================================================================

    Total RO  Size (Code + RO Data)                11300 (  11.04kB)
    Total RW  Size (RW Data + ZI Data)              7608 (   7.43kB)
    Total ROM Size (Code + RO Data + RW Data)      11420 (  11.15kB)

==============================================================================

