:020000040800F2
:10000000B81E002031390008690200086B020008A0
:100010008F02000893020008970200080000000009
:100020000000000000000000000000009B0200082B
:100030009D020008000000009F02000849390008E6
:100040004B390008A10100084B3900084B39000862
:100050004B3900084B3900084B3900084B39000870
:100060004B3900084B3900084B3900084B39000860
:100070004B3900084B3900084B3900084B39000850
:100080004B3900084B3900084B3900084B39000840
:100090004B3900084B3900084B3900084B39000830
:1000A0004B3900084B3900084B3900084B39000820
:1000B000CD0800084B3900084B3900084B390008BF
:1000C0004B3900084B3900084B3900084B39000800
:1000D0004B390008C90500089B0600084B39000889
:1000E0004B3900084B3900084B3900084B390008E0
:1000F0004B3900084B3900084B3900084B390008D0
:100100004B3900084B3900084B3900084B390008BF
:100110004B3900084B3900084B3900084B390008AF
:100120004B3900084B3900084B3900084B3900089F
:10013000DFF80CD003F036FC00480047C901000886
:10014000B81E00203548C06940F080503349C8616E
:100150003348006840F0E000314908600846006814
:1001600040F0100008602F48006840F480302D49AE
:1001700008602C480830006840F480302949083174
:100180000860081F006840F48030091F0860254897
:100190001030006840F48030224910310860704708
:1001A00010B520481430006840F480301D491431E7
:1001B00008601B48406800F0040020B11E201A4966
:1001C000488000F0CCFF10BD00F06EF84FF4E13134
:1001D000084600F025F900F011FB00F0B7F813A075
:1001E00003F0F2FBFFF7AEFF124B134A134914481A
:1001F00000F0F8FC0C48418812A003F0E5FB142045
:100200000949488000F0ABFF012001F0C4F8044622
:10021000214611A003F0D8FB00BFFEE7001002400A
:100220000070004000040140701A00207374617275
:10023000740D0A0000FC000800F8000800F4000833
:1002400000F00008CFC8C7B0B4E6C8EBB5C4CAFD1B
:10025000BEDD3A25640D0A00BBF1C8A1B5C4CAFDD4
:10026000BEDD3A25640D0A0070470FE071B600BF8D
:100270000B48006800F4E0600A490843001D084983
:100280000860BFF3408F00BF00BFFEE7EEE700BF8E
:10029000FEE700BFFEE700BFFEE77047704770470C
:1002A0000CED00E00000FA0508B54FF4A06001F085
:1002B00061FB01208DF800008DF8030000208DF80F
:1002C00001008DF80200684601F059FB25208DF8E9
:1002D000000003208DF801008DF8020001208DF848
:1002E0000300684601F04BFB26208DF80000022039
:1002F0008DF801008DF8020001208DF8030068469A
:1003000001F03DFB1C208DF8000001208DF803005A
:1003100002208DF8010003208DF80200684601F0EC
:100320002EFB08BD71B600BF0648006800F4E0600F
:1003300005490843001D03490860BFF3408F00BF13
:1003400000BFFEE70CED00E00000FA0510B56FF00D
:10035000040001F05EFB2E4800682E49B0FBF1F06E
:100360002D4908700846007800EB4001C1EBC01031
:100370004FF6FF7101EAC0002849088010BD014610
:10038000254A12784A434FF0E0235A6100229A61CD
:100390001A46126942F001021A6100BF4FF0E022D2
:1003A000106900F001021AB100F48032002AF5D081
:1003B0004FF0E022126922F001024FF0E0231A61AF
:1003C00000229A6170470146144A12884A434FF04E
:1003D000E0235A6100229A611A46126942F0010232
:1003E0001A6100BF4FF0E022106900F001021AB15B
:1003F00000F48032002AF5D04FF0E022126922F09A
:1004000001024FF0E0231A6100229A617047000058
:100410002C00002000127A000000002002000020C2
:1004200030B587B005460C464FF48062E049E1489C
:1004300001F02AF8C820E04B4FF48062DF490090B9
:10044000DF4800F0B7FFC820DE4B4FF48062DE4982
:100450000090DE4800F0AEFF01214FF4C02001F013
:1004600072FC012144F20D0001F060FC4FF40070B9
:10047000ADF8180003208DF81A0018208DF81B0025
:1004800006A9D34802F0F8F94FF48060ADF81800DF
:1004900004208DF81B0006A9CD4802F0EDF90420D8
:1004A000ADF8180003208DF81A0018208DF81B00F5
:1004B00006A9C74802F0E0F90820ADF818000420AA
:1004C0008DF81B0006A9C24802F0D6F90020ADF84D
:1004D0000C00ADF80E00ADF81000ADF814000C20C3
:1004E000ADF81200029502A9BA4801F0C6FC0294C8
:1004F00002A9B94801F0C1FC012240F22551B548DA
:1005000001F053FD012240F22551B34801F04DFDA9
:10051000012240F22441AF4801F047FD012240F2A0
:100520002441AD4801F041FD0121AA4801F031FD0F
:100530000121A94801F02DFD07B030BD70B504467A
:100540000D461646A34884420BD1324629469948A7
:1005500001F0A4F8012240F22771204601F025FDA8
:100560000CE09D48844209D19C4805609C48066087
:10057000012240F22771204601F017FD70BD70B5D1
:1005800006460C4615460BE014F8011B304601F0F8
:100590006DFD00BF8021304601F0D6FD0028F9D066
:1005A0002800A5F10105EFD170BD70B504460D46D8
:1005B0002946204601F05AFD00BF8021204601F067
:1005C000C3FD0028F9D070BD38B540F225518148EF
:1005D00001F0D0FDA0B17F4801F04CFDC4B28148CC
:1005E00081490968445480480068401C7E4908607D
:1005F00008460068B0F5FB7F16D90020086013E0BC
:1006000040F22441734801F0B5FD01280CD1714836
:10061000001D00886B46744872490268684800F003
:10062000E9FE00207049086040F22771694801F036
:10063000A1FD00B35F4800F051FF00280ADD012250
:100640006A495C4800F07BFF68480178614801F026
:100650000DFD10E040F227715E4801F0B5FD00226B
:1006600040F227715B4801F0A0FC012240F22661B4
:10067000584801F09AFC40F22661564801F07AFD94
:1006800050B140F22661534801F09EFD002240F235
:100690002661504801F089FC38BD38B540F225513B
:1006A0004D4801F067FDA0B14B4801F0E3FCC4B236
:1006B0004F485049096844544E480068401C4D4911
:1006C000086008460068B0F5FB7F16D90020086076
:1006D00013E040F22441404801F04CFD01280CD1C8
:1006E0003D48001D00886B46424841490268374832
:1006F00000F080FE00203F49086040F22771364834
:1007000001F038FD20B33648006880B133480068F6
:100710000178314801F0AAFC30480068401C2F499C
:1007200008602F480068401E2D49086010E040F224
:100730002771294801F048FD002240F22771264820
:1007400001F033FC012240F22661234801F02DFC28
:1007500040F22661204801F00DFD50B140F22661C3
:100760001D4801F031FD002240F226611A4801F0D7
:100770001CFC38BD38B504460D46E0B200901E485A
:10078000007838B901201C49087040F226611148F0
:1007900001F01AFD01226946064800F07FFF0122A0
:1007A00040F227710B4801F000FC204638BD0000E4
:1007B0006C07002094000020A4060020A400002064
:1007C00058000020A8110020A80B00206C0B00206E
:1007D00000080140003801400044004004000020AF
:1007E0001C00002070120020080000200C000020D7
:1007F00070140020180000202000002008B50121FE
:100800007D2001F093FA4FF40050ADF80000102065
:100810008DF8030003208DF802006946154802F0A8
:100820002BF80620ADF8000010208DF803000320FF
:100830008DF802006946104802F01EF82020ADF83D
:10084000000048208DF8030003208DF8020069465F
:10085000094802F011F84FF40070ADF800001420C0
:100860008DF8030003208DF802006946024802F06B
:1008700003F808BD00100140000C01400EB5012135
:10088000084601F060FA4FF0804002F043F9002082
:10089000ADF80600ADF802000A20ADF8040041F6FC
:1008A0001F40ADF8000069464FF0804002F006FAA4
:1008B0000121880703F038F80121880702F05AFD6A
:1008C00001221146900702F070FD0EBD10B5012106
:1008D000880703F018F8012808D10121800703F0E8
:1008E00023F803480068401C0149086010BD00005F
:1008F000240000200146088870472DE9F041054694
:100900000E461746002407E036F81410284601F07A
:10091000DCFDAD1C601C84B2BC42F5DBBDE8F0819F
:1009200030B503460C461546002207E01846FFF78F
:10093000E1FF24F812009B1C501C82B2AA42F5DB96
:1009400030BD2DE9F05F80468A461746B8F1006F4A
:1009500002D39348804501D3BDE8F09F01F06DFCC0
:10096000A8F1006B4FEA9B24CBF34809C9F5007549
:10097000AF4200DC3D4667E04FF0006101EB8420B0
:100980008A148849FFF7CCFF00260BE009EB06002C
:10099000844931F810004FF6FF71884200D003E01F
:1009A000701C86B2AE42F1DB00BFAE4235DA4FF0CA
:1009B000006101EB842001F085FC002613E04FF07C
:1009C000006101EB84218819FFF794FF4FF6FF7156
:1009D000884206D04FF0006101EB842001F072FCE8
:1009E00004E0B01C86B2B6F5806FE8DB00BF0026DD
:1009F00008E03AF8160006EB09016A4A22F81100ED
:100A0000701C86B2AE42F4DB4FF0006101EB842033
:100A10008A146449FFF771FF04E02A4651464046B4
:100A2000FFF76BFFAF4200D10FE0641C4FF00009ED
:100A30000AEB450AA844781B87B2B7F5007F02DDB0
:100A40004FF4007500E03D4696E700BF01F001FC61
:100A500000BF81E72DE9F04105460E46174601200B
:100A60005149087001F087FE04280FD101F0E5FB21
:100A7000002407E036F81410284601F026FDAD1CCE
:100A8000601C84B2BC42F5DB01F0E3FBBDE8F08101
:100A900070B505460C4601204349087001F06BFE15
:100AA000042819D101F0C9FB2146284601F00DFDAB
:100AB0003D4908700846007804280BD12846FFF706
:100AC00019FFA04203D100203749087002E0052039
:100AD0003549087001F0BDFB3348007870BD2DE941
:100AE000F04104460E460027B4F1006F02D32C48B3
:100AF000844202D30020BDE8F081A4F10065AD0A74
:100B000001F039FE042817D101F097FB00270EE011
:100B10004FF0006101EB852001F0D4FB2249087001
:100B200008460078042800D003E06D1C7F1CB74203
:100B3000EED300BF01F08DFB1B480078DBE72DE909
:100B4000F04104460E460027B4F1006F02D314486A
:100B5000844202D30020BDE8F081A4F10065AD0A13
:100B600001F009FE042817D101F067FB00270EE011
:100B70004FF0006101EB852001F0A4FB0A490870E9
:100B800008460078042800D003E06D1C7F1CB742A3
:100B9000EED300BF01F05DFB03480078DBE7000007
:100BA00000000108701600202800002070B50446DF
:100BB0000D461646324629462046FFF7B1FE70BD67
:100BC00070B504460D461646324629462046FFF7C4
:100BD00041FF70BD70B504460D4629462046FFF71B
:100BE000AEFF70BD2DE9F04393B006460F46904628
:100BF0009946301DFA49C862381D086308F104009F
:100C0000486309F104008863AA2008805520C8843D
:100C1000192008850846008D00EB80004FF6FF7113
:100C200001EA8000EE4908850122C86A08A9FFF799
:100C3000BDFFEB49C96AEA4A128D01EB4201881EE9
:100C4000012204A9FFF7B2FFE5490122086B07A9B9
:100C5000FFF7ACFFE249096BE14A128D01EB42015B
:100C6000881E012203A9FFF7A1FFDD490122486B7D
:100C700006A9FFF79BFFDA49496BD94A128D01EBB0
:100C80004201881E012202A9FFF790FFD4490122E8
:100C9000886B05A9FFF78AFFD149896BD04A128D6D
:100CA00001EB4201881E012201A9FFF77FFFBDF879
:100CB00020004FF6FF71884220D1BDF81000884215
:100CC0001CD1BDF81C00884218D1BDF80C00884228
:100CD00014D1BDF81800884210D1BDF80800884230
:100CE0000CD1BDF81400884208D1BDF80400884238
:100CF00004D1BB48006BBA49C8632DE2BDF820009F
:100D0000AA2830D1BDF810004FF6FF7188422AD1D1
:100D1000002525E0B248C16A05EB850001EBC00063
:100D2000AF49C8631422C86B09A9FFF73FFFBDF89C
:100D300024004FF6FF71884204D1BDF84A00884272
:100D400000D10FE0002407E009A830F81400A449FE
:100D500021F81400601C84B2142CF5DB681C85B2E9
:100D6000192DD7DBF8E1BDF81C00AA2830D1BDF859
:100D70000C004FF6FF7188422AD1002525E09848E3
:100D8000016B05EB850001EBC0009549C863142297
:100D9000C86B09A9FFF70AFFBDF824004FF6FF71E1
:100DA000884204D1BDF84A00884200D10FE00024F7
:100DB00007E009A830F81400894921F81400601CE4
:100DC00084B2142CF5DB681C85B2192DD7DBC3E186
:100DD000BDF81800AA2830D1BDF808004FF6FF7101
:100DE00088422AD1002525E07D48416B05EB85002E
:100DF00001EBC0007A49C8631422C86B09A9FFF748
:100E0000D5FEBDF824004FF6FF71884204D1BDF82D
:100E10004A00884200D10FE0002407E009A830F81A
:100E200014006F4921F81400601C84B2142CF5DB07
:100E3000681C85B2192DD7DB8EE1BDF81400AA28F5
:100E400030D1BDF804004FF6FF7188422AD1002549
:100E500025E06348816B05EB850001EBC00060492C
:100E6000C8631422C86B09A9FFF7A0FEBDF82400CF
:100E70004FF6FF71884204D1BDF84A00884200D184
:100E80000FE0002407E009A830F81400544921F8C5
:100E90001400601C84B2142CF5DB681C85B2192D7B
:100EA000D7DB59E1BDF82000AA2851D1BDF81000C8
:100EB00055284DD1BDF81C00AA2830D1BDF80C0032
:100EC0004FF6FF7188422AD1002525E04448016B86
:100ED00005EB850001EBC0004149C8631422C86BD3
:100EE00009A9FFF763FEBDF824004FF6FF718842A1
:100EF00004D1BDF84A00884200D10FE0002407E089
:100F000009A830F81400364921F81400601C84B296
:100F1000142CF5DB681C85B2192DD7DB1CE1304998
:100F2000C96A01F57070142209A9FFF73FFE002479
:100F300007E009A830F81400294921F81400601CC2
:100F400084B2142CF5DB2648006B2549C86303E105
:100F5000BDF81C00AA2854D1BDF80C00552850D16A
:100F6000BDF81800AA2830D1BDF808004FF6FF716F
:100F700088422AD1002525E01948416B05EB850000
:100F800001EBC0001649C8631422C86B09A9FFF71A
:100F90000DFEBDF824004FF6FF71884204D1BDF864
:100FA0004A00884200D10FE0002407E009A830F889
:100FB00014000B4921F81400601C84B2142CF5DBDA
:100FC000681C85B2192DD7DBC6E00549096B01F510
:100FD0007070142209A9FFF7E9FD00240AE000005F
:100FE000701A002009A830F81400F14921F8140003
:100FF000601C84B2142CF5DBED48406BEC49C863EF
:10100000AAE0BDF81800AA2851D1BDF8080055285B
:101010004DD1BDF81400AA2830D1BDF804004FF618
:10102000FF7188422AD1002525E0E148816B05EB5C
:10103000850001EBC000DE49C8631422C86B09A912
:10104000FFF7B4FDBDF824004FF6FF71884204D1CC
:10105000BDF84A00884200D10FE0002407E009A84B
:1010600030F81400D24921F81400601C84B2142C0A
:10107000F5DB681C85B2192DD7DB6DE0CC49496BD7
:1010800001F57070142209A9FFF790FD002407E014
:1010900009A830F81400C64921F81400601C84B275
:1010A000142CF5DBC248806BC149C86354E0BDF81D
:1010B0001400AA2850D1BDF8040055284CD1BDF821
:1010C0002000AA2830D1BDF810004FF6FF718842E9
:1010D0002AD1002525E0B648C16A05EB850001EB61
:1010E000C000B349C8631422C86B09A9FFF75EFDAD
:1010F000BDF824004FF6FF71884204D1BDF84A00C4
:10110000884200D10FE0002407E009A830F814005D
:10111000A74921F81400601C84B2142CF5DB681C6C
:1011200085B2192DD7DB17E0A149896B01F57070E5
:10113000142209A9FFF73AFD002407E009A830F8B6
:1011400014009B4921F81400601C84B2142CF5DBB8
:101150009748C06A9649C86313B0BDE8F0831CB5D0
:101160009348C06B9249C96A884243D39048C16B87
:10117000006B81423ED28E48C06B28308C49C96AD0
:1011800001F57F71884207D98948006B8849C86397
:101190000846C06B086403E08548C06B8449086456
:1011A0008348C06B28308249C8631422086CFFF75B
:1011B00007FD7F490122886B01A9FFF7F7FC7C49F5
:1011C000896B7B4A128D01EB4201881E0122694620
:1011D000FFF7ECFCBDF804004FF6FF71884203D125
:1011E000BDF80000884204D07149886B0121FFF7E7
:1011F000F1FCCFE06E48C16B006B814243D36C4879
:10120000C16B406B81423ED26948C06B283068494F
:10121000096B01F57F71884207D96548406B6449C5
:10122000C8630846C06B086403E06148C06B60494E
:1012300008645F48C06B28305D49C8631422086C9D
:10124000FFF7BEFC5A490122C86A01A9FFF7AEFCAC
:101250005749C96A564A128D01EB4201881E012284
:101260006946FFF7A3FCBDF804004FF6FF71884202
:1012700003D1BDF800008842BBD04D49C86A0121A6
:10128000FFF7A8FC86E04A48C16B406B814243D31C
:101290004748C16B806B81423ED24548C06B2830C5
:1012A0004349496B01F57F71884207D94048806BFB
:1012B0003F49C8630846C06B086403E03C48C06B04
:1012C0003B4908643A48C06B28303949C863142246
:1012D000086CFFF775FC36490122086B01A9FFF77E
:1012E00065FC3349096B324A128D01EB4201881EBD
:1012F00001226946FFF75AFCBDF804004FF6FF7162
:10130000884203D1BDF80000884243D02849086BC9
:101310000121FFF75FFC3DE02548C06B28302449E0
:10132000896B01F57F71884207D92148C06A20493D
:10133000C8630846C06B086403E01D48C06B1C49C5
:1013400008641B48C06B28301949C8631422086C14
:10135000FFF736FC16490122486B01A9FFF726FC6E
:101360001349496B124A128D01EB4201881E01227A
:101370006946FFF71BFCBDF804004FF6FF71884279
:1013800003D1BDF80000884204D00949486B01210F
:10139000FFF720FC1CBD38B504460549096C01EB7C
:1013A000440001226946FFF701FCBDF8000038BD8A
:1013B000701A00202DE9F04104460E4617461D46DE
:1013C000DDF8188072B63A46314604F11C0000F090
:1013D0005BF84246294604F12C0000F055F8002045
:1013E000206060602072E06060722061606162B6BF
:1013F000BDE8F0817FB504460E461D4672B604F185
:101400001C0000F08AF80299884218D904F12C00D7
:1014100000F083F804280EDD314604F11C00029A26
:1014200000F03CF9042202A904F12C0000F036F986
:101430000020286006E04FF0FF30286002E06FF0E7
:101440000100286062B67FBD70B504460E461546A1
:1014500072B60020286004F12C0000F03FF8042848
:1014600010DB042204F1180104F12C0000F067F8ED
:10147000A069002806DD314604F11C00A26900F0D5
:101480005EF8286062B670BD70B504460D4616461B
:101490001CB991A002F098FA70BD2660E560E06882
:1014A0006060E068A06000BFF6E710B504461CB9B4
:1014B00089A002F089FA10BD0020E0606060A060A1
:1014C000206000BFF7E710B504462CB982A002F0F7
:1014D0007BFA4FF0FF3010BD2068FCE710B50446E2
:1014E0002CB97DA002F070FA4FF0FF3010BDD4E9A6
:1014F0000101884201D10020F8E7D4E901018842C6
:1015000003D2D4E90110401AF0E72046FFF7DBFFD1
:10151000D4E90112891A401AE8E770B504462CB9DB
:101520006DA002F051FA4FF0FF3070BD2046FFF77A
:10153000CAFF05462046FFF7D1FF281AF5E72DE937
:10154000F04104460F46164600252CB962A002F071
:101550003BFA681EBDE8F0812FB966A002F034FAAC
:101560004FF0FF30F6E7D4E90101884214D220465B
:10157000FFF7B4FFB04201D9304602E02046FFF742
:10158000ADFF05462A463846616802F0E3F9606817
:10159000284460602846DDE72046FFF794FFE268B4
:1015A0006168891A401AB0420AD935462A46384637
:1015B000616802F0CFF96068284460602846C9E796
:1015C0002046FFF780FFE2686168891A451A2A46BB
:1015D0003846616802F0BEF9E0686060721B7919F4
:1015E0002046FFF7ACFF05442846B3E72DE9F0415C
:1015F00004460F46154600262CB945A002F0E4F932
:10160000701EBDE8F0812FB947A002F0DDF94FF060
:10161000FF30F6E72046FFF780FFA84205D848A034
:1016200002F0D2F94FF0FF30EBE7D4E90101884234
:101630002AD82046FFF747FFD4E90212891A461A32
:10164000B54213D82A463946A06802F083F9A0684B
:101650002844A0602046FFF736FFE1680844A168EF
:10166000884201D1E068A0602846CAE73246394680
:10167000A06802F06FF9E068A060AA1BB9192046C3
:10168000FFF7B4FF3044BCE72A463946A06802F0B1
:1016900061F9A0682844A0602846B2E72DE9F0412E
:1016A00007460C46154600262CB92AA002F08CF9F4
:1016B000701EBDE8F0812A4621463846FFF796FFA6
:1016C0000646AE4205D02CA002F07EF94FF0FF3066
:1016D000EFE73046EDE700004552524F523A20699D
:1016E0006E707574207262206973204E554C4C0ADE
:1016F000000000004552524F523A20696E707574D6
:101700002064617461206973204E554C4C0A0000BE
:101710004552524F523A20726220697320656D70B3
:101720007479200A000000004552524F523A20645A
:1017300061746120697320656D707479200A0000FE
:101740004552524F523A206E6F206D656D6F72791F
:10175000200A00004552524F523A2067697A50756C
:1017600074446174612062756620697320656D70D0
:101770007479200A000000004552524F523A204628
:1017800061696C656420746F207262577269746558
:10179000200A00000CB50020019000906C48006801
:1017A00040F480306A49086000BF6948006800F46E
:1017B000003000900198401C0190009818B90198E1
:1017C000B0F5A06FF1D16248006800F4003010B1AC
:1017D0000120009001E0002000900098012843D1F2
:1017E0005C48006840F010005A49086008460068EC
:1017F00020F0030008600846006840F0020008601E
:101800005348406852494860084640684860084666
:10181000406840F4806048600846406820F47C10CE
:1018200048600846406840F4E81048600846006890
:1018300040F08070086000BF4548006800F000700C
:101840000028F9D04248406820F003004049486031
:101850000846406840F00200486000BF3C484068CD
:1018600000F00C000828F9D10CBD10B5FFF792FF6D
:1018700010BD10B53648006840F0010034490860DA
:1018800008464068344908403149486008460068C5
:10189000324908402E4908600846006820F480203C
:1018A00008600846406820F4FE0048604FF41F00BE
:1018B0008860FFF7DAFF4FF000602949086010BD2B
:1018C00010B5002100200022214B5B6803F00C01C1
:1018D00021B1042906D0082928D107E0214B224C48
:1018E000236027E01F4B204C236023E0184B5B68EC
:1018F00003F47010164B5B6803F48032022303EB91
:10190000904022B9194B4343174C23600DE0104B14
:101910005B6803F4003323B1144B4343124C236040
:1019200003E0104B4343104C236003E00D4B0E4C7F
:10193000236000BF00BF064B5B68C3F303130C4C6E
:10194000E15C094B1B68CB40074C236010BD0000D5
:1019500000100240002002400000FFF8FFFFF6FEEA
:1019600008ED00E000127A002C00002000093D0084
:101970003000002031490143314A1160704770B591
:10198000002100230F22C47804B32D4C246804F4F2
:10199000E064C4F5E064210AC1F10403CA4044785C
:1019A00004FA03F18478144021430901254C067898
:1019B000A155047804F01F050124AC4005786D1191
:1019C000AD0005F1E025C5F8004109E0047804F018
:1019D0001F050124AC401C4D0678761145F82640C1
:1019E00070BD1A4A0A400243154B1B1F1A6070470C
:1019F00039B1134A121D12680243114B1B1D1A60A4
:101A000006E00F4A121D126882430D4B1B1D1A601F
:101A10007047042808D14FF0E021096941F0040122
:101A20004FF0E022116107E04FF0E021096921F059
:101A300004014FF0E0221161704700000000FA0538
:101A40000CED00E000E400E080E100E080FFFF1F1B
:101A5000DF48006840F00100DD4908600846406842
:101A6000DC490840DA49486008460068DA4908401D
:101A7000D74908600846006820F4802008600846BE
:101A8000406820F4FE0048604FF41F0088607047F3
:101A9000CF49096821F48031CD4A116011460968A7
:101AA00021F480211160B0F5803F03D0B0F5802F84
:101AB0000ED106E0C649096841F48031C44A11607C
:101AC00007E0C349096841F4A021C14A116000E060
:101AD00000BF00BF704710B5014600220023002060
:101AE0004A11012A02D1BA4C236806E0022A02D127
:101AF000B74C236A01E0B64C636A01F01F0201246F
:101B000094401C400CB1012000E0002010BD38B50D
:101B1000002000900024002500BF3120FFF7DBFFEC
:101B200005460098401C00900098B0F5A06F01D0C9
:101B3000002DF2D03120FFF7CEFF08B1012400E0E4
:101B40000024204638BD01460020A14A106820F03C
:101B5000F80040EAC10010607047A0490860704773
:101B6000024600209A4B586820F47C1042EA010398
:101B70001843974B5860704798490866704701466C
:101B80000020934A506820F00300084350607047DB
:101B90008F48406800F00C007047014600208C4AD6
:101BA000506820F0F0000843506070470146002064
:101BB000874A506820F4E06008435060704701464F
:101BC0000020834A506820F4605040EAC100506011
:101BD000704729B17E4A527A02437D4B5A7204E023
:101BE0007B4A527A82437A4B5A7270477B49D8318A
:101BF0000860704701460020754A506820F4404054
:101C00000843506070470021714A20321170704AB9
:101C100082F82010012802D004280AD104E0012112
:101C20006B4A2032117005E00521694A203211709B
:101C300000E000BF00BF7047694908607047644911
:101C4000096A0143624A1162704765494439086074
:101C5000704730B500210022002400235C4D6D68E0
:101C600005F00C0121B1042905D0082923D105E094
:101C70005C4D056022E05B4D05601FE0544D6D68D2
:101C800005F47012524D6D6805F48034022505EBA1
:101C900092421CB9544D554305600BE04C4D6D68A4
:101CA00005F400351DB1504D5543056002E04D4D22
:101CB0005543056002E04B4D056000BF00BF444D39
:101CC0006D6805F0F0010909484D6B5C0568DD4061
:101CD00045603F4D6D6805F4E061090A434D6B5C5A
:101CE0004568DD4085603A4D6D6805F46051C90A6C
:101CF0003E4D6B5C4568DD40C560354D6D6805F453
:101D00004041890B3A4D6B5CC568B5FBF3F5056145
:101D100030BD29B12E4A526902432D4B5A6104E06D
:101D20002B4A526982432A4B5A61704729B1284A8B
:101D300092690243264B9A6104E0254A92698243E4
:101D4000234B9A61704729B1214AD2690243204B43
:101D5000DA6104E01E4AD26982431D4BDA617047A2
:101D600029B11B4AD2680243194BDA6004E0184AD1
:101D7000D2688243164BDA60704729B1144A12695F
:101D80000243134B1A6104E0114A12698243104B5B
:101D90001A61704712494039086070470F49C8649A
:101DA00070470B49C87170470948406A40F080701D
:101DB00007494862704701460020054A92680A4078
:101DC0000AB1012000E00020704701498872704785
:101DD000001002400000FFF8FFFFF6FE0000424244
:101DE0008004424200127A0000093D0040000020B9
:101DF0005000002010B50446FB48844209D101215F
:101E00008803FFF7ADFF00214FF48040FFF7A8FFE4
:101E100032E0F648844209D101214804FFF7ADFFC2
:101E200000214FF40030FFF7A8FF25E0F04884427E
:101E300009D101218804FFF7A0FF00214FF4802081
:101E4000FFF79BFF18E0EB48844209D10121C80449
:101E5000FFF793FF00214FF40020FFF78EFF0BE008
:101E6000E548844208D101210805FFF786FF0021DB
:101E70004FF48010FFF781FF10BD2DE9F04786B0C9
:101E800005460E460024A24600BFA1460027B089A1
:101E900000B100BF2F462C8A4CF6FF700440F0883A
:101EA00004432C82AC894EF6F3100440B08831898B
:101EB0000843718908430443AC81AC8A4FF6FF4064
:101EC0000440B0890443AC8201A8FFF7C2FEC648B3
:101ED000874202D1DDF810A001E0DDF80CA0A8894E
:101EE00000F4004040B10AEBCA0000EB0A10316870
:101EF0004900B0FBF1F807E00AEBCA0000EB0A105A
:101F000031688900B0FBF1F86420B8FBF0F00401FF
:101F10002009642101FB1089A88900F4004040B128
:101F2000322000EBC900B0FBF1F000F007000443E1
:101F300008E0322000EB09106421B0FBF1F000F062
:101F40000F0004432C8106B0BDE8F0874FF4165112
:101F5000016000218180C18001810C21418100212B
:101F60008181704710B502460020108A4FF2FF03AE
:101F700018400B884C8823438C882343CC88234308
:101F80001843108210BD0021018041808180C180F2
:101F9000704721B1828942F40052828104E0828933
:101FA0004DF6FF731A4082817047F0B50346002456
:101FB00000260025002040F66A17B94200D100BF74
:101FC0001846C1F3421401F01F06012707FA06F56F
:101FD000012C01D10C3004E0022C01D1103000E0C2
:101FE00014301AB107682F43076002E00768AF4357
:101FF0000760F0BD1AB1838A0B43838202E0838AB3
:102000008B4383827047028A4FF6F0731A40028234
:10201000028A0A430282704782894FF2FF731A4094
:10202000828182890A438281704721B1828942F08C
:102030000202828104E082894FF6FD731A40828198
:102040007047028A4FF6DF731A400282028A0A43FF
:102050000282704721B1028A42F48042028204E087
:10206000028A4BF6FF731A4002827047C1F30802DE
:102070008280704701468888C0F3080070478189D4
:1020800041F0010181817047028BD2B20283028B41
:1020900042EA012202837047028B02F47F420283EC
:1020A000028B0A430283704721B1828A42F02002E8
:1020B000828204E0828A4FF6DF731A408282704780
:1020C00021B1828A42F01002828204E0828A4FF6B5
:1020D000EF731A408282704721B1828A42F008026F
:1020E000828204E0828A4FF6F7731A408282704738
:1020F00021B1828942F40042828103E08289C2F3E5
:102100000E028281704721B1828A42F4006282828B
:1021100004E0828A4FF2FF731A4082827047828AFB
:102120004FF6FB731A408282828A0A43828270478A
:1021300021B1828A42F00202828204E0828A4FF652
:10214000FD731A408282704702460020B1F5007F7D
:1021500000D100BF13880B400BB1012000E000202C
:10216000704701F40072B2F5007F00D100BFCA438E
:102170000280704770B5024600240023002500202D
:1021800040F66A16B14200D100BFC1F3421501F01A
:102190001F03012606FA03F3012D02D1968933406D
:1021A00006E0022D02D1168A334001E0968A3340C0
:1021B0000C12012606FA04F41688344013B10CB14F
:1021C000012000E0002070BD10B50022002340F681
:1021D0006A14A14200D100BF0A1201249440A3B2A4
:1021E000DC43048010BD0000003801400044004082
:1021F00000480040004C00400050004001460020D4
:10220000FE4A106800F03800084310607047FB4930
:10221000096821F00801F94A116011460968014373
:1022200011607047F549096821F01001F34A116007
:1022300011460968014311607047F148EF49486051
:10224000F04848607047EE48EC494860ED48486007
:102250007047EA48006940F08000E849086170472B
:10226000E648006940F08000E449086170470420B6
:10227000E249C96801F0010109B101200EE0DF491E
:10228000C96801F0040109B1022007E0DB49C9680F
:1022900001F0100109B1032000E00420704700B5EF
:1022A00002460423FFF7E3FF034603E0FFF7DFFFE7
:1022B0000346521E012B01D1002AF7D102B9052392
:1022C000184600BD30B5044604254FF43020FFF712
:1022D000E6FF0546042D17D1C848006940F002000A
:1022E000C649086108464461006940F04000086141
:1022F0004FF43020FFF7D3FF0546C048006941F690
:10230000FD710840BD490861284630BD10B5042460
:102310004FF43020FFF7C3FF0446042C16D1B74812
:10232000006940F00400B54908610846006940F0C2
:10233000400008614FF43020FFF7B1FF0446AF487A
:10234000006941F6FB710840AC490861204610BDA8
:1023500000B502460423FFF78AFF034603E0FFF7B8
:1023600086FF0346521E012B01D1002AF7D102B984
:102370000523184600BD10B504244FF43020FFF7A4
:10238000E7FF0446042C16D19C48006940F0040085
:102390009A4908610846006940F0400008614FF41E
:1023A0003020FFF7D5FF04469448006941F6FB71E1
:1023B000084092490861204610BD00208F49C96934
:1023C00001F0020109B1012000E00020704730B5A2
:1023D000A5250424FFF7F1FF00B100254FF43020BC
:1023E000FFF75DFF0446042C3AD185488349886095
:1023F000844888600846006940F02000086108466B
:10240000006940F0400008614FF43020FFF747FFBB
:102410000446042C1BD17948006941F6DF7108405D
:10242000764908610846006940F010000861764866
:102430000580E002FFF733FF0446052C10D06F48FB
:10244000006941F6EF7108406C49086108E0052C0D
:1024500006D06A48006941F6EF7108406749086193
:10246000204630BD78B506460C4604250020009075
:10247000E802FFF714FF0546042D24D15F480069E8
:1024800040F001005D4908613480E802FFF707FF72
:102490000546042D10D1B01C0090200C0099088036
:1024A000E802FFF7FCFE05465448006941F6FE715C
:1024B00008405249086106E05048006941F6FE7143
:1024C00008404E490861284678BD70B504460D465F
:1024D0000426F002FFF7E3FE0646042E11D147481A
:1024E000006940F00100454908612580F002FFF7CE
:1024F000D6FE06464148006941F6FE7108403F4954
:102500000861304670BD70B505460E460424E002F1
:10251000FFF7C5FE0446042C17D1394837498860B7
:10252000384888600846006940F0100008612E8035
:10253000E002FFF7B4FE0446052C06D02F480069E0
:1025400041F6EF7108402D490861204670BD2DE924
:10255000F04304464FF6FF763746B046B1460425B1
:10256000E443E6B2C4F30727C4F307484FEA14690B
:10257000E802FFF794FE0546042D49D120481F4983
:102580008860204888600846006940F010000861B3
:10259000FF2E06D01C4808300680E802FFF77FFEB9
:1025A0000546042D08D1FF2F06D017480A300780B2
:1025B000E802FFF774FE0546042D0AD1B8F1FF0FBB
:1025C00007D011480C30A0F80080E802FFF767FE42
:1025D0000546042D0AD1B9F1FF0F07D00A480E3085
:1025E000A0F80090E802FFF75AFE0546052D0FD02F
:1025F0000248006941F6EF71084007E00020024000
:1026000023016745AB89EFCD00F8FF1F66490861DC
:102610002846BDE8F08330B5054604244FF4302049
:10262000FFF73DFE0446042C41D160485E498860B6
:102630005F4888600846006940F02000086108464D
:10264000006940F0400008614FF43020FFF727FE9A
:102650000446042C22D15448006941F6DF71084039
:10266000514908610846006940F0100008611DB139
:1026700000205049088002E0A5204E4908804FF410
:102680003020FFF70CFE0446052C10D046480069A8
:1026900041F6EF7108404449086108E0052C06D076
:1026A0004148006941F6DF7108403F490861204612
:1026B00030BDF0B505460E46174604243B483A495E
:1026C00088603B488860E002FFF7E9FD0446042C7F
:1026D00019D13548006940F010003349086147F0CE
:1026E000F800304328433349891C0880E002FFF793
:1026F000D6FD0446052C06D02B48006941F6EF7143
:102700000840294908612046F0BD2748C069800873
:1027100070472548006A704700202349096801F086
:10272000200109B1012000E00020704729B11E4AB4
:10273000126902431C4B1A6104E01B4A126982436E
:10274000194B1A61704701460020012908D1164A29
:10275000D26902F001020AB1012008E0002006E07F
:10276000114AD2680A400AB1012000E000207047F7
:102770000D49C860704704200B49C96801F0010188
:1027800009B101200EE00849C96801F0040109B14E
:10279000022007E00449C96801F0100109B10320D3
:1027A00000E004207047000000200240230167453C
:1027B000AB89EFCD00F8FF1F10B50446CC4884422A
:1027C00008D101210420FFF7CBFA00210420FFF7F4
:1027D000C7FA46E0C748844208D101210820FFF724
:1027E000BFFA00210820FFF7BBFA3AE0C248844252
:1027F00008D101211020FFF7B3FA00211020FFF7C4
:10280000AFFA2EE0BD48844208D101212020FFF715
:10281000A7FA00212020FFF7A3FA22E0B84884425B
:1028200008D101214020FFF79BFA00214020FFF74B
:1028300097FA16E0B348844208D101218020FFF7BF
:102840008FFA00218020FFF78BFA0AE0AE4884421D
:1028500007D101218015FFF783FA0021A015FFF7AA
:102860007FFA10BD10B501210846FFF779FA002163
:102870000120FFF775FA10BD2DE9F0410246002551
:102880000026002000230024002791F803C00CF04C
:102890000F0591F803C00CF0100CBCF1000F03D031
:1028A00091F802C04CEA050591F800C0BCF1000F98
:1028B00031D0146800202BE04FF0010C0CFA00F32B
:1028C000B1F800C00CEA03069E4220D183004FF00D
:1028D0000F0C0CFA03F7BC4305FA03FC4CEA0404A2
:1028E00091F803C0BCF1280F06D14FF0010C0CFA8F
:1028F00000FCC2F814C00AE091F803C0BCF1480F14
:1029000005D14FF0010C0CFA00FCC2F810C0401CBD
:102910000828D1D31460B1F800C0BCF1FF0F34DD3A
:10292000546800202EE000F1080C4FF0010808FA6E
:102930000CF3B1F800C00CEA03069E4221D18300DB
:102940004FF00F0C0CFA03F7BC4305FA03FC4CEAFA
:10295000040491F803C0BCF1280F05D100F1080C64
:1029600008FA0CF8C2F8148091F803C0BCF1480FC3
:1029700007D100F1080C4FF0010808FA0CF8C2F872
:102980001080401C0828CED35460BDE8F0814FF67B
:10299000FF710180022181700421C17070470246DD
:1029A000002093680B400BB1012000E0002070472D
:1029B0000146886880B2704702460020D3680B4009
:1029C0000BB1012000E0002070470146C86880B2CA
:1029D000704701617047416170470AB1016100E0D1
:1029E00041617047C16070474FF480320A43826191
:1029F0008161826182698269704702460020434B8F
:102A000018684FF68073184040EA021008433F4BA5
:102A1000186070473E49C8617047F0B50A46002308
:102A200000240021002500F00046B6F1004F02D13D
:102A3000364EF16901E0354E7168C0F3034583B24B
:102A400000F44016B6F5401F08D121F070612F4EFA
:102A5000766826F070662D4F7E6012E000F48016D6
:102A6000B6F5801F06D1032606FA05F4A14341F00E
:102A7000706106E0460D360103FA06F6B14341F0F7
:102A8000706122B1460D360103FA06F6314300F0BB
:102A90000046B6F1004F02D11C4EF16101E01B4E21
:102AA0007160F0BD30B500228B071C0F0F2303FAB5
:102AB00004F2164B08338C1053F824309343134C14
:102AC00008348D1044F8253023468C1053F82430F8
:102AD0008C07240F00FA04F423430C4C08348D10A7
:102AE00044F8253030BD0A49DC31086070470000E9
:102AF00000080140000C014000100140001401409A
:102B000000180140001C014000200140000001406D
:102B10000000204210B50446FE48844208D101213D
:102B2000C014FFF71DF90021E014FFF719F9C4E004
:102B3000B4F1804F08D101210846FFF71EF90021AA
:102B40000120FFF71AF9B8E0F348844208D10121C7
:102B50000220FFF712F900210220FFF70EF9ACE086
:102B6000EE48844208D101210420FFF706F9002134
:102B70000420FFF702F9A0E0E948844208D10121CE
:102B80000820FFF7FAF800210820FFF7F6F894E094
:102B9000E448844208D101211020FFF7EEF800211B
:102BA0001020FFF7EAF888E0DF48844208D10121CD
:102BB0002020FFF7E2F800212020FFF7DEF87CE07C
:102BC000DA48844208D101214014FFF7C9F80021F6
:102BD0006014FFF7C5F870E0D548844209D101219F
:102BE000C804FFF7BDF800214FF40020FFF7B8F844
:102BF00063E0D048844209D101210805FFF7B0F80D
:102C000000214FF48010FFF7ABF856E0CA48844229
:102C100009D101214805FFF7A3F800214FF4001066
:102C2000FFF79EF849E0C548844208D101214020C1
:102C3000FFF7A3F800214020FFF79FF83DE0C048D0
:102C4000844208D101218020FFF797F800218020DD
:102C5000FFF793F831E0BB48844208D10121801589
:102C6000FFF78BF80021A015FFF787F825E0B6489D
:102C7000844209D101210804FFF772F800214FF4C2
:102C80008030FFF76DF818E0B048844209D1012187
:102C90004804FFF765F800214FF40030FFF760F8B3
:102CA0000BE0AB48844208D101218804FFF758F8B3
:102CB00000214FF48020FFF753F810BD0022028856
:102CC000944B98420ED0994B98420BD0B0F1804F64
:102CD00008D0914B984205D0904B984202D0904B2F
:102CE000984204D14FF68F731A404B881A438D4B8C
:102CF000984207D08C4B984204D04FF6FF431A40BD
:102D0000CB881A4302808B8883850B880385814B8F
:102D100098420BD0854B984208D08B4B984205D0F7
:102D20008A4B984202D08A4B984201D10B7A038693
:102D300001238382704770B5002400220023058C94
:102D40004FF6FE7635400584028C8388048B4FF65F
:102D50008F752C40B51E2C400D882C43751E2A40C3
:102D60000D892A434D882A436A4DA8420BD06F4DE6
:102D7000A84208D0744DA84205D0744DA84202D094
:102D8000734DA84213D14FF6F7752A404D892A4357
:102D90004FF6FB752A408D882A434FF6FF652B407E
:102DA0004FF6FF552B408D892B43CD892B438380D4
:102DB0000483CD888586028470BD70B5002400220E
:102DC0000023058C4FF6EF7635400584028C83880E
:102DD000048B48F6FF752C404FF6FF452C400D88BC
:102DE0004FF6FF7606EA05252C434FF6DF752A409D
:102DF0000D8906EA05152A434D8806EA05152A437A
:102E0000444DA84202D0494DA8421DD14FF67F75CE
:102E10002A404D894FF6FF7606EA05152A434FF6FC
:102E2000BF752A408D8806EA05152A434FF6FF35FF
:102E30002B404FF2FF752B408D8906EA85052B4309
:102E4000CD8906EA85052B4383800483CD880587D9
:102E5000028470BD70B5002400220023058C4FF65B
:102E6000FF6635400584028C8388848B4FF68F750E
:102E70002C404FF6FC752C400D882C434FF6FF5527
:102E80002A400D894FF6FF7606EA05252A434D882C
:102E900006EA05252A431F4DA84202D0234DA84229
:102EA0001DD14FF2FF752A404D894FF6FF7606EA95
:102EB00005252A434FF6FF352A408D8806EA052569
:102EC0002A434EF6FF752B404DF6FF752B408D893A
:102ED00006EA05152B43CD8906EA05152B438380A9
:102EE0008483CD888587028470BD70B5002200235D
:102EF0000024058C4EF6FF7635400584038C8488CB
:102F0000828B48F6FF752A404FF6FF452A400D8810
:102F100020E00000002C01400004004000080040B8
:102F2000000C00400010004000140040003401403C
:102F3000004C014000500140005401400018004086
:102F4000001C0040002000400040014000440140BF
:102F5000004801404FF6FF7606EA05252A434DF664
:102F6000FF752B400D8906EA05352B434D8806EA8F
:102F700005352B43FA4DA84202D0FA4DA84208D19C
:102F80004BF6FF752C408D894FF6FF7606EA8515C6
:102F90002C4384808283CD88A0F84050038470BD88
:102FA000828B4FF2FF331A408283828B4FF6FF737E
:102FB00003EA01231A4382837047F0B50C46154695
:102FC000002200210026078C4EF6FF7C07EA0C0742
:102FD0000784828B018C4FF6FF7707EA043640F6B0
:102FE000FF473A404FF6FF7707EA05273A434FF687
:102FF000FF7707EA03373A43D94FB8420ED0D94F8B
:10300000B8420BD0B0F1804F08D0D74FB84205D0AE
:10301000D64FB84202D0D64FB84206D14DF6FF7710
:10302000394046F48057394305E047F6FF573940A9
:1030300044F48057394382830184F0BD828B4FF67C
:10304000F3731A408283828B0A4382837047F0B500
:103050000C461546002200210026078C4FF6FF6C17
:1030600007EA0C070784828B018C4FF6FF7707EA8B
:1030700004264FF60C773A404FF6FF7707EA03171E
:103080002F433A43B64FB8420ED0B64FB8420BD09A
:10309000B0F1804F08D0B44FB84205D0B34FB8421A
:1030A00002D0B34FB84206D14FF6FF57394046F42D
:1030B0008077394305E04FF2FF57394044F4807779
:1030C000394382830184F0BD028B4FF2FF331A40F3
:1030D0000283028B4FF6FF7303EA01231A43028334
:1030E0007047F0B50C461546002200210026078CDB
:1030F0004FF6EF7C07EA0C070784028B018C4FF632
:10310000FF7707EA041640F6FF473A404FF6FF778D
:1031100007EA03373A434FF6FF7707EA05273A43B2
:103120008F4FB8420ED08F4FB8420BD0B0F1804FC6
:1031300008D08D4FB84205D08C4FB84202D08C4F8A
:10314000B84206D14FF6DF77394046F010073943D1
:1031500005E04FF65F77394044F0100739430283AA
:103160000184F0BD028B4FF6F3731A400283028B89
:103170000A4302837047F0B50C4615460022002131
:10318000068C4FF6FE773E400684028B018C4FF68C
:103190000C7632407E1C06EA03162E433243704EF4
:1031A000B0420ED06F4EB0420BD0B0F1804F08D07D
:1031B0006D4EB04205D06D4EB04202D06C4EB04262
:1031C00006D14FF6FD76314044F00106314305E06B
:1031D0004FF6F576314044F0010631430283018415
:1031E000F0BD70B505460C465D4885420ED05D4881
:1031F00085420BD0B5F1804F08D05B48854205D0A1
:103200005A48854202D05A48854200D100E000BFAA
:10321000208850B92389A28861882846FFF7ABFF30
:10322000E1882846FFF79EFF25E0208804280AD180
:103230002389A28861882846FFF753FFE188284642
:10324000FFF742FF17E0208808280AD12389A288C7
:1032500061882846FFF7FBFEE1882846FFF7EEFE6F
:1032600009E02389A28861882846FFF7A6FEE18845
:103270002846FFF795FE70BD2DE9F04105460C4646
:1032800000260127608808B9022600E00026A088F1
:10329000012801D1022700E001272088A0B9238955
:1032A000A28861882846FFF766FFE1882846FFF775
:1032B00059FF23893A4631462846FFF712FFE18835
:1032C0002846FFF701FF13E02389A288618828467A
:1032D000FFF707FFE1882846FFF7F6FE23893A4605
:1032E00031462846FFF747FFE1882846FFF73AFFB7
:1032F000BDE8F0810A884B881A438B881A43CB8833
:103300001A430B891A434B891A438B891A43A0F835
:10331000442070474FF6FF71818000210180C180F9
:103320004180017270470021018041808180C1800D
:10333000018141818181C1817047002101804180EB
:10334000012181800021C18001817047002101801D
:1033500041808180C180018141818181704700006D
:10336000002C0140003401400004004000080040EF
:10337000000C004021B1028842F00102028004E00A
:1033800002884FF6FE731A400280704731B1B0F8E0
:10339000442042F40042A0F8442005E0B0F8442064
:1033A000C2F30E02A0F8442070471AB183890B4380
:1033B000838102E083898B438381704781827047D8
:1033C00041EA0203A0F8483070471AB183890B43E1
:1033D000838102E083898B438381704701894FF6A3
:1033E000F8721140018170470A46002101894FF6A9
:1033F0008F73194011430181704730B504460D4663
:1034000029462046FFF7F0FF208940F00700208181
:1034100030BD2DE9F04104460D4616461F46602D8D
:1034200006D13B46012231462046FFF75AFE05E011
:103430003B46012231462046FFF79DFE29462046A5
:10344000FFF7D2FF208940F007002081BDE8F0811E
:1034500030B50C4600210189C9B24FF6FF7505EA67
:103460000325154325432943018130BD2DE9F04152
:1034700005460E4617469846002443463A463146CE
:103480002846FFF7E5FF2C894FF6F870044044F01A
:1034900007044FF68F70044044F070042C81BDE89F
:1034A000F081F0B504460D4616461F463B463246AF
:1034B00029462046FFF7CCFF208940F48040208138
:1034C000F0BD0185828270470A46002101884FF6CF
:1034D0008F731940114301807047F0B50C461546B3
:1034E0001E460021002200230189028B038C4FF627
:1034F000F877394021434FF6FC473A4040F2011734
:103500003A434FF6DD773B404FF6FF7707EA061761
:103510002F433B43018102830384F0BD0A4600210F
:10352000018B4FF68F7319401143018370470A4690
:103530000021018B48F6FF7319404FF6FF7303EA31
:1035400002231943018370470A460021818B4FF6FD
:103550008F7319401143818370470A460021818B84
:1035600048F6FF7319404FF6FF7303EA022319432D
:103570008183704721B1028842F08002028004E01A
:1035800002884FF67F731A400280704721B182880B
:1035900042F00402828004E082884FF6FB731A40F6
:1035A0008280704721B1828842F00802828004E064
:1035B00082884FF6F7731A408280704721B1828863
:1035C00042F00102828004E082884FF6FE731A40C6
:1035D000828070470A460021018B4FF6F77319402D
:1035E0001143018370470A460021018B4FF2FF739C
:1035F00019404FF6FF7303EA022319430183704712
:103600000A460021818B4FF6F773194011438183DD
:1036100070470A460021818B4FF2FF7319404FF625
:10362000FF7303EA02231943818370470A4600218E
:10363000018B4FF6FB7319401143018370470A4613
:103640000021018B4FF6FF3319404FF6FF7303EA59
:1036500002231943018370470A460021818B4FF6EC
:10366000FB7319401143818370470A460021818B07
:103670004FF6FF3319404FF6FF7303EA0223194355
:10368000818370470A460021018B4FF67F731940F2
:103690001143018370470A460021018BC1F30E01DB
:1036A0004FF6FF7303EA02231943018370470A466A
:1036B0000021818B4FF67F7319401143818370473E
:1036C0000A460021818BC1F30E014FF6FF7303EA16
:1036D00002231943818370470A460021018C4FF66B
:1036E000FD7319401143018470470A460021018C83
:1036F0004FF6F77319401143018470470A460021C1
:10370000018C4FF6DF7319404FF6FF7303EA021383
:103710001943018470470A460021018C4FF67F73DC
:1037200019404FF6FF7303EA0213194301847047EF
:103730000A460021018C4FF6FF5319404FF6FF73E4
:1037400003EA02231943018470470A460021018CD1
:103750004FF2FF7319404FF6FF7303EA0223194338
:10376000018470470A460021018C4DF6FF73194011
:103770004FF6FF7303EA023319430184704730B5F3
:10378000002301248C40A3B2048C9C430484048C49
:1037900002FA01F5ADB22C43048430BD30B50023EC
:1037A00004248C40A3B2048C9C430484048C02FA4D
:1037B00001F5ADB22C43048430BD70B50346002042
:1037C00000241846183001258D40ACB21D8CA5434D
:1037D0001D8409B1082909D100EB6100056825F0B5
:1037E000700505600568154305600EE00D1FC5F303
:1037F0004E052844056825F4E045056005684FF648
:10380000FF7606EA02263543056070BD21B10288C5
:1038100042F00202028004E002884FF6FD731A4073
:103820000280704721B1028842F00402028004E065
:1038300002884FF6FB731A400280704721B18288DC
:1038400042F08002828004E082884FF67F731A4043
:103850008280704702884FF6F7731A400280028810
:103860000A430280704782884FF68F731A40828025
:1038700082880A438280704702894FF6F8731A40A3
:10388000028102890A430281704702894FF67F73E1
:103890001A40028102890A4302817047818470477D
:1038A000818570478186704701877047818770479F
:1038B000A0F84010704702884FF6FF431A4002807C
:1038C00002880A43028070470146888E704701468D
:1038D000088F70470146888F70470146B1F8400055
:1038E00070470146888C70470146088D7047024634
:1038F0000020138A0B400BB1012000E0002070472C
:10390000CA430282704730B50246002000230024DB
:10391000158A05EA0103958905EA010413B10CB182
:10392000012000E0002030BDCA4302827047000041
:103930000648804706480047FEE7FEE7FEE7FEE749
:10394000FEE7FEE7FEE7FEE7FEE7FEE77318000886
:103950003101000840EA01039B0703D009E008C9D0
:10396000121F08C0042AFAD203E011F8013B00F844
:10397000013B521EF9D2704730B50B46014600207C
:103980002022012409E021FA02F59D4205D303FA21
:1039900002F5491B04FA02F52844151EA2F10102A2
:1039A000F1DC30BD064C074D06E0E06840F0010355
:1039B00094E8070098471034AC42F6D3FCF7BCFB00
:1039C0005C3B00087C3B00080FB4054B10B503A915
:1039D000044A029800F018F810BC5DF814FB0000CF
:1039E000750700085400002002E008C8121F08C133
:1039F000002AFAD170477047002001E001C1121F70
:103A0000002AFBD1704700002DE9FF4F89B09B468B
:103A10000446002506E025280BD05A460B9990470E
:103A2000641C6D1C20780028F5D10DB02846BDE837
:103A3000F08F0027B8460122474900E0074314F8F9
:103A4000013F203B02FA03F00842F7D120782E28EC
:103A500019D114F8010F47F004072A280ED06FF08F
:103A60002F022078A0F1300109290CD808EB880139
:103A700002EB410100EB0108641CF2E70A98641CA8
:103A800050F8048B0A9020780028CED0642808D003
:103A9000692806D075281ED05A460B9990476D1C90
:103AA00058E00A994FF00A0901C90A91002802DA80
:103AB00040422D2102E0390504D52B218DF820103C
:103AC000012103E0F90704D02021F7E78A4608AE78
:103AD0000DE00021FAE70A994FF00A0901C90A919D
:103AE000F7E74946FFF748FF303106F8011D002887
:103AF000F7D1ADEB060000F12009780701D44FF0B3
:103B00000108C84502DDA8EB090000E0002080465E
:103B1000002706E008A85A46C05D0B9990476D1C27
:103B20007F1C5745F6DB04E030205A460B9990473E
:103B30006D1CB8F10001A8F10108F5DC05E016F8EC
:103B4000010B5A460B9990476D1CB9F10001A9F180
:103B50000109F4DC641C65E7092801007C3B0008CE
:103B60000000002058000000E8390008D43B00089D
:103B700058000020601E0000F83900080000000016
:103B80000000000000000000000000000000000035
:103B90000000000000000000000000000000000025
:103BA000000000000000000000A24A040000000025
:103BB00000000000010203040607080900000000DD
:103BC00001020304010203040607080902040608AF
:043BD00000000000F1
:0400000508000131BD
:00000001FF
