Component: ARM Compiler 5.05 update 1 (build 106) Tool: armlink [4d0efa]

==============================================================================

Section Cross References

    main.o(.text) refers to mcu_sys.o(.text) for NVIC_Configuration
    main.o(.text) refers to usart.o(.text) for usart_init
    main.o(.text) refers to delay.o(.text) for delay_init
    main.o(.text) refers to looplist.o(.text) for rbCanRead
    main.o(.text) refers to stm32f10x_usart.o(.text) for USART_SendData
    main.o(.text) refers to usart.o(.bss) for rb_t_usart1_read
    delay.o(.text) refers to misc.o(.text) for SysTick_CLKSourceConfig
    delay.o(.text) refers to system_stm32f10x.o(.data) for SystemCoreClock
    delay.o(.text) refers to delay.o(.data) for fac_us
    usart.o(.text) refers to looplist.o(.text) for rbCreate
    usart.o(.text) refers to stm32f10x_rcc.o(.text) for RCC_APB1PeriphClockCmd
    usart.o(.text) refers to stm32f10x_gpio.o(.text) for GPIO_Init
    usart.o(.text) refers to stm32f10x_usart.o(.text) for USART_Init
    usart.o(.text) refers to misc.o(.text) for NVIC_Init
    usart.o(.text) refers to printfb.o(i.__0printf$bare) for __2printf
    usart.o(.text) refers to usart.o(.bss) for rb_t_usart1_read_buff
    usart.o(.text) refers to usart.o(.data) for usart2_read_count
    timer.o(.text) refers to misc.o(.text) for NVIC_Init
==============================================================================

Removing Unused input sections from the image.

    Removing core_cm3.o(.emb_text), (32 bytes).
    Removing stm32f10x_flash.o(.text), (1468 bytes).
    Removing stm32f10x_iwdg.o(.text), (64 bytes).
    Removing stm32f10x_can.o(.text), (2544 bytes).
    Removing stm32f10x_adc.o(.text), (1102 bytes).
    Removing stm32f10x_pwr.o(.text), (204 bytes).
    Removing stm32f10x_exti.o(.text), (284 bytes).
    Removing startup_stm32f10x_hd.o(HEAP), (512 bytes).
    Removing buffermanage.o(.text), (212 bytes).
    Removing dadd.o(.text), (334 bytes).
    Removing dmul.o(.text), (228 bytes).
    Removing ddiv.o(.text), (222 bytes).
    Removing dfixul.o(.text), (48 bytes).
    Removing cdrcmple.o(.text), (48 bytes).
    Removing depilogue.o(.text), (186 bytes).

15 unused section(s) (total 7488 bytes) removed from the image.

==============================================================================

Image Symbol Table

    Local Symbols

    Symbol Name                              Value     Ov Type        Size  Object(Section)

    ../clib/microlib/division.c              0x00000000   Number         0  uldiv.o ABSOLUTE
    ../clib/microlib/division.c              0x00000000   Number         0  uidiv.o ABSOLUTE
    ../clib/microlib/init/entry.s            0x00000000   Number         0  entry8b.o ABSOLUTE
    ../clib/microlib/init/entry.s            0x00000000   Number         0  entry9a.o ABSOLUTE
    ../clib/microlib/init/entry.s            0x00000000   Number         0  entry5.o ABSOLUTE
    ../clib/microlib/init/entry.s            0x00000000   Number         0  entry9b.o ABSOLUTE
    ../clib/microlib/init/entry.s            0x00000000   Number         0  entry.o ABSOLUTE
    ../clib/microlib/init/entry.s            0x00000000   Number         0  entry10a.o ABSOLUTE
    ../clib/microlib/init/entry.s            0x00000000   Number         0  entry10b.o ABSOLUTE
    ../clib/microlib/init/entry.s            0x00000000   Number         0  entry11b.o ABSOLUTE
    ../clib/microlib/init/entry.s            0x00000000   Number         0  entry11a.o ABSOLUTE
    ../clib/microlib/init/entry.s            0x00000000   Number         0  entry8a.o ABSOLUTE
    ../clib/microlib/init/entry.s            0x00000000   Number         0  entry7b.o ABSOLUTE
    ../clib/microlib/init/entry.s            0x00000000   Number         0  entry7a.o ABSOLUTE
    ../clib/microlib/init/entry.s            0x00000000   Number         0  entry2.o ABSOLUTE
    ../clib/microlib/longlong.c              0x00000000   Number         0  llsshr.o ABSOLUTE
    ../clib/microlib/longlong.c              0x00000000   Number         0  llushr.o ABSOLUTE
    ../clib/microlib/longlong.c              0x00000000   Number         0  llshl.o ABSOLUTE
    ../clib/microlib/printf/printf.c         0x00000000   Number         0  printf3.o ABSOLUTE
    ../clib/microlib/printf/printf.c         0x00000000   Number         0  printf5.o ABSOLUTE
    ../clib/microlib/printf/printf.c         0x00000000   Number         0  printf4.o ABSOLUTE
    ../clib/microlib/printf/printf.c         0x00000000   Number         0  printf2.o ABSOLUTE
    ../clib/microlib/printf/printf.c         0x00000000   Number         0  printf1.o ABSOLUTE
    ../clib/microlib/printf/printf.c         0x00000000   Number         0  printf0.o ABSOLUTE
    ../clib/microlib/printf/printf.c         0x00000000   Number         0  printfb.o ABSOLUTE
    ../clib/microlib/printf/printf.c         0x00000000   Number         0  printfa.o ABSOLUTE
    ../clib/microlib/printf/printf.c         0x00000000   Number         0  printf8.o ABSOLUTE
    ../clib/microlib/printf/printf.c         0x00000000   Number         0  printf7.o ABSOLUTE
    ../clib/microlib/printf/printf.c         0x00000000   Number         0  printf6.o ABSOLUTE
    ../clib/microlib/stdio/streams.c         0x00000000   Number         0  stdout.o ABSOLUTE
    ../clib/microlib/string/memcpy.c         0x00000000   Number         0  memcpya.o ABSOLUTE
    ../clib/microlib/string/memcpy.c         0x00000000   Number         0  memcpyb.o ABSOLUTE
    ../clib/microlib/stubs.s                 0x00000000   Number         0  iusefp.o ABSOLUTE
    ../fplib/microlib/fpadd.c                0x00000000   Number         0  dadd.o ABSOLUTE
    ../fplib/microlib/fpdiv.c                0x00000000   Number         0  ddiv.o ABSOLUTE
    ../fplib/microlib/fpepilogue.c           0x00000000   Number         0  depilogue.o ABSOLUTE
    ../fplib/microlib/fpfix.c                0x00000000   Number         0  dfixul.o ABSOLUTE
    ../fplib/microlib/fpmul.c                0x00000000   Number         0  dmul.o ABSOLUTE
    ..\CMSIS\core_cm3.c                      0x00000000   Number         0  core_cm3.o ABSOLUTE
    ..\CMSIS\system_stm32f10x.c              0x00000000   Number         0  system_stm32f10x.o ABSOLUTE
    ..\Libraries\src\misc.c                  0x00000000   Number         0  misc.o ABSOLUTE
    ..\Libraries\src\stm32f10x_adc.c         0x00000000   Number         0  stm32f10x_adc.o ABSOLUTE
    ..\Libraries\src\stm32f10x_can.c         0x00000000   Number         0  stm32f10x_can.o ABSOLUTE
    ..\Libraries\src\stm32f10x_exti.c        0x00000000   Number         0  stm32f10x_exti.o ABSOLUTE
    ..\Libraries\src\stm32f10x_flash.c       0x00000000   Number         0  stm32f10x_flash.o ABSOLUTE
    ..\Libraries\src\stm32f10x_gpio.c        0x00000000   Number         0  stm32f10x_gpio.o ABSOLUTE
    ..\Libraries\src\stm32f10x_iwdg.c        0x00000000   Number         0  stm32f10x_iwdg.o ABSOLUTE
    ..\Libraries\src\stm32f10x_pwr.c         0x00000000   Number         0  stm32f10x_pwr.o ABSOLUTE
    ..\Libraries\src\stm32f10x_rcc.c         0x00000000   Number         0  stm32f10x_rcc.o ABSOLUTE
    ..\Libraries\src\stm32f10x_tim.c         0x00000000   Number         0  stm32f10x_tim.o ABSOLUTE
    ..\Libraries\src\stm32f10x_usart.c       0x00000000   Number         0  stm32f10x_usart.o ABSOLUTE
    ..\Startup\startup_stm32f10x_hd.s        0x00000000   Number         0  startup_stm32f10x_hd.o ABSOLUTE
    ..\User\delay.c                          0x00000000   Number         0  delay.o ABSOLUTE
    ..\User\main.c                           0x00000000   Number         0  main.o ABSOLUTE
    ..\User\mcu_sys.c                        0x00000000   Number         0  mcu_sys.o ABSOLUTE
    ..\User\stm32f10x_it.c                   0x00000000   Number         0  stm32f10x_it.o ABSOLUTE
    ..\User\timer.c                          0x00000000   Number         0  timer.o ABSOLUTE
    ..\User\usart.c                          0x00000000   Number         0  usart.o ABSOLUTE
    ..\\CMSIS\\core_cm3.c                    0x00000000   Number         0  core_cm3.o ABSOLUTE
    ..\mem\BufferManage.c                    0x00000000   Number         0  buffermanage.o ABSOLUTE
    ..\mem\LoopList.c                        0x00000000   Number         0  looplist.o ABSOLUTE
    cdrcmple.s                               0x00000000   Number         0  cdrcmple.o ABSOLUTE
    dc.s                                     0x00000000   Number         0  dc.o ABSOLUTE
    handlers.s                               0x00000000   Number         0  handlers.o ABSOLUTE
    init.s                                   0x00000000   Number         0  init.o ABSOLUTE
    RESET                                    0x08000000   Section      304  startup_stm32f10x_hd.o(RESET)
    .ARM.Collect$$$$00000000                 0x08000130   Section        0  entry.o(.ARM.Collect$$$$00000000)
    .ARM.Collect$$$$00000001                 0x08000130   Section        4  entry2.o(.ARM.Collect$$$$00000001)
    .ARM.Collect$$$$00000004                 0x08000134   Section        4  entry5.o(.ARM.Collect$$$$00000004)
    .ARM.Collect$$$$00000008                 0x08000138   Section        0  entry7b.o(.ARM.Collect$$$$00000008)
    .ARM.Collect$$$$0000000A                 0x08000138   Section        0  entry8b.o(.ARM.Collect$$$$0000000A)
    .ARM.Collect$$$$0000000B                 0x08000138   Section        8  entry9a.o(.ARM.Collect$$$$0000000B)
    .ARM.Collect$$$$0000000D                 0x08000140   Section        0  entry10a.o(.ARM.Collect$$$$0000000D)
    .ARM.Collect$$$$0000000F                 0x08000140   Section        0  entry11a.o(.ARM.Collect$$$$0000000F)
    .ARM.Collect$$$$00002712                 0x08000140   Section        4  entry2.o(.ARM.Collect$$$$00002712)
    __lit__00000000                          0x08000140   Data           4  entry2.o(.ARM.Collect$$$$00002712)
    .text                                    0x08000144   Section        0  stm32f10x_it.o(.text)
    .text                                    0x08000184   Section        0  main.o(.text)
    .text                                    0x080001c4   Section        0  delay.o(.text)
    .text                                    0x08000298   Section        0  usart.o(.text)
    .text                                    0x080008c0   Section        0  timer.o(.text)
    .text                                    0x0800095c   Section        0  mcu_sys.o(.text)
    .text                                    0x08000990   Section        0  system_stm32f10x.o(.text)
    SetSysClockTo72                          0x08000991   Thumb Code   214  system_stm32f10x.o(.text)
    SetSysClock                              0x08000a67   Thumb Code     8  system_stm32f10x.o(.text)
    .text                                    0x08000b70   Section        0  misc.o(.text)
    .text                                    0x08000c4c   Section        0  stm32f10x_rcc.o(.text)
    .text                                    0x08000ff0   Section        0  stm32f10x_usart.o(.text)
    .text                                    0x080013f8   Section        0  stm32f10x_gpio.o(.text)
    .text                                    0x08001754   Section        0  stm32f10x_tim.o(.text)
    TI4_Config                               0x08001bfb   Thumb Code   130  stm32f10x_tim.o(.text)
    TI3_Config                               0x08001c8f   Thumb Code   122  stm32f10x_tim.o(.text)
    TI2_Config                               0x08001d23   Thumb Code   130  stm32f10x_tim.o(.text)
    TI1_Config                               0x08001db7   Thumb Code   108  stm32f10x_tim.o(.text)
    .text                                    0x08002570   Section       36  startup_stm32f10x_hd.o(.text)
    .text                                    0x08002594   Section        0  looplist.o(.text)
    .text                                    0x08002790   Section        0  memcpya.o(.text)
    .text                                    0x080027b4   Section       36  init.o(.text)
    i.__0printf$bare                         0x080027d8   Section        0  printfb.o(i.__0printf$bare)
    i.__scatterload_copy                     0x080027e8   Section       14  handlers.o(i.__scatterload_copy)
    i.__scatterload_null                     0x080027f6   Section        2  handlers.o(i.__scatterload_null)
    i.__scatterload_zeroinit                 0x080027f8   Section       14  handlers.o(i.__scatterload_zeroinit)
    i._printf_core                           0x08002806   Section        0  printfb.o(i._printf_core)
    _printf_core                             0x08002807   Thumb Code    34  printfb.o(i._printf_core)
    .data                                    0x20000000   Section        4  delay.o(.data)
    fac_us                                   0x20000000   Data           1  delay.o(.data)
    fac_ms                                   0x20000002   Data           2  delay.o(.data)
    .data                                    0x20000004   Section       28  usart.o(.data)
    flag                                     0x2000001e   Data           1  usart.o(.data)
    flage                                    0x2000001f   Data           1  usart.o(.data)
    .data                                    0x20000020   Section        4  timer.o(.data)
    .data                                    0x20000024   Section       20  system_stm32f10x.o(.data)
    .data                                    0x20000038   Section       20  stm32f10x_rcc.o(.data)
    APBAHBPrescTable                         0x20000038   Data          16  stm32f10x_rcc.o(.data)
    ADCPrescTable                            0x20000048   Data           4  stm32f10x_rcc.o(.data)
    .data                                    0x2000004c   Section        4  stdout.o(.data)
    .bss                                     0x20000050   Section     6424  usart.o(.bss)
    STACK                                    0x20001968   Section     1024  startup_stm32f10x_hd.o(STACK)

    Global Symbols

    Symbol Name                              Value     Ov Type        Size  Object(Section)

    BuildAttributes$$THM_ISAv4$P$D$K$B$S$PE$A:L22UL41UL21$X:L11$S22US41US21$IEEE1$IW$USESV6$~STKCKD$USESV7$~SHL$OSPACE$ROPI$EBA8$MICROLIB$REQ8$PRES8$EABIv2 0x00000000   Number         0  anon$$obj.o ABSOLUTE
    __ARM_use_no_argv                        0x00000000   Number         0  main.o ABSOLUTE
    __cpp_initialize__aeabi_                  - Undefined Weak Reference
    __cxa_finalize                            - Undefined Weak Reference
    __decompress                              - Undefined Weak Reference
    _clock_init                               - Undefined Weak Reference
    _microlib_exit                            - Undefined Weak Reference
    __Vectors_Size                           0x00000130   Number         0  startup_stm32f10x_hd.o ABSOLUTE
    __Vectors                                0x08000000   Data           4  startup_stm32f10x_hd.o(RESET)
    __Vectors_End                            0x08000130   Data           0  startup_stm32f10x_hd.o(RESET)
    __main                                   0x08000131   Thumb Code     0  entry.o(.ARM.Collect$$$$00000000)
    _main_stk                                0x08000131   Thumb Code     0  entry2.o(.ARM.Collect$$$$00000001)
    _main_scatterload                        0x08000135   Thumb Code     0  entry5.o(.ARM.Collect$$$$00000004)
    __main_after_scatterload                 0x08000139   Thumb Code     0  entry5.o(.ARM.Collect$$$$00000004)
    _main_clock                              0x08000139   Thumb Code     0  entry7b.o(.ARM.Collect$$$$00000008)
    _main_cpp_init                           0x08000139   Thumb Code     0  entry8b.o(.ARM.Collect$$$$0000000A)
    _main_init                               0x08000139   Thumb Code     0  entry9a.o(.ARM.Collect$$$$0000000B)
    __rt_final_cpp                           0x08000141   Thumb Code     0  entry10a.o(.ARM.Collect$$$$0000000D)
    __rt_final_exit                          0x08000141   Thumb Code     0  entry11a.o(.ARM.Collect$$$$0000000F)
    NMI_Handler                              0x08000145   Thumb Code     2  stm32f10x_it.o(.text)
    HardFault_Handler                        0x08000147   Thumb Code    36  stm32f10x_it.o(.text)
    MemManage_Handler                        0x0800016b   Thumb Code     4  stm32f10x_it.o(.text)
    BusFault_Handler                         0x0800016f   Thumb Code     4  stm32f10x_it.o(.text)
    UsageFault_Handler                       0x08000173   Thumb Code     4  stm32f10x_it.o(.text)
    SVC_Handler                              0x08000177   Thumb Code     2  stm32f10x_it.o(.text)
    DebugMon_Handler                         0x08000179   Thumb Code     2  stm32f10x_it.o(.text)
    PendSV_Handler                           0x0800017b   Thumb Code     2  stm32f10x_it.o(.text)
    main                                     0x08000185   Thumb Code    56  main.o(.text)
    delay_init                               0x080001c5   Thumb Code    50  delay.o(.text)
    delay_us                                 0x080001f7   Thumb Code    72  delay.o(.text)
    delay_ms                                 0x0800023f   Thumb Code    72  delay.o(.text)
    usart_init                               0x08000299   Thumb Code   460  usart.o(.text)
    UsartOutStrIT                            0x08000465   Thumb Code   110  usart.o(.text)
    UsartOutStr                              0x080004d3   Thumb Code   114  usart.o(.text)
    UsartOutChar                             0x08000545   Thumb Code    30  usart.o(.text)
    Usart2IdleLoop                           0x08000563   Thumb Code    68  usart.o(.text)
    USART1_IRQHandler                        0x080005a7   Thumb Code   186  usart.o(.text)
    USART2_IRQHandler                        0x08000661   Thumb Code   258  usart.o(.text)
    USART3_IRQHandler                        0x08000763   Thumb Code   222  usart.o(.text)
    fputc                                    0x08000841   Thumb Code    58  usart.o(.text)
    Timer2Init                               0x080008c1   Thumb Code   110  timer.o(.text)
    TIM2_IRQHandler                          0x0800092f   Thumb Code    40  timer.o(.text)
    NVIC_Configuration                       0x0800095d   Thumb Code    12  mcu_sys.o(.text)
    mcu_sys_reset                            0x08000969   Thumb Code    32  mcu_sys.o(.text)
    SystemInit                               0x08000a6f   Thumb Code    78  system_stm32f10x.o(.text)
    SystemCoreClockUpdate                    0x08000abd   Thumb Code   142  system_stm32f10x.o(.text)
    NVIC_PriorityGroupConfig                 0x08000b71   Thumb Code    10  misc.o(.text)
    NVIC_Init                                0x08000b7b   Thumb Code   100  misc.o(.text)
    NVIC_SetVectorTable                      0x08000bdf   Thumb Code    14  misc.o(.text)
    NVIC_SystemLPConfig                      0x08000bed   Thumb Code    34  misc.o(.text)
    SysTick_CLKSourceConfig                  0x08000c0f   Thumb Code    40  misc.o(.text)
    RCC_DeInit                               0x08000c4d   Thumb Code    64  stm32f10x_rcc.o(.text)
    RCC_HSEConfig                            0x08000c8d   Thumb Code    70  stm32f10x_rcc.o(.text)
    RCC_GetFlagStatus                        0x08000cd3   Thumb Code    56  stm32f10x_rcc.o(.text)
    RCC_WaitForHSEStartUp                    0x08000d0b   Thumb Code    56  stm32f10x_rcc.o(.text)
    RCC_AdjustHSICalibrationValue            0x08000d43   Thumb Code    20  stm32f10x_rcc.o(.text)
    RCC_HSICmd                               0x08000d57   Thumb Code     6  stm32f10x_rcc.o(.text)
    RCC_PLLConfig                            0x08000d5d   Thumb Code    24  stm32f10x_rcc.o(.text)
    RCC_PLLCmd                               0x08000d75   Thumb Code     6  stm32f10x_rcc.o(.text)
    RCC_SYSCLKConfig                         0x08000d7b   Thumb Code    18  stm32f10x_rcc.o(.text)
    RCC_GetSYSCLKSource                      0x08000d8d   Thumb Code    10  stm32f10x_rcc.o(.text)
    RCC_HCLKConfig                           0x08000d97   Thumb Code    18  stm32f10x_rcc.o(.text)
    RCC_PCLK1Config                          0x08000da9   Thumb Code    18  stm32f10x_rcc.o(.text)
    RCC_PCLK2Config                          0x08000dbb   Thumb Code    20  stm32f10x_rcc.o(.text)
    RCC_ITConfig                             0x08000dcf   Thumb Code    26  stm32f10x_rcc.o(.text)
    RCC_USBCLKConfig                         0x08000de9   Thumb Code     8  stm32f10x_rcc.o(.text)
    RCC_ADCCLKConfig                         0x08000df1   Thumb Code    18  stm32f10x_rcc.o(.text)
    RCC_LSEConfig                            0x08000e03   Thumb Code    50  stm32f10x_rcc.o(.text)
    RCC_LSICmd                               0x08000e35   Thumb Code     6  stm32f10x_rcc.o(.text)
    RCC_RTCCLKConfig                         0x08000e3b   Thumb Code    12  stm32f10x_rcc.o(.text)
    RCC_RTCCLKCmd                            0x08000e47   Thumb Code     8  stm32f10x_rcc.o(.text)
    RCC_GetClocksFreq                        0x08000e4f   Thumb Code   192  stm32f10x_rcc.o(.text)
    RCC_AHBPeriphClockCmd                    0x08000f0f   Thumb Code    26  stm32f10x_rcc.o(.text)
    RCC_APB2PeriphClockCmd                   0x08000f29   Thumb Code    26  stm32f10x_rcc.o(.text)
    RCC_APB1PeriphClockCmd                   0x08000f43   Thumb Code    26  stm32f10x_rcc.o(.text)
    RCC_APB2PeriphResetCmd                   0x08000f5d   Thumb Code    26  stm32f10x_rcc.o(.text)
    RCC_APB1PeriphResetCmd                   0x08000f77   Thumb Code    26  stm32f10x_rcc.o(.text)
    RCC_BackupResetCmd                       0x08000f91   Thumb Code     8  stm32f10x_rcc.o(.text)
    RCC_ClockSecuritySystemCmd               0x08000f99   Thumb Code     6  stm32f10x_rcc.o(.text)
    RCC_MCOConfig                            0x08000f9f   Thumb Code     6  stm32f10x_rcc.o(.text)
    RCC_ClearFlag                            0x08000fa5   Thumb Code    14  stm32f10x_rcc.o(.text)
    RCC_GetITStatus                          0x08000fb3   Thumb Code    20  stm32f10x_rcc.o(.text)
    RCC_ClearITPendingBit                    0x08000fc7   Thumb Code     6  stm32f10x_rcc.o(.text)
    USART_DeInit                             0x08000ff1   Thumb Code   134  stm32f10x_usart.o(.text)
    USART_Init                               0x08001077   Thumb Code   210  stm32f10x_usart.o(.text)
    USART_StructInit                         0x08001149   Thumb Code    24  stm32f10x_usart.o(.text)
    USART_ClockInit                          0x08001161   Thumb Code    34  stm32f10x_usart.o(.text)
    USART_ClockStructInit                    0x08001183   Thumb Code    12  stm32f10x_usart.o(.text)
    USART_Cmd                                0x0800118f   Thumb Code    24  stm32f10x_usart.o(.text)
    USART_ITConfig                           0x080011a7   Thumb Code    74  stm32f10x_usart.o(.text)
    USART_DMACmd                             0x080011f1   Thumb Code    18  stm32f10x_usart.o(.text)
    USART_SetAddress                         0x08001203   Thumb Code    18  stm32f10x_usart.o(.text)
    USART_WakeUpConfig                       0x08001215   Thumb Code    18  stm32f10x_usart.o(.text)
    USART_ReceiverWakeUpCmd                  0x08001227   Thumb Code    24  stm32f10x_usart.o(.text)
    USART_LINBreakDetectLengthConfig         0x0800123f   Thumb Code    18  stm32f10x_usart.o(.text)
    USART_LINCmd                             0x08001251   Thumb Code    24  stm32f10x_usart.o(.text)
    USART_SendData                           0x08001269   Thumb Code     8  stm32f10x_usart.o(.text)
    USART_ReceiveData                        0x08001271   Thumb Code    10  stm32f10x_usart.o(.text)
    USART_SendBreak                          0x0800127b   Thumb Code    10  stm32f10x_usart.o(.text)
    USART_SetGuardTime                       0x08001285   Thumb Code    16  stm32f10x_usart.o(.text)
    USART_SetPrescaler                       0x08001295   Thumb Code    16  stm32f10x_usart.o(.text)
    USART_SmartCardCmd                       0x080012a5   Thumb Code    24  stm32f10x_usart.o(.text)
    USART_SmartCardNACKCmd                   0x080012bd   Thumb Code    24  stm32f10x_usart.o(.text)
    USART_HalfDuplexCmd                      0x080012d5   Thumb Code    24  stm32f10x_usart.o(.text)
    USART_OverSampling8Cmd                   0x080012ed   Thumb Code    22  stm32f10x_usart.o(.text)
    USART_OneBitMethodCmd                    0x08001303   Thumb Code    24  stm32f10x_usart.o(.text)
    USART_IrDAConfig                         0x0800131b   Thumb Code    18  stm32f10x_usart.o(.text)
    USART_IrDACmd                            0x0800132d   Thumb Code    24  stm32f10x_usart.o(.text)
    USART_GetFlagStatus                      0x08001345   Thumb Code    26  stm32f10x_usart.o(.text)
    USART_ClearFlag                          0x0800135f   Thumb Code    18  stm32f10x_usart.o(.text)
    USART_GetITStatus                        0x08001371   Thumb Code    84  stm32f10x_usart.o(.text)
    USART_ClearITPendingBit                  0x080013c5   Thumb Code    52  stm32f10x_usart.o(.text)
    GPIO_DeInit                              0x080013f9   Thumb Code   172  stm32f10x_gpio.o(.text)
    GPIO_AFIODeInit                          0x080014a5   Thumb Code    20  stm32f10x_gpio.o(.text)
    GPIO_Init                                0x080014b9   Thumb Code   278  stm32f10x_gpio.o(.text)
    GPIO_StructInit                          0x080015cf   Thumb Code    16  stm32f10x_gpio.o(.text)
    GPIO_ReadInputDataBit                    0x080015df   Thumb Code    18  stm32f10x_gpio.o(.text)
    GPIO_ReadInputData                       0x080015f1   Thumb Code     8  stm32f10x_gpio.o(.text)
    GPIO_ReadOutputDataBit                   0x080015f9   Thumb Code    18  stm32f10x_gpio.o(.text)
    GPIO_ReadOutputData                      0x0800160b   Thumb Code     8  stm32f10x_gpio.o(.text)
    GPIO_SetBits                             0x08001613   Thumb Code     4  stm32f10x_gpio.o(.text)
    GPIO_ResetBits                           0x08001617   Thumb Code     4  stm32f10x_gpio.o(.text)
    GPIO_WriteBit                            0x0800161b   Thumb Code    10  stm32f10x_gpio.o(.text)
    GPIO_Write                               0x08001625   Thumb Code     4  stm32f10x_gpio.o(.text)
    GPIO_PinLockConfig                       0x08001629   Thumb Code    18  stm32f10x_gpio.o(.text)
    GPIO_EventOutputConfig                   0x0800163b   Thumb Code    26  stm32f10x_gpio.o(.text)
    GPIO_EventOutputCmd                      0x08001655   Thumb Code     6  stm32f10x_gpio.o(.text)
    GPIO_PinRemapConfig                      0x0800165b   Thumb Code   138  stm32f10x_gpio.o(.text)
    GPIO_EXTILineConfig                      0x080016e5   Thumb Code    66  stm32f10x_gpio.o(.text)
    GPIO_ETH_MediaInterfaceConfig            0x08001727   Thumb Code     8  stm32f10x_gpio.o(.text)
    TIM_DeInit                               0x08001755   Thumb Code   424  stm32f10x_tim.o(.text)
    TIM_TimeBaseInit                         0x080018fd   Thumb Code   122  stm32f10x_tim.o(.text)
    TIM_OC1Init                              0x08001977   Thumb Code   132  stm32f10x_tim.o(.text)
    TIM_OC2Init                              0x080019fb   Thumb Code   154  stm32f10x_tim.o(.text)
    TIM_OC3Init                              0x08001a95   Thumb Code   150  stm32f10x_tim.o(.text)
    TIM_OC4Init                              0x08001b2b   Thumb Code   182  stm32f10x_tim.o(.text)
    TIM_SetIC4Prescaler                      0x08001be1   Thumb Code    26  stm32f10x_tim.o(.text)
    TIM_SetIC3Prescaler                      0x08001c7d   Thumb Code    18  stm32f10x_tim.o(.text)
    TIM_SetIC2Prescaler                      0x08001d09   Thumb Code    26  stm32f10x_tim.o(.text)
    TIM_SetIC1Prescaler                      0x08001da5   Thumb Code    18  stm32f10x_tim.o(.text)
    TIM_ICInit                               0x08001e23   Thumb Code   150  stm32f10x_tim.o(.text)
    TIM_PWMIConfig                           0x08001eb9   Thumb Code   124  stm32f10x_tim.o(.text)
    TIM_BDTRConfig                           0x08001f35   Thumb Code    32  stm32f10x_tim.o(.text)
    TIM_TimeBaseStructInit                   0x08001f55   Thumb Code    18  stm32f10x_tim.o(.text)
    TIM_OCStructInit                         0x08001f67   Thumb Code    20  stm32f10x_tim.o(.text)
    TIM_ICStructInit                         0x08001f7b   Thumb Code    18  stm32f10x_tim.o(.text)
    TIM_BDTRStructInit                       0x08001f8d   Thumb Code    40  stm32f10x_tim.o(.text)
    TIM_Cmd                                  0x08001fb5   Thumb Code    24  stm32f10x_tim.o(.text)
    TIM_CtrlPWMOutputs                       0x08001fcd   Thumb Code    30  stm32f10x_tim.o(.text)
    TIM_ITConfig                             0x08001feb   Thumb Code    18  stm32f10x_tim.o(.text)
    TIM_GenerateEvent                        0x08001ffd   Thumb Code     4  stm32f10x_tim.o(.text)
    TIM_DMAConfig                            0x08002001   Thumb Code    10  stm32f10x_tim.o(.text)
    TIM_DMACmd                               0x0800200b   Thumb Code    18  stm32f10x_tim.o(.text)
    TIM_InternalClockConfig                  0x0800201d   Thumb Code    12  stm32f10x_tim.o(.text)
    TIM_SelectInputTrigger                   0x08002029   Thumb Code    18  stm32f10x_tim.o(.text)
    TIM_ITRxExternalClockConfig              0x0800203b   Thumb Code    24  stm32f10x_tim.o(.text)
    TIM_TIxExternalClockConfig               0x08002053   Thumb Code    62  stm32f10x_tim.o(.text)
    TIM_ETRConfig                            0x08002091   Thumb Code    28  stm32f10x_tim.o(.text)
    TIM_ETRClockMode1Config                  0x080020ad   Thumb Code    54  stm32f10x_tim.o(.text)
    TIM_ETRClockMode2Config                  0x080020e3   Thumb Code    32  stm32f10x_tim.o(.text)
    TIM_PrescalerConfig                      0x08002103   Thumb Code     6  stm32f10x_tim.o(.text)
    TIM_CounterModeConfig                    0x08002109   Thumb Code    18  stm32f10x_tim.o(.text)
    TIM_EncoderInterfaceConfig               0x0800211b   Thumb Code    66  stm32f10x_tim.o(.text)
    TIM_ForcedOC1Config                      0x0800215d   Thumb Code    18  stm32f10x_tim.o(.text)
    TIM_ForcedOC2Config                      0x0800216f   Thumb Code    26  stm32f10x_tim.o(.text)
    TIM_ForcedOC3Config                      0x08002189   Thumb Code    18  stm32f10x_tim.o(.text)
    TIM_ForcedOC4Config                      0x0800219b   Thumb Code    26  stm32f10x_tim.o(.text)
    TIM_ARRPreloadConfig                     0x080021b5   Thumb Code    24  stm32f10x_tim.o(.text)
    TIM_SelectCOM                            0x080021cd   Thumb Code    24  stm32f10x_tim.o(.text)
    TIM_SelectCCDMA                          0x080021e5   Thumb Code    24  stm32f10x_tim.o(.text)
    TIM_CCPreloadControl                     0x080021fd   Thumb Code    24  stm32f10x_tim.o(.text)
    TIM_OC1PreloadConfig                     0x08002215   Thumb Code    18  stm32f10x_tim.o(.text)
    TIM_OC2PreloadConfig                     0x08002227   Thumb Code    26  stm32f10x_tim.o(.text)
    TIM_OC3PreloadConfig                     0x08002241   Thumb Code    18  stm32f10x_tim.o(.text)
    TIM_OC4PreloadConfig                     0x08002253   Thumb Code    26  stm32f10x_tim.o(.text)
    TIM_OC1FastConfig                        0x0800226d   Thumb Code    18  stm32f10x_tim.o(.text)
    TIM_OC2FastConfig                        0x0800227f   Thumb Code    26  stm32f10x_tim.o(.text)
    TIM_OC3FastConfig                        0x08002299   Thumb Code    18  stm32f10x_tim.o(.text)
    TIM_OC4FastConfig                        0x080022ab   Thumb Code    26  stm32f10x_tim.o(.text)
    TIM_ClearOC1Ref                          0x080022c5   Thumb Code    18  stm32f10x_tim.o(.text)
    TIM_ClearOC2Ref                          0x080022d7   Thumb Code    24  stm32f10x_tim.o(.text)
    TIM_ClearOC3Ref                          0x080022ef   Thumb Code    18  stm32f10x_tim.o(.text)
    TIM_ClearOC4Ref                          0x08002301   Thumb Code    24  stm32f10x_tim.o(.text)
    TIM_OC1PolarityConfig                    0x08002319   Thumb Code    18  stm32f10x_tim.o(.text)
    TIM_OC1NPolarityConfig                   0x0800232b   Thumb Code    18  stm32f10x_tim.o(.text)
    TIM_OC2PolarityConfig                    0x0800233d   Thumb Code    26  stm32f10x_tim.o(.text)
    TIM_OC2NPolarityConfig                   0x08002357   Thumb Code    26  stm32f10x_tim.o(.text)
    TIM_OC3PolarityConfig                    0x08002371   Thumb Code    26  stm32f10x_tim.o(.text)
    TIM_OC3NPolarityConfig                   0x0800238b   Thumb Code    26  stm32f10x_tim.o(.text)
    TIM_OC4PolarityConfig                    0x080023a5   Thumb Code    26  stm32f10x_tim.o(.text)
    TIM_CCxCmd                               0x080023bf   Thumb Code    30  stm32f10x_tim.o(.text)
    TIM_CCxNCmd                              0x080023dd   Thumb Code    30  stm32f10x_tim.o(.text)
    TIM_SelectOCxM                           0x080023fb   Thumb Code    82  stm32f10x_tim.o(.text)
    TIM_UpdateDisableConfig                  0x0800244d   Thumb Code    24  stm32f10x_tim.o(.text)
    TIM_UpdateRequestConfig                  0x08002465   Thumb Code    24  stm32f10x_tim.o(.text)
    TIM_SelectHallSensor                     0x0800247d   Thumb Code    24  stm32f10x_tim.o(.text)
    TIM_SelectOnePulseMode                   0x08002495   Thumb Code    18  stm32f10x_tim.o(.text)
    TIM_SelectOutputTrigger                  0x080024a7   Thumb Code    18  stm32f10x_tim.o(.text)
    TIM_SelectSlaveMode                      0x080024b9   Thumb Code    18  stm32f10x_tim.o(.text)
    TIM_SelectMasterSlaveMode                0x080024cb   Thumb Code    18  stm32f10x_tim.o(.text)
    TIM_SetCounter                           0x080024dd   Thumb Code     4  stm32f10x_tim.o(.text)
    TIM_SetAutoreload                        0x080024e1   Thumb Code     4  stm32f10x_tim.o(.text)
    TIM_SetCompare1                          0x080024e5   Thumb Code     4  stm32f10x_tim.o(.text)
    TIM_SetCompare2                          0x080024e9   Thumb Code     4  stm32f10x_tim.o(.text)
    TIM_SetCompare3                          0x080024ed   Thumb Code     4  stm32f10x_tim.o(.text)
    TIM_SetCompare4                          0x080024f1   Thumb Code     6  stm32f10x_tim.o(.text)
    TIM_SetClockDivision                     0x080024f7   Thumb Code    18  stm32f10x_tim.o(.text)
    TIM_GetCapture1                          0x08002509   Thumb Code     6  stm32f10x_tim.o(.text)
    TIM_GetCapture2                          0x0800250f   Thumb Code     6  stm32f10x_tim.o(.text)
    TIM_GetCapture3                          0x08002515   Thumb Code     6  stm32f10x_tim.o(.text)
    TIM_GetCapture4                          0x0800251b   Thumb Code     8  stm32f10x_tim.o(.text)
    TIM_GetCounter                           0x08002523   Thumb Code     6  stm32f10x_tim.o(.text)
    TIM_GetPrescaler                         0x08002529   Thumb Code     6  stm32f10x_tim.o(.text)
    TIM_GetFlagStatus                        0x0800252f   Thumb Code    18  stm32f10x_tim.o(.text)
    TIM_ClearFlag                            0x08002541   Thumb Code     6  stm32f10x_tim.o(.text)
    TIM_GetITStatus                          0x08002547   Thumb Code    34  stm32f10x_tim.o(.text)
    TIM_ClearITPendingBit                    0x08002569   Thumb Code     6  stm32f10x_tim.o(.text)
    Reset_Handler                            0x08002571   Thumb Code     8  startup_stm32f10x_hd.o(.text)
    SysTick_Handler                          0x08002589   Thumb Code     2  startup_stm32f10x_hd.o(.text)
    ADC1_2_IRQHandler                        0x0800258b   Thumb Code     0  startup_stm32f10x_hd.o(.text)
    ADC3_IRQHandler                          0x0800258b   Thumb Code     0  startup_stm32f10x_hd.o(.text)
    CAN1_RX1_IRQHandler                      0x0800258b   Thumb Code     0  startup_stm32f10x_hd.o(.text)
    CAN1_SCE_IRQHandler                      0x0800258b   Thumb Code     0  startup_stm32f10x_hd.o(.text)
    DMA1_Channel1_IRQHandler                 0x0800258b   Thumb Code     0  startup_stm32f10x_hd.o(.text)
    DMA1_Channel2_IRQHandler                 0x0800258b   Thumb Code     0  startup_stm32f10x_hd.o(.text)
    DMA1_Channel3_IRQHandler                 0x0800258b   Thumb Code     0  startup_stm32f10x_hd.o(.text)
    DMA1_Channel4_IRQHandler                 0x0800258b   Thumb Code     0  startup_stm32f10x_hd.o(.text)
    DMA1_Channel5_IRQHandler                 0x0800258b   Thumb Code     0  startup_stm32f10x_hd.o(.text)
    DMA1_Channel6_IRQHandler                 0x0800258b   Thumb Code     0  startup_stm32f10x_hd.o(.text)
    DMA1_Channel7_IRQHandler                 0x0800258b   Thumb Code     0  startup_stm32f10x_hd.o(.text)
    DMA2_Channel1_IRQHandler                 0x0800258b   Thumb Code     0  startup_stm32f10x_hd.o(.text)
    DMA2_Channel2_IRQHandler                 0x0800258b   Thumb Code     0  startup_stm32f10x_hd.o(.text)
    DMA2_Channel3_IRQHandler                 0x0800258b   Thumb Code     0  startup_stm32f10x_hd.o(.text)
    DMA2_Channel4_5_IRQHandler               0x0800258b   Thumb Code     0  startup_stm32f10x_hd.o(.text)
    EXTI0_IRQHandler                         0x0800258b   Thumb Code     0  startup_stm32f10x_hd.o(.text)
    EXTI15_10_IRQHandler                     0x0800258b   Thumb Code     0  startup_stm32f10x_hd.o(.text)
    EXTI1_IRQHandler                         0x0800258b   Thumb Code     0  startup_stm32f10x_hd.o(.text)
    EXTI2_IRQHandler                         0x0800258b   Thumb Code     0  startup_stm32f10x_hd.o(.text)
    EXTI3_IRQHandler                         0x0800258b   Thumb Code     0  startup_stm32f10x_hd.o(.text)
    EXTI4_IRQHandler                         0x0800258b   Thumb Code     0  startup_stm32f10x_hd.o(.text)
    EXTI9_5_IRQHandler                       0x0800258b   Thumb Code     0  startup_stm32f10x_hd.o(.text)
    FLASH_IRQHandler                         0x0800258b   Thumb Code     0  startup_stm32f10x_hd.o(.text)
    FSMC_IRQHandler                          0x0800258b   Thumb Code     0  startup_stm32f10x_hd.o(.text)
    I2C1_ER_IRQHandler                       0x0800258b   Thumb Code     0  startup_stm32f10x_hd.o(.text)
    I2C1_EV_IRQHandler                       0x0800258b   Thumb Code     0  startup_stm32f10x_hd.o(.text)
    I2C2_ER_IRQHandler                       0x0800258b   Thumb Code     0  startup_stm32f10x_hd.o(.text)
    I2C2_EV_IRQHandler                       0x0800258b   Thumb Code     0  startup_stm32f10x_hd.o(.text)
    PVD_IRQHandler                           0x0800258b   Thumb Code     0  startup_stm32f10x_hd.o(.text)
    RCC_IRQHandler                           0x0800258b   Thumb Code     0  startup_stm32f10x_hd.o(.text)
    RTCAlarm_IRQHandler                      0x0800258b   Thumb Code     0  startup_stm32f10x_hd.o(.text)
    RTC_IRQHandler                           0x0800258b   Thumb Code     0  startup_stm32f10x_hd.o(.text)
    SDIO_IRQHandler                          0x0800258b   Thumb Code     0  startup_stm32f10x_hd.o(.text)
    SPI1_IRQHandler                          0x0800258b   Thumb Code     0  startup_stm32f10x_hd.o(.text)
    SPI2_IRQHandler                          0x0800258b   Thumb Code     0  startup_stm32f10x_hd.o(.text)
    SPI3_IRQHandler                          0x0800258b   Thumb Code     0  startup_stm32f10x_hd.o(.text)
    TAMPER_IRQHandler                        0x0800258b   Thumb Code     0  startup_stm32f10x_hd.o(.text)
    TIM1_BRK_IRQHandler                      0x0800258b   Thumb Code     0  startup_stm32f10x_hd.o(.text)
    TIM1_CC_IRQHandler                       0x0800258b   Thumb Code     0  startup_stm32f10x_hd.o(.text)
    TIM1_TRG_COM_IRQHandler                  0x0800258b   Thumb Code     0  startup_stm32f10x_hd.o(.text)
    TIM1_UP_IRQHandler                       0x0800258b   Thumb Code     0  startup_stm32f10x_hd.o(.text)
    TIM3_IRQHandler                          0x0800258b   Thumb Code     0  startup_stm32f10x_hd.o(.text)
    TIM4_IRQHandler                          0x0800258b   Thumb Code     0  startup_stm32f10x_hd.o(.text)
    TIM5_IRQHandler                          0x0800258b   Thumb Code     0  startup_stm32f10x_hd.o(.text)
    TIM6_IRQHandler                          0x0800258b   Thumb Code     0  startup_stm32f10x_hd.o(.text)
    TIM7_IRQHandler                          0x0800258b   Thumb Code     0  startup_stm32f10x_hd.o(.text)
    TIM8_BRK_IRQHandler                      0x0800258b   Thumb Code     0  startup_stm32f10x_hd.o(.text)
    TIM8_CC_IRQHandler                       0x0800258b   Thumb Code     0  startup_stm32f10x_hd.o(.text)
    TIM8_TRG_COM_IRQHandler                  0x0800258b   Thumb Code     0  startup_stm32f10x_hd.o(.text)
    TIM8_UP_IRQHandler                       0x0800258b   Thumb Code     0  startup_stm32f10x_hd.o(.text)
    UART4_IRQHandler                         0x0800258b   Thumb Code     0  startup_stm32f10x_hd.o(.text)
    UART5_IRQHandler                         0x0800258b   Thumb Code     0  startup_stm32f10x_hd.o(.text)
    USBWakeUp_IRQHandler                     0x0800258b   Thumb Code     0  startup_stm32f10x_hd.o(.text)
    USB_HP_CAN1_TX_IRQHandler                0x0800258b   Thumb Code     0  startup_stm32f10x_hd.o(.text)
    USB_LP_CAN1_RX0_IRQHandler               0x0800258b   Thumb Code     0  startup_stm32f10x_hd.o(.text)
    WWDG_IRQHandler                          0x0800258b   Thumb Code     0  startup_stm32f10x_hd.o(.text)
    rbCreate                                 0x08002595   Thumb Code    20  looplist.o(.text)
    rbDelete                                 0x080025a9   Thumb Code    18  looplist.o(.text)
    rbCapacity                               0x080025bb   Thumb Code    14  looplist.o(.text)
    rbCanRead                                0x080025c9   Thumb Code    56  looplist.o(.text)
    rbCanWrite                               0x08002601   Thumb Code    30  looplist.o(.text)
    rbRead                                   0x0800261f   Thumb Code   164  looplist.o(.text)
    rbWrite                                  0x080026c3   Thumb Code   160  looplist.o(.text)
    PutData                                  0x08002763   Thumb Code    46  looplist.o(.text)
    __aeabi_memcpy                           0x08002791   Thumb Code    36  memcpya.o(.text)
    __aeabi_memcpy4                          0x08002791   Thumb Code     0  memcpya.o(.text)
    __aeabi_memcpy8                          0x08002791   Thumb Code     0  memcpya.o(.text)
    __scatterload                            0x080027b5   Thumb Code    28  init.o(.text)
    __scatterload_rt2                        0x080027b5   Thumb Code     0  init.o(.text)
    __0printf$bare                           0x080027d9   Thumb Code     8  printfb.o(i.__0printf$bare)
    __1printf$bare                           0x080027d9   Thumb Code     0  printfb.o(i.__0printf$bare)
    __2printf                                0x080027d9   Thumb Code     0  printfb.o(i.__0printf$bare)
    __scatterload_copy                       0x080027e9   Thumb Code    14  handlers.o(i.__scatterload_copy)
    __scatterload_null                       0x080027f7   Thumb Code     2  handlers.o(i.__scatterload_null)
    __scatterload_zeroinit                   0x080027f9   Thumb Code    14  handlers.o(i.__scatterload_zeroinit)
    Region$$Table$$Base                      0x08002828   Number         0  anon$$obj.o(Region$$Table)
    Region$$Table$$Limit                     0x08002848   Number         0  anon$$obj.o(Region$$Table)
    rb_t_usart1_send_byte                    0x20000004   Data           1  usart.o(.data)
    rb_t_usart3_send_byte                    0x20000005   Data           1  usart.o(.data)
    usart1_read_count                        0x20000008   Data           4  usart.o(.data)
    usart1_idle_flag                         0x2000000c   Data           1  usart.o(.data)
    usart2_read_count                        0x20000010   Data           4  usart.o(.data)
    usart2_idle_read_count                   0x20000014   Data           4  usart.o(.data)
    usart2_idle_cnt                          0x20000018   Data           4  usart.o(.data)
    usart2_idle_flag                         0x2000001c   Data           1  usart.o(.data)
    usart3_idle_flag                         0x2000001d   Data           1  usart.o(.data)
    timer2Value                              0x20000020   Data           4  timer.o(.data)
    SystemCoreClock                          0x20000024   Data           4  system_stm32f10x.o(.data)
    AHBPrescTable                            0x20000028   Data          16  system_stm32f10x.o(.data)
    __stdout                                 0x2000004c   Data           4  stdout.o(.data)
    rb_t_usart1_read                         0x20000050   Data          16  usart.o(.bss)
    rb_t_usart1_read_buff                    0x20000060   Data        1024  usart.o(.bss)
    usart1_read_buff_copy                    0x20000460   Data        1024  usart.o(.bss)
    rb_t_usart1_send                         0x20000860   Data          16  usart.o(.bss)
    rb_t_usart1_send_buff                    0x20000870   Data        1024  usart.o(.bss)
    rb_t_usart2_read                         0x20000c70   Data          16  usart.o(.bss)
    rb_t_usart2_read_buff                    0x20000c80   Data         100  usart.o(.bss)
    usart2_read_buff_copy                    0x20000ce4   Data         100  usart.o(.bss)
    rb_t_usart3_read                         0x20000d48   Data          16  usart.o(.bss)
    rb_t_usart3_read_buff                    0x20000d58   Data        1024  usart.o(.bss)
    usart3_read_buff_copy                    0x20001158   Data        1024  usart.o(.bss)
    rb_t_usart3_send                         0x20001558   Data          16  usart.o(.bss)
    rb_t_usart3_send_buff                    0x20001568   Data        1024  usart.o(.bss)
    __initial_sp                             0x20001d68   Data           0  startup_stm32f10x_hd.o(STACK)



==============================================================================

Memory Map of the image

  Image Entry point : 0x08000131

  Load Region LR_IROM1 (Base: 0x08000000, Size: 0x00002898, Max: 0x00020000, ABSOLUTE)

    Execution Region ER_IROM1 (Base: 0x08000000, Size: 0x00002848, Max: 0x00020000, ABSOLUTE)

    Base Addr    Size         Type   Attr      Idx    E Section Name        Object

    0x08000000   0x00000130   Data   RO          380    RESET               startup_stm32f10x_hd.o
    0x08000130   0x00000000   Code   RO          422  * .ARM.Collect$$$$00000000  mc_w.l(entry.o)
    0x08000130   0x00000004   Code   RO          689    .ARM.Collect$$$$00000001  mc_w.l(entry2.o)
    0x08000134   0x00000004   Code   RO          692    .ARM.Collect$$$$00000004  mc_w.l(entry5.o)
    0x08000138   0x00000000   Code   RO          694    .ARM.Collect$$$$00000008  mc_w.l(entry7b.o)
    0x08000138   0x00000000   Code   RO          696    .ARM.Collect$$$$0000000A  mc_w.l(entry8b.o)
    0x08000138   0x00000008   Code   RO          697    .ARM.Collect$$$$0000000B  mc_w.l(entry9a.o)
    0x08000140   0x00000000   Code   RO          699    .ARM.Collect$$$$0000000D  mc_w.l(entry10a.o)
    0x08000140   0x00000000   Code   RO          701    .ARM.Collect$$$$0000000F  mc_w.l(entry11a.o)
    0x08000140   0x00000004   Code   RO          690    .ARM.Collect$$$$00002712  mc_w.l(entry2.o)
    0x08000144   0x00000040   Code   RO            1    .text               stm32f10x_it.o
    0x08000184   0x00000040   Code   RO          104    .text               main.o
    0x080001c4   0x000000d4   Code   RO          149    .text               delay.o
    0x08000298   0x00000628   Code   RO          166    .text               usart.o
    0x080008c0   0x0000009c   Code   RO          185    .text               timer.o
    0x0800095c   0x00000034   Code   RO          203    .text               mcu_sys.o
    0x08000990   0x000001e0   Code   RO          226    .text               system_stm32f10x.o
    0x08000b70   0x000000dc   Code   RO          244    .text               misc.o
    0x08000c4c   0x000003a4   Code   RO          256    .text               stm32f10x_rcc.o
    0x08000ff0   0x00000408   Code   RO          270    .text               stm32f10x_usart.o
    0x080013f8   0x0000035c   Code   RO          294    .text               stm32f10x_gpio.o
    0x08001754   0x00000e1a   Code   RO          306    .text               stm32f10x_tim.o
    0x0800256e   0x00000002   PAD
    0x08002570   0x00000024   Code   RO          381    .text               startup_stm32f10x_hd.o
    0x08002594   0x000001fc   Code   RO          400    .text               looplist.o
    0x08002790   0x00000024   Code   RO          425    .text               mc_w.l(memcpya.o)
    0x080027b4   0x00000024   Code   RO          719    .text               mc_w.l(init.o)
    0x080027d8   0x00000010   Code   RO          430    i.__0printf$bare    mc_w.l(printfb.o)
    0x080027e8   0x0000000e   Code   RO          731    i.__scatterload_copy  mc_w.l(handlers.o)
    0x080027f6   0x00000002   Code   RO          732    i.__scatterload_null  mc_w.l(handlers.o)
    0x080027f8   0x0000000e   Code   RO          733    i.__scatterload_zeroinit  mc_w.l(handlers.o)
    0x08002806   0x00000022   Code   RO          437    i._printf_core      mc_w.l(printfb.o)
    0x08002828   0x00000020   Data   RO          729    Region$$Table       anon$$obj.o


    Execution Region RW_IRAM1 (Base: 0x20000000, Size: 0x00001d68, Max: 0x00005000, ABSOLUTE)

    Base Addr    Size         Type   Attr      Idx    E Section Name        Object

    0x20000000   0x00000004   Data   RW          150    .data               delay.o
    0x20000004   0x0000001c   Data   RW          168    .data               usart.o
    0x20000020   0x00000004   Data   RW          186    .data               timer.o
    0x20000024   0x00000014   Data   RW          227    .data               system_stm32f10x.o
    0x20000038   0x00000014   Data   RW          257    .data               stm32f10x_rcc.o
    0x2000004c   0x00000004   Data   RW          703    .data               mc_w.l(stdout.o)
    0x20000050   0x00001918   Zero   RW          167    .bss                usart.o
    0x20001968   0x00000400   Zero   RW          378    STACK               startup_stm32f10x_hd.o


==============================================================================

Image component sizes


      Code (inc. data)   RO Data    RW Data    ZI Data      Debug   Object Name

         0          0          0          0          0         32   core_cm3.o
       212         18          0          4          0       1023   delay.o
       508          0          0          0          0       3307   looplist.o
        64          8          0          0          0       2175   main.o
        52          8          0          0          0        675   mcu_sys.o
       220         22          0          0          0       1805   misc.o
        36          8        304          0       1024        812   startup_stm32f10x_hd.o
       860         38          0          0          0       5653   stm32f10x_gpio.o
        64          8          0          0          0     267757   stm32f10x_it.o
       932         36          0         20          0       8832   stm32f10x_rcc.o
      3610         88          0          0          0      22136   stm32f10x_tim.o
      1032         22          0          0          0       8372   stm32f10x_usart.o
       480         38          0         20          0       1839   system_stm32f10x.o
       156          6          0          4          0        955   timer.o
      1576        242          0         28       6424       5332   usart.o

    ----------------------------------------------------------------------
      9804        542        336         76       7448     330705   Object Totals
         0          0         32          0          0          0   (incl. Generated)
         2          0          0          0          0          0   (incl. Padding)

    ----------------------------------------------------------------------

      Code (inc. data)   RO Data    RW Data    ZI Data      Debug   Library Member Name

         0          0          0          0          0          0   entry.o
         0          0          0          0          0          0   entry10a.o
         0          0          0          0          0          0   entry11a.o
         8          4          0          0          0          0   entry2.o
         4          0          0          0          0          0   entry5.o
         0          0          0          0          0          0   entry7b.o
         0          0          0          0          0          0   entry8b.o
         8          4          0          0          0          0   entry9a.o
        30          0          0          0          0          0   handlers.o
        36          8          0          0          0         68   init.o
        36          0          0          0          0         68   memcpya.o
        50          8          0          0          0        152   printfb.o
         0          0          0          4          0          0   stdout.o

    ----------------------------------------------------------------------
       172         24          0          4          0        288   Library Totals
         0          0          0          0          0          0   (incl. Padding)

    ----------------------------------------------------------------------

      Code (inc. data)   RO Data    RW Data    ZI Data      Debug   Library Name

       172         24          0          4          0        288   mc_w.l

    ----------------------------------------------------------------------
       172         24          0          4          0        288   Library Totals

    ----------------------------------------------------------------------

==============================================================================


      Code (inc. data)   RO Data    RW Data    ZI Data      Debug   

      9976        566        336         80       7448     329897   Grand Totals
      9976        566        336         80       7448     329897   ELF Image Totals
      9976        566        336         80          0          0   ROM Totals

==============================================================================

    Total RO  Size (Code + RO Data)                10312 (  10.07kB)
    Total RW  Size (RW Data + ZI Data)              7528 (   7.35kB)
    Total ROM Size (Code + RO Data + RW Data)      10392 (  10.15kB)

==============================================================================

