Component: ARM Compiler 5.05 update 1 (build 106) Tool: armlink [4d0efa]

==============================================================================

Section Cross References

    main.o(.text) refers to system.o(.text) for NVIC_Configuration
    main.o(.text) refers to usart.o(.text) for uart_init
    main.o(.text) refers to gpio.o(.text) for GpioInit
    main.o(.text) refers to delay.o(.text) for DelayInit
    main.o(.text) refers to looplist.o(.text) for rbCreate
    main.o(.text) refers to cjson.o(.text) for cJSON_CreateObject
    main.o(.text) refers to printfa.o(i.__0printf) for __2printf
    main.o(.text) refers to malloc.o(i.free) for free
    main.o(.text) refers to memseta.o(.text) for __aeabi_memclr
    main.o(.text) refers to usart.o(.bss) for Usart1SendBuff
    main.o(.text) refers to looplist.o(.bss) for Uart1rb
    main.o(.text) refers to main.o(.data) for root
    main.o(.text) refers to usart.o(.data) for Usart1ReadFlage
    system.o(.text) refers to misc.o(.text) for NVIC_PriorityGroupConfig
    delay.o(.text) refers to misc.o(.text) for SysTick_CLKSourceConfig
    delay.o(.text) refers to system_stm32f10x.o(.data) for SystemCoreClock
    delay.o(.text) refers to delay.o(.data) for SysTickCntMs
    delay.o(.text) refers to key.o(.bss) for KeySmartConfig
==============================================================================

Removing Unused input sections from the image.

    Removing stm32f10x_it.o(.rev16_text), (4 bytes).
    Removing stm32f10x_it.o(.revsh_text), (4 bytes).
    Removing main.o(.rev16_text), (4 bytes).
    Removing main.o(.revsh_text), (4 bytes).
    Removing system.o(.rev16_text), (4 bytes).
    Removing system.o(.revsh_text), (4 bytes).
    Removing delay.o(.rev16_text), (4 bytes).
    Removing delay.o(.revsh_text), (4 bytes).
    Removing usart.o(.rev16_text), (4 bytes).
    Removing usart.o(.revsh_text), (4 bytes).
    Removing gpio.o(.rev16_text), (4 bytes).
    Removing gpio.o(.revsh_text), (4 bytes).
    Removing test.o(.rev16_text), (4 bytes).
    Removing test.o(.revsh_text), (4 bytes).
    Removing test.o(.text), (8 bytes).
    Removing test.o(.data), (1 bytes).
    Removing looplist.o(.rev16_text), (4 bytes).
    Removing looplist.o(.revsh_text), (4 bytes).
==============================================================================

Image Symbol Table

    Local Symbols

    Symbol Name                              Value     Ov Type        Size  Object(Section)

    ../clib/microlib/ctype/tolower.c         0x00000000   Number         0  tolower.o ABSOLUTE
    ../clib/microlib/division.c              0x00000000   Number         0  uldiv.o ABSOLUTE
    ../clib/microlib/division.c              0x00000000   Number         0  uidiv.o ABSOLUTE
    ../clib/microlib/errno.c                 0x00000000   Number         0  errno.o ABSOLUTE
    ../clib/microlib/init/entry.s            0x00000000   Number         0  entry10a.o ABSOLUTE
    ../clib/microlib/init/entry.s            0x00000000   Number         0  entry9b.o ABSOLUTE
    ../clib/microlib/init/entry.s            0x00000000   Number         0  entry8b.o ABSOLUTE
    ../clib/microlib/init/entry.s            0x00000000   Number         0  entry11a.o ABSOLUTE
    ../clib/microlib/init/entry.s            0x00000000   Number         0  entry9a.o ABSOLUTE
    ../clib/microlib/init/entry.s            0x00000000   Number         0  entry2.o ABSOLUTE
    ../clib/microlib/init/entry.s            0x00000000   Number         0  entry5.o ABSOLUTE
    ../clib/microlib/init/entry.s            0x00000000   Number         0  entry7a.o ABSOLUTE
    ../clib/microlib/init/entry.s            0x00000000   Number         0  entry8a.o ABSOLUTE
    ../clib/microlib/init/entry.s            0x00000000   Number         0  entry7b.o ABSOLUTE
    ../clib/microlib/init/entry.s            0x00000000   Number         0  entry.o ABSOLUTE
    ../clib/microlib/init/entry.s            0x00000000   Number         0  entry10b.o ABSOLUTE
    ../clib/microlib/init/entry.s            0x00000000   Number         0  entry11b.o ABSOLUTE
    ../clib/microlib/longlong.c              0x00000000   Number         0  llushr.o ABSOLUTE
    ../clib/microlib/longlong.c              0x00000000   Number         0  llsshr.o ABSOLUTE
    ../clib/microlib/longlong.c              0x00000000   Number         0  llshl.o ABSOLUTE
    ../clib/microlib/malloc/malloc.c         0x00000000   Number         0  mallocr.o ABSOLUTE
    ../clib/microlib/malloc/malloc.c         0x00000000   Number         0  malloc.o ABSOLUTE
    ../clib/microlib/malloc/malloc.c         0x00000000   Number         0  mallocra.o ABSOLUTE
    ../clib/microlib/malloc/malloc.c         0x00000000   Number         0  malloca.o ABSOLUTE
    ../clib/microlib/malloc/mvars.c          0x00000000   Number         0  mvars.o ABSOLUTE
    ../clib/microlib/printf/printf.c         0x00000000   Number         0  printf0.o ABSOLUTE
    ../clib/microlib/printf/printf.c         0x00000000   Number         0  printf4.o ABSOLUTE
    ../clib/microlib/printf/printf.c         0x00000000   Number         0  printf5.o ABSOLUTE
    ../clib/microlib/printf/printf.c         0x00000000   Number         0  printf6.o ABSOLUTE
    ../clib/microlib/printf/printf.c         0x00000000   Number         0  printf3.o ABSOLUTE
    ../clib/microlib/printf/printf.c         0x00000000   Number         0  printf1.o ABSOLUTE
    ../clib/microlib/printf/printf.c         0x00000000   Number         0  printf2.o ABSOLUTE
    ../clib/microlib/printf/printf.c         0x00000000   Number         0  printfb.o ABSOLUTE
    ../clib/microlib/printf/printf.c         0x00000000   Number         0  printf8.o ABSOLUTE
    ../clib/microlib/printf/printf.c         0x00000000   Number         0  printf7.o ABSOLUTE
    ../clib/microlib/printf/printf.c         0x00000000   Number         0  printfa.o ABSOLUTE
    ../clib/microlib/printf/stubs.s          0x00000000   Number         0  stubs.o ABSOLUTE
    ../clib/microlib/stdio/streams.c         0x00000000   Number         0  stdout.o ABSOLUTE
    ../clib/microlib/string/memcpy.c         0x00000000   Number         0  memcpyb.o ABSOLUTE
    ../clib/microlib/string/memcpy.c         0x00000000   Number         0  memcpya.o ABSOLUTE
    ../clib/microlib/string/memset.c         0x00000000   Number         0  memseta.o ABSOLUTE
    ../clib/microlib/string/strchr.c         0x00000000   Number         0  strchr.o ABSOLUTE
    ../clib/microlib/string/strcpy.c         0x00000000   Number         0  strcpy.o ABSOLUTE
    ../clib/microlib/string/strlen.c         0x00000000   Number         0  strlen.o ABSOLUTE
    ../clib/microlib/string/strncmp.c        0x00000000   Number         0  strncmp.o ABSOLUTE
    ../clib/microlib/stubs.s                 0x00000000   Number         0  iusefp.o ABSOLUTE
    ../fplib/microlib/f2d.c                  0x00000000   Number         0  f2d.o ABSOLUTE
    ../fplib/microlib/fpadd.c                0x00000000   Number         0  dadd.o ABSOLUTE
    ../fplib/microlib/fpdiv.c                0x00000000   Number         0  ddiv.o ABSOLUTE
    ../fplib/microlib/fpepilogue.c           0x00000000   Number         0  depilogue.o ABSOLUTE
    ../fplib/microlib/fpfix.c                0x00000000   Number         0  dfixul.o ABSOLUTE
    ../fplib/microlib/fpfix.c                0x00000000   Number         0  dfixi.o ABSOLUTE
    ../fplib/microlib/fpflt.c                0x00000000   Number         0  dflti.o ABSOLUTE
    ../fplib/microlib/fpmul.c                0x00000000   Number         0  dmul.o ABSOLUTE
    ../fplib/microlib/fpscalb.c              0x00000000   Number         0  dscalb.o ABSOLUTE
    ../fplib/microlib/fpsqrt.c               0x00000000   Number         0  dsqrt.o ABSOLUTE
    ../mathlib/dunder.c                      0x00000000   Number         0  dunder.o ABSOLUTE
    ../mathlib/floor.c                       0x00000000   Number         0  floor.o ABSOLUTE
    ../mathlib/fpclassify.c                  0x00000000   Number         0  fpclassify.o ABSOLUTE
    ../mathlib/poly.c                        0x00000000   Number         0  poly.o ABSOLUTE
    ../mathlib/pow.c                         0x00000000   Number         0  pow_x.o ABSOLUTE
    ../mathlib/pow.c                         0x00000000   Number         0  pow.o ABSOLUTE
    ../mathlib/qnan.c                        0x00000000   Number         0  qnan.o ABSOLUTE
    ../mathlib/sqrt.c                        0x00000000   Number         0  sqrt_x.o ABSOLUTE
    ../mathlib/sqrt.c                        0x00000000   Number         0  sqrt.o ABSOLUTE
    ..\CMSIS\core_cm3.c                      0x00000000   Number         0  core_cm3.o ABSOLUTE
    ..\CMSIS\system_stm32f10x.c              0x00000000   Number         0  system_stm32f10x.o ABSOLUTE
    ..\Libraries\src\misc.c                  0x00000000   Number         0  misc.o ABSOLUTE
    ..\Libraries\src\stm32f10x_flash.c       0x00000000   Number         0  stm32f10x_flash.o ABSOLUTE
    ..\Libraries\src\stm32f10x_gpio.c        0x00000000   Number         0  stm32f10x_gpio.o ABSOLUTE
    ..\Libraries\src\stm32f10x_rcc.c         0x00000000   Number         0  stm32f10x_rcc.o ABSOLUTE
    ..\Libraries\src\stm32f10x_usart.c       0x00000000   Number         0  stm32f10x_usart.o ABSOLUTE
    ..\Startup\startup_stm32f10x_hd.s        0x00000000   Number         0  startup_stm32f10x_hd.o ABSOLUTE
    ..\User\LoopList.c                       0x00000000   Number         0  looplist.o ABSOLUTE
    ..\User\System.c                         0x00000000   Number         0  system.o ABSOLUTE
    ..\User\cJSON.c                          0x00000000   Number         0  cjson.o ABSOLUTE
    ..\User\delay.c                          0x00000000   Number         0  delay.o ABSOLUTE
    ..\User\gpio.c                           0x00000000   Number         0  gpio.o ABSOLUTE
    ..\User\key.c                            0x00000000   Number         0  key.o ABSOLUTE
    ..\User\main.c                           0x00000000   Number         0  main.o ABSOLUTE
    ..\User\stm32f10x_it.c                   0x00000000   Number         0  stm32f10x_it.o ABSOLUTE
    ..\User\test.c                           0x00000000   Number         0  test.o ABSOLUTE
    ..\User\usart.c                          0x00000000   Number         0  usart.o ABSOLUTE
    ..\\CMSIS\\core_cm3.c                    0x00000000   Number         0  core_cm3.o ABSOLUTE
    ..\\Libraries\\src\\misc.c               0x00000000   Number         0  misc.o ABSOLUTE
    ..\\Libraries\\src\\stm32f10x_flash.c    0x00000000   Number         0  stm32f10x_flash.o ABSOLUTE
    ..\\Libraries\\src\\stm32f10x_gpio.c     0x00000000   Number         0  stm32f10x_gpio.o ABSOLUTE
    ..\\Libraries\\src\\stm32f10x_rcc.c      0x00000000   Number         0  stm32f10x_rcc.o ABSOLUTE
    ..\\Libraries\\src\\stm32f10x_usart.c    0x00000000   Number         0  stm32f10x_usart.o ABSOLUTE
    ..\\User\\LoopList.c                     0x00000000   Number         0  looplist.o ABSOLUTE
    ..\\User\\System.c                       0x00000000   Number         0  system.o ABSOLUTE
    ..\\User\\delay.c                        0x00000000   Number         0  delay.o ABSOLUTE
    ..\\User\\gpio.c                         0x00000000   Number         0  gpio.o ABSOLUTE
    ..\\User\\key.c                          0x00000000   Number         0  key.o ABSOLUTE
    ..\\User\\main.c                         0x00000000   Number         0  main.o ABSOLUTE
    ..\\User\\stm32f10x_it.c                 0x00000000   Number         0  stm32f10x_it.o ABSOLUTE
    ..\\User\\test.c                         0x00000000   Number         0  test.o ABSOLUTE
    ..\\User\\usart.c                        0x00000000   Number         0  usart.o ABSOLUTE
    cdcmple.s                                0x00000000   Number         0  cdcmple.o ABSOLUTE
    cdrcmple.s                               0x00000000   Number         0  cdrcmple.o ABSOLUTE
    dc.s                                     0x00000000   Number         0  dc.o ABSOLUTE
    handlers.s                               0x00000000   Number         0  handlers.o ABSOLUTE
    init.s                                   0x00000000   Number         0  init.o ABSOLUTE
    RESET                                    0x08000000   Section      304  startup_stm32f10x_hd.o(RESET)
    .ARM.Collect$$$$00000000                 0x08000130   Section        0  entry.o(.ARM.Collect$$$$00000000)
    .ARM.Collect$$$$00000001                 0x08000130   Section        4  entry2.o(.ARM.Collect$$$$00000001)
    .ARM.Collect$$$$00000004                 0x08000134   Section        4  entry5.o(.ARM.Collect$$$$00000004)
    .ARM.Collect$$$$00000008                 0x08000138   Section        0  entry7b.o(.ARM.Collect$$$$00000008)
    .ARM.Collect$$$$0000000A                 0x08000138   Section        0  entry8b.o(.ARM.Collect$$$$0000000A)
    .ARM.Collect$$$$0000000B                 0x08000138   Section        8  entry9a.o(.ARM.Collect$$$$0000000B)
    .ARM.Collect$$$$0000000D                 0x08000140   Section        0  entry10a.o(.ARM.Collect$$$$0000000D)
    .ARM.Collect$$$$0000000F                 0x08000140   Section        0  entry11a.o(.ARM.Collect$$$$0000000F)
    .ARM.Collect$$$$00002712                 0x08000140   Section        4  entry2.o(.ARM.Collect$$$$00002712)
    __lit__00000000                          0x08000140   Data           4  entry2.o(.ARM.Collect$$$$00002712)
    .text                                    0x08000144   Section        0  stm32f10x_it.o(.text)
    .text                                    0x08000188   Section        0  main.o(.text)
    .text                                    0x08000310   Section        0  system.o(.text)
    .text                                    0x08000364   Section        0  delay.o(.text)
    .text                                    0x0800046c   Section        0  usart.o(.text)
    .text                                    0x0800062c   Section        0  gpio.o(.text)
    .text                                    0x080006ac   Section        0  looplist.o(.text)
    .text                                    0x080009cc   Section        0  cjson.o(.text)
    cJSON_strcasecmp                         0x080009d3   Thumb Code    76  cjson.o(.text)
    cJSON_strdup                             0x08000a1f   Thumb Code    40  cjson.o(.text)
    cJSON_New_Item                           0x08000a77   Thumb Code    26  cjson.o(.text)
    parse_number                             0x08000ae3   Thumb Code   432  cjson.o(.text)
    pow2gt                                   0x08000c93   Thumb Code    28  cjson.o(.text)
    ensure                                   0x08000caf   Thumb Code   104  cjson.o(.text)
    update                                   0x08000d17   Thumb Code    32  cjson.o(.text)
    print_number                             0x08000d37   Thumb Code   396  cjson.o(.text)
    parse_hex4                               0x08000ec3   Thumb Code   276  cjson.o(.text)
    parse_string                             0x08000fd7   Thumb Code   448  cjson.o(.text)
    print_string_ptr                         0x08001197   Thumb Code   498  cjson.o(.text)
    print_string                             0x08001389   Thumb Code    16  cjson.o(.text)
    skip                                     0x08001399   Thumb Code    18  cjson.o(.text)
    parse_object                             0x080013ab   Thumb Code   270  cjson.o(.text)
    parse_array                              0x080014b9   Thumb Code   166  cjson.o(.text)
    parse_value                              0x0800155f   Thumb Code   158  cjson.o(.text)
    print_object                             0x080016a5   Thumb Code  1052  cjson.o(.text)
    print_array                              0x08001ac1   Thumb Code   578  cjson.o(.text)
    print_value                              0x08001d03   Thumb Code   290  cjson.o(.text)
    suffix_object                            0x08001ebf   Thumb Code     6  cjson.o(.text)
    create_reference                         0x08001ec5   Thumb Code    48  cjson.o(.text)
    .text                                    0x0800244c   Section        0  system_stm32f10x.o(.text)
    SetSysClockTo72                          0x0800244d   Thumb Code   214  system_stm32f10x.o(.text)
    SetSysClock                              0x08002523   Thumb Code     8  system_stm32f10x.o(.text)
    .text                                    0x0800262c   Section        0  misc.o(.text)
    .text                                    0x08002708   Section        0  stm32f10x_rcc.o(.text)
    .text                                    0x08002aac   Section        0  stm32f10x_usart.o(.text)
    .text                                    0x08002eb4   Section        0  stm32f10x_gpio.o(.text)
    .text                                    0x08003210   Section       36  startup_stm32f10x_hd.o(.text)
    .text                                    0x08003234   Section        0  tolower.o(.text)
    .text                                    0x08003240   Section        0  memcpya.o(.text)
    .text                                    0x08003264   Section        0  memseta.o(.text)
    .text                                    0x08003288   Section        0  strchr.o(.text)
    .text                                    0x0800329c   Section        0  strlen.o(.text)
    .text                                    0x080032aa   Section        0  strcpy.o(.text)
    .text                                    0x080032bc   Section        0  strncmp.o(.text)
    .text                                    0x080032da   Section        0  dadd.o(.text)
    .text                                    0x08003428   Section        0  dmul.o(.text)
    .text                                    0x0800350c   Section        0  dflti.o(.text)
    .text                                    0x0800352e   Section        0  dfixi.o(.text)
    .text                                    0x0800356c   Section        0  f2d.o(.text)
    .text                                    0x08003594   Section       48  cdcmple.o(.text)
    .text                                    0x080035c4   Section       48  cdrcmple.o(.text)
    .text                                    0x080035f4   Section        0  uidiv.o(.text)
    .text                                    0x08003620   Section        0  uldiv.o(.text)
    .text                                    0x08003682   Section        0  llshl.o(.text)
    .text                                    0x080036a0   Section        0  llushr.o(.text)
    .text                                    0x080036c0   Section        0  llsshr.o(.text)
    .text                                    0x080036e4   Section        0  depilogue.o(.text)
    .text                                    0x080036e4   Section        0  iusefp.o(.text)
    .text                                    0x0800379e   Section        0  ddiv.o(.text)
    .text                                    0x0800387c   Section        0  dscalb.o(.text)
    .text                                    0x080038aa   Section        0  dfixul.o(.text)
    .text                                    0x080038dc   Section       36  init.o(.text)
    .text                                    0x08003900   Section        0  dsqrt.o(.text)
    i.__0printf                              0x080039a4   Section        0  printfa.o(i.__0printf)
    i.__0sprintf                             0x080039c4   Section        0  printfa.o(i.__0sprintf)
    i.__ARM_fpclassify                       0x080039ec   Section        0  fpclassify.o(i.__ARM_fpclassify)
    i.__kernel_poly                          0x08003a14   Section        0  poly.o(i.__kernel_poly)
    i.__mathlib_dbl_divzero                  0x08003ac0   Section        0  dunder.o(i.__mathlib_dbl_divzero)
    i.__mathlib_dbl_infnan2                  0x08003ad0   Section        0  dunder.o(i.__mathlib_dbl_infnan2)
    i.__mathlib_dbl_invalid                  0x08003ad4   Section        0  dunder.o(i.__mathlib_dbl_invalid)
    i.__mathlib_dbl_overflow                 0x08003ae0   Section        0  dunder.o(i.__mathlib_dbl_overflow)
    i.__mathlib_dbl_underflow                0x08003af0   Section        0  dunder.o(i.__mathlib_dbl_underflow)
    i.__scatterload_copy                     0x08003b00   Section       14  handlers.o(i.__scatterload_copy)
    i.__scatterload_null                     0x08003b0e   Section        2  handlers.o(i.__scatterload_null)
    i.__scatterload_zeroinit                 0x08003b10   Section       14  handlers.o(i.__scatterload_zeroinit)
    i.__set_errno                            0x08003b20   Section        0  errno.o(i.__set_errno)
    i._fp_digits                             0x08003b2c   Section        0  printfa.o(i._fp_digits)
    _fp_digits                               0x08003b2d   Thumb Code   334  printfa.o(i._fp_digits)
    i._printf_core                           0x08003c90   Section        0  printfa.o(i._printf_core)
    _printf_core                             0x08003c91   Thumb Code  1744  printfa.o(i._printf_core)
    i._printf_post_padding                   0x0800436c   Section        0  printfa.o(i._printf_post_padding)
    _printf_post_padding                     0x0800436d   Thumb Code    36  printfa.o(i._printf_post_padding)
    i._printf_pre_padding                    0x08004390   Section        0  printfa.o(i._printf_pre_padding)
    _printf_pre_padding                      0x08004391   Thumb Code    46  printfa.o(i._printf_pre_padding)
    i._sputc                                 0x080043be   Section        0  printfa.o(i._sputc)
    _sputc                                   0x080043bf   Thumb Code    10  printfa.o(i._sputc)
    i.floor                                  0x080043c8   Section        0  floor.o(i.floor)
    i.free                                   0x080044a4   Section        0  malloc.o(i.free)
    i.malloc                                 0x080044f4   Section        0  malloc.o(i.malloc)
    i.pow                                    0x08004560   Section        0  pow.o(i.pow)
    i.sqrt                                   0x08004f18   Section        0  sqrt.o(i.sqrt)
    .constdata                               0x08004f64   Section        7  cjson.o(.constdata)
    firstByteMark                            0x08004f64   Data           7  cjson.o(.constdata)
    .constdata                               0x08004f70   Section      136  pow.o(.constdata)
    bp                                       0x08004f70   Data          16  pow.o(.constdata)
    dp_h                                     0x08004f80   Data          16  pow.o(.constdata)
    dp_l                                     0x08004f90   Data          16  pow.o(.constdata)
    L                                        0x08004fa0   Data          48  pow.o(.constdata)
    P                                        0x08004fd0   Data          40  pow.o(.constdata)
    .constdata                               0x08004ff8   Section        8  qnan.o(.constdata)
    .data                                    0x20000000   Section      112  main.o(.data)
    .data                                    0x20000070   Section        8  delay.o(.data)
    .data                                    0x20000078   Section       19  usart.o(.data)
    flage                                    0x2000008a   Data           1  usart.o(.data)
    .data                                    0x2000008c   Section       12  cjson.o(.data)
    ep                                       0x2000008c   Data           4  cjson.o(.data)
    cJSON_malloc                             0x20000090   Data           4  cjson.o(.data)
    cJSON_free                               0x20000094   Data           4  cjson.o(.data)
    .data                                    0x20000098   Section       20  system_stm32f10x.o(.data)
    .data                                    0x200000ac   Section       20  stm32f10x_rcc.o(.data)
    APBAHBPrescTable                         0x200000ac   Data          16  stm32f10x_rcc.o(.data)
    ADCPrescTable                            0x200000bc   Data           4  stm32f10x_rcc.o(.data)
    .data                                    0x200000c0   Section        4  stdout.o(.data)
    .data                                    0x200000c4   Section        4  mvars.o(.data)
    .data                                    0x200000c8   Section        4  mvars.o(.data)
    .data                                    0x200000cc   Section        4  errno.o(.data)
    _errno                                   0x200000cc   Data           4  errno.o(.data)
    .bss                                     0x200000d0   Section      650  usart.o(.bss)
    .bss                                     0x2000035c   Section       16  looplist.o(.bss)
    .bss                                     0x2000036c   Section       28  key.o(.bss)
    HEAP                                     0x20000388   Section     2048  startup_stm32f10x_hd.o(HEAP)
    STACK                                    0x20000b88   Section     1024  startup_stm32f10x_hd.o(STACK)

    Global Symbols

    Symbol Name                              Value     Ov Type        Size  Object(Section)

    BuildAttributes$$THM_ISAv4$P$D$K$B$S$PE$A:L22UL41UL21$X:L11$S22US41US21$IEEE1$IW$USESV6$~STKCKD$USESV7$~SHL$OTIME$ROPI$IEEEX$EBA8$MICROLIB$REQ8$PRES8$EABIv2 0x00000000   Number         0  anon$$obj.o ABSOLUTE
    __ARM_use_no_argv                        0x00000000   Number         0  main.o ABSOLUTE
    _printf_a                                0x00000000   Number         0  stubs.o ABSOLUTE
    _printf_c                                0x00000000   Number         0  stubs.o ABSOLUTE
    _printf_charcount                        0x00000000   Number         0  stubs.o ABSOLUTE
    _printf_d                                0x00000000   Number         0  stubs.o ABSOLUTE
    _printf_e                                0x00000000   Number         0  stubs.o ABSOLUTE
    _printf_f                                0x00000000   Number         0  stubs.o ABSOLUTE
    _printf_flags                            0x00000000   Number         0  stubs.o ABSOLUTE
    _printf_fp_dec                           0x00000000   Number         0  stubs.o ABSOLUTE
    _printf_fp_hex                           0x00000000   Number         0  stubs.o ABSOLUTE
    _printf_g                                0x00000000   Number         0  stubs.o ABSOLUTE
    _printf_i                                0x00000000   Number         0  stubs.o ABSOLUTE
    _printf_int_dec                          0x00000000   Number         0  stubs.o ABSOLUTE
    _printf_l                                0x00000000   Number         0  stubs.o ABSOLUTE
    _printf_lc                               0x00000000   Number         0  stubs.o ABSOLUTE
    _printf_ll                               0x00000000   Number         0  stubs.o ABSOLUTE
    _printf_lld                              0x00000000   Number         0  stubs.o ABSOLUTE
    _printf_lli                              0x00000000   Number         0  stubs.o ABSOLUTE
    _printf_llo                              0x00000000   Number         0  stubs.o ABSOLUTE
    _printf_llu                              0x00000000   Number         0  stubs.o ABSOLUTE
    _printf_llx                              0x00000000   Number         0  stubs.o ABSOLUTE
    _printf_longlong_dec                     0x00000000   Number         0  stubs.o ABSOLUTE
    _printf_longlong_hex                     0x00000000   Number         0  stubs.o ABSOLUTE
    _printf_longlong_oct                     0x00000000   Number         0  stubs.o ABSOLUTE
    _printf_ls                               0x00000000   Number         0  stubs.o ABSOLUTE
    _printf_mbtowc                           0x00000000   Number         0  stubs.o ABSOLUTE
    _printf_n                                0x00000000   Number         0  stubs.o ABSOLUTE
    _printf_o                                0x00000000   Number         0  stubs.o ABSOLUTE
    _printf_p                                0x00000000   Number         0  stubs.o ABSOLUTE
    _printf_percent                          0x00000000   Number         0  stubs.o ABSOLUTE
    _printf_pre_padding                      0x00000000   Number         0  stubs.o ABSOLUTE
    _printf_return_value                     0x00000000   Number         0  stubs.o ABSOLUTE
    _printf_s                                0x00000000   Number         0  stubs.o ABSOLUTE
    _printf_sizespec                         0x00000000   Number         0  stubs.o ABSOLUTE
    _printf_str                              0x00000000   Number         0  stubs.o ABSOLUTE
    _printf_truncate_signed                  0x00000000   Number         0  stubs.o ABSOLUTE
    _printf_truncate_unsigned                0x00000000   Number         0  stubs.o ABSOLUTE
    _printf_u                                0x00000000   Number         0  stubs.o ABSOLUTE
    _printf_wc                               0x00000000   Number         0  stubs.o ABSOLUTE
    _printf_wctomb                           0x00000000   Number         0  stubs.o ABSOLUTE
    _printf_widthprec                        0x00000000   Number         0  stubs.o ABSOLUTE
    _printf_x                                0x00000000   Number         0  stubs.o ABSOLUTE
    __cpp_initialize__aeabi_                  - Undefined Weak Reference
    __cxa_finalize                            - Undefined Weak Reference
    __decompress                              - Undefined Weak Reference
    _clock_init                               - Undefined Weak Reference
    _microlib_exit                            - Undefined Weak Reference
    __Vectors_Size                           0x00000130   Number         0  startup_stm32f10x_hd.o ABSOLUTE
    __Vectors                                0x08000000   Data           4  startup_stm32f10x_hd.o(RESET)
    __Vectors_End                            0x08000130   Data           0  startup_stm32f10x_hd.o(RESET)
    __main                                   0x08000131   Thumb Code     0  entry.o(.ARM.Collect$$$$00000000)
    _main_stk                                0x08000131   Thumb Code     0  entry2.o(.ARM.Collect$$$$00000001)
    _main_scatterload                        0x08000135   Thumb Code     0  entry5.o(.ARM.Collect$$$$00000004)
    __main_after_scatterload                 0x08000139   Thumb Code     0  entry5.o(.ARM.Collect$$$$00000004)
    _main_clock                              0x08000139   Thumb Code     0  entry7b.o(.ARM.Collect$$$$00000008)
    _main_cpp_init                           0x08000139   Thumb Code     0  entry8b.o(.ARM.Collect$$$$0000000A)
    _main_init                               0x08000139   Thumb Code     0  entry9a.o(.ARM.Collect$$$$0000000B)
    __rt_final_cpp                           0x08000141   Thumb Code     0  entry10a.o(.ARM.Collect$$$$0000000D)
    __rt_final_exit                          0x08000141   Thumb Code     0  entry11a.o(.ARM.Collect$$$$0000000F)
    NMI_Handler                              0x08000145   Thumb Code     2  stm32f10x_it.o(.text)
    HardFault_Handler                        0x08000147   Thumb Code    40  stm32f10x_it.o(.text)
    MemManage_Handler                        0x0800016f   Thumb Code     4  stm32f10x_it.o(.text)
    BusFault_Handler                         0x08000173   Thumb Code     4  stm32f10x_it.o(.text)
    UsageFault_Handler                       0x08000177   Thumb Code     4  stm32f10x_it.o(.text)
    SVC_Handler                              0x0800017b   Thumb Code     2  stm32f10x_it.o(.text)
    DebugMon_Handler                         0x0800017d   Thumb Code     2  stm32f10x_it.o(.text)
    PendSV_Handler                           0x0800017f   Thumb Code     2  stm32f10x_it.o(.text)
    main                                     0x08000189   Thumb Code   256  main.o(.text)
    NVIC_Configuration                       0x08000311   Thumb Code    40  system.o(.text)
    Reset_MCU                                0x08000339   Thumb Code    36  system.o(.text)
    DelayInit                                0x08000365   Thumb Code    90  delay.o(.text)
    delay_ms                                 0x080003bf   Thumb Code    18  delay.o(.text)
    SysTick_Handler                          0x080003d1   Thumb Code   114  delay.o(.text)
    uart_init                                0x0800046d   Thumb Code   124  usart.o(.text)
    UsartOutStr                              0x080004e9   Thumb Code    42  usart.o(.text)
    UsartOutChar                             0x08000513   Thumb Code    28  usart.o(.text)
    USART1_IRQHandler                        0x0800052f   Thumb Code   172  usart.o(.text)
    fputc                                    0x080005db   Thumb Code    48  usart.o(.text)
    GpioInit                                 0x0800062d   Thumb Code   120  gpio.o(.text)
    rbCreate                                 0x080006ad   Thumb Code    34  looplist.o(.text)
    rbDelete                                 0x080006cf   Thumb Code    28  looplist.o(.text)
    rbCapacity                               0x080006eb   Thumb Code    22  looplist.o(.text)
    rbCanRead                                0x08000701   Thumb Code    62  looplist.o(.text)
    rbCanWrite                               0x0800073f   Thumb Code    36  looplist.o(.text)
    rbRead                                   0x08000763   Thumb Code   176  looplist.o(.text)
    rbWrite                                  0x08000813   Thumb Code   178  looplist.o(.text)
    PutData                                  0x080008c5   Thumb Code    74  looplist.o(.text)
    cJSON_GetErrorPtr                        0x080009cd   Thumb Code     6  cjson.o(.text)
    cJSON_InitHooks                          0x08000a47   Thumb Code    48  cjson.o(.text)
    cJSON_Delete                             0x08000a91   Thumb Code    82  cjson.o(.text)
    cJSON_ParseWithOpts                      0x080015fd   Thumb Code   152  cjson.o(.text)
    cJSON_Parse                              0x08001695   Thumb Code    16  cjson.o(.text)
    cJSON_Print                              0x08001e25   Thumb Code    18  cjson.o(.text)
    cJSON_PrintUnformatted                   0x08001e37   Thumb Code    18  cjson.o(.text)
    cJSON_PrintBuffered                      0x08001e49   Thumb Code    52  cjson.o(.text)
    cJSON_GetArraySize                       0x08001e7d   Thumb Code    18  cjson.o(.text)
    cJSON_GetArrayItem                       0x08001e8f   Thumb Code    18  cjson.o(.text)
    cJSON_GetObjectItem                      0x08001ea1   Thumb Code    30  cjson.o(.text)
    cJSON_AddItemToArray                     0x08001ef5   Thumb Code    42  cjson.o(.text)
    cJSON_AddItemToObject                    0x08001f1f   Thumb Code    44  cjson.o(.text)
    cJSON_AddItemToObjectCS                  0x08001f4b   Thumb Code    54  cjson.o(.text)
    cJSON_AddItemReferenceToArray            0x08001f81   Thumb Code    24  cjson.o(.text)
    cJSON_AddItemReferenceToObject           0x08001f99   Thumb Code    32  cjson.o(.text)
    cJSON_DetachItemFromArray                0x08001fb9   Thumb Code    66  cjson.o(.text)
    cJSON_DeleteItemFromArray                0x08001ffb   Thumb Code    22  cjson.o(.text)
    cJSON_DetachItemFromObject               0x08002011   Thumb Code    50  cjson.o(.text)
    cJSON_DeleteItemFromObject               0x08002043   Thumb Code    22  cjson.o(.text)
    cJSON_InsertItemInArray                  0x08002059   Thumb Code    64  cjson.o(.text)
    cJSON_ReplaceItemInArray                 0x08002099   Thumb Code    76  cjson.o(.text)
    cJSON_ReplaceItemInObject                0x080020e5   Thumb Code    62  cjson.o(.text)
    cJSON_CreateNull                         0x08002123   Thumb Code    18  cjson.o(.text)
    cJSON_CreateTrue                         0x08002135   Thumb Code    18  cjson.o(.text)
    cJSON_CreateFalse                        0x08002147   Thumb Code    18  cjson.o(.text)
    cJSON_CreateBool                         0x08002159   Thumb Code    26  cjson.o(.text)
    cJSON_CreateNumber                       0x08002173   Thumb Code    36  cjson.o(.text)
    cJSON_CreateString                       0x08002197   Thumb Code    28  cjson.o(.text)
    cJSON_CreateArray                        0x080021b3   Thumb Code    18  cjson.o(.text)
    cJSON_CreateObject                       0x080021c5   Thumb Code    18  cjson.o(.text)
    cJSON_CreateIntArray                     0x080021d7   Thumb Code    68  cjson.o(.text)
    cJSON_CreateFloatArray                   0x0800221b   Thumb Code    68  cjson.o(.text)
    cJSON_CreateDoubleArray                  0x0800225f   Thumb Code    68  cjson.o(.text)
    cJSON_CreateStringArray                  0x080022a3   Thumb Code    62  cjson.o(.text)
    cJSON_Duplicate                          0x080022e1   Thumb Code   178  cjson.o(.text)
    cJSON_Minify                             0x08002393   Thumb Code   186  cjson.o(.text)
    SystemInit                               0x0800252b   Thumb Code    78  system_stm32f10x.o(.text)
    SystemCoreClockUpdate                    0x08002579   Thumb Code   142  system_stm32f10x.o(.text)
    NVIC_PriorityGroupConfig                 0x0800262d   Thumb Code    10  misc.o(.text)
    NVIC_Init                                0x08002637   Thumb Code   100  misc.o(.text)
    NVIC_SetVectorTable                      0x0800269b   Thumb Code    14  misc.o(.text)
    NVIC_SystemLPConfig                      0x080026a9   Thumb Code    34  misc.o(.text)
    SysTick_CLKSourceConfig                  0x080026cb   Thumb Code    40  misc.o(.text)
    RCC_DeInit                               0x08002709   Thumb Code    64  stm32f10x_rcc.o(.text)
    RCC_HSEConfig                            0x08002749   Thumb Code    70  stm32f10x_rcc.o(.text)
    RCC_GetFlagStatus                        0x0800278f   Thumb Code    56  stm32f10x_rcc.o(.text)
    RCC_WaitForHSEStartUp                    0x080027c7   Thumb Code    56  stm32f10x_rcc.o(.text)
    RCC_AdjustHSICalibrationValue            0x080027ff   Thumb Code    20  stm32f10x_rcc.o(.text)
    RCC_HSICmd                               0x08002813   Thumb Code     6  stm32f10x_rcc.o(.text)
    RCC_PLLConfig                            0x08002819   Thumb Code    24  stm32f10x_rcc.o(.text)
    RCC_PLLCmd                               0x08002831   Thumb Code     6  stm32f10x_rcc.o(.text)
    RCC_SYSCLKConfig                         0x08002837   Thumb Code    18  stm32f10x_rcc.o(.text)
    RCC_GetSYSCLKSource                      0x08002849   Thumb Code    10  stm32f10x_rcc.o(.text)
    RCC_HCLKConfig                           0x08002853   Thumb Code    18  stm32f10x_rcc.o(.text)
    RCC_PCLK1Config                          0x08002865   Thumb Code    18  stm32f10x_rcc.o(.text)
    RCC_PCLK2Config                          0x08002877   Thumb Code    20  stm32f10x_rcc.o(.text)
    RCC_ITConfig                             0x0800288b   Thumb Code    26  stm32f10x_rcc.o(.text)
    RCC_USBCLKConfig                         0x080028a5   Thumb Code     8  stm32f10x_rcc.o(.text)
    RCC_ADCCLKConfig                         0x080028ad   Thumb Code    18  stm32f10x_rcc.o(.text)
    RCC_LSEConfig                            0x080028bf   Thumb Code    50  stm32f10x_rcc.o(.text)
    RCC_LSICmd                               0x080028f1   Thumb Code     6  stm32f10x_rcc.o(.text)
    RCC_RTCCLKConfig                         0x080028f7   Thumb Code    12  stm32f10x_rcc.o(.text)
    RCC_RTCCLKCmd                            0x08002903   Thumb Code     8  stm32f10x_rcc.o(.text)
    RCC_GetClocksFreq                        0x0800290b   Thumb Code   192  stm32f10x_rcc.o(.text)
    RCC_AHBPeriphClockCmd                    0x080029cb   Thumb Code    26  stm32f10x_rcc.o(.text)
    RCC_APB2PeriphClockCmd                   0x080029e5   Thumb Code    26  stm32f10x_rcc.o(.text)
    RCC_APB1PeriphClockCmd                   0x080029ff   Thumb Code    26  stm32f10x_rcc.o(.text)
    RCC_APB2PeriphResetCmd                   0x08002a19   Thumb Code    26  stm32f10x_rcc.o(.text)
    RCC_APB1PeriphResetCmd                   0x08002a33   Thumb Code    26  stm32f10x_rcc.o(.text)
    RCC_BackupResetCmd                       0x08002a4d   Thumb Code     8  stm32f10x_rcc.o(.text)
    RCC_ClockSecuritySystemCmd               0x08002a55   Thumb Code     6  stm32f10x_rcc.o(.text)
    RCC_MCOConfig                            0x08002a5b   Thumb Code     6  stm32f10x_rcc.o(.text)
    RCC_ClearFlag                            0x08002a61   Thumb Code    14  stm32f10x_rcc.o(.text)
    RCC_GetITStatus                          0x08002a6f   Thumb Code    20  stm32f10x_rcc.o(.text)
    RCC_ClearITPendingBit                    0x08002a83   Thumb Code     6  stm32f10x_rcc.o(.text)
    USART_DeInit                             0x08002aad   Thumb Code   134  stm32f10x_usart.o(.text)
    USART_Init                               0x08002b33   Thumb Code   210  stm32f10x_usart.o(.text)
    USART_StructInit                         0x08002c05   Thumb Code    24  stm32f10x_usart.o(.text)
    USART_ClockInit                          0x08002c1d   Thumb Code    34  stm32f10x_usart.o(.text)
    USART_ClockStructInit                    0x08002c3f   Thumb Code    12  stm32f10x_usart.o(.text)
    USART_Cmd                                0x08002c4b   Thumb Code    24  stm32f10x_usart.o(.text)
    USART_ITConfig                           0x08002c63   Thumb Code    74  stm32f10x_usart.o(.text)
    USART_DMACmd                             0x08002cad   Thumb Code    18  stm32f10x_usart.o(.text)
    USART_SetAddress                         0x08002cbf   Thumb Code    18  stm32f10x_usart.o(.text)
    USART_WakeUpConfig                       0x08002cd1   Thumb Code    18  stm32f10x_usart.o(.text)
    USART_ReceiverWakeUpCmd                  0x08002ce3   Thumb Code    24  stm32f10x_usart.o(.text)
    USART_LINBreakDetectLengthConfig         0x08002cfb   Thumb Code    18  stm32f10x_usart.o(.text)
    USART_LINCmd                             0x08002d0d   Thumb Code    24  stm32f10x_usart.o(.text)
    USART_SendData                           0x08002d25   Thumb Code     8  stm32f10x_usart.o(.text)
    USART_ReceiveData                        0x08002d2d   Thumb Code    10  stm32f10x_usart.o(.text)
    USART_SendBreak                          0x08002d37   Thumb Code    10  stm32f10x_usart.o(.text)
    USART_SetGuardTime                       0x08002d41   Thumb Code    16  stm32f10x_usart.o(.text)
    USART_SetPrescaler                       0x08002d51   Thumb Code    16  stm32f10x_usart.o(.text)
    USART_SmartCardCmd                       0x08002d61   Thumb Code    24  stm32f10x_usart.o(.text)
    USART_SmartCardNACKCmd                   0x08002d79   Thumb Code    24  stm32f10x_usart.o(.text)
    USART_HalfDuplexCmd                      0x08002d91   Thumb Code    24  stm32f10x_usart.o(.text)
    USART_OverSampling8Cmd                   0x08002da9   Thumb Code    22  stm32f10x_usart.o(.text)
    USART_OneBitMethodCmd                    0x08002dbf   Thumb Code    24  stm32f10x_usart.o(.text)
    USART_IrDAConfig                         0x08002dd7   Thumb Code    18  stm32f10x_usart.o(.text)
    USART_IrDACmd                            0x08002de9   Thumb Code    24  stm32f10x_usart.o(.text)
    USART_GetFlagStatus                      0x08002e01   Thumb Code    26  stm32f10x_usart.o(.text)
    USART_ClearFlag                          0x08002e1b   Thumb Code    18  stm32f10x_usart.o(.text)
    USART_GetITStatus                        0x08002e2d   Thumb Code    84  stm32f10x_usart.o(.text)
    USART_ClearITPendingBit                  0x08002e81   Thumb Code    52  stm32f10x_usart.o(.text)
    GPIO_DeInit                              0x08002eb5   Thumb Code   172  stm32f10x_gpio.o(.text)
    GPIO_AFIODeInit                          0x08002f61   Thumb Code    20  stm32f10x_gpio.o(.text)
    GPIO_Init                                0x08002f75   Thumb Code   278  stm32f10x_gpio.o(.text)
    GPIO_StructInit                          0x0800308b   Thumb Code    16  stm32f10x_gpio.o(.text)
    GPIO_ReadInputDataBit                    0x0800309b   Thumb Code    18  stm32f10x_gpio.o(.text)
    GPIO_ReadInputData                       0x080030ad   Thumb Code     8  stm32f10x_gpio.o(.text)
    GPIO_ReadOutputDataBit                   0x080030b5   Thumb Code    18  stm32f10x_gpio.o(.text)
    GPIO_ReadOutputData                      0x080030c7   Thumb Code     8  stm32f10x_gpio.o(.text)
    GPIO_SetBits                             0x080030cf   Thumb Code     4  stm32f10x_gpio.o(.text)
    GPIO_ResetBits                           0x080030d3   Thumb Code     4  stm32f10x_gpio.o(.text)
    GPIO_WriteBit                            0x080030d7   Thumb Code    10  stm32f10x_gpio.o(.text)
    GPIO_Write                               0x080030e1   Thumb Code     4  stm32f10x_gpio.o(.text)
    GPIO_PinLockConfig                       0x080030e5   Thumb Code    18  stm32f10x_gpio.o(.text)
    GPIO_EventOutputConfig                   0x080030f7   Thumb Code    26  stm32f10x_gpio.o(.text)
    GPIO_EventOutputCmd                      0x08003111   Thumb Code     6  stm32f10x_gpio.o(.text)
    GPIO_PinRemapConfig                      0x08003117   Thumb Code   138  stm32f10x_gpio.o(.text)
    GPIO_EXTILineConfig                      0x080031a1   Thumb Code    66  stm32f10x_gpio.o(.text)
    GPIO_ETH_MediaInterfaceConfig            0x080031e3   Thumb Code     8  stm32f10x_gpio.o(.text)
    Reset_Handler                            0x08003211   Thumb Code     8  startup_stm32f10x_hd.o(.text)
    ADC1_2_IRQHandler                        0x0800322b   Thumb Code     0  startup_stm32f10x_hd.o(.text)
    ADC3_IRQHandler                          0x0800322b   Thumb Code     0  startup_stm32f10x_hd.o(.text)
    CAN1_RX1_IRQHandler                      0x0800322b   Thumb Code     0  startup_stm32f10x_hd.o(.text)
    CAN1_SCE_IRQHandler                      0x0800322b   Thumb Code     0  startup_stm32f10x_hd.o(.text)
    DMA1_Channel1_IRQHandler                 0x0800322b   Thumb Code     0  startup_stm32f10x_hd.o(.text)
    DMA1_Channel2_IRQHandler                 0x0800322b   Thumb Code     0  startup_stm32f10x_hd.o(.text)
    DMA1_Channel3_IRQHandler                 0x0800322b   Thumb Code     0  startup_stm32f10x_hd.o(.text)
    DMA1_Channel4_IRQHandler                 0x0800322b   Thumb Code     0  startup_stm32f10x_hd.o(.text)
    DMA1_Channel5_IRQHandler                 0x0800322b   Thumb Code     0  startup_stm32f10x_hd.o(.text)
    DMA1_Channel6_IRQHandler                 0x0800322b   Thumb Code     0  startup_stm32f10x_hd.o(.text)
    DMA1_Channel7_IRQHandler                 0x0800322b   Thumb Code     0  startup_stm32f10x_hd.o(.text)
    DMA2_Channel1_IRQHandler                 0x0800322b   Thumb Code     0  startup_stm32f10x_hd.o(.text)
    DMA2_Channel2_IRQHandler                 0x0800322b   Thumb Code     0  startup_stm32f10x_hd.o(.text)
    DMA2_Channel3_IRQHandler                 0x0800322b   Thumb Code     0  startup_stm32f10x_hd.o(.text)
    DMA2_Channel4_5_IRQHandler               0x0800322b   Thumb Code     0  startup_stm32f10x_hd.o(.text)
    EXTI0_IRQHandler                         0x0800322b   Thumb Code     0  startup_stm32f10x_hd.o(.text)
    EXTI15_10_IRQHandler                     0x0800322b   Thumb Code     0  startup_stm32f10x_hd.o(.text)
    EXTI1_IRQHandler                         0x0800322b   Thumb Code     0  startup_stm32f10x_hd.o(.text)
    EXTI2_IRQHandler                         0x0800322b   Thumb Code     0  startup_stm32f10x_hd.o(.text)
    EXTI3_IRQHandler                         0x0800322b   Thumb Code     0  startup_stm32f10x_hd.o(.text)
    EXTI4_IRQHandler                         0x0800322b   Thumb Code     0  startup_stm32f10x_hd.o(.text)
    EXTI9_5_IRQHandler                       0x0800322b   Thumb Code     0  startup_stm32f10x_hd.o(.text)
    FLASH_IRQHandler                         0x0800322b   Thumb Code     0  startup_stm32f10x_hd.o(.text)
    FSMC_IRQHandler                          0x0800322b   Thumb Code     0  startup_stm32f10x_hd.o(.text)
    I2C1_ER_IRQHandler                       0x0800322b   Thumb Code     0  startup_stm32f10x_hd.o(.text)
    I2C1_EV_IRQHandler                       0x0800322b   Thumb Code     0  startup_stm32f10x_hd.o(.text)
    I2C2_ER_IRQHandler                       0x0800322b   Thumb Code     0  startup_stm32f10x_hd.o(.text)
    I2C2_EV_IRQHandler                       0x0800322b   Thumb Code     0  startup_stm32f10x_hd.o(.text)
    PVD_IRQHandler                           0x0800322b   Thumb Code     0  startup_stm32f10x_hd.o(.text)
    RCC_IRQHandler                           0x0800322b   Thumb Code     0  startup_stm32f10x_hd.o(.text)
    RTCAlarm_IRQHandler                      0x0800322b   Thumb Code     0  startup_stm32f10x_hd.o(.text)
    RTC_IRQHandler                           0x0800322b   Thumb Code     0  startup_stm32f10x_hd.o(.text)
    SDIO_IRQHandler                          0x0800322b   Thumb Code     0  startup_stm32f10x_hd.o(.text)
    SPI1_IRQHandler                          0x0800322b   Thumb Code     0  startup_stm32f10x_hd.o(.text)
    SPI2_IRQHandler                          0x0800322b   Thumb Code     0  startup_stm32f10x_hd.o(.text)
    SPI3_IRQHandler                          0x0800322b   Thumb Code     0  startup_stm32f10x_hd.o(.text)
    TAMPER_IRQHandler                        0x0800322b   Thumb Code     0  startup_stm32f10x_hd.o(.text)
    TIM1_BRK_IRQHandler                      0x0800322b   Thumb Code     0  startup_stm32f10x_hd.o(.text)
    TIM1_CC_IRQHandler                       0x0800322b   Thumb Code     0  startup_stm32f10x_hd.o(.text)
    TIM1_TRG_COM_IRQHandler                  0x0800322b   Thumb Code     0  startup_stm32f10x_hd.o(.text)
    TIM1_UP_IRQHandler                       0x0800322b   Thumb Code     0  startup_stm32f10x_hd.o(.text)
    TIM2_IRQHandler                          0x0800322b   Thumb Code     0  startup_stm32f10x_hd.o(.text)
    TIM3_IRQHandler                          0x0800322b   Thumb Code     0  startup_stm32f10x_hd.o(.text)
    TIM4_IRQHandler                          0x0800322b   Thumb Code     0  startup_stm32f10x_hd.o(.text)
    TIM5_IRQHandler                          0x0800322b   Thumb Code     0  startup_stm32f10x_hd.o(.text)
    TIM6_IRQHandler                          0x0800322b   Thumb Code     0  startup_stm32f10x_hd.o(.text)
    TIM7_IRQHandler                          0x0800322b   Thumb Code     0  startup_stm32f10x_hd.o(.text)
    TIM8_BRK_IRQHandler                      0x0800322b   Thumb Code     0  startup_stm32f10x_hd.o(.text)
    TIM8_CC_IRQHandler                       0x0800322b   Thumb Code     0  startup_stm32f10x_hd.o(.text)
    TIM8_TRG_COM_IRQHandler                  0x0800322b   Thumb Code     0  startup_stm32f10x_hd.o(.text)
    TIM8_UP_IRQHandler                       0x0800322b   Thumb Code     0  startup_stm32f10x_hd.o(.text)
    UART4_IRQHandler                         0x0800322b   Thumb Code     0  startup_stm32f10x_hd.o(.text)
    UART5_IRQHandler                         0x0800322b   Thumb Code     0  startup_stm32f10x_hd.o(.text)
    USART2_IRQHandler                        0x0800322b   Thumb Code     0  startup_stm32f10x_hd.o(.text)
    USART3_IRQHandler                        0x0800322b   Thumb Code     0  startup_stm32f10x_hd.o(.text)
    USBWakeUp_IRQHandler                     0x0800322b   Thumb Code     0  startup_stm32f10x_hd.o(.text)
    USB_HP_CAN1_TX_IRQHandler                0x0800322b   Thumb Code     0  startup_stm32f10x_hd.o(.text)
    USB_LP_CAN1_RX0_IRQHandler               0x0800322b   Thumb Code     0  startup_stm32f10x_hd.o(.text)
    WWDG_IRQHandler                          0x0800322b   Thumb Code     0  startup_stm32f10x_hd.o(.text)
    tolower                                  0x08003235   Thumb Code    12  tolower.o(.text)
    __aeabi_memcpy                           0x08003241   Thumb Code    36  memcpya.o(.text)
    __aeabi_memcpy4                          0x08003241   Thumb Code     0  memcpya.o(.text)
    __aeabi_memcpy8                          0x08003241   Thumb Code     0  memcpya.o(.text)
    __aeabi_memset                           0x08003265   Thumb Code    14  memseta.o(.text)
    __aeabi_memset4                          0x08003265   Thumb Code     0  memseta.o(.text)
    __aeabi_memset8                          0x08003265   Thumb Code     0  memseta.o(.text)
    __aeabi_memclr                           0x08003273   Thumb Code     4  memseta.o(.text)
    __aeabi_memclr4                          0x08003273   Thumb Code     0  memseta.o(.text)
    __aeabi_memclr8                          0x08003273   Thumb Code     0  memseta.o(.text)
    _memset$wrapper                          0x08003277   Thumb Code    18  memseta.o(.text)
    strchr                                   0x08003289   Thumb Code    20  strchr.o(.text)
    strlen                                   0x0800329d   Thumb Code    14  strlen.o(.text)
    strcpy                                   0x080032ab   Thumb Code    18  strcpy.o(.text)
    strncmp                                  0x080032bd   Thumb Code    30  strncmp.o(.text)
    __aeabi_dadd                             0x080032db   Thumb Code   322  dadd.o(.text)
    __aeabi_dsub                             0x0800341d   Thumb Code     6  dadd.o(.text)
    __aeabi_drsub                            0x08003423   Thumb Code     6  dadd.o(.text)
    __aeabi_dmul                             0x08003429   Thumb Code   228  dmul.o(.text)
    __aeabi_i2d                              0x0800350d   Thumb Code    34  dflti.o(.text)
    __aeabi_d2iz                             0x0800352f   Thumb Code    62  dfixi.o(.text)
    __aeabi_f2d                              0x0800356d   Thumb Code    38  f2d.o(.text)
    __aeabi_cdcmpeq                          0x08003595   Thumb Code     0  cdcmple.o(.text)
    __aeabi_cdcmple                          0x08003595   Thumb Code    48  cdcmple.o(.text)
    __aeabi_cdrcmple                         0x080035c5   Thumb Code    48  cdrcmple.o(.text)
    __aeabi_uidiv                            0x080035f5   Thumb Code     0  uidiv.o(.text)
    __aeabi_uidivmod                         0x080035f5   Thumb Code    44  uidiv.o(.text)
    __aeabi_uldivmod                         0x08003621   Thumb Code    98  uldiv.o(.text)
    __aeabi_llsl                             0x08003683   Thumb Code    30  llshl.o(.text)
    _ll_shift_l                              0x08003683   Thumb Code     0  llshl.o(.text)
    __aeabi_llsr                             0x080036a1   Thumb Code    32  llushr.o(.text)
    _ll_ushift_r                             0x080036a1   Thumb Code     0  llushr.o(.text)
    __aeabi_lasr                             0x080036c1   Thumb Code    36  llsshr.o(.text)
    _ll_sshift_r                             0x080036c1   Thumb Code     0  llsshr.o(.text)
    __I$use$fp                               0x080036e5   Thumb Code     0  iusefp.o(.text)
    _double_round                            0x080036e5   Thumb Code    30  depilogue.o(.text)
    _double_epilogue                         0x08003703   Thumb Code   156  depilogue.o(.text)
    __aeabi_ddiv                             0x0800379f   Thumb Code   222  ddiv.o(.text)
    __ARM_scalbn                             0x0800387d   Thumb Code    46  dscalb.o(.text)
    scalbn                                   0x0800387d   Thumb Code     0  dscalb.o(.text)
    __aeabi_d2ulz                            0x080038ab   Thumb Code    48  dfixul.o(.text)
    __scatterload                            0x080038dd   Thumb Code    28  init.o(.text)
    __scatterload_rt2                        0x080038dd   Thumb Code     0  init.o(.text)
    _dsqrt                                   0x08003901   Thumb Code   162  dsqrt.o(.text)
    __0printf                                0x080039a5   Thumb Code    22  printfa.o(i.__0printf)
    __1printf                                0x080039a5   Thumb Code     0  printfa.o(i.__0printf)
    __2printf                                0x080039a5   Thumb Code     0  printfa.o(i.__0printf)
    __c89printf                              0x080039a5   Thumb Code     0  printfa.o(i.__0printf)
    printf                                   0x080039a5   Thumb Code     0  printfa.o(i.__0printf)
    __0sprintf                               0x080039c5   Thumb Code    34  printfa.o(i.__0sprintf)
    __1sprintf                               0x080039c5   Thumb Code     0  printfa.o(i.__0sprintf)
    __2sprintf                               0x080039c5   Thumb Code     0  printfa.o(i.__0sprintf)
    __c89sprintf                             0x080039c5   Thumb Code     0  printfa.o(i.__0sprintf)
    sprintf                                  0x080039c5   Thumb Code     0  printfa.o(i.__0sprintf)
    __ARM_fpclassify                         0x080039ed   Thumb Code    40  fpclassify.o(i.__ARM_fpclassify)
    __kernel_poly                            0x08003a15   Thumb Code   170  poly.o(i.__kernel_poly)
    __mathlib_dbl_divzero                    0x08003ac1   Thumb Code    12  dunder.o(i.__mathlib_dbl_divzero)
    __mathlib_dbl_infnan2                    0x08003ad1   Thumb Code     4  dunder.o(i.__mathlib_dbl_infnan2)
    __mathlib_dbl_invalid                    0x08003ad5   Thumb Code    12  dunder.o(i.__mathlib_dbl_invalid)
    __mathlib_dbl_overflow                   0x08003ae1   Thumb Code    14  dunder.o(i.__mathlib_dbl_overflow)
    __mathlib_dbl_underflow                  0x08003af1   Thumb Code    10  dunder.o(i.__mathlib_dbl_underflow)
    __scatterload_copy                       0x08003b01   Thumb Code    14  handlers.o(i.__scatterload_copy)
    __scatterload_null                       0x08003b0f   Thumb Code     2  handlers.o(i.__scatterload_null)
    __scatterload_zeroinit                   0x08003b11   Thumb Code    14  handlers.o(i.__scatterload_zeroinit)
    __set_errno                              0x08003b21   Thumb Code     6  errno.o(i.__set_errno)
    floor                                    0x080043c9   Thumb Code   204  floor.o(i.floor)
    free                                     0x080044a5   Thumb Code    76  malloc.o(i.free)
    malloc                                   0x080044f5   Thumb Code    92  malloc.o(i.malloc)
    pow                                      0x08004561   Thumb Code  2478  pow.o(i.pow)
    sqrt                                     0x08004f19   Thumb Code    76  sqrt.o(i.sqrt)
    __mathlib_zero                           0x08004ff8   Data           8  qnan.o(.constdata)
    Region$$Table$$Base                      0x08005000   Number         0  anon$$obj.o(Region$$Table)
    Region$$Table$$Limit                     0x08005020   Number         0  anon$$obj.o(Region$$Table)
    jsonValue2                               0x20000000   Data         100  main.o(.data)
    root                                     0x20000064   Data           4  main.o(.data)
    fmt                                      0x20000068   Data           4  main.o(.data)
    jsonString                               0x2000006c   Data           4  main.o(.data)
    SysTickLedTime                           0x20000070   Data           4  delay.o(.data)
    SysTickCntMs                             0x20000074   Data           4  delay.o(.data)
    Usart1ReadCnt                            0x20000078   Data           4  usart.o(.data)
    Usart1ReadCntCopy                        0x2000007c   Data           4  usart.o(.data)
    Usart1IdleCnt                            0x20000080   Data           4  usart.o(.data)
    Usart1IdleTime                           0x20000084   Data           4  usart.o(.data)
    Usart1ReadFlage                          0x20000088   Data           1  usart.o(.data)
    Usart1SendDat                            0x20000089   Data           1  usart.o(.data)
    SystemCoreClock                          0x20000098   Data           4  system_stm32f10x.o(.data)
    AHBPrescTable                            0x2000009c   Data          16  system_stm32f10x.o(.data)
    __stdout                                 0x200000c0   Data           4  stdout.o(.data)
    __microlib_freelist                      0x200000c4   Data           4  mvars.o(.data)
    __microlib_freelist_initialised          0x200000c8   Data           4  mvars.o(.data)
    Usart1ReadBuff                           0x200000d0   Data         150  usart.o(.bss)
    Usart1SendBuff                           0x20000166   Data         500  usart.o(.bss)
    Uart1rb                                  0x2000035c   Data          16  looplist.o(.bss)
    KeySmartConfig                           0x2000036c   Data          28  key.o(.bss)
    __heap_base                              0x20000388   Data           0  startup_stm32f10x_hd.o(HEAP)
    __heap_limit                             0x20000b88   Data           0  startup_stm32f10x_hd.o(HEAP)
    __initial_sp                             0x20000f88   Data           0  startup_stm32f10x_hd.o(STACK)



==============================================================================

Memory Map of the image

  Image Entry point : 0x08000131

  Load Region LR_IROM1 (Base: 0x08000000, Size: 0x000050f0, Max: 0x00010000, ABSOLUTE)

    Execution Region ER_IROM1 (Base: 0x08000000, Size: 0x00005020, Max: 0x00010000, ABSOLUTE)

    Base Addr    Size         Type   Attr      Idx    E Section Name        Object

    0x08000000   0x00000130   Data   RO          559    RESET               startup_stm32f10x_hd.o
    0x08000130   0x00000000   Code   RO          578  * .ARM.Collect$$$$00000000  mc_w.l(entry.o)
    0x08000130   0x00000004   Code   RO          927    .ARM.Collect$$$$00000001  mc_w.l(entry2.o)
    0x08000134   0x00000004   Code   RO          930    .ARM.Collect$$$$00000004  mc_w.l(entry5.o)
    0x08000138   0x00000000   Code   RO          932    .ARM.Collect$$$$00000008  mc_w.l(entry7b.o)
    0x08000138   0x00000000   Code   RO          934    .ARM.Collect$$$$0000000A  mc_w.l(entry8b.o)
    0x08000138   0x00000008   Code   RO          935    .ARM.Collect$$$$0000000B  mc_w.l(entry9a.o)
    0x08000140   0x00000000   Code   RO          937    .ARM.Collect$$$$0000000D  mc_w.l(entry10a.o)
    0x08000140   0x00000000   Code   RO          939    .ARM.Collect$$$$0000000F  mc_w.l(entry11a.o)
    0x08000140   0x00000004   Code   RO          928    .ARM.Collect$$$$00002712  mc_w.l(entry2.o)
    0x08000144   0x00000044   Code   RO            3    .text               stm32f10x_it.o
    0x08000188   0x00000188   Code   RO          121    .text               main.o
    0x08000310   0x00000054   Code   RO          193    .text               system.o
    0x08000364   0x00000108   Code   RO          213    .text               delay.o
    0x0800046c   0x000001c0   Code   RO          243    .text               usart.o
    0x0800062c   0x00000080   Code   RO          270    .text               gpio.o
    0x080006ac   0x00000320   Code   RO          316    .text               looplist.o
    0x080009cc   0x00001a80   Code   RO          366    .text               cjson.o
    0x0800244c   0x000001e0   Code   RO          418    .text               system_stm32f10x.o
    0x0800262c   0x000000dc   Code   RO          457    .text               misc.o
    0x08002708   0x000003a4   Code   RO          477    .text               stm32f10x_rcc.o
    0x08002aac   0x00000408   Code   RO          499    .text               stm32f10x_usart.o
    0x08002eb4   0x0000035c   Code   RO          539    .text               stm32f10x_gpio.o
    0x08003210   0x00000024   Code   RO          560    .text               startup_stm32f10x_hd.o
    0x08003234   0x0000000c   Code   RO          581    .text               mc_w.l(tolower.o)
    0x08003240   0x00000024   Code   RO          583    .text               mc_w.l(memcpya.o)
    0x08003264   0x00000024   Code   RO          585    .text               mc_w.l(memseta.o)
    0x08003288   0x00000014   Code   RO          587    .text               mc_w.l(strchr.o)
    0x0800329c   0x0000000e   Code   RO          589    .text               mc_w.l(strlen.o)
    0x080032aa   0x00000012   Code   RO          591    .text               mc_w.l(strcpy.o)
    0x080032bc   0x0000001e   Code   RO          593    .text               mc_w.l(strncmp.o)
    0x080032da   0x0000014e   Code   RO          886    .text               mf_w.l(dadd.o)
    0x08003428   0x000000e4   Code   RO          888    .text               mf_w.l(dmul.o)
    0x0800350c   0x00000022   Code   RO          890    .text               mf_w.l(dflti.o)
    0x0800352e   0x0000003e   Code   RO          892    .text               mf_w.l(dfixi.o)
    0x0800356c   0x00000026   Code   RO          894    .text               mf_w.l(f2d.o)
    0x08003592   0x00000002   PAD
    0x08003594   0x00000030   Code   RO          896    .text               mf_w.l(cdcmple.o)
    0x080035c4   0x00000030   Code   RO          898    .text               mf_w.l(cdrcmple.o)
    0x080035f4   0x0000002c   Code   RO          942    .text               mc_w.l(uidiv.o)
    0x08003620   0x00000062   Code   RO          944    .text               mc_w.l(uldiv.o)
    0x08003682   0x0000001e   Code   RO          946    .text               mc_w.l(llshl.o)
    0x080036a0   0x00000020   Code   RO          948    .text               mc_w.l(llushr.o)
    0x080036c0   0x00000024   Code   RO          950    .text               mc_w.l(llsshr.o)
    0x080036e4   0x00000000   Code   RO          961    .text               mc_w.l(iusefp.o)
    0x080036e4   0x000000ba   Code   RO          962    .text               mf_w.l(depilogue.o)
    0x0800379e   0x000000de   Code   RO          964    .text               mf_w.l(ddiv.o)
    0x0800387c   0x0000002e   Code   RO          966    .text               mf_w.l(dscalb.o)
    0x080038aa   0x00000030   Code   RO          968    .text               mf_w.l(dfixul.o)
    0x080038da   0x00000002   PAD
    0x080038dc   0x00000024   Code   RO          970    .text               mc_w.l(init.o)
    0x08003900   0x000000a2   Code   RO          972    .text               mf_w.l(dsqrt.o)
    0x080039a2   0x00000002   PAD
    0x080039a4   0x00000020   Code   RO          830    i.__0printf         mc_w.l(printfa.o)
    0x080039c4   0x00000028   Code   RO          832    i.__0sprintf        mc_w.l(printfa.o)
    0x080039ec   0x00000028   Code   RO          914    i.__ARM_fpclassify  m_ws.l(fpclassify.o)
    0x08003a14   0x000000aa   Code   RO          916    i.__kernel_poly     m_ws.l(poly.o)
    0x08003abe   0x00000002   PAD
    0x08003ac0   0x00000010   Code   RO          900    i.__mathlib_dbl_divzero  m_ws.l(dunder.o)
    0x08003ad0   0x00000004   Code   RO          902    i.__mathlib_dbl_infnan2  m_ws.l(dunder.o)
    0x08003ad4   0x0000000c   Code   RO          903    i.__mathlib_dbl_invalid  m_ws.l(dunder.o)
    0x08003ae0   0x0000000e   Code   RO          904    i.__mathlib_dbl_overflow  m_ws.l(dunder.o)
    0x08003aee   0x00000002   PAD
    0x08003af0   0x00000010   Code   RO          906    i.__mathlib_dbl_underflow  m_ws.l(dunder.o)
    0x08003b00   0x0000000e   Code   RO          976    i.__scatterload_copy  mc_w.l(handlers.o)
    0x08003b0e   0x00000002   Code   RO          977    i.__scatterload_null  mc_w.l(handlers.o)
    0x08003b10   0x0000000e   Code   RO          978    i.__scatterload_zeroinit  mc_w.l(handlers.o)
    0x08003b1e   0x00000002   PAD
    0x08003b20   0x0000000c   Code   RO          956    i.__set_errno       mc_w.l(errno.o)
    0x08003b2c   0x00000164   Code   RO          837    i._fp_digits        mc_w.l(printfa.o)
    0x08003c90   0x000006dc   Code   RO          838    i._printf_core      mc_w.l(printfa.o)
    0x0800436c   0x00000024   Code   RO          839    i._printf_post_padding  mc_w.l(printfa.o)
    0x08004390   0x0000002e   Code   RO          840    i._printf_pre_padding  mc_w.l(printfa.o)
    0x080043be   0x0000000a   Code   RO          842    i._sputc            mc_w.l(printfa.o)
    0x080043c8   0x000000dc   Code   RO          565    i.floor             m_ws.l(floor.o)
    0x080044a4   0x00000050   Code   RO          858    i.free              mc_w.l(malloc.o)
    0x080044f4   0x0000006c   Code   RO          859    i.malloc            mc_w.l(malloc.o)
    0x08004560   0x000009b8   Code   RO          569    i.pow               m_ws.l(pow.o)
    0x08004f18   0x0000004c   Code   RO          920    i.sqrt              m_ws.l(sqrt.o)
    0x08004f64   0x00000007   Data   RO          367    .constdata          cjson.o
    0x08004f6b   0x00000005   PAD
    0x08004f70   0x00000088   Data   RO          570    .constdata          m_ws.l(pow.o)
    0x08004ff8   0x00000008   Data   RO          918    .constdata          m_ws.l(qnan.o)
    0x08005000   0x00000020   Data   RO          974    Region$$Table       anon$$obj.o


    Execution Region RW_IRAM1 (Base: 0x20000000, Size: 0x00000f88, Max: 0x00005000, ABSOLUTE)

    Base Addr    Size         Type   Attr      Idx    E Section Name        Object

    0x20000000   0x00000070   Data   RW          122    .data               main.o
    0x20000070   0x00000008   Data   RW          214    .data               delay.o
    0x20000078   0x00000013   Data   RW          245    .data               usart.o
    0x2000008b   0x00000001   PAD
    0x2000008c   0x0000000c   Data   RW          368    .data               cjson.o
    0x20000098   0x00000014   Data   RW          419    .data               system_stm32f10x.o
    0x200000ac   0x00000014   Data   RW          478    .data               stm32f10x_rcc.o
    0x200000c0   0x00000004   Data   RW          941    .data               mc_w.l(stdout.o)
    0x200000c4   0x00000004   Data   RW          952    .data               mc_w.l(mvars.o)
    0x200000c8   0x00000004   Data   RW          953    .data               mc_w.l(mvars.o)
    0x200000cc   0x00000004   Data   RW          957    .data               mc_w.l(errno.o)
    0x200000d0   0x0000028a   Zero   RW          244    .bss                usart.o
    0x2000035a   0x00000002   PAD
    0x2000035c   0x00000010   Zero   RW          317    .bss                looplist.o
    0x2000036c   0x0000001c   Zero   RW          343    .bss                key.o
    0x20000388   0x00000800   Zero   RW          558    HEAP                startup_stm32f10x_hd.o
    0x20000b88   0x00000400   Zero   RW          557    STACK               startup_stm32f10x_hd.o


==============================================================================

Image component sizes


      Code (inc. data)   RO Data    RW Data    ZI Data      Debug   Object Name

      6784        208          7         12          0      23680   cjson.o
       264         42          0          8          0      23350   delay.o
       128          8          0          0          0        543   gpio.o
         0          0          0          0         28        577   key.o
       800        190          0          0         16       3737   looplist.o
       392        136          0        112          0       3940   main.o
       220         22          0          0          0       1829   misc.o
        36          8        304          0       3072        820   startup_stm32f10x_hd.o
       860         38          0          0          0       5677   stm32f10x_gpio.o
        68          8          0          0          0     254613   stm32f10x_it.o
       932         36          0         20          0       8868   stm32f10x_rcc.o
      1032         22          0          0          0       8396   stm32f10x_usart.o
        84          8          0          0          0        747   system.o
       480         38          0         20          0       1875   system_stm32f10x.o
       448         34          0         19        650       2496   usart.o

    ----------------------------------------------------------------------
     12528        798        348        192       3768     341148   Object Totals
         0          0         32          0          0          0   (incl. Generated)
         0          0          5          1          2          0   (incl. Padding)

    ----------------------------------------------------------------------

      Code (inc. data)   RO Data    RW Data    ZI Data      Debug   Library Member Name

        62         10          0          0          0        340   dunder.o
       220         16          0          0          0         84   floor.o
        40          0          0          0          0         68   fpclassify.o
       170          0          0          0          0         96   poly.o
      2488        190        136          0          0        300   pow.o
         0          0          8          0          0          0   qnan.o
        76          0          0          0          0         84   sqrt.o
         0          0          0          0          0          0   entry.o
         0          0          0          0          0          0   entry10a.o
         0          0          0          0          0          0   entry11a.o
         8          4          0          0          0          0   entry2.o
         4          0          0          0          0          0   entry5.o
         0          0          0          0          0          0   entry7b.o
         0          0          0          0          0          0   entry8b.o
         8          4          0          0          0          0   entry9a.o
        12          6          0          4          0         68   errno.o
        30          0          0          0          0          0   handlers.o
        36          8          0          0          0         68   init.o
         0          0          0          0          0          0   iusefp.o
        30          0          0          0          0         68   llshl.o
        36          0          0          0          0         68   llsshr.o
        32          0          0          0          0         68   llushr.o
       188         20          0          0          0        160   malloc.o
        36          0          0          0          0         68   memcpya.o
        36          0          0          0          0        108   memseta.o
         0          0          0          8          0          0   mvars.o
      2276         96          0          0          0        596   printfa.o
         0          0          0          4          0          0   stdout.o
        20          0          0          0          0         68   strchr.o
        18          0          0          0          0         68   strcpy.o
        14          0          0          0          0         68   strlen.o
        30          0          0          0          0         80   strncmp.o
        12          0          0          0          0         68   tolower.o
        44          0          0          0          0         80   uidiv.o
        98          0          0          0          0         92   uldiv.o
        48          0          0          0          0         68   cdcmple.o
        48          0          0          0          0         68   cdrcmple.o
       334          0          0          0          0        148   dadd.o
       222          0          0          0          0        100   ddiv.o
       186          0          0          0          0        176   depilogue.o
        62          0          0          0          0         80   dfixi.o
        48          0          0          0          0         68   dfixul.o
        34          0          0          0          0         76   dflti.o
       228          0          0          0          0         96   dmul.o
        46          0          0          0          0         80   dscalb.o
       162          0          0          0          0        100   dsqrt.o
        38          0          0          0          0         68   f2d.o

    ----------------------------------------------------------------------
      7492        354        144         16          0       3896   Library Totals
        12          0          0          0          0          0   (incl. Padding)

    ----------------------------------------------------------------------

      Code (inc. data)   RO Data    RW Data    ZI Data      Debug   Library Name

      3056        216        144          0          0        972   m_ws.l
      2968        138          0         16          0       1796   mc_w.l
      1456          0          0          0          0       1128   mf_w.l

    ----------------------------------------------------------------------
      7492        354        144         16          0       3896   Library Totals

    ----------------------------------------------------------------------

==============================================================================


      Code (inc. data)   RO Data    RW Data    ZI Data      Debug   

     20020       1152        492        208       3768     341868   Grand Totals
     20020       1152        492        208       3768     341868   ELF Image Totals
     20020       1152        492        208          0          0   ROM Totals

==============================================================================

    Total RO  Size (Code + RO Data)                20512 (  20.03kB)
    Total RW  Size (RW Data + ZI Data)              3976 (   3.88kB)
    Total ROM Size (Code + RO Data + RW Data)      20720 (  20.23kB)

==============================================================================

