:020000040800F2
:10000000A00600200114000845010008470100086F
:100010006F0100087301000877010008000000006C
:100020000000000000000000000000007B0100084C
:100030007D010008000000007F010008FD020008AB
:100040001B1400081B1400081B1400081B140008D4
:100050001B1400081B1400081B1400081B140008C4
:100060001B1400081B1400081B1400081B140008B4
:100070001B1400081B1400081B1400081B140008A4
:100080001B1400081B1400081B1400081B14000894
:100090001B1400081B1400081B1400081B14000884
:1000A0001B1400081B1400081B1400081B14000874
:1000B0001B1400081B1400081B1400081B14000864
:1000C0001B1400081B1400081B1400081B14000854
:1000D0001B140008270400081B1400081B14000848
:1000E0001B1400081B1400081B1400081B14000834
:1000F0001B1400081B1400081B1400081B14000824
:100100001B1400081B1400081B1400081B14000813
:100110001B1400081B1400081B1400081B14000803
:100120001B1400081B1400081B1400081B140008F3
:10013000DFF80CD001F09EF9004800478901000863
:10014000A0060020704711E071B600BFBFF34F8FCB
:100150000B48006800F4E0600A490843001D0849A4
:100160000860BFF34F8F00BF00BFFEE7ECE700BFA2
:10017000FEE700BFFEE700BFFEE77047704770472D
:100180000CED00E00000FA0500F058F84FF4E13003
:1001900000F0E8F800F08CF900F07AF800F011FABD
:1001A0001A4B102214211A4800F0C2F919490860AC
:1001B0001648007820B11548017817A001F06CF9B5
:1001C00012491448006800F0EBF918490860102241
:1001D00017491648006801F025F90C490D480068D8
:1001E00000F0DEF9134908600846006812490A6801
:1001F00002604A684260098901810C48016805482B
:10020000006800F0F7F900BFFEE7000000000020E2
:1002100074000020040000204F534D656D4372654B
:10022000617465206572723D25640000080000203D
:100230000C0000201C0000202000002008B54FF416
:10024000A06000F0EBFA25208DF8000000208DF86A
:1002500001008DF8020001208DF80300684600F0CF
:10026000E2FA08BD71B600BFBFF34F8F06480068C1
:1002700000F4E06005490843001D03490860BFF32E
:100280004F8F00BF00BFFEE70CED00E00000FA0555
:1002900070B56FF0040000F010FB294800684FF4BF
:1002A0007A72B0FBF2F1481EB0F1807F00D31BE000
:1002B000481E4FF0E022506150170F22002807DA45
:1002C00013071D0E1F4B00F00F04241F1D5503E0E4
:1002D00013071C0E1C4B1C5400BF00204FF0E022E3
:1002E00090610720106100BF70BD0021174A1160A6
:1002F00000BF164909688142FBD370471348006864
:10030000401C1249086012480068B8B111480068E2
:10031000401C10490860084600680F490968884277
:100320000CD300200B490860094800680B4908609D
:100330000020074908600120094908707047000043
:100340004800002018ED00E000E400E02C00002050
:1003500030000020380000203C0000203400002045
:100360004000002010B586B00446012144F204008C
:1003700000F030FC4FF40070ADF8140003208DF84D
:10038000160018208DF8170005A9434800F0EAFE72
:100390004FF48060ADF8140004208DF8170005A913
:1003A0003D4800F0DFFE01940020ADF80800ADF8F4
:1003B0000A00ADF80C00ADF810000C20ADF80E00EE
:1003C00001A9364800F0ADFC012240F22551334826
:1003D00000F03FFD0121314800F02FFD06B010BDB7
:1003E00070B504460D460BE014F8011B2B4800F0D5
:1003F00091FD00BF8021294800F0FAFD0028F9D0C6
:100400002800A5F10105EFD170BD10B504462146C5
:10041000224800F07FFD00BF8021204800F0E8FD69
:100420000028F9D010BD10B540F225511B4800F04E
:10043000F5FDA8B1194800F071FDC4B2184819497A
:100440000968445417480068401C1649086008466B
:1004500000688C2801D9002008600020124908603B
:1004600010BD70B504460D461048007838B901201B
:100470000E49087040F22661084800F0F9FDE1B22B
:10048000064800F047FD00BF4021044800F0B0FDE1
:100490000028F9D0204670BD000801400038014016
:1004A000B40100203000002038000020410000206E
:1004B00008B501217D2000F08DFB4FF40050ADF810
:1004C000000010208DF8030003208DF8020069461B
:1004D000154800F047FE0420ADF8000010208DF80C
:1004E000030003208DF802006946104800F03AFE30
:1004F0002020ADF8000048208DF8030003208DF87F
:1005000002006946094800F02DFE4FF40070ADF876
:10051000000014208DF8030003208DF802006946C6
:10052000024800F01FFE08BD00100140000C014011
:100530002DE9F04104460D46022D04D26F201870BB
:100540000020BDE8F081042A03D27020187000203A
:10055000F7E738480168006830B1364800684068FD
:10056000DFF8D080C8F8000019B96E20187000209C
:10057000E7E72646A7184FF0000C04E037603E4638
:1005800017440CF1010C681E6045F7D8002030605C
:100590000C604C600D61CD608A6018700846D0E731
:1005A0000246106948B15368186850601069401ECF
:1005B00010610020087018467047712008700020F4
:1005C000FAE71D4800210DE04A1C02EB82021A4B9B
:1005D00003EB82024260002202600261C26082601C
:1005E0001430491C0329EFD30023134A1364114B21
:1005F0001A6070470246D2E90330984201D3722054
:1006000070475068086051601069401C10610020FC
:10061000F6E7024610680860506848609068886095
:10062000D068C86010690861D1E90303C01A486145
:1006300000207047440000204C0200200CB5002030
:10064000019000906C48006840F480306A4908606E
:1006500000BF6948006800F4003000900198401C19
:100660000190009818B90198B0F5A06FF1D16248D7
:10067000006800F4003010B10120009001E000207B
:1006800000900098012843D15C48006840F01000B9
:100690005A4908600846006820F0030008600846D0
:1006A000006840F0020008605348406852494860C2
:1006B0000846406848600846406840F480604860EA
:1006C0000846406820F47C1048600846406840F4C2
:1006D000E81048600846006840F08070086000BF7D
:1006E0004548006800F000700028F9D04248406892
:1006F00020F00300404948600846406840F002008E
:10070000486000BF3C48406800F00C000828F9D160
:100710000CBD10B5FFF792FF10BD10B5364800684C
:1007200040F00100344908600846406834490840F8
:100730003149486008460068324908402E4908603F
:100740000846006820F4802008600846406820F4CD
:10075000FE0048604FF41F008860FFF7DAFF4FF09B
:1007600000602949086010BD10B50021002000225A
:10077000214B5B6803F00C0121B1042906D0082944
:1007800028D107E0214B224C236027E01F4B204C4F
:10079000236023E0184B5B6803F47010164B5B6812
:1007A00003F48032022303EB904022B9194B4343F8
:1007B000174C23600DE0104B5B6803F4003323B14A
:1007C000144B4343124C236003E0104B4343104C43
:1007D000236003E00D4B0E4C236000BF00BF064BAF
:1007E0005B68C3F303130C4CE15C094B1B68CB4003
:1007F000074C236010BD00000010024000200240A2
:100800000000FFF8FFFFF6FE08ED00E000127A009E
:100810004800002000093D004C0000203149014300
:10082000314A1160704770B5002100230F22C4784F
:1008300004B32D4C246804F4E064C4F5E064210A98
:10084000C1F10403CA40447804FA03F184781440E7
:1008500021430901254C0678A155047804F01F05B1
:100860000124AC4005786D11AD0005F1E025C5F817
:10087000004109E0047804F01F050124AC401C4D40
:100880000678761145F8264070BD1A4A0A400243A0
:10089000154B1B1F1A60704739B1134A121D12689D
:1008A0000243114B1B1D1A6006E00F4A121D12680D
:1008B00082430D4B1B1D1A607047042808D14FF06E
:1008C000E021096941F004014FF0E022116107E0E5
:1008D0004FF0E021096921F004014FF0E02211619D
:1008E000704700000000FA050CED00E000E400E0B5
:1008F00080E100E080FFFF1FDF48006840F001005A
:10090000DD49086008464068DC490840DA4948602B
:1009100008460068DA490840D74908600846006878
:1009200020F4802008600846406820F4FE004860FB
:100930004FF41F0088607047CF49096821F4803167
:10094000CD4A11601146096821F480211160B0F58B
:10095000803F03D0B0F5802F0ED106E0C64909686C
:1009600041F48031C44A116007E0C349096841F489
:10097000A021C14A116000E000BF00BF704710B560
:1009800001460022002300204A11012A02D1BA4C5C
:10099000236806E0022A02D1B74C236A01E0B64C74
:1009A000636A01F01F02012494401C400CB1012035
:1009B00000E0002010BD38B5002000900024002584
:1009C00000BF3120FFF7DBFF05460098401C009078
:1009D0000098B0F5A06F01D0002DF2D03120FFF7C4
:1009E000CEFF08B1012400E00024204638BD0146B6
:1009F0000020A14A106820F0F80040EAC100106011
:100A00007047A04908607047024600209A4B58681A
:100A100020F47C1042EA01031843974B586070475A
:100A200098490866704701460020934A506820F0B4
:100A300003000843506070478F48406800F00C0086
:100A40007047014600208C4A506820F0F0000843AF
:100A50005060704701460020874A506820F4E060EB
:100A600008435060704701460020834A506820F4D4
:100A7000605040EAC1005060704729B17E4A527A06
:100A800002437D4B5A7204E07B4A527A82437A4B8E
:100A90005A7270477B49D831086070470146002080
:100AA000754A506820F44040084350607047002168
:100AB000714A20321170704A82F82010012802D049
:100AC00004280AD104E001216B4A2032117005E0AC
:100AD0000521694A2032117000E000BF00BF704755
:100AE0006949086070476449096A0143624A1162B2
:100AF0007047654944390860704730B500210022CD
:100B0000002400235C4D6D6805F00C0121B104291F
:100B100005D0082923D105E05C4D056022E05B4D3E
:100B200005601FE0544D6D6805F47012524D6D68FC
:100B300005F48034022505EB92421CB9544D55430F
:100B400005600BE04C4D6D6805F400351DB1504D4E
:100B50005543056002E04D4D5543056002E04B4DA5
:100B6000056000BF00BF444D6D6805F0F001090944
:100B7000484D6B5C0568DD4045603F4D6D6805F490
:100B8000E061090A434D6B5C4568DD4085603A4D84
:100B90006D6805F46051C90A3E4D6B5C4568DD40E7
:100BA000C560354D6D6805F44041890B3A4D6B5C6D
:100BB000C568B5FBF3F5056130BD29B12E4A526910
:100BC00002432D4B5A6104E02B4A526982432A4B5F
:100BD0005A61704729B1284A92690243264B9A61AB
:100BE00004E0254A92698243234B9A61704729B1F8
:100BF000214AD2690243204BDA6104E01E4AD269DD
:100C000082431D4BDA61704729B11B4AD268024307
:100C1000194BDA6004E0184AD2688243164BDA6056
:100C2000704729B1144A12690243134B1A6104E058
:100C3000114A12698243104B1A61704712494039B8
:100C4000086070470F49C86470470B49C871704706
:100C50000948406A40F08070074948627047014681
:100C60000020054A92680A400AB1012000E00020F5
:100C70007047014988727047001002400000FFF879
:100C8000FFFFF6FE000042428004424200127A005A
:100C900000093D005C0000206C00002010B50446F7
:100CA000FB48844209D101218803FFF7ADFF0021F1
:100CB0004FF48040FFF7A8FF32E0F648844209D1A4
:100CC00001214804FFF7ADFF00214FF40030FFF78A
:100CD000A8FF25E0F048844209D101218804FFF7EC
:100CE000A0FF00214FF48020FFF79BFF18E0EB48A6
:100CF000844209D10121C804FFF793FF00214FF47A
:100D00000020FFF78EFF0BE0E548844208D1012167
:100D10000805FFF786FF00214FF48010FFF781FFE1
:100D200010BD2DE9F04786B005460E460024A246C8
:100D300000BFA1460027B08900B100BF2F462C8A12
:100D40004CF6FF700440F08804432C82AC894EF6C8
:100D5000F3100440B0883189084371890843044383
:100D6000AC81AC8A4FF6FF400440B0890443AC82AA
:100D700001A8FFF7C2FEC648874202D1DDF810A0E5
:100D800001E0DDF80CA0A88900F4004040B10AEBB6
:100D9000CA0000EB0A1031684900B0FBF1F807E027
:100DA0000AEBCA0000EB0A1031688900B0FBF1F8C9
:100DB0006420B8FBF0F004012009642101FB1089D4
:100DC000A88900F4004040B1322000EBC900B0FB1C
:100DD000F1F000F00700044308E0322000EB0910B6
:100DE0006421B0FBF1F000F00F0004432C8106B049
:100DF000BDE8F0874FF41651016000218180C18069
:100E000001810C21418100218181704710B502468A
:100E10000020108A4FF2FF0318400B884C882343B0
:100E20008C882343CC8823431843108210BD0021B3
:100E3000018041808180C180704721B1828942F464
:100E40000052828104E082894DF6FF731A4082814C
:100E50007047F0B50346002400260025002040F628
:100E60006A17B94200D100BF1846C1F3421401F01D
:100E70001F06012707FA06F5012C01D10C3004E00A
:100E8000022C01D1103000E014301AB107682F4352
:100E9000076002E00768AF430760F0BD1AB1838ABC
:100EA0000B43838202E0838A8B4383827047028AEA
:100EB0004FF6F0731A400282028A0A430282704798
:100EC00082894FF2FF731A40828182890A438281AC
:100ED000704721B1828942F00202828104E0828956
:100EE0004FF6FD731A4082817047028A4FF6DF7316
:100EF0001A400282028A0A430282704721B1028AA2
:100F000042F48042028204E0028A4BF6FF731A40E8
:100F100002827047C1F308028280704701468888C8
:100F2000C0F308007047818941F001018181704759
:100F3000028BD2B20283028B42EA01220283704703
:100F4000028B02F47F420283028B0A4302837047C2
:100F500021B1828A42F02002828204E0828A4FF626
:100F6000DF731A408282704721B1828A42F01002F8
:100F7000828204E0828A4FF6EF731A4082827047C1
:100F800021B1828A42F00802828204E0828A4FF60E
:100F9000F7731A408282704721B1828942F400427D
:100FA000828103E08289C2F30E028281704721B1FF
:100FB000828A42F40062828204E0828A4FF2FF73E6
:100FC0001A4082827047828A4FF6FB731A408282EF
:100FD000828A0A438282704721B1828A42F00202E9
:100FE000828204E0828A4FF6FD731A408282704743
:100FF00002460020B1F5007F00D100BF13880B40EE
:101000000BB1012000E00020704701F40072B2F53E
:10101000007F00D100BFCA430280704770B502460E
:10102000002400230025002040F66A16B14200D1BA
:1010300000BFC1F3421501F01F03012606FA03F3B6
:10104000012D02D19689334006E0022D02D1168A85
:10105000334001E0968A33400C12012606FA04F46C
:101060001688344013B10CB1012000E0002070BD9F
:1010700010B50022002340F66A14A14200D100BF3F
:101080000A1201249440A3B2DC43048010BD000086
:10109000003801400044004000480040004C00403F
:1010A0000050004010B50446CC48844208D10121CC
:1010B0000420FFF7A9FD00210420FFF7A5FD46E06D
:1010C000C748844208D101210820FFF79DFD002177
:1010D0000820FFF799FD3AE0C248844208D1012177
:1010E0001020FFF791FD00211020FFF78DFD2EE06D
:1010F000BD48844208D101212020FFF785FD002151
:101100002020FFF781FD22E0B848844208D1012168
:101110004020FFF779FD00214020FFF775FD16E024
:10112000B348844208D101218020FFF76DFD0021E2
:101130008020FFF769FD0AE0AE48844207D1012113
:101140008015FFF761FD0021A015FFF75DFD10BDC3
:1011500010B501210846FFF757FD00210120FFF7D8
:1011600053FD10BD2DE9F041024600250026002068
:1011700000230024002791F803C00CF00F0591F81C
:1011800003C00CF0100CBCF1000F03D091F802C0AA
:101190004CEA050591F800C0BCF1000F31D014688D
:1011A00000202BE04FF0010C0CFA00F3B1F800C066
:1011B0000CEA03069E4220D183004FF00F0C0CFA7C
:1011C00003F7BC4305FA03FC4CEA040491F803C09E
:1011D000BCF1280F06D14FF0010C0CFA00FCC2F84C
:1011E00014C00AE091F803C0BCF1480F05D14FF0DC
:1011F000010C0CFA00FCC2F810C0401C0828D1D326
:101200001460B1F800C0BCF1FF0F34DD5468002059
:101210002EE000F1080C4FF0010808FA0CF3B1F8C9
:1012200000C00CEA03069E4221D183004FF00F0C50
:101230000CFA03F7BC4305FA03FC4CEA040491F8EA
:1012400003C0BCF1280F05D100F1080C08FA0CF816
:10125000C2F8148091F803C0BCF1480F07D100F127
:10126000080C4FF0010808FA0CF8C2F81080401C76
:101270000828CED35460BDE8F0814FF6FF7101809D
:10128000022181700421C1707047024600209368DA
:101290000B400BB1012000E0002070470146886838
:1012A00080B2704702460020D3680B400BB101208A
:1012B00000E0002070470146C86880B270470161B5
:1012C0007047416170470AB1016100E041617047B8
:1012D000C16070474FF480320A438261816182614C
:1012E00082698269704702460020434B18684FF6B6
:1012F0008073184040EA021008433F4B1860704763
:101300003E49C8617047F0B50A4600230024002119
:10131000002500F00046B6F1004F02D1364EF169CB
:1013200001E0354E7168C0F3034583B200F4401606
:10133000B6F5401F08D121F070612F4E766826F077
:1013400070662D4F7E6012E000F48016B6F5801FA7
:1013500006D1032606FA05F4A14341F0706106E0C8
:10136000460D360103FA06F6B14341F0706122B131
:10137000460D360103FA06F6314300F00046B6F199
:10138000004F02D11C4EF16101E01B4E7160F0BDB7
:1013900030B500228B071C0F0F2303FA04F2164B03
:1013A00008338C1053F824309343134C08348D10B9
:1013B00044F8253023468C1053F824308C07240F32
:1013C00000FA04F423430C4C08348D1044F8253003
:1013D00030BD0A49DC310860704700000008014058
:1013E000000C0140001001400014014000180140B1
:1013F000001C01400020014000000140000020428C
:101400000648804706480047FEE7FEE7FEE7FEE79E
:10141000FEE7FEE7FEE7FEE7FEE7FEE71B07000844
:101420003101000840EA01039B0703D009E008C925
:10143000121F08C0042AFAD203E011F8013B00F899
:10144000013B521EF9D2704730B50B4601460020D1
:101450002022012409E021FA02F59D4205D303FA76
:1014600002F5491B04FA02F52844151EA2F10102F7
:10147000F1DC30BD064C074D06E0E06840F00103AA
:1014800094E8070098471034AC42F6D3FEF754FEB8
:101490002C1600084C1600080FB4054B10B503A914
:1014A000044A029800F018F810BC5DF814FB000024
:1014B000630400087000002002E008C8121F08C181
:1014C000002AFAD170477047002001E001C1121FC5
:1014D000002AFBD1704700002DE9FF4F89B09B46E1
:1014E0000446002506E025280BD05A460B99904764
:1014F000641C6D1C20780028F5D10DB02846BDE88D
:10150000F08F0027B8460122474900E0074314F84E
:10151000013F203B02FA03F00842F7D120782E2841
:1015200019D114F8010F47F004072A280ED06FF0E4
:101530002F022078A0F1300109290CD808EB88018E
:1015400002EB410100EB0108641CF2E70A98641CFD
:1015500050F8048B0A9020780028CED0642808D058
:10156000692806D075281ED05A460B9990476D1CE5
:1015700058E00A994FF00A0901C90A91002802DAD5
:1015800040422D2102E0390504D52B218DF8201091
:10159000012103E0F90704D02021F7E78A4608AECD
:1015A0000DE00021FAE70A994FF00A0901C90A91F2
:1015B000F7E74946FFF748FF303106F8011D0028DC
:1015C000F7D1ADEB060000F12009780701D44FF008
:1015D0000108C84502DDA8EB090000E000208046B4
:1015E000002706E008A85A46C05D0B9990476D1C7D
:1015F0007F1C5745F6DB04E030205A460B99904794
:101600006D1CB8F10001A8F10108F5DC05E016F841
:10161000010B5A460B9990476D1CB9F10001A9F1D5
:101620000109F4DC641C65E7092801004C16000878
:101630000000002074000000B8140008C016000864
:10164000740000202C060000C814000800000000F0
:101650000000000000000000313131313131313102
:10166000313131313131313100000000323232322A
:10167000323232323232000000000000000000003E
:1016800000000000000000000A0000000000000050
:101690000000000000A24A0400000000000000005A
:1016A0000102030406070809000000000102030408
:1016B00001020304060708090204060800000000EE
:0400000508000131BD
:00000001FF
