:020000040800F2
:10000000001300205128000845010008470100089E
:100010006B0100086F010008730100080000000078
:100020000000000000000000000000007701000850
:1000300079010008000000007B0100086928000821
:100040006B2800086B2800086B2800086B28000844
:100050006B2800086B2800086B2800086B28000834
:100060006B2800086B2800086B2800086B28000824
:100070006B2800086B2800086B2800086B28000814
:100080006B2800086B2800086B2800086B28000804
:100090006B2800086B2800086B2800086B280008F4
:1000A0006B2800086B2800086B2800086B280008E4
:1000B000F10500086B2800086B2800086B28000871
:1000C0006B2800086B2800086B2800086B280008C4
:1000D0006B2800087F0400086B2800086B280008C4
:1000E0006B2800086B2800086B2800086B280008A4
:1000F0006B2800086B2800086B2800086B28000894
:100100006B2800086B2800086B2800086B28000883
:100110006B2800086B2800086B2800086B28000873
:100120006B2800086B2800086B2800086B28000863
:10013000DFF80CD002F0E6FB00480047850100081C
:100140000013002070470FE071B600BF0B48006835
:1001500000F4E0600A490843001D08490860BFF345
:10016000408F00BF00BFFEE7EEE700BFFEE700BF25
:10017000FEE700BFFEE77047704770470CED00E0F8
:100180000000FA0508B5002400F07EF84FF4E130D5
:1001900000F0C0F800F015F900F002FA2AA002F011
:1001A000C3FB00204FF48063294A0621009029A058
:1001B00000F09AFB00204FF48063254A062100904E
:1001C00026A000F091FB00204FF48063204A062116
:1001D000009024A000F088FB00204FF480631C4AAC
:1001E000062100901DA000F07FFB00BF26E004EB7D
:1001F000C40000EB04101D490844007EE0B104EB8C
:10020000C40000EB04100A461044017E18A002F05E
:100210008BFB04EBC40000EB0410144B1844027E6B
:1002200004EBC40000EB0410C118154800F014F9E9
:1002300014A002F079FB00E002E0641C0A2CD6DB7B
:1002400000BF00BFFEE7000073746172740D0A0006
:100250003800002030303030303000003131313162
:10026000313100003232323232320000020E0020D0
:10027000CAFDBEDDB8F6CAFD3D25640D0A000000CA
:10028000003801400D0A000008B54FF4A06000F0EE
:10029000B5FC25208DF8000000208DF801008DF8B8
:1002A000020001208DF80300684600F0ACFC262017
:1002B0008DF8000000208DF8010002208DF802006A
:1002C00001208DF80300684600F09DFC1C208DF88D
:1002D000000001208DF8030003208DF801008DF847
:1002E0000200684600F08FFC08BD71B600BF0748E9
:1002F000006800F4E06006490843001D03490860F7
:10030000BFF3408F00BF00BFFEE700000CED00E030
:100310000000FA0510B586B004465020954B4FF406
:10032000806295490090954800F076F94FF480621C
:100330009349944800F0DAF901214FF4C02000F00D
:1003400046FE012144F20D0000F034FE4FF400702F
:10035000ADF8140003208DF8160018208DF8170052
:1003600005A9894801F0EEF84FF48060ADF814005B
:1003700004208DF8170005A9834801F0E3F80194E3
:100380000020ADF80800ADF80A00ADF80C00ADF89B
:1003900010000C20ADF80E0001A97C4800F0B1FE61
:1003A000012240F22441794800F043FF012240211C
:1003B000764800F063FF0121744800F02EFF06B07C
:1003C00010BD00B58BB00121084600F0E6FD6F4876
:1003D000001D00906E48019000200290962003902E
:1003E000002004908020059000200690079008903F
:1003F0004FF40050099000200A906946654802F0C9
:100400009FF90121634802F0C6F90BB000BD70B539
:1004100006460C4615460BE014F8011B304600F06A
:1004200069FF00BF8021304600F0D2FF0028F9D0DC
:100430002800A5F10105EFD170BD70B504460D4649
:100440002946204600F056FF00BF8021204600F0DC
:10045000BFFF0028F9D070BD70B504460D461646A2
:100460004A4884420AD132462946464800F025FAD5
:10047000012240F22771204600F0DBFE70BD1CB562
:1004800040F22441414800F0B9FF01281CD13F4807
:10049000001D008800213F4802F07DF93D4802F030
:1004A00091F9C0F196003C4908606B46084638490E
:1004B0000268324800F0D0F89621364802F080F900
:1004C0000121344802F067F940F227712F4800F00B
:1004D00095FF00B32B4800F023F900280ADD012224
:1004E00001A9284800F047F99DF80410274800F0BA
:1004F00001FF10E040F22771244800F0A9FF00221C
:1005000040F22771214800F094FE012240F226615A
:100510001E4800F08EFE40F226611C4800F06EFF7F
:1005200050B140F22661194800F092FF002240F2DB
:100530002661164800F07DFE1CBD38B504460D4608
:10054000E0B200901548007838B9012013490870CE
:1005500040F226610D4800F07BFF01226946094800
:1005600000F0ABF9012240F22771084800F061FE6B
:10057000204638BD1C0900208404002038040020D7
:100580006C0900207404002000080140003801407C
:100590006C0D0020580002400000002004000020E4
:1005A0000EB50121084600F012FD4FF0804001F029
:1005B00017F90020ADF80600ADF802000A20ADF8EA
:1005C000040041F61F40ADF8000069464FF080403E
:1005D00001F0DAF90121880702F00CF801218807FF
:1005E00001F02EFD01221146900701F044FD0EBDE1
:1005F00010B50121880701F0ECFF012808D1012185
:10060000800701F0F7FF03480068401C01490860BB
:1006100010BD0000080000202DE9F04104460E4600
:1006200017461D46DDF8188072B63A46314604F189
:100630001C0000F05BF84246294604F12C0000F053
:1006400055F80020206060602072E06060722061D8
:10065000606162B6BDE8F0817FB504460E461D4676
:1006600072B604F11C0000F077F80299884218D99C
:1006700004F12C0000F070F804280EDD314604F17E
:100680001C00029A00F019F9042202A904F12C00BE
:1006900000F013F90020286006E04FF0FF302860DA
:1006A00002E06FF00100286062B67FBD70B50446BD
:1006B0000E46154672B60020286004F12C0000F0AA
:1006C0002FF8042810DB042204F1180104F12C0097
:1006D00000F051F8A069002806DD314604F11C0045
:1006E000A26900F048F8286062B670BD00B9704792
:1006F0000260C160C3684360C368836000BFF6E7FF
:1007000000B970470021C16041608160016000BF95
:10071000F7E7014611B96FF0320070470868FCE74F
:1007200000B5024612B96FF01E0000BDD2E901010A
:10073000884201D10020F8E7D2E90101884203D2C2
:10074000D2E90110401AF0E71046FFF7E2FFD2E9C4
:100750000113C91A401AE8E730B5044614B96FF01E
:10076000280030BD2046FFF7D4FF05462046FFF79E
:10077000D7FF281AF5E72DE9F04104460F46164643
:1007800000251CB96FF01400BDE8F08117B96FF0B7
:100790001500F9E7D4E90101884214D22046FFF799
:1007A000BFFFB04201D9304602E02046FFF7B8FF54
:1007B00005462A463846616802F05CF860682844BD
:1007C00060602846E0E72046FFF7A3FFE268616823
:1007D000891A401AB0420AD935462A463846616815
:1007E00002F048F86068284460602846CCE720465C
:1007F000FFF78FFFE2686168891A451A2A46384672
:10080000616802F037F8E0686060721B7919204671
:10081000FFF7B1FF05442846B6E72DE9F04104464D
:100820000F46154600261CB96FF00A00BDE8F0819E
:1008300017B96FF00B00F9E72046FFF78DFFA842CC
:1008400002D86FF00C00F1E7D4E9010188422AD800
:100850002046FFF75EFFD4E90212891A461AB54214
:1008600013D82A463946A06802F004F8A068284444
:10087000A0602046FFF74DFFE1680844A168884268
:1008800001D1E068A0602846D0E732463946A0682A
:1008900001F0F0FFE068A060AA1BB9192046FFF73D
:1008A000BCFF3044C2E72A463946A06801F0E2FFA7
:1008B000A0682844A0602846B8E72DE9F041074623
:1008C0000C461546002614B9701EBDE8F0812A4674
:1008D00021463846FFF7A1FF0646AE4202D06FF030
:1008E0000100F2E73046F0E72DE9F84F80460D466B
:1008F000164699460A9F00200090002482468346AF
:100900004946304601F0CFFFB8F1000F7CD0192DD9
:100910007ADAB9F1FA0F1CDB00BF17E004EBC4016F
:1009200001EB04113C4A88182A46414601F0C6FFF3
:1009300058B904EBC40000EB041037490844007EAA
:10094000A84202D14FF0010B02E0641C0A2CE5DB47
:1009500004E00FB10220387002200090BBF1010FBB
:100960003AD1002C55D004EBC40101EB04112A4A02
:100970008818192101F097FF00241DE004EBC40042
:1009800000EB04102449085C60B104EBC40202EBE4
:1009900004120B46D11806EB0A00192201F06AFF77
:1009A0000AF1190A04EBC40101EB04111A4A881870
:1009B000192101F078FF641C0A2CDFDB2A4641462E
:1009C000154801F057FF14490D765246314612483A
:1009D000193001F04FFF1CE0FA220F49304601F0B8
:1009E00049FFFA210C4801F05EFF2A4641460A48B9
:1009F00001F040FF08490D76F022314606481930D3
:100A000001F038FF05E0FFE70FB101203870012049
:100A100000900098BDE8F88F020E00200CB5002071
:100A2000019000906C48006840F480306A4908608A
:100A300000BF6948006800F4003000900198401C35
:100A40000190009818B90198B0F5A06FF1D16248F3
:100A5000006800F4003010B10120009001E0002097
:100A600000900098012843D15C48006840F01000D5
:100A70005A4908600846006820F0030008600846EC
:100A8000006840F0020008605348406852494860DE
:100A90000846406848600846406840F48060486006
:100AA0000846406820F47C1048600846406840F4DE
:100AB000E81048600846006840F08070086000BF99
:100AC0004548006800F000700028F9D042484068AE
:100AD00020F00300404948600846406840F00200AA
:100AE000486000BF3C48406800F00C000828F9D17D
:100AF0000CBD10B5FFF792FF10BD10B53648006869
:100B000040F0010034490860084640683449084014
:100B10003149486008460068324908402E4908605B
:100B20000846006820F4802008600846406820F4E9
:100B3000FE0048604FF41F008860FFF7DAFF4FF0B7
:100B400000602949086010BD10B500210020002276
:100B5000214B5B6803F00C0121B1042906D0082960
:100B600028D107E0214B224C236027E01F4B204C6B
:100B7000236023E0184B5B6803F47010164B5B682E
:100B800003F48032022303EB904022B9194B434314
:100B9000174C23600DE0104B5B6803F4003323B166
:100BA000144B4343124C236003E0104B4343104C5F
:100BB000236003E00D4B0E4C236000BF00BF064BCB
:100BC0005B68C3F303130C4CE15C094B1B68CB401F
:100BD000074C236010BD00000010024000200240BE
:100BE0000000FFF8FFFFF6FE08ED00E000127A00BB
:100BF0000C00002000093D00100000203149014395
:100C0000314A1160704770B5002100230F22C4786B
:100C100004B32D4C246804F4E064C4F5E064210AB4
:100C2000C1F10403CA40447804FA03F18478144003
:100C300021430901254C0678A155047804F01F05CD
:100C40000124AC4005786D11AD0005F1E025C5F833
:100C5000004109E0047804F01F050124AC401C4D5C
:100C60000678761145F8264070BD1A4A0A400243BC
:100C7000154B1B1F1A60704739B1134A121D1268B9
:100C80000243114B1B1D1A6006E00F4A121D126829
:100C900082430D4B1B1D1A607047042808D14FF08A
:100CA000E021096941F004014FF0E022116107E001
:100CB0004FF0E021096921F004014FF0E0221161B9
:100CC000704700000000FA050CED00E000E400E0D1
:100CD00080E100E080FFFF1FDF48006840F0010076
:100CE000DD49086008464068DC490840DA49486048
:100CF00008460068DA490840D74908600846006895
:100D000020F4802008600846406820F4FE00486017
:100D10004FF41F0088607047CF49096821F4803183
:100D2000CD4A11601146096821F480211160B0F5A7
:100D3000803F03D0B0F5802F0ED106E0C649096888
:100D400041F48031C44A116007E0C349096841F4A5
:100D5000A021C14A116000E000BF00BF704710B57C
:100D600001460022002300204A11012A02D1BA4C78
:100D7000236806E0022A02D1B74C236A01E0B64C90
:100D8000636A01F01F02012494401C400CB1012051
:100D900000E0002010BD38B50020009000240025A0
:100DA00000BF3120FFF7DBFF05460098401C009094
:100DB0000098B0F5A06F01D0002DF2D03120FFF7E0
:100DC000CEFF08B1012400E00024204638BD0146D2
:100DD0000020A14A106820F0F80040EAC10010602D
:100DE0007047A04908607047024600209A4B586837
:100DF00020F47C1042EA01031843974B5860704777
:100E000098490866704701460020934A506820F0D0
:100E100003000843506070478F48406800F00C00A2
:100E20007047014600208C4A506820F0F0000843CB
:100E30005060704701460020874A506820F4E06007
:100E400008435060704701460020834A506820F4F0
:100E5000605040EAC1005060704729B17E4A527A22
:100E600002437D4B5A7204E07B4A527A82437A4BAA
:100E70005A7270477B49D83108607047014600209C
:100E8000754A506820F44040084350607047002184
:100E9000714A20321170704A82F82010012802D065
:100EA00004280AD104E001216B4A2032117005E0C8
:100EB0000521694A2032117000E000BF00BF704771
:100EC0006949086070476449096A0143624A1162CE
:100ED0007047654944390860704730B500210022E9
:100EE000002400235C4D6D6805F00C0121B104293C
:100EF00005D0082923D105E05C4D056022E05B4D5B
:100F000005601FE0544D6D6805F47012524D6D6818
:100F100005F48034022505EB92421CB9544D55432B
:100F200005600BE04C4D6D6805F400351DB1504D6A
:100F30005543056002E04D4D5543056002E04B4DC1
:100F4000056000BF00BF444D6D6805F0F001090960
:100F5000484D6B5C0568DD4045603F4D6D6805F4AC
:100F6000E061090A434D6B5C4568DD4085603A4DA0
:100F70006D6805F46051C90A3E4D6B5C4568DD4003
:100F8000C560354D6D6805F44041890B3A4D6B5C89
:100F9000C568B5FBF3F5056130BD29B12E4A52692C
:100FA00002432D4B5A6104E02B4A526982432A4B7B
:100FB0005A61704729B1284A92690243264B9A61C7
:100FC00004E0254A92698243234B9A61704729B114
:100FD000214AD2690243204BDA6104E01E4AD269F9
:100FE00082431D4BDA61704729B11B4AD268024324
:100FF000194BDA6004E0184AD2688243164BDA6073
:10100000704729B1144A12690243134B1A6104E074
:10101000114A12698243104B1A61704712494039D4
:10102000086070470F49C86470470B49C871704722
:101030000948406A40F0807007494862704701469D
:101040000020054A92680A400AB1012000E0002011
:101050007047014988727047001002400000FFF895
:10106000FFFFF6FE000042428004424200127A0076
:1010700000093D00200000203000002010B504468B
:10108000FB48844209D101218803FFF7ADFF00210D
:101090004FF48040FFF7A8FF32E0F648844209D1C0
:1010A00001214804FFF7ADFF00214FF40030FFF7A6
:1010B000A8FF25E0F048844209D101218804FFF708
:1010C000A0FF00214FF48020FFF79BFF18E0EB48C2
:1010D000844209D10121C804FFF793FF00214FF496
:1010E0000020FFF78EFF0BE0E548844208D1012184
:1010F0000805FFF786FF00214FF48010FFF781FFFE
:1011000010BD2DE9F04786B005460E460024A246E4
:1011100000BFA1460027B08900B100BF2F462C8A2E
:101120004CF6FF700440F08804432C82AC894EF6E4
:10113000F3100440B088318908437189084304439F
:10114000AC81AC8A4FF6FF400440B0890443AC82C6
:1011500001A8FFF7C2FEC648874202D1DDF810A001
:1011600001E0DDF80CA0A88900F4004040B10AEBD2
:10117000CA0000EB0A1031684900B0FBF1F807E043
:101180000AEBCA0000EB0A1031688900B0FBF1F8E5
:101190006420B8FBF0F004012009642101FB1089F0
:1011A000A88900F4004040B1322000EBC900B0FB38
:1011B000F1F000F00700044308E0322000EB0910D2
:1011C0006421B0FBF1F000F00F0004432C8106B065
:1011D000BDE8F0874FF41651016000218180C18085
:1011E00001810C21418100218181704710B50246A7
:1011F0000020108A4FF2FF0318400B884C882343CD
:101200008C882343CC8823431843108210BD0021CF
:10121000018041808180C180704721B1828942F480
:101220000052828104E082894DF6FF731A40828168
:101230007047F0B50346002400260025002040F644
:101240006A17B94200D100BF1846C1F3421401F039
:101250001F06012707FA06F5012C01D10C3004E026
:10126000022C01D1103000E014301AB107682F436E
:10127000076002E00768AF430760F0BD1AB1838AD8
:101280000B43838202E0838A8B4383827047028A06
:101290004FF6F0731A400282028A0A4302827047B4
:1012A00082894FF2FF731A40828182890A438281C8
:1012B000704721B1828942F00202828104E0828972
:1012C0004FF6FD731A4082817047028A4FF6DF7332
:1012D0001A400282028A0A430282704721B1028ABE
:1012E00042F48042028204E0028A4BF6FF731A4005
:1012F00002827047C1F308028280704701468888E5
:10130000C0F308007047818941F001018181704775
:10131000028BD2B20283028B42EA0122028370471F
:10132000028B02F47F420283028B0A4302837047DE
:1013300021B1828A42F02002828204E0828A4FF642
:10134000DF731A408282704721B1828A42F0100214
:10135000828204E0828A4FF6EF731A4082827047DD
:1013600021B1828A42F00802828204E0828A4FF62A
:10137000F7731A408282704721B1828942F4004299
:10138000828103E08289C2F30E028281704721B11B
:10139000828A42F40062828204E0828A4FF2FF7302
:1013A0001A4082827047828A4FF6FB731A4082820B
:1013B000828A0A438282704721B1828A42F0020205
:1013C000828204E0828A4FF6FD731A40828270475F
:1013D00002460020B1F5007F00D100BF13880B400A
:1013E0000BB1012000E00020704701F40072B2F55B
:1013F000007F00D100BFCA430280704770B502462B
:10140000002400230025002040F66A16B14200D1D6
:1014100000BFC1F3421501F01F03012606FA03F3D2
:10142000012D02D19689334006E0022D02D1168AA1
:10143000334001E0968A33400C12012606FA04F488
:101440001688344013B10CB1012000E0002070BDBB
:1014500010B50022002340F66A14A14200D100BF5B
:101460000A1201249440A3B2DC43048010BD0000A2
:10147000003801400044004000480040004C00405B
:101480000050004010B50446CC48844208D10121E8
:101490000420FFF7A9FD00210420FFF7A5FD46E089
:1014A000C748844208D101210820FFF79DFD002193
:1014B0000820FFF799FD3AE0C248844208D1012193
:1014C0001020FFF791FD00211020FFF78DFD2EE089
:1014D000BD48844208D101212020FFF785FD00216D
:1014E0002020FFF781FD22E0B848844208D1012185
:1014F0004020FFF779FD00214020FFF775FD16E041
:10150000B348844208D101218020FFF76DFD0021FE
:101510008020FFF769FD0AE0AE48844207D101212F
:101520008015FFF761FD0021A015FFF75DFD10BDDF
:1015300010B501210846FFF757FD00210120FFF7F4
:1015400053FD10BD2DE9F041024600250026002084
:1015500000230024002791F803C00CF00F0591F838
:1015600003C00CF0100CBCF1000F03D091F802C0C6
:101570004CEA050591F800C0BCF1000F31D01468A9
:1015800000202BE04FF0010C0CFA00F3B1F800C082
:101590000CEA03069E4220D183004FF00F0C0CFA98
:1015A00003F7BC4305FA03FC4CEA040491F803C0BA
:1015B000BCF1280F06D14FF0010C0CFA00FCC2F868
:1015C00014C00AE091F803C0BCF1480F05D14FF0F8
:1015D000010C0CFA00FCC2F810C0401C0828D1D342
:1015E0001460B1F800C0BCF1FF0F34DD5468002076
:1015F0002EE000F1080C4FF0010808FA0CF3B1F8E6
:1016000000C00CEA03069E4221D183004FF00F0C6C
:101610000CFA03F7BC4305FA03FC4CEA040491F806
:1016200003C0BCF1280F05D100F1080C08FA0CF832
:10163000C2F8148091F803C0BCF1480F07D100F143
:10164000080C4FF0010808FA0CF8C2F81080401C92
:101650000828CED35460BDE8F0814FF6FF710180B9
:10166000022181700421C1707047024600209368F6
:101670000B400BB1012000E0002070470146886854
:1016800080B2704702460020D3680B400BB10120A6
:1016900000E0002070470146C86880B270470161D1
:1016A0007047416170470AB1016100E041617047D4
:1016B000C16070474FF480320A4382618161826168
:1016C00082698269704702460020434B18684FF6D2
:1016D0008073184040EA021008433F4B186070477F
:1016E0003E49C8617047F0B50A4600230024002136
:1016F000002500F00046B6F1004F02D1364EF169E8
:1017000001E0354E7168C0F3034583B200F4401622
:10171000B6F5401F08D121F070612F4E766826F093
:1017200070662D4F7E6012E000F48016B6F5801FC3
:1017300006D1032606FA05F4A14341F0706106E0E4
:10174000460D360103FA06F6B14341F0706122B14D
:10175000460D360103FA06F6314300F00046B6F1B5
:10176000004F02D11C4EF16101E01B4E7160F0BDD3
:1017700030B500228B071C0F0F2303FA04F2164B1F
:1017800008338C1053F824309343134C08348D10D5
:1017900044F8253023468C1053F824308C07240F4E
:1017A00000FA04F423430C4C08348D1044F825301F
:1017B00030BD0A49DC310860704700000008014074
:1017C000000C0140001001400014014000180140CD
:1017D000001C0140002001400000014000002042A8
:1017E00010B50446FE48844208D10121C014FFF719
:1017F000FBFB0021E014FFF7F7FBC4E0B4F1804FDE
:1018000008D101210846FFF7FCFB00210120FFF76A
:10181000F8FBB8E0F348844208D101210220FFF729
:10182000F0FB00210220FFF7ECFBACE0EE48844225
:1018300008D101210420FFF7E4FB00210420FFF779
:10184000E0FBA0E0E948844208D101210820FFF72D
:10185000D8FB00210820FFF7D4FB94E0E448844241
:1018600008D101211020FFF7CCFB00211020FFF749
:10187000C8FB88E0DF48844208D101212020FFF71F
:10188000C0FB00212020FFF7BCFB7CE0DA4884424B
:1018900008D101214014FFF7A7FB00216014FFF7D6
:1018A000A3FB70E0D548844209D10121C804FFF7A9
:1018B0009BFB00214FF40020FFF796FB63E0D0482C
:1018C000844209D101210805FFF78EFB00214FF466
:1018D0008010FFF789FB56E0CA48844209D10121F4
:1018E0004805FFF781FB00214FF40010FFF77CFB58
:1018F00049E0C548844208D101214020FFF781FB1F
:1019000000214020FFF77DFB3DE0C048844208D124
:1019100001218020FFF775FB00218020FFF771FB7C
:1019200031E0BB48844208D101218015FFF769FBF3
:101930000021A015FFF765FB25E0B648844209D1D8
:1019400001210804FFF750FB00214FF48030FFF71E
:101950004BFB18E0B048844209D101214804FFF74D
:1019600043FB00214FF40030FFF73EFB0BE0AB4898
:10197000844208D101218804FFF736FB00214FF48F
:101980008020FFF731FB10BD00220288944B984263
:101990000ED0994B98420BD0B0F1804F08D0914BAC
:1019A000984205D0904B984202D0904B984204D177
:1019B0004FF68F731A404B881A438D4B984207D0CD
:1019C0008C4B984204D04FF6FF431A40CB881A4301
:1019D00002808B8883850B880385814B98420BD0CE
:1019E000854B984208D08B4B984205D08A4B984241
:1019F00002D08A4B984201D10B7A0386012383825D
:101A0000704770B5002400220023058C4FF6FE7647
:101A100035400584028C8388048B4FF68F752C40EB
:101A2000B51E2C400D882C43751E2A400D892A4373
:101A30004D882A436A4DA8420BD06F4DA84208D06A
:101A4000744DA84205D0744DA84202D0734DA842EF
:101A500013D14FF6F7752A404D892A434FF6FB758F
:101A60002A408D882A434FF6FF652B404FF6FF55DD
:101A70002B408D892B43CD892B4383800483CD88D4
:101A80008586028470BD70B5002400220023058C79
:101A90004FF6EF7635400584028C8388048B48F638
:101AA000FF752C404FF6FF452C400D884FF6FF7612
:101AB00006EA05252C434FF6DF752A400D8906EA14
:101AC00005152A434D8806EA05152A43444DA842C8
:101AD00002D0494DA8421DD14FF67F752A404D894D
:101AE0004FF6FF7606EA05152A434FF6BF752A40E2
:101AF0008D8806EA05152A434FF6FF352B404FF235
:101B0000FF752B408D8906EA85052B43CD8906EAB2
:101B100085052B4383800483CD880587028470BDAF
:101B200070B5002400220023058C4FF6FF66354077
:101B30000584028C8388848B4FF68F752C404FF67A
:101B4000FC752C400D882C434FF6FF552A400D891B
:101B50004FF6FF7606EA05252A434D8806EA052555
:101B60002A431F4DA84202D0234DA8421DD14FF257
:101B7000FF752A404D894FF6FF7606EA05252A4370
:101B80004FF6FF352A408D8806EA05252A434EF692
:101B9000FF752B404DF6FF752B408D8906EA051524
:101BA0002B43CD8906EA05152B4383808483CD889A
:101BB0008587028470BD70B5002200230024058C47
:101BC0004EF6FF7635400584038C8488828B48F678
:101BD000FF752A404FF6FF452A400D8820E000009F
:101BE000002C01400004004000080040000C0040B0
:101BF000001000400014004000340140004C01403F
:101C0000005001400054014000180040001C0040FA
:101C100000200040004001400044014000480140D5
:101C20004FF6FF7606EA05252A434DF6FF752B4051
:101C30000D8906EA05352B434D8806EA05352B4309
:101C4000FA4DA84202D0FA4DA84208D14BF6FF75D2
:101C50002C408D894FF6FF7606EA85152C4384804B
:101C60008283CD88A0F84050038470BD828B4FF2F0
:101C7000FF331A408283828B4FF6FF7303EA0123FE
:101C80001A4382837047F0B50C46154600220021A6
:101C90000026078C4EF6FF7C07EA0C070784828B30
:101CA000018C4FF6FF7707EA043640F6FF473A40CB
:101CB0004FF6FF7707EA05273A434FF6FF7707EA23
:101CC00003373A43D94FB8420ED0D94FB8420BD060
:101CD000B0F1804F08D0D74FB84205D0D64FB842A8
:101CE00002D0D64FB84206D14DF6FF77394046F4C0
:101CF0008057394305E047F6FF57394044F4805791
:101D0000394382830184F0BD828B4FF6F3731A400E
:101D10008283828B0A4382837047F0B50C46154656
:101D2000002200210026078C4FF6FF6C07EA0C0703
:101D30000784828B018C4FF6FF7707EA04264FF663
:101D40000C773A404FF6FF7707EA03172F433A43E1
:101D5000B64FB8420ED0B64FB8420BD0B0F1804F5C
:101D600008D0B44FB84205D0B34FB84202D0B34FF9
:101D7000B84206D14FF6FF57394046F480773943D1
:101D800005E04FF2FF57394044F4807739438283AE
:101D90000184F0BD028B4FF2FF331A400283028BA5
:101DA0004FF6FF7303EA01231A4302837047F0B52D
:101DB0000C461546002200210026078C4FF6EF7CCA
:101DC00007EA0C070784028B018C4FF6FF7707EABE
:101DD000041640F6FF473A404FF6FF7707EA03370D
:101DE0003A434FF6FF7707EA05273A438F4FB84249
:101DF0000ED08F4FB8420BD0B0F1804F08D08D4F2E
:101E0000B84205D08C4FB84202D08C4FB84206D1B0
:101E10004FF6DF77394046F01007394305E04FF6BB
:101E20005F77394044F01007394302830184F0BDE5
:101E3000028B4FF6F3731A400283028B0A4302832C
:101E40007047F0B50C46154600220021068C4FF66F
:101E5000FE773E400684028B018C4FF60C763240B2
:101E60007E1C06EA03162E433243704EB0420ED05B
:101E70006F4EB0420BD0B0F1804F08D06D4EB042E3
:101E800005D06D4EB04202D06C4EB04206D14FF636
:101E9000FD76314044F00106314305E04FF6F5761A
:101EA000314044F00106314302830184F0BD70B536
:101EB00005460C465D4885420ED05D4885420BD0F4
:101EC000B5F1804F08D05B48854205D05A4885421D
:101ED00002D05A48854200D100E000BF208850B9A6
:101EE0002389A28861882846FFF7ABFFE18828464E
:101EF000FFF79EFF25E0208804280AD12389A288C5
:101F000061882846FFF753FFE1882846FFF742FF24
:101F100017E0208808280AD12389A28861882846EA
:101F2000FFF7FBFEE1882846FFF7EEFE09E0238974
:101F3000A28861882846FFF7A6FEE1882846FFF7B9
:101F400095FE70BD2DE9F04105460C46002601279F
:101F5000608808B9022600E00026A088012801D187
:101F6000022700E001272088A0B92389A288618880
:101F70002846FFF766FFE1882846FFF759FF2389C7
:101F80003A4631462846FFF712FFE1882846FFF718
:101F900001FF13E02389A28861882846FFF707FF25
:101FA000E1882846FFF7F6FE23893A46314628465F
:101FB000FFF747FFE1882846FFF73AFFBDE8F081C9
:101FC0000A884B881A438B881A43CB881A430B899B
:101FD0001A434B891A438B891A43A0F8442070474F
:101FE0004FF6FF71818000210180C1804180017224
:101FF00070470021018041808180C1800181418141
:102000008181C1817047002101804180012181804F
:102010000021C180018170470021018041808180C1
:10202000C18001814181818170470000002C014005
:10203000003401400004004000080040000C004053
:1020400021B1028842F00102028004E002884FF6CA
:10205000FE731A400280704731B1B0F8442042F458
:102060000042A0F8442005E0B0F84420C2F30E027C
:10207000A0F8442070471AB183890B43838102E0A2
:1020800083898B43838170478182704741EA0203D1
:10209000A0F8483070471AB183890B43838102E06E
:1020A00083898B438381704701894FF6F872114011
:1020B000018170470A46002101894FF68F7319404C
:1020C00011430181704730B504460D46294620462C
:1020D000FFF7F0FF208940F00700208130BD2DE997
:1020E000F04104460D4616461F46602D06D13B467C
:1020F000012231462046FFF75AFE05E03B46012209
:1021000031462046FFF79DFE29462046FFF7D2FFC5
:10211000208940F007002081BDE8F08130B50C46F1
:1021200000210189C9B24FF6FF7505EA0325154361
:1021300025432943018130BD2DE9F04105460E4676
:1021400017469846002443463A4631462846FFF74C
:10215000E5FF2C894FF6F870044044F007044FF671
:102160008F70044044F070042C81BDE8F081F0B51C
:1021700004460D4616461F463B4632462946204633
:10218000FFF7CCFF208940F480402081F0BD01851D
:10219000828270470A46002101884FF68F731940EA
:1021A000114301807047F0B50C4615461E460021CC
:1021B000002200230189028B038C4FF6F877394007
:1021C00021434FF6FC473A4040F201173A434FF69D
:1021D000DD773B404FF6FF7707EA06172F433B4377
:1021E000018102830384F0BD0A460021018B4FF672
:1021F0008F7319401143018370470A460021018BF8
:1022000048F6FF7319404FF6FF7303EA02231943A0
:10221000018370470A460021818B4FF68F73194066
:102220001143818370470A460021818B48F6FF7372
:1022300019404FF6FF7303EA022319438183704765
:1022400021B1028842F08002028004E002884FF649
:102250007F731A400280704721B1828842F00402E5
:10226000828004E082884FF6FB731A4082807047B8
:1022700021B1828842F00802828004E082884FF611
:10228000F7731A408280704721B1828842F00102C0
:10229000828004E082884FF6FE731A408280704785
:1022A0000A460021018B4FF6F77319401143018351
:1022B00070470A460021018B4FF2FF7319404FF619
:1022C000FF7303EA02231943018370470A46002182
:1022D000818B4FF6F77319401143818370470A468B
:1022E0000021818B4FF2FF7319404FF6FF7303EA11
:1022F00002231943818370470A460021018B4FF660
:10230000FB7319401143018370470A460021018B7A
:102310004FF6FF3319404FF6FF7303EA02231943C8
:10232000018370470A460021818B4FF6FB731940E9
:102330001143818370470A460021818B4FF6FF339A
:1023400019404FF6FF7303EA022319438183704754
:102350000A460021018B4FF67F7319401143018318
:1023600070470A460021018BC1F30E014FF6FF733F
:1023700003EA02231943018370470A460021818B37
:102380004FF67F7319401143818370470A4600213D
:10239000818BC1F30E014FF6FF7303EA0223194349
:1023A000818370470A460021018C4FF6FD73194066
:1023B0001143018470470A460021018C4FF6F773E0
:1023C00019401143018470470A460021018C4FF6E1
:1023D000DF7319404FF6FF7303EA021319430184B8
:1023E00070470A460021018C4FF67F7319404FF663
:1023F000FF7303EA02131943018470470A46002160
:10240000018C4FF6FF5319404FF6FF7303EA022386
:102410001943018470470A460021018C4FF2FF7373
:1024200019404FF6FF7303EA0223194301847047F2
:102430000A460021018C4DF6FF7319404FF6FF73D9
:1024400003EA023319430184704730B500230124A5
:102450008C40A3B2048C9C430484048C02FA01F5E2
:10246000ADB22C43048430BD30B5002304248C402D
:10247000A3B2048C9C430484048C02FA01F5ADB22F
:102480002C43048430BD70B5034600200024184658
:10249000183001258D40ACB21D8CA5431D8409B1B7
:1024A000082909D100EB6100056825F07005056079
:1024B0000568154305600EE00D1FC5F34E05284461
:1024C000056825F4E045056005684FF6FF7606EAE5
:1024D00002263543056070BD21B1028842F0020238
:1024E000028004E002884FF6FD731A4002807047B4
:1024F00021B1028842F00402028004E002884FF613
:10250000FB731A400280704721B1828842F080023A
:10251000828004E082884FF67F731A408280704781
:1025200002884FF6F7731A40028002880A4302803D
:10253000704782884FF68F731A40828082880A43E0
:102540008280704702894FF6F8731A40028102892F
:102550000A430281704702894FF67F731A40028155
:1025600002890A43028170478184704781857047E0
:10257000818670470187704781877047A0F84010B7
:10258000704702884FF6FF431A40028002880A43D0
:10259000028070470146888E70470146088F704759
:1025A0000146888F70470146B1F8400070470146E8
:1025B000888C70470146088D704702460020138AB8
:1025C0000B400BB1012000E000207047CA4302829B
:1025D000704730B50246002000230024158A05EA22
:1025E0000103958905EA010413B10CB1012000E053
:1025F000002030BDCA4302827047000001684FF6D8
:10260000FE72114001600021016041608160C16083
:102610008D49884208D18C490839496841F00F0139
:10262000894A083A51608AE087491431884208D1C2
:1026300085490839496841F0F001834A083A5160F8
:102640007DE081492831884208D17F4908394968AD
:1026500041F470617C4A083A516070E07A493C313B
:10266000884208D178490839496841F47041764A6E
:10267000083A516063E074495031884208D1724988
:102680000839496841F470216F4A083A516056E0B0
:102690006D496431884208D16B490839496841F471
:1026A0007001694A083A516049E0674978318842C7
:1026B00008D165490839496841F07061624A083AB1
:1026C00051603CE06149884206D1011F096841F030
:1026D0000F01021F116032E05C491431884208D1B9
:1026E0005A49091F096841F0F001584A121F116048
:1026F00025E056492831884208D15449091F096804
:1027000041F47061514A121F116018E04F493C3189
:10271000884208D14D49091F096841F470414B4A6C
:10272000121F11600BE049495031884207D14749D7
:10273000091F096841F47021444A121F1160704753
:1027400010B50022026847F6F0739A430C6A8B6852
:1027500023430C6923434C6923438C692343CC698D
:1027600023434C6A23438C6A23431A430260CB6899
:1027700043600B6883604B68C36010BD002101603B
:1027800041608160C160016141618161C16101623B
:1027900041628162704721B1026842F00102026029
:1027A00004E002684FF6FE731A40026070471AB1E7
:1027B00003680B43036002E003688B4303607047C8
:1027C000416070470146486880B27047014600206A
:1027D000002201F080531BB11C4B083B1A6802E039
:1027E000194B083B1A6802EA01030BB1012000E013
:1027F0000020704700F0805119B11449091F08608A
:1028000002E0114908394860704701460020002263
:1028100001F080531BB10D4B083B1A6802E00A4BD4
:10282000083B1A6802EA01030BB1012000E0002016
:10283000704700F0805119B10449091F086002E097
:102840000149083948607047080002400804024006
:102850000648804706480047FEE7FEE7FEE7FEE73A
:10286000FEE7FEE7FEE7FEE7FEE7FEE7FB0A0008FD
:102870003101000840EA01039B0703D009E008C9C1
:10288000121F08C0042AFAD203E011F8013B00F835
:10289000013B521EF9D27047D2B201E000F8012B81
:1028A000491EFBD270470022F6E710B513460A46D0
:1028B00004461946FFF7F0FF204610BD30B5044628
:1028C0000020034600E05B1C934203D2E05CCD5C39
:1028D000401BF8D030BD30B50B4601460020202209
:1028E000012409E021FA02F59D4205D303FA02F51D
:1028F000491B04FA02F52844151EA2F10102F1DC7D
:1029000030BD0000064C074D06E0E06840F00103D2
:1029100094E8070098471034AC42F6D3FDF70CFC5E
:10292000BC2A0008DC2A00080FB4054B10B503A927
:10293000044A029800F018F810BC5DF814FB00007F
:102940003B0500083400002002E008C8121F08C13F
:10295000002AFAD170477047002001E001C1121F20
:10296000002AFBD1704700002DE9FF4F89B09B463C
:102970000446002506E025280BD05A460B999047BF
:10298000641C6D1C20780028F5D10DB02846BDE8E8
:10299000F08F0027B8460122474900E0074314F8AA
:1029A000013F203B02FA03F00842F7D120782E289D
:1029B00019D114F8010F47F004072A280ED06FF040
:1029C0002F022078A0F1300109290CD808EB8801EA
:1029D00002EB410100EB0108641CF2E70A98641C59
:1029E00050F8048B0A9020780028CED0642808D0B4
:1029F000692806D075281ED05A460B9990476D1C41
:102A000058E00A994FF00A0901C90A91002802DA30
:102A100040422D2102E0390504D52B218DF82010EC
:102A2000012103E0F90704D02021F7E78A4608AE28
:102A30000DE00021FAE70A994FF00A0901C90A914D
:102A4000F7E74946FFF747FF303106F8011D002838
:102A5000F7D1ADEB060000F12009780701D44FF063
:102A60000108C84502DDA8EB090000E0002080460F
:102A7000002706E008A85A46C05D0B9990476D1CD8
:102A80007F1C5745F6DB04E030205A460B999047EF
:102A90006D1CB8F10001A8F10108F5DC05E016F89D
:102AA000010B5A460B9990476D1CB9F10001A9F131
:102AB0000109F4DC641C65E709280100DC2A000830
:102AC000000000203800000048290008142B0008EE
:102AD00038000020C812000058290008000000003B
:102AE000000000000000000000A24A0400000000F6
:102AF00000000000010203040607080900000000AE
:102B0000010203040102030406070809020406087F
:042B100000000000C1
:0400000508000131BD
:00000001FF
