Component: ARM Compiler 5.05 update 1 (build 106) Tool: armlink [4d0efa]

==============================================================================

Section Cross References

    main.o(.text) refers to system.o(.text) for NVIC_Configuration
    main.o(.text) refers to usart.o(.text) for uart_init
    main.o(.text) refers to gpio.o(.text) for GpioInit
    main.o(.text) refers to delay.o(.text) for DelayInit
    main.o(.text) refers to sha1.o(.text) for mbedtls_sha1_init
    main.o(.text) refers to printf8.o(i.__0printf$8) for __2printf
    main.o(.text) refers to main.o(.bss) for sha1_ctx
    main.o(.text) refers to main.o(.data) for encrypt
    system.o(.text) refers to misc.o(.text) for NVIC_PriorityGroupConfig
    delay.o(.text) refers to misc.o(.text) for SysTick_CLKSourceConfig
    delay.o(.text) refers to system_stm32f10x.o(.data) for SystemCoreClock
    delay.o(.text) refers to delay.o(.data) for SysTickCntMs
    delay.o(.text) refers to usart.o(.data) for Usart1ReadCnt
    usart.o(.text) refers to stm32f10x_rcc.o(.text) for RCC_APB2PeriphClockCmd
    usart.o(.text) refers to stm32f10x_gpio.o(.text) for GPIO_Init
    usart.o(.text) refers to stm32f10x_usart.o(.text) for USART_Init
    usart.o(.text) refers to usart.o(.bss) for Usart1ReadBuff
    usart.o(.text) refers to usart.o(.data) for Usart1ReadCnt
==============================================================================

Removing Unused input sections from the image.

    Removing stm32f10x_it.o(.rev16_text), (4 bytes).
    Removing stm32f10x_it.o(.revsh_text), (4 bytes).
    Removing main.o(.rev16_text), (4 bytes).
    Removing main.o(.revsh_text), (4 bytes).
    Removing system.o(.rev16_text), (4 bytes).
    Removing system.o(.revsh_text), (4 bytes).
    Removing delay.o(.rev16_text), (4 bytes).
    Removing delay.o(.revsh_text), (4 bytes).
    Removing usart.o(.rev16_text), (4 bytes).
    Removing usart.o(.revsh_text), (4 bytes).
    Removing gpio.o(.rev16_text), (4 bytes).
    Removing gpio.o(.revsh_text), (4 bytes).
    Removing core_cm3.o(.emb_text), (32 bytes).
    Removing misc.o(.rev16_text), (4 bytes).
    Removing misc.o(.revsh_text), (4 bytes).
    Removing stm32f10x_rcc.o(.rev16_text), (4 bytes).
    Removing stm32f10x_rcc.o(.revsh_text), (4 bytes).
    Removing stm32f10x_usart.o(.rev16_text), (4 bytes).
==============================================================================

Image Symbol Table

    Local Symbols

    Symbol Name                              Value     Ov Type        Size  Object(Section)

    ../clib/microlib/division.c              0x00000000   Number         0  uldiv.o ABSOLUTE
    ../clib/microlib/division.c              0x00000000   Number         0  uidiv.o ABSOLUTE
    ../clib/microlib/init/entry.s            0x00000000   Number         0  entry5.o ABSOLUTE
    ../clib/microlib/init/entry.s            0x00000000   Number         0  entry.o ABSOLUTE
    ../clib/microlib/init/entry.s            0x00000000   Number         0  entry9b.o ABSOLUTE
    ../clib/microlib/init/entry.s            0x00000000   Number         0  entry2.o ABSOLUTE
    ../clib/microlib/init/entry.s            0x00000000   Number         0  entry11a.o ABSOLUTE
    ../clib/microlib/init/entry.s            0x00000000   Number         0  entry9a.o ABSOLUTE
    ../clib/microlib/init/entry.s            0x00000000   Number         0  entry8b.o ABSOLUTE
    ../clib/microlib/init/entry.s            0x00000000   Number         0  entry8a.o ABSOLUTE
    ../clib/microlib/init/entry.s            0x00000000   Number         0  entry10a.o ABSOLUTE
    ../clib/microlib/init/entry.s            0x00000000   Number         0  entry7b.o ABSOLUTE
    ../clib/microlib/init/entry.s            0x00000000   Number         0  entry7a.o ABSOLUTE
    ../clib/microlib/init/entry.s            0x00000000   Number         0  entry10b.o ABSOLUTE
    ../clib/microlib/init/entry.s            0x00000000   Number         0  entry11b.o ABSOLUTE
    ../clib/microlib/longlong.c              0x00000000   Number         0  llsshr.o ABSOLUTE
    ../clib/microlib/longlong.c              0x00000000   Number         0  llushr.o ABSOLUTE
    ../clib/microlib/longlong.c              0x00000000   Number         0  llshl.o ABSOLUTE
    ../clib/microlib/printf/printf.c         0x00000000   Number         0  printf6.o ABSOLUTE
    ../clib/microlib/printf/printf.c         0x00000000   Number         0  printfa.o ABSOLUTE
    ../clib/microlib/printf/printf.c         0x00000000   Number         0  printf8.o ABSOLUTE
    ../clib/microlib/printf/printf.c         0x00000000   Number         0  printf7.o ABSOLUTE
    ../clib/microlib/printf/printf.c         0x00000000   Number         0  printf5.o ABSOLUTE
    ../clib/microlib/printf/printf.c         0x00000000   Number         0  printf4.o ABSOLUTE
    ../clib/microlib/printf/printf.c         0x00000000   Number         0  printf0.o ABSOLUTE
    ../clib/microlib/printf/printf.c         0x00000000   Number         0  printf3.o ABSOLUTE
    ../clib/microlib/printf/printf.c         0x00000000   Number         0  printfb.o ABSOLUTE
    ../clib/microlib/printf/printf.c         0x00000000   Number         0  printf2.o ABSOLUTE
    ../clib/microlib/printf/printf.c         0x00000000   Number         0  printf1.o ABSOLUTE
    ../clib/microlib/printf/stubs.s          0x00000000   Number         0  stubs.o ABSOLUTE
    ../clib/microlib/stdio/streams.c         0x00000000   Number         0  stdout.o ABSOLUTE
    ../clib/microlib/string/memcpy.c         0x00000000   Number         0  memcpyb.o ABSOLUTE
    ../clib/microlib/string/memcpy.c         0x00000000   Number         0  memcpya.o ABSOLUTE
    ../clib/microlib/string/memset.c         0x00000000   Number         0  memset.o ABSOLUTE
    ../clib/microlib/string/memset.c         0x00000000   Number         0  memseta.o ABSOLUTE
    ../clib/microlib/stubs.s                 0x00000000   Number         0  iusefp.o ABSOLUTE
    ../fplib/microlib/fpadd.c                0x00000000   Number         0  dadd.o ABSOLUTE
    ../fplib/microlib/fpdiv.c                0x00000000   Number         0  ddiv.o ABSOLUTE
    ../fplib/microlib/fpepilogue.c           0x00000000   Number         0  depilogue.o ABSOLUTE
    ../fplib/microlib/fpfix.c                0x00000000   Number         0  dfixul.o ABSOLUTE
    ../fplib/microlib/fpmul.c                0x00000000   Number         0  dmul.o ABSOLUTE
    ..\CMSIS\core_cm3.c                      0x00000000   Number         0  core_cm3.o ABSOLUTE
    ..\CMSIS\system_stm32f10x.c              0x00000000   Number         0  system_stm32f10x.o ABSOLUTE
    ..\Libraries\src\misc.c                  0x00000000   Number         0  misc.o ABSOLUTE
    ..\Libraries\src\stm32f10x_flash.c       0x00000000   Number         0  stm32f10x_flash.o ABSOLUTE
    ..\Libraries\src\stm32f10x_gpio.c        0x00000000   Number         0  stm32f10x_gpio.o ABSOLUTE
    ..\Libraries\src\stm32f10x_rcc.c         0x00000000   Number         0  stm32f10x_rcc.o ABSOLUTE
    ..\Libraries\src\stm32f10x_usart.c       0x00000000   Number         0  stm32f10x_usart.o ABSOLUTE
    ..\Startup\startup_stm32f10x_hd.s        0x00000000   Number         0  startup_stm32f10x_hd.o ABSOLUTE
    ..\User\System.c                         0x00000000   Number         0  system.o ABSOLUTE
    ..\User\delay.c                          0x00000000   Number         0  delay.o ABSOLUTE
    ..\User\gpio.c                           0x00000000   Number         0  gpio.o ABSOLUTE
    ..\User\main.c                           0x00000000   Number         0  main.o ABSOLUTE
    ..\User\stm32f10x_it.c                   0x00000000   Number         0  stm32f10x_it.o ABSOLUTE
    ..\User\usart.c                          0x00000000   Number         0  usart.o ABSOLUTE
    ..\\CMSIS\\core_cm3.c                    0x00000000   Number         0  core_cm3.o ABSOLUTE
    ..\\Libraries\\src\\misc.c               0x00000000   Number         0  misc.o ABSOLUTE
    ..\\Libraries\\src\\stm32f10x_flash.c    0x00000000   Number         0  stm32f10x_flash.o ABSOLUTE
    ..\\Libraries\\src\\stm32f10x_gpio.c     0x00000000   Number         0  stm32f10x_gpio.o ABSOLUTE
    ..\\Libraries\\src\\stm32f10x_rcc.c      0x00000000   Number         0  stm32f10x_rcc.o ABSOLUTE
    ..\\Libraries\\src\\stm32f10x_usart.c    0x00000000   Number         0  stm32f10x_usart.o ABSOLUTE
    ..\\User\\System.c                       0x00000000   Number         0  system.o ABSOLUTE
    ..\\User\\delay.c                        0x00000000   Number         0  delay.o ABSOLUTE
    ..\\User\\gpio.c                         0x00000000   Number         0  gpio.o ABSOLUTE
    ..\\User\\main.c                         0x00000000   Number         0  main.o ABSOLUTE
    ..\\User\\stm32f10x_it.c                 0x00000000   Number         0  stm32f10x_it.o ABSOLUTE
    ..\\User\\usart.c                        0x00000000   Number         0  usart.o ABSOLUTE
    E:\MDK5\ARM\PACK\ARM\mbedTLS\1.6.0\MDK\library\entropy_poll_hw.c 0x00000000   Number         0  entropy_poll_hw.o ABSOLUTE
    E:\MDK5\ARM\PACK\ARM\mbedTLS\1.6.0\MDK\library\iot_socket\net_sockets.c 0x00000000   Number         0  net_sockets.o ABSOLUTE
    E:\MDK5\ARM\PACK\ARM\mbedTLS\1.6.0\MDK\library\mw_network\net_sockets.c 0x00000000   Number         0  net_sockets_1.o ABSOLUTE
    E:\MDK5\ARM\PACK\ARM\mbedTLS\1.6.0\library\aes.c 0x00000000   Number         0  aes.o ABSOLUTE
    E:\MDK5\ARM\PACK\ARM\mbedTLS\1.6.0\library\arc4.c 0x00000000   Number         0  arc4.o ABSOLUTE
    E:\MDK5\ARM\PACK\ARM\mbedTLS\1.6.0\library\aria.c 0x00000000   Number         0  aria.o ABSOLUTE
    E:\MDK5\ARM\PACK\ARM\mbedTLS\1.6.0\library\asn1parse.c 0x00000000   Number         0  asn1parse.o ABSOLUTE
    E:\MDK5\ARM\PACK\ARM\mbedTLS\1.6.0\library\asn1write.c 0x00000000   Number         0  asn1write.o ABSOLUTE
    E:\MDK5\ARM\PACK\ARM\mbedTLS\1.6.0\library\base64.c 0x00000000   Number         0  base64.o ABSOLUTE
    E:\MDK5\ARM\PACK\ARM\mbedTLS\1.6.0\library\bignum.c 0x00000000   Number         0  bignum.o ABSOLUTE
    E:\MDK5\ARM\PACK\ARM\mbedTLS\1.6.0\library\blowfish.c 0x00000000   Number         0  blowfish.o ABSOLUTE
    E:\MDK5\ARM\PACK\ARM\mbedTLS\1.6.0\library\camellia.c 0x00000000   Number         0  camellia.o ABSOLUTE
    E:\MDK5\ARM\PACK\ARM\mbedTLS\1.6.0\library\ccm.c 0x00000000   Number         0  ccm.o ABSOLUTE
    E:\MDK5\ARM\PACK\ARM\mbedTLS\1.6.0\library\certs.c 0x00000000   Number         0  certs.o ABSOLUTE
    E:\MDK5\ARM\PACK\ARM\mbedTLS\1.6.0\library\chacha20.c 0x00000000   Number         0  chacha20.o ABSOLUTE
    E:\MDK5\ARM\PACK\ARM\mbedTLS\1.6.0\library\chachapoly.c 0x00000000   Number         0  chachapoly.o ABSOLUTE
    E:\MDK5\ARM\PACK\ARM\mbedTLS\1.6.0\library\cipher.c 0x00000000   Number         0  cipher.o ABSOLUTE
    E:\MDK5\ARM\PACK\ARM\mbedTLS\1.6.0\library\cipher_wrap.c 0x00000000   Number         0  cipher_wrap.o ABSOLUTE
    E:\MDK5\ARM\PACK\ARM\mbedTLS\1.6.0\library\cmac.c 0x00000000   Number         0  cmac.o ABSOLUTE
    E:\MDK5\ARM\PACK\ARM\mbedTLS\1.6.0\library\ctr_drbg.c 0x00000000   Number         0  ctr_drbg.o ABSOLUTE
    E:\MDK5\ARM\PACK\ARM\mbedTLS\1.6.0\library\debug.c 0x00000000   Number         0  debug.o ABSOLUTE
    E:\MDK5\ARM\PACK\ARM\mbedTLS\1.6.0\library\des.c 0x00000000   Number         0  des.o ABSOLUTE
    E:\MDK5\ARM\PACK\ARM\mbedTLS\1.6.0\library\dhm.c 0x00000000   Number         0  dhm.o ABSOLUTE
    E:\MDK5\ARM\PACK\ARM\mbedTLS\1.6.0\library\ecdh.c 0x00000000   Number         0  ecdh.o ABSOLUTE
    E:\MDK5\ARM\PACK\ARM\mbedTLS\1.6.0\library\ecdsa.c 0x00000000   Number         0  ecdsa.o ABSOLUTE
    E:\MDK5\ARM\PACK\ARM\mbedTLS\1.6.0\library\ecjpake.c 0x00000000   Number         0  ecjpake.o ABSOLUTE
    E:\MDK5\ARM\PACK\ARM\mbedTLS\1.6.0\library\ecp.c 0x00000000   Number         0  ecp.o ABSOLUTE
    E:\MDK5\ARM\PACK\ARM\mbedTLS\1.6.0\library\ecp_curves.c 0x00000000   Number         0  ecp_curves.o ABSOLUTE
    E:\MDK5\ARM\PACK\ARM\mbedTLS\1.6.0\library\entropy.c 0x00000000   Number         0  entropy.o ABSOLUTE
    E:\MDK5\ARM\PACK\ARM\mbedTLS\1.6.0\library\entropy_poll.c 0x00000000   Number         0  entropy_poll.o ABSOLUTE
    E:\MDK5\ARM\PACK\ARM\mbedTLS\1.6.0\library\error.c 0x00000000   Number         0  error.o ABSOLUTE
    E:\MDK5\ARM\PACK\ARM\mbedTLS\1.6.0\library\gcm.c 0x00000000   Number         0  gcm.o ABSOLUTE
    E:\MDK5\ARM\PACK\ARM\mbedTLS\1.6.0\library\havege.c 0x00000000   Number         0  havege.o ABSOLUTE
    E:\MDK5\ARM\PACK\ARM\mbedTLS\1.6.0\library\hkdf.c 0x00000000   Number         0  hkdf.o ABSOLUTE
    E:\MDK5\ARM\PACK\ARM\mbedTLS\1.6.0\library\hmac_drbg.c 0x00000000   Number         0  hmac_drbg.o ABSOLUTE
    E:\MDK5\ARM\PACK\ARM\mbedTLS\1.6.0\library\md.c 0x00000000   Number         0  md.o ABSOLUTE
    E:\MDK5\ARM\PACK\ARM\mbedTLS\1.6.0\library\md2.c 0x00000000   Number         0  md2.o ABSOLUTE
    E:\MDK5\ARM\PACK\ARM\mbedTLS\1.6.0\library\md4.c 0x00000000   Number         0  md4.o ABSOLUTE
    E:\MDK5\ARM\PACK\ARM\mbedTLS\1.6.0\library\md5.c 0x00000000   Number         0  md5.o ABSOLUTE
    E:\MDK5\ARM\PACK\ARM\mbedTLS\1.6.0\library\md_wrap.c 0x00000000   Number         0  md_wrap.o ABSOLUTE
    E:\MDK5\ARM\PACK\ARM\mbedTLS\1.6.0\library\memory_buffer_alloc.c 0x00000000   Number         0  memory_buffer_alloc.o ABSOLUTE
    E:\MDK5\ARM\PACK\ARM\mbedTLS\1.6.0\library\net_sockets.c 0x00000000   Number         0  net_sockets_2.o ABSOLUTE
    E:\MDK5\ARM\PACK\ARM\mbedTLS\1.6.0\library\nist_kw.c 0x00000000   Number         0  nist_kw.o ABSOLUTE
    E:\MDK5\ARM\PACK\ARM\mbedTLS\1.6.0\library\oid.c 0x00000000   Number         0  oid.o ABSOLUTE
    E:\MDK5\ARM\PACK\ARM\mbedTLS\1.6.0\library\pem.c 0x00000000   Number         0  pem.o ABSOLUTE
    E:\MDK5\ARM\PACK\ARM\mbedTLS\1.6.0\library\pk.c 0x00000000   Number         0  pk.o ABSOLUTE
    E:\MDK5\ARM\PACK\ARM\mbedTLS\1.6.0\library\pk_wrap.c 0x00000000   Number         0  pk_wrap.o ABSOLUTE
    E:\MDK5\ARM\PACK\ARM\mbedTLS\1.6.0\library\pkcs11.c 0x00000000   Number         0  pkcs11.o ABSOLUTE
    E:\MDK5\ARM\PACK\ARM\mbedTLS\1.6.0\library\pkcs12.c 0x00000000   Number         0  pkcs12.o ABSOLUTE
    E:\MDK5\ARM\PACK\ARM\mbedTLS\1.6.0\library\pkcs5.c 0x00000000   Number         0  pkcs5.o ABSOLUTE
    E:\MDK5\ARM\PACK\ARM\mbedTLS\1.6.0\library\pkparse.c 0x00000000   Number         0  pkparse.o ABSOLUTE
    E:\MDK5\ARM\PACK\ARM\mbedTLS\1.6.0\library\pkwrite.c 0x00000000   Number         0  pkwrite.o ABSOLUTE
    E:\MDK5\ARM\PACK\ARM\mbedTLS\1.6.0\library\platform.c 0x00000000   Number         0  platform.o ABSOLUTE
    E:\MDK5\ARM\PACK\ARM\mbedTLS\1.6.0\library\platform_util.c 0x00000000   Number         0  platform_util.o ABSOLUTE
    E:\MDK5\ARM\PACK\ARM\mbedTLS\1.6.0\library\poly1305.c 0x00000000   Number         0  poly1305.o ABSOLUTE
    E:\MDK5\ARM\PACK\ARM\mbedTLS\1.6.0\library\ripemd160.c 0x00000000   Number         0  ripemd160.o ABSOLUTE
    E:\MDK5\ARM\PACK\ARM\mbedTLS\1.6.0\library\rsa.c 0x00000000   Number         0  rsa.o ABSOLUTE
    E:\MDK5\ARM\PACK\ARM\mbedTLS\1.6.0\library\rsa_internal.c 0x00000000   Number         0  rsa_internal.o ABSOLUTE
    E:\MDK5\ARM\PACK\ARM\mbedTLS\1.6.0\library\sha1.c 0x00000000   Number         0  sha1.o ABSOLUTE
    E:\MDK5\ARM\PACK\ARM\mbedTLS\1.6.0\library\sha256.c 0x00000000   Number         0  sha256.o ABSOLUTE
    E:\MDK5\ARM\PACK\ARM\mbedTLS\1.6.0\library\sha512.c 0x00000000   Number         0  sha512.o ABSOLUTE
    E:\MDK5\ARM\PACK\ARM\mbedTLS\1.6.0\library\ssl_cache.c 0x00000000   Number         0  ssl_cache.o ABSOLUTE
    E:\MDK5\ARM\PACK\ARM\mbedTLS\1.6.0\library\ssl_ciphersuites.c 0x00000000   Number         0  ssl_ciphersuites.o ABSOLUTE
    E:\MDK5\ARM\PACK\ARM\mbedTLS\1.6.0\library\ssl_cli.c 0x00000000   Number         0  ssl_cli.o ABSOLUTE
    E:\MDK5\ARM\PACK\ARM\mbedTLS\1.6.0\library\ssl_cookie.c 0x00000000   Number         0  ssl_cookie.o ABSOLUTE
    E:\MDK5\ARM\PACK\ARM\mbedTLS\1.6.0\library\ssl_srv.c 0x00000000   Number         0  ssl_srv.o ABSOLUTE
    E:\MDK5\ARM\PACK\ARM\mbedTLS\1.6.0\library\ssl_ticket.c 0x00000000   Number         0  ssl_ticket.o ABSOLUTE
    E:\MDK5\ARM\PACK\ARM\mbedTLS\1.6.0\library\ssl_tls.c 0x00000000   Number         0  ssl_tls.o ABSOLUTE
    E:\MDK5\ARM\PACK\ARM\mbedTLS\1.6.0\library\threading.c 0x00000000   Number         0  threading.o ABSOLUTE
    E:\MDK5\ARM\PACK\ARM\mbedTLS\1.6.0\library\timing.c 0x00000000   Number         0  timing.o ABSOLUTE
    E:\MDK5\ARM\PACK\ARM\mbedTLS\1.6.0\library\version.c 0x00000000   Number         0  version.o ABSOLUTE
    E:\MDK5\ARM\PACK\ARM\mbedTLS\1.6.0\library\version_features.c 0x00000000   Number         0  version_features.o ABSOLUTE
    E:\MDK5\ARM\PACK\ARM\mbedTLS\1.6.0\library\x509.c 0x00000000   Number         0  x509.o ABSOLUTE
    E:\MDK5\ARM\PACK\ARM\mbedTLS\1.6.0\library\x509_create.c 0x00000000   Number         0  x509_create.o ABSOLUTE
    E:\MDK5\ARM\PACK\ARM\mbedTLS\1.6.0\library\x509_crl.c 0x00000000   Number         0  x509_crl.o ABSOLUTE
    E:\MDK5\ARM\PACK\ARM\mbedTLS\1.6.0\library\x509_crt.c 0x00000000   Number         0  x509_crt.o ABSOLUTE
    E:\MDK5\ARM\PACK\ARM\mbedTLS\1.6.0\library\x509_csr.c 0x00000000   Number         0  x509_csr.o ABSOLUTE
    E:\MDK5\ARM\PACK\ARM\mbedTLS\1.6.0\library\x509write_crt.c 0x00000000   Number         0  x509write_crt.o ABSOLUTE
    E:\MDK5\ARM\PACK\ARM\mbedTLS\1.6.0\library\x509write_csr.c 0x00000000   Number         0  x509write_csr.o ABSOLUTE
    E:\MDK5\ARM\PACK\ARM\mbedTLS\1.6.0\library\xtea.c 0x00000000   Number         0  xtea.o ABSOLUTE
    cdrcmple.s                               0x00000000   Number         0  cdrcmple.o ABSOLUTE
    dc.s                                     0x00000000   Number         0  dc.o ABSOLUTE
    handlers.s                               0x00000000   Number         0  handlers.o ABSOLUTE
    init.s                                   0x00000000   Number         0  init.o ABSOLUTE
    RESET                                    0x08000000   Section      304  startup_stm32f10x_hd.o(RESET)
    .ARM.Collect$$$$00000000                 0x08000130   Section        0  entry.o(.ARM.Collect$$$$00000000)
    .ARM.Collect$$$$00000001                 0x08000130   Section        4  entry2.o(.ARM.Collect$$$$00000001)
    .ARM.Collect$$$$00000004                 0x08000134   Section        4  entry5.o(.ARM.Collect$$$$00000004)
    .ARM.Collect$$$$00000008                 0x08000138   Section        0  entry7b.o(.ARM.Collect$$$$00000008)
    .ARM.Collect$$$$0000000A                 0x08000138   Section        0  entry8b.o(.ARM.Collect$$$$0000000A)
    .ARM.Collect$$$$0000000B                 0x08000138   Section        8  entry9a.o(.ARM.Collect$$$$0000000B)
    .ARM.Collect$$$$0000000D                 0x08000140   Section        0  entry10a.o(.ARM.Collect$$$$0000000D)
    .ARM.Collect$$$$0000000F                 0x08000140   Section        0  entry11a.o(.ARM.Collect$$$$0000000F)
    .ARM.Collect$$$$00002712                 0x08000140   Section        4  entry2.o(.ARM.Collect$$$$00002712)
    __lit__00000000                          0x08000140   Data           4  entry2.o(.ARM.Collect$$$$00002712)
    .text                                    0x08000144   Section        0  stm32f10x_it.o(.text)
    .text                                    0x08000188   Section        0  main.o(.text)
    .text                                    0x08000228   Section        0  system.o(.text)
    .text                                    0x0800027c   Section        0  delay.o(.text)
    .text                                    0x08000350   Section        0  usart.o(.text)
    .text                                    0x0800049c   Section        0  gpio.o(.text)
    .text                                    0x0800051c   Section        0  system_stm32f10x.o(.text)
    SetSysClockTo72                          0x0800051d   Thumb Code   214  system_stm32f10x.o(.text)
    SetSysClock                              0x080005f3   Thumb Code     8  system_stm32f10x.o(.text)
    .text                                    0x080006fc   Section        0  misc.o(.text)
    .text                                    0x080007d8   Section        0  stm32f10x_rcc.o(.text)
    .text                                    0x08000b7c   Section        0  stm32f10x_usart.o(.text)
    .text                                    0x08000f84   Section        0  stm32f10x_gpio.o(.text)
    .text                                    0x080012e0   Section       36  startup_stm32f10x_hd.o(.text)
    .text                                    0x08001304   Section        0  platform_util.o(.text)
    .text                                    0x0800131c   Section        0  sha1.o(.text)
    .text                                    0x08002bd8   Section        0  memcpya.o(.text)
    .text                                    0x08002bfc   Section        0  memseta.o(.text)
    .text                                    0x08002c20   Section        0  uldiv.o(.text)
    .text                                    0x08002c84   Section       36  init.o(.text)
    .text                                    0x08002ca8   Section        0  llshl.o(.text)
    .text                                    0x08002cc6   Section        0  llushr.o(.text)
    i.__0printf$8                            0x08002ce8   Section        0  printf8.o(i.__0printf$8)
    i.__scatterload_copy                     0x08002d08   Section       14  handlers.o(i.__scatterload_copy)
    i.__scatterload_null                     0x08002d16   Section        2  handlers.o(i.__scatterload_null)
    i.__scatterload_zeroinit                 0x08002d18   Section       14  handlers.o(i.__scatterload_zeroinit)
    i._printf_core                           0x08002d28   Section        0  printf8.o(i._printf_core)
    _printf_core                             0x08002d29   Thumb Code   996  printf8.o(i._printf_core)
    i._printf_post_padding                   0x08003138   Section        0  printf8.o(i._printf_post_padding)
    _printf_post_padding                     0x08003139   Thumb Code    36  printf8.o(i._printf_post_padding)
    i._printf_pre_padding                    0x0800315c   Section        0  printf8.o(i._printf_pre_padding)
    _printf_pre_padding                      0x0800315d   Thumb Code    46  printf8.o(i._printf_pre_padding)
    .data                                    0x20000000   Section        9  main.o(.data)
    .data                                    0x2000000c   Section        8  delay.o(.data)
    .data                                    0x20000014   Section       18  usart.o(.data)
    flage                                    0x20000025   Data           1  usart.o(.data)
    .data                                    0x20000028   Section       20  system_stm32f10x.o(.data)
    .data                                    0x2000003c   Section       20  stm32f10x_rcc.o(.data)
    APBAHBPrescTable                         0x2000003c   Data          16  stm32f10x_rcc.o(.data)
    ADCPrescTable                            0x2000004c   Data           4  stm32f10x_rcc.o(.data)
    .data                                    0x20000050   Section        4  platform_util.o(.data)
    memset_func                              0x20000050   Data           4  platform_util.o(.data)
    .data                                    0x20000054   Section        4  stdout.o(.data)
    .bss                                     0x20000058   Section      112  main.o(.bss)
    .bss                                     0x200000c8   Section      150  usart.o(.bss)
    STACK                                    0x20000160   Section     1024  startup_stm32f10x_hd.o(STACK)

    Global Symbols

    Symbol Name                              Value     Ov Type        Size  Object(Section)

    BuildAttributes$$THM_ISAv4$P$D$K$B$S$PE$A:L22UL41UL21$X:L11$S22US41US21$IEEE1$IW$USESV6$~STKCKD$USESV7$~SHL$OSPACE$ROPI$EBA8$MICROLIB$REQ8$PRES8$EABIv2 0x00000000   Number         0  anon$$obj.o ABSOLUTE
    __ARM_use_no_argv                        0x00000000   Number         0  main.o ABSOLUTE
    _printf_a                                0x00000000   Number         0  stubs.o ABSOLUTE
    _printf_c                                0x00000000   Number         0  stubs.o ABSOLUTE
    _printf_charcount                        0x00000000   Number         0  stubs.o ABSOLUTE
    _printf_d                                0x00000000   Number         0  stubs.o ABSOLUTE
    _printf_e                                0x00000000   Number         0  stubs.o ABSOLUTE
    _printf_f                                0x00000000   Number         0  stubs.o ABSOLUTE
    _printf_flags                            0x00000000   Number         0  stubs.o ABSOLUTE
    _printf_fp_dec                           0x00000000   Number         0  stubs.o ABSOLUTE
    _printf_fp_hex                           0x00000000   Number         0  stubs.o ABSOLUTE
    _printf_g                                0x00000000   Number         0  stubs.o ABSOLUTE
    _printf_i                                0x00000000   Number         0  stubs.o ABSOLUTE
    _printf_int_dec                          0x00000000   Number         0  stubs.o ABSOLUTE
    _printf_l                                0x00000000   Number         0  stubs.o ABSOLUTE
    _printf_lc                               0x00000000   Number         0  stubs.o ABSOLUTE
    _printf_ll                               0x00000000   Number         0  stubs.o ABSOLUTE
    _printf_lld                              0x00000000   Number         0  stubs.o ABSOLUTE
    _printf_lli                              0x00000000   Number         0  stubs.o ABSOLUTE
    _printf_llo                              0x00000000   Number         0  stubs.o ABSOLUTE
    _printf_llu                              0x00000000   Number         0  stubs.o ABSOLUTE
    _printf_llx                              0x00000000   Number         0  stubs.o ABSOLUTE
    _printf_longlong_dec                     0x00000000   Number         0  stubs.o ABSOLUTE
    _printf_longlong_hex                     0x00000000   Number         0  stubs.o ABSOLUTE
    _printf_longlong_oct                     0x00000000   Number         0  stubs.o ABSOLUTE
    _printf_ls                               0x00000000   Number         0  stubs.o ABSOLUTE
    _printf_mbtowc                           0x00000000   Number         0  stubs.o ABSOLUTE
    _printf_n                                0x00000000   Number         0  stubs.o ABSOLUTE
    _printf_o                                0x00000000   Number         0  stubs.o ABSOLUTE
    _printf_p                                0x00000000   Number         0  stubs.o ABSOLUTE
    _printf_percent                          0x00000000   Number         0  stubs.o ABSOLUTE
    _printf_pre_padding                      0x00000000   Number         0  stubs.o ABSOLUTE
    _printf_return_value                     0x00000000   Number         0  stubs.o ABSOLUTE
    _printf_s                                0x00000000   Number         0  stubs.o ABSOLUTE
    _printf_sizespec                         0x00000000   Number         0  stubs.o ABSOLUTE
    _printf_str                              0x00000000   Number         0  stubs.o ABSOLUTE
    _printf_truncate_signed                  0x00000000   Number         0  stubs.o ABSOLUTE
    _printf_truncate_unsigned                0x00000000   Number         0  stubs.o ABSOLUTE
    _printf_u                                0x00000000   Number         0  stubs.o ABSOLUTE
    _printf_wc                               0x00000000   Number         0  stubs.o ABSOLUTE
    _printf_wctomb                           0x00000000   Number         0  stubs.o ABSOLUTE
    _printf_widthprec                        0x00000000   Number         0  stubs.o ABSOLUTE
    _printf_x                                0x00000000   Number         0  stubs.o ABSOLUTE
    __cpp_initialize__aeabi_                  - Undefined Weak Reference
    __cxa_finalize                            - Undefined Weak Reference
    __decompress                              - Undefined Weak Reference
    _clock_init                               - Undefined Weak Reference
    _microlib_exit                            - Undefined Weak Reference
    __Vectors_Size                           0x00000130   Number         0  startup_stm32f10x_hd.o ABSOLUTE
    __Vectors                                0x08000000   Data           4  startup_stm32f10x_hd.o(RESET)
    __Vectors_End                            0x08000130   Data           0  startup_stm32f10x_hd.o(RESET)
    __main                                   0x08000131   Thumb Code     0  entry.o(.ARM.Collect$$$$00000000)
    _main_stk                                0x08000131   Thumb Code     0  entry2.o(.ARM.Collect$$$$00000001)
    _main_scatterload                        0x08000135   Thumb Code     0  entry5.o(.ARM.Collect$$$$00000004)
    __main_after_scatterload                 0x08000139   Thumb Code     0  entry5.o(.ARM.Collect$$$$00000004)
    _main_clock                              0x08000139   Thumb Code     0  entry7b.o(.ARM.Collect$$$$00000008)
    _main_cpp_init                           0x08000139   Thumb Code     0  entry8b.o(.ARM.Collect$$$$0000000A)
    _main_init                               0x08000139   Thumb Code     0  entry9a.o(.ARM.Collect$$$$0000000B)
    __rt_final_cpp                           0x08000141   Thumb Code     0  entry10a.o(.ARM.Collect$$$$0000000D)
    __rt_final_exit                          0x08000141   Thumb Code     0  entry11a.o(.ARM.Collect$$$$0000000F)
    NMI_Handler                              0x08000145   Thumb Code     2  stm32f10x_it.o(.text)
    HardFault_Handler                        0x08000147   Thumb Code    40  stm32f10x_it.o(.text)
    MemManage_Handler                        0x0800016f   Thumb Code     4  stm32f10x_it.o(.text)
    BusFault_Handler                         0x08000173   Thumb Code     4  stm32f10x_it.o(.text)
    UsageFault_Handler                       0x08000177   Thumb Code     4  stm32f10x_it.o(.text)
    SVC_Handler                              0x0800017b   Thumb Code     2  stm32f10x_it.o(.text)
    DebugMon_Handler                         0x0800017d   Thumb Code     2  stm32f10x_it.o(.text)
    PendSV_Handler                           0x0800017f   Thumb Code     2  stm32f10x_it.o(.text)
    main                                     0x08000189   Thumb Code   106  main.o(.text)
    NVIC_Configuration                       0x08000229   Thumb Code    40  system.o(.text)
    Reset_MCU                                0x08000251   Thumb Code    36  system.o(.text)
    DelayInit                                0x0800027d   Thumb Code    90  delay.o(.text)
    delay_ms                                 0x080002d7   Thumb Code    18  delay.o(.text)
    SysTick_Handler                          0x080002e9   Thumb Code    66  delay.o(.text)
    uart_init                                0x08000351   Thumb Code   124  usart.o(.text)
    UsartOutStr                              0x080003cd   Thumb Code    42  usart.o(.text)
    UsartOutChar                             0x080003f7   Thumb Code    28  usart.o(.text)
    USART1_IRQHandler                        0x08000413   Thumb Code    60  usart.o(.text)
    fputc                                    0x0800044f   Thumb Code    54  usart.o(.text)
    GpioInit                                 0x0800049d   Thumb Code   120  gpio.o(.text)
    SystemInit                               0x080005fb   Thumb Code    78  system_stm32f10x.o(.text)
    SystemCoreClockUpdate                    0x08000649   Thumb Code   142  system_stm32f10x.o(.text)
    NVIC_PriorityGroupConfig                 0x080006fd   Thumb Code    10  misc.o(.text)
    NVIC_Init                                0x08000707   Thumb Code   100  misc.o(.text)
    NVIC_SetVectorTable                      0x0800076b   Thumb Code    14  misc.o(.text)
    NVIC_SystemLPConfig                      0x08000779   Thumb Code    34  misc.o(.text)
    SysTick_CLKSourceConfig                  0x0800079b   Thumb Code    40  misc.o(.text)
    RCC_DeInit                               0x080007d9   Thumb Code    64  stm32f10x_rcc.o(.text)
    RCC_HSEConfig                            0x08000819   Thumb Code    70  stm32f10x_rcc.o(.text)
    RCC_GetFlagStatus                        0x0800085f   Thumb Code    56  stm32f10x_rcc.o(.text)
    RCC_WaitForHSEStartUp                    0x08000897   Thumb Code    56  stm32f10x_rcc.o(.text)
    RCC_AdjustHSICalibrationValue            0x080008cf   Thumb Code    20  stm32f10x_rcc.o(.text)
    RCC_HSICmd                               0x080008e3   Thumb Code     6  stm32f10x_rcc.o(.text)
    RCC_PLLConfig                            0x080008e9   Thumb Code    24  stm32f10x_rcc.o(.text)
    RCC_PLLCmd                               0x08000901   Thumb Code     6  stm32f10x_rcc.o(.text)
    RCC_SYSCLKConfig                         0x08000907   Thumb Code    18  stm32f10x_rcc.o(.text)
    RCC_GetSYSCLKSource                      0x08000919   Thumb Code    10  stm32f10x_rcc.o(.text)
    RCC_HCLKConfig                           0x08000923   Thumb Code    18  stm32f10x_rcc.o(.text)
    RCC_PCLK1Config                          0x08000935   Thumb Code    18  stm32f10x_rcc.o(.text)
    RCC_PCLK2Config                          0x08000947   Thumb Code    20  stm32f10x_rcc.o(.text)
    RCC_ITConfig                             0x0800095b   Thumb Code    26  stm32f10x_rcc.o(.text)
    RCC_USBCLKConfig                         0x08000975   Thumb Code     8  stm32f10x_rcc.o(.text)
    RCC_ADCCLKConfig                         0x0800097d   Thumb Code    18  stm32f10x_rcc.o(.text)
    RCC_LSEConfig                            0x0800098f   Thumb Code    50  stm32f10x_rcc.o(.text)
    RCC_LSICmd                               0x080009c1   Thumb Code     6  stm32f10x_rcc.o(.text)
    RCC_RTCCLKConfig                         0x080009c7   Thumb Code    12  stm32f10x_rcc.o(.text)
    RCC_RTCCLKCmd                            0x080009d3   Thumb Code     8  stm32f10x_rcc.o(.text)
    RCC_GetClocksFreq                        0x080009db   Thumb Code   192  stm32f10x_rcc.o(.text)
    RCC_AHBPeriphClockCmd                    0x08000a9b   Thumb Code    26  stm32f10x_rcc.o(.text)
    RCC_APB2PeriphClockCmd                   0x08000ab5   Thumb Code    26  stm32f10x_rcc.o(.text)
    RCC_APB1PeriphClockCmd                   0x08000acf   Thumb Code    26  stm32f10x_rcc.o(.text)
    RCC_APB2PeriphResetCmd                   0x08000ae9   Thumb Code    26  stm32f10x_rcc.o(.text)
    RCC_APB1PeriphResetCmd                   0x08000b03   Thumb Code    26  stm32f10x_rcc.o(.text)
    RCC_BackupResetCmd                       0x08000b1d   Thumb Code     8  stm32f10x_rcc.o(.text)
    RCC_ClockSecuritySystemCmd               0x08000b25   Thumb Code     6  stm32f10x_rcc.o(.text)
    RCC_MCOConfig                            0x08000b2b   Thumb Code     6  stm32f10x_rcc.o(.text)
    RCC_ClearFlag                            0x08000b31   Thumb Code    14  stm32f10x_rcc.o(.text)
    RCC_GetITStatus                          0x08000b3f   Thumb Code    20  stm32f10x_rcc.o(.text)
    RCC_ClearITPendingBit                    0x08000b53   Thumb Code     6  stm32f10x_rcc.o(.text)
    USART_DeInit                             0x08000b7d   Thumb Code   134  stm32f10x_usart.o(.text)
    USART_Init                               0x08000c03   Thumb Code   210  stm32f10x_usart.o(.text)
    USART_StructInit                         0x08000cd5   Thumb Code    24  stm32f10x_usart.o(.text)
    USART_ClockInit                          0x08000ced   Thumb Code    34  stm32f10x_usart.o(.text)
    USART_ClockStructInit                    0x08000d0f   Thumb Code    12  stm32f10x_usart.o(.text)
    USART_Cmd                                0x08000d1b   Thumb Code    24  stm32f10x_usart.o(.text)
    USART_ITConfig                           0x08000d33   Thumb Code    74  stm32f10x_usart.o(.text)
    USART_DMACmd                             0x08000d7d   Thumb Code    18  stm32f10x_usart.o(.text)
    USART_SetAddress                         0x08000d8f   Thumb Code    18  stm32f10x_usart.o(.text)
    USART_WakeUpConfig                       0x08000da1   Thumb Code    18  stm32f10x_usart.o(.text)
    USART_ReceiverWakeUpCmd                  0x08000db3   Thumb Code    24  stm32f10x_usart.o(.text)
    USART_LINBreakDetectLengthConfig         0x08000dcb   Thumb Code    18  stm32f10x_usart.o(.text)
    USART_LINCmd                             0x08000ddd   Thumb Code    24  stm32f10x_usart.o(.text)
    USART_SendData                           0x08000df5   Thumb Code     8  stm32f10x_usart.o(.text)
    USART_ReceiveData                        0x08000dfd   Thumb Code    10  stm32f10x_usart.o(.text)
    USART_SendBreak                          0x08000e07   Thumb Code    10  stm32f10x_usart.o(.text)
    USART_SetGuardTime                       0x08000e11   Thumb Code    16  stm32f10x_usart.o(.text)
    USART_SetPrescaler                       0x08000e21   Thumb Code    16  stm32f10x_usart.o(.text)
    USART_SmartCardCmd                       0x08000e31   Thumb Code    24  stm32f10x_usart.o(.text)
    USART_SmartCardNACKCmd                   0x08000e49   Thumb Code    24  stm32f10x_usart.o(.text)
    USART_HalfDuplexCmd                      0x08000e61   Thumb Code    24  stm32f10x_usart.o(.text)
    USART_OverSampling8Cmd                   0x08000e79   Thumb Code    22  stm32f10x_usart.o(.text)
    USART_OneBitMethodCmd                    0x08000e8f   Thumb Code    24  stm32f10x_usart.o(.text)
    USART_IrDAConfig                         0x08000ea7   Thumb Code    18  stm32f10x_usart.o(.text)
    USART_IrDACmd                            0x08000eb9   Thumb Code    24  stm32f10x_usart.o(.text)
    USART_GetFlagStatus                      0x08000ed1   Thumb Code    26  stm32f10x_usart.o(.text)
    USART_ClearFlag                          0x08000eeb   Thumb Code    18  stm32f10x_usart.o(.text)
    USART_GetITStatus                        0x08000efd   Thumb Code    84  stm32f10x_usart.o(.text)
    USART_ClearITPendingBit                  0x08000f51   Thumb Code    52  stm32f10x_usart.o(.text)
    GPIO_DeInit                              0x08000f85   Thumb Code   172  stm32f10x_gpio.o(.text)
    GPIO_AFIODeInit                          0x08001031   Thumb Code    20  stm32f10x_gpio.o(.text)
    GPIO_Init                                0x08001045   Thumb Code   278  stm32f10x_gpio.o(.text)
    GPIO_StructInit                          0x0800115b   Thumb Code    16  stm32f10x_gpio.o(.text)
    GPIO_ReadInputDataBit                    0x0800116b   Thumb Code    18  stm32f10x_gpio.o(.text)
    GPIO_ReadInputData                       0x0800117d   Thumb Code     8  stm32f10x_gpio.o(.text)
    GPIO_ReadOutputDataBit                   0x08001185   Thumb Code    18  stm32f10x_gpio.o(.text)
    GPIO_ReadOutputData                      0x08001197   Thumb Code     8  stm32f10x_gpio.o(.text)
    GPIO_SetBits                             0x0800119f   Thumb Code     4  stm32f10x_gpio.o(.text)
    GPIO_ResetBits                           0x080011a3   Thumb Code     4  stm32f10x_gpio.o(.text)
    GPIO_WriteBit                            0x080011a7   Thumb Code    10  stm32f10x_gpio.o(.text)
    GPIO_Write                               0x080011b1   Thumb Code     4  stm32f10x_gpio.o(.text)
    GPIO_PinLockConfig                       0x080011b5   Thumb Code    18  stm32f10x_gpio.o(.text)
    GPIO_EventOutputConfig                   0x080011c7   Thumb Code    26  stm32f10x_gpio.o(.text)
    GPIO_EventOutputCmd                      0x080011e1   Thumb Code     6  stm32f10x_gpio.o(.text)
    GPIO_PinRemapConfig                      0x080011e7   Thumb Code   138  stm32f10x_gpio.o(.text)
    GPIO_EXTILineConfig                      0x08001271   Thumb Code    66  stm32f10x_gpio.o(.text)
    GPIO_ETH_MediaInterfaceConfig            0x080012b3   Thumb Code     8  stm32f10x_gpio.o(.text)
    Reset_Handler                            0x080012e1   Thumb Code     8  startup_stm32f10x_hd.o(.text)
    ADC1_2_IRQHandler                        0x080012fb   Thumb Code     0  startup_stm32f10x_hd.o(.text)
    ADC3_IRQHandler                          0x080012fb   Thumb Code     0  startup_stm32f10x_hd.o(.text)
    CAN1_RX1_IRQHandler                      0x080012fb   Thumb Code     0  startup_stm32f10x_hd.o(.text)
    CAN1_SCE_IRQHandler                      0x080012fb   Thumb Code     0  startup_stm32f10x_hd.o(.text)
    DMA1_Channel1_IRQHandler                 0x080012fb   Thumb Code     0  startup_stm32f10x_hd.o(.text)
    DMA1_Channel2_IRQHandler                 0x080012fb   Thumb Code     0  startup_stm32f10x_hd.o(.text)
    DMA1_Channel3_IRQHandler                 0x080012fb   Thumb Code     0  startup_stm32f10x_hd.o(.text)
    DMA1_Channel4_IRQHandler                 0x080012fb   Thumb Code     0  startup_stm32f10x_hd.o(.text)
    DMA1_Channel5_IRQHandler                 0x080012fb   Thumb Code     0  startup_stm32f10x_hd.o(.text)
    DMA1_Channel6_IRQHandler                 0x080012fb   Thumb Code     0  startup_stm32f10x_hd.o(.text)
    DMA1_Channel7_IRQHandler                 0x080012fb   Thumb Code     0  startup_stm32f10x_hd.o(.text)
    DMA2_Channel1_IRQHandler                 0x080012fb   Thumb Code     0  startup_stm32f10x_hd.o(.text)
    DMA2_Channel2_IRQHandler                 0x080012fb   Thumb Code     0  startup_stm32f10x_hd.o(.text)
    DMA2_Channel3_IRQHandler                 0x080012fb   Thumb Code     0  startup_stm32f10x_hd.o(.text)
    DMA2_Channel4_5_IRQHandler               0x080012fb   Thumb Code     0  startup_stm32f10x_hd.o(.text)
    EXTI0_IRQHandler                         0x080012fb   Thumb Code     0  startup_stm32f10x_hd.o(.text)
    EXTI15_10_IRQHandler                     0x080012fb   Thumb Code     0  startup_stm32f10x_hd.o(.text)
    EXTI1_IRQHandler                         0x080012fb   Thumb Code     0  startup_stm32f10x_hd.o(.text)
    EXTI2_IRQHandler                         0x080012fb   Thumb Code     0  startup_stm32f10x_hd.o(.text)
    EXTI3_IRQHandler                         0x080012fb   Thumb Code     0  startup_stm32f10x_hd.o(.text)
    EXTI4_IRQHandler                         0x080012fb   Thumb Code     0  startup_stm32f10x_hd.o(.text)
    EXTI9_5_IRQHandler                       0x080012fb   Thumb Code     0  startup_stm32f10x_hd.o(.text)
    FLASH_IRQHandler                         0x080012fb   Thumb Code     0  startup_stm32f10x_hd.o(.text)
    FSMC_IRQHandler                          0x080012fb   Thumb Code     0  startup_stm32f10x_hd.o(.text)
    I2C1_ER_IRQHandler                       0x080012fb   Thumb Code     0  startup_stm32f10x_hd.o(.text)
    I2C1_EV_IRQHandler                       0x080012fb   Thumb Code     0  startup_stm32f10x_hd.o(.text)
    I2C2_ER_IRQHandler                       0x080012fb   Thumb Code     0  startup_stm32f10x_hd.o(.text)
    I2C2_EV_IRQHandler                       0x080012fb   Thumb Code     0  startup_stm32f10x_hd.o(.text)
    PVD_IRQHandler                           0x080012fb   Thumb Code     0  startup_stm32f10x_hd.o(.text)
    RCC_IRQHandler                           0x080012fb   Thumb Code     0  startup_stm32f10x_hd.o(.text)
    RTCAlarm_IRQHandler                      0x080012fb   Thumb Code     0  startup_stm32f10x_hd.o(.text)
    RTC_IRQHandler                           0x080012fb   Thumb Code     0  startup_stm32f10x_hd.o(.text)
    SDIO_IRQHandler                          0x080012fb   Thumb Code     0  startup_stm32f10x_hd.o(.text)
    SPI1_IRQHandler                          0x080012fb   Thumb Code     0  startup_stm32f10x_hd.o(.text)
    SPI2_IRQHandler                          0x080012fb   Thumb Code     0  startup_stm32f10x_hd.o(.text)
    SPI3_IRQHandler                          0x080012fb   Thumb Code     0  startup_stm32f10x_hd.o(.text)
    TAMPER_IRQHandler                        0x080012fb   Thumb Code     0  startup_stm32f10x_hd.o(.text)
    TIM1_BRK_IRQHandler                      0x080012fb   Thumb Code     0  startup_stm32f10x_hd.o(.text)
    TIM1_CC_IRQHandler                       0x080012fb   Thumb Code     0  startup_stm32f10x_hd.o(.text)
    TIM1_TRG_COM_IRQHandler                  0x080012fb   Thumb Code     0  startup_stm32f10x_hd.o(.text)
    TIM1_UP_IRQHandler                       0x080012fb   Thumb Code     0  startup_stm32f10x_hd.o(.text)
    TIM2_IRQHandler                          0x080012fb   Thumb Code     0  startup_stm32f10x_hd.o(.text)
    TIM3_IRQHandler                          0x080012fb   Thumb Code     0  startup_stm32f10x_hd.o(.text)
    TIM4_IRQHandler                          0x080012fb   Thumb Code     0  startup_stm32f10x_hd.o(.text)
    TIM5_IRQHandler                          0x080012fb   Thumb Code     0  startup_stm32f10x_hd.o(.text)
    TIM6_IRQHandler                          0x080012fb   Thumb Code     0  startup_stm32f10x_hd.o(.text)
    TIM7_IRQHandler                          0x080012fb   Thumb Code     0  startup_stm32f10x_hd.o(.text)
    TIM8_BRK_IRQHandler                      0x080012fb   Thumb Code     0  startup_stm32f10x_hd.o(.text)
    TIM8_CC_IRQHandler                       0x080012fb   Thumb Code     0  startup_stm32f10x_hd.o(.text)
    TIM8_TRG_COM_IRQHandler                  0x080012fb   Thumb Code     0  startup_stm32f10x_hd.o(.text)
    TIM8_UP_IRQHandler                       0x080012fb   Thumb Code     0  startup_stm32f10x_hd.o(.text)
    UART4_IRQHandler                         0x080012fb   Thumb Code     0  startup_stm32f10x_hd.o(.text)
    UART5_IRQHandler                         0x080012fb   Thumb Code     0  startup_stm32f10x_hd.o(.text)
    USART2_IRQHandler                        0x080012fb   Thumb Code     0  startup_stm32f10x_hd.o(.text)
    USART3_IRQHandler                        0x080012fb   Thumb Code     0  startup_stm32f10x_hd.o(.text)
    USBWakeUp_IRQHandler                     0x080012fb   Thumb Code     0  startup_stm32f10x_hd.o(.text)
    USB_HP_CAN1_TX_IRQHandler                0x080012fb   Thumb Code     0  startup_stm32f10x_hd.o(.text)
    USB_LP_CAN1_RX0_IRQHandler               0x080012fb   Thumb Code     0  startup_stm32f10x_hd.o(.text)
    WWDG_IRQHandler                          0x080012fb   Thumb Code     0  startup_stm32f10x_hd.o(.text)
    mbedtls_platform_zeroize                 0x08001305   Thumb Code    20  platform_util.o(.text)
    mbedtls_sha1_init                        0x0800131d   Thumb Code    18  sha1.o(.text)
    mbedtls_sha1_free                        0x0800132f   Thumb Code    20  sha1.o(.text)
    mbedtls_sha1_clone                       0x08001343   Thumb Code    26  sha1.o(.text)
    mbedtls_sha1_starts_ret                  0x0800135d   Thumb Code    38  sha1.o(.text)
    mbedtls_sha1_starts                      0x08001383   Thumb Code    12  sha1.o(.text)
    mbedtls_internal_sha1_process            0x0800138f   Thumb Code  5606  sha1.o(.text)
    mbedtls_sha1_process                     0x08002975   Thumb Code    16  sha1.o(.text)
    mbedtls_sha1_update_ret                  0x08002985   Thumb Code   154  sha1.o(.text)
    mbedtls_sha1_update                      0x08002a1f   Thumb Code    20  sha1.o(.text)
    mbedtls_sha1_finish_ret                  0x08002a33   Thumb Code   300  sha1.o(.text)
    mbedtls_sha1_finish                      0x08002b5f   Thumb Code    16  sha1.o(.text)
    mbedtls_sha1_ret                         0x08002b6f   Thumb Code    80  sha1.o(.text)
    mbedtls_sha1                             0x08002bbf   Thumb Code    20  sha1.o(.text)
    __aeabi_memcpy                           0x08002bd9   Thumb Code    36  memcpya.o(.text)
    __aeabi_memcpy4                          0x08002bd9   Thumb Code     0  memcpya.o(.text)
    __aeabi_memcpy8                          0x08002bd9   Thumb Code     0  memcpya.o(.text)
    __aeabi_memset                           0x08002bfd   Thumb Code    14  memseta.o(.text)
    __aeabi_memset4                          0x08002bfd   Thumb Code     0  memseta.o(.text)
    __aeabi_memset8                          0x08002bfd   Thumb Code     0  memseta.o(.text)
    __aeabi_memclr                           0x08002c0b   Thumb Code     4  memseta.o(.text)
    __aeabi_memclr4                          0x08002c0b   Thumb Code     0  memseta.o(.text)
    __aeabi_memclr8                          0x08002c0b   Thumb Code     0  memseta.o(.text)
    memset                                   0x08002c0f   Thumb Code    18  memseta.o(.text)
    __aeabi_uldivmod                         0x08002c21   Thumb Code    98  uldiv.o(.text)
    __scatterload                            0x08002c85   Thumb Code    28  init.o(.text)
    __scatterload_rt2                        0x08002c85   Thumb Code     0  init.o(.text)
    __aeabi_llsl                             0x08002ca9   Thumb Code    30  llshl.o(.text)
    _ll_shift_l                              0x08002ca9   Thumb Code     0  llshl.o(.text)
    __aeabi_llsr                             0x08002cc7   Thumb Code    32  llushr.o(.text)
    _ll_ushift_r                             0x08002cc7   Thumb Code     0  llushr.o(.text)
    __0printf$8                              0x08002ce9   Thumb Code    22  printf8.o(i.__0printf$8)
    __1printf$8                              0x08002ce9   Thumb Code     0  printf8.o(i.__0printf$8)
    __2printf                                0x08002ce9   Thumb Code     0  printf8.o(i.__0printf$8)
    __scatterload_copy                       0x08002d09   Thumb Code    14  handlers.o(i.__scatterload_copy)
    __scatterload_null                       0x08002d17   Thumb Code     2  handlers.o(i.__scatterload_null)
    __scatterload_zeroinit                   0x08002d19   Thumb Code    14  handlers.o(i.__scatterload_zeroinit)
    Region$$Table$$Base                      0x0800318c   Number         0  anon$$obj.o(Region$$Table)
    Region$$Table$$Limit                     0x080031ac   Number         0  anon$$obj.o(Region$$Table)
    i                                        0x20000000   Data           4  main.o(.data)
    encrypt                                  0x20000004   Data           5  main.o(.data)
    SysTickLedTime                           0x2000000c   Data           4  delay.o(.data)
    SysTickCntMs                             0x20000010   Data           4  delay.o(.data)
    Usart1ReadCnt                            0x20000014   Data           4  usart.o(.data)
    Usart1ReadCntCopy                        0x20000018   Data           4  usart.o(.data)
    Usart1IdleCnt                            0x2000001c   Data           4  usart.o(.data)
    Usart1IdleTime                           0x20000020   Data           4  usart.o(.data)
    Usart1ReadFlage                          0x20000024   Data           1  usart.o(.data)
    SystemCoreClock                          0x20000028   Data           4  system_stm32f10x.o(.data)
    AHBPrescTable                            0x2000002c   Data          16  system_stm32f10x.o(.data)
    __stdout                                 0x20000054   Data           4  stdout.o(.data)
    decrypt                                  0x20000058   Data          20  main.o(.bss)
    sha1_ctx                                 0x2000006c   Data          92  main.o(.bss)
    Usart1ReadBuff                           0x200000c8   Data         150  usart.o(.bss)
    __initial_sp                             0x20000560   Data           0  startup_stm32f10x_hd.o(STACK)



==============================================================================

Memory Map of the image

  Image Entry point : 0x08000131

  Load Region LR_IROM1 (Base: 0x08000000, Size: 0x00003204, Max: 0x00010000, ABSOLUTE)

    Execution Region ER_IROM1 (Base: 0x08000000, Size: 0x000031ac, Max: 0x00010000, ABSOLUTE)

    Base Addr    Size         Type   Attr      Idx    E Section Name        Object

    0x08000000   0x00000130   Data   RO          440    RESET               startup_stm32f10x_hd.o
    0x08000130   0x00000000   Code   RO          983  * .ARM.Collect$$$$00000000  mc_w.l(entry.o)
    0x08000130   0x00000004   Code   RO         1255    .ARM.Collect$$$$00000001  mc_w.l(entry2.o)
    0x08000134   0x00000004   Code   RO         1258    .ARM.Collect$$$$00000004  mc_w.l(entry5.o)
    0x08000138   0x00000000   Code   RO         1260    .ARM.Collect$$$$00000008  mc_w.l(entry7b.o)
    0x08000138   0x00000000   Code   RO         1262    .ARM.Collect$$$$0000000A  mc_w.l(entry8b.o)
    0x08000138   0x00000008   Code   RO         1263    .ARM.Collect$$$$0000000B  mc_w.l(entry9a.o)
    0x08000140   0x00000000   Code   RO         1265    .ARM.Collect$$$$0000000D  mc_w.l(entry10a.o)
    0x08000140   0x00000000   Code   RO         1267    .ARM.Collect$$$$0000000F  mc_w.l(entry11a.o)
    0x08000140   0x00000004   Code   RO         1256    .ARM.Collect$$$$00002712  mc_w.l(entry2.o)
    0x08000144   0x00000044   Code   RO            3    .text               stm32f10x_it.o
    0x08000188   0x000000a0   Code   RO          121    .text               main.o
    0x08000228   0x00000054   Code   RO          194    .text               system.o
    0x0800027c   0x000000d4   Code   RO          214    .text               delay.o
    0x08000350   0x0000014c   Code   RO          244    .text               usart.o
    0x0800049c   0x00000080   Code   RO          271    .text               gpio.o
    0x0800051c   0x000001e0   Code   RO          299    .text               system_stm32f10x.o
    0x080006fc   0x000000dc   Code   RO          338    .text               misc.o
    0x080007d8   0x000003a4   Code   RO          358    .text               stm32f10x_rcc.o
    0x08000b7c   0x00000408   Code   RO          380    .text               stm32f10x_usart.o
    0x08000f84   0x0000035c   Code   RO          420    .text               stm32f10x_gpio.o
    0x080012e0   0x00000024   Code   RO          441    .text               startup_stm32f10x_hd.o
    0x08001304   0x00000018   Code   RO          782    .text               platform_util.o
    0x0800131c   0x000018bc   Code   RO          842    .text               sha1.o
    0x08002bd8   0x00000024   Code   RO          986    .text               mc_w.l(memcpya.o)
    0x08002bfc   0x00000024   Code   RO          990    .text               mc_w.l(memseta.o)
    0x08002c20   0x00000062   Code   RO         1272    .text               mc_w.l(uldiv.o)
    0x08002c82   0x00000002   PAD
    0x08002c84   0x00000024   Code   RO         1285    .text               mc_w.l(init.o)
    0x08002ca8   0x0000001e   Code   RO         1287    .text               mc_w.l(llshl.o)
    0x08002cc6   0x00000020   Code   RO         1289    .text               mc_w.l(llushr.o)
    0x08002ce6   0x00000002   PAD
    0x08002ce8   0x00000020   Code   RO         1201    i.__0printf$8       mc_w.l(printf8.o)
    0x08002d08   0x0000000e   Code   RO         1297    i.__scatterload_copy  mc_w.l(handlers.o)
    0x08002d16   0x00000002   Code   RO         1298    i.__scatterload_null  mc_w.l(handlers.o)
    0x08002d18   0x0000000e   Code   RO         1299    i.__scatterload_zeroinit  mc_w.l(handlers.o)
    0x08002d26   0x00000002   PAD
    0x08002d28   0x00000410   Code   RO         1208    i._printf_core      mc_w.l(printf8.o)
    0x08003138   0x00000024   Code   RO         1209    i._printf_post_padding  mc_w.l(printf8.o)
    0x0800315c   0x0000002e   Code   RO         1210    i._printf_pre_padding  mc_w.l(printf8.o)
    0x0800318a   0x00000002   PAD
    0x0800318c   0x00000020   Data   RO         1295    Region$$Table       anon$$obj.o


    Execution Region RW_IRAM1 (Base: 0x20000000, Size: 0x00000560, Max: 0x00005000, ABSOLUTE)

    Base Addr    Size         Type   Attr      Idx    E Section Name        Object

    0x20000000   0x00000009   Data   RW          123    .data               main.o
    0x20000009   0x00000003   PAD
    0x2000000c   0x00000008   Data   RW          215    .data               delay.o
    0x20000014   0x00000012   Data   RW          246    .data               usart.o
    0x20000026   0x00000002   PAD
    0x20000028   0x00000014   Data   RW          300    .data               system_stm32f10x.o
    0x2000003c   0x00000014   Data   RW          359    .data               stm32f10x_rcc.o
    0x20000050   0x00000004   Data   RW          783    .data               platform_util.o
    0x20000054   0x00000004   Data   RW         1269    .data               mc_w.l(stdout.o)
    0x20000058   0x00000070   Zero   RW          122    .bss                main.o
    0x200000c8   0x00000096   Zero   RW          245    .bss                usart.o
    0x2000015e   0x00000002   PAD
    0x20000160   0x00000400   Zero   RW          438    STACK               startup_stm32f10x_hd.o


==============================================================================

Image component sizes


      Code (inc. data)   RO Data    RW Data    ZI Data      Debug   Object Name

         0          0          0          0          0        480   certs.o
       212         38          0          8          0      23334   delay.o
       128          8          0          0          0        555   gpio.o
       160         54          0          9        112       3464   main.o
       220         22          0          0          0       1845   misc.o
        24          4          0          4          0       1283   platform_util.o
      6332         40          0          0          0       7194   sha1.o
        36          8        304          0       1024        828   startup_stm32f10x_hd.o
       860         38          0          0          0       5697   stm32f10x_gpio.o
        68          8          0          0          0     254661   stm32f10x_it.o
       932         36          0         20          0       8904   stm32f10x_rcc.o
      1032         22          0          0          0       8416   stm32f10x_usart.o
        84          8          0          0          0        759   system.o
       480         38          0         20          0       1911   system_stm32f10x.o
       332         24          0         18        150       2431   usart.o

    ----------------------------------------------------------------------
     10900        348        336         84       1288     321762   Object Totals
         0          0         32          0          0          0   (incl. Generated)
         0          0          0          5          2          0   (incl. Padding)

    ----------------------------------------------------------------------

      Code (inc. data)   RO Data    RW Data    ZI Data      Debug   Library Member Name

         0          0          0          0          0          0   entry.o
         0          0          0          0          0          0   entry10a.o
         0          0          0          0          0          0   entry11a.o
         8          4          0          0          0          0   entry2.o
         4          0          0          0          0          0   entry5.o
         0          0          0          0          0          0   entry7b.o
         0          0          0          0          0          0   entry8b.o
         8          4          0          0          0          0   entry9a.o
        30          0          0          0          0          0   handlers.o
        36          8          0          0          0         68   init.o
        30          0          0          0          0         68   llshl.o
        32          0          0          0          0         68   llushr.o
        36          0          0          0          0         68   memcpya.o
        36          0          0          0          0        108   memseta.o
      1154         54          0          0          0        352   printf8.o
         0          0          0          4          0          0   stdout.o
        98          0          0          0          0         92   uldiv.o

    ----------------------------------------------------------------------
      1480         70          0          4          0        824   Library Totals
         8          0          0          0          0          0   (incl. Padding)

    ----------------------------------------------------------------------

      Code (inc. data)   RO Data    RW Data    ZI Data      Debug   Library Name

      1472         70          0          4          0        824   mc_w.l

    ----------------------------------------------------------------------
      1480         70          0          4          0        824   Library Totals

    ----------------------------------------------------------------------

==============================================================================


      Code (inc. data)   RO Data    RW Data    ZI Data      Debug   

     12380        418        336         88       1288     321230   Grand Totals
     12380        418        336         88       1288     321230   ELF Image Totals
     12380        418        336         88          0          0   ROM Totals

==============================================================================

    Total RO  Size (Code + RO Data)                12716 (  12.42kB)
    Total RW  Size (RW Data + ZI Data)              1376 (   1.34kB)
    Total ROM Size (Code + RO Data + RW Data)      12804 (  12.50kB)

==============================================================================

